{
  "_format": "hh-sol-artifact-1",
  "contractName": "CategoryFacet",
  "sourceName": "contracts/EventDiamond/facets/CategoryFacet.sol",
  "abi": [
    {
      "anonymous": false,
      "inputs": [
        {
          "indexed": false,
          "internalType": "uint256",
          "name": "eventId",
          "type": "uint256"
        },
        {
          "indexed": false,
          "internalType": "bool",
          "name": "value",
          "type": "bool"
        }
      ],
      "name": "AllCategorySellChanged",
      "type": "event"
    },
    {
      "anonymous": false,
      "inputs": [
        {
          "indexed": false,
          "internalType": "uint256",
          "name": "eventId",
          "type": "uint256"
        },
        {
          "indexed": false,
          "internalType": "uint256",
          "name": "categoryId",
          "type": "uint256"
        },
        {
          "indexed": false,
          "internalType": "string",
          "name": "categoryCid",
          "type": "string"
        }
      ],
      "name": "CategoryCreated",
      "type": "event"
    },
    {
      "anonymous": false,
      "inputs": [
        {
          "indexed": false,
          "internalType": "uint256",
          "name": "eventId",
          "type": "uint256"
        },
        {
          "indexed": false,
          "internalType": "uint256",
          "name": "categoryId",
          "type": "uint256"
        }
      ],
      "name": "CategoryDeleted",
      "type": "event"
    },
    {
      "anonymous": false,
      "inputs": [
        {
          "indexed": false,
          "internalType": "uint256",
          "name": "eventId",
          "type": "uint256"
        },
        {
          "indexed": false,
          "internalType": "uint256",
          "name": "categoryId",
          "type": "uint256"
        },
        {
          "indexed": false,
          "internalType": "address",
          "name": "staffMember",
          "type": "address"
        }
      ],
      "name": "CategorySaleDatesUpdated",
      "type": "event"
    },
    {
      "anonymous": false,
      "inputs": [
        {
          "indexed": false,
          "internalType": "uint256",
          "name": "eventId",
          "type": "uint256"
        },
        {
          "indexed": false,
          "internalType": "uint256",
          "name": "categoryId",
          "type": "uint256"
        },
        {
          "indexed": false,
          "internalType": "bool",
          "name": "value",
          "type": "bool"
        }
      ],
      "name": "CategorySellChanged",
      "type": "event"
    },
    {
      "anonymous": false,
      "inputs": [
        {
          "indexed": false,
          "internalType": "uint256",
          "name": "eventId",
          "type": "uint256"
        },
        {
          "indexed": false,
          "internalType": "uint256",
          "name": "categoryId",
          "type": "uint256"
        },
        {
          "indexed": false,
          "internalType": "uint256",
          "name": "ticketsCount",
          "type": "uint256"
        }
      ],
      "name": "CategoryTicketsAdded",
      "type": "event"
    },
    {
      "anonymous": false,
      "inputs": [
        {
          "indexed": false,
          "internalType": "uint256",
          "name": "eventId",
          "type": "uint256"
        },
        {
          "indexed": false,
          "internalType": "uint256",
          "name": "categoryId",
          "type": "uint256"
        },
        {
          "indexed": false,
          "internalType": "uint256",
          "name": "ticketsCount",
          "type": "uint256"
        }
      ],
      "name": "CategoryTicketsRemoved",
      "type": "event"
    },
    {
      "anonymous": false,
      "inputs": [
        {
          "indexed": false,
          "internalType": "uint256",
          "name": "eventId",
          "type": "uint256"
        },
        {
          "indexed": false,
          "internalType": "uint256",
          "name": "categoryId",
          "type": "uint256"
        }
      ],
      "name": "CategoryUpdated",
      "type": "event"
    },
    {
      "inputs": [
        {
          "internalType": "uint256",
          "name": "_eventId",
          "type": "uint256"
        },
        {
          "internalType": "uint256",
          "name": "_categoryId",
          "type": "uint256"
        },
        {
          "internalType": "uint256",
          "name": "_ticketsCount",
          "type": "uint256"
        }
      ],
      "name": "addCategoryTicketsCount",
      "outputs": [],
      "stateMutability": "nonpayable",
      "type": "function"
    },
    {
      "inputs": [
        {
          "internalType": "uint256",
          "name": "_eventId",
          "type": "uint256"
        },
        {
          "internalType": "string",
          "name": "_categoryCid",
          "type": "string"
        },
        {
          "internalType": "uint256",
          "name": "_saleStartDate",
          "type": "uint256"
        },
        {
          "internalType": "uint256",
          "name": "_saleEndDate",
          "type": "uint256"
        },
        {
          "internalType": "uint256",
          "name": "_ticketsCount",
          "type": "uint256"
        },
        {
          "internalType": "uint256",
          "name": "_ticketPrice",
          "type": "uint256"
        },
        {
          "internalType": "bool",
          "name": "_hasPlaces",
          "type": "bool"
        },
        {
          "internalType": "uint256[]",
          "name": "_discountsTicketsCount",
          "type": "uint256[]"
        },
        {
          "internalType": "uint256[]",
          "name": "_discountsPercentage",
          "type": "uint256[]"
        },
        {
          "components": [
            {
              "internalType": "uint256",
              "name": "price",
              "type": "uint256"
            },
            {
              "internalType": "uint256",
              "name": "finalAmountDate",
              "type": "uint256"
            }
          ],
          "internalType": "struct DownPayment",
          "name": "_downPayment",
          "type": "tuple"
        }
      ],
      "name": "createTicketCategory",
      "outputs": [],
      "stateMutability": "nonpayable",
      "type": "function"
    },
    {
      "inputs": [
        {
          "internalType": "uint256",
          "name": "_eventId",
          "type": "uint256"
        }
      ],
      "name": "fetchCategoriesByEventId",
      "outputs": [
        {
          "components": [
            {
              "internalType": "uint256",
              "name": "id",
              "type": "uint256"
            },
            {
              "internalType": "string",
              "name": "cid",
              "type": "string"
            },
            {
              "internalType": "uint256[]",
              "name": "ticketIds",
              "type": "uint256[]"
            },
            {
              "internalType": "uint256",
              "name": "ticketPrice",
              "type": "uint256"
            },
            {
              "internalType": "uint256",
              "name": "ticketsCount",
              "type": "uint256"
            },
            {
              "internalType": "uint256",
              "name": "saleStartDate",
              "type": "uint256"
            },
            {
              "internalType": "uint256",
              "name": "saleEndDate",
              "type": "uint256"
            },
            {
              "internalType": "uint256",
              "name": "eventId",
              "type": "uint256"
            },
            {
              "internalType": "uint256",
              "name": "balance",
              "type": "uint256"
            },
            {
              "internalType": "bool",
              "name": "hasPlaces",
              "type": "bool"
            },
            {
              "internalType": "uint256[]",
              "name": "discountsTicketsCount",
              "type": "uint256[]"
            },
            {
              "internalType": "uint256[]",
              "name": "discountsPercentage",
              "type": "uint256[]"
            },
            {
              "components": [
                {
                  "internalType": "uint256",
                  "name": "price",
                  "type": "uint256"
                },
                {
                  "internalType": "uint256",
                  "name": "finalAmountDate",
                  "type": "uint256"
                }
              ],
              "internalType": "struct DownPayment",
              "name": "downPayment",
              "type": "tuple"
            },
            {
              "internalType": "bool",
              "name": "areTicketsBuyable",
              "type": "bool"
            }
          ],
          "internalType": "struct Category[]",
          "name": "",
          "type": "tuple[]"
        }
      ],
      "stateMutability": "view",
      "type": "function"
    },
    {
      "inputs": [
        {
          "internalType": "uint256",
          "name": "_eventId",
          "type": "uint256"
        },
        {
          "internalType": "bool",
          "name": "_value",
          "type": "bool"
        }
      ],
      "name": "manageAllCategorySelling",
      "outputs": [],
      "stateMutability": "nonpayable",
      "type": "function"
    },
    {
      "inputs": [
        {
          "internalType": "uint256",
          "name": "_eventId",
          "type": "uint256"
        },
        {
          "internalType": "uint256",
          "name": "_categoryId",
          "type": "uint256"
        },
        {
          "internalType": "bool",
          "name": "_value",
          "type": "bool"
        }
      ],
      "name": "manageCategorySelling",
      "outputs": [],
      "stateMutability": "nonpayable",
      "type": "function"
    },
    {
      "inputs": [
        {
          "internalType": "uint256",
          "name": "_eventId",
          "type": "uint256"
        },
        {
          "internalType": "uint256",
          "name": "_categoryId",
          "type": "uint256"
        }
      ],
      "name": "removeCategory",
      "outputs": [],
      "stateMutability": "nonpayable",
      "type": "function"
    },
    {
      "inputs": [
        {
          "internalType": "uint256",
          "name": "_eventId",
          "type": "uint256"
        },
        {
          "internalType": "uint256",
          "name": "_categoryId",
          "type": "uint256"
        },
        {
          "internalType": "uint256",
          "name": "_ticketsCount",
          "type": "uint256"
        }
      ],
      "name": "removeCategoryTicketsCount",
      "outputs": [],
      "stateMutability": "nonpayable",
      "type": "function"
    },
    {
      "inputs": [
        {
          "internalType": "uint256",
          "name": "_eventId",
          "type": "uint256"
        },
        {
          "internalType": "uint256",
          "name": "_categoryId",
          "type": "uint256"
        },
        {
          "internalType": "string",
          "name": "_categoryCid",
          "type": "string"
        },
        {
          "internalType": "uint256",
          "name": "_ticketPrice",
          "type": "uint256"
        },
        {
          "internalType": "uint256[]",
          "name": "_discountsTicketsCount",
          "type": "uint256[]"
        },
        {
          "internalType": "uint256[]",
          "name": "_discountsPercentage",
          "type": "uint256[]"
        },
        {
          "components": [
            {
              "internalType": "uint256",
              "name": "price",
              "type": "uint256"
            },
            {
              "internalType": "uint256",
              "name": "finalAmountDate",
              "type": "uint256"
            }
          ],
          "internalType": "struct DownPayment",
          "name": "_downPayment",
          "type": "tuple"
        }
      ],
      "name": "updateCategory",
      "outputs": [],
      "stateMutability": "nonpayable",
      "type": "function"
    },
    {
      "inputs": [
        {
          "internalType": "uint256",
          "name": "_eventId",
          "type": "uint256"
        },
        {
          "internalType": "uint256",
          "name": "_categoryId",
          "type": "uint256"
        },
        {
          "internalType": "uint256",
          "name": "_saleStartDate",
          "type": "uint256"
        },
        {
          "internalType": "uint256",
          "name": "_saleEndDate",
          "type": "uint256"
        }
      ],
      "name": "updateCategorySaleDates",
      "outputs": [],
      "stateMutability": "nonpayable",
      "type": "function"
    }
  ],
  "bytecode": "0x608060405234801561001057600080fd5b506124af806100206000396000f3fe608060405234801561001057600080fd5b50600436106100835760003560e01c80630309a539146100885780631c6f92711461009d5780632761f33b146100b05780633d378bb0146100c3578063a310d9bf146100d6578063a3bdc7c7146100e9578063d5533da014610112578063f354159b14610125578063f817c31514610138575b600080fd5b61009b610096366004611b4f565b61014b565b005b61009b6100ab366004611b7b565b610273565b61009b6100be366004611cac565b610436565b61009b6100d1366004611d6e565b6106fe565b61009b6100e4366004611d90565b610af6565b6100fc6100f7366004611dc5565b610cc4565b6040516101099190611e5f565b60405180910390f35b61009b610120366004611fab565b611086565b61009b610133366004611fab565b61124e565b61009b610146366004611fd7565b6114d7565b600082815260026020908152604091829020548251808401909352601b835260008051602061238f833981519152918301919091528391906001600160a01b03166101b25760405162461bcd60e51b81526004016101a991906120ce565b60405180910390fd5b506101bf836000336117b8565b806101de57506101de836000805160206123f7833981519152336117b8565b6040518060600160405280602a81526020016122f0602a9139906102155760405162461bcd60e51b81526004016101a991906120ce565b506000838152600e6020908152604091829020600301805460ff19168515159081179091558251868152918201527f578eeefe0b8083fcd939e8d547da4c0ba6b26ed213c13de65ab08a52f9f26a52910160405180910390a1505050565b600084815260026020908152604091829020548251808401909352601b835260008051602061238f833981519152918301919091528591906001600160a01b03166102d15760405162461bcd60e51b81526004016101a991906120ce565b506000848152600f6020908152604091829020548251808401909352601e83526000805160206123af833981519152918301919091528591906103275760405162461bcd60e51b81526004016101a991906120ce565b508585816000600f016000838152602001908152602001600020600701541460405180606001604052806029815260200161231a602991399061037d5760405162461bcd60e51b81526004016101a991906120ce565b5061038a886000336117b8565b806103a957506103a9886000805160206123f7833981519152336117b8565b6040518060600160405280602a81526020016122f0602a9139906103e05760405162461bcd60e51b81526004016101a991906120ce565b506103ed888888886117ea565b6040805189815260208101899052338183015290517f4192182acd964db32b1197a6483d5694cf6e678e7202565c44cc961078eb2c8f9181900360600190a15050505050505050565b600089815260026020908152604091829020548251808401909352601b835260008051602061238f833981519152918301919091528a91906001600160a01b03166104945760405162461bcd60e51b81526004016101a991906120ce565b506000898152600f6020908152604091829020548251808401909352601e83526000805160206123af833981519152918301919091528a91906104ea5760405162461bcd60e51b81526004016101a991906120ce565b508a8a816000600f016000838152602001908152602001600020600701541460405180606001604052806029815260200161231a60299139906105405760405162461bcd60e51b81526004016101a991906120ce565b5061054d8d6000336117b8565b8061056c575061056c8d6000805160206123f7833981519152336117b8565b6040518060600160405280602a81526020016122f0602a9139906105a35760405162461bcd60e51b81526004016101a991906120ce565b506040805160608101909152602880825289881491906123cf6020830139906105df5760405162461bcd60e51b81526004016101a991906120ce565b508960000361062d57871580156105f4575085155b6040518060600160405280602881526020016123cf602891399061062b5760405162461bcd60e51b81526004016101a991906120ce565b505b60008c8152600f602052604090206001016106488c8261216b565b5060008c8152600f60205260409020600381018b905561066c90600a018a8a6119b8565b5060008c8152600f6020526040902061068990600b0188886119b8565b5060008c8152600f602052604090208590600c016106b4828281358155602082013560018201555050565b5050604080518e8152602081018e90527f44df894581249b9c6cda25b6fe8239320be1641adde53f17479b4153cadfcc60910160405180910390a150505050505050505050505050565b600082815260026020908152604091829020548251808401909352601b835260008051602061238f833981519152918301919091528391906001600160a01b031661075c5760405162461bcd60e51b81526004016101a991906120ce565b506000828152600f6020908152604091829020548251808401909352601e83526000805160206123af833981519152918301919091528391906107b25760405162461bcd60e51b81526004016101a991906120ce565b508383816000600f016000838152602001908152602001600020600701541460405180606001604052806029815260200161231a60299139906108085760405162461bcd60e51b81526004016101a991906120ce565b50610815866000336117b8565b806108345750610834866000805160206123f7833981519152336117b8565b6040518060600160405280602a81526020016122f0602a91399061086b5760405162461bcd60e51b81526004016101a991906120ce565b506000858152600f6020908152604091829020600201548251808401909352601d83527f4576656e743a2054686572652061726520736f6c64207469636b65747300000091830191909152156108d45760405162461bcd60e51b81526004016101a991906120ce565b506000858152600f60205260408120818155906108f46001830182611a03565b610902600283016000611a40565b600060038301819055600483018190556005830181905560068301819055600783018190556008830181905560098301805460ff1916905561094890600a840190611a40565b610956600b83016000611a40565b506000600c8201819055600d8201819055600e909101805460ff19169055868152601060209081526040808320805482518185028101850190935280835291929091908301828280156109c857602002820191906000526020600020905b8154815260200190600101908083116109b4575b5050505050905060005b8151811015610ab257868282815181106109ee576109ee61222a565b602002602001015103610aa05760008881526010602052604090208251610a1790600190612256565b81548110610a2757610a2761222a565b9060005260206000200154600060100160008a81526020019081526020016000208281548110610a5957610a5961222a565b6000918252602080832090910192909255898152601090915260409020805480610a8557610a8561226f565b60019003818190600052602060002001600090559055610ab2565b80610aaa81612285565b9150506109d2565b5060408051888152602081018890527ff67e86d3ffc2c26729aac7f4e3e07e009ad076ace7cd9e9fc184fd452ac0cc8591015b60405180910390a150505050505050565b600083815260026020908152604091829020548251808401909352601b835260008051602061238f833981519152918301919091528491906001600160a01b0316610b545760405162461bcd60e51b81526004016101a991906120ce565b506000838152600f6020908152604091829020548251808401909352601e83526000805160206123af83398151915291830191909152849190610baa5760405162461bcd60e51b81526004016101a991906120ce565b508484816000600f016000838152602001908152602001600020600701541460405180606001604052806029815260200161231a6029913990610c005760405162461bcd60e51b81526004016101a991906120ce565b50610c0d876000336117b8565b80610c2c5750610c2c876000805160206123f7833981519152336117b8565b6040518060600160405280602a81526020016122f0602a913990610c635760405162461bcd60e51b81526004016101a991906120ce565b506000868152600f6020908152604091829020600e01805460ff191688151590811790915582518a8152918201899052918101919091527f15fa4fe87d07b2a02e02cc0fac2981a3fd8653661340b9b26feae8ffefaade8a90606001610ae5565b600081815260026020908152604091829020548251808401909352601b835260008051602061238f8339815191529183019190915260609183916001600160a01b0316610d245760405162461bcd60e51b81526004016101a991906120ce565b50600083815260106020908152604080832080548251818502810185019093528083529192909190830182828015610d7b57602002820191906000526020600020905b815481526020019060010190808311610d67575b50505050509050600081516001600160401b03811115610d9d57610d9d611bad565b604051908082528060200260200182016040528015610dd657816020015b610dc3611a5e565b815260200190600190039081610dbb5790505b50905060005b825181101561107b576000600f016000848381518110610dfe57610dfe61222a565b60200260200101518152602001908152602001600020604051806101c001604052908160008201548152602001600182018054610e3a906120e8565b80601f0160208091040260200160405190810160405280929190818152602001828054610e66906120e8565b8015610eb35780601f10610e8857610100808354040283529160200191610eb3565b820191906000526020600020905b815481529060010190602001808311610e9657829003601f168201915b5050505050815260200160028201805480602002602001604051908101604052809291908181526020018280548015610f0b57602002820191906000526020600020905b815481526020019060010190808311610ef7575b505050505081526020016003820154815260200160048201548152602001600582015481526020016006820154815260200160078201548152602001600882015481526020016009820160009054906101000a900460ff16151515158152602001600a8201805480602002602001604051908101604052809291908181526020018280548015610fba57602002820191906000526020600020905b815481526020019060010190808311610fa6575b50505050508152602001600b820180548060200260200160405190810160405280929190818152602001828054801561101257602002820191906000526020600020905b815481526020019060010190808311610ffe575b5050509183525050604080518082018252600c8401548152600d840154602082810191909152830152600e9092015460ff161515910152825183908390811061105d5761105d61222a565b6020026020010181905250808061107390612285565b915050610ddc565b509250505b50919050565b600083815260026020908152604091829020548251808401909352601b835260008051602061238f833981519152918301919091528491906001600160a01b03166110e45760405162461bcd60e51b81526004016101a991906120ce565b506000838152600f6020908152604091829020548251808401909352601e83526000805160206123af8339815191529183019190915284919061113a5760405162461bcd60e51b81526004016101a991906120ce565b508484816000600f016000838152602001908152602001600020600701541460405180606001604052806029815260200161231a60299139906111905760405162461bcd60e51b81526004016101a991906120ce565b5061119d876000336117b8565b806111bc57506111bc876000805160206123f7833981519152336117b8565b6040518060600160405280602a81526020016122f0602a9139906111f35760405162461bcd60e51b81526004016101a991906120ce565b506000868152600f60205260408120600401805487929061121590849061229e565b90915550506040517f3a50fbe2fa0bdf2022fcd8fe2132970519fcf4df5cf97d78e86c510eb0805b6a90610ae5908990899089906122b1565b600083815260026020908152604091829020548251808401909352601b835260008051602061238f833981519152918301919091528491906001600160a01b03166112ac5760405162461bcd60e51b81526004016101a991906120ce565b506000838152600f6020908152604091829020548251808401909352601e83526000805160206123af833981519152918301919091528491906113025760405162461bcd60e51b81526004016101a991906120ce565b508484816000600f016000838152602001908152602001600020600701541460405180606001604052806029815260200161231a60299139906113585760405162461bcd60e51b81526004016101a991906120ce565b50611365876000336117b8565b806113845750611384876000805160206123f7833981519152336117b8565b6040518060600160405280602a81526020016122f0602a9139906113bb5760405162461bcd60e51b81526004016101a991906120ce565b50846000600f0160008881526020019081526020016000206004015410156040518060600160405280602e8152602001612417602e9139906114105760405162461bcd60e51b81526004016101a991906120ce565b506000868152600f602052604090206004015461142e908690612256565b6000878152600f60209081526040918290206002015482516060810190935260358084529310159290612445908301399061147c5760405162461bcd60e51b81526004016101a991906120ce565b506000868152600f60205260408120600401805487929061149e908490612256565b90915550506040517fb39ecd9af22a3fec10ec63455a79d572fdcfadf6a9005d5cd232b2829f958c7090610ae5908990899089906122b1565b60008c815260026020908152604091829020548251808401909352601b835260008051602061238f833981519152918301919091528d91906001600160a01b03166115355760405162461bcd60e51b81526004016101a991906120ce565b506115428d6000336117b8565b8061156157506115618d6000805160206123f7833981519152336117b8565b6040518060600160405280602a81526020016122f0602a9139906115985760405162461bcd60e51b81526004016101a991906120ce565b506040805160608101909152602880825286851491906123cf6020830139906115d45760405162461bcd60e51b81526004016101a991906120ce565b508760000361162257841580156115e9575082155b6040518060600160405280602881526020016123cf60289139906116205760405162461bcd60e51b81526004016101a991906120ce565b505b611630600c80546001019055565b600061163b600c5490565b6000818152600f6020526040902081815590915060010161165c8e8261216b565b506040805160008082526020808301808552858352600f909152929020905161168b9260029092019190611aea565b506000818152600f60205260409020600481018b9055600781018f9055600381018a90556116bd90600a0188886119b8565b506000818152600f602052604090206116da90600b0186866119b8565b506000818152600f602052604090208390600c01611705828281358155602082013560018201555050565b50506000818152600f60205260409020600901805460ff19168915151790556117308e828e8e6117ea565b600060100160008f81526020019081526020016000208190806001815401808255809150506001900390600052602060002001600090919091909150557f2a94cd6b8e4219d087c43453e983d276c11f9ba16e547f01adb19edb60ae3c7d8e828f6040516117a0939291906122c7565b60405180910390a15050505050505050505050505050565b6000928352601b602090815260408085209385529281528284206001600160a01b039290921684525290205460ff1690565b811580156117f6575080155b15611827576000838152600f602052604090206005810183905560068101829055600e01805460ff191690556119b2565b81600003611849576000838152600f60205260409020426005909101556118c5565b6000848152600e60205260409020600301546201000090046001600160401b0316821080156118785750428210155b60405180606001604052806027815260200161236860279139906118af5760405162461bcd60e51b81526004016101a991906120ce565b506000838152600f602052604090206005018290555b80600003611908576000848152600e6020908152604080832060030154868452600f909252909120620100009091046001600160401b0316600690910155611995565b6000838152600f60205260409020600501548111801561194857506000848152600e60205260409020600301546201000090046001600160401b03168111155b604051806060016040528060258152602001612343602591399061197f5760405162461bcd60e51b81526004016101a991906120ce565b506000838152600f602052604090206006018190555b6000838152600f60205260409020600e01805460ff191660011790555b50505050565b8280548282559060005260206000209081019282156119f3579160200282015b828111156119f35782358255916020019190600101906119d8565b506119ff929150611b25565b5090565b508054611a0f906120e8565b6000825580601f10611a1f575050565b601f016020900490600052602060002090810190611a3d9190611b25565b50565b5080546000825590600052602060002090810190611a3d9190611b25565b604051806101c001604052806000815260200160608152602001606081526020016000815260200160008152602001600081526020016000815260200160008152602001600081526020016000151581526020016060815260200160608152602001611add604051806040016040528060008152602001600081525090565b8152600060209091015290565b8280548282559060005260206000209081019282156119f3579160200282015b828111156119f3578251825591602001919060010190611b0a565b5b808211156119ff5760008155600101611b26565b80358015158114611b4a57600080fd5b919050565b60008060408385031215611b6257600080fd5b82359150611b7260208401611b3a565b90509250929050565b60008060008060808587031215611b9157600080fd5b5050823594602084013594506040840135936060013592509050565b634e487b7160e01b600052604160045260246000fd5b600082601f830112611bd457600080fd5b81356001600160401b0380821115611bee57611bee611bad565b604051601f8301601f19908116603f01168101908282118183101715611c1657611c16611bad565b81604052838152866020858801011115611c2f57600080fd5b836020870160208301376000602085830101528094505050505092915050565b60008083601f840112611c6157600080fd5b5081356001600160401b03811115611c7857600080fd5b6020830191508360208260051b8501011115611c9357600080fd5b9250929050565b60006040828403121561108057600080fd5b60008060008060008060008060006101008a8c031215611ccb57600080fd5b8935985060208a0135975060408a01356001600160401b0380821115611cf057600080fd5b611cfc8d838e01611bc3565b985060608c0135975060808c0135915080821115611d1957600080fd5b611d258d838e01611c4f565b909750955060a08c0135915080821115611d3e57600080fd5b50611d4b8c828d01611c4f565b9094509250611d5f90508b60c08c01611c9a565b90509295985092959850929598565b60008060408385031215611d8157600080fd5b50508035926020909101359150565b600080600060608486031215611da557600080fd5b8335925060208401359150611dbc60408501611b3a565b90509250925092565b600060208284031215611dd757600080fd5b5035919050565b6000815180845260005b81811015611e0457602081850181015186830182015201611de8565b506000602082860101526020601f19601f83011685010191505092915050565b600081518084526020808501945080840160005b83811015611e5457815187529582019590820190600101611e38565b509495945050505050565b60006020808301818452808551808352604092508286019150828160051b87010184880160005b83811015611f9d57603f1989840301855281516101e08151855288820151818a870152611eb582870182611dde565b9150508782015185820389870152611ecd8282611e24565b606084810151908801526080808501519088015260a0808501519088015260c0808501519088015260e0808501519088015261010080850151908801526101208085015115159088015261014080850151888303828a01529193509150611f348382611e24565b925050506101608083015186830382880152611f508382611e24565b9250505061018080830151611f718288018280518252602090810151910152565b50506101a08201519150611f8a6101c086018315159052565b9588019593505090860190600101611e86565b509098975050505050505050565b600080600060608486031215611fc057600080fd5b505081359360208301359350604090920135919050565b6000806000806000806000806000806000806101608d8f031215611ffa57600080fd5b8c359b506001600160401b0360208e0135111561201657600080fd5b6120268e60208f01358f01611bc3565b9a5060408d0135995060608d0135985060808d0135975060a08d0135965061205060c08e01611b3a565b95506001600160401b0360e08e0135111561206a57600080fd5b61207a8e60e08f01358f01611c4f565b90955093506001600160401b036101008e0135111561209857600080fd5b6120a98e6101008f01358f01611c4f565b90935091506120bc8e6101208f01611c9a565b90509295989b509295989b509295989b565b6020815260006120e16020830184611dde565b9392505050565b600181811c908216806120fc57607f821691505b60208210810361108057634e487b7160e01b600052602260045260246000fd5b601f82111561216657600081815260208120601f850160051c810160208610156121435750805b601f850160051c820191505b818110156121625782815560010161214f565b5050505b505050565b81516001600160401b0381111561218457612184611bad565b6121988161219284546120e8565b8461211c565b602080601f8311600181146121cd57600084156121b55750858301515b600019600386901b1c1916600185901b178555612162565b600085815260208120601f198616915b828110156121fc578886015182559484019460019091019084016121dd565b508582101561221a5787850151600019600388901b60f8161c191681555b5050505050600190811b01905550565b634e487b7160e01b600052603260045260246000fd5b634e487b7160e01b600052601160045260246000fd5b8181038181111561226957612269612240565b92915050565b634e487b7160e01b600052603160045260246000fd5b60006001820161229757612297612240565b5060010190565b8082018082111561226957612269612240565b9283526020830191909152604082015260600190565b8381528260208201526060604082015260006122e66060830184611dde565b9594505050505056fe4576656e743a2043616c6c6572206973206e6f7420616e2061646d696e206f72206d6f64657261746f724576656e743a20546869732063617465676f727920697320666f7220616e6f74686572206576656e744576656e743a2043617465676f727920656e64206461746520697320696e636f72726563744576656e743a2043617465676f7279207374617274206461746520697320696e636f72726563744576656e743a204576656e7420646f6573206e6f7420657869737400000000004576656e743a2043617465676f727920646f6573206e6f7420657869737400004576656e743a20446973636f756e7420706172616d6574657273206c656e677468206e6f7420657171f3d55856e4058ed06ee057d79ada615f65cdf5f9ee88181b914225088f834f4576656e743a2043616e2774206465637265617365207469636b65747320636f756e742062656c6f77207a65726f4576656e743a205469636b65747320616d6f756e742063616e2774206265206c657373207468616e20736f6c64207469636b657473a26469706673582212205d3a9812eb4d98943c573714709581a4e7bf1455e8cbebcd34f330af9d12b99564736f6c63430008110033",
  "linkReferences": {},
  "deployedLinkReferences": {}
}