{
  "_format": "hh-sol-artifact-1",
  "contractName": "CategoryFacet",
  "sourceName": "contracts/EventDiamond/facets/CategoryFacet.sol",
  "abi": [
    {
      "anonymous": false,
      "inputs": [
        {
          "indexed": false,
          "internalType": "uint256",
          "name": "eventId",
          "type": "uint256"
        },
        {
          "indexed": false,
          "internalType": "bool",
          "name": "value",
          "type": "bool"
        }
      ],
      "name": "AllCategorySellChanged",
      "type": "event"
    },
    {
      "anonymous": false,
      "inputs": [
        {
          "indexed": false,
          "internalType": "uint256",
          "name": "eventId",
          "type": "uint256"
        },
        {
          "indexed": false,
          "internalType": "uint256",
          "name": "categoryId",
          "type": "uint256"
        },
        {
          "indexed": false,
          "internalType": "string",
          "name": "categoryCid",
          "type": "string"
        }
      ],
      "name": "CategoryCreated",
      "type": "event"
    },
    {
      "anonymous": false,
      "inputs": [
        {
          "indexed": false,
          "internalType": "uint256",
          "name": "eventId",
          "type": "uint256"
        },
        {
          "indexed": false,
          "internalType": "uint256",
          "name": "categoryId",
          "type": "uint256"
        }
      ],
      "name": "CategoryDeleted",
      "type": "event"
    },
    {
      "anonymous": false,
      "inputs": [
        {
          "indexed": false,
          "internalType": "uint256",
          "name": "eventId",
          "type": "uint256"
        },
        {
          "indexed": false,
          "internalType": "uint256",
          "name": "categoryId",
          "type": "uint256"
        },
        {
          "indexed": false,
          "internalType": "address",
          "name": "staffMember",
          "type": "address"
        }
      ],
      "name": "CategorySaleDatesUpdated",
      "type": "event"
    },
    {
      "anonymous": false,
      "inputs": [
        {
          "indexed": false,
          "internalType": "uint256",
          "name": "eventId",
          "type": "uint256"
        },
        {
          "indexed": false,
          "internalType": "uint256",
          "name": "categoryId",
          "type": "uint256"
        },
        {
          "indexed": false,
          "internalType": "bool",
          "name": "value",
          "type": "bool"
        }
      ],
      "name": "CategorySellChanged",
      "type": "event"
    },
    {
      "anonymous": false,
      "inputs": [
        {
          "indexed": false,
          "internalType": "uint256",
          "name": "eventId",
          "type": "uint256"
        },
        {
          "indexed": false,
          "internalType": "uint256",
          "name": "categoryId",
          "type": "uint256"
        },
        {
          "indexed": false,
          "internalType": "uint256",
          "name": "ticketsCount",
          "type": "uint256"
        }
      ],
      "name": "CategoryTicketsAdded",
      "type": "event"
    },
    {
      "anonymous": false,
      "inputs": [
        {
          "indexed": false,
          "internalType": "uint256",
          "name": "eventId",
          "type": "uint256"
        },
        {
          "indexed": false,
          "internalType": "uint256",
          "name": "categoryId",
          "type": "uint256"
        },
        {
          "indexed": false,
          "internalType": "uint256",
          "name": "ticketsCount",
          "type": "uint256"
        }
      ],
      "name": "CategoryTicketsRemoved",
      "type": "event"
    },
    {
      "anonymous": false,
      "inputs": [
        {
          "indexed": false,
          "internalType": "uint256",
          "name": "eventId",
          "type": "uint256"
        },
        {
          "indexed": false,
          "internalType": "uint256",
          "name": "categoryId",
          "type": "uint256"
        }
      ],
      "name": "CategoryUpdated",
      "type": "event"
    },
    {
      "inputs": [
        {
          "internalType": "uint256",
          "name": "_eventId",
          "type": "uint256"
        },
        {
          "internalType": "uint256",
          "name": "_categoryId",
          "type": "uint256"
        },
        {
          "internalType": "uint256",
          "name": "_ticketsCount",
          "type": "uint256"
        }
      ],
      "name": "addCategoryTicketsCount",
      "outputs": [],
      "stateMutability": "nonpayable",
      "type": "function"
    },
    {
      "inputs": [
        {
          "internalType": "uint256",
          "name": "_eventId",
          "type": "uint256"
        },
        {
          "internalType": "string",
          "name": "_categoryCid",
          "type": "string"
        },
        {
          "internalType": "uint256",
          "name": "_saleStartDate",
          "type": "uint256"
        },
        {
          "internalType": "uint256",
          "name": "_saleEndDate",
          "type": "uint256"
        },
        {
          "internalType": "uint256",
          "name": "_ticketsCount",
          "type": "uint256"
        },
        {
          "internalType": "uint256",
          "name": "_ticketPrice",
          "type": "uint256"
        },
        {
          "internalType": "uint256[]",
          "name": "_discountsTicketsCount",
          "type": "uint256[]"
        },
        {
          "internalType": "uint256[]",
          "name": "_discountsPercentage",
          "type": "uint256[]"
        },
        {
          "components": [
            {
              "internalType": "uint256",
              "name": "price",
              "type": "uint256"
            },
            {
              "internalType": "uint256",
              "name": "finalAmountDate",
              "type": "uint256"
            }
          ],
          "internalType": "struct DownPayment",
          "name": "_downPayment",
          "type": "tuple"
        }
      ],
      "name": "createTicketCategory",
      "outputs": [],
      "stateMutability": "nonpayable",
      "type": "function"
    },
    {
      "inputs": [
        {
          "internalType": "uint256",
          "name": "_eventId",
          "type": "uint256"
        }
      ],
      "name": "fetchCategoriesByEventId",
      "outputs": [
        {
          "components": [
            {
              "internalType": "uint256",
              "name": "id",
              "type": "uint256"
            },
            {
              "internalType": "string",
              "name": "cid",
              "type": "string"
            },
            {
              "internalType": "uint256[]",
              "name": "ticketIds",
              "type": "uint256[]"
            },
            {
              "internalType": "uint256",
              "name": "ticketPrice",
              "type": "uint256"
            },
            {
              "internalType": "uint256",
              "name": "ticketsCount",
              "type": "uint256"
            },
            {
              "internalType": "uint256",
              "name": "saleStartDate",
              "type": "uint256"
            },
            {
              "internalType": "uint256",
              "name": "saleEndDate",
              "type": "uint256"
            },
            {
              "internalType": "uint256",
              "name": "eventId",
              "type": "uint256"
            },
            {
              "internalType": "uint256",
              "name": "balance",
              "type": "uint256"
            },
            {
              "internalType": "uint256[]",
              "name": "discountsTicketsCount",
              "type": "uint256[]"
            },
            {
              "internalType": "uint256[]",
              "name": "discountsPercentage",
              "type": "uint256[]"
            },
            {
              "components": [
                {
                  "internalType": "uint256",
                  "name": "price",
                  "type": "uint256"
                },
                {
                  "internalType": "uint256",
                  "name": "finalAmountDate",
                  "type": "uint256"
                }
              ],
              "internalType": "struct DownPayment",
              "name": "downPayment",
              "type": "tuple"
            },
            {
              "internalType": "bool",
              "name": "areTicketsBuyable",
              "type": "bool"
            }
          ],
          "internalType": "struct Category[]",
          "name": "",
          "type": "tuple[]"
        }
      ],
      "stateMutability": "view",
      "type": "function"
    },
    {
      "inputs": [
        {
          "internalType": "uint256",
          "name": "_eventId",
          "type": "uint256"
        },
        {
          "internalType": "bool",
          "name": "_value",
          "type": "bool"
        }
      ],
      "name": "manageAllCategorySelling",
      "outputs": [],
      "stateMutability": "nonpayable",
      "type": "function"
    },
    {
      "inputs": [
        {
          "internalType": "uint256",
          "name": "_eventId",
          "type": "uint256"
        },
        {
          "internalType": "uint256",
          "name": "_categoryId",
          "type": "uint256"
        },
        {
          "internalType": "bool",
          "name": "_value",
          "type": "bool"
        }
      ],
      "name": "manageCategorySelling",
      "outputs": [],
      "stateMutability": "nonpayable",
      "type": "function"
    },
    {
      "inputs": [
        {
          "internalType": "uint256",
          "name": "_eventId",
          "type": "uint256"
        },
        {
          "internalType": "uint256",
          "name": "_categoryId",
          "type": "uint256"
        }
      ],
      "name": "removeCategory",
      "outputs": [],
      "stateMutability": "nonpayable",
      "type": "function"
    },
    {
      "inputs": [
        {
          "internalType": "uint256",
          "name": "_eventId",
          "type": "uint256"
        },
        {
          "internalType": "uint256",
          "name": "_categoryId",
          "type": "uint256"
        },
        {
          "internalType": "uint256",
          "name": "_ticketsCount",
          "type": "uint256"
        }
      ],
      "name": "removeCategoryTicketsCount",
      "outputs": [],
      "stateMutability": "nonpayable",
      "type": "function"
    },
    {
      "inputs": [
        {
          "internalType": "uint256",
          "name": "_eventId",
          "type": "uint256"
        },
        {
          "internalType": "uint256",
          "name": "_categoryId",
          "type": "uint256"
        },
        {
          "internalType": "string",
          "name": "_categoryCid",
          "type": "string"
        },
        {
          "internalType": "uint256",
          "name": "_ticketPrice",
          "type": "uint256"
        },
        {
          "internalType": "uint256[]",
          "name": "_discountsTicketsCount",
          "type": "uint256[]"
        },
        {
          "internalType": "uint256[]",
          "name": "_discountsPercentage",
          "type": "uint256[]"
        },
        {
          "components": [
            {
              "internalType": "uint256",
              "name": "price",
              "type": "uint256"
            },
            {
              "internalType": "uint256",
              "name": "finalAmountDate",
              "type": "uint256"
            }
          ],
          "internalType": "struct DownPayment",
          "name": "_downPayment",
          "type": "tuple"
        }
      ],
      "name": "updateCategory",
      "outputs": [],
      "stateMutability": "nonpayable",
      "type": "function"
    },
    {
      "inputs": [
        {
          "internalType": "uint256",
          "name": "_eventId",
          "type": "uint256"
        },
        {
          "internalType": "uint256",
          "name": "_categoryId",
          "type": "uint256"
        },
        {
          "internalType": "uint256",
          "name": "_saleStartDate",
          "type": "uint256"
        },
        {
          "internalType": "uint256",
          "name": "_saleEndDate",
          "type": "uint256"
        }
      ],
      "name": "updateCategorySaleDates",
      "outputs": [],
      "stateMutability": "nonpayable",
      "type": "function"
    }
  ],
  "bytecode": "0x608060405234801561001057600080fd5b50612559806100206000396000f3fe608060405234801561001057600080fd5b50600436106100835760003560e01c80630309a539146100885780631c6f92711461009d5780632761f33b146100b05780633d378bb0146100c3578063959a1b58146100d6578063a310d9bf146100e9578063a3bdc7c7146100fc578063d5533da014610125578063f354159b14610138575b600080fd5b61009b610096366004611b0e565b61014b565b005b61009b6100ab366004611b3a565b610273565b61009b6100be366004611bdf565b610436565b61009b6100d1366004611d13565b6106ff565b61009b6100e4366004611d76565b610af1565b61009b6100f7366004611e60565b610dba565b61010f61010a366004611e95565b610f88565b60405161011c9190611f2f565b60405180910390f35b61009b61013336600461206e565b61132f565b61009b61014636600461206e565b6114f7565b600082815260026020908152604091829020548251808401909352601b8352600080516020612439833981519152918301919091528391906001600160a01b03166101b25760405162461bcd60e51b81526004016101a9919061209a565b60405180910390fd5b506101bf83600033611780565b806101de57506101de836000805160206124a183398151915233611780565b6040518060600160405280602a815260200161239a602a9139906102155760405162461bcd60e51b81526004016101a9919061209a565b50600083815260096020908152604091829020600301805460ff19168515159081179091558251868152918201527f578eeefe0b8083fcd939e8d547da4c0ba6b26ed213c13de65ab08a52f9f26a52910160405180910390a1505050565b600084815260026020908152604091829020548251808401909352601b8352600080516020612439833981519152918301919091528591906001600160a01b03166102d15760405162461bcd60e51b81526004016101a9919061209a565b506000848152600a6020908152604091829020548251808401909352601e8352600080516020612459833981519152918301919091528591906103275760405162461bcd60e51b81526004016101a9919061209a565b508585816000600a01600083815260200190815260200160002060070154146040518060600160405280602981526020016123c4602991399061037d5760405162461bcd60e51b81526004016101a9919061209a565b5061038a88600033611780565b806103a957506103a9886000805160206124a183398151915233611780565b6040518060600160405280602a815260200161239a602a9139906103e05760405162461bcd60e51b81526004016101a9919061209a565b506103ed888888886117b2565b6040805189815260208101899052338183015290517f4192182acd964db32b1197a6483d5694cf6e678e7202565c44cc961078eb2c8f9181900360600190a15050505050505050565b600089815260026020908152604091829020548251808401909352601b8352600080516020612439833981519152918301919091528a91906001600160a01b03166104945760405162461bcd60e51b81526004016101a9919061209a565b506000898152600a6020908152604091829020548251808401909352601e8352600080516020612459833981519152918301919091528a91906104ea5760405162461bcd60e51b81526004016101a9919061209a565b508a8a816000600a01600083815260200190815260200160002060070154146040518060600160405280602981526020016123c460299139906105405760405162461bcd60e51b81526004016101a9919061209a565b5061054d8d600033611780565b8061056c575061056c8d6000805160206124a183398151915233611780565b6040518060600160405280602a815260200161239a602a9139906105a35760405162461bcd60e51b81526004016101a9919061209a565b506040805160608101909152602880825289881491906124796020830139906105df5760405162461bcd60e51b81526004016101a9919061209a565b508960000361062d57871580156105f4575085155b604051806060016040528060288152602001612479602891399061062b5760405162461bcd60e51b81526004016101a9919061209a565b505b60008c8152600a602052604090206001016106488c8261214c565b5060008c8152600a60205260409020600381018b905561066c906009018a8a611980565b5060008c8152600a6020819052604090912061068a91018888611980565b5060008c8152600a602052604090208590600b016106b5828281358155602082013560018201555050565b5050604080518e8152602081018e90527f44df894581249b9c6cda25b6fe8239320be1641adde53f17479b4153cadfcc60910160405180910390a150505050505050505050505050565b600082815260026020908152604091829020548251808401909352601b8352600080516020612439833981519152918301919091528391906001600160a01b031661075d5760405162461bcd60e51b81526004016101a9919061209a565b506000828152600a6020908152604091829020548251808401909352601e8352600080516020612459833981519152918301919091528391906107b35760405162461bcd60e51b81526004016101a9919061209a565b508383816000600a01600083815260200190815260200160002060070154146040518060600160405280602981526020016123c460299139906108095760405162461bcd60e51b81526004016101a9919061209a565b5061081686600033611780565b806108355750610835866000805160206124a183398151915233611780565b6040518060600160405280602a815260200161239a602a91399061086c5760405162461bcd60e51b81526004016101a9919061209a565b506000858152600a6020908152604091829020600201548251808401909352601d83527f4576656e743a2054686572652061726520736f6c64207469636b65747300000091830191909152156108d55760405162461bcd60e51b81526004016101a9919061209a565b506000858152600a60205260408120818155906108f560018301826119cb565b610903600283016000611a08565b6003820160009055600482016000905560058201600090556006820160009055600782016000905560088201600090556009820160006109439190611a08565b610951600a83016000611a08565b506000600b828101829055600c8301829055600d909201805460ff191690558781526020918252604080822080548251818602810186019093528083529293919290918301828280156109c357602002820191906000526020600020905b8154815260200190600101908083116109af575b5050505050905060005b8151811015610aad57868282815181106109e9576109e9612205565b602002602001015103610a9b576000888152600b602052604090208251610a1290600190612231565b81548110610a2257610a22612205565b90600052602060002001546000600b0160008a81526020019081526020016000208281548110610a5457610a54612205565b6000918252602080832090910192909255898152600b90915260409020805480610a8057610a8061224a565b60019003818190600052602060002001600090559055610aad565b80610aa581612260565b9150506109cd565b5060408051888152602081018890527ff67e86d3ffc2c26729aac7f4e3e07e009ad076ace7cd9e9fc184fd452ac0cc8591015b60405180910390a150505050505050565b60008c815260026020908152604091829020548251808401909352601b8352600080516020612439833981519152918301919091528d91906001600160a01b0316610b4f5760405162461bcd60e51b81526004016101a9919061209a565b50610b5c8d600033611780565b80610b7b5750610b7b8d6000805160206124a183398151915233611780565b6040518060600160405280602a815260200161239a602a913990610bb25760405162461bcd60e51b81526004016101a9919061209a565b50604080516060810190915260288082528685149190612479602083013990610bee5760405162461bcd60e51b81526004016101a9919061209a565b5086600003610c3c5784158015610c03575082155b6040518060600160405280602881526020016124796028913990610c3a5760405162461bcd60e51b81526004016101a9919061209a565b505b610c4a600880546001019055565b6000610c5560085490565b6000818152600a60205260409020818155909150600101610c778d8f83612279565b506040805160008082526020808301808552858352600a9091529290209051610ca69260029092019190611a26565b506000818152600a60205260409020600481018a9055600781018f905560038101899055610cd8906009018888611980565b506000818152600a60208190526040909120610cf691018686611980565b506000818152600a602052604090208390600b01610d21828281358155602082013560018201555050565b905050610d308e828d8d6117b2565b6000600b0160008f81526020019081526020016000208190806001815401808255809150506001900390600052602060002001600090919091909150557f2a94cd6b8e4219d087c43453e983d276c11f9ba16e547f01adb19edb60ae3c7d8e828f8f604051610da29493929190612333565b60405180910390a15050505050505050505050505050565b600083815260026020908152604091829020548251808401909352601b8352600080516020612439833981519152918301919091528491906001600160a01b0316610e185760405162461bcd60e51b81526004016101a9919061209a565b506000838152600a6020908152604091829020548251808401909352601e835260008051602061245983398151915291830191909152849190610e6e5760405162461bcd60e51b81526004016101a9919061209a565b508484816000600a01600083815260200190815260200160002060070154146040518060600160405280602981526020016123c46029913990610ec45760405162461bcd60e51b81526004016101a9919061209a565b50610ed187600033611780565b80610ef05750610ef0876000805160206124a183398151915233611780565b6040518060600160405280602a815260200161239a602a913990610f275760405162461bcd60e51b81526004016101a9919061209a565b506000868152600a6020908152604091829020600d01805460ff191688151590811790915582518a8152918201899052918101919091527f15fa4fe87d07b2a02e02cc0fac2981a3fd8653661340b9b26feae8ffefaade8a90606001610ae0565b600081815260026020908152604091829020548251808401909352601b83526000805160206124398339815191529183019190915260609183916001600160a01b0316610fe85760405162461bcd60e51b81526004016101a9919061209a565b506000838152600b602090815260408083208054825181850281018501909352808352919290919083018282801561103f57602002820191906000526020600020905b81548152602001906001019080831161102b575b50505050509050600081516001600160401b0381111561106157611061611b6c565b60405190808252806020026020018201604052801561109a57816020015b611087611a61565b81526020019060019003908161107f5790505b50905060005b8251811015611324576000600a0160008483815181106110c2576110c2612205565b60200260200101518152602001908152602001600020604051806101a0016040529081600082015481526020016001820180546110fe906120b4565b80601f016020809104026020016040519081016040528092919081815260200182805461112a906120b4565b80156111775780601f1061114c57610100808354040283529160200191611177565b820191906000526020600020905b81548152906001019060200180831161115a57829003601f168201915b50505050508152602001600282018054806020026020016040519081016040528092919081815260200182805480156111cf57602002820191906000526020600020905b8154815260200190600101908083116111bb575b505050505081526020016003820154815260200160048201548152602001600582015481526020016006820154815260200160078201548152602001600882015481526020016009820180548060200260200160405190810160405280929190818152602001828054801561126357602002820191906000526020600020905b81548152602001906001019080831161124f575b50505050508152602001600a82018054806020026020016040519081016040528092919081815260200182805480156112bb57602002820191906000526020600020905b8154815260200190600101908083116112a7575b5050509183525050604080518082018252600b8401548152600c840154602082810191909152830152600d9092015460ff161515910152825183908390811061130657611306612205565b6020026020010181905250808061131c90612260565b9150506110a0565b509250505b50919050565b600083815260026020908152604091829020548251808401909352601b8352600080516020612439833981519152918301919091528491906001600160a01b031661138d5760405162461bcd60e51b81526004016101a9919061209a565b506000838152600a6020908152604091829020548251808401909352601e8352600080516020612459833981519152918301919091528491906113e35760405162461bcd60e51b81526004016101a9919061209a565b508484816000600a01600083815260200190815260200160002060070154146040518060600160405280602981526020016123c460299139906114395760405162461bcd60e51b81526004016101a9919061209a565b5061144687600033611780565b806114655750611465876000805160206124a183398151915233611780565b6040518060600160405280602a815260200161239a602a91399061149c5760405162461bcd60e51b81526004016101a9919061209a565b506000868152600a6020526040812060040180548792906114be908490612370565b90915550506040517f3a50fbe2fa0bdf2022fcd8fe2132970519fcf4df5cf97d78e86c510eb0805b6a90610ae090899089908990612383565b600083815260026020908152604091829020548251808401909352601b8352600080516020612439833981519152918301919091528491906001600160a01b03166115555760405162461bcd60e51b81526004016101a9919061209a565b506000838152600a6020908152604091829020548251808401909352601e8352600080516020612459833981519152918301919091528491906115ab5760405162461bcd60e51b81526004016101a9919061209a565b508484816000600a01600083815260200190815260200160002060070154146040518060600160405280602981526020016123c460299139906116015760405162461bcd60e51b81526004016101a9919061209a565b5061160e87600033611780565b8061162d575061162d876000805160206124a183398151915233611780565b6040518060600160405280602a815260200161239a602a9139906116645760405162461bcd60e51b81526004016101a9919061209a565b50846000600a0160008881526020019081526020016000206004015410156040518060600160405280602e81526020016124c1602e9139906116b95760405162461bcd60e51b81526004016101a9919061209a565b506000868152600a60205260409020600401546116d7908690612231565b6000878152600a602090815260409182902060020154825160608101909352603580845293101592906124ef90830139906117255760405162461bcd60e51b81526004016101a9919061209a565b506000868152600a602052604081206004018054879290611747908490612231565b90915550506040517fb39ecd9af22a3fec10ec63455a79d572fdcfadf6a9005d5cd232b2829f958c7090610ae090899089908990612383565b60009283526013602090815260408085209385529281528284206001600160a01b039290921684525290205460ff1690565b811580156117be575080155b156117ef576000838152600a602052604090206005810183905560068101829055600d01805460ff1916905561197a565b81600003611811576000838152600a602052604090204260059091015561188d565b6000848152600960205260409020600301546201000090046001600160401b0316821080156118405750428210155b60405180606001604052806027815260200161241260279139906118775760405162461bcd60e51b81526004016101a9919061209a565b506000838152600a602052604090206005018290555b806000036118d057600084815260096020908152604080832060030154868452600a909252909120620100009091046001600160401b031660069091015561195d565b6000838152600a60205260409020600501548111801561191057506000848152600960205260409020600301546201000090046001600160401b03168111155b6040518060600160405280602581526020016123ed60259139906119475760405162461bcd60e51b81526004016101a9919061209a565b506000838152600a602052604090206006018190555b6000838152600a60205260409020600d01805460ff191660011790555b50505050565b8280548282559060005260206000209081019282156119bb579160200282015b828111156119bb5782358255916020019190600101906119a0565b506119c7929150611ae4565b5090565b5080546119d7906120b4565b6000825580601f106119e7575050565b601f016020900490600052602060002090810190611a059190611ae4565b50565b5080546000825590600052602060002090810190611a059190611ae4565b8280548282559060005260206000209081019282156119bb579160200282015b828111156119bb578251825591602001919060010190611a46565b604051806101a001604052806000815260200160608152602001606081526020016000815260200160008152602001600081526020016000815260200160008152602001600081526020016060815260200160608152602001611ad7604051806040016040528060008152602001600081525090565b8152600060209091015290565b5b808211156119c75760008155600101611ae5565b80358015158114611b0957600080fd5b919050565b60008060408385031215611b2157600080fd5b82359150611b3160208401611af9565b90509250929050565b60008060008060808587031215611b5057600080fd5b5050823594602084013594506040840135936060013592509050565b634e487b7160e01b600052604160045260246000fd5b60008083601f840112611b9457600080fd5b5081356001600160401b03811115611bab57600080fd5b6020830191508360208260051b8501011115611bc657600080fd5b9250929050565b60006040828403121561132957600080fd5b60008060008060008060008060006101008a8c031215611bfe57600080fd5b8935985060208a0135975060408a01356001600160401b0380821115611c2357600080fd5b818c0191508c601f830112611c3757600080fd5b813581811115611c4957611c49611b6c565b604051601f8201601f19908116603f01168101908382118183101715611c7157611c71611b6c565b816040528281528f6020848701011115611c8a57600080fd5b82602086016020830137600060208483010152809b5050505060608c0135975060808c0135915080821115611cbe57600080fd5b611cca8d838e01611b82565b909750955060a08c0135915080821115611ce357600080fd5b50611cf08c828d01611b82565b9094509250611d0490508b60c08c01611bcd565b90509295985092959850929598565b60008060408385031215611d2657600080fd5b50508035926020909101359150565b60008083601f840112611d4757600080fd5b5081356001600160401b03811115611d5e57600080fd5b602083019150836020828501011115611bc657600080fd5b6000806000806000806000806000806000806101408d8f031215611d9957600080fd5b8c359b506001600160401b0360208e01351115611db557600080fd5b611dc58e60208f01358f01611d35565b909b50995060408d0135985060608d0135975060808d0135965060a08d013595506001600160401b0360c08e01351115611dfe57600080fd5b611e0e8e60c08f01358f01611b82565b90955093506001600160401b0360e08e01351115611e2b57600080fd5b611e3b8e60e08f01358f01611b82565b9093509150611e4e8e6101008f01611bcd565b90509295989b509295989b509295989b565b600080600060608486031215611e7557600080fd5b8335925060208401359150611e8c60408501611af9565b90509250925092565b600060208284031215611ea757600080fd5b5035919050565b6000815180845260005b81811015611ed457602081850181015186830182015201611eb8565b506000602082860101526020601f19601f83011685010191505092915050565b600081518084526020808501945080840160005b83811015611f2457815187529582019590820190600101611f08565b509495945050505050565b60006020808301818452808551808352604092508286019150828160051b87010184880160005b8381101561206057603f1989840301855281516101c08151855288820151818a870152611f8582870182611eae565b9150508782015185820389870152611f9d8282611ef4565b606084810151908801526080808501519088015260a0808501519088015260c0808501519088015260e08085015190880152610100808501519088015261012080850151888303828a01529193509150611ff78382611ef4565b9250505061014080830151868303828801526120138382611ef4565b92505050610160808301516120348288018280518252602090810151910152565b5050610180820151915061204d6101a086018315159052565b9588019593505090860190600101611f56565b509098975050505050505050565b60008060006060848603121561208357600080fd5b505081359360208301359350604090920135919050565b6020815260006120ad6020830184611eae565b9392505050565b600181811c908216806120c857607f821691505b60208210810361132957634e487b7160e01b600052602260045260246000fd5b601f82111561213257600081815260208120601f850160051c8101602086101561210f5750805b601f850160051c820191505b8181101561212e5782815560010161211b565b5050505b505050565b600019600383901b1c191660019190911b1790565b81516001600160401b0381111561216557612165611b6c565b6121798161217384546120b4565b846120e8565b602080601f8311600181146121a857600084156121965750858301515b6121a08582612137565b86555061212e565b600085815260208120601f198616915b828110156121d7578886015182559484019460019091019084016121b8565b50858210156121f55787850151600019600388901b60f8161c191681555b5050505050600190811b01905550565b634e487b7160e01b600052603260045260246000fd5b634e487b7160e01b600052601160045260246000fd5b818103818111156122445761224461221b565b92915050565b634e487b7160e01b600052603160045260246000fd5b6000600182016122725761227261221b565b5060010190565b6001600160401b0383111561229057612290611b6c565b6122a48361229e83546120b4565b836120e8565b6000601f8411600181146122d257600085156122c05750838201355b6122ca8682612137565b84555061232c565b600083815260209020601f19861690835b8281101561230357868501358255602094850194600190920191016122e3565b50868210156123205760001960f88860031b161c19848701351681555b505060018560011b0183555b5050505050565b84815283602082015260606040820152816060820152818360808301376000818301608090810191909152601f909201601f191601019392505050565b808201808211156122445761224461221b565b928352602083019190915260408201526060019056fe4576656e743a2043616c6c6572206973206e6f7420616e2061646d696e206f72206d6f64657261746f724576656e743a20546869732063617465676f727920697320666f7220616e6f74686572206576656e744576656e743a2043617465676f727920656e64206461746520697320696e636f72726563744576656e743a2043617465676f7279207374617274206461746520697320696e636f72726563744576656e743a204576656e7420646f6573206e6f7420657869737400000000004576656e743a2043617465676f727920646f6573206e6f7420657869737400004576656e743a20446973636f756e7420706172616d6574657273206c656e677468206e6f7420657171f3d55856e4058ed06ee057d79ada615f65cdf5f9ee88181b914225088f834f4576656e743a2043616e2774206465637265617365207469636b65747320636f756e742062656c6f77207a65726f4576656e743a205469636b65747320616d6f756e742063616e2774206265206c657373207468616e20736f6c64207469636b657473a264697066735822122001bca95fcc2037bac5b129e3916bbb3f8bbe39ba1da6692100599d914d8f964064736f6c63430008110033",
  "linkReferences": {},
  "deployedLinkReferences": {}
}