{
  "_format": "hh-sol-artifact-1",
  "contractName": "CategoryFacet",
  "sourceName": "contracts/EventDiamond/facets/CategoryFacet.sol",
  "abi": [
    {
      "anonymous": false,
      "inputs": [
        {
          "indexed": false,
          "internalType": "uint256",
          "name": "eventId",
          "type": "uint256"
        },
        {
          "indexed": false,
          "internalType": "bool",
          "name": "value",
          "type": "bool"
        }
      ],
      "name": "AllCategorySellChanged",
      "type": "event"
    },
    {
      "anonymous": false,
      "inputs": [
        {
          "indexed": false,
          "internalType": "uint256",
          "name": "eventId",
          "type": "uint256"
        },
        {
          "indexed": false,
          "internalType": "uint256",
          "name": "categoryId",
          "type": "uint256"
        },
        {
          "indexed": false,
          "internalType": "string",
          "name": "categoryCid",
          "type": "string"
        }
      ],
      "name": "CategoryCreated",
      "type": "event"
    },
    {
      "anonymous": false,
      "inputs": [
        {
          "indexed": false,
          "internalType": "uint256",
          "name": "eventId",
          "type": "uint256"
        },
        {
          "indexed": false,
          "internalType": "uint256",
          "name": "categoryId",
          "type": "uint256"
        }
      ],
      "name": "CategoryDeleted",
      "type": "event"
    },
    {
      "anonymous": false,
      "inputs": [
        {
          "indexed": false,
          "internalType": "uint256",
          "name": "eventId",
          "type": "uint256"
        },
        {
          "indexed": false,
          "internalType": "uint256",
          "name": "categoryId",
          "type": "uint256"
        },
        {
          "indexed": false,
          "internalType": "address",
          "name": "staffMember",
          "type": "address"
        }
      ],
      "name": "CategorySaleDatesUpdated",
      "type": "event"
    },
    {
      "anonymous": false,
      "inputs": [
        {
          "indexed": false,
          "internalType": "uint256",
          "name": "eventId",
          "type": "uint256"
        },
        {
          "indexed": false,
          "internalType": "uint256",
          "name": "categoryId",
          "type": "uint256"
        },
        {
          "indexed": false,
          "internalType": "bool",
          "name": "value",
          "type": "bool"
        }
      ],
      "name": "CategorySellChanged",
      "type": "event"
    },
    {
      "anonymous": false,
      "inputs": [
        {
          "indexed": false,
          "internalType": "uint256",
          "name": "eventId",
          "type": "uint256"
        },
        {
          "indexed": false,
          "internalType": "uint256",
          "name": "categoryId",
          "type": "uint256"
        },
        {
          "indexed": false,
          "internalType": "uint256",
          "name": "ticketsCount",
          "type": "uint256"
        }
      ],
      "name": "CategoryTicketsAdded",
      "type": "event"
    },
    {
      "anonymous": false,
      "inputs": [
        {
          "indexed": false,
          "internalType": "uint256",
          "name": "eventId",
          "type": "uint256"
        },
        {
          "indexed": false,
          "internalType": "uint256",
          "name": "categoryId",
          "type": "uint256"
        },
        {
          "indexed": false,
          "internalType": "uint256",
          "name": "ticketsCount",
          "type": "uint256"
        }
      ],
      "name": "CategoryTicketsRemoved",
      "type": "event"
    },
    {
      "anonymous": false,
      "inputs": [
        {
          "indexed": false,
          "internalType": "uint256",
          "name": "eventId",
          "type": "uint256"
        },
        {
          "indexed": false,
          "internalType": "uint256",
          "name": "categoryId",
          "type": "uint256"
        }
      ],
      "name": "CategoryUpdated",
      "type": "event"
    },
    {
      "inputs": [
        {
          "internalType": "uint256",
          "name": "_eventId",
          "type": "uint256"
        },
        {
          "internalType": "uint256",
          "name": "_categoryId",
          "type": "uint256"
        },
        {
          "internalType": "uint256",
          "name": "_ticketsCount",
          "type": "uint256"
        }
      ],
      "name": "addCategoryTicketsCount",
      "outputs": [],
      "stateMutability": "nonpayable",
      "type": "function"
    },
    {
      "inputs": [
        {
          "internalType": "uint256",
          "name": "_eventId",
          "type": "uint256"
        },
        {
          "internalType": "string",
          "name": "_categoryCid",
          "type": "string"
        },
        {
          "internalType": "uint256",
          "name": "_saleStartDate",
          "type": "uint256"
        },
        {
          "internalType": "uint256",
          "name": "_saleEndDate",
          "type": "uint256"
        },
        {
          "internalType": "uint256",
          "name": "_ticketsCount",
          "type": "uint256"
        },
        {
          "internalType": "uint256",
          "name": "_ticketPrice",
          "type": "uint256"
        },
        {
          "internalType": "bool",
          "name": "_hasPlaces",
          "type": "bool"
        },
        {
          "internalType": "uint256[]",
          "name": "_discountsTicketsCount",
          "type": "uint256[]"
        },
        {
          "internalType": "uint256[]",
          "name": "_discountsPercentage",
          "type": "uint256[]"
        },
        {
          "components": [
            {
              "internalType": "uint256",
              "name": "price",
              "type": "uint256"
            },
            {
              "internalType": "uint256",
              "name": "finalAmountDate",
              "type": "uint256"
            }
          ],
          "internalType": "struct DownPayment",
          "name": "_downPayment",
          "type": "tuple"
        }
      ],
      "name": "createTicketCategory",
      "outputs": [],
      "stateMutability": "nonpayable",
      "type": "function"
    },
    {
      "inputs": [
        {
          "internalType": "uint256",
          "name": "_eventId",
          "type": "uint256"
        }
      ],
      "name": "fetchCategoriesByEventId",
      "outputs": [
        {
          "components": [
            {
              "internalType": "uint256",
              "name": "id",
              "type": "uint256"
            },
            {
              "internalType": "string",
              "name": "cid",
              "type": "string"
            },
            {
              "internalType": "uint256[]",
              "name": "ticketIds",
              "type": "uint256[]"
            },
            {
              "internalType": "uint256",
              "name": "ticketPrice",
              "type": "uint256"
            },
            {
              "internalType": "uint256",
              "name": "ticketsCount",
              "type": "uint256"
            },
            {
              "internalType": "uint256",
              "name": "saleStartDate",
              "type": "uint256"
            },
            {
              "internalType": "uint256",
              "name": "saleEndDate",
              "type": "uint256"
            },
            {
              "internalType": "uint256",
              "name": "eventId",
              "type": "uint256"
            },
            {
              "internalType": "uint256",
              "name": "balance",
              "type": "uint256"
            },
            {
              "internalType": "bool",
              "name": "hasPlaces",
              "type": "bool"
            },
            {
              "internalType": "uint256[]",
              "name": "discountsTicketsCount",
              "type": "uint256[]"
            },
            {
              "internalType": "uint256[]",
              "name": "discountsPercentage",
              "type": "uint256[]"
            },
            {
              "components": [
                {
                  "internalType": "uint256",
                  "name": "price",
                  "type": "uint256"
                },
                {
                  "internalType": "uint256",
                  "name": "finalAmountDate",
                  "type": "uint256"
                }
              ],
              "internalType": "struct DownPayment",
              "name": "downPayment",
              "type": "tuple"
            },
            {
              "internalType": "bool",
              "name": "areTicketsBuyable",
              "type": "bool"
            }
          ],
          "internalType": "struct Category[]",
          "name": "",
          "type": "tuple[]"
        }
      ],
      "stateMutability": "view",
      "type": "function"
    },
    {
      "inputs": [
        {
          "internalType": "uint256",
          "name": "_eventId",
          "type": "uint256"
        },
        {
          "internalType": "bool",
          "name": "_value",
          "type": "bool"
        }
      ],
      "name": "manageAllCategorySelling",
      "outputs": [],
      "stateMutability": "nonpayable",
      "type": "function"
    },
    {
      "inputs": [
        {
          "internalType": "uint256",
          "name": "_eventId",
          "type": "uint256"
        },
        {
          "internalType": "uint256",
          "name": "_categoryId",
          "type": "uint256"
        },
        {
          "internalType": "bool",
          "name": "_value",
          "type": "bool"
        }
      ],
      "name": "manageCategorySelling",
      "outputs": [],
      "stateMutability": "nonpayable",
      "type": "function"
    },
    {
      "inputs": [
        {
          "internalType": "uint256",
          "name": "_eventId",
          "type": "uint256"
        },
        {
          "internalType": "uint256",
          "name": "_categoryId",
          "type": "uint256"
        }
      ],
      "name": "removeCategory",
      "outputs": [],
      "stateMutability": "nonpayable",
      "type": "function"
    },
    {
      "inputs": [
        {
          "internalType": "uint256",
          "name": "_eventId",
          "type": "uint256"
        },
        {
          "internalType": "uint256",
          "name": "_categoryId",
          "type": "uint256"
        },
        {
          "internalType": "uint256",
          "name": "_ticketsCount",
          "type": "uint256"
        }
      ],
      "name": "removeCategoryTicketsCount",
      "outputs": [],
      "stateMutability": "nonpayable",
      "type": "function"
    },
    {
      "inputs": [
        {
          "internalType": "uint256",
          "name": "_eventId",
          "type": "uint256"
        },
        {
          "internalType": "uint256",
          "name": "_categoryId",
          "type": "uint256"
        },
        {
          "internalType": "string",
          "name": "_categoryCid",
          "type": "string"
        },
        {
          "internalType": "uint256",
          "name": "_ticketPrice",
          "type": "uint256"
        },
        {
          "internalType": "uint256[]",
          "name": "_discountsTicketsCount",
          "type": "uint256[]"
        },
        {
          "internalType": "uint256[]",
          "name": "_discountsPercentage",
          "type": "uint256[]"
        },
        {
          "components": [
            {
              "internalType": "uint256",
              "name": "price",
              "type": "uint256"
            },
            {
              "internalType": "uint256",
              "name": "finalAmountDate",
              "type": "uint256"
            }
          ],
          "internalType": "struct DownPayment",
          "name": "_downPayment",
          "type": "tuple"
        }
      ],
      "name": "updateCategory",
      "outputs": [],
      "stateMutability": "nonpayable",
      "type": "function"
    },
    {
      "inputs": [
        {
          "internalType": "uint256",
          "name": "_eventId",
          "type": "uint256"
        },
        {
          "internalType": "uint256",
          "name": "_categoryId",
          "type": "uint256"
        },
        {
          "internalType": "uint256",
          "name": "_saleStartDate",
          "type": "uint256"
        },
        {
          "internalType": "uint256",
          "name": "_saleEndDate",
          "type": "uint256"
        }
      ],
      "name": "updateCategorySaleDates",
      "outputs": [],
      "stateMutability": "nonpayable",
      "type": "function"
    }
  ],
  "bytecode": "0x608060405234801561001057600080fd5b50612501806100206000396000f3fe608060405234801561001057600080fd5b50600436106100835760003560e01c80630309a539146100885780631c6f92711461009d5780632761f33b146100b05780633d378bb0146100c3578063a310d9bf146100d6578063a3bdc7c7146100e9578063d5533da014610112578063f354159b14610125578063f817c31514610138575b600080fd5b61009b610096366004611ba1565b61014b565b005b61009b6100ab366004611bcd565b610273565b61009b6100be366004611cfe565b610436565b61009b6100d1366004611dc0565b6106ff565b61009b6100e4366004611de2565b610af7565b6100fc6100f7366004611e17565b610cc5565b6040516101099190611eb1565b60405180910390f35b61009b610120366004611ffd565b611087565b61009b610133366004611ffd565b61124f565b61009b610146366004612029565b6114d8565b600082815260026020908152604091829020548251808401909352601b83526000805160206123e1833981519152918301919091528391906001600160a01b03166101b25760405162461bcd60e51b81526004016101a99190612120565b60405180910390fd5b506101bf8360003361180a565b806101de57506101de836000805160206124498339815191523361180a565b6040518060600160405280602a8152602001612342602a9139906102155760405162461bcd60e51b81526004016101a99190612120565b50600083815260096020908152604091829020600301805460ff19168515159081179091558251868152918201527f578eeefe0b8083fcd939e8d547da4c0ba6b26ed213c13de65ab08a52f9f26a52910160405180910390a1505050565b600084815260026020908152604091829020548251808401909352601b83526000805160206123e1833981519152918301919091528591906001600160a01b03166102d15760405162461bcd60e51b81526004016101a99190612120565b506000848152600a6020908152604091829020548251808401909352601e8352600080516020612401833981519152918301919091528591906103275760405162461bcd60e51b81526004016101a99190612120565b508585816000600a016000838152602001908152602001600020600701541460405180606001604052806029815260200161236c602991399061037d5760405162461bcd60e51b81526004016101a99190612120565b5061038a8860003361180a565b806103a957506103a9886000805160206124498339815191523361180a565b6040518060600160405280602a8152602001612342602a9139906103e05760405162461bcd60e51b81526004016101a99190612120565b506103ed8888888861183c565b6040805189815260208101899052338183015290517f4192182acd964db32b1197a6483d5694cf6e678e7202565c44cc961078eb2c8f9181900360600190a15050505050505050565b600089815260026020908152604091829020548251808401909352601b83526000805160206123e1833981519152918301919091528a91906001600160a01b03166104945760405162461bcd60e51b81526004016101a99190612120565b506000898152600a6020908152604091829020548251808401909352601e8352600080516020612401833981519152918301919091528a91906104ea5760405162461bcd60e51b81526004016101a99190612120565b508a8a816000600a016000838152602001908152602001600020600701541460405180606001604052806029815260200161236c60299139906105405760405162461bcd60e51b81526004016101a99190612120565b5061054d8d60003361180a565b8061056c575061056c8d6000805160206124498339815191523361180a565b6040518060600160405280602a8152602001612342602a9139906105a35760405162461bcd60e51b81526004016101a99190612120565b506040805160608101909152602880825289881491906124216020830139906105df5760405162461bcd60e51b81526004016101a99190612120565b508960000361062d57871580156105f4575085155b604051806060016040528060288152602001612421602891399061062b5760405162461bcd60e51b81526004016101a99190612120565b505b60008c8152600a602052604090206001016106488c826121bd565b5060008c8152600a60208190526040909120600381018c905561066d91018a8a611a0a565b5060008c8152600a6020526040902061068a90600b018888611a0a565b5060008c8152600a602052604090208590600c016106b5828281358155602082013560018201555050565b5050604080518e8152602081018e90527f44df894581249b9c6cda25b6fe8239320be1641adde53f17479b4153cadfcc60910160405180910390a150505050505050505050505050565b600082815260026020908152604091829020548251808401909352601b83526000805160206123e1833981519152918301919091528391906001600160a01b031661075d5760405162461bcd60e51b81526004016101a99190612120565b506000828152600a6020908152604091829020548251808401909352601e8352600080516020612401833981519152918301919091528391906107b35760405162461bcd60e51b81526004016101a99190612120565b508383816000600a016000838152602001908152602001600020600701541460405180606001604052806029815260200161236c60299139906108095760405162461bcd60e51b81526004016101a99190612120565b506108168660003361180a565b806108355750610835866000805160206124498339815191523361180a565b6040518060600160405280602a8152602001612342602a91399061086c5760405162461bcd60e51b81526004016101a99190612120565b506000858152600a6020908152604091829020600201548251808401909352601d83527f4576656e743a2054686572652061726520736f6c64207469636b65747300000091830191909152156108d55760405162461bcd60e51b81526004016101a99190612120565b506000858152600a60205260408120818155906108f56001830182611a55565b610903600283016000611a92565b600060038301819055600483018190556005830181905560068301819055600783018190556008830181905560098301805460ff1916905561094990600a840190611a92565b610957600b83016000611a92565b506000600c8201819055600d8201819055600e909101805460ff19169055868152600b60209081526040808320805482518185028101850190935280835291929091908301828280156109c957602002820191906000526020600020905b8154815260200190600101908083116109b5575b5050505050905060005b8151811015610ab357868282815181106109ef576109ef61227c565b602002602001015103610aa1576000888152600b602052604090208251610a18906001906122a8565b81548110610a2857610a2861227c565b90600052602060002001546000600b0160008a81526020019081526020016000208281548110610a5a57610a5a61227c565b6000918252602080832090910192909255898152600b90915260409020805480610a8657610a866122c1565b60019003818190600052602060002001600090559055610ab3565b80610aab816122d7565b9150506109d3565b5060408051888152602081018890527ff67e86d3ffc2c26729aac7f4e3e07e009ad076ace7cd9e9fc184fd452ac0cc8591015b60405180910390a150505050505050565b600083815260026020908152604091829020548251808401909352601b83526000805160206123e1833981519152918301919091528491906001600160a01b0316610b555760405162461bcd60e51b81526004016101a99190612120565b506000838152600a6020908152604091829020548251808401909352601e835260008051602061240183398151915291830191909152849190610bab5760405162461bcd60e51b81526004016101a99190612120565b508484816000600a016000838152602001908152602001600020600701541460405180606001604052806029815260200161236c6029913990610c015760405162461bcd60e51b81526004016101a99190612120565b50610c0e8760003361180a565b80610c2d5750610c2d876000805160206124498339815191523361180a565b6040518060600160405280602a8152602001612342602a913990610c645760405162461bcd60e51b81526004016101a99190612120565b506000868152600a6020908152604091829020600e01805460ff191688151590811790915582518a8152918201899052918101919091527f15fa4fe87d07b2a02e02cc0fac2981a3fd8653661340b9b26feae8ffefaade8a90606001610ae6565b600081815260026020908152604091829020548251808401909352601b83526000805160206123e18339815191529183019190915260609183916001600160a01b0316610d255760405162461bcd60e51b81526004016101a99190612120565b506000838152600b6020908152604080832080548251818502810185019093528083529192909190830182828015610d7c57602002820191906000526020600020905b815481526020019060010190808311610d68575b50505050509050600081516001600160401b03811115610d9e57610d9e611bff565b604051908082528060200260200182016040528015610dd757816020015b610dc4611ab0565b815260200190600190039081610dbc5790505b50905060005b825181101561107c576000600a016000848381518110610dff57610dff61227c565b60200260200101518152602001908152602001600020604051806101c001604052908160008201548152602001600182018054610e3b9061213a565b80601f0160208091040260200160405190810160405280929190818152602001828054610e679061213a565b8015610eb45780601f10610e8957610100808354040283529160200191610eb4565b820191906000526020600020905b815481529060010190602001808311610e9757829003601f168201915b5050505050815260200160028201805480602002602001604051908101604052809291908181526020018280548015610f0c57602002820191906000526020600020905b815481526020019060010190808311610ef8575b505050505081526020016003820154815260200160048201548152602001600582015481526020016006820154815260200160078201548152602001600882015481526020016009820160009054906101000a900460ff16151515158152602001600a8201805480602002602001604051908101604052809291908181526020018280548015610fbb57602002820191906000526020600020905b815481526020019060010190808311610fa7575b50505050508152602001600b820180548060200260200160405190810160405280929190818152602001828054801561101357602002820191906000526020600020905b815481526020019060010190808311610fff575b5050509183525050604080518082018252600c8401548152600d840154602082810191909152830152600e9092015460ff161515910152825183908390811061105e5761105e61227c565b60200260200101819052508080611074906122d7565b915050610ddd565b509250505b50919050565b600083815260026020908152604091829020548251808401909352601b83526000805160206123e1833981519152918301919091528491906001600160a01b03166110e55760405162461bcd60e51b81526004016101a99190612120565b506000838152600a6020908152604091829020548251808401909352601e83526000805160206124018339815191529183019190915284919061113b5760405162461bcd60e51b81526004016101a99190612120565b508484816000600a016000838152602001908152602001600020600701541460405180606001604052806029815260200161236c60299139906111915760405162461bcd60e51b81526004016101a99190612120565b5061119e8760003361180a565b806111bd57506111bd876000805160206124498339815191523361180a565b6040518060600160405280602a8152602001612342602a9139906111f45760405162461bcd60e51b81526004016101a99190612120565b506000868152600a6020526040812060040180548792906112169084906122f0565b90915550506040517f3a50fbe2fa0bdf2022fcd8fe2132970519fcf4df5cf97d78e86c510eb0805b6a90610ae690899089908990612303565b600083815260026020908152604091829020548251808401909352601b83526000805160206123e1833981519152918301919091528491906001600160a01b03166112ad5760405162461bcd60e51b81526004016101a99190612120565b506000838152600a6020908152604091829020548251808401909352601e8352600080516020612401833981519152918301919091528491906113035760405162461bcd60e51b81526004016101a99190612120565b508484816000600a016000838152602001908152602001600020600701541460405180606001604052806029815260200161236c60299139906113595760405162461bcd60e51b81526004016101a99190612120565b506113668760003361180a565b806113855750611385876000805160206124498339815191523361180a565b6040518060600160405280602a8152602001612342602a9139906113bc5760405162461bcd60e51b81526004016101a99190612120565b50846000600a0160008881526020019081526020016000206004015410156040518060600160405280602e8152602001612469602e9139906114115760405162461bcd60e51b81526004016101a99190612120565b506000868152600a602052604090206004015461142f9086906122a8565b6000878152600a60209081526040918290206002015482516060810190935260358084529310159290612497908301399061147d5760405162461bcd60e51b81526004016101a99190612120565b506000868152600a60205260408120600401805487929061149f9084906122a8565b90915550506040517fb39ecd9af22a3fec10ec63455a79d572fdcfadf6a9005d5cd232b2829f958c7090610ae690899089908990612303565b60008c815260026020908152604091829020548251808401909352601b83526000805160206123e1833981519152918301919091528d91906001600160a01b03166115365760405162461bcd60e51b81526004016101a99190612120565b506115438d60003361180a565b8061156257506115628d6000805160206124498339815191523361180a565b6040518060600160405280602a8152602001612342602a9139906115995760405162461bcd60e51b81526004016101a99190612120565b506040805160608101909152602880825286851491906124216020830139906115d55760405162461bcd60e51b81526004016101a99190612120565b508760000361162357841580156115ea575082155b60405180606001604052806028815260200161242160289139906116215760405162461bcd60e51b81526004016101a99190612120565b505b611631600880546001019055565b600061163c60085490565b6000818152600a6020526040902081815590915060010161165d8e826121bd565b506040805160008082526020808301808552858352600a909152929020905161168c9260029092019190611b3c565b50896000600a016000838152602001908152602001600020600401819055508d6000600a01600083815260200190815260200160002060070181905550886000600a0160008381526020019081526020016000206003018190555086866000600a016000848152602001908152602001600020600a01919061170f929190611a0a565b506000818152600a6020526040902061172c90600b018686611a0a565b506000818152600a602052604090208390600c01611757828281358155602082013560018201555050565b50506000818152600a60205260409020600901805460ff19168915151790556117828e828e8e61183c565b6000600b0160008f81526020019081526020016000208190806001815401808255809150506001900390600052602060002001600090919091909150557f2a94cd6b8e4219d087c43453e983d276c11f9ba16e547f01adb19edb60ae3c7d8e828f6040516117f293929190612319565b60405180910390a15050505050505050505050505050565b60009283526012602090815260408085209385529281528284206001600160a01b039290921684525290205460ff1690565b81158015611848575080155b15611879576000838152600a602052604090206005810183905560068101829055600e01805460ff19169055611a04565b8160000361189b576000838152600a6020526040902042600590910155611917565b6000848152600960205260409020600301546201000090046001600160401b0316821080156118ca5750428210155b6040518060600160405280602781526020016123ba60279139906119015760405162461bcd60e51b81526004016101a99190612120565b506000838152600a602052604090206005018290555b8060000361195a57600084815260096020908152604080832060030154868452600a909252909120620100009091046001600160401b03166006909101556119e7565b6000838152600a60205260409020600501548111801561199a57506000848152600960205260409020600301546201000090046001600160401b03168111155b60405180606001604052806025815260200161239560259139906119d15760405162461bcd60e51b81526004016101a99190612120565b506000838152600a602052604090206006018190555b6000838152600a60205260409020600e01805460ff191660011790555b50505050565b828054828255906000526020600020908101928215611a45579160200282015b82811115611a45578235825591602001919060010190611a2a565b50611a51929150611b77565b5090565b508054611a619061213a565b6000825580601f10611a71575050565b601f016020900490600052602060002090810190611a8f9190611b77565b50565b5080546000825590600052602060002090810190611a8f9190611b77565b604051806101c001604052806000815260200160608152602001606081526020016000815260200160008152602001600081526020016000815260200160008152602001600081526020016000151581526020016060815260200160608152602001611b2f604051806040016040528060008152602001600081525090565b8152600060209091015290565b828054828255906000526020600020908101928215611a45579160200282015b82811115611a45578251825591602001919060010190611b5c565b5b80821115611a515760008155600101611b78565b80358015158114611b9c57600080fd5b919050565b60008060408385031215611bb457600080fd5b82359150611bc460208401611b8c565b90509250929050565b60008060008060808587031215611be357600080fd5b5050823594602084013594506040840135936060013592509050565b634e487b7160e01b600052604160045260246000fd5b600082601f830112611c2657600080fd5b81356001600160401b0380821115611c4057611c40611bff565b604051601f8301601f19908116603f01168101908282118183101715611c6857611c68611bff565b81604052838152866020858801011115611c8157600080fd5b836020870160208301376000602085830101528094505050505092915050565b60008083601f840112611cb357600080fd5b5081356001600160401b03811115611cca57600080fd5b6020830191508360208260051b8501011115611ce557600080fd5b9250929050565b60006040828403121561108157600080fd5b60008060008060008060008060006101008a8c031215611d1d57600080fd5b8935985060208a0135975060408a01356001600160401b0380821115611d4257600080fd5b611d4e8d838e01611c15565b985060608c0135975060808c0135915080821115611d6b57600080fd5b611d778d838e01611ca1565b909750955060a08c0135915080821115611d9057600080fd5b50611d9d8c828d01611ca1565b9094509250611db190508b60c08c01611cec565b90509295985092959850929598565b60008060408385031215611dd357600080fd5b50508035926020909101359150565b600080600060608486031215611df757600080fd5b8335925060208401359150611e0e60408501611b8c565b90509250925092565b600060208284031215611e2957600080fd5b5035919050565b6000815180845260005b81811015611e5657602081850181015186830182015201611e3a565b506000602082860101526020601f19601f83011685010191505092915050565b600081518084526020808501945080840160005b83811015611ea657815187529582019590820190600101611e8a565b509495945050505050565b60006020808301818452808551808352604092508286019150828160051b87010184880160005b83811015611fef57603f1989840301855281516101e08151855288820151818a870152611f0782870182611e30565b9150508782015185820389870152611f1f8282611e76565b606084810151908801526080808501519088015260a0808501519088015260c0808501519088015260e0808501519088015261010080850151908801526101208085015115159088015261014080850151888303828a01529193509150611f868382611e76565b925050506101608083015186830382880152611fa28382611e76565b9250505061018080830151611fc38288018280518252602090810151910152565b50506101a08201519150611fdc6101c086018315159052565b9588019593505090860190600101611ed8565b509098975050505050505050565b60008060006060848603121561201257600080fd5b505081359360208301359350604090920135919050565b6000806000806000806000806000806000806101608d8f03121561204c57600080fd5b8c359b506001600160401b0360208e0135111561206857600080fd5b6120788e60208f01358f01611c15565b9a5060408d0135995060608d0135985060808d0135975060a08d013596506120a260c08e01611b8c565b95506001600160401b0360e08e013511156120bc57600080fd5b6120cc8e60e08f01358f01611ca1565b90955093506001600160401b036101008e013511156120ea57600080fd5b6120fb8e6101008f01358f01611ca1565b909350915061210e8e6101208f01611cec565b90509295989b509295989b509295989b565b6020815260006121336020830184611e30565b9392505050565b600181811c9082168061214e57607f821691505b60208210810361108157634e487b7160e01b600052602260045260246000fd5b601f8211156121b857600081815260208120601f850160051c810160208610156121955750805b601f850160051c820191505b818110156121b4578281556001016121a1565b5050505b505050565b81516001600160401b038111156121d6576121d6611bff565b6121ea816121e4845461213a565b8461216e565b602080601f83116001811461221f57600084156122075750858301515b600019600386901b1c1916600185901b1785556121b4565b600085815260208120601f198616915b8281101561224e5788860151825594840194600190910190840161222f565b508582101561226c5787850151600019600388901b60f8161c191681555b5050505050600190811b01905550565b634e487b7160e01b600052603260045260246000fd5b634e487b7160e01b600052601160045260246000fd5b818103818111156122bb576122bb612292565b92915050565b634e487b7160e01b600052603160045260246000fd5b6000600182016122e9576122e9612292565b5060010190565b808201808211156122bb576122bb612292565b9283526020830191909152604082015260600190565b8381528260208201526060604082015260006123386060830184611e30565b9594505050505056fe4576656e743a2043616c6c6572206973206e6f7420616e2061646d696e206f72206d6f64657261746f724576656e743a20546869732063617465676f727920697320666f7220616e6f74686572206576656e744576656e743a2043617465676f727920656e64206461746520697320696e636f72726563744576656e743a2043617465676f7279207374617274206461746520697320696e636f72726563744576656e743a204576656e7420646f6573206e6f7420657869737400000000004576656e743a2043617465676f727920646f6573206e6f7420657869737400004576656e743a20446973636f756e7420706172616d6574657273206c656e677468206e6f7420657171f3d55856e4058ed06ee057d79ada615f65cdf5f9ee88181b914225088f834f4576656e743a2043616e2774206465637265617365207469636b65747320636f756e742062656c6f77207a65726f4576656e743a205469636b65747320616d6f756e742063616e2774206265206c657373207468616e20736f6c64207469636b657473a264697066735822122046c7f94692cd6fa60945dabb6c29ea02bc30dee45db7963a64b8c810e661b32764736f6c63430008110033",
  "linkReferences": {},
  "deployedLinkReferences": {}
}