{
  "_format": "hh-sol-artifact-1",
  "contractName": "EventFacet",
  "sourceName": "contracts/EventDiamond/facets/EventFacet.sol",
  "abi": [
    {
      "anonymous": false,
      "inputs": [
        {
          "indexed": true,
          "internalType": "address",
          "name": "owner",
          "type": "address"
        },
        {
          "indexed": true,
          "internalType": "address",
          "name": "approved",
          "type": "address"
        },
        {
          "indexed": true,
          "internalType": "uint256",
          "name": "tokenId",
          "type": "uint256"
        }
      ],
      "name": "Approval",
      "type": "event"
    },
    {
      "anonymous": false,
      "inputs": [
        {
          "indexed": true,
          "internalType": "address",
          "name": "owner",
          "type": "address"
        },
        {
          "indexed": true,
          "internalType": "address",
          "name": "operator",
          "type": "address"
        },
        {
          "indexed": false,
          "internalType": "bool",
          "name": "approved",
          "type": "bool"
        }
      ],
      "name": "ApprovalForAll",
      "type": "event"
    },
    {
      "anonymous": false,
      "inputs": [
        {
          "indexed": false,
          "internalType": "uint256",
          "name": "_fromTokenId",
          "type": "uint256"
        },
        {
          "indexed": false,
          "internalType": "uint256",
          "name": "_toTokenId",
          "type": "uint256"
        }
      ],
      "name": "BatchMetadataUpdate",
      "type": "event"
    },
    {
      "anonymous": false,
      "inputs": [
        {
          "indexed": false,
          "internalType": "uint256",
          "name": "eventId",
          "type": "uint256"
        }
      ],
      "name": "EventCanceled",
      "type": "event"
    },
    {
      "anonymous": false,
      "inputs": [
        {
          "indexed": false,
          "internalType": "uint256",
          "name": "eventId",
          "type": "uint256"
        },
        {
          "indexed": false,
          "internalType": "address",
          "name": "account",
          "type": "address"
        },
        {
          "indexed": false,
          "internalType": "address",
          "name": "setter",
          "type": "address"
        }
      ],
      "name": "EventCashierSet",
      "type": "event"
    },
    {
      "anonymous": false,
      "inputs": [
        {
          "indexed": false,
          "internalType": "uint256",
          "name": "eventId",
          "type": "uint256"
        },
        {
          "indexed": false,
          "internalType": "string",
          "name": "metadataUri",
          "type": "string"
        }
      ],
      "name": "EventCreated",
      "type": "event"
    },
    {
      "anonymous": false,
      "inputs": [
        {
          "indexed": false,
          "internalType": "uint256",
          "name": "eventId",
          "type": "uint256"
        },
        {
          "indexed": false,
          "internalType": "uint256",
          "name": "time",
          "type": "uint256"
        }
      ],
      "name": "EventPostponed",
      "type": "event"
    },
    {
      "anonymous": false,
      "inputs": [
        {
          "indexed": false,
          "internalType": "uint256",
          "name": "_tokenId",
          "type": "uint256"
        }
      ],
      "name": "MetadataUpdate",
      "type": "event"
    },
    {
      "anonymous": false,
      "inputs": [
        {
          "indexed": false,
          "internalType": "uint256",
          "name": "eventId",
          "type": "uint256"
        },
        {
          "indexed": true,
          "internalType": "bytes32",
          "name": "role",
          "type": "bytes32"
        },
        {
          "indexed": true,
          "internalType": "bytes32",
          "name": "previousAdminRole",
          "type": "bytes32"
        },
        {
          "indexed": true,
          "internalType": "bytes32",
          "name": "newAdminRole",
          "type": "bytes32"
        }
      ],
      "name": "RoleAdminChanged",
      "type": "event"
    },
    {
      "anonymous": false,
      "inputs": [
        {
          "indexed": false,
          "internalType": "uint256",
          "name": "eventId",
          "type": "uint256"
        },
        {
          "indexed": true,
          "internalType": "bytes32",
          "name": "role",
          "type": "bytes32"
        },
        {
          "indexed": true,
          "internalType": "address",
          "name": "account",
          "type": "address"
        },
        {
          "indexed": true,
          "internalType": "address",
          "name": "sender",
          "type": "address"
        }
      ],
      "name": "RoleGranted",
      "type": "event"
    },
    {
      "anonymous": false,
      "inputs": [
        {
          "indexed": false,
          "internalType": "uint256",
          "name": "eventId",
          "type": "uint256"
        },
        {
          "indexed": true,
          "internalType": "bytes32",
          "name": "role",
          "type": "bytes32"
        },
        {
          "indexed": true,
          "internalType": "address",
          "name": "account",
          "type": "address"
        },
        {
          "indexed": true,
          "internalType": "address",
          "name": "sender",
          "type": "address"
        }
      ],
      "name": "RoleRevoked",
      "type": "event"
    },
    {
      "anonymous": false,
      "inputs": [
        {
          "indexed": true,
          "internalType": "address",
          "name": "from",
          "type": "address"
        },
        {
          "indexed": true,
          "internalType": "address",
          "name": "to",
          "type": "address"
        },
        {
          "indexed": true,
          "internalType": "uint256",
          "name": "tokenId",
          "type": "uint256"
        }
      ],
      "name": "Transfer",
      "type": "event"
    },
    {
      "inputs": [
        {
          "internalType": "uint256",
          "name": "_eventId",
          "type": "uint256"
        },
        {
          "internalType": "bytes32",
          "name": "_role",
          "type": "bytes32"
        },
        {
          "internalType": "address",
          "name": "_account",
          "type": "address"
        }
      ],
      "name": "addTeamMember",
      "outputs": [],
      "stateMutability": "nonpayable",
      "type": "function"
    },
    {
      "inputs": [
        {
          "internalType": "address",
          "name": "to",
          "type": "address"
        },
        {
          "internalType": "uint256",
          "name": "tokenId",
          "type": "uint256"
        }
      ],
      "name": "approve",
      "outputs": [],
      "stateMutability": "nonpayable",
      "type": "function"
    },
    {
      "inputs": [
        {
          "internalType": "address",
          "name": "owner",
          "type": "address"
        }
      ],
      "name": "balanceOf",
      "outputs": [
        {
          "internalType": "uint256",
          "name": "",
          "type": "uint256"
        }
      ],
      "stateMutability": "view",
      "type": "function"
    },
    {
      "inputs": [
        {
          "internalType": "uint256",
          "name": "_eventId",
          "type": "uint256"
        }
      ],
      "name": "cancelEvent",
      "outputs": [],
      "stateMutability": "nonpayable",
      "type": "function"
    },
    {
      "inputs": [
        {
          "internalType": "uint256",
          "name": "_maxTicketsPerClient",
          "type": "uint256"
        },
        {
          "internalType": "uint64",
          "name": "_startDate",
          "type": "uint64"
        },
        {
          "internalType": "uint64",
          "name": "_endDate",
          "type": "uint64"
        },
        {
          "internalType": "bool",
          "name": "_onlyWhiteListedUsers",
          "type": "bool"
        },
        {
          "internalType": "string",
          "name": "_metadataURI",
          "type": "string"
        }
      ],
      "name": "createEvent",
      "outputs": [],
      "stateMutability": "nonpayable",
      "type": "function"
    },
    {
      "inputs": [
        {
          "internalType": "uint256",
          "name": "tokenId",
          "type": "uint256"
        }
      ],
      "name": "endTime",
      "outputs": [
        {
          "internalType": "uint64",
          "name": "",
          "type": "uint64"
        }
      ],
      "stateMutability": "view",
      "type": "function"
    },
    {
      "inputs": [],
      "name": "fetchAllEventIds",
      "outputs": [
        {
          "internalType": "uint256[]",
          "name": "",
          "type": "uint256[]"
        }
      ],
      "stateMutability": "view",
      "type": "function"
    },
    {
      "inputs": [],
      "name": "fetchAllEvents",
      "outputs": [
        {
          "components": [
            {
              "internalType": "address",
              "name": "organizer",
              "type": "address"
            },
            {
              "internalType": "uint256",
              "name": "maxTicketsPerClient",
              "type": "uint256"
            },
            {
              "internalType": "uint256",
              "name": "balance",
              "type": "uint256"
            },
            {
              "internalType": "bool",
              "name": "areAllCategoryTicketsBuyable",
              "type": "bool"
            },
            {
              "internalType": "enum EventStatus",
              "name": "status",
              "type": "uint8"
            },
            {
              "internalType": "uint64",
              "name": "startTime",
              "type": "uint64"
            },
            {
              "internalType": "uint64",
              "name": "endTime",
              "type": "uint64"
            },
            {
              "components": [
                {
                  "internalType": "uint256",
                  "name": "date",
                  "type": "uint256"
                },
                {
                  "internalType": "uint8",
                  "name": "percentage",
                  "type": "uint8"
                }
              ],
              "internalType": "struct RefundData[]",
              "name": "refundData",
              "type": "tuple[]"
            },
            {
              "internalType": "uint256[]",
              "name": "whiteLists",
              "type": "uint256[]"
            },
            {
              "internalType": "bool",
              "name": "onlyWhiteListedUsers",
              "type": "bool"
            }
          ],
          "internalType": "struct Event[]",
          "name": "",
          "type": "tuple[]"
        }
      ],
      "stateMutability": "view",
      "type": "function"
    },
    {
      "inputs": [
        {
          "internalType": "uint256",
          "name": "_eventId",
          "type": "uint256"
        }
      ],
      "name": "fetchEventById",
      "outputs": [
        {
          "components": [
            {
              "internalType": "address",
              "name": "organizer",
              "type": "address"
            },
            {
              "internalType": "uint256",
              "name": "maxTicketsPerClient",
              "type": "uint256"
            },
            {
              "internalType": "uint256",
              "name": "balance",
              "type": "uint256"
            },
            {
              "internalType": "bool",
              "name": "areAllCategoryTicketsBuyable",
              "type": "bool"
            },
            {
              "internalType": "enum EventStatus",
              "name": "status",
              "type": "uint8"
            },
            {
              "internalType": "uint64",
              "name": "startTime",
              "type": "uint64"
            },
            {
              "internalType": "uint64",
              "name": "endTime",
              "type": "uint64"
            },
            {
              "components": [
                {
                  "internalType": "uint256",
                  "name": "date",
                  "type": "uint256"
                },
                {
                  "internalType": "uint8",
                  "name": "percentage",
                  "type": "uint8"
                }
              ],
              "internalType": "struct RefundData[]",
              "name": "refundData",
              "type": "tuple[]"
            },
            {
              "internalType": "uint256[]",
              "name": "whiteLists",
              "type": "uint256[]"
            },
            {
              "internalType": "bool",
              "name": "onlyWhiteListedUsers",
              "type": "bool"
            }
          ],
          "internalType": "struct Event",
          "name": "eventObj",
          "type": "tuple"
        }
      ],
      "stateMutability": "view",
      "type": "function"
    },
    {
      "inputs": [],
      "name": "fetchOwnedEvents",
      "outputs": [
        {
          "internalType": "uint256[]",
          "name": "",
          "type": "uint256[]"
        }
      ],
      "stateMutability": "view",
      "type": "function"
    },
    {
      "inputs": [
        {
          "internalType": "uint256",
          "name": "tokenId",
          "type": "uint256"
        }
      ],
      "name": "getApproved",
      "outputs": [
        {
          "internalType": "address",
          "name": "",
          "type": "address"
        }
      ],
      "stateMutability": "view",
      "type": "function"
    },
    {
      "inputs": [
        {
          "internalType": "uint256",
          "name": "eventId",
          "type": "uint256"
        }
      ],
      "name": "getEventMembers",
      "outputs": [
        {
          "components": [
            {
              "internalType": "address",
              "name": "account",
              "type": "address"
            },
            {
              "internalType": "bytes32",
              "name": "role",
              "type": "bytes32"
            }
          ],
          "internalType": "struct MemberData[]",
          "name": "",
          "type": "tuple[]"
        }
      ],
      "stateMutability": "view",
      "type": "function"
    },
    {
      "inputs": [
        {
          "internalType": "uint256",
          "name": "eventId",
          "type": "uint256"
        },
        {
          "internalType": "bytes32",
          "name": "role",
          "type": "bytes32"
        }
      ],
      "name": "getRoleAdmin",
      "outputs": [
        {
          "internalType": "bytes32",
          "name": "",
          "type": "bytes32"
        }
      ],
      "stateMutability": "view",
      "type": "function"
    },
    {
      "inputs": [
        {
          "internalType": "uint256",
          "name": "eventId",
          "type": "uint256"
        },
        {
          "internalType": "bytes32",
          "name": "role",
          "type": "bytes32"
        },
        {
          "internalType": "address",
          "name": "account",
          "type": "address"
        }
      ],
      "name": "grantRole",
      "outputs": [],
      "stateMutability": "nonpayable",
      "type": "function"
    },
    {
      "inputs": [
        {
          "internalType": "uint256",
          "name": "eventId",
          "type": "uint256"
        },
        {
          "internalType": "bytes32",
          "name": "role",
          "type": "bytes32"
        },
        {
          "internalType": "address",
          "name": "account",
          "type": "address"
        }
      ],
      "name": "hasRole",
      "outputs": [
        {
          "internalType": "bool",
          "name": "",
          "type": "bool"
        }
      ],
      "stateMutability": "view",
      "type": "function"
    },
    {
      "inputs": [
        {
          "internalType": "address",
          "name": "owner",
          "type": "address"
        },
        {
          "internalType": "address",
          "name": "operator",
          "type": "address"
        }
      ],
      "name": "isApprovedForAll",
      "outputs": [
        {
          "internalType": "bool",
          "name": "",
          "type": "bool"
        }
      ],
      "stateMutability": "view",
      "type": "function"
    },
    {
      "inputs": [],
      "name": "name",
      "outputs": [
        {
          "internalType": "string",
          "name": "",
          "type": "string"
        }
      ],
      "stateMutability": "view",
      "type": "function"
    },
    {
      "inputs": [
        {
          "internalType": "uint256",
          "name": "tokenId",
          "type": "uint256"
        }
      ],
      "name": "ownerOf",
      "outputs": [
        {
          "internalType": "address",
          "name": "",
          "type": "address"
        }
      ],
      "stateMutability": "view",
      "type": "function"
    },
    {
      "inputs": [
        {
          "internalType": "uint256",
          "name": "_eventId",
          "type": "uint256"
        },
        {
          "internalType": "uint64",
          "name": "_time",
          "type": "uint64"
        }
      ],
      "name": "postponeEvent",
      "outputs": [],
      "stateMutability": "nonpayable",
      "type": "function"
    },
    {
      "inputs": [
        {
          "internalType": "uint256",
          "name": "_eventId",
          "type": "uint256"
        }
      ],
      "name": "removeEvent",
      "outputs": [],
      "stateMutability": "nonpayable",
      "type": "function"
    },
    {
      "inputs": [
        {
          "internalType": "uint256",
          "name": "_eventId",
          "type": "uint256"
        },
        {
          "internalType": "bytes32",
          "name": "_role",
          "type": "bytes32"
        },
        {
          "internalType": "address",
          "name": "_account",
          "type": "address"
        }
      ],
      "name": "removeTeamMember",
      "outputs": [],
      "stateMutability": "nonpayable",
      "type": "function"
    },
    {
      "inputs": [
        {
          "internalType": "uint256",
          "name": "eventId",
          "type": "uint256"
        },
        {
          "internalType": "bytes32",
          "name": "role",
          "type": "bytes32"
        },
        {
          "internalType": "address",
          "name": "account",
          "type": "address"
        }
      ],
      "name": "renounceRole",
      "outputs": [],
      "stateMutability": "nonpayable",
      "type": "function"
    },
    {
      "inputs": [
        {
          "internalType": "uint256",
          "name": "eventId",
          "type": "uint256"
        },
        {
          "internalType": "bytes32",
          "name": "role",
          "type": "bytes32"
        },
        {
          "internalType": "address",
          "name": "account",
          "type": "address"
        }
      ],
      "name": "revokeRole",
      "outputs": [],
      "stateMutability": "nonpayable",
      "type": "function"
    },
    {
      "inputs": [
        {
          "internalType": "address",
          "name": "from",
          "type": "address"
        },
        {
          "internalType": "address",
          "name": "to",
          "type": "address"
        },
        {
          "internalType": "uint256",
          "name": "tokenId",
          "type": "uint256"
        }
      ],
      "name": "safeTransferFrom",
      "outputs": [],
      "stateMutability": "nonpayable",
      "type": "function"
    },
    {
      "inputs": [
        {
          "internalType": "address",
          "name": "from",
          "type": "address"
        },
        {
          "internalType": "address",
          "name": "to",
          "type": "address"
        },
        {
          "internalType": "uint256",
          "name": "tokenId",
          "type": "uint256"
        },
        {
          "internalType": "bytes",
          "name": "data",
          "type": "bytes"
        }
      ],
      "name": "safeTransferFrom",
      "outputs": [],
      "stateMutability": "nonpayable",
      "type": "function"
    },
    {
      "inputs": [
        {
          "internalType": "address",
          "name": "operator",
          "type": "address"
        },
        {
          "internalType": "bool",
          "name": "approved",
          "type": "bool"
        }
      ],
      "name": "setApprovalForAll",
      "outputs": [],
      "stateMutability": "nonpayable",
      "type": "function"
    },
    {
      "inputs": [
        {
          "internalType": "uint256",
          "name": "_eventId",
          "type": "uint256"
        },
        {
          "internalType": "address",
          "name": "_oldCashier",
          "type": "address"
        },
        {
          "internalType": "address",
          "name": "_newCashier",
          "type": "address"
        }
      ],
      "name": "setEventCashier",
      "outputs": [],
      "stateMutability": "nonpayable",
      "type": "function"
    },
    {
      "inputs": [
        {
          "internalType": "uint256",
          "name": "tokenId",
          "type": "uint256"
        }
      ],
      "name": "startTime",
      "outputs": [
        {
          "internalType": "uint64",
          "name": "",
          "type": "uint64"
        }
      ],
      "stateMutability": "view",
      "type": "function"
    },
    {
      "inputs": [
        {
          "internalType": "bytes4",
          "name": "interfaceId",
          "type": "bytes4"
        }
      ],
      "name": "supportsInterface",
      "outputs": [
        {
          "internalType": "bool",
          "name": "",
          "type": "bool"
        }
      ],
      "stateMutability": "view",
      "type": "function"
    },
    {
      "inputs": [],
      "name": "symbol",
      "outputs": [
        {
          "internalType": "string",
          "name": "",
          "type": "string"
        }
      ],
      "stateMutability": "view",
      "type": "function"
    },
    {
      "inputs": [
        {
          "internalType": "uint256",
          "name": "tokenId",
          "type": "uint256"
        }
      ],
      "name": "tokenURI",
      "outputs": [
        {
          "internalType": "string",
          "name": "",
          "type": "string"
        }
      ],
      "stateMutability": "view",
      "type": "function"
    },
    {
      "inputs": [
        {
          "internalType": "address",
          "name": "from",
          "type": "address"
        },
        {
          "internalType": "address",
          "name": "to",
          "type": "address"
        },
        {
          "internalType": "uint256",
          "name": "tokenId",
          "type": "uint256"
        }
      ],
      "name": "transferFrom",
      "outputs": [],
      "stateMutability": "nonpayable",
      "type": "function"
    },
    {
      "inputs": [
        {
          "internalType": "uint256",
          "name": "_eventId",
          "type": "uint256"
        },
        {
          "internalType": "string",
          "name": "_newMetadataURI",
          "type": "string"
        }
      ],
      "name": "updateEventTokenUri",
      "outputs": [],
      "stateMutability": "nonpayable",
      "type": "function"
    },
    {
      "inputs": [
        {
          "internalType": "uint256",
          "name": "_eventId",
          "type": "uint256"
        }
      ],
      "name": "withdrawFromCanceledEvent",
      "outputs": [],
      "stateMutability": "nonpayable",
      "type": "function"
    }
  ],
  "bytecode": "0x608060405234801561001057600080fd5b50614191806100206000396000f3fe608060405234801561001057600080fd5b50600436106101965760003560e01c806301ffc9a71461019b57806306fdde03146101c4578063081812fc146101d9578063095ea7b3146102045780630d517286146102195780630e1b943d14610239578063119345aa146102595780632053d82c1461026c57806323b872dd1461027f5780633660ff8314610292578063397d4dbc146102a75780633ec4c968146102c85780633f69babd146102f357806342842e0e1461030657806344c816fa146103195780634a120dd71461032c57806356164e1e1461033f578063598be85c146103525780636352211e146103655780636a4bc7de1461037857806370a082311461038b578063724bdedf1461039e5780637986b230146103b157806395d89b41146103c4578063a22cb465146103cc578063abae6af9146103df578063b0155544146103f4578063b88d4fde14610407578063c87b56dd1461041a578063dc91a98f1461042d578063e985e9c514610440578063f4b80e0514610453578063f99c229214610466578063fb42204d1461046e575b600080fd5b6101af6101a936600461346b565b50600090565b60405190151581526020015b60405180910390f35b6101cc610481565b6040516101bb91906134d8565b6101ec6101e73660046134eb565b610518565b6040516001600160a01b0390911681526020016101bb565b610217610212366004613519565b610541565b005b61022c6102273660046134eb565b61065b565b6040516101bb91906136cd565b61024c6102473660046134eb565b610857565b6040516101bb91906136e0565b6101af610267366004613738565b6108d6565b61021761027a36600461381c565b61090d565b61021761028d366004613862565b610a12565b61029a610a43565b6040516101bb91906138a3565b6102ba6102b5366004613905565b610cf1565b6040519081526020016101bb565b6102db6102d63660046134eb565b610d15565b6040516001600160401b0390911681526020016101bb565b6102176103013660046134eb565b610d20565b610217610314366004613862565b61115f565b6102db6103273660046134eb565b61117a565b61021761033a366004613738565b611185565b61021761034d3660046134eb565b6111ac565b610217610360366004613927565b6114e1565b6101ec6103733660046134eb565b611664565b610217610386366004613738565b6116a2565b6102ba61039936600461395e565b6117c4565b6102176103ac366004613738565b611850565b6102176103bf3660046134eb565b6118c9565b6101cc611a90565b6102176103da366004613990565b611aa3565b6103e7611ab2565b6040516101bb91906139c5565b610217610402366004613738565b611bfd565b610217610415366004613a09565b611d1d565b6101cc6104283660046134eb565b611d4f565b61021761043b366004613a9f565b611e96565b6101af61044e366004613ac2565b6121f3565b610217610461366004613afb565b612221565b6103e7612442565b61021761047c366004613738565b612547565b6060600080600001805461049490613b73565b80601f01602080910402602001604051908101604052809291908181526020018280546104c090613b73565b801561050d5780601f106104e25761010080835404028352916020019161050d565b820191906000526020600020905b8154815290600101906020018083116104f057829003601f168201915b505050505091505090565b60008061052483612567565b60009283526004016020525060409020546001600160a01b031690565b600061054c82611664565b9050806001600160a01b0316836001600160a01b0316036105be5760405162461bcd60e51b815260206004820152602160248201527f4552433732313a20617070726f76616c20746f2063757272656e74206f776e656044820152603960f91b60648201526084015b60405180910390fd5b336001600160a01b03821614806105da57506105da81336121f3565b61064c5760405162461bcd60e51b815260206004820152603e60248201527f4552433732313a20617070726f76652063616c6c6572206973206e6f7420746f60448201527f6b656e206f776e6572206e6f7220617070726f76656420666f7220616c6c000060648201526084016105b5565b610656838361258f565b505050565b610663613350565b600082815260026020908152604091829020548251808401909352601b83526000805160206140bc833981519152918301919091528391906001600160a01b03166106c15760405162461bcd60e51b81526004016105b591906134d8565b506000838152600a602090815260409182902082516101408101845281546001600160a01b0316815260018201549281019290925260028082015493830193909352600381015460ff80821615156060850152929391926080850192610100909204169081111561073457610734613545565b600281111561074557610745613545565b815260038201546001600160401b036201000082048116602080850191909152600160501b90920416604080840191909152600484018054825181850281018501909352808352606090940193919290919060009084015b828210156107df57600084815260209081902060408051808201909152600285029091018054825260019081015460ff1682840152908352909201910161079d565b5050505081526020016005820180548060200260200160405190810160405280929190818152602001828054801561083657602002820191906000526020600020905b815481526020019060010190808311610822575b50505091835250506006919091015460ff1615156020909101529392505050565b6000818152601760209081526040808320805482518185028101850190935280835260609493849084015b828210156108ca576000848152602090819020604080518082019091526002850290910180546001600160a01b03168252600190810154828401529083529092019101610882565b50505050915050919050565b600083815260166020908152604080832085845282528083206001600160a01b038516845290915281205460ff165b949350505050565b600082815260026020908152604091829020548251808401909352601b83526000805160206140bc833981519152918301919091528391906001600160a01b031661096b5760405162461bcd60e51b81526004016105b591906134d8565b50610978836000336108d6565b8061099757506109978360008051602061411c833981519152336108d6565b6040518060600160405280602a8152602001614061602a9139906109ce5760405162461bcd60e51b81526004016105b591906134d8565b506109d983836125fe565b6040518381527ff8e1a15aba9398e019f0b49df1a4fde98ee17ae345cb5f6b5e2c27f5033e8ce7906020015b60405180910390a1505050565b610a1c3382612686565b610a385760405162461bcd60e51b81526004016105b590613bad565b6106568383836126e4565b60606000610a5060075490565b905060008060015b838111610a9c576000818152600a60205260409020546001600160a01b031615610a8a5782610a8681613c11565b9350505b80610a9481613c11565b915050610a58565b506000826001600160401b03811115610ab757610ab7613771565b604051908082528060200260200182016040528015610af057816020015b610add613350565b815260200190600190039081610ad55790505b50905060015b848111610ce8576000818152600a60205260409020546001600160a01b031615610cd6576000818152600a602090815260409182902082516101408101845281546001600160a01b0316815260018201549281019290925260028082015493830193909352600381015460ff808216151560608501529293919260808501926101009092041690811115610b8c57610b8c613545565b6002811115610b9d57610b9d613545565b815260038201546001600160401b036201000082048116602080850191909152600160501b90920416604080840191909152600484018054825181850281018501909352808352606090940193919290919060009084015b82821015610c3757600084815260209081902060408051808201909152600285029091018054825260019081015460ff16828401529083529092019101610bf5565b50505050815260200160058201805480602002602001604051908101604052809291908181526020018280548015610c8e57602002820191906000526020600020905b815481526020019060010190808311610c7a575b50505091835250506006919091015460ff1615156020909101528251839085908110610cbc57610cbc613c2a565b60200260200101819052508280610cd290613c11565b9350505b80610ce081613c11565b915050610af6565b50949350505050565b60008281526016602090815260408083208484529091529020600101545b92915050565b6000610d0f82612876565b600081815260026020908152604091829020548251808401909352601b83526000805160206140bc833981519152918301919091528291906001600160a01b0316610d7e5760405162461bcd60e51b81526004016105b591906134d8565b50610d8b826000336108d6565b6040518060400160405280601d81526020016000805160206140fc83398151915281525090610dcd5760405162461bcd60e51b81526004016105b591906134d8565b5060026000838152600a6020526040902060030154610100900460ff166002811115610dfb57610dfb613545565b141560405180604001604052806015815260200174115d995b9d0e88115d995b9d0818d85b98d95b1959605a1b81525090610e495760405162461bcd60e51b81526004016105b591906134d8565b506000805b6000848152600c6020526040902054811015610ec5576000848152600c602052604081208054600b92919084908110610e8957610e89613c2a565b906000526020600020015481526020019081526020016000206008015482610eb19190613c40565b915080610ebd81613c11565b915050610e4e565b506000838152600a6020908152604091829020600201548251808401909352601e83527f4576656e743a204576656e742063616e27742062652063616e63656c65640000918301919091528214610f2f5760405162461bcd60e51b81526004016105b591906134d8565b5060005b6000848152600c602052604090205481101561110f5760005b6000858152600c602052604081208054600b92919085908110610f7157610f71613c2a565b90600052602060002001548152602001908152602001600020600201805490508110156110fc576015546000868152600c60205260408120805491926001600160a01b031691600b91849187908110610fcc57610fcc613c2a565b906000526020600020015481526020019081526020016000206002018381548110610ff957610ff9613c2a565b906000526020600020015460405160240161101691815260200190565b60408051601f198184030181529181526020820180516001600160e01b03166355ccad4360e01b1790525161104b9190613c53565b6000604051808303816000865af19150503d8060008114611088576040519150601f19603f3d011682016040523d82523d6000602084013e61108d565b606091505b50915050600080828060200190518101906110a89190613c6f565b60008a81526011602090815260408083206001600160a01b03861684529091528120805493955091935083926110df908490613c40565b9250508190555050505080806110f490613c11565b915050610f4c565b508061110781613c11565b915050610f33565b506000838152600a6020908152604091829020600301805461ff00191661020017905590518481527fceaf11772900fe569752a0207c8639fb8228eb8663456dc9eaa3a08f927a87059101610a05565b61065683838360405180602001604052806000815250611d1d565b6000610d0f826128c4565b826111908484610cf1565b61119a8282612913565b6111a585858561291e565b5050505050565b600081815260026020908152604091829020548251808401909352601b83526000805160206140bc833981519152918301919091528291906001600160a01b031661120a5760405162461bcd60e51b81526004016105b591906134d8565b50611217826000336108d6565b6040518060400160405280601d81526020016000805160206140fc833981519152815250906112595760405162461bcd60e51b81526004016105b591906134d8565b506000828152600c60209081526040808320805482518185028101850190935280835291929091908301828280156112b057602002820191906000526020600020905b81548152602001906001019080831161129c575b505050505090506000805b8251811015611321576000600b0160008483815181106112dd576112dd613c2a565b602002602001015181526020019081526020016000206002018054905060000361130f578161130b81613c11565b9250505b8061131981613c11565b9150506112bb565b50808251146040518060400160405280601d81526020017f4576656e743a2054686572652061726520736f6c64207469636b6574730000008152509061137a5760405162461bcd60e51b81526004016105b591906134d8565b50611384846129e8565b6000848152600a6020526040812080546001600160a01b031916815560018101829055600281018290556003810180546001600160901b0319169055906113ce60048301826133a2565b6113dc6005830160006133c3565b50600601805460ff191690556000848152600c602052604081206113ff916133c3565b60005b82518110156111a5576000600b01600084838151811061142457611424613c2a565b6020026020010151815260200190815260200160002060008082016000905560018201600061145391906133e1565b6114616002830160006133c3565b600060038301819055600483018190556005830181905560068301819055600783018190556008830181905560098301805460ff191690556114a790600a8401906133c3565b6114b5600b830160006133c3565b506000600c8201819055600d820155600e01805460ff19169055806114d981613c11565b915050611402565b600083815260026020908152604091829020548251808401909352601b83526000805160206140bc833981519152918301919091528491906001600160a01b031661153f5760405162461bcd60e51b81526004016105b591906134d8565b5061154c846000336108d6565b6040518060400160405280601d81526020016000805160206140fc8339815191528152509061158e5760405162461bcd60e51b81526004016105b591906134d8565b506115a8846000805160206140dc833981519152856108d6565b60405180606001604052806031815260200161408b60319139906115df5760405162461bcd60e51b81526004016105b591906134d8565b506115f9846000805160206140dc83398151915285611185565b611612846000805160206140dc83398151915284612547565b604080518581526001600160a01b038416602082015233918101919091527f9f54db3c6775e8717da6972b09a7ed552d62f5fd63696a1a75e58f61bd240193906060015b60405180910390a150505050565b60008181526002602052604081205481906001600160a01b03168061169b5760405162461bcd60e51b81526004016105b590613c9d565b9392505050565b600083815260026020908152604091829020548251808401909352601b83526000805160206140bc833981519152918301919091528491906001600160a01b03166117005760405162461bcd60e51b81526004016105b591906134d8565b5061170d846000336108d6565b6040518060400160405280601d81526020016000805160206140fc8339815191528152509061174f5760405162461bcd60e51b81526004016105b591906134d8565b5060408051808201909152601d81527f4576656e743a2043616e2774207365742063617368696572206865726500000060208201526000805160206140dc83398151915284036117b25760405162461bcd60e51b81526004016105b591906134d8565b506117be848484612547565b50505050565b6000806001600160a01b03831661182f5760405162461bcd60e51b815260206004820152602960248201527f4552433732313a2061646472657373207a65726f206973206e6f7420612076616044820152683634b21037bbb732b960b91b60648201526084016105b5565b6001600160a01b039092166000908152600390920160205250604090205490565b6001600160a01b03811633146118be5760405162461bcd60e51b815260206004820152602d60248201527f526f6c65436f6e74726f6c3a2063616e206f6e6c792072656e6f756e6365207260448201526c37b632b9903337b91039b2b63360991b60648201526084016105b5565b61065683838361291e565b60026000828152600a6020526040902060030154610100900460ff1660028111156118f6576118f6613545565b146040518060400160405280601c81526020017b115d995b9d0e88115d995b9d081a5cc81b9bdd0818d85b98d95b195960221b8152509061194a5760405162461bcd60e51b81526004016105b591906134d8565b50600081815260116020908152604080832033845282529182902054825180840190935260158352744576656e743a204e6f207769746864726177616c7360581b918301919091526119af5760405162461bcd60e51b81526004016105b591906134d8565b5060008181526011602090815260408083203384528252808320805490849055848452600a90925282206002018054919283926119ed908490613ccf565b9091555050604051600090339083908381818185875af1925050503d8060008114611a34576040519150601f19603f3d011682016040523d82523d6000602084013e611a39565b606091505b50509050806040518060400160405280601b81526020017a22bb32b73a1d102330b4b632b2103a379039b2b7321022ba3432b960291b815250906117be5760405162461bcd60e51b81526004016105b591906134d8565b6060600080600101805461049490613b73565b611aae338383612aad565b5050565b60606000611abf60075490565b905060008060015b838111611b2e57611ada816000336108d6565b80611af95750611af98160008051602061411c833981519152336108d6565b8015611b095750611b0981612b7c565b15611b1c5782611b1881613c11565b9350505b80611b2681613c11565b915050611ac7565b506000826001600160401b03811115611b4957611b49613771565b604051908082528060200260200182016040528015611b72578160200160208202803683370190505b50905060015b848111610ce857611b8b816000336108d6565b80611baa5750611baa8160008051602061411c833981519152336108d6565b8015611bba5750611bba81612b7c565b15611beb5780828481518110611bd257611bd2613c2a565b602090810291909101015282611be781613c11565b9350505b80611bf581613c11565b915050611b78565b600083815260026020908152604091829020548251808401909352601b83526000805160206140bc833981519152918301919091528491906001600160a01b0316611c5b5760405162461bcd60e51b81526004016105b591906134d8565b50611c68846000336108d6565b6040518060400160405280601d81526020016000805160206140fc83398151915281525090611caa5760405162461bcd60e51b81526004016105b591906134d8565b506000805160206140dc8339815191528314156040518060400160405280602081526020017f4576656e743a2043616e27742072656d6f76652063617368696572206865726581525090611d115760405162461bcd60e51b81526004016105b591906134d8565b506117be848484611185565b611d273383612686565b611d435760405162461bcd60e51b81526004016105b590613bad565b6117be84848484612b99565b60606000611d5c83612567565b600083815260068201602052604081208054611d7790613b73565b80601f0160208091040260200160405190810160405280929190818152602001828054611da390613b73565b8015611df05780601f10611dc557610100808354040283529160200191611df0565b820191906000526020600020905b815481529060010190602001808311611dd357829003601f168201915b505050505090506000611e0e60408051602081019091526000815290565b90508051600003611e2157509392505050565b815115611e54578082604051602001611e3b929190613ce2565b6040516020818303038152906040529350505050919050565b6000815111611e725760405180602001604052806000815250611e8d565b80611e7c86612bcc565b604051602001611e3b929190613ce2565b95945050505050565b600082815260026020908152604091829020548251808401909352601b83526000805160206140bc833981519152918301919091528391906001600160a01b0316611ef45760405162461bcd60e51b81526004016105b591906134d8565b50611f01836000336108d6565b6040518060400160405280601d81526020016000805160206140fc83398151915281525090611f435760405162461bcd60e51b81526004016105b591906134d8565b506000838152600a602052604090206003018054839190600290611f779084906201000090046001600160401b0316613d11565b92506101000a8154816001600160401b0302191690836001600160401b03160217905550816000600a016000858152602001908152602001600020600301600a8282829054906101000a90046001600160401b0316611fd69190613d11565b82546001600160401b0391821661010093840a90810292021916179091556000858152600a60205260408120600301805461ff00191690921790915590505b6000848152600a6020526040902060040154811015612095576000848152600a6020526040902060040180546001600160401b03851691908390811061205d5761205d613c2a565b9060005260206000209060020201600001600082825461207d9190613c40565b9091555081905061208d81613c11565b915050612015565b506000838152600c60209081526040808320805482518185028101850190935280835291929091908301828280156120ec57602002820191906000526020600020905b8154815260200190600101908083116120d8575b5050505050905060005b81518110156121b457836001600160401b03166000600b01600084848151811061212257612122613c2a565b60200260200101518152602001908152602001600020600501600082825461214a9190613c40565b92505081905550836001600160401b03166000600b01600084848151811061217457612174613c2a565b60200260200101518152602001908152602001600020600601600082825461219c9190613c40565b909155508190506121ac81613c11565b9150506120f6565b50604080518581526001600160401b03851660208201527f9066be8d402a022f5b4db8b98825f0604ef760ea5053e46d7654a84d5f27ba899101611656565b6001600160a01b03918216600090815260056020908152604080832093909416825291909152205460ff1690565b836001600160401b0316836001600160401b031611801561224b575042846001600160401b031610155b60405180604001604052806018815260200177455243353030373a20496e76616c696420656e6454696d6560401b8152509061229a5760405162461bcd60e51b81526004016105b591906134d8565b506122a9600780546001019055565b60006122b460075490565b6000818152600a6020526040812080546001600160a01b0319163317815560018082018a90556003820180546001600160401b038a8116600160501b02600160501b600160901b0319918d16620100000261ff01600160501b03199093169290921790931792831681178255949550919361ff00191661ff00600160501b03600160901b03199091161761010083021790555060068101805460ff19168515151790556040517f9ce3d6db707bca4ba0eabed8fba1e2c013a1c0bc1132a764170a7854d198c73d906123899084908690613d38565b60405180910390a161239d82600033612ccc565b6123b68260008051602061411c83398151915233612ccc565b6123e1827f21702c8af46127c7fa207f89d0b0a8441bb32959a0ac7df790e9ab1a25c9892633612ccc565b61240c827fb5a7f51d0593e853ad0aa6b718ee0bdd10c4966eb62d243b69d538e5823d040133612ccc565b612425826000805160206140dc83398151915233612ccc565b61242f3383612dd8565b61243982846125fe565b50505050505050565b6060600061244f60075490565b905060008060015b83811161249b576000818152600a60205260409020546001600160a01b031615612489578261248581613c11565b9350505b8061249381613c11565b915050612457565b506000826001600160401b038111156124b6576124b6613771565b6040519080825280602002602001820160405280156124df578160200160208202803683370190505b50905060015b848111610ce8576000818152600a60205260409020546001600160a01b031615612535578082848151811061251c5761251c613c2a565b60209081029190910101528261253181613c11565b9350505b8061253f81613c11565b9150506124e5565b826125528484610cf1565b61255c8282612913565b6111a5858585612ccc565b61257081612b7c565b61258c5760405162461bcd60e51b81526004016105b590613c9d565b50565b600081815260046020526040812080546001600160a01b0319166001600160a01b03851690811790915582906125c482611664565b6001600160a01b03167f8c5be1e5ebec7d5bd14f71427d1e84f3dd0314c0f7b2291e5b200ac8c7c3b92560405160405180910390a4505050565b600061260983612b7c565b61266c5760405162461bcd60e51b815260206004820152602e60248201527f45524337323155524953746f726167653a2055524920736574206f66206e6f6e60448201526d32bc34b9ba32b73a103a37b5b2b760911b60648201526084016105b5565b600083815260068201602052604090206117be8382613d9f565b60008061269283611664565b9050806001600160a01b0316846001600160a01b031614806126b957506126b981856121f3565b806109055750836001600160a01b03166126d284610518565b6001600160a01b031614949350505050565b6000836001600160a01b03166126f983611664565b6001600160a01b03161461275d5760405162461bcd60e51b815260206004820152602560248201527f4552433732313a207472616e736665722066726f6d20696e636f72726563742060448201526437bbb732b960d91b60648201526084016105b5565b6001600160a01b0383166127bf5760405162461bcd60e51b8152602060048201526024808201527f4552433732313a207472616e7366657220746f20746865207a65726f206164646044820152637265737360e01b60648201526084016105b5565b6127ca60008361258f565b6001600160a01b038416600090815260038201602052604081208054600192906127f5908490613ccf565b90915550506001600160a01b03831660009081526003820160205260408120805460019290612825908490613c40565b9091555050600082815260028201602052604080822080546001600160a01b0319166001600160a01b03878116918217909255915185939188169160008051602061413c83398151915291a46117be565b60008061288283612b7c565b61289e5760405162461bcd60e51b81526004016105b590613e5e565b6000928352600a016020525060409020600301546201000090046001600160401b031690565b6000806128d083612b7c565b6128ec5760405162461bcd60e51b81526004016105b590613e5e565b6000928352600a01602052506040902060030154600160501b90046001600160401b031690565b611aae828233612eff565b600061292b8484846108d6565b156117be576000848152601682016020908152604080832086845282528083206001600160a01b03861684528252808320805460ff19169055601884019091529020546129788582612f63565b6001600160a01b0383166000908152601883016020526040812055336001600160a01b0316836001600160a01b0316857f7b00293d63517946aeba2f56c6b4c5dec87b67393ac48520994d3d8ce776335a886040516129d991815260200190565b60405180910390a45050505050565b6000806129f483611664565b9050612a0160008461258f565b6001600160a01b03811660009081526003830160205260408120805460019290612a2c908490613ccf565b9091555050600083815260028301602052604080822080546001600160a01b0319169055518491906001600160a01b0384169060008051602061413c833981519152908390a4600083815260068301602052604090208054612a8d90613b73565b1590506106565760008381526006830160205260408120610656916133e1565b6000826001600160a01b0316846001600160a01b031603612b0c5760405162461bcd60e51b815260206004820152601960248201527822a9219b99189d1030b8383937bb32903a379031b0b63632b960391b60448201526064016105b5565b6001600160a01b038481166000818152600584016020908152604080832094881680845294825291829020805460ff191687151590811790915591519182527f17307eab39ab6107e8899845ad3d59bd9653f200f220920489ca2b5937696c31910160405180910390a350505050565b6000908152600260205260409020546001600160a01b0316151590565b612ba48484846126e4565b612bb08484848461304b565b6117be5760405162461bcd60e51b81526004016105b590613e90565b606081600003612bf35750506040805180820190915260018152600360fc1b602082015290565b8160005b8115612c1d5780612c0781613c11565b9150612c169050600a83613ef8565b9150612bf7565b6000816001600160401b03811115612c3757612c37613771565b6040519080825280601f01601f191660200182016040528015612c61576020820181803683370190505b5090505b841561090557612c76600183613ccf565b9150612c83600a86613f0c565b612c8e906030613c40565b60f81b818381518110612ca357612ca3613c2a565b60200101906001600160f81b031916908160001a905350612cc5600a86613ef8565b9450612c65565b6000612cd98484846108d6565b6117be576000848152601682016020908152604080832086845282528083206001600160a01b03868116808652918452828520805460ff19166001908117909155835180850185529283528285018981528a875260178801865293862080548083018255818852958720845160029097020180546001600160a01b03191696909316959095178255925190830155928790529054612d779190613ccf565b6001600160a01b0384166000908152601884016020526040902055336001600160a01b0316836001600160a01b0316857fd9dfff7752b7a810e2b646c0c96b76bc9ed817f6c6f7848bbe68163f7e8b4378886040516129d991815260200190565b60006001600160a01b038316612e305760405162461bcd60e51b815260206004820181905260248201527f4552433732313a206d696e7420746f20746865207a65726f206164647265737360448201526064016105b5565b612e3982612b7c565b15612e855760405162461bcd60e51b815260206004820152601c60248201527b115490cdcc8c4e881d1bdad95b88185b1c9958591e481b5a5b9d195960221b60448201526064016105b5565b6001600160a01b03831660009081526003820160205260408120805460019290612eb0908490613c40565b9091555050600082815260028201602052604080822080546001600160a01b0319166001600160a01b038716908117909155905184929060008051602061413c833981519152908290a4505050565b612f0a8383836108d6565b61065657612f178161314c565b612f2283602061315e565b612f2b856132f9565b604051602001612f3d93929190613f20565b60408051601f198184030181529082905262461bcd60e51b82526105b5916004016134d8565b60008281526017602052604081208054612f7f90600190613ccf565b81548110612f8f57612f8f613c2a565b90600052602060002090600202018160170160008581526020019081526020016000208381548110612fc357612fc3613c2a565b60009182526020808320845460029093020180546001600160a01b0319166001600160a01b039093169290921782556001938401549390910192909255848152601783019091526040902080548061301d5761301d613fc2565b60008281526020812060026000199093019283020180546001600160a01b0319168155600101559055505050565b60006001600160a01b0384163b1561314157604051630a85bd0160e11b81526001600160a01b0385169063150b7a029061308f903390899088908890600401613fd8565b6020604051808303816000875af19250505080156130ca575060408051601f3d908101601f191682019092526130c791810190614015565b60015b613127573d8080156130f8576040519150601f19603f3d011682016040523d82523d6000602084013e6130fd565b606091505b50805160000361311f5760405162461bcd60e51b81526004016105b590613e90565b805181602001fd5b6001600160e01b031916630a85bd0160e11b149050610905565b506001949350505050565b6060610d0f6001600160a01b03831660145b6060600061316d836002614032565b613178906002613c40565b6001600160401b0381111561318f5761318f613771565b6040519080825280601f01601f1916602001820160405280156131b9576020820181803683370190505b509050600360fc1b816000815181106131d4576131d4613c2a565b60200101906001600160f81b031916908160001a905350600f60fb1b8160018151811061320357613203613c2a565b60200101906001600160f81b031916908160001a9053506000613227846002614032565b613232906001613c40565b90505b60018111156132aa576f181899199a1a9b1b9c1cb0b131b232b360811b85600f166010811061326657613266613c2a565b1a60f81b82828151811061327c5761327c613c2a565b60200101906001600160f81b031916908160001a90535060049490941c936132a381614049565b9050613235565b50831561169b5760405162461bcd60e51b815260206004820181905260248201527f537472696e67733a20686578206c656e67746820696e73756666696369656e7460448201526064016105b5565b6060816000036133235750506040805180820190915260048152630307830360e41b602082015290565b8160005b8115613346578061333781613c11565b915050600882901c9150613327565b610905848261315e565b6040805161014081018252600080825260208201819052918101829052606081018290529060808201908152600060208201819052604082018190526060808301819052608083015260a09091015290565b508054600082556002029060005260206000209081019061258c919061341b565b508054600082559060005260206000209081019061258c9190613440565b5080546133ed90613b73565b6000825580601f106133fd575050565b601f01602090049060005260206000209081019061258c9190613440565b5b8082111561343c576000815560018101805460ff1916905560020161341c565b5090565b5b8082111561343c5760008155600101613441565b6001600160e01b03198116811461258c57600080fd5b60006020828403121561347d57600080fd5b813561169b81613455565b60005b838110156134a357818101518382015260200161348b565b50506000910152565b600081518084526134c4816020860160208601613488565b601f01601f19169290920160200192915050565b60208152600061169b60208301846134ac565b6000602082840312156134fd57600080fd5b5035919050565b6001600160a01b038116811461258c57600080fd5b6000806040838503121561352c57600080fd5b823561353781613504565b946020939093013593505050565b634e487b7160e01b600052602160045260246000fd5b6003811061357957634e487b7160e01b600052602160045260246000fd5b9052565b600081518084526020808501945080840160005b838110156135bb5781518051885283015160ff168388015260409096019590820190600101613591565b509495945050505050565b600081518084526020808501945080840160005b838110156135bb578151875295820195908201906001016135da565b80516001600160a01b0316825260006101406020830151602085015260408301516040850152606083015161362f606086018215159052565b506080830151613642608086018261355b565b5060a083015161365d60a08601826001600160401b03169052565b5060c083015161367860c08601826001600160401b03169052565b5060e08301518160e08601526136908286018261357d565b91505061010080840151858303828701526136ab83826135c6565b92505050610120808401516136c38287018215159052565b5090949350505050565b60208152600061169b60208301846135f6565b602080825282518282018190526000919060409081850190868401855b8281101561372b57815180516001600160a01b031685528601518685015292840192908501906001016136fd565b5091979650505050505050565b60008060006060848603121561374d57600080fd5b8335925060208401359150604084013561376681613504565b809150509250925092565b634e487b7160e01b600052604160045260246000fd5b60006001600160401b03808411156137a1576137a1613771565b604051601f8501601f19908116603f011681019082821181831017156137c9576137c9613771565b816040528093508581528686860111156137e257600080fd5b858560208301376000602087830101525050509392505050565b600082601f83011261380d57600080fd5b61169b83833560208501613787565b6000806040838503121561382f57600080fd5b8235915060208301356001600160401b0381111561384c57600080fd5b613858858286016137fc565b9150509250929050565b60008060006060848603121561387757600080fd5b833561388281613504565b9250602084013561389281613504565b929592945050506040919091013590565b6000602080830181845280855180835260408601915060408160051b870101925083870160005b828110156138f857603f198886030184526138e68583516135f6565b945092850192908501906001016138ca565b5092979650505050505050565b6000806040838503121561391857600080fd5b50508035926020909101359150565b60008060006060848603121561393c57600080fd5b83359250602084013561394e81613504565b9150604084013561376681613504565b60006020828403121561397057600080fd5b813561169b81613504565b8035801515811461398b57600080fd5b919050565b600080604083850312156139a357600080fd5b82356139ae81613504565b91506139bc6020840161397b565b90509250929050565b6020808252825182820181905260009190848201906040850190845b818110156139fd578351835292840192918401916001016139e1565b50909695505050505050565b60008060008060808587031215613a1f57600080fd5b8435613a2a81613504565b93506020850135613a3a81613504565b92506040850135915060608501356001600160401b03811115613a5c57600080fd5b8501601f81018713613a6d57600080fd5b613a7c87823560208401613787565b91505092959194509250565b80356001600160401b038116811461398b57600080fd5b60008060408385031215613ab257600080fd5b823591506139bc60208401613a88565b60008060408385031215613ad557600080fd5b8235613ae081613504565b91506020830135613af081613504565b809150509250929050565b600080600080600060a08688031215613b1357600080fd5b85359450613b2360208701613a88565b9350613b3160408701613a88565b9250613b3f6060870161397b565b915060808601356001600160401b03811115613b5a57600080fd5b613b66888289016137fc565b9150509295509295909350565b600181811c90821680613b8757607f821691505b602082108103613ba757634e487b7160e01b600052602260045260246000fd5b50919050565b6020808252602e908201527f4552433732313a2063616c6c6572206973206e6f7420746f6b656e206f776e6560408201526d1c881b9bdc88185c1c1c9bdd995960921b606082015260800190565b634e487b7160e01b600052601160045260246000fd5b600060018201613c2357613c23613bfb565b5060010190565b634e487b7160e01b600052603260045260246000fd5b80820180821115610d0f57610d0f613bfb565b60008251613c65818460208701613488565b9190910192915050565b60008060408385031215613c8257600080fd5b8251613c8d81613504565b6020939093015192949293505050565b602080825260189082015277115490cdcc8c4e881a5b9d985b1a59081d1bdad95b88125160421b604082015260600190565b81810381811115610d0f57610d0f613bfb565b60008351613cf4818460208801613488565b835190830190613d08818360208801613488565b01949350505050565b6001600160401b03818116838216019080821115613d3157613d31613bfb565b5092915050565b82815260406020820152600061090560408301846134ac565b601f82111561065657600081815260208120601f850160051c81016020861015613d785750805b601f850160051c820191505b81811015613d9757828155600101613d84565b505050505050565b81516001600160401b03811115613db857613db8613771565b613dcc81613dc68454613b73565b84613d51565b602080601f831160018114613e015760008415613de95750858301515b600019600386901b1c1916600185901b178555613d97565b600085815260208120601f198616915b82811015613e3057888601518255948401946001909101908401613e11565b5085821015613e4e5787850151600019600388901b60f8161c191681555b5050505050600190811b01905550565b602080825260189082015277115490cd4c0c0dce88125b9d985b1a59081d1bdad95b925960421b604082015260600190565b60208082526032908201527f4552433732313a207472616e7366657220746f206e6f6e20455243373231526560408201527131b2b4bb32b91034b6b83632b6b2b73a32b960711b606082015260800190565b634e487b7160e01b600052601260045260246000fd5b600082613f0757613f07613ee2565b500490565b600082613f1b57613f1b613ee2565b500690565b7402937b632a1b7b73a3937b61d1030b1b1b7bab73a1605d1b815260008451613f50816015850160208901613488565b7001034b99036b4b9b9b4b733903937b6329607d1b6015918401918201528451613f81816026840160208901613488565b720103337b91032bb32b73a103bb4ba341034b21606d1b602692909101918201528351613fb5816039840160208801613488565b0160390195945050505050565b634e487b7160e01b600052603160045260246000fd5b6001600160a01b038581168252841660208201526040810183905260806060820181905260009061400b908301846134ac565b9695505050505050565b60006020828403121561402757600080fd5b815161169b81613455565b8082028115828204841417610d0f57610d0f613bfb565b60008161405857614058613bfb565b50600019019056fe4576656e743a2043616c6c6572206973206e6f7420616e2061646d696e206f72206d6f64657261746f724576656e743a204f6e6c7920636173686965722063616e20776974686472617720636f6e74726163742062616c616e63654576656e743a204576656e7420646f6573206e6f742065786973740000000000ff3317e1e0e8c784290b957ee9b65ea8fe96420c4819db463283b95ecbe4a3fe4576656e743a2043616c6c6572206973206e6f7420616e2061646d696e00000071f3d55856e4058ed06ee057d79ada615f65cdf5f9ee88181b914225088f834fddf252ad1be2c89b69c2b068fc378daa952ba7f163c4a11628f55a4df523b3efa2646970667358221220fcdd61a570f6697cff359ede26a9a5f7af613b228dc4e57dba3615f36568dd1f64736f6c63430008110033",
  "linkReferences": {},
  "deployedLinkReferences": {}
}