{
  "_format": "hh-sol-artifact-1",
  "contractName": "EventTicketControllerFacet",
  "sourceName": "contracts/EventDiamond/facets/EventTicketControllerFacet.sol",
  "abi": [
    {
      "anonymous": false,
      "inputs": [
        {
          "indexed": true,
          "internalType": "uint256",
          "name": "fromTokenId",
          "type": "uint256"
        },
        {
          "indexed": false,
          "internalType": "uint256",
          "name": "toTokenId",
          "type": "uint256"
        },
        {
          "indexed": true,
          "internalType": "address",
          "name": "fromAddress",
          "type": "address"
        },
        {
          "indexed": true,
          "internalType": "address",
          "name": "toAddress",
          "type": "address"
        }
      ],
      "name": "ConsecutiveTransfer",
      "type": "event"
    },
    {
      "anonymous": false,
      "inputs": [
        {
          "indexed": false,
          "internalType": "uint256",
          "name": "eventId",
          "type": "uint256"
        },
        {
          "indexed": false,
          "internalType": "uint256",
          "name": "date",
          "type": "uint256"
        },
        {
          "indexed": false,
          "internalType": "uint8",
          "name": "percentage",
          "type": "uint8"
        }
      ],
      "name": "EventRefundDateAdded",
      "type": "event"
    },
    {
      "anonymous": false,
      "inputs": [
        {
          "indexed": false,
          "internalType": "uint256",
          "name": "eventId",
          "type": "uint256"
        }
      ],
      "name": "EventWithdraw",
      "type": "event"
    },
    {
      "anonymous": false,
      "inputs": [
        {
          "indexed": false,
          "internalType": "uint256",
          "name": "eventId",
          "type": "uint256"
        },
        {
          "indexed": false,
          "internalType": "address[]",
          "name": "accounts",
          "type": "address[]"
        },
        {
          "indexed": false,
          "internalType": "address",
          "name": "staffMember",
          "type": "address"
        }
      ],
      "name": "InvitationSent",
      "type": "event"
    },
    {
      "anonymous": false,
      "inputs": [
        {
          "indexed": false,
          "internalType": "uint256",
          "name": "ticketId",
          "type": "uint256"
        },
        {
          "indexed": false,
          "internalType": "address",
          "name": "account",
          "type": "address"
        }
      ],
      "name": "RefundWithdraw",
      "type": "event"
    },
    {
      "anonymous": false,
      "inputs": [
        {
          "indexed": false,
          "internalType": "uint256",
          "name": "ticketId",
          "type": "uint256"
        },
        {
          "indexed": false,
          "internalType": "address",
          "name": "account",
          "type": "address"
        }
      ],
      "name": "TicketBought",
      "type": "event"
    },
    {
      "anonymous": false,
      "inputs": [
        {
          "indexed": false,
          "internalType": "uint256",
          "name": "eventId",
          "type": "uint256"
        },
        {
          "indexed": false,
          "internalType": "uint256",
          "name": "ticketId",
          "type": "uint256"
        },
        {
          "indexed": false,
          "internalType": "address",
          "name": "staffMember",
          "type": "address"
        }
      ],
      "name": "TicketClipped",
      "type": "event"
    },
    {
      "anonymous": false,
      "inputs": [
        {
          "indexed": false,
          "internalType": "uint256",
          "name": "eventId",
          "type": "uint256"
        },
        {
          "indexed": false,
          "internalType": "uint256",
          "name": "categoryId",
          "type": "uint256"
        },
        {
          "indexed": false,
          "internalType": "uint256",
          "name": "ticketId",
          "type": "uint256"
        },
        {
          "indexed": false,
          "internalType": "address",
          "name": "account",
          "type": "address"
        }
      ],
      "name": "TicketRefunded",
      "type": "event"
    },
    {
      "anonymous": false,
      "inputs": [
        {
          "indexed": false,
          "internalType": "uint256",
          "name": "eventId",
          "type": "uint256"
        },
        {
          "indexed": false,
          "internalType": "uint256",
          "name": "ticketCount",
          "type": "uint256"
        },
        {
          "indexed": false,
          "internalType": "address",
          "name": "staffMember",
          "type": "address"
        }
      ],
      "name": "TicketsBooked",
      "type": "event"
    },
    {
      "inputs": [
        {
          "internalType": "uint256",
          "name": "_eventId",
          "type": "uint256"
        },
        {
          "components": [
            {
              "internalType": "uint256",
              "name": "date",
              "type": "uint256"
            },
            {
              "internalType": "uint8",
              "name": "percentage",
              "type": "uint8"
            }
          ],
          "internalType": "struct RefundData",
          "name": "_refundData",
          "type": "tuple"
        }
      ],
      "name": "addRefundDeadline",
      "outputs": [],
      "stateMutability": "nonpayable",
      "type": "function"
    },
    {
      "inputs": [
        {
          "internalType": "uint256",
          "name": "_eventId",
          "type": "uint256"
        },
        {
          "components": [
            {
              "internalType": "uint256",
              "name": "categoryId",
              "type": "uint256"
            },
            {
              "internalType": "uint256",
              "name": "ticketAmount",
              "type": "uint256"
            }
          ],
          "internalType": "struct CategoryTicketAmount[]",
          "name": "_categoryTicketAmount",
          "type": "tuple[]"
        },
        {
          "components": [
            {
              "internalType": "uint256",
              "name": "row",
              "type": "uint256"
            },
            {
              "internalType": "uint256",
              "name": "seat",
              "type": "uint256"
            },
            {
              "internalType": "address",
              "name": "account",
              "type": "address"
            }
          ],
          "internalType": "struct TicketPlaceAddress[]",
          "name": "_place",
          "type": "tuple[]"
        },
        {
          "internalType": "string[]",
          "name": "_ticketMetadataUris",
          "type": "string[]"
        }
      ],
      "name": "bookTickets",
      "outputs": [],
      "stateMutability": "nonpayable",
      "type": "function"
    },
    {
      "inputs": [
        {
          "internalType": "uint256",
          "name": "_eventId",
          "type": "uint256"
        },
        {
          "internalType": "uint256",
          "name": "_categoryId",
          "type": "uint256"
        },
        {
          "components": [
            {
              "internalType": "uint256",
              "name": "amount",
              "type": "uint256"
            },
            {
              "internalType": "uint256",
              "name": "price",
              "type": "uint256"
            }
          ],
          "internalType": "struct TicketPriceData[]",
          "name": "_priceData",
          "type": "tuple[]"
        },
        {
          "components": [
            {
              "internalType": "uint256",
              "name": "row",
              "type": "uint256"
            },
            {
              "internalType": "uint256",
              "name": "seat",
              "type": "uint256"
            }
          ],
          "internalType": "struct TicketPlace[]",
          "name": "_place",
          "type": "tuple[]"
        },
        {
          "internalType": "string[]",
          "name": "_ticketMetadataUris",
          "type": "string[]"
        }
      ],
      "name": "buyTickets",
      "outputs": [],
      "stateMutability": "payable",
      "type": "function"
    },
    {
      "inputs": [
        {
          "components": [
            {
              "internalType": "uint256",
              "name": "eventId",
              "type": "uint256"
            },
            {
              "internalType": "uint256",
              "name": "categoryId",
              "type": "uint256"
            }
          ],
          "internalType": "struct EventCategoryData[]",
          "name": "_eventCategoryData",
          "type": "tuple[]"
        },
        {
          "components": [
            {
              "internalType": "uint256",
              "name": "amount",
              "type": "uint256"
            },
            {
              "internalType": "uint256",
              "name": "price",
              "type": "uint256"
            }
          ],
          "internalType": "struct TicketPriceData[]",
          "name": "_priceData",
          "type": "tuple[]"
        },
        {
          "components": [
            {
              "internalType": "uint256",
              "name": "row",
              "type": "uint256"
            },
            {
              "internalType": "uint256",
              "name": "seat",
              "type": "uint256"
            }
          ],
          "internalType": "struct TicketPlace[]",
          "name": "_place",
          "type": "tuple[]"
        },
        {
          "internalType": "string[]",
          "name": "_ticketMetadataUris",
          "type": "string[]"
        }
      ],
      "name": "buyTickets",
      "outputs": [],
      "stateMutability": "payable",
      "type": "function"
    },
    {
      "inputs": [
        {
          "internalType": "uint256",
          "name": "_eventId",
          "type": "uint256"
        },
        {
          "internalType": "uint256",
          "name": "_ticketId",
          "type": "uint256"
        },
        {
          "internalType": "bytes",
          "name": "signature",
          "type": "bytes"
        }
      ],
      "name": "clipTicket",
      "outputs": [],
      "stateMutability": "nonpayable",
      "type": "function"
    },
    {
      "inputs": [
        {
          "internalType": "uint256",
          "name": "_eventId",
          "type": "uint256"
        }
      ],
      "name": "getAddressTicketIdsByEvent",
      "outputs": [
        {
          "internalType": "uint256[]",
          "name": "",
          "type": "uint256[]"
        }
      ],
      "stateMutability": "view",
      "type": "function"
    },
    {
      "inputs": [
        {
          "components": [
            {
              "internalType": "uint256",
              "name": "eventId",
              "type": "uint256"
            },
            {
              "internalType": "uint256",
              "name": "categoryId",
              "type": "uint256"
            },
            {
              "internalType": "uint256",
              "name": "ticketId",
              "type": "uint256"
            }
          ],
          "internalType": "struct ReturnTicketParams",
          "name": "_returnTicketParams",
          "type": "tuple"
        }
      ],
      "name": "returnTicket",
      "outputs": [],
      "stateMutability": "nonpayable",
      "type": "function"
    },
    {
      "inputs": [
        {
          "internalType": "uint256",
          "name": "_eventId",
          "type": "uint256"
        },
        {
          "internalType": "uint256[]",
          "name": "_ticketIds",
          "type": "uint256[]"
        },
        {
          "internalType": "address[]",
          "name": "_accounts",
          "type": "address[]"
        }
      ],
      "name": "sendInvitation",
      "outputs": [],
      "stateMutability": "nonpayable",
      "type": "function"
    },
    {
      "inputs": [
        {
          "internalType": "uint256",
          "name": "_eventId",
          "type": "uint256"
        },
        {
          "internalType": "uint256",
          "name": "_ticketId",
          "type": "uint256"
        },
        {
          "internalType": "address",
          "name": "_oldOwner",
          "type": "address"
        },
        {
          "internalType": "address",
          "name": "_newOwner",
          "type": "address"
        }
      ],
      "name": "updateTicketIdAfterTransfer",
      "outputs": [],
      "stateMutability": "nonpayable",
      "type": "function"
    },
    {
      "inputs": [
        {
          "internalType": "uint256",
          "name": "_eventId",
          "type": "uint256"
        }
      ],
      "name": "withdrawContractBalance",
      "outputs": [],
      "stateMutability": "nonpayable",
      "type": "function"
    }
  ],
  "bytecode": "0x608060405234801561001057600080fd5b5061499b806100206000396000f3fe6080604052600436106100815760003560e01c806328e13a9e146100865780632d3bf559146100a85780634f905e5d146100c85780637ce8b341146100db5780639cbea360146100fb578063ab6a8d6a1461011b578063b5742a211461013b578063b5abe85a1461015b578063e3bccc0f1461017b578063ef71b78a146101b1575b600080fd5b34801561009257600080fd5b506100a66100a1366004613c31565b6101c4565b005b3480156100b457600080fd5b506100a66100c3366004613dc4565b610827565b6100a66100d6366004613ea7565b610c22565b3480156100e757600080fd5b506100a66100f6366004613f42565b610fae565b34801561010757600080fd5b506100a6610116366004613fa0565b611171565b34801561012757600080fd5b506100a6610136366004613fea565b611280565b34801561014757600080fd5b506100a6610156366004614045565b611ac3565b34801561016757600080fd5b506100a661017636600461409e565b611e88565b34801561018757600080fd5b5061019b61019636600461409e565b6122c1565b6040516101a891906140b7565b60405180910390f35b6100a66101bf3660046140fb565b61238b565b600084815260026020908152604091829020548251808401909352601b835260008051602061475c833981519152918301919091528591906001600160a01b031661022b5760405162461bcd60e51b81526004016102229190614202565b60405180910390fd5b5061023885600033612785565b8061025757506102578560008051602061483983398151915233612785565b6040518060600160405280602a815260200161465c602a91399061028e5760405162461bcd60e51b81526004016102229190614202565b508351600014156040518060600160405280602581526020016148f960259139906102cc5760405162461bcd60e51b81526004016102229190614202565b5081518351146040518060400160405280601f81526020016000805160206147f9833981519152815250906103145760405162461bcd60e51b81526004016102229190614202565b5060008086815260096020526040902060030154610100900460ff16600281111561034157610341614215565b14604051806040016040528060158152602001600080516020614819833981519152815250906103845760405162461bcd60e51b81526004016102229190614202565b5060008060005b86518110156105a5576000600a0160008883815181106103ad576103ad61422b565b602002602001015160000151815260200190815260200160002060000154600014156040518060400160405280601e81526020016000805160206147a8833981519152815250906104115760405162461bcd60e51b81526004016102229190614202565b50876000600a01600089848151811061042c5761042c61422b565b6020026020010151600001518152602001908152602001600020600701541460405180606001604052806029815260200161468660299139906104825760405162461bcd60e51b81526004016102229190614202565b508681815181106104955761049561422b565b602002602001015160200151836104ac9190614257565b92506000600a0160008883815181106104c7576104c761422b565b602002602001015160000151815260200190815260200160002060040154836000600a0160008a85815181106104ff576104ff61422b565b60200260200101516000015181526020019081526020016000206002018054905061052a9190614257565b111560405180606001604052806023815260200161494360239139906105635760405162461bcd60e51b81526004016102229190614202565b506000925086818151811061057a5761057a61422b565b602002602001015160200151826105919190614257565b91508061059d8161426a565b91505061038b565b5060008060008060005b8a518110156107de5760005b8b82815181106105cd576105cd61422b565b6020026020010151602001518110156107cb5760008d8152600c602052604090208b51610617908d90899081106106065761060661422b565b6020026020010151600001516127b7565b61063d8d898151811061062c5761062c61422b565b6020026020010151602001516127b7565b60405160200161064e929190614283565b60408051601f1981840301815290829052610668916142b2565b90815260408051918290036020908101832054838301909252601583527422bb32b73a1d10283630b1b29034b9903a30b5b2b760591b9083015260ff16156106c35760405162461bcd60e51b81526004016102229190614202565b5060006001600160a01b03168b87815181106106e1576106e161422b565b6020026020010151604001516001600160a01b031614610724578a868151811061070d5761070d61422b565b60200260200101516040015193506001925061072c565b309350600092505b6107ac8d8d84815181106107425761074261422b565b602002602001015160000151878e8a815181106107615761076161422b565b6020026020010151600001518f8b8151811061077f5761077f61422b565b6020026020010151602001518f8c8151811061079d5761079d61422b565b6020026020010151898b6128bf565b6107b7600187614257565b9550806107c38161426a565b9150506105bb565b50806107d68161426a565b9150506105af565b507f0bf6beb306958fd2b5107d64b133ea297e354c91e8508878a9a4abb9206d82288b8633604051610812939291906142ce565b60405180910390a15050505050505050505050565b600083815260026020908152604091829020548251808401909352601b835260008051602061475c833981519152918301919091528491906001600160a01b03166108855760405162461bcd60e51b81526004016102229190614202565b5061089284600033612785565b806108b157506108b18460008051602061483983398151915233612785565b6040518060600160405280602a815260200161465c602a9139906108e85760405162461bcd60e51b81526004016102229190614202565b508251158015906108f95750815115155b6040518060600160405280602581526020016148f960259139906109305760405162461bcd60e51b81526004016102229190614202565b5081518351146040518060400160405280601f81526020016000805160206147f9833981519152815250906109785760405162461bcd60e51b81526004016102229190614202565b5060008085815260096020526040902060030154610100900460ff1660028111156109a5576109a5614215565b14604051806040016040528060158152602001600080516020614819833981519152815250906109e85760405162461bcd60e51b81526004016102229190614202565b5060005b8351811015610be057610a1985858381518110610a0b57610a0b61422b565b602002602001015130612af9565b60115483516001600160a01b03909116906323b872dd903090869085908110610a4457610a4461422b565b6020026020010151878581518110610a5e57610a5e61422b565b60209081029190910101516040516001600160e01b031960e086901b1681526001600160a01b0393841660048201529290911660248301526044820152606401600060405180830381600087803b158015610ab857600080fd5b505af1158015610acc573d6000803e3d6000fd5b505060115486516001600160a01b03909116925063dd4670649150869084908110610af957610af961422b565b60200260200101516040518263ffffffff1660e01b8152600401610b1f91815260200190565b600060405180830381600087803b158015610b3957600080fd5b505af1158015610b4d573d6000803e3d6000fd5b5050506000868152600f602052604081208551909250859084908110610b7557610b7561422b565b60200260200101516001600160a01b03166001600160a01b03168152602001908152602001600020848281518110610baf57610baf61422b565b6020908102919091018101518254600181018455600093845291909220015580610bd88161426a565b9150506109ec565b507fc47e064bd57c3620a43c1e4ac852f9185e9582f40bdd973a20f4c1bf520f38a5848333604051610c14939291906142ed565b60405180910390a150505050565b8251600014156040518060600160405280602581526020016148f96025913990610c5f5760405162461bcd60e51b81526004016102229190614202565b5080518251146040518060400160405280601f81526020016000805160206147f983398151915281525090610ca75760405162461bcd60e51b81526004016102229190614202565b5060008086815260096020526040902060030154610100900460ff166002811115610cd457610cd4614215565b1460405180604001604052806015815260200160008051602061481983398151915281525090610d175760405162461bcd60e51b81526004016102229190614202565b50610d228585612c5a565b60008060005b8551811015610dbd5760009150610d5987878381518110610d4b57610d4b61422b565b602002602001015184612ec6565b858181518110610d6b57610d6b61422b565b602002602001015160000151868281518110610d8957610d8961422b565b602002602001015160200151610d9f9190614359565b610da99084614257565b925080610db58161426a565b915050610d28565b503482146040518060600160405280602381526020016146396023913990610df85760405162461bcd60e51b81526004016102229190614202565b506000805b8651811015610fa35760005b878281518110610e1b57610e1b61422b565b602002602001015160000151811015610f905760008a8152600c602052604090208751610e54908990869081106106065761060661422b565b610e6989868151811061062c5761062c61422b565b604051602001610e7a929190614283565b60408051601f1981840301815290829052610e94916142b2565b90815260408051918290036020908101832054838301909252601583527422bb32b73a1d10283630b1b29034b9903a30b5b2b760591b9083015260ff1615610eef5760405162461bcd60e51b81526004016102229190614202565b50610f718a8a8a8581518110610f0757610f0761422b565b6020026020010151602001518a8781518110610f2557610f2561422b565b6020026020010151600001518b8881518110610f4357610f4361422b565b6020026020010151602001518b8981518110610f6157610f6161422b565b60200260200101516000336128bf565b610f7c600184614257565b925080610f888161426a565b915050610e09565b5080610f9b8161426a565b915050610dfd565b505050505050505050565b600082815260026020908152604091829020548251808401909352601b835260008051602061475c833981519152918301919091528391906001600160a01b031661100c5760405162461bcd60e51b81526004016102229190614202565b5060008084815260096020526040902060030154610100900460ff16600281111561103957611039614215565b146040518060400160405280601581526020016000805160206148198339815191528152509061107c5760405162461bcd60e51b81526004016102229190614202565b5061108983600033612785565b806110a857506110a88360008051602061483983398151915233612785565b6040518060600160405280602a815260200161465c602a9139906110df5760405162461bcd60e51b81526004016102229190614202565b506000838152600960209081526040808320600401805460018181018355918552938390208651600290950201848155928601519201805460ff841660ff19909116179055517f6acb6edf217693871c0a1b4dc7f139e64435ab88c84cdc94a85daf36cd06849c9261116492878352602083019190915260ff16604082015260600190565b60405180910390a1505050565b6011546001600160a01b031633146111d75760405162461bcd60e51b8152602060048201526024808201527f4576656e743a20596f752063616e206e6f742075736520746869732066756e636044820152633a34b7b760e11b6064820152608401610222565b6111e2848484612af9565b6000848152600f602090815260408083206001600160a01b03808616855290835281842080546001818101835591865284862001889055888552600e845282852091871685529252822080549192909161123d908490614370565b90915550506000848152600e602090815260408083206001600160a01b03851684529091528120805460019290611275908490614257565b909155505050505050565b8051600081815260026020908152604091829020548251808401909352601b835260008051602061475c833981519152918301919091526001600160a01b03166112dd5760405162461bcd60e51b81526004016102229190614202565b506020808301516000818152600a8352604090819020548151808301909252601e82526000805160206147a88339815191529382019390935290916113355760405162461bcd60e51b81526004016102229190614202565b5082600001518360200151816000600a016000838152602001908152602001600020600701541460405180606001604052806029815260200161468660299139906113935760405162461bcd60e51b81526004016102229190614202565b5084602001518560400151806000600d01600084815260200190815260200160002054146040518060600160405280602c815260200161477c602c9139906113ee5760405162461bcd60e51b81526004016102229190614202565b50865160009081526009602052604090206004015415158061143c575060018751600090815260096020526040902060030154610100900460ff16600281111561143a5761143a614215565b145b6040518060600160405280602281526020016148d760229139906114735760405162461bcd60e51b81526004016102229190614202565b5060008061148989600001518a604001516130ed565b91509150816040518060400160405280601a81526020017922bb32b73a1d102932b33ab732103230ba329034b99037bb32b960311b815250906114df5760405162461bcd60e51b81526004016102229190614202565b5060115460408a8101519051602481019190915260009182916001600160a01b039091169060440160408051601f198184030181529181526020820180516001600160e01b03166331a9108f60e11b1790525161153c91906142b2565b6000604051808303816000865af19150503d8060008114611579576040519150601f19603f3d011682016040523d82523d6000602084013e61157e565b606091505b5091509150336001600160a01b0316818060200190518101906115a19190614383565b6001600160a01b03161480156115b45750815b6040518060400160405280601d81526020016000805160206148b7833981519152815250906115f65760405162461bcd60e51b81526004016102229190614202565b505089516000908152600c6020526040808220601154828e01519251633ee1bcfd60e11b815260048101939093529293509161168f916001600160a01b0390911690637dc379fa90602401600060405180830381865afa15801561165e573d6000803e3d6000fd5b505050506040513d6000823e601f3d908101601f191682016040526116869190810190614401565b608001516127b7565b60115460408d8101519051633ee1bcfd60e11b81526004810191909152611711916001600160a01b031690637dc379fa90602401600060405180830381865afa1580156116e0573d6000803e3d6000fd5b505050506040513d6000823e601f3d908101601f191682016040526117089190810190614401565b60a001516127b7565b604051602001611722929190614283565b60408051601f198184030181529082905261173c916142b2565b90815260408051918290036020018220805493151560ff1990941693909317909255601154918b015160248201523360448201523060648201526000916001600160a01b03169060840160408051601f198184030181529181526020820180516001600160e01b031663025ba0e960e61b179052516117bb91906142b2565b6000604051808303816000865af19150503d80600081146117f8576040519150601f19603f3d011682016040523d82523d6000602084013e6117fd565b606091505b50509050806040518060400160405280601d81526020016000805160206148b7833981519152815250906118445760405162461bcd60e51b81526004016102229190614202565b506000805b6020808d01516000908152600a90915260409020600201548110156118c1578b604001516000600a0160008e602001518152602001908152602001600020600201828154811061189b5761189b61422b565b9060005260206000200154036118af578091505b806118b98161426a565b915050611849565b506020808c0180516000908152600a9092526040808320915183529091206002908101549101906118f490600190614370565b815481106119045761190461422b565b90600052602060002001546000600a0160008d602001518152602001908152602001600020600201828154811061193d5761193d61422b565b60009182526020808320909101929092558c8201518152600a9091526040902060020180548061196f5761196f6144b0565b6000828152602080822083016000199081018390559092019092558c518252600e8152604080832033845290915281208054600193509091906119b3908490614370565b9091555050895160408b01516119ca919033612af9565b8951600090815260096020526040812060020180548492906119ed908490614370565b9091555050604051600090339084908381818185875af1925050503d8060008114611a34576040519150601f19603f3d011682016040523d82523d6000602084013e611a39565b606091505b50509050806040518060600160405280602381526020016147396023913990611a755760405162461bcd60e51b81526004016102229190614202565b508a516020808d01516040808f01518151948552928401919091528201523360608201527f87ff245f55dca5f20f12247f39f781d5710eda96984e49512daad7b675e4147990608001610812565b600083815260026020908152604091829020548251808401909352601b835260008051602061475c833981519152918301919091528491906001600160a01b0316611b215760405162461bcd60e51b81526004016102229190614202565b5060008085815260096020526040902060030154610100900460ff166002811115611b4e57611b4e614215565b1460405180604001604052806015815260200160008051602061481983398151915281525090611b915760405162461bcd60e51b81526004016102229190614202565b50611b9e84600033612785565b80611bbd5750611bbd8460008051602061483983398151915233612785565b80611bee5750611bee847fb5a7f51d0593e853ad0aa6b718ee0bdd10c4966eb62d243b69d538e5823d040133612785565b60405180606001604052806038815260200161487f6038913990611c255760405162461bcd60e51b81526004016102229190614202565b5042611c3085613400565b6001600160401b031611158015611c58575042611c4c8561344e565b6001600160401b031610155b60405180606001604052806025815260200161491e6025913990611c8f5760405162461bcd60e51b81526004016102229190614202565b50611c9a838361349d565b604051806040016040528060188152602001774576656e743a20496e76616c6964207369676e617475726560401b81525090611ce95760405162461bcd60e51b81526004016102229190614202565b50601154604051600091600191606091849182916001600160a01b031690611d1b9030908b90889088906024016144c6565b60408051601f198184030181529181526020820180516001600160e01b0316631e27140560e01b17905251611d5091906142b2565b6000604051808303816000865af19150503d8060008114611d8d576040519150601f19603f3d011682016040523d82523d6000602084013e611d92565b606091505b5091509150816040518060400160405280601d81526020016000805160206148b783398151915281525090611dda5760405162461bcd60e51b81526004016102229190614202565b5080806020019051810190611def91906144fd565b9450846040518060400160405280601881526020017722bb32b73a1d1021b634b8103a34b1b5b2ba1032b93937b960411b81525090611e415760405162461bcd60e51b81526004016102229190614202565b507f73b94823b249d530a2b7223a82b4ae3a07a452eb37749ebe162f8bba7fb01f55898933604051611e75939291906142ce565b60405180910390a1505050505050505050565b600081815260026020908152604091829020548251808401909352601b835260008051602061475c833981519152918301919091528291906001600160a01b0316611ee65760405162461bcd60e51b81526004016102229190614202565b50611f12827fff3317e1e0e8c784290b957ee9b65ea8fe96420c4819db463283b95ecbe4a3fe33612785565b6040518060600160405280603181526020016146df6031913990611f495760405162461bcd60e51b81526004016102229190614202565b5060008281526009602052604090206003015442600160501b9091046001600160401b0316108015611f8b575060008281526009602052604090206002015415155b15612042576000828152600960205260408082206002015490513391908381818185875af1925050503d8060008114611fe0576040519150601f19603f3d011682016040523d82523d6000602084013e611fe5565b606091505b50509050806040518060400160405280601b81526020017a22bb32b73a1d102330b4b632b2103a379039b2b7321022ba3432b960291b8152509061203c5760405162461bcd60e51b81526004016102229190614202565b50505050565b6002600083815260096020526040902060030154610100900460ff16600281111561206f5761206f614215565b1415604051806040016040528060158152602001600080516020614819833981519152815250906120b35760405162461bcd60e51b81526004016102229190614202565b506000828152600960205260408120600401548190819081036120e95760008581526009602052604090206002015492506121dc565b60005b6000868152600960205260409020600401548110156121da5760008681526009602052604090206004018054829081106121285761212861422b565b90600052602060002090600202016000015442116121c85760008681526009602052604090206004018054829081106121635761216361422b565b600091825260208083206002928302016001015489845260099091526040909220015460ff90911693506121a19061219c856064614359565b61363f565b6000878152600960205260409020600201549092506121c1908390614370565b93506121da565b806121d28161426a565b9150506120ec565b505b600085815260096020526040812060020180548592906121fd908490614370565b9091555050604051600090339085908381818185875af1925050503d8060008114612244576040519150601f19603f3d011682016040523d82523d6000602084013e612249565b606091505b505090508060405180606001604052806029815260200161471060299139906122855760405162461bcd60e51b81526004016102229190614202565b506040518681527feea9f2e0c73d19e23063194ae9ba8512a252b6c0bd44e31315f611c5efaa8f0b9060200160405180910390a1505050505050565b600081815260026020908152604091829020548251808401909352601b835260008051602061475c8339815191529183019190915260609183916001600160a01b03166123215760405162461bcd60e51b81526004016102229190614202565b506000838152600f602090815260408083203384528252918290208054835181840281018401909452808452909183018282801561237e57602002820191906000526020600020905b81548152602001906001019080831161236a575b5050505050915050919050565b82518451146040518060400160405280601f81526020016000805160206147f9833981519152815250906123d25760405162461bcd60e51b81526004016102229190614202565b5080518251146040518060400160405280601f81526020016000805160206147f98339815191528152509061241a5760405162461bcd60e51b81526004016102229190614202565b5060008060005b85518110156125095761246e87828151811061243f5761243f61422b565b60200260200101516000015188838151811061245d5761245d61422b565b602002602001015160200151612c5a565b600091506124a58782815181106124875761248761422b565b602002602001015160200151878381518110610d4b57610d4b61422b565b8581815181106124b7576124b761422b565b6020026020010151600001518682815181106124d5576124d561422b565b6020026020010151602001516124eb9190614359565b6124f59084614257565b9250806125018161426a565b915050612421565b5034821460405180606001604052806023815260200161463960239139906125445760405162461bcd60e51b81526004016102229190614202565b506000805b875181101561277b5760005b8782815181106125675761256761422b565b6020026020010151600001518110156127685760008060090160008b85815181106125945761259461422b565b602002602001015160000151815260200190815260200160002060030160019054906101000a900460ff1660028111156125d0576125d0614215565b14604051806040016040528060158152602001600080516020614819833981519152815250906126135760405162461bcd60e51b81526004016102229190614202565b506000600c0160008a848151811061262d5761262d61422b565b602002602001015160000151815260200190815260200160002061265c8885815181106106065761060661422b565b61267189868151811061062c5761062c61422b565b604051602001612682929190614283565b60408051601f198184030181529082905261269c916142b2565b90815260408051918290036020908101832054838301909252601583527422bb32b73a1d10283630b1b29034b9903a30b5b2b760591b9083015260ff16156126f75760405162461bcd60e51b81526004016102229190614202565b5061274989838151811061270d5761270d61422b565b6020026020010151600001518a848151811061272b5761272b61422b565b6020026020010151602001518a8581518110610f0757610f0761422b565b612754600184614257565b9250806127608161426a565b915050612555565b50806127738161426a565b915050612549565b5050505050505050565b60009283526012602090815260408085209385529281528284206001600160a01b039290921684525290205460ff1690565b6060816000036127de5750506040805180820190915260018152600360fc1b602082015290565b8160005b811561280857806127f28161426a565b91506128019050600a83614535565b91506127e2565b6000816001600160401b03811115612822576128226139ce565b6040519080825280601f01601f19166020018201604052801561284c576020820181803683370190505b5090505b84156128b757612861600183614370565b915061286e600a86614549565b612879906030614257565b60f81b81838151811061288e5761288e61422b565b60200101906001600160f81b031916908160001a9053506128b0600a86614535565b9450612850565b949350505050565b600088815260096020526040812060020180548892906128e0908490614257565b90915550506000878152600a602052604081206008018054889290612906908490614257565b909155505060008881526009602052604080822060030154601154915163290be4dd60e01b8152620100009091046001600160401b031692916001600160a01b03169063290be4dd9061296d908d908d908d908d908d908d908d908d908d9060040161455d565b6020604051808303816000875af115801561298c573d6000803e3d6000fd5b505050506040513d601f19601f820116820180604052508101906129b091906145c4565b60008a8152600a6020908152604082206002018054600181018255908352908220018290559091506129e1886127b7565b6129ea886127b7565b6040516020016129fb929190614283565b60408051601f1981840301815282825260008e8152600c60205291909120909250600191612a2a9084906142b2565b9081526040805160209281900383019020805460ff19169315159390931790925560008c8152600d82528281208590558d8152600e82528281206001600160a01b0388168252909152908120805460019290612a87908490614257565b909155505060008b8152600f602090815260408083206001600160a01b0388168085529083528184208054600181018255908552938390209093018590558051858152918201929092527f6606e4c8a88792ed4fd5159f9be235ca78e87fc1cbdc6158ea92d3ed3be9bf729101610812565b6000805b6000858152600f602090815260408083206001600160a01b0387168452909152902054811015612b84576000858152600f602090815260408083206001600160a01b03871684529091529020805485919083908110612b5e57612b5e61422b565b906000526020600020015403612b72578091505b80612b7c8161426a565b915050612afd565b506000848152600f602090815260408083206001600160a01b038616845290915290208054612bb590600190614370565b81548110612bc557612bc561422b565b6000918252602080832090910154868352600f825260408084206001600160a01b03871685529092529120805483908110612c0257612c0261422b565b6000918252602080832090910192909255858152600f825260408082206001600160a01b038616835290925220805480612c3e57612c3e6144b0565b6001900381819060005260206000200160009055905550505050565b612c63826136b4565b6040518060400160405280601b815260200160008051602061475c83398151915281525090612ca55760405162461bcd60e51b81526004016102229190614202565b506000818152600a6020908152604091829020548251808401909352601e83526000805160206147a883398151915291830191909152612cf85760405162461bcd60e51b81526004016102229190614202565b50816000600a01600083815260200190815260200160002060070154146040518060600160405280602981526020016146866029913990612d4c5760405162461bcd60e51b81526004016102229190614202565b5060008281526009602090815260409182902060030154825160608101909352603180845260ff909116151560011492916147c89083013990612da25760405162461bcd60e51b81526004016102229190614202565b506000818152600a6020908152604091829020600d0154825160608101909352603080845260ff909116151560011492916146af9083013990612df85760405162461bcd60e51b81526004016102229190614202565b506000818152600a60205260409020600501544210801590612e2b57506000818152600a60205260409020600601544211155b6040518060600160405280602981526020016146106029913990612e625760405162461bcd60e51b81526004016102229190614202565b50600082815260096020908152604080832060010154600e835281842033855283529281902054815160608101909252602680835293119290916148599083013990612ec15760405162461bcd60e51b81526004016102229190614202565b505050565b8151612ed29082614257565b6000848152600a60205260409020600481015460029091015491925090612efa908390614257565b11156040518060600160405280602381526020016149436023913990612f335760405162461bcd60e51b81526004016102229190614202565b506000838152600a6020526040902060090154156130855760005b6000848152600a602052604090206009015481101561203c5782516000858152600a60205260409020600901805483908110612f8c57612f8c61422b565b906000526020600020015403613073576000848152600a60208190526040822001805483908110612fbf57612fbf61422b565b90600052602060002001546064612fd69190614359565b6000868152600a602052604081206003015491925090612ff6908361363f565b6020808701516000898152600a9092526040909120600301549192509061301e908390614370565b14604051806040016040528060198152602001784576656e743a2057726f6e67207469636b657420707269636560381b8152509061306f5760405162461bcd60e51b81526004016102229190614202565b5050505b8061307d8161426a565b915050612f4e565b6020808301516000858152600a835260409081902060030154815180830190925260198252784576656e743a2057726f6e67207469636b657420707269636560381b93820193909352911461203c5760405162461bcd60e51b81526004016102229190614202565b601154604051633ee1bcfd60e11b815260048101839052600091829182918291829182916001600160a01b0390911690637dc379fa90602401600060405180830381865afa158015613143573d6000803e3d6000fd5b505050506040513d6000823e601f3d908101601f1916820160405261316b9190810190614401565b60008981526009602052604090206003015481519192506201000090046001600160401b039081169116146131ad57606001516001955093506133f992505050565b60005b6000898152600960205260409020600401548110156132e55760008981526009602052604090206004018054829081106131ec576131ec61422b565b90600052602060002090600202016000015442116132d357821515600003613253576000898152600960205260409020600401805460019450829081106132355761323561422b565b600091825260209091206001600290920201015460ff1693506132d3565b60008981526009602052604090206004018054859190839081106132795761327961422b565b600091825260209091206001600290920201015460ff1611156132d35760008981526009602052604090206004018054829081106132b9576132b961422b565b600091825260209091206001600290920201015460ff1693505b806132dd8161426a565b9150506131b0565b508115156001036133f157601154604051602481018990526044810185905260009182916001600160a01b039091169060640160408051601f198184030181529181526020820180516001600160e01b03166375c8c9bd60e11b1790525161334d91906142b2565b6000604051808303816000865af19150503d806000811461338a576040519150601f19603f3d011682016040523d82523d6000602084013e61338f565b606091505b5091509150816040518060400160405280601d81526020016000805160206148b7833981519152815250906133d75760405162461bcd60e51b81526004016102229190614202565b50808060200190518101906133ec91906145c4565b955050505b509350909150505b9250929050565b60008061340c836136b4565b6134285760405162461bcd60e51b8152600401610222906145dd565b60009283526009016020525060409020600301546201000090046001600160401b031690565b60008061345a836136b4565b6134765760405162461bcd60e51b8152600401610222906145dd565b6000928352600901602052506040902060030154600160501b90046001600160401b031690565b600080836040516020016134b391815260200190565b60405160208183030381529060405280519060200120905060008160405160200161350991907b0ca2ba3432b932bab69029b4b3b732b21026b2b9b9b0b3b29d05199960211b8152601c810191909152603c0190565b60408051808303601f190181529082905280516020909101206011546024830188905290925060009182916001600160a01b03169060440160408051601f198184030181529181526020820180516001600160e01b03166331a9108f60e11b1790525161357691906142b2565b6000604051808303816000865af19150503d80600081146135b3576040519150601f19603f3d011682016040523d82523d6000602084013e6135b8565b606091505b5091509150816040518060400160405280601d81526020016000805160206148b7833981519152815250906136005760405162461bcd60e51b81526004016102229190614202565b50808060200190518101906136159190614383565b6001600160a01b031661362884886136d1565b6001600160a01b0316149450505050505b92915050565b600061271061364e8385614359565b10156136965760405162461bcd60e51b8152602060048201526017602482015276050657263656e746167653a20526f756e647320746f203604c1b6044820152606401610222565b6127106136a38385614359565b6136ad9190614535565b9392505050565b6000908152600260205260409020546001600160a01b0316151590565b60008060006136e085856136f5565b915091506136ed81613737565b509392505050565b600080825160410361372b5760208301516040840151606085015160001a61371f878285856138eb565b945094505050506133f9565b506000905060026133f9565b600081600481111561374b5761374b614215565b036137535750565b600181600481111561376757613767614215565b036137af5760405162461bcd60e51b815260206004820152601860248201527745434453413a20696e76616c6964207369676e617475726560401b6044820152606401610222565b60028160048111156137c3576137c3614215565b036138105760405162461bcd60e51b815260206004820152601f60248201527f45434453413a20696e76616c6964207369676e6174757265206c656e677468006044820152606401610222565b600381600481111561382457613824614215565b0361387c5760405162461bcd60e51b815260206004820152602260248201527f45434453413a20696e76616c6964207369676e6174757265202773272076616c604482015261756560f01b6064820152608401610222565b600481600481111561389057613890614215565b036138e85760405162461bcd60e51b815260206004820152602260248201527f45434453413a20696e76616c6964207369676e6174757265202776272076616c604482015261756560f01b6064820152608401610222565b50565b6000806fa2a8918ca85bafe22016d0b997e4df60600160ff1b0383111561391857506000905060036139c5565b8460ff16601b1415801561393057508460ff16601c14155b1561394157506000905060046139c5565b6040805160008082526020820180845289905260ff881692820192909252606081018690526080810185905260019060a0016020604051602081039080840390855afa158015613995573d6000803e3d6000fd5b5050604051601f1901519150506001600160a01b0381166139be576000600192509250506139c5565b9150600090505b94509492505050565b634e487b7160e01b600052604160045260246000fd5b604080519081016001600160401b0381118282101715613a0657613a066139ce565b60405290565b604051606081016001600160401b0381118282101715613a0657613a066139ce565b60405160e081016001600160401b0381118282101715613a0657613a066139ce565b604051601f8201601f191681016001600160401b0381118282101715613a7857613a786139ce565b604052919050565b60006001600160401b03821115613a9957613a996139ce565b5060051b60200190565b6000613ab6613ab184613a80565b613a50565b8381529050602080820190600685901b840186811115613ad557600080fd5b845b81811015613b125760408189031215613af05760008081fd5b613af86139e4565b813581528382013584820152845292820192604001613ad7565b505050509392505050565b6001600160a01b03811681146138e857600080fd5b60006001600160401b03821115613b4b57613b4b6139ce565b50601f01601f191660200190565b6000613b67613ab184613b32565b9050828152838383011115613b7b57600080fd5b828260208301376000602084830101529392505050565b600082601f830112613ba357600080fd5b81356020613bb3613ab183613a80565b82815260059290921b84018101918181019086841115613bd257600080fd5b8286015b84811015613c265780356001600160401b03811115613bf55760008081fd5b8701603f81018913613c075760008081fd5b613c18898683013560408401613b59565b845250918301918301613bd6565b509695505050505050565b60008060008060808587031215613c4757600080fd5b843593506020808601356001600160401b0380821115613c6657600080fd5b818801915088601f830112613c7a57600080fd5b613c88898335858501613aa3565b9550604091508188013581811115613c9f57600080fd5b8801601f81018a13613cb057600080fd5b8035613cbe613ab182613a80565b8181526060918202830186019186820191908d841115613cdd57600080fd5b938701935b83851015613d2e5780858f031215613cfa5760008081fd5b613d02613a0c565b85358152888601358982015287860135613d1b81613b1d565b8189015283529384019391870191613ce2565b9098508b0135955050505080831115613d4657600080fd5b5050613d5487828801613b92565b91505092959194509250565b600082601f830112613d7157600080fd5b81356020613d81613ab183613a80565b82815260059290921b84018101918181019086841115613da057600080fd5b8286015b84811015613c26578035613db781613b1d565b8352918301918301613da4565b600080600060608486031215613dd957600080fd5b833592506020808501356001600160401b0380821115613df857600080fd5b818701915087601f830112613e0c57600080fd5b8135613e1a613ab182613a80565b81815260059190911b8301840190848101908a831115613e3957600080fd5b938501935b82851015613e5757843582529385019390850190613e3e565b965050506040870135925080831115613e6f57600080fd5b5050613e7d86828701613d60565b9150509250925092565b600082601f830112613e9857600080fd5b6136ad83833560208501613aa3565b600080600080600060a08688031215613ebf57600080fd5b853594506020860135935060408601356001600160401b0380821115613ee457600080fd5b613ef089838a01613e87565b94506060880135915080821115613f0657600080fd5b613f1289838a01613e87565b93506080880135915080821115613f2857600080fd5b50613f3588828901613b92565b9150509295509295909350565b6000808284036060811215613f5657600080fd5b833592506040601f1982011215613f6c57600080fd5b50613f756139e4565b60208401358152604084013560ff81168114613f9057600080fd5b6020820152919491935090915050565b60008060008060808587031215613fb657600080fd5b84359350602085013592506040850135613fcf81613b1d565b91506060850135613fdf81613b1d565b939692955090935050565b600060608284031215613ffc57600080fd5b604051606081016001600160401b038111828210171561401e5761401e6139ce565b80604052508235815260208301356020820152604083013560408201528091505092915050565b60008060006060848603121561405a57600080fd5b833592506020840135915060408401356001600160401b0381111561407e57600080fd5b8401601f8101861361408f57600080fd5b613e7d86823560208401613b59565b6000602082840312156140b057600080fd5b5035919050565b6020808252825182820181905260009190848201906040850190845b818110156140ef578351835292840192918401916001016140d3565b50909695505050505050565b6000806000806080858703121561411157600080fd5b84356001600160401b038082111561412857600080fd5b818701915087601f83011261413c57600080fd5b61414b88833560208501613aa3565b9550602087013591508082111561416157600080fd5b61416d88838901613e87565b9450604087013591508082111561418357600080fd5b61418f88838901613e87565b935060608701359150808211156141a557600080fd5b50613d5487828801613b92565b60005b838110156141cd5781810151838201526020016141b5565b50506000910152565b600081518084526141ee8160208601602086016141b2565b601f01601f19169290920160200192915050565b6020815260006136ad60208301846141d6565b634e487b7160e01b600052602160045260246000fd5b634e487b7160e01b600052603260045260246000fd5b634e487b7160e01b600052601160045260246000fd5b8082018082111561363957613639614241565b60006001820161427c5761427c614241565b5060010190565b600083516142958184602088016141b2565b8351908301906142a98183602088016141b2565b01949350505050565b600082516142c48184602087016141b2565b9190910192915050565b92835260208301919091526001600160a01b0316604082015260600190565b6000606082018583526020606081850152818651808452608086019150828801935060005b818110156143375784516001600160a01b031683529383019391830191600101614312565b50506001600160a01b0395909516604094909401939093525091949350505050565b808202811582820484141761363957613639614241565b8181038181111561363957613639614241565b60006020828403121561439557600080fd5b81516136ad81613b1d565b80516001600160401b03811681146143b757600080fd5b919050565b600082601f8301126143cd57600080fd5b81516143db613ab182613b32565b8181528460208386010111156143f057600080fd5b6128b78260208301602087016141b2565b60006020828403121561441357600080fd5b81516001600160401b038082111561442a57600080fd5b9083019060e0828603121561443e57600080fd5b614446613a2e565b61444f836143a0565b81526020830151602082015260408301516040820152606083015160608201526080830151608082015260a083015160a082015260c08301518281111561449557600080fd5b6144a1878286016143bc565b60c08301525095945050505050565b634e487b7160e01b600052603160045260246000fd5b60018060a01b03851681528360208201528260408201526080606082015260006144f360808301846141d6565b9695505050505050565b60006020828403121561450f57600080fd5b815180151581146136ad57600080fd5b634e487b7160e01b600052601260045260246000fd5b6000826145445761454461451f565b500490565b6000826145585761455861451f565b500690565b60006101208b83528a60208401528960408401528860608401528760808401528060a084015261458f818401886141d6565b95151560c084015250506001600160a01b039290921660e08301526001600160401b0316610100909101529695505050505050565b6000602082840312156145d657600080fd5b5051919050565b602080825260189082015277115490cd4c0c0dce88125b9d985b1a59081d1bdad95b925960421b60408201526060019056fe4576656e743a2043616e277420627579207469636b65747320666f722063617465676f7279207965744576656e743a204d73672076616c7565206e6f7420657120746f74616c2070726963654576656e743a2043616c6c6572206973206e6f7420616e2061646d696e206f72206d6f64657261746f724576656e743a20546869732063617465676f727920697320666f7220616e6f74686572206576656e744576656e743a205469636b65747320666f7220746869732063617465676f727920617265206e6f742062757961626c654576656e743a204f6e6c7920636173686965722063616e20776974686472617720636f6e74726163742062616c616e63654576656e743a20436f6e74726163742062616c616e63652077697468647261772072657665727465644576656e743a2041636320726566756e642077697468647261772072657665727465644576656e743a204576656e7420646f6573206e6f7420657869737400000000004576656e743a205469636b657420646f65736e277420657869737420696e20746869732063617465676f72794576656e743a2043617465676f727920646f6573206e6f7420657869737400004576656e743a205469636b65747320666f7220616c6c2063617465676f7269657320617265206e6f742062757961626c654576656e743a20506172616d6574657273206c656e677468206e6f74206571004576656e743a204576656e742063616e63656c6564000000000000000000000071f3d55856e4058ed06ee057d79ada615f65cdf5f9ee88181b914225088f834f4576656e743a204d6178207469636b65747320666f72206163636f756e7420726561636865644576656e743a2043616c6c6572206973206e6f7420616e2061646d696e2c206d6f64657261746f72206f7220726563657074696f6e6973744576656e743a20436f6e74726163742063616c6c2072657665727465640000004576656e743a2043616e277420726566756e6420666f722074686973206576656e744576656e743a20506172616d657465722061727261792063616e277420626520656d7074794576656e743a2057726f6e67206461746520666f72207469636b657420636c697070696e674576656e743a204d6178207469636b65747320636f756e742069732072656163686564a2646970667358221220441a536fdc3fe87bd717cff8bef7d5423519bf8f0f559a7f8573e96ca636266f64736f6c63430008110033",
  "linkReferences": {},
  "deployedLinkReferences": {}
}