{
  "_format": "hh-sol-artifact-1",
  "contractName": "EventTicketControllerFacet",
  "sourceName": "contracts/EventDiamond/facets/EventTicketControllerFacet.sol",
  "abi": [
    {
      "anonymous": false,
      "inputs": [
        {
          "indexed": true,
          "internalType": "uint256",
          "name": "fromTokenId",
          "type": "uint256"
        },
        {
          "indexed": false,
          "internalType": "uint256",
          "name": "toTokenId",
          "type": "uint256"
        },
        {
          "indexed": true,
          "internalType": "address",
          "name": "fromAddress",
          "type": "address"
        },
        {
          "indexed": true,
          "internalType": "address",
          "name": "toAddress",
          "type": "address"
        }
      ],
      "name": "ConsecutiveTransfer",
      "type": "event"
    },
    {
      "anonymous": false,
      "inputs": [
        {
          "indexed": false,
          "internalType": "uint256",
          "name": "eventId",
          "type": "uint256"
        },
        {
          "indexed": false,
          "internalType": "uint256",
          "name": "date",
          "type": "uint256"
        },
        {
          "indexed": false,
          "internalType": "uint8",
          "name": "percentage",
          "type": "uint8"
        }
      ],
      "name": "EventRefundDateAdded",
      "type": "event"
    },
    {
      "anonymous": false,
      "inputs": [
        {
          "indexed": false,
          "internalType": "uint256",
          "name": "eventId",
          "type": "uint256"
        }
      ],
      "name": "EventWithdraw",
      "type": "event"
    },
    {
      "anonymous": false,
      "inputs": [
        {
          "indexed": false,
          "internalType": "uint256",
          "name": "eventId",
          "type": "uint256"
        },
        {
          "indexed": false,
          "internalType": "address[]",
          "name": "accounts",
          "type": "address[]"
        },
        {
          "indexed": false,
          "internalType": "address",
          "name": "staffMember",
          "type": "address"
        }
      ],
      "name": "InvitationSent",
      "type": "event"
    },
    {
      "anonymous": false,
      "inputs": [
        {
          "indexed": false,
          "internalType": "uint256",
          "name": "ticketId",
          "type": "uint256"
        },
        {
          "indexed": false,
          "internalType": "address",
          "name": "account",
          "type": "address"
        }
      ],
      "name": "RefundWithdraw",
      "type": "event"
    },
    {
      "anonymous": false,
      "inputs": [
        {
          "indexed": false,
          "internalType": "uint256",
          "name": "ticketId",
          "type": "uint256"
        },
        {
          "indexed": false,
          "internalType": "address",
          "name": "account",
          "type": "address"
        }
      ],
      "name": "TicketBought",
      "type": "event"
    },
    {
      "anonymous": false,
      "inputs": [
        {
          "indexed": false,
          "internalType": "uint256",
          "name": "eventId",
          "type": "uint256"
        },
        {
          "indexed": false,
          "internalType": "uint256",
          "name": "ticketId",
          "type": "uint256"
        },
        {
          "indexed": false,
          "internalType": "address",
          "name": "staffMember",
          "type": "address"
        }
      ],
      "name": "TicketClipped",
      "type": "event"
    },
    {
      "anonymous": false,
      "inputs": [
        {
          "indexed": false,
          "internalType": "uint256",
          "name": "eventId",
          "type": "uint256"
        },
        {
          "indexed": false,
          "internalType": "uint256",
          "name": "categoryId",
          "type": "uint256"
        },
        {
          "indexed": false,
          "internalType": "uint256",
          "name": "ticketId",
          "type": "uint256"
        },
        {
          "indexed": false,
          "internalType": "address",
          "name": "account",
          "type": "address"
        }
      ],
      "name": "TicketRefunded",
      "type": "event"
    },
    {
      "anonymous": false,
      "inputs": [
        {
          "indexed": false,
          "internalType": "uint256",
          "name": "eventId",
          "type": "uint256"
        },
        {
          "indexed": false,
          "internalType": "uint256",
          "name": "ticketCount",
          "type": "uint256"
        },
        {
          "indexed": false,
          "internalType": "address",
          "name": "staffMember",
          "type": "address"
        }
      ],
      "name": "TicketsBooked",
      "type": "event"
    },
    {
      "inputs": [
        {
          "internalType": "uint256",
          "name": "_eventId",
          "type": "uint256"
        },
        {
          "components": [
            {
              "internalType": "uint256",
              "name": "date",
              "type": "uint256"
            },
            {
              "internalType": "uint8",
              "name": "percentage",
              "type": "uint8"
            }
          ],
          "internalType": "struct RefundData",
          "name": "_refundData",
          "type": "tuple"
        }
      ],
      "name": "addRefundDeadline",
      "outputs": [],
      "stateMutability": "nonpayable",
      "type": "function"
    },
    {
      "inputs": [
        {
          "internalType": "uint256",
          "name": "_eventId",
          "type": "uint256"
        },
        {
          "components": [
            {
              "internalType": "uint256",
              "name": "categoryId",
              "type": "uint256"
            },
            {
              "internalType": "uint256",
              "name": "ticketAmount",
              "type": "uint256"
            }
          ],
          "internalType": "struct CategoryTicketAmount[]",
          "name": "_categoryTicketAmount",
          "type": "tuple[]"
        },
        {
          "components": [
            {
              "internalType": "uint256",
              "name": "row",
              "type": "uint256"
            },
            {
              "internalType": "uint256",
              "name": "seat",
              "type": "uint256"
            },
            {
              "internalType": "address",
              "name": "account",
              "type": "address"
            }
          ],
          "internalType": "struct TicketPlaceAddress[]",
          "name": "_place",
          "type": "tuple[]"
        },
        {
          "internalType": "string[]",
          "name": "_ticketMetadataUris",
          "type": "string[]"
        }
      ],
      "name": "bookTickets",
      "outputs": [],
      "stateMutability": "nonpayable",
      "type": "function"
    },
    {
      "inputs": [
        {
          "internalType": "uint256",
          "name": "_eventId",
          "type": "uint256"
        },
        {
          "internalType": "uint256",
          "name": "_categoryId",
          "type": "uint256"
        },
        {
          "components": [
            {
              "internalType": "uint256",
              "name": "amount",
              "type": "uint256"
            },
            {
              "internalType": "uint256",
              "name": "price",
              "type": "uint256"
            }
          ],
          "internalType": "struct TicketPriceData[]",
          "name": "_priceData",
          "type": "tuple[]"
        },
        {
          "components": [
            {
              "internalType": "uint256",
              "name": "row",
              "type": "uint256"
            },
            {
              "internalType": "uint256",
              "name": "seat",
              "type": "uint256"
            }
          ],
          "internalType": "struct TicketPlace[]",
          "name": "_place",
          "type": "tuple[]"
        },
        {
          "internalType": "string[]",
          "name": "_ticketMetadataUris",
          "type": "string[]"
        }
      ],
      "name": "buyTickets",
      "outputs": [],
      "stateMutability": "payable",
      "type": "function"
    },
    {
      "inputs": [
        {
          "components": [
            {
              "internalType": "uint256",
              "name": "eventId",
              "type": "uint256"
            },
            {
              "internalType": "uint256",
              "name": "categoryId",
              "type": "uint256"
            }
          ],
          "internalType": "struct EventCategoryData[]",
          "name": "_eventCategoryData",
          "type": "tuple[]"
        },
        {
          "components": [
            {
              "internalType": "uint256",
              "name": "amount",
              "type": "uint256"
            },
            {
              "internalType": "uint256",
              "name": "price",
              "type": "uint256"
            }
          ],
          "internalType": "struct TicketPriceData[]",
          "name": "_priceData",
          "type": "tuple[]"
        },
        {
          "components": [
            {
              "internalType": "uint256",
              "name": "row",
              "type": "uint256"
            },
            {
              "internalType": "uint256",
              "name": "seat",
              "type": "uint256"
            }
          ],
          "internalType": "struct TicketPlace[]",
          "name": "_place",
          "type": "tuple[]"
        },
        {
          "internalType": "string[]",
          "name": "_ticketMetadataUris",
          "type": "string[]"
        }
      ],
      "name": "buyTickets",
      "outputs": [],
      "stateMutability": "payable",
      "type": "function"
    },
    {
      "inputs": [
        {
          "internalType": "uint256",
          "name": "_eventId",
          "type": "uint256"
        },
        {
          "internalType": "uint256",
          "name": "_ticketId",
          "type": "uint256"
        }
      ],
      "name": "clipTicket",
      "outputs": [],
      "stateMutability": "nonpayable",
      "type": "function"
    },
    {
      "inputs": [
        {
          "internalType": "uint256",
          "name": "_eventId",
          "type": "uint256"
        }
      ],
      "name": "getAddressTicketIdsByEvent",
      "outputs": [
        {
          "internalType": "uint256[]",
          "name": "",
          "type": "uint256[]"
        }
      ],
      "stateMutability": "view",
      "type": "function"
    },
    {
      "inputs": [
        {
          "components": [
            {
              "internalType": "uint256",
              "name": "eventId",
              "type": "uint256"
            },
            {
              "internalType": "uint256",
              "name": "categoryId",
              "type": "uint256"
            },
            {
              "internalType": "uint256",
              "name": "ticketId",
              "type": "uint256"
            }
          ],
          "internalType": "struct ReturnTicketParams",
          "name": "_returnTicketParams",
          "type": "tuple"
        }
      ],
      "name": "returnTicket",
      "outputs": [],
      "stateMutability": "nonpayable",
      "type": "function"
    },
    {
      "inputs": [
        {
          "internalType": "uint256",
          "name": "_eventId",
          "type": "uint256"
        },
        {
          "internalType": "uint256[]",
          "name": "_ticketIds",
          "type": "uint256[]"
        },
        {
          "internalType": "address[]",
          "name": "_accounts",
          "type": "address[]"
        }
      ],
      "name": "sendInvitation",
      "outputs": [],
      "stateMutability": "nonpayable",
      "type": "function"
    },
    {
      "inputs": [
        {
          "internalType": "uint256",
          "name": "_eventId",
          "type": "uint256"
        },
        {
          "internalType": "uint256",
          "name": "_ticketId",
          "type": "uint256"
        },
        {
          "internalType": "address",
          "name": "_oldOwner",
          "type": "address"
        },
        {
          "internalType": "address",
          "name": "_newOwner",
          "type": "address"
        }
      ],
      "name": "updateTicketIdAfterTransfer",
      "outputs": [],
      "stateMutability": "nonpayable",
      "type": "function"
    },
    {
      "inputs": [
        {
          "internalType": "uint256",
          "name": "_eventId",
          "type": "uint256"
        }
      ],
      "name": "withdrawContractBalance",
      "outputs": [],
      "stateMutability": "nonpayable",
      "type": "function"
    }
  ],
  "bytecode": "0x608060405234801561001057600080fd5b50614365806100206000396000f3fe6080604052600436106100815760003560e01c806328e13a9e146100865780632d3bf559146100a85780634f905e5d146100c85780637ce8b341146100db5780639cbea360146100fb578063ab6a8d6a1461011b578063b5abe85a1461013b578063d90e6dd71461015b578063e3bccc0f1461017b578063ef71b78a146101b1575b600080fd5b34801561009257600080fd5b506100a66100a136600461362b565b6101c4565b005b3480156100b457600080fd5b506100a66100c33660046137be565b610827565b6100a66100d63660046138a1565b610c22565b3480156100e757600080fd5b506100a66100f636600461393c565b610fae565b34801561010757600080fd5b506100a661011636600461399a565b611171565b34801561012757600080fd5b506100a66101363660046139e4565b61121a565b34801561014757600080fd5b506100a6610156366004613a3f565b611a5d565b34801561016757600080fd5b506100a6610176366004613a58565b611e96565b34801561018757600080fd5b5061019b610196366004613a3f565b612200565b6040516101a89190613a7a565b60405180910390f35b6100a66101bf366004613abe565b6122ca565b600084815260026020908152604091829020548251808401909352601b8352600080516020614126833981519152918301919091528591906001600160a01b031661022b5760405162461bcd60e51b81526004016102229190613bc5565b60405180910390fd5b50610238856000336126c4565b80610257575061025785600080516020614203833981519152336126c4565b6040518060600160405280602a8152602001614026602a91399061028e5760405162461bcd60e51b81526004016102229190613bc5565b508351600014156040518060600160405280602581526020016142c360259139906102cc5760405162461bcd60e51b81526004016102229190613bc5565b5081518351146040518060400160405280601f81526020016000805160206141c3833981519152815250906103145760405162461bcd60e51b81526004016102229190613bc5565b5060008086815260096020526040902060030154610100900460ff16600281111561034157610341613bd8565b146040518060400160405280601581526020016000805160206141e3833981519152815250906103845760405162461bcd60e51b81526004016102229190613bc5565b5060008060005b86518110156105a5576000600a0160008883815181106103ad576103ad613bee565b602002602001015160000151815260200190815260200160002060000154600014156040518060400160405280601e8152602001600080516020614172833981519152815250906104115760405162461bcd60e51b81526004016102229190613bc5565b50876000600a01600089848151811061042c5761042c613bee565b6020026020010151600001518152602001908152602001600020600701541460405180606001604052806029815260200161405060299139906104825760405162461bcd60e51b81526004016102229190613bc5565b5086818151811061049557610495613bee565b602002602001015160200151836104ac9190613c1a565b92506000600a0160008883815181106104c7576104c7613bee565b602002602001015160000151815260200190815260200160002060040154836000600a0160008a85815181106104ff576104ff613bee565b60200260200101516000015181526020019081526020016000206002018054905061052a9190613c1a565b111560405180606001604052806023815260200161430d60239139906105635760405162461bcd60e51b81526004016102229190613bc5565b506000925086818151811061057a5761057a613bee565b602002602001015160200151826105919190613c1a565b91508061059d81613c2d565b91505061038b565b5060008060008060005b8a518110156107de5760005b8b82815181106105cd576105cd613bee565b6020026020010151602001518110156107cb5760008d8152600c602052604090208b51610617908d908990811061060657610606613bee565b6020026020010151600001516126f6565b61063d8d898151811061062c5761062c613bee565b6020026020010151602001516126f6565b60405160200161064e929190613c46565b60408051601f198184030181529082905261066891613c75565b90815260408051918290036020908101832054838301909252601583527422bb32b73a1d10283630b1b29034b9903a30b5b2b760591b9083015260ff16156106c35760405162461bcd60e51b81526004016102229190613bc5565b5060006001600160a01b03168b87815181106106e1576106e1613bee565b6020026020010151604001516001600160a01b031614610724578a868151811061070d5761070d613bee565b60200260200101516040015193506001925061072c565b309350600092505b6107ac8d8d848151811061074257610742613bee565b602002602001015160000151878e8a8151811061076157610761613bee565b6020026020010151600001518f8b8151811061077f5761077f613bee565b6020026020010151602001518f8c8151811061079d5761079d613bee565b6020026020010151898b6127fe565b6107b7600187613c1a565b9550806107c381613c2d565b9150506105bb565b50806107d681613c2d565b9150506105af565b507f0bf6beb306958fd2b5107d64b133ea297e354c91e8508878a9a4abb9206d82288b863360405161081293929190613c91565b60405180910390a15050505050505050505050565b600083815260026020908152604091829020548251808401909352601b8352600080516020614126833981519152918301919091528491906001600160a01b03166108855760405162461bcd60e51b81526004016102229190613bc5565b50610892846000336126c4565b806108b157506108b184600080516020614203833981519152336126c4565b6040518060600160405280602a8152602001614026602a9139906108e85760405162461bcd60e51b81526004016102229190613bc5565b508251158015906108f95750815115155b6040518060600160405280602581526020016142c360259139906109305760405162461bcd60e51b81526004016102229190613bc5565b5081518351146040518060400160405280601f81526020016000805160206141c3833981519152815250906109785760405162461bcd60e51b81526004016102229190613bc5565b5060008085815260096020526040902060030154610100900460ff1660028111156109a5576109a5613bd8565b146040518060400160405280601581526020016000805160206141e3833981519152815250906109e85760405162461bcd60e51b81526004016102229190613bc5565b5060005b8351811015610be057610a1985858381518110610a0b57610a0b613bee565b602002602001015130612a38565b60115483516001600160a01b03909116906323b872dd903090869085908110610a4457610a44613bee565b6020026020010151878581518110610a5e57610a5e613bee565b60209081029190910101516040516001600160e01b031960e086901b1681526001600160a01b0393841660048201529290911660248301526044820152606401600060405180830381600087803b158015610ab857600080fd5b505af1158015610acc573d6000803e3d6000fd5b505060115486516001600160a01b03909116925063dd4670649150869084908110610af957610af9613bee565b60200260200101516040518263ffffffff1660e01b8152600401610b1f91815260200190565b600060405180830381600087803b158015610b3957600080fd5b505af1158015610b4d573d6000803e3d6000fd5b5050506000868152600f602052604081208551909250859084908110610b7557610b75613bee565b60200260200101516001600160a01b03166001600160a01b03168152602001908152602001600020848281518110610baf57610baf613bee565b6020908102919091018101518254600181018455600093845291909220015580610bd881613c2d565b9150506109ec565b507fc47e064bd57c3620a43c1e4ac852f9185e9582f40bdd973a20f4c1bf520f38a5848333604051610c1493929190613cb0565b60405180910390a150505050565b8251600014156040518060600160405280602581526020016142c36025913990610c5f5760405162461bcd60e51b81526004016102229190613bc5565b5080518251146040518060400160405280601f81526020016000805160206141c383398151915281525090610ca75760405162461bcd60e51b81526004016102229190613bc5565b5060008086815260096020526040902060030154610100900460ff166002811115610cd457610cd4613bd8565b146040518060400160405280601581526020016000805160206141e383398151915281525090610d175760405162461bcd60e51b81526004016102229190613bc5565b50610d228585612b99565b60008060005b8551811015610dbd5760009150610d5987878381518110610d4b57610d4b613bee565b602002602001015184612e05565b858181518110610d6b57610d6b613bee565b602002602001015160000151868281518110610d8957610d89613bee565b602002602001015160200151610d9f9190613d1c565b610da99084613c1a565b925080610db581613c2d565b915050610d28565b503482146040518060600160405280602381526020016140036023913990610df85760405162461bcd60e51b81526004016102229190613bc5565b506000805b8651811015610fa35760005b878281518110610e1b57610e1b613bee565b602002602001015160000151811015610f905760008a8152600c602052604090208751610e549089908690811061060657610606613bee565b610e6989868151811061062c5761062c613bee565b604051602001610e7a929190613c46565b60408051601f1981840301815290829052610e9491613c75565b90815260408051918290036020908101832054838301909252601583527422bb32b73a1d10283630b1b29034b9903a30b5b2b760591b9083015260ff1615610eef5760405162461bcd60e51b81526004016102229190613bc5565b50610f718a8a8a8581518110610f0757610f07613bee565b6020026020010151602001518a8781518110610f2557610f25613bee565b6020026020010151600001518b8881518110610f4357610f43613bee565b6020026020010151602001518b8981518110610f6157610f61613bee565b60200260200101516000336127fe565b610f7c600184613c1a565b925080610f8881613c2d565b915050610e09565b5080610f9b81613c2d565b915050610dfd565b505050505050505050565b600082815260026020908152604091829020548251808401909352601b8352600080516020614126833981519152918301919091528391906001600160a01b031661100c5760405162461bcd60e51b81526004016102229190613bc5565b5060008084815260096020526040902060030154610100900460ff16600281111561103957611039613bd8565b146040518060400160405280601581526020016000805160206141e38339815191528152509061107c5760405162461bcd60e51b81526004016102229190613bc5565b50611089836000336126c4565b806110a857506110a883600080516020614203833981519152336126c4565b6040518060600160405280602a8152602001614026602a9139906110df5760405162461bcd60e51b81526004016102229190613bc5565b506000838152600960209081526040808320600401805460018181018355918552938390208651600290950201848155928601519201805460ff841660ff19909116179055517f6acb6edf217693871c0a1b4dc7f139e64435ab88c84cdc94a85daf36cd06849c9261116492878352602083019190915260ff16604082015260600190565b60405180910390a1505050565b6011546001600160a01b031633146111d75760405162461bcd60e51b8152602060048201526024808201527f4576656e743a20596f752063616e206e6f742075736520746869732066756e636044820152633a34b7b760e11b6064820152608401610222565b6111e2848484612a38565b6000938452600f602090815260408086206001600160a01b039093168652918152908420805460018101825590855293209092015550565b8051600081815260026020908152604091829020548251808401909352601b8352600080516020614126833981519152918301919091526001600160a01b03166112775760405162461bcd60e51b81526004016102229190613bc5565b506020808301516000818152600a8352604090819020548151808301909252601e82526000805160206141728339815191529382019390935290916112cf5760405162461bcd60e51b81526004016102229190613bc5565b5082600001518360200151816000600a0160008381526020019081526020016000206007015414604051806060016040528060298152602001614050602991399061132d5760405162461bcd60e51b81526004016102229190613bc5565b5084602001518560400151806000600d01600084815260200190815260200160002054146040518060600160405280602c8152602001614146602c9139906113885760405162461bcd60e51b81526004016102229190613bc5565b5086516000908152600960205260409020600401541515806113d6575060018751600090815260096020526040902060030154610100900460ff1660028111156113d4576113d4613bd8565b145b6040518060600160405280602281526020016142a1602291399061140d5760405162461bcd60e51b81526004016102229190613bc5565b5060008061142389600001518a6040015161302c565b91509150816040518060400160405280601a81526020017922bb32b73a1d102932b33ab732103230ba329034b99037bb32b960311b815250906114795760405162461bcd60e51b81526004016102229190613bc5565b5060115460408a8101519051602481019190915260009182916001600160a01b039091169060440160408051601f198184030181529181526020820180516001600160e01b03166331a9108f60e11b179052516114d69190613c75565b6000604051808303816000865af19150503d8060008114611513576040519150601f19603f3d011682016040523d82523d6000602084013e611518565b606091505b5091509150336001600160a01b03168180602001905181019061153b9190613d33565b6001600160a01b031614801561154e5750815b6040518060400160405280601d8152602001600080516020614281833981519152815250906115905760405162461bcd60e51b81526004016102229190613bc5565b505089516000908152600c6020526040808220601154828e01519251633ee1bcfd60e11b8152600481019390935292935091611629916001600160a01b0390911690637dc379fa90602401600060405180830381865afa1580156115f8573d6000803e3d6000fd5b505050506040513d6000823e601f3d908101601f191682016040526116209190810190613db8565b608001516126f6565b60115460408d8101519051633ee1bcfd60e11b815260048101919091526116ab916001600160a01b031690637dc379fa90602401600060405180830381865afa15801561167a573d6000803e3d6000fd5b505050506040513d6000823e601f3d908101601f191682016040526116a29190810190613db8565b60a001516126f6565b6040516020016116bc929190613c46565b60408051601f19818403018152908290526116d691613c75565b90815260408051918290036020018220805493151560ff1990941693909317909255601154918b015160248201523360448201523060648201526000916001600160a01b03169060840160408051601f198184030181529181526020820180516001600160e01b031663025ba0e960e61b179052516117559190613c75565b6000604051808303816000865af19150503d8060008114611792576040519150601f19603f3d011682016040523d82523d6000602084013e611797565b606091505b50509050806040518060400160405280601d8152602001600080516020614281833981519152815250906117de5760405162461bcd60e51b81526004016102229190613bc5565b506000805b6020808d01516000908152600a909152604090206002015481101561185b578b604001516000600a0160008e602001518152602001908152602001600020600201828154811061183557611835613bee565b906000526020600020015403611849578091505b8061185381613c2d565b9150506117e3565b506020808c0180516000908152600a90925260408083209151835290912060029081015491019061188e90600190613e67565b8154811061189e5761189e613bee565b90600052602060002001546000600a0160008d60200151815260200190815260200160002060020182815481106118d7576118d7613bee565b60009182526020808320909101929092558c8201518152600a9091526040902060020180548061190957611909613e7a565b6000828152602080822083016000199081018390559092019092558c518252600e81526040808320338452909152812080546001935090919061194d908490613e67565b9091555050895160408b0151611964919033612a38565b895160009081526009602052604081206002018054849290611987908490613e67565b9091555050604051600090339084908381818185875af1925050503d80600081146119ce576040519150601f19603f3d011682016040523d82523d6000602084013e6119d3565b606091505b50509050806040518060600160405280602381526020016141036023913990611a0f5760405162461bcd60e51b81526004016102229190613bc5565b508a516020808d01516040808f01518151948552928401919091528201523360608201527f87ff245f55dca5f20f12247f39f781d5710eda96984e49512daad7b675e4147990608001610812565b600081815260026020908152604091829020548251808401909352601b8352600080516020614126833981519152918301919091528291906001600160a01b0316611abb5760405162461bcd60e51b81526004016102229190613bc5565b50611ae7827fff3317e1e0e8c784290b957ee9b65ea8fe96420c4819db463283b95ecbe4a3fe336126c4565b6040518060600160405280603181526020016140a96031913990611b1e5760405162461bcd60e51b81526004016102229190613bc5565b5060008281526009602052604090206003015442600160501b9091046001600160401b0316108015611b60575060008281526009602052604090206002015415155b15611c17576000828152600960205260408082206002015490513391908381818185875af1925050503d8060008114611bb5576040519150601f19603f3d011682016040523d82523d6000602084013e611bba565b606091505b50509050806040518060400160405280601b81526020017a22bb32b73a1d102330b4b632b2103a379039b2b7321022ba3432b960291b81525090611c115760405162461bcd60e51b81526004016102229190613bc5565b50505050565b6002600083815260096020526040902060030154610100900460ff166002811115611c4457611c44613bd8565b14156040518060400160405280601581526020016000805160206141e383398151915281525090611c885760405162461bcd60e51b81526004016102229190613bc5565b50600082815260096020526040812060040154819081908103611cbe576000858152600960205260409020600201549250611db1565b60005b600086815260096020526040902060040154811015611daf576000868152600960205260409020600401805482908110611cfd57611cfd613bee565b9060005260206000209060020201600001544211611d9d576000868152600960205260409020600401805482908110611d3857611d38613bee565b600091825260208083206002928302016001015489845260099091526040909220015460ff9091169350611d7690611d71856064613d1c565b6132a3565b600087815260096020526040902060020154909250611d96908390613e67565b9350611daf565b80611da781613c2d565b915050611cc1565b505b60008581526009602052604081206002018054859290611dd2908490613e67565b9091555050604051600090339085908381818185875af1925050503d8060008114611e19576040519150601f19603f3d011682016040523d82523d6000602084013e611e1e565b606091505b50509050806040518060600160405280602981526020016140da6029913990611e5a5760405162461bcd60e51b81526004016102229190613bc5565b506040518681527feea9f2e0c73d19e23063194ae9ba8512a252b6c0bd44e31315f611c5efaa8f0b9060200160405180910390a1505050505050565b600082815260026020908152604091829020548251808401909352601b8352600080516020614126833981519152918301919091528391906001600160a01b0316611ef45760405162461bcd60e51b81526004016102229190613bc5565b5060008084815260096020526040902060030154610100900460ff166002811115611f2157611f21613bd8565b146040518060400160405280601581526020016000805160206141e383398151915281525090611f645760405162461bcd60e51b81526004016102229190613bc5565b50611f71836000336126c4565b80611f905750611f9083600080516020614203833981519152336126c4565b80611fc15750611fc1837fb5a7f51d0593e853ad0aa6b718ee0bdd10c4966eb62d243b69d538e5823d0401336126c4565b6040518060600160405280603881526020016142496038913990611ff85760405162461bcd60e51b81526004016102229190613bc5565b50426120038461331a565b6001600160401b03161115801561202b57504261201f84613368565b6001600160401b031610155b6040518060600160405280602581526020016142e860259139906120625760405162461bcd60e51b81526004016102229190613bc5565b50601154604051600091600191606091849182916001600160a01b0316906120949030908a9088908890602401613e90565b60408051601f198184030181529181526020820180516001600160e01b0316631e27140560e01b179052516120c99190613c75565b6000604051808303816000865af19150503d8060008114612106576040519150601f19603f3d011682016040523d82523d6000602084013e61210b565b606091505b5091509150816040518060400160405280601d8152602001600080516020614281833981519152815250906121535760405162461bcd60e51b81526004016102229190613bc5565b50808060200190518101906121689190613ec7565b9450846040518060400160405280601881526020017722bb32b73a1d1021b634b8103a34b1b5b2ba1032b93937b960411b815250906121ba5760405162461bcd60e51b81526004016102229190613bc5565b507f73b94823b249d530a2b7223a82b4ae3a07a452eb37749ebe162f8bba7fb01f558888336040516121ee93929190613c91565b60405180910390a15050505050505050565b600081815260026020908152604091829020548251808401909352601b83526000805160206141268339815191529183019190915260609183916001600160a01b03166122605760405162461bcd60e51b81526004016102229190613bc5565b506000838152600f60209081526040808320338452825291829020805483518184028101840190945280845290918301828280156122bd57602002820191906000526020600020905b8154815260200190600101908083116122a9575b5050505050915050919050565b82518451146040518060400160405280601f81526020016000805160206141c3833981519152815250906123115760405162461bcd60e51b81526004016102229190613bc5565b5080518251146040518060400160405280601f81526020016000805160206141c3833981519152815250906123595760405162461bcd60e51b81526004016102229190613bc5565b5060008060005b8551811015612448576123ad87828151811061237e5761237e613bee565b60200260200101516000015188838151811061239c5761239c613bee565b602002602001015160200151612b99565b600091506123e48782815181106123c6576123c6613bee565b602002602001015160200151878381518110610d4b57610d4b613bee565b8581815181106123f6576123f6613bee565b60200260200101516000015186828151811061241457612414613bee565b60200260200101516020015161242a9190613d1c565b6124349084613c1a565b92508061244081613c2d565b915050612360565b5034821460405180606001604052806023815260200161400360239139906124835760405162461bcd60e51b81526004016102229190613bc5565b506000805b87518110156126ba5760005b8782815181106124a6576124a6613bee565b6020026020010151600001518110156126a75760008060090160008b85815181106124d3576124d3613bee565b602002602001015160000151815260200190815260200160002060030160019054906101000a900460ff16600281111561250f5761250f613bd8565b146040518060400160405280601581526020016000805160206141e3833981519152815250906125525760405162461bcd60e51b81526004016102229190613bc5565b506000600c0160008a848151811061256c5761256c613bee565b602002602001015160000151815260200190815260200160002061259b88858151811061060657610606613bee565b6125b089868151811061062c5761062c613bee565b6040516020016125c1929190613c46565b60408051601f19818403018152908290526125db91613c75565b90815260408051918290036020908101832054838301909252601583527422bb32b73a1d10283630b1b29034b9903a30b5b2b760591b9083015260ff16156126365760405162461bcd60e51b81526004016102229190613bc5565b5061268889838151811061264c5761264c613bee565b6020026020010151600001518a848151811061266a5761266a613bee565b6020026020010151602001518a8581518110610f0757610f07613bee565b612693600184613c1a565b92508061269f81613c2d565b915050612494565b50806126b281613c2d565b915050612488565b5050505050505050565b60009283526012602090815260408085209385529281528284206001600160a01b039290921684525290205460ff1690565b60608160000361271d5750506040805180820190915260018152600360fc1b602082015290565b8160005b8115612747578061273181613c2d565b91506127409050600a83613eff565b9150612721565b6000816001600160401b03811115612761576127616133d4565b6040519080825280601f01601f19166020018201604052801561278b576020820181803683370190505b5090505b84156127f6576127a0600183613e67565b91506127ad600a86613f13565b6127b8906030613c1a565b60f81b8183815181106127cd576127cd613bee565b60200101906001600160f81b031916908160001a9053506127ef600a86613eff565b945061278f565b949350505050565b6000888152600960205260408120600201805488929061281f908490613c1a565b90915550506000878152600a602052604081206008018054889290612845908490613c1a565b909155505060008881526009602052604080822060030154601154915163290be4dd60e01b8152620100009091046001600160401b031692916001600160a01b03169063290be4dd906128ac908d908d908d908d908d908d908d908d908d90600401613f27565b6020604051808303816000875af11580156128cb573d6000803e3d6000fd5b505050506040513d601f19601f820116820180604052508101906128ef9190613f8e565b60008a8152600a602090815260408220600201805460018101825590835290822001829055909150612920886126f6565b612929886126f6565b60405160200161293a929190613c46565b60408051601f1981840301815282825260008e8152600c60205291909120909250600191612969908490613c75565b9081526040805160209281900383019020805460ff19169315159390931790925560008c8152600d82528281208590558d8152600e82528281206001600160a01b03881682529091529081208054600192906129c6908490613c1a565b909155505060008b8152600f602090815260408083206001600160a01b0388168085529083528184208054600181018255908552938390209093018590558051858152918201929092527f6606e4c8a88792ed4fd5159f9be235ca78e87fc1cbdc6158ea92d3ed3be9bf729101610812565b6000805b6000858152600f602090815260408083206001600160a01b0387168452909152902054811015612ac3576000858152600f602090815260408083206001600160a01b03871684529091529020805485919083908110612a9d57612a9d613bee565b906000526020600020015403612ab1578091505b80612abb81613c2d565b915050612a3c565b506000848152600f602090815260408083206001600160a01b038616845290915290208054612af490600190613e67565b81548110612b0457612b04613bee565b6000918252602080832090910154868352600f825260408084206001600160a01b03871685529092529120805483908110612b4157612b41613bee565b6000918252602080832090910192909255858152600f825260408082206001600160a01b038616835290925220805480612b7d57612b7d613e7a565b6001900381819060005260206000200160009055905550505050565b612ba2826133b7565b6040518060400160405280601b815260200160008051602061412683398151915281525090612be45760405162461bcd60e51b81526004016102229190613bc5565b506000818152600a6020908152604091829020548251808401909352601e835260008051602061417283398151915291830191909152612c375760405162461bcd60e51b81526004016102229190613bc5565b50816000600a01600083815260200190815260200160002060070154146040518060600160405280602981526020016140506029913990612c8b5760405162461bcd60e51b81526004016102229190613bc5565b5060008281526009602090815260409182902060030154825160608101909352603180845260ff909116151560011492916141929083013990612ce15760405162461bcd60e51b81526004016102229190613bc5565b506000818152600a6020908152604091829020600d0154825160608101909352603080845260ff909116151560011492916140799083013990612d375760405162461bcd60e51b81526004016102229190613bc5565b506000818152600a60205260409020600501544210801590612d6a57506000818152600a60205260409020600601544211155b604051806060016040528060298152602001613fda6029913990612da15760405162461bcd60e51b81526004016102229190613bc5565b50600082815260096020908152604080832060010154600e835281842033855283529281902054815160608101909252602680835293119290916142239083013990612e005760405162461bcd60e51b81526004016102229190613bc5565b505050565b8151612e119082613c1a565b6000848152600a60205260409020600481015460029091015491925090612e39908390613c1a565b111560405180606001604052806023815260200161430d6023913990612e725760405162461bcd60e51b81526004016102229190613bc5565b506000838152600a602052604090206009015415612fc45760005b6000848152600a6020526040902060090154811015611c115782516000858152600a60205260409020600901805483908110612ecb57612ecb613bee565b906000526020600020015403612fb2576000848152600a60208190526040822001805483908110612efe57612efe613bee565b90600052602060002001546064612f159190613d1c565b6000868152600a602052604081206003015491925090612f3590836132a3565b6020808701516000898152600a90925260409091206003015491925090612f5d908390613e67565b14604051806040016040528060198152602001784576656e743a2057726f6e67207469636b657420707269636560381b81525090612fae5760405162461bcd60e51b81526004016102229190613bc5565b5050505b80612fbc81613c2d565b915050612e8d565b6020808301516000858152600a835260409081902060030154815180830190925260198252784576656e743a2057726f6e67207469636b657420707269636560381b938201939093529114611c115760405162461bcd60e51b81526004016102229190613bc5565b601154604051633ee1bcfd60e11b81526004810183905260009182918291829182916001600160a01b031690637dc379fa90602401600060405180830381865afa15801561307e573d6000803e3d6000fd5b505050506040513d6000823e601f3d908101601f191682016040526130a69190810190613db8565b60008881526009602052604090206003015481519192506201000090046001600160401b039081169116146130e7576060015160019450925061329c915050565b60005b60008881526009602052604090206004015481101561329357600088815260096020526040902060040180548290811061312657613126613bee565b90600052602060002090600202016000015442116132815760115460008981526009602052604081206004018054919283926001600160a01b03909116918b918690811061317657613176613bee565b6000918252602090912060029091020160010154604051602481019290925260ff16604482015260640160408051601f198184030181529181526020820180516001600160e01b03166375c8c9bd60e11b179052516131d59190613c75565b6000604051808303816000865af19150503d8060008114613212576040519150601f19603f3d011682016040523d82523d6000602084013e613217565b606091505b5091509150816040518060400160405280601d81526020016000805160206142818339815191528152509061325f5760405162461bcd60e51b81526004016102229190613bc5565b5060019450808060200190518101906132789190613f8e565b95505050613293565b8061328b81613c2d565b9150506130ea565b50909350909150505b9250929050565b60006127106132b28385613d1c565b10156132fa5760405162461bcd60e51b8152602060048201526017602482015276050657263656e746167653a20526f756e647320746f203604c1b6044820152606401610222565b6127106133078385613d1c565b6133119190613eff565b90505b92915050565b600080613326836133b7565b6133425760405162461bcd60e51b815260040161022290613fa7565b60009283526009016020525060409020600301546201000090046001600160401b031690565b600080613374836133b7565b6133905760405162461bcd60e51b815260040161022290613fa7565b6000928352600901602052506040902060030154600160501b90046001600160401b031690565b6000908152600260205260409020546001600160a01b0316151590565b634e487b7160e01b600052604160045260246000fd5b604080519081016001600160401b038111828210171561340c5761340c6133d4565b60405290565b604051606081016001600160401b038111828210171561340c5761340c6133d4565b60405160e081016001600160401b038111828210171561340c5761340c6133d4565b604051601f8201601f191681016001600160401b038111828210171561347e5761347e6133d4565b604052919050565b60006001600160401b0382111561349f5761349f6133d4565b5060051b60200190565b60006134bc6134b784613486565b613456565b8381529050602080820190600685901b8401868111156134db57600080fd5b845b8181101561351857604081890312156134f65760008081fd5b6134fe6133ea565b8135815283820135848201528452928201926040016134dd565b505050509392505050565b6001600160a01b038116811461353857600080fd5b50565b60006001600160401b03821115613554576135546133d4565b50601f01601f191660200190565b600082601f83011261357357600080fd5b813560206135836134b783613486565b82815260059290921b840181019181810190868411156135a257600080fd5b8286015b848110156136205780356001600160401b038111156135c55760008081fd5b8701603f810189136135d75760008081fd5b8481013560406135e96134b78361353b565b8281528b828486010111156135fe5760008081fd5b82828501898301376000928101880192909252508452509183019183016135a6565b509695505050505050565b6000806000806080858703121561364157600080fd5b843593506020808601356001600160401b038082111561366057600080fd5b818801915088601f83011261367457600080fd5b6136828983358585016134a9565b955060409150818801358181111561369957600080fd5b8801601f81018a136136aa57600080fd5b80356136b86134b782613486565b8181526060918202830186019186820191908d8411156136d757600080fd5b938701935b838510156137285780858f0312156136f45760008081fd5b6136fc613412565b8535815288860135898201528786013561371581613523565b81890152835293840193918701916136dc565b9098508b013595505050508083111561374057600080fd5b505061374e87828801613562565b91505092959194509250565b600082601f83011261376b57600080fd5b8135602061377b6134b783613486565b82815260059290921b8401810191818101908684111561379a57600080fd5b8286015b848110156136205780356137b181613523565b835291830191830161379e565b6000806000606084860312156137d357600080fd5b833592506020808501356001600160401b03808211156137f257600080fd5b818701915087601f83011261380657600080fd5b81356138146134b782613486565b81815260059190911b8301840190848101908a83111561383357600080fd5b938501935b8285101561385157843582529385019390850190613838565b96505050604087013592508083111561386957600080fd5b50506138778682870161375a565b9150509250925092565b600082601f83011261389257600080fd5b613311838335602085016134a9565b600080600080600060a086880312156138b957600080fd5b853594506020860135935060408601356001600160401b03808211156138de57600080fd5b6138ea89838a01613881565b9450606088013591508082111561390057600080fd5b61390c89838a01613881565b9350608088013591508082111561392257600080fd5b5061392f88828901613562565b9150509295509295909350565b600080828403606081121561395057600080fd5b833592506040601f198201121561396657600080fd5b5061396f6133ea565b60208401358152604084013560ff8116811461398a57600080fd5b6020820152919491935090915050565b600080600080608085870312156139b057600080fd5b843593506020850135925060408501356139c981613523565b915060608501356139d981613523565b939692955090935050565b6000606082840312156139f657600080fd5b604051606081016001600160401b0381118282101715613a1857613a186133d4565b80604052508235815260208301356020820152604083013560408201528091505092915050565b600060208284031215613a5157600080fd5b5035919050565b60008060408385031215613a6b57600080fd5b50508035926020909101359150565b6020808252825182820181905260009190848201906040850190845b81811015613ab257835183529284019291840191600101613a96565b50909695505050505050565b60008060008060808587031215613ad457600080fd5b84356001600160401b0380821115613aeb57600080fd5b818701915087601f830112613aff57600080fd5b613b0e888335602085016134a9565b95506020870135915080821115613b2457600080fd5b613b3088838901613881565b94506040870135915080821115613b4657600080fd5b613b5288838901613881565b93506060870135915080821115613b6857600080fd5b5061374e87828801613562565b60005b83811015613b90578181015183820152602001613b78565b50506000910152565b60008151808452613bb1816020860160208601613b75565b601f01601f19169290920160200192915050565b6020815260006133116020830184613b99565b634e487b7160e01b600052602160045260246000fd5b634e487b7160e01b600052603260045260246000fd5b634e487b7160e01b600052601160045260246000fd5b8082018082111561331457613314613c04565b600060018201613c3f57613c3f613c04565b5060010190565b60008351613c58818460208801613b75565b835190830190613c6c818360208801613b75565b01949350505050565b60008251613c87818460208701613b75565b9190910192915050565b92835260208301919091526001600160a01b0316604082015260600190565b6000606082018583526020606081850152818651808452608086019150828801935060005b81811015613cfa5784516001600160a01b031683529383019391830191600101613cd5565b50506001600160a01b0395909516604094909401939093525091949350505050565b808202811582820484141761331457613314613c04565b600060208284031215613d4557600080fd5b8151613d5081613523565b9392505050565b80516001600160401b0381168114613d6e57600080fd5b919050565b600082601f830112613d8457600080fd5b8151613d926134b78261353b565b818152846020838601011115613da757600080fd5b6127f6826020830160208701613b75565b600060208284031215613dca57600080fd5b81516001600160401b0380821115613de157600080fd5b9083019060e08286031215613df557600080fd5b613dfd613434565b613e0683613d57565b81526020830151602082015260408301516040820152606083015160608201526080830151608082015260a083015160a082015260c083015182811115613e4c57600080fd5b613e5887828601613d73565b60c08301525095945050505050565b8181038181111561331457613314613c04565b634e487b7160e01b600052603160045260246000fd5b60018060a01b0385168152836020820152826040820152608060608201526000613ebd6080830184613b99565b9695505050505050565b600060208284031215613ed957600080fd5b81518015158114613d5057600080fd5b634e487b7160e01b600052601260045260246000fd5b600082613f0e57613f0e613ee9565b500490565b600082613f2257613f22613ee9565b500690565b60006101208b83528a60208401528960408401528860608401528760808401528060a0840152613f5981840188613b99565b95151560c084015250506001600160a01b039290921660e08301526001600160401b0316610100909101529695505050505050565b600060208284031215613fa057600080fd5b5051919050565b602080825260189082015277115490cd4c0c0dce88125b9d985b1a59081d1bdad95b925960421b60408201526060019056fe4576656e743a2043616e277420627579207469636b65747320666f722063617465676f7279207965744576656e743a204d73672076616c7565206e6f7420657120746f74616c2070726963654576656e743a2043616c6c6572206973206e6f7420616e2061646d696e206f72206d6f64657261746f724576656e743a20546869732063617465676f727920697320666f7220616e6f74686572206576656e744576656e743a205469636b65747320666f7220746869732063617465676f727920617265206e6f742062757961626c654576656e743a204f6e6c7920636173686965722063616e20776974686472617720636f6e74726163742062616c616e63654576656e743a20436f6e74726163742062616c616e63652077697468647261772072657665727465644576656e743a2041636320726566756e642077697468647261772072657665727465644576656e743a204576656e7420646f6573206e6f7420657869737400000000004576656e743a205469636b657420646f65736e277420657869737420696e20746869732063617465676f72794576656e743a2043617465676f727920646f6573206e6f7420657869737400004576656e743a205469636b65747320666f7220616c6c2063617465676f7269657320617265206e6f742062757961626c654576656e743a20506172616d6574657273206c656e677468206e6f74206571004576656e743a204576656e742063616e63656c6564000000000000000000000071f3d55856e4058ed06ee057d79ada615f65cdf5f9ee88181b914225088f834f4576656e743a204d6178207469636b65747320666f72206163636f756e7420726561636865644576656e743a2043616c6c6572206973206e6f7420616e2061646d696e2c206d6f64657261746f72206f7220726563657074696f6e6973744576656e743a20436f6e74726163742063616c6c2072657665727465640000004576656e743a2043616e277420726566756e6420666f722074686973206576656e744576656e743a20506172616d657465722061727261792063616e277420626520656d7074794576656e743a2057726f6e67206461746520666f72207469636b657420636c697070696e674576656e743a204d6178207469636b65747320636f756e742069732072656163686564a26469706673582212200c76b7a68c3f821813599aca5f93b15c986d3fe6acbb4ac6187dbddd3266898964736f6c63430008110033",
  "linkReferences": {},
  "deployedLinkReferences": {}
}