{
  "_format": "hh-sol-artifact-1",
  "contractName": "EventTicketControllerFacet",
  "sourceName": "contracts/EventDiamond/facets/EventTicketControllerFacet.sol",
  "abi": [
    {
      "anonymous": false,
      "inputs": [
        {
          "indexed": true,
          "internalType": "uint256",
          "name": "fromTokenId",
          "type": "uint256"
        },
        {
          "indexed": false,
          "internalType": "uint256",
          "name": "toTokenId",
          "type": "uint256"
        },
        {
          "indexed": true,
          "internalType": "address",
          "name": "fromAddress",
          "type": "address"
        },
        {
          "indexed": true,
          "internalType": "address",
          "name": "toAddress",
          "type": "address"
        }
      ],
      "name": "ConsecutiveTransfer",
      "type": "event"
    },
    {
      "anonymous": false,
      "inputs": [
        {
          "indexed": false,
          "internalType": "uint256",
          "name": "eventId",
          "type": "uint256"
        },
        {
          "indexed": false,
          "internalType": "uint256",
          "name": "date",
          "type": "uint256"
        },
        {
          "indexed": false,
          "internalType": "uint8",
          "name": "percentage",
          "type": "uint8"
        }
      ],
      "name": "EventRefundDateAdded",
      "type": "event"
    },
    {
      "anonymous": false,
      "inputs": [
        {
          "indexed": false,
          "internalType": "uint256",
          "name": "eventId",
          "type": "uint256"
        }
      ],
      "name": "EventWithdraw",
      "type": "event"
    },
    {
      "anonymous": false,
      "inputs": [
        {
          "indexed": false,
          "internalType": "uint256",
          "name": "eventId",
          "type": "uint256"
        },
        {
          "indexed": false,
          "internalType": "address[]",
          "name": "accounts",
          "type": "address[]"
        },
        {
          "indexed": false,
          "internalType": "address",
          "name": "staffMember",
          "type": "address"
        }
      ],
      "name": "InvitationSent",
      "type": "event"
    },
    {
      "anonymous": false,
      "inputs": [
        {
          "indexed": false,
          "internalType": "uint256",
          "name": "ticketId",
          "type": "uint256"
        },
        {
          "indexed": false,
          "internalType": "address",
          "name": "account",
          "type": "address"
        }
      ],
      "name": "RefundWithdraw",
      "type": "event"
    },
    {
      "anonymous": false,
      "inputs": [
        {
          "indexed": false,
          "internalType": "uint256",
          "name": "ticketId",
          "type": "uint256"
        },
        {
          "indexed": false,
          "internalType": "address",
          "name": "account",
          "type": "address"
        }
      ],
      "name": "TicketBought",
      "type": "event"
    },
    {
      "anonymous": false,
      "inputs": [
        {
          "indexed": false,
          "internalType": "uint256",
          "name": "eventId",
          "type": "uint256"
        },
        {
          "indexed": false,
          "internalType": "uint256",
          "name": "ticketId",
          "type": "uint256"
        },
        {
          "indexed": false,
          "internalType": "address",
          "name": "staffMember",
          "type": "address"
        }
      ],
      "name": "TicketClipped",
      "type": "event"
    },
    {
      "anonymous": false,
      "inputs": [
        {
          "indexed": false,
          "internalType": "uint256",
          "name": "eventId",
          "type": "uint256"
        },
        {
          "indexed": false,
          "internalType": "uint256",
          "name": "categoryId",
          "type": "uint256"
        },
        {
          "indexed": false,
          "internalType": "uint256",
          "name": "ticketId",
          "type": "uint256"
        },
        {
          "indexed": false,
          "internalType": "address",
          "name": "account",
          "type": "address"
        }
      ],
      "name": "TicketRefunded",
      "type": "event"
    },
    {
      "anonymous": false,
      "inputs": [
        {
          "indexed": false,
          "internalType": "uint256",
          "name": "eventId",
          "type": "uint256"
        },
        {
          "indexed": false,
          "internalType": "uint256",
          "name": "ticketCount",
          "type": "uint256"
        },
        {
          "indexed": false,
          "internalType": "address",
          "name": "staffMember",
          "type": "address"
        }
      ],
      "name": "TicketsBooked",
      "type": "event"
    },
    {
      "inputs": [
        {
          "internalType": "uint256",
          "name": "_eventId",
          "type": "uint256"
        },
        {
          "components": [
            {
              "internalType": "uint256",
              "name": "date",
              "type": "uint256"
            },
            {
              "internalType": "uint8",
              "name": "percentage",
              "type": "uint8"
            }
          ],
          "internalType": "struct RefundData",
          "name": "_refundData",
          "type": "tuple"
        }
      ],
      "name": "addRefundDeadline",
      "outputs": [],
      "stateMutability": "nonpayable",
      "type": "function"
    },
    {
      "inputs": [
        {
          "internalType": "uint256",
          "name": "_eventId",
          "type": "uint256"
        },
        {
          "components": [
            {
              "internalType": "uint256",
              "name": "categoryId",
              "type": "uint256"
            },
            {
              "internalType": "uint256",
              "name": "ticketAmount",
              "type": "uint256"
            }
          ],
          "internalType": "struct CategoryTicketAmount[]",
          "name": "_categoryTicketAmount",
          "type": "tuple[]"
        },
        {
          "components": [
            {
              "internalType": "uint256",
              "name": "row",
              "type": "uint256"
            },
            {
              "internalType": "uint256",
              "name": "seat",
              "type": "uint256"
            },
            {
              "internalType": "address",
              "name": "account",
              "type": "address"
            }
          ],
          "internalType": "struct TicketPlaceAddress[]",
          "name": "_place",
          "type": "tuple[]"
        },
        {
          "internalType": "string[]",
          "name": "_ticketMetadataUris",
          "type": "string[]"
        }
      ],
      "name": "bookTickets",
      "outputs": [],
      "stateMutability": "nonpayable",
      "type": "function"
    },
    {
      "inputs": [
        {
          "internalType": "uint256",
          "name": "_eventId",
          "type": "uint256"
        },
        {
          "internalType": "uint256",
          "name": "_categoryId",
          "type": "uint256"
        },
        {
          "components": [
            {
              "internalType": "uint256",
              "name": "amount",
              "type": "uint256"
            },
            {
              "internalType": "uint256",
              "name": "price",
              "type": "uint256"
            }
          ],
          "internalType": "struct TicketPriceData[]",
          "name": "_priceData",
          "type": "tuple[]"
        },
        {
          "components": [
            {
              "internalType": "uint256",
              "name": "row",
              "type": "uint256"
            },
            {
              "internalType": "uint256",
              "name": "seat",
              "type": "uint256"
            }
          ],
          "internalType": "struct TicketPlace[]",
          "name": "_place",
          "type": "tuple[]"
        },
        {
          "internalType": "string[]",
          "name": "_ticketMetadataUris",
          "type": "string[]"
        }
      ],
      "name": "buyTickets",
      "outputs": [],
      "stateMutability": "payable",
      "type": "function"
    },
    {
      "inputs": [
        {
          "components": [
            {
              "internalType": "uint256",
              "name": "eventId",
              "type": "uint256"
            },
            {
              "internalType": "uint256",
              "name": "categoryId",
              "type": "uint256"
            }
          ],
          "internalType": "struct EventCategoryData[]",
          "name": "_eventCategoryData",
          "type": "tuple[]"
        },
        {
          "components": [
            {
              "internalType": "uint256",
              "name": "amount",
              "type": "uint256"
            },
            {
              "internalType": "uint256",
              "name": "price",
              "type": "uint256"
            }
          ],
          "internalType": "struct TicketPriceData[]",
          "name": "_priceData",
          "type": "tuple[]"
        },
        {
          "components": [
            {
              "internalType": "uint256",
              "name": "row",
              "type": "uint256"
            },
            {
              "internalType": "uint256",
              "name": "seat",
              "type": "uint256"
            }
          ],
          "internalType": "struct TicketPlace[]",
          "name": "_place",
          "type": "tuple[]"
        },
        {
          "internalType": "string[]",
          "name": "_ticketMetadataUris",
          "type": "string[]"
        }
      ],
      "name": "buyTickets",
      "outputs": [],
      "stateMutability": "payable",
      "type": "function"
    },
    {
      "inputs": [
        {
          "internalType": "uint256",
          "name": "_eventId",
          "type": "uint256"
        },
        {
          "internalType": "uint256",
          "name": "_ticketId",
          "type": "uint256"
        },
        {
          "internalType": "uint256",
          "name": "signatureTimestamp",
          "type": "uint256"
        },
        {
          "internalType": "bytes",
          "name": "signature",
          "type": "bytes"
        }
      ],
      "name": "clipTicket",
      "outputs": [],
      "stateMutability": "nonpayable",
      "type": "function"
    },
    {
      "inputs": [
        {
          "internalType": "uint256",
          "name": "_eventId",
          "type": "uint256"
        }
      ],
      "name": "getAddressTicketIdsByEvent",
      "outputs": [
        {
          "internalType": "uint256[]",
          "name": "",
          "type": "uint256[]"
        }
      ],
      "stateMutability": "view",
      "type": "function"
    },
    {
      "inputs": [
        {
          "components": [
            {
              "internalType": "uint256",
              "name": "eventId",
              "type": "uint256"
            },
            {
              "internalType": "uint256",
              "name": "categoryId",
              "type": "uint256"
            },
            {
              "internalType": "uint256",
              "name": "ticketId",
              "type": "uint256"
            }
          ],
          "internalType": "struct ReturnTicketParams",
          "name": "_returnTicketParams",
          "type": "tuple"
        }
      ],
      "name": "returnTicket",
      "outputs": [],
      "stateMutability": "nonpayable",
      "type": "function"
    },
    {
      "inputs": [
        {
          "internalType": "uint256",
          "name": "_eventId",
          "type": "uint256"
        },
        {
          "internalType": "uint256[]",
          "name": "_ticketIds",
          "type": "uint256[]"
        },
        {
          "internalType": "address[]",
          "name": "_accounts",
          "type": "address[]"
        }
      ],
      "name": "sendInvitation",
      "outputs": [],
      "stateMutability": "nonpayable",
      "type": "function"
    },
    {
      "inputs": [
        {
          "internalType": "uint256",
          "name": "_eventId",
          "type": "uint256"
        },
        {
          "internalType": "uint256",
          "name": "_ticketId",
          "type": "uint256"
        },
        {
          "internalType": "address",
          "name": "_oldOwner",
          "type": "address"
        },
        {
          "internalType": "address",
          "name": "_newOwner",
          "type": "address"
        }
      ],
      "name": "updateTicketIdAfterTransfer",
      "outputs": [],
      "stateMutability": "nonpayable",
      "type": "function"
    },
    {
      "inputs": [
        {
          "internalType": "uint256",
          "name": "_eventId",
          "type": "uint256"
        }
      ],
      "name": "withdrawContractBalance",
      "outputs": [],
      "stateMutability": "nonpayable",
      "type": "function"
    }
  ],
  "bytecode": "0x608060405234801561001057600080fd5b506149d0806100206000396000f3fe6080604052600436106100815760003560e01c8063262e6b4b1461008657806328e13a9e146100a85780632d3bf559146100c85780634f905e5d146100e85780637ce8b341146100fb5780639cbea3601461011b578063ab6a8d6a1461013b578063b5abe85a1461015b578063e3bccc0f1461017b578063ef71b78a146101b1575b600080fd5b34801561009257600080fd5b506100a66100a1366004613ae4565b6101c4565b005b3480156100b457600080fd5b506100a66100c3366004613c9d565b6105a1565b3480156100d457600080fd5b506100a66100e3366004613e24565b610bfb565b6100a66100f6366004613f07565b610ff6565b34801561010757600080fd5b506100a6610116366004613fa2565b6112d6565b34801561012757600080fd5b506100a6610136366004614000565b611499565b34801561014757600080fd5b506100a661015636600461404a565b6115a8565b34801561016757600080fd5b506100a66101763660046140a5565b611deb565b34801561018757600080fd5b5061019b6101963660046140a5565b612224565b6040516101a891906140be565b60405180910390f35b6100a66101bf366004614102565b6122ee565b600084815260026020908152604091829020548251808401909352601b8352600080516020614791833981519152918301919091528591906001600160a01b031661022b5760405162461bcd60e51b81526004016102229190614209565b60405180910390fd5b5060008086815260096020526040902060030154610100900460ff1660028111156102585761025861421c565b1460405180604001604052806015815260200160008051602061484e8339815191528152509061029b5760405162461bcd60e51b81526004016102229190614209565b506102a88560003361265f565b806102c757506102c78560008051602061486e8339815191523361265f565b806102f857506102f8857fb5a7f51d0593e853ad0aa6b718ee0bdd10c4966eb62d243b69d538e5823d04013361265f565b6040518060600160405280603881526020016148b4603891399061032f5760405162461bcd60e51b81526004016102229190614209565b5042611c2061033d87612691565b6103479190614248565b6001600160401b03161115801561036f575042610363866126df565b6001600160401b031610155b60405180606001604052806025815260200161495360259139906103a65760405162461bcd60e51b81526004016102229190614209565b506103b284848461272e565b604051806040016040528060188152602001774576656e743a20496e76616c6964207369676e617475726560401b815250906104015760405162461bcd60e51b81526004016102229190614209565b50601154604051600091600191606091849182916001600160a01b0316906104339030908c908890889060240161426f565b60408051601f198184030181529181526020820180516001600160e01b0316631e27140560e01b1790525161046891906142a6565b6000604051808303816000865af19150503d80600081146104a5576040519150601f19603f3d011682016040523d82523d6000602084013e6104aa565b606091505b5091509150816040518060400160405280601d81526020016000805160206148ec833981519152815250906104f25760405162461bcd60e51b81526004016102229190614209565b508080602001905181019061050791906142c2565b9450846040518060400160405280601881526020017722bb32b73a1d1021b634b8103a34b1b5b2ba1032b93937b960411b815250906105595760405162461bcd60e51b81526004016102229190614209565b507f73b94823b249d530a2b7223a82b4ae3a07a452eb37749ebe162f8bba7fb01f558a8a3360405161058d939291906142eb565b60405180910390a150505050505050505050565b600084815260026020908152604091829020548251808401909352601b8352600080516020614791833981519152918301919091528591906001600160a01b03166105ff5760405162461bcd60e51b81526004016102229190614209565b5061060c8560003361265f565b8061062b575061062b8560008051602061486e8339815191523361265f565b6040518060600160405280602a8152602001614691602a9139906106625760405162461bcd60e51b81526004016102229190614209565b5083516000141560405180606001604052806025815260200161492e60259139906106a05760405162461bcd60e51b81526004016102229190614209565b5081518351146040518060400160405280601f815260200160008051602061482e833981519152815250906106e85760405162461bcd60e51b81526004016102229190614209565b5060008086815260096020526040902060030154610100900460ff1660028111156107155761071561421c565b1460405180604001604052806015815260200160008051602061484e833981519152815250906107585760405162461bcd60e51b81526004016102229190614209565b5060008060005b8651811015610979576000600a0160008883815181106107815761078161430a565b602002602001015160000151815260200190815260200160002060000154600014156040518060400160405280601e81526020016000805160206147dd833981519152815250906107e55760405162461bcd60e51b81526004016102229190614209565b50876000600a0160008984815181106108005761080061430a565b602002602001015160000151815260200190815260200160002060070154146040518060600160405280602981526020016146bb60299139906108565760405162461bcd60e51b81526004016102229190614209565b508681815181106108695761086961430a565b602002602001015160200151836108809190614320565b92506000600a01600088838151811061089b5761089b61430a565b602002602001015160000151815260200190815260200160002060040154836000600a0160008a85815181106108d3576108d361430a565b6020026020010151600001518152602001908152602001600020600201805490506108fe9190614320565b111560405180606001604052806023815260200161497860239139906109375760405162461bcd60e51b81526004016102229190614209565b506000925086818151811061094e5761094e61430a565b602002602001015160200151826109659190614320565b91508061097181614333565b91505061075f565b5060008060008060005b8a51811015610bb25760005b8b82815181106109a1576109a161430a565b602002602001015160200151811015610b9f5760008d8152600c602052604090208b516109eb908d90899081106109da576109da61430a565b602002602001015160000151612911565b610a118d8981518110610a0057610a0061430a565b602002602001015160200151612911565b604051602001610a2292919061434c565b60408051601f1981840301815290829052610a3c916142a6565b90815260408051918290036020908101832054838301909252601583527422bb32b73a1d10283630b1b29034b9903a30b5b2b760591b9083015260ff1615610a975760405162461bcd60e51b81526004016102229190614209565b5060006001600160a01b03168b8781518110610ab557610ab561430a565b6020026020010151604001516001600160a01b031614610af8578a8681518110610ae157610ae161430a565b602002602001015160400151935060019250610b00565b309350600092505b610b808d8d8481518110610b1657610b1661430a565b602002602001015160000151878e8a81518110610b3557610b3561430a565b6020026020010151600001518f8b81518110610b5357610b5361430a565b6020026020010151602001518f8c81518110610b7157610b7161430a565b6020026020010151898b612a19565b610b8b600187614320565b955080610b9781614333565b91505061098f565b5080610baa81614333565b915050610983565b507f0bf6beb306958fd2b5107d64b133ea297e354c91e8508878a9a4abb9206d82288b8633604051610be6939291906142eb565b60405180910390a15050505050505050505050565b600083815260026020908152604091829020548251808401909352601b8352600080516020614791833981519152918301919091528491906001600160a01b0316610c595760405162461bcd60e51b81526004016102229190614209565b50610c668460003361265f565b80610c855750610c858460008051602061486e8339815191523361265f565b6040518060600160405280602a8152602001614691602a913990610cbc5760405162461bcd60e51b81526004016102229190614209565b50825115801590610ccd5750815115155b60405180606001604052806025815260200161492e6025913990610d045760405162461bcd60e51b81526004016102229190614209565b5081518351146040518060400160405280601f815260200160008051602061482e83398151915281525090610d4c5760405162461bcd60e51b81526004016102229190614209565b5060008085815260096020526040902060030154610100900460ff166002811115610d7957610d7961421c565b1460405180604001604052806015815260200160008051602061484e83398151915281525090610dbc5760405162461bcd60e51b81526004016102229190614209565b5060005b8351811015610fb457610ded85858381518110610ddf57610ddf61430a565b602002602001015130612c53565b60115483516001600160a01b03909116906323b872dd903090869085908110610e1857610e1861430a565b6020026020010151878581518110610e3257610e3261430a565b60209081029190910101516040516001600160e01b031960e086901b1681526001600160a01b0393841660048201529290911660248301526044820152606401600060405180830381600087803b158015610e8c57600080fd5b505af1158015610ea0573d6000803e3d6000fd5b505060115486516001600160a01b03909116925063dd4670649150869084908110610ecd57610ecd61430a565b60200260200101516040518263ffffffff1660e01b8152600401610ef391815260200190565b600060405180830381600087803b158015610f0d57600080fd5b505af1158015610f21573d6000803e3d6000fd5b5050506000868152600f602052604081208551909250859084908110610f4957610f4961430a565b60200260200101516001600160a01b03166001600160a01b03168152602001908152602001600020848281518110610f8357610f8361430a565b6020908102919091018101518254600181018455600093845291909220015580610fac81614333565b915050610dc0565b507fc47e064bd57c3620a43c1e4ac852f9185e9582f40bdd973a20f4c1bf520f38a5848333604051610fe89392919061437b565b60405180910390a150505050565b82516000141560405180606001604052806025815260200161492e60259139906110335760405162461bcd60e51b81526004016102229190614209565b5080518251146040518060400160405280601f815260200160008051602061482e8339815191528152509061107b5760405162461bcd60e51b81526004016102229190614209565b5060008086815260096020526040902060030154610100900460ff1660028111156110a8576110a861421c565b1460405180604001604052806015815260200160008051602061484e833981519152815250906110eb5760405162461bcd60e51b81526004016102229190614209565b506110f68585612db4565b60008060005b8551811015611191576000915061112d8787838151811061111f5761111f61430a565b602002602001015184613020565b85818151811061113f5761113f61430a565b60200260200101516000015186828151811061115d5761115d61430a565b60200260200101516020015161117391906143e7565b61117d9084614320565b92508061118981614333565b9150506110fc565b5034821460405180606001604052806023815260200161466e60239139906111cc5760405162461bcd60e51b81526004016102229190614209565b506000805b86518110156112cb5760005b8782815181106111ef576111ef61430a565b6020026020010151600001518110156112b85760008061124b8c8c8b888151811061121c5761121c61430a565b6020026020010151600001518c898151811061123a5761123a61430a565b60200260200101516020015161324a565b915091506112968c8c8c87815181106112665761126661430a565b60200260200101516020015185858d8b815181106112865761128661430a565b6020026020010151600033612a19565b6112a1600186614320565b9450505080806112b090614333565b9150506111dd565b50806112c381614333565b9150506111d1565b505050505050505050565b600082815260026020908152604091829020548251808401909352601b8352600080516020614791833981519152918301919091528391906001600160a01b03166113345760405162461bcd60e51b81526004016102229190614209565b5060008084815260096020526040902060030154610100900460ff1660028111156113615761136161421c565b1460405180604001604052806015815260200160008051602061484e833981519152815250906113a45760405162461bcd60e51b81526004016102229190614209565b506113b18360003361265f565b806113d057506113d08360008051602061486e8339815191523361265f565b6040518060600160405280602a8152602001614691602a9139906114075760405162461bcd60e51b81526004016102229190614209565b506000838152600960209081526040808320600401805460018181018355918552938390208651600290950201848155928601519201805460ff841660ff19909116179055517f6acb6edf217693871c0a1b4dc7f139e64435ab88c84cdc94a85daf36cd06849c9261148c92878352602083019190915260ff16604082015260600190565b60405180910390a1505050565b6011546001600160a01b031633146114ff5760405162461bcd60e51b8152602060048201526024808201527f4576656e743a20596f752063616e206e6f742075736520746869732066756e636044820152633a34b7b760e11b6064820152608401610222565b61150a848484612c53565b6000848152600f602090815260408083206001600160a01b03808616855290835281842080546001818101835591865284862001889055888552600e84528285209187168552925282208054919290916115659084906143fe565b90915550506000848152600e602090815260408083206001600160a01b0385168452909152812080546001929061159d908490614320565b909155505050505050565b8051600081815260026020908152604091829020548251808401909352601b8352600080516020614791833981519152918301919091526001600160a01b03166116055760405162461bcd60e51b81526004016102229190614209565b506020808301516000818152600a8352604090819020548151808301909252601e82526000805160206147dd83398151915293820193909352909161165d5760405162461bcd60e51b81526004016102229190614209565b5082600001518360200151816000600a01600083815260200190815260200160002060070154146040518060600160405280602981526020016146bb60299139906116bb5760405162461bcd60e51b81526004016102229190614209565b5084602001518560400151806000600d01600084815260200190815260200160002054146040518060600160405280602c81526020016147b1602c9139906117165760405162461bcd60e51b81526004016102229190614209565b508651600090815260096020526040902060040154151580611764575060018751600090815260096020526040902060030154610100900460ff1660028111156117625761176261421c565b145b60405180606001604052806022815260200161490c602291399061179b5760405162461bcd60e51b81526004016102229190614209565b506000806117b189600001518a6040015161332c565b91509150816040518060400160405280601a81526020017922bb32b73a1d102932b33ab732103230ba329034b99037bb32b960311b815250906118075760405162461bcd60e51b81526004016102229190614209565b5060115460408a8101519051602481019190915260009182916001600160a01b039091169060440160408051601f198184030181529181526020820180516001600160e01b03166331a9108f60e11b1790525161186491906142a6565b6000604051808303816000865af19150503d80600081146118a1576040519150601f19603f3d011682016040523d82523d6000602084013e6118a6565b606091505b5091509150336001600160a01b0316818060200190518101906118c99190614411565b6001600160a01b03161480156118dc5750815b6040518060400160405280601d81526020016000805160206148ec8339815191528152509061191e5760405162461bcd60e51b81526004016102229190614209565b505089516000908152600c6020526040808220601154828e01519251633ee1bcfd60e11b81526004810193909352929350916119b7916001600160a01b0390911690637dc379fa90602401600060405180830381865afa158015611986573d6000803e3d6000fd5b505050506040513d6000823e601f3d908101601f191682016040526119ae919081019061448f565b60800151612911565b60115460408d8101519051633ee1bcfd60e11b81526004810191909152611a39916001600160a01b031690637dc379fa90602401600060405180830381865afa158015611a08573d6000803e3d6000fd5b505050506040513d6000823e601f3d908101601f19168201604052611a30919081019061448f565b60a00151612911565b604051602001611a4a92919061434c565b60408051601f1981840301815290829052611a64916142a6565b90815260408051918290036020018220805493151560ff1990941693909317909255601154918b015160248201523360448201523060648201526000916001600160a01b03169060840160408051601f198184030181529181526020820180516001600160e01b031663025ba0e960e61b17905251611ae391906142a6565b6000604051808303816000865af19150503d8060008114611b20576040519150601f19603f3d011682016040523d82523d6000602084013e611b25565b606091505b50509050806040518060400160405280601d81526020016000805160206148ec83398151915281525090611b6c5760405162461bcd60e51b81526004016102229190614209565b506000805b6020808d01516000908152600a9091526040902060020154811015611be9578b604001516000600a0160008e6020015181526020019081526020016000206002018281548110611bc357611bc361430a565b906000526020600020015403611bd7578091505b80611be181614333565b915050611b71565b506020808c0180516000908152600a909252604080832091518352909120600290810154910190611c1c906001906143fe565b81548110611c2c57611c2c61430a565b90600052602060002001546000600a0160008d6020015181526020019081526020016000206002018281548110611c6557611c6561430a565b60009182526020808320909101929092558c8201518152600a90915260409020600201805480611c9757611c9761453e565b6000828152602080822083016000199081018390559092019092558c518252600e815260408083203384529091528120805460019350909190611cdb9084906143fe565b9091555050895160408b0151611cf2919033612c53565b895160009081526009602052604081206002018054849290611d159084906143fe565b9091555050604051600090339084908381818185875af1925050503d8060008114611d5c576040519150601f19603f3d011682016040523d82523d6000602084013e611d61565b606091505b505090508060405180606001604052806023815260200161476e6023913990611d9d5760405162461bcd60e51b81526004016102229190614209565b508a516020808d01516040808f01518151948552928401919091528201523360608201527f87ff245f55dca5f20f12247f39f781d5710eda96984e49512daad7b675e4147990608001610be6565b600081815260026020908152604091829020548251808401909352601b8352600080516020614791833981519152918301919091528291906001600160a01b0316611e495760405162461bcd60e51b81526004016102229190614209565b50611e75827fff3317e1e0e8c784290b957ee9b65ea8fe96420c4819db463283b95ecbe4a3fe3361265f565b6040518060600160405280603181526020016147146031913990611eac5760405162461bcd60e51b81526004016102229190614209565b5060008281526009602052604090206003015442600160501b9091046001600160401b0316108015611eee575060008281526009602052604090206002015415155b15611fa5576000828152600960205260408082206002015490513391908381818185875af1925050503d8060008114611f43576040519150601f19603f3d011682016040523d82523d6000602084013e611f48565b606091505b50509050806040518060400160405280601b81526020017a22bb32b73a1d102330b4b632b2103a379039b2b7321022ba3432b960291b81525090611f9f5760405162461bcd60e51b81526004016102229190614209565b50505050565b6002600083815260096020526040902060030154610100900460ff166002811115611fd257611fd261421c565b141560405180604001604052806015815260200160008051602061484e833981519152815250906120165760405162461bcd60e51b81526004016102229190614209565b5060008281526009602052604081206004015481908190810361204c57600085815260096020526040902060020154925061213f565b60005b60008681526009602052604090206004015481101561213d57600086815260096020526040902060040180548290811061208b5761208b61430a565b906000526020600020906002020160000154421161212b5760008681526009602052604090206004018054829081106120c6576120c661430a565b600091825260208083206002928302016001015489845260099091526040909220015460ff9091169350612104906120ff8560646143e7565b61363f565b6000878152600960205260409020600201549092506121249083906143fe565b935061213d565b8061213581614333565b91505061204f565b505b600085815260096020526040812060020180548592906121609084906143fe565b9091555050604051600090339085908381818185875af1925050503d80600081146121a7576040519150601f19603f3d011682016040523d82523d6000602084013e6121ac565b606091505b505090508060405180606001604052806029815260200161474560299139906121e85760405162461bcd60e51b81526004016102229190614209565b506040518681527feea9f2e0c73d19e23063194ae9ba8512a252b6c0bd44e31315f611c5efaa8f0b9060200160405180910390a1505050505050565b600081815260026020908152604091829020548251808401909352601b83526000805160206147918339815191529183019190915260609183916001600160a01b03166122845760405162461bcd60e51b81526004016102229190614209565b506000838152600f60209081526040808320338452825291829020805483518184028101840190945280845290918301828280156122e157602002820191906000526020600020905b8154815260200190600101908083116122cd575b5050505050915050919050565b82518451146040518060400160405280601f815260200160008051602061482e833981519152815250906123355760405162461bcd60e51b81526004016102229190614209565b5080518251146040518060400160405280601f815260200160008051602061482e8339815191528152509061237d5760405162461bcd60e51b81526004016102229190614209565b5060008060005b855181101561246c576123d18782815181106123a2576123a261430a565b6020026020010151600001518883815181106123c0576123c061430a565b602002602001015160200151612db4565b600091506124088782815181106123ea576123ea61430a565b60200260200101516020015187838151811061111f5761111f61430a565b85818151811061241a5761241a61430a565b6020026020010151600001518682815181106124385761243861430a565b60200260200101516020015161244e91906143e7565b6124589084614320565b92508061246481614333565b915050612384565b5034821460405180606001604052806023815260200161466e60239139906124a75760405162461bcd60e51b81526004016102229190614209565b506000805b87518110156126555760005b8782815181106124ca576124ca61430a565b6020026020010151600001518110156126425760008060090160008b85815181106124f7576124f761430a565b602002602001015160000151815260200190815260200160002060030160019054906101000a900460ff1660028111156125335761253361421c565b1460405180604001604052806015815260200160008051602061484e833981519152815250906125765760405162461bcd60e51b81526004016102229190614209565b506000806125cb8b858151811061258f5761258f61430a565b6020026020010151600001518c86815181106125ad576125ad61430a565b6020026020010151602001518b888151811061121c5761121c61430a565b915091506126208b85815181106125e4576125e461430a565b6020026020010151600001518c86815181106126025761260261430a565b6020026020010151602001518c87815181106112665761126661430a565b61262b600186614320565b94505050808061263a90614333565b9150506124b8565b508061264d81614333565b9150506124ac565b5050505050505050565b60009283526012602090815260408085209385529281528284206001600160a01b039290921684525290205460ff1690565b60008061269d836136b6565b6126b95760405162461bcd60e51b815260040161022290614554565b60009283526009016020525060409020600301546201000090046001600160401b031690565b6000806126eb836136b6565b6127075760405162461bcd60e51b815260040161022290614554565b6000928352600901602052506040902060030154600160501b90046001600160401b031690565b60004261273d84610258614320565b11604051806040016040528060148152602001734576656e743a204f6c64207369676e617475726560601b815250906127895760405162461bcd60e51b81526004016102229190614209565b506040805160208082018790528183018690528251808303840181526060830184528051908201207b0ca2ba3432b932bab69029b4b3b732b21026b2b9b9b0b3b29d05199960211b6080840152609c8084018290528451808503909101815260bc8401855280519083012060115460e08086018b905286518087039091018152610100909501865292840180516001600160e01b03166331a9108f60e11b179052935190939260009283926001600160a01b0390911691612849916142a6565b6000604051808303816000865af19150503d8060008114612886576040519150601f19603f3d011682016040523d82523d6000602084013e61288b565b606091505b5091509150816040518060400160405280601d81526020016000805160206148ec833981519152815250906128d35760405162461bcd60e51b81526004016102229190614209565b50808060200190518101906128e89190614411565b6001600160a01b03166128fb84886136d3565b6001600160a01b03161498975050505050505050565b6060816000036129385750506040805180820190915260018152600360fc1b602082015290565b8160005b8115612962578061294c81614333565b915061295b9050600a8361459c565b915061293c565b6000816001600160401b0381111561297c5761297c6139cd565b6040519080825280601f01601f1916602001820160405280156129a6576020820181803683370190505b5090505b8415612a11576129bb6001836143fe565b91506129c8600a866145b0565b6129d3906030614320565b60f81b8183815181106129e8576129e861430a565b60200101906001600160f81b031916908160001a905350612a0a600a8661459c565b94506129aa565b949350505050565b60008881526009602052604081206002018054889290612a3a908490614320565b90915550506000878152600a602052604081206008018054889290612a60908490614320565b909155505060008881526009602052604080822060030154601154915163290be4dd60e01b8152620100009091046001600160401b031692916001600160a01b03169063290be4dd90612ac7908d908d908d908d908d908d908d908d908d906004016145c4565b6020604051808303816000875af1158015612ae6573d6000803e3d6000fd5b505050506040513d601f19601f82011682018060405250810190612b0a919061462b565b60008a8152600a602090815260408220600201805460018101825590835290822001829055909150612b3b88612911565b612b4488612911565b604051602001612b5592919061434c565b60408051601f1981840301815282825260008e8152600c60205291909120909250600191612b849084906142a6565b9081526040805160209281900383019020805460ff19169315159390931790925560008c8152600d82528281208590558d8152600e82528281206001600160a01b0388168252909152908120805460019290612be1908490614320565b909155505060008b8152600f602090815260408083206001600160a01b0388168085529083528184208054600181018255908552938390209093018590558051858152918201929092527f6606e4c8a88792ed4fd5159f9be235ca78e87fc1cbdc6158ea92d3ed3be9bf729101610be6565b6000805b6000858152600f602090815260408083206001600160a01b0387168452909152902054811015612cde576000858152600f602090815260408083206001600160a01b03871684529091529020805485919083908110612cb857612cb861430a565b906000526020600020015403612ccc578091505b80612cd681614333565b915050612c57565b506000848152600f602090815260408083206001600160a01b038616845290915290208054612d0f906001906143fe565b81548110612d1f57612d1f61430a565b6000918252602080832090910154868352600f825260408084206001600160a01b03871685529092529120805483908110612d5c57612d5c61430a565b6000918252602080832090910192909255858152600f825260408082206001600160a01b038616835290925220805480612d9857612d9861453e565b6001900381819060005260206000200160009055905550505050565b612dbd826136b6565b6040518060400160405280601b815260200160008051602061479183398151915281525090612dff5760405162461bcd60e51b81526004016102229190614209565b506000818152600a6020908152604091829020548251808401909352601e83526000805160206147dd83398151915291830191909152612e525760405162461bcd60e51b81526004016102229190614209565b50816000600a01600083815260200190815260200160002060070154146040518060600160405280602981526020016146bb6029913990612ea65760405162461bcd60e51b81526004016102229190614209565b5060008281526009602090815260409182902060030154825160608101909352603180845260ff909116151560011492916147fd9083013990612efc5760405162461bcd60e51b81526004016102229190614209565b506000818152600a6020908152604091829020600e0154825160608101909352603080845260ff909116151560011492916146e49083013990612f525760405162461bcd60e51b81526004016102229190614209565b506000818152600a60205260409020600501544210801590612f8557506000818152600a60205260409020600601544211155b6040518060600160405280602981526020016146456029913990612fbc5760405162461bcd60e51b81526004016102229190614209565b50600082815260096020908152604080832060010154600e8352818420338552835292819020548151606081019092526026808352931192909161488e908301399061301b5760405162461bcd60e51b81526004016102229190614209565b505050565b815161302c9082614320565b6000848152600a60205260409020600481015460029091015491925090613054908390614320565b1115604051806060016040528060238152602001614978602391399061308d5760405162461bcd60e51b81526004016102229190614209565b506000838152600a602081905260409091200154156131e25760005b6000848152600a602081905260409091200154811015611f9f5782516000858152600a60208190526040909120018054839081106130e9576130e961430a565b9060005260206000200154036131d0576000848152600a60205260408120600b0180548390811061311c5761311c61430a565b9060005260206000200154606461313391906143e7565b6000868152600a602052604081206003015491925090613153908361363f565b6020808701516000898152600a9092526040909120600301549192509061317b9083906143fe565b14604051806040016040528060198152602001784576656e743a2057726f6e67207469636b657420707269636560381b815250906131cc5760405162461bcd60e51b81526004016102229190614209565b5050505b806131da81614333565b9150506130a9565b6020808301516000858152600a835260409081902060030154815180830190925260198252784576656e743a2057726f6e67207469636b657420707269636560381b938201939093529114611f9f5760405162461bcd60e51b81526004016102229190614209565b6000838152600a6020526040812060090154819060ff16151560010361331c576000868152600c6020526040902061328185612911565b61328a85612911565b60405160200161329b92919061434c565b60408051601f19818403018152908290526132b5916142a6565b90815260408051918290036020908101832054838301909252601583527422bb32b73a1d10283630b1b29034b9903a30b5b2b760591b9083015260ff16156133105760405162461bcd60e51b81526004016102229190614209565b50838391509150613323565b5060009050805b94509492505050565b601154604051633ee1bcfd60e11b815260048101839052600091829182918291829182916001600160a01b0390911690637dc379fa90602401600060405180830381865afa158015613382573d6000803e3d6000fd5b505050506040513d6000823e601f3d908101601f191682016040526133aa919081019061448f565b60008981526009602052604090206003015481519192506201000090046001600160401b039081169116146133ec576060015160019550935061363892505050565b60005b60008981526009602052604090206004015481101561352457600089815260096020526040902060040180548290811061342b5761342b61430a565b906000526020600020906002020160000154421161351257821515600003613492576000898152600960205260409020600401805460019450829081106134745761347461430a565b600091825260209091206001600290920201015460ff169350613512565b60008981526009602052604090206004018054859190839081106134b8576134b861430a565b600091825260209091206001600290920201015460ff1611156135125760008981526009602052604090206004018054829081106134f8576134f861430a565b600091825260209091206001600290920201015460ff1693505b8061351c81614333565b9150506133ef565b5081151560010361363057601154604051602481018990526044810185905260009182916001600160a01b039091169060640160408051601f198184030181529181526020820180516001600160e01b03166375c8c9bd60e11b1790525161358c91906142a6565b6000604051808303816000865af19150503d80600081146135c9576040519150601f19603f3d011682016040523d82523d6000602084013e6135ce565b606091505b5091509150816040518060400160405280601d81526020016000805160206148ec833981519152815250906136165760405162461bcd60e51b81526004016102229190614209565b508080602001905181019061362b919061462b565b955050505b509350909150505b9250929050565b600061271061364e83856143e7565b10156136965760405162461bcd60e51b8152602060048201526017602482015276050657263656e746167653a20526f756e647320746f203604c1b6044820152606401610222565b6127106136a383856143e7565b6136ad919061459c565b90505b92915050565b6000908152600260205260409020546001600160a01b0316151590565b60008060006136e285856136f7565b915091506136ef81613739565b509392505050565b600080825160410361372d5760208301516040840151606085015160001a613721878285856138ed565b94509450505050613638565b50600090506002613638565b600081600481111561374d5761374d61421c565b036137555750565b60018160048111156137695761376961421c565b036137b15760405162461bcd60e51b815260206004820152601860248201527745434453413a20696e76616c6964207369676e617475726560401b6044820152606401610222565b60028160048111156137c5576137c561421c565b036138125760405162461bcd60e51b815260206004820152601f60248201527f45434453413a20696e76616c6964207369676e6174757265206c656e677468006044820152606401610222565b60038160048111156138265761382661421c565b0361387e5760405162461bcd60e51b815260206004820152602260248201527f45434453413a20696e76616c6964207369676e6174757265202773272076616c604482015261756560f01b6064820152608401610222565b60048160048111156138925761389261421c565b036138ea5760405162461bcd60e51b815260206004820152602260248201527f45434453413a20696e76616c6964207369676e6174757265202776272076616c604482015261756560f01b6064820152608401610222565b50565b6000806fa2a8918ca85bafe22016d0b997e4df60600160ff1b0383111561391a5750600090506003613323565b8460ff16601b1415801561393257508460ff16601c14155b156139435750600090506004613323565b6040805160008082526020820180845289905260ff881692820192909252606081018690526080810185905260019060a0016020604051602081039080840390855afa158015613997573d6000803e3d6000fd5b5050604051601f1901519150506001600160a01b0381166139c057600060019250925050613323565b9660009650945050505050565b634e487b7160e01b600052604160045260246000fd5b604080519081016001600160401b0381118282101715613a0557613a056139cd565b60405290565b604051606081016001600160401b0381118282101715613a0557613a056139cd565b60405160e081016001600160401b0381118282101715613a0557613a056139cd565b604051601f8201601f191681016001600160401b0381118282101715613a7757613a776139cd565b604052919050565b60006001600160401b03821115613a9857613a986139cd565b50601f01601f191660200190565b6000613ab9613ab484613a7f565b613a4f565b9050828152838383011115613acd57600080fd5b828260208301376000602084830101529392505050565b60008060008060808587031215613afa57600080fd5b84359350602085013592506040850135915060608501356001600160401b03811115613b2557600080fd5b8501601f81018713613b3657600080fd5b613b4587823560208401613aa6565b91505092959194509250565b60006001600160401b03821115613b6a57613b6a6139cd565b5060051b60200190565b6000613b82613ab484613b51565b8381529050602080820190600685901b840186811115613ba157600080fd5b845b81811015613bde5760408189031215613bbc5760008081fd5b613bc46139e3565b813581528382013584820152845292820192604001613ba3565b505050509392505050565b6001600160a01b03811681146138ea57600080fd5b600082601f830112613c0f57600080fd5b81356020613c1f613ab483613b51565b82815260059290921b84018101918181019086841115613c3e57600080fd5b8286015b84811015613c925780356001600160401b03811115613c615760008081fd5b8701603f81018913613c735760008081fd5b613c84898683013560408401613aa6565b845250918301918301613c42565b509695505050505050565b60008060008060808587031215613cb357600080fd5b843593506020808601356001600160401b0380821115613cd257600080fd5b818801915088601f830112613ce657600080fd5b613cf4898335858501613b74565b9550604091508188013581811115613d0b57600080fd5b8801601f81018a13613d1c57600080fd5b8035613d2a613ab482613b51565b8181526060918202830186019186820191908d841115613d4957600080fd5b938701935b83851015613d9a5780858f031215613d665760008081fd5b613d6e613a0b565b85358152888601358982015287860135613d8781613be9565b8189015283529384019391870191613d4e565b9098508b0135955050505080831115613db257600080fd5b5050613b4587828801613bfe565b600082601f830112613dd157600080fd5b81356020613de1613ab483613b51565b82815260059290921b84018101918181019086841115613e0057600080fd5b8286015b84811015613c92578035613e1781613be9565b8352918301918301613e04565b600080600060608486031215613e3957600080fd5b833592506020808501356001600160401b0380821115613e5857600080fd5b818701915087601f830112613e6c57600080fd5b8135613e7a613ab482613b51565b81815260059190911b8301840190848101908a831115613e9957600080fd5b938501935b82851015613eb757843582529385019390850190613e9e565b965050506040870135925080831115613ecf57600080fd5b5050613edd86828701613dc0565b9150509250925092565b600082601f830112613ef857600080fd5b6136ad83833560208501613b74565b600080600080600060a08688031215613f1f57600080fd5b853594506020860135935060408601356001600160401b0380821115613f4457600080fd5b613f5089838a01613ee7565b94506060880135915080821115613f6657600080fd5b613f7289838a01613ee7565b93506080880135915080821115613f8857600080fd5b50613f9588828901613bfe565b9150509295509295909350565b6000808284036060811215613fb657600080fd5b833592506040601f1982011215613fcc57600080fd5b50613fd56139e3565b60208401358152604084013560ff81168114613ff057600080fd5b6020820152919491935090915050565b6000806000806080858703121561401657600080fd5b8435935060208501359250604085013561402f81613be9565b9150606085013561403f81613be9565b939692955090935050565b60006060828403121561405c57600080fd5b604051606081016001600160401b038111828210171561407e5761407e6139cd565b80604052508235815260208301356020820152604083013560408201528091505092915050565b6000602082840312156140b757600080fd5b5035919050565b6020808252825182820181905260009190848201906040850190845b818110156140f6578351835292840192918401916001016140da565b50909695505050505050565b6000806000806080858703121561411857600080fd5b84356001600160401b038082111561412f57600080fd5b818701915087601f83011261414357600080fd5b61415288833560208501613b74565b9550602087013591508082111561416857600080fd5b61417488838901613ee7565b9450604087013591508082111561418a57600080fd5b61419688838901613ee7565b935060608701359150808211156141ac57600080fd5b50613b4587828801613bfe565b60005b838110156141d45781810151838201526020016141bc565b50506000910152565b600081518084526141f58160208601602086016141b9565b601f01601f19169290920160200192915050565b6020815260006136ad60208301846141dd565b634e487b7160e01b600052602160045260246000fd5b634e487b7160e01b600052601160045260246000fd5b6001600160401b0382811682821603908082111561426857614268614232565b5092915050565b60018060a01b038516815283602082015282604082015260806060820152600061429c60808301846141dd565b9695505050505050565b600082516142b88184602087016141b9565b9190910192915050565b6000602082840312156142d457600080fd5b815180151581146142e457600080fd5b9392505050565b92835260208301919091526001600160a01b0316604082015260600190565b634e487b7160e01b600052603260045260246000fd5b808201808211156136b0576136b0614232565b60006001820161434557614345614232565b5060010190565b6000835161435e8184602088016141b9565b8351908301906143728183602088016141b9565b01949350505050565b6000606082018583526020606081850152818651808452608086019150828801935060005b818110156143c55784516001600160a01b0316835293830193918301916001016143a0565b50506001600160a01b0395909516604094909401939093525091949350505050565b80820281158282048414176136b0576136b0614232565b818103818111156136b0576136b0614232565b60006020828403121561442357600080fd5b81516142e481613be9565b80516001600160401b038116811461444557600080fd5b919050565b600082601f83011261445b57600080fd5b8151614469613ab482613a7f565b81815284602083860101111561447e57600080fd5b612a118260208301602087016141b9565b6000602082840312156144a157600080fd5b81516001600160401b03808211156144b857600080fd5b9083019060e082860312156144cc57600080fd5b6144d4613a2d565b6144dd8361442e565b81526020830151602082015260408301516040820152606083015160608201526080830151608082015260a083015160a082015260c08301518281111561452357600080fd5b61452f8782860161444a565b60c08301525095945050505050565b634e487b7160e01b600052603160045260246000fd5b602080825260189082015277115490cd4c0c0dce88125b9d985b1a59081d1bdad95b925960421b604082015260600190565b634e487b7160e01b600052601260045260246000fd5b6000826145ab576145ab614586565b500490565b6000826145bf576145bf614586565b500690565b60006101208b83528a60208401528960408401528860608401528760808401528060a08401526145f6818401886141dd565b95151560c084015250506001600160a01b039290921660e08301526001600160401b0316610100909101529695505050505050565b60006020828403121561463d57600080fd5b505191905056fe4576656e743a2043616e277420627579207469636b65747320666f722063617465676f7279207965744576656e743a204d73672076616c7565206e6f7420657120746f74616c2070726963654576656e743a2043616c6c6572206973206e6f7420616e2061646d696e206f72206d6f64657261746f724576656e743a20546869732063617465676f727920697320666f7220616e6f74686572206576656e744576656e743a205469636b65747320666f7220746869732063617465676f727920617265206e6f742062757961626c654576656e743a204f6e6c7920636173686965722063616e20776974686472617720636f6e74726163742062616c616e63654576656e743a20436f6e74726163742062616c616e63652077697468647261772072657665727465644576656e743a2041636320726566756e642077697468647261772072657665727465644576656e743a204576656e7420646f6573206e6f7420657869737400000000004576656e743a205469636b657420646f65736e277420657869737420696e20746869732063617465676f72794576656e743a2043617465676f727920646f6573206e6f7420657869737400004576656e743a205469636b65747320666f7220616c6c2063617465676f7269657320617265206e6f742062757961626c654576656e743a20506172616d6574657273206c656e677468206e6f74206571004576656e743a204576656e742063616e63656c6564000000000000000000000071f3d55856e4058ed06ee057d79ada615f65cdf5f9ee88181b914225088f834f4576656e743a204d6178207469636b65747320666f72206163636f756e7420726561636865644576656e743a2043616c6c6572206973206e6f7420616e2061646d696e2c206d6f64657261746f72206f7220726563657074696f6e6973744576656e743a20436f6e74726163742063616c6c2072657665727465640000004576656e743a2043616e277420726566756e6420666f722074686973206576656e744576656e743a20506172616d657465722061727261792063616e277420626520656d7074794576656e743a2057726f6e67206461746520666f72207469636b657420636c697070696e674576656e743a204d6178207469636b65747320636f756e742069732072656163686564a26469706673582212203256ae6085b3ad5fc7f90725b87c064e3b9a7dd6f6609f2fa7e4187c9f82f70164736f6c63430008110033",
  "linkReferences": {},
  "deployedLinkReferences": {}
}