{
  "_format": "hh-sol-artifact-1",
  "contractName": "EventFacet",
  "sourceName": "contracts/EventDiamond/facets/EventFacet.sol",
  "abi": [
    {
      "anonymous": false,
      "inputs": [
        {
          "indexed": true,
          "internalType": "address",
          "name": "owner",
          "type": "address"
        },
        {
          "indexed": true,
          "internalType": "address",
          "name": "approved",
          "type": "address"
        },
        {
          "indexed": true,
          "internalType": "uint256",
          "name": "tokenId",
          "type": "uint256"
        }
      ],
      "name": "Approval",
      "type": "event"
    },
    {
      "anonymous": false,
      "inputs": [
        {
          "indexed": true,
          "internalType": "address",
          "name": "owner",
          "type": "address"
        },
        {
          "indexed": true,
          "internalType": "address",
          "name": "operator",
          "type": "address"
        },
        {
          "indexed": false,
          "internalType": "bool",
          "name": "approved",
          "type": "bool"
        }
      ],
      "name": "ApprovalForAll",
      "type": "event"
    },
    {
      "anonymous": false,
      "inputs": [
        {
          "indexed": false,
          "internalType": "uint256",
          "name": "_fromTokenId",
          "type": "uint256"
        },
        {
          "indexed": false,
          "internalType": "uint256",
          "name": "_toTokenId",
          "type": "uint256"
        }
      ],
      "name": "BatchMetadataUpdate",
      "type": "event"
    },
    {
      "anonymous": false,
      "inputs": [
        {
          "indexed": false,
          "internalType": "uint256",
          "name": "eventId",
          "type": "uint256"
        }
      ],
      "name": "EventCanceled",
      "type": "event"
    },
    {
      "anonymous": false,
      "inputs": [
        {
          "indexed": false,
          "internalType": "uint256",
          "name": "eventId",
          "type": "uint256"
        },
        {
          "indexed": false,
          "internalType": "address",
          "name": "account",
          "type": "address"
        },
        {
          "indexed": false,
          "internalType": "address",
          "name": "setter",
          "type": "address"
        }
      ],
      "name": "EventCashierSet",
      "type": "event"
    },
    {
      "anonymous": false,
      "inputs": [
        {
          "indexed": false,
          "internalType": "uint256",
          "name": "eventId",
          "type": "uint256"
        },
        {
          "indexed": false,
          "internalType": "string",
          "name": "metadataUri",
          "type": "string"
        }
      ],
      "name": "EventCreated",
      "type": "event"
    },
    {
      "anonymous": false,
      "inputs": [
        {
          "indexed": false,
          "internalType": "uint256",
          "name": "eventId",
          "type": "uint256"
        },
        {
          "indexed": false,
          "internalType": "uint256",
          "name": "time",
          "type": "uint256"
        }
      ],
      "name": "EventPostponed",
      "type": "event"
    },
    {
      "anonymous": false,
      "inputs": [
        {
          "indexed": false,
          "internalType": "uint256",
          "name": "_tokenId",
          "type": "uint256"
        }
      ],
      "name": "MetadataUpdate",
      "type": "event"
    },
    {
      "anonymous": false,
      "inputs": [
        {
          "indexed": false,
          "internalType": "uint256",
          "name": "eventId",
          "type": "uint256"
        },
        {
          "indexed": true,
          "internalType": "bytes32",
          "name": "role",
          "type": "bytes32"
        },
        {
          "indexed": true,
          "internalType": "bytes32",
          "name": "previousAdminRole",
          "type": "bytes32"
        },
        {
          "indexed": true,
          "internalType": "bytes32",
          "name": "newAdminRole",
          "type": "bytes32"
        }
      ],
      "name": "RoleAdminChanged",
      "type": "event"
    },
    {
      "anonymous": false,
      "inputs": [
        {
          "indexed": false,
          "internalType": "uint256",
          "name": "eventId",
          "type": "uint256"
        },
        {
          "indexed": true,
          "internalType": "bytes32",
          "name": "role",
          "type": "bytes32"
        },
        {
          "indexed": true,
          "internalType": "address",
          "name": "account",
          "type": "address"
        },
        {
          "indexed": true,
          "internalType": "address",
          "name": "sender",
          "type": "address"
        }
      ],
      "name": "RoleGranted",
      "type": "event"
    },
    {
      "anonymous": false,
      "inputs": [
        {
          "indexed": false,
          "internalType": "uint256",
          "name": "eventId",
          "type": "uint256"
        },
        {
          "indexed": true,
          "internalType": "bytes32",
          "name": "role",
          "type": "bytes32"
        },
        {
          "indexed": true,
          "internalType": "address",
          "name": "account",
          "type": "address"
        },
        {
          "indexed": true,
          "internalType": "address",
          "name": "sender",
          "type": "address"
        }
      ],
      "name": "RoleRevoked",
      "type": "event"
    },
    {
      "anonymous": false,
      "inputs": [
        {
          "indexed": true,
          "internalType": "address",
          "name": "from",
          "type": "address"
        },
        {
          "indexed": true,
          "internalType": "address",
          "name": "to",
          "type": "address"
        },
        {
          "indexed": true,
          "internalType": "uint256",
          "name": "tokenId",
          "type": "uint256"
        }
      ],
      "name": "Transfer",
      "type": "event"
    },
    {
      "inputs": [
        {
          "internalType": "uint256",
          "name": "_eventId",
          "type": "uint256"
        },
        {
          "internalType": "bytes32",
          "name": "_role",
          "type": "bytes32"
        },
        {
          "internalType": "address",
          "name": "_account",
          "type": "address"
        }
      ],
      "name": "addTeamMember",
      "outputs": [],
      "stateMutability": "nonpayable",
      "type": "function"
    },
    {
      "inputs": [
        {
          "internalType": "address",
          "name": "to",
          "type": "address"
        },
        {
          "internalType": "uint256",
          "name": "tokenId",
          "type": "uint256"
        }
      ],
      "name": "approve",
      "outputs": [],
      "stateMutability": "nonpayable",
      "type": "function"
    },
    {
      "inputs": [
        {
          "internalType": "address",
          "name": "owner",
          "type": "address"
        }
      ],
      "name": "balanceOf",
      "outputs": [
        {
          "internalType": "uint256",
          "name": "",
          "type": "uint256"
        }
      ],
      "stateMutability": "view",
      "type": "function"
    },
    {
      "inputs": [
        {
          "internalType": "uint256",
          "name": "_eventId",
          "type": "uint256"
        }
      ],
      "name": "cancelEvent",
      "outputs": [],
      "stateMutability": "nonpayable",
      "type": "function"
    },
    {
      "inputs": [
        {
          "internalType": "uint256",
          "name": "_maxTicketsPerClient",
          "type": "uint256"
        },
        {
          "internalType": "uint64",
          "name": "_startDate",
          "type": "uint64"
        },
        {
          "internalType": "uint64",
          "name": "_endDate",
          "type": "uint64"
        },
        {
          "internalType": "string",
          "name": "_metadataURI",
          "type": "string"
        }
      ],
      "name": "createEvent",
      "outputs": [],
      "stateMutability": "nonpayable",
      "type": "function"
    },
    {
      "inputs": [
        {
          "internalType": "uint256",
          "name": "tokenId",
          "type": "uint256"
        }
      ],
      "name": "endTime",
      "outputs": [
        {
          "internalType": "uint64",
          "name": "",
          "type": "uint64"
        }
      ],
      "stateMutability": "view",
      "type": "function"
    },
    {
      "inputs": [],
      "name": "fetchAllEventIds",
      "outputs": [
        {
          "internalType": "uint256[]",
          "name": "",
          "type": "uint256[]"
        }
      ],
      "stateMutability": "view",
      "type": "function"
    },
    {
      "inputs": [],
      "name": "fetchAllEvents",
      "outputs": [
        {
          "components": [
            {
              "internalType": "address",
              "name": "organizer",
              "type": "address"
            },
            {
              "internalType": "uint256",
              "name": "maxTicketsPerClient",
              "type": "uint256"
            },
            {
              "internalType": "uint256",
              "name": "balance",
              "type": "uint256"
            },
            {
              "internalType": "bool",
              "name": "areAllCategoryTicketsBuyable",
              "type": "bool"
            },
            {
              "internalType": "enum EventStatus",
              "name": "status",
              "type": "uint8"
            },
            {
              "internalType": "uint64",
              "name": "startTime",
              "type": "uint64"
            },
            {
              "internalType": "uint64",
              "name": "endTime",
              "type": "uint64"
            },
            {
              "components": [
                {
                  "internalType": "uint256",
                  "name": "date",
                  "type": "uint256"
                },
                {
                  "internalType": "uint8",
                  "name": "percentage",
                  "type": "uint8"
                }
              ],
              "internalType": "struct RefundData[]",
              "name": "refundData",
              "type": "tuple[]"
            }
          ],
          "internalType": "struct Event[]",
          "name": "",
          "type": "tuple[]"
        }
      ],
      "stateMutability": "view",
      "type": "function"
    },
    {
      "inputs": [
        {
          "internalType": "uint256",
          "name": "_eventId",
          "type": "uint256"
        }
      ],
      "name": "fetchEventById",
      "outputs": [
        {
          "components": [
            {
              "internalType": "address",
              "name": "organizer",
              "type": "address"
            },
            {
              "internalType": "uint256",
              "name": "maxTicketsPerClient",
              "type": "uint256"
            },
            {
              "internalType": "uint256",
              "name": "balance",
              "type": "uint256"
            },
            {
              "internalType": "bool",
              "name": "areAllCategoryTicketsBuyable",
              "type": "bool"
            },
            {
              "internalType": "enum EventStatus",
              "name": "status",
              "type": "uint8"
            },
            {
              "internalType": "uint64",
              "name": "startTime",
              "type": "uint64"
            },
            {
              "internalType": "uint64",
              "name": "endTime",
              "type": "uint64"
            },
            {
              "components": [
                {
                  "internalType": "uint256",
                  "name": "date",
                  "type": "uint256"
                },
                {
                  "internalType": "uint8",
                  "name": "percentage",
                  "type": "uint8"
                }
              ],
              "internalType": "struct RefundData[]",
              "name": "refundData",
              "type": "tuple[]"
            }
          ],
          "internalType": "struct Event",
          "name": "eventObj",
          "type": "tuple"
        }
      ],
      "stateMutability": "view",
      "type": "function"
    },
    {
      "inputs": [],
      "name": "fetchOwnedEvents",
      "outputs": [
        {
          "internalType": "uint256[]",
          "name": "",
          "type": "uint256[]"
        }
      ],
      "stateMutability": "view",
      "type": "function"
    },
    {
      "inputs": [
        {
          "internalType": "uint256",
          "name": "tokenId",
          "type": "uint256"
        }
      ],
      "name": "getApproved",
      "outputs": [
        {
          "internalType": "address",
          "name": "",
          "type": "address"
        }
      ],
      "stateMutability": "view",
      "type": "function"
    },
    {
      "inputs": [
        {
          "internalType": "uint256",
          "name": "eventId",
          "type": "uint256"
        }
      ],
      "name": "getEventMembers",
      "outputs": [
        {
          "components": [
            {
              "internalType": "address",
              "name": "account",
              "type": "address"
            },
            {
              "internalType": "bytes32",
              "name": "role",
              "type": "bytes32"
            }
          ],
          "internalType": "struct MemberData[]",
          "name": "",
          "type": "tuple[]"
        }
      ],
      "stateMutability": "view",
      "type": "function"
    },
    {
      "inputs": [
        {
          "internalType": "uint256",
          "name": "eventId",
          "type": "uint256"
        },
        {
          "internalType": "bytes32",
          "name": "role",
          "type": "bytes32"
        }
      ],
      "name": "getRoleAdmin",
      "outputs": [
        {
          "internalType": "bytes32",
          "name": "",
          "type": "bytes32"
        }
      ],
      "stateMutability": "view",
      "type": "function"
    },
    {
      "inputs": [
        {
          "internalType": "uint256",
          "name": "eventId",
          "type": "uint256"
        },
        {
          "internalType": "bytes32",
          "name": "role",
          "type": "bytes32"
        },
        {
          "internalType": "address",
          "name": "account",
          "type": "address"
        }
      ],
      "name": "grantRole",
      "outputs": [],
      "stateMutability": "nonpayable",
      "type": "function"
    },
    {
      "inputs": [
        {
          "internalType": "uint256",
          "name": "eventId",
          "type": "uint256"
        },
        {
          "internalType": "bytes32",
          "name": "role",
          "type": "bytes32"
        },
        {
          "internalType": "address",
          "name": "account",
          "type": "address"
        }
      ],
      "name": "hasRole",
      "outputs": [
        {
          "internalType": "bool",
          "name": "",
          "type": "bool"
        }
      ],
      "stateMutability": "view",
      "type": "function"
    },
    {
      "inputs": [
        {
          "internalType": "address",
          "name": "owner",
          "type": "address"
        },
        {
          "internalType": "address",
          "name": "operator",
          "type": "address"
        }
      ],
      "name": "isApprovedForAll",
      "outputs": [
        {
          "internalType": "bool",
          "name": "",
          "type": "bool"
        }
      ],
      "stateMutability": "view",
      "type": "function"
    },
    {
      "inputs": [],
      "name": "name",
      "outputs": [
        {
          "internalType": "string",
          "name": "",
          "type": "string"
        }
      ],
      "stateMutability": "view",
      "type": "function"
    },
    {
      "inputs": [
        {
          "internalType": "uint256",
          "name": "tokenId",
          "type": "uint256"
        }
      ],
      "name": "ownerOf",
      "outputs": [
        {
          "internalType": "address",
          "name": "",
          "type": "address"
        }
      ],
      "stateMutability": "view",
      "type": "function"
    },
    {
      "inputs": [
        {
          "internalType": "uint256",
          "name": "_eventId",
          "type": "uint256"
        },
        {
          "internalType": "uint64",
          "name": "_time",
          "type": "uint64"
        }
      ],
      "name": "postponeEvent",
      "outputs": [],
      "stateMutability": "nonpayable",
      "type": "function"
    },
    {
      "inputs": [
        {
          "internalType": "uint256",
          "name": "_eventId",
          "type": "uint256"
        }
      ],
      "name": "removeEvent",
      "outputs": [],
      "stateMutability": "nonpayable",
      "type": "function"
    },
    {
      "inputs": [
        {
          "internalType": "uint256",
          "name": "_eventId",
          "type": "uint256"
        },
        {
          "internalType": "bytes32",
          "name": "_role",
          "type": "bytes32"
        },
        {
          "internalType": "address",
          "name": "_account",
          "type": "address"
        }
      ],
      "name": "removeTeamMember",
      "outputs": [],
      "stateMutability": "nonpayable",
      "type": "function"
    },
    {
      "inputs": [
        {
          "internalType": "uint256",
          "name": "eventId",
          "type": "uint256"
        },
        {
          "internalType": "bytes32",
          "name": "role",
          "type": "bytes32"
        },
        {
          "internalType": "address",
          "name": "account",
          "type": "address"
        }
      ],
      "name": "renounceRole",
      "outputs": [],
      "stateMutability": "nonpayable",
      "type": "function"
    },
    {
      "inputs": [
        {
          "internalType": "uint256",
          "name": "eventId",
          "type": "uint256"
        },
        {
          "internalType": "bytes32",
          "name": "role",
          "type": "bytes32"
        },
        {
          "internalType": "address",
          "name": "account",
          "type": "address"
        }
      ],
      "name": "revokeRole",
      "outputs": [],
      "stateMutability": "nonpayable",
      "type": "function"
    },
    {
      "inputs": [
        {
          "internalType": "address",
          "name": "from",
          "type": "address"
        },
        {
          "internalType": "address",
          "name": "to",
          "type": "address"
        },
        {
          "internalType": "uint256",
          "name": "tokenId",
          "type": "uint256"
        }
      ],
      "name": "safeTransferFrom",
      "outputs": [],
      "stateMutability": "nonpayable",
      "type": "function"
    },
    {
      "inputs": [
        {
          "internalType": "address",
          "name": "from",
          "type": "address"
        },
        {
          "internalType": "address",
          "name": "to",
          "type": "address"
        },
        {
          "internalType": "uint256",
          "name": "tokenId",
          "type": "uint256"
        },
        {
          "internalType": "bytes",
          "name": "data",
          "type": "bytes"
        }
      ],
      "name": "safeTransferFrom",
      "outputs": [],
      "stateMutability": "nonpayable",
      "type": "function"
    },
    {
      "inputs": [
        {
          "internalType": "address",
          "name": "operator",
          "type": "address"
        },
        {
          "internalType": "bool",
          "name": "approved",
          "type": "bool"
        }
      ],
      "name": "setApprovalForAll",
      "outputs": [],
      "stateMutability": "nonpayable",
      "type": "function"
    },
    {
      "inputs": [
        {
          "internalType": "uint256",
          "name": "_eventId",
          "type": "uint256"
        },
        {
          "internalType": "address",
          "name": "_oldCashier",
          "type": "address"
        },
        {
          "internalType": "address",
          "name": "_newCashier",
          "type": "address"
        }
      ],
      "name": "setEventCashier",
      "outputs": [],
      "stateMutability": "nonpayable",
      "type": "function"
    },
    {
      "inputs": [
        {
          "internalType": "uint256",
          "name": "tokenId",
          "type": "uint256"
        }
      ],
      "name": "startTime",
      "outputs": [
        {
          "internalType": "uint64",
          "name": "",
          "type": "uint64"
        }
      ],
      "stateMutability": "view",
      "type": "function"
    },
    {
      "inputs": [
        {
          "internalType": "bytes4",
          "name": "interfaceId",
          "type": "bytes4"
        }
      ],
      "name": "supportsInterface",
      "outputs": [
        {
          "internalType": "bool",
          "name": "",
          "type": "bool"
        }
      ],
      "stateMutability": "view",
      "type": "function"
    },
    {
      "inputs": [],
      "name": "symbol",
      "outputs": [
        {
          "internalType": "string",
          "name": "",
          "type": "string"
        }
      ],
      "stateMutability": "view",
      "type": "function"
    },
    {
      "inputs": [
        {
          "internalType": "uint256",
          "name": "tokenId",
          "type": "uint256"
        }
      ],
      "name": "tokenURI",
      "outputs": [
        {
          "internalType": "string",
          "name": "",
          "type": "string"
        }
      ],
      "stateMutability": "view",
      "type": "function"
    },
    {
      "inputs": [
        {
          "internalType": "address",
          "name": "from",
          "type": "address"
        },
        {
          "internalType": "address",
          "name": "to",
          "type": "address"
        },
        {
          "internalType": "uint256",
          "name": "tokenId",
          "type": "uint256"
        }
      ],
      "name": "transferFrom",
      "outputs": [],
      "stateMutability": "nonpayable",
      "type": "function"
    },
    {
      "inputs": [
        {
          "internalType": "uint256",
          "name": "_eventId",
          "type": "uint256"
        },
        {
          "internalType": "string",
          "name": "_newMetadataURI",
          "type": "string"
        }
      ],
      "name": "updateEventTokenUri",
      "outputs": [],
      "stateMutability": "nonpayable",
      "type": "function"
    },
    {
      "inputs": [
        {
          "internalType": "uint256",
          "name": "_eventId",
          "type": "uint256"
        }
      ],
      "name": "withdrawFromCanceledEvent",
      "outputs": [],
      "stateMutability": "nonpayable",
      "type": "function"
    }
  ],
  "bytecode": "0x608060405234801561001057600080fd5b50613fcd806100206000396000f3fe608060405234801561001057600080fd5b50600436106101965760003560e01c806301ffc9a71461019b57806306fdde03146101c4578063081812fc146101d9578063095ea7b3146102045780630d517286146102195780630e1b943d14610239578063119345aa146102595780632053d82c1461026c57806323b872dd1461027f5780633660ff8314610292578063397d4dbc146102a75780633ec4c968146102c85780633f69babd146102f357806342842e0e1461030657806344c816fa146103195780634a120dd71461032c57806356164e1e1461033f578063598be85c146103525780636352211e146103655780636a4bc7de1461037857806370a082311461038b578063724bdedf1461039e5780637986b230146103b157806395d89b41146103c4578063a22cb465146103cc578063a3cfe160146103df578063abae6af9146103f2578063b015554414610407578063b88d4fde1461041a578063c87b56dd1461042d578063dc91a98f14610440578063e985e9c514610453578063f99c229214610466578063fb42204d1461046e575b600080fd5b6101af6101a9366004613356565b50600090565b60405190151581526020015b60405180910390f35b6101cc610481565b6040516101bb91906133c3565b6101ec6101e73660046133d6565b610518565b6040516001600160a01b0390911681526020016101bb565b610217610212366004613404565b610541565b005b61022c6102273660046133d6565b61065b565b6040516101bb9190613537565b61024c6102473660046133d6565b6107ed565b6040516101bb919061354a565b6101af6102673660046135a2565b61086c565b61021761027a366004613686565b6108a3565b61021761028d3660046136cc565b6109a8565b61029a6109d9565b6040516101bb919061370d565b6102ba6102b536600461376f565b610c1b565b6040519081526020016101bb565b6102db6102d63660046133d6565b610c3f565b6040516001600160401b0390911681526020016101bb565b6102176103013660046133d6565b610c4a565b6102176103143660046136cc565b611089565b6102db6103273660046133d6565b6110a4565b61021761033a3660046135a2565b6110af565b61021761034d3660046133d6565b6110d6565b610217610360366004613791565b6113ed565b6101ec6103733660046133d6565b611570565b6102176103863660046135a2565b6115ae565b6102ba6103993660046137c8565b6116d0565b6102176103ac3660046135a2565b61175c565b6102176103bf3660046133d6565b6117d5565b6101cc61199c565b6102176103da3660046137e5565b6119af565b6102176103ed36600461383f565b6119be565b6103fa611bcd565b6040516101bb91906138a6565b6102176104153660046135a2565b611d18565b6102176104283660046138ea565b611e38565b6101cc61043b3660046133d6565b611e6a565b61021761044e36600461395d565b611fb1565b6101af610461366004613989565b61230e565b6103fa61233c565b61021761047c3660046135a2565b612441565b60606000806000018054610494906139b7565b80601f01602080910402602001604051908101604052809291908181526020018280546104c0906139b7565b801561050d5780601f106104e25761010080835404028352916020019161050d565b820191906000526020600020905b8154815290600101906020018083116104f057829003601f168201915b505050505091505090565b60008061052483612461565b60009283526004016020525060409020546001600160a01b031690565b600061054c82611570565b9050806001600160a01b0316836001600160a01b0316036105be5760405162461bcd60e51b815260206004820152602160248201527f4552433732313a20617070726f76616c20746f2063757272656e74206f776e656044820152603960f91b60648201526084015b60405180910390fd5b336001600160a01b03821614806105da57506105da813361230e565b61064c5760405162461bcd60e51b815260206004820152603e60248201527f4552433732313a20617070726f76652063616c6c6572206973206e6f7420746f60448201527f6b656e206f776e6572206e6f7220617070726f76656420666f7220616c6c000060648201526084016105b5565b6106568383612489565b505050565b61066361324a565b600082815260026020908152604091829020548251808401909352601b8352600080516020613ef8833981519152918301919091528391906001600160a01b03166106c15760405162461bcd60e51b81526004016105b591906133c3565b506000838152600960209081526040918290208251610100808201855282546001600160a01b0316825260018301549382019390935260028083015494820194909452600382015460ff8082161515606084015291949293608086019391049091169081111561073357610733613430565b600281111561074457610744613430565b815260038201546001600160401b036201000082048116602080850191909152600160501b90920416604080840191909152600484018054825181850281018501909352808352606090940193919290919060009084015b828210156107de57600084815260209081902060408051808201909152600285029091018054825260019081015460ff1682840152908352909201910161079c565b50505091525090949350505050565b6000818152601360209081526040808320805482518185028101850190935280835260609493849084015b82821015610860576000848152602090819020604080518082019091526002850290910180546001600160a01b03168252600190810154828401529083529092019101610818565b50505050915050919050565b600083815260126020908152604080832085845282528083206001600160a01b038516845290915281205460ff165b949350505050565b600082815260026020908152604091829020548251808401909352601b8352600080516020613ef8833981519152918301919091528391906001600160a01b03166109015760405162461bcd60e51b81526004016105b591906133c3565b5061090e8360003361086c565b8061092d575061092d83600080516020613f588339815191523361086c565b6040518060600160405280602a8152602001613e9d602a9139906109645760405162461bcd60e51b81526004016105b591906133c3565b5061096f83836124f8565b6040518381527ff8e1a15aba9398e019f0b49df1a4fde98ee17ae345cb5f6b5e2c27f5033e8ce7906020015b60405180910390a1505050565b6109b23382612580565b6109ce5760405162461bcd60e51b81526004016105b5906139f1565b6106568383836125de565b606060006109e660075490565b905060008060015b838111610a32576000818152600960205260409020546001600160a01b031615610a205782610a1c81613a55565b9350505b80610a2a81613a55565b9150506109ee565b506000826001600160401b03811115610a4d57610a4d6135db565b604051908082528060200260200182016040528015610a8657816020015b610a7361324a565b815260200190600190039081610a6b5790505b50905060015b848111610c12576000818152600960205260409020546001600160a01b031615610c00576000818152600960209081526040918290208251610100808201855282546001600160a01b0316825260018301549382019390935260028083015494820194909452600382015460ff80821615156060840152919492936080860193910490911690811115610b2157610b21613430565b6002811115610b3257610b32613430565b815260038201546001600160401b036201000082048116602080850191909152600160501b90920416604080840191909152600484018054825181850281018501909352808352606090940193919290919060009084015b82821015610bcc57600084815260209081902060408051808201909152600285029091018054825260019081015460ff16828401529083529092019101610b8a565b5050505081525050828481518110610be657610be6613a6e565b60200260200101819052508280610bfc90613a55565b9350505b80610c0a81613a55565b915050610a8c565b50949350505050565b60008281526012602090815260408083208484529091529020600101545b92915050565b6000610c3982612770565b600081815260026020908152604091829020548251808401909352601b8352600080516020613ef8833981519152918301919091528291906001600160a01b0316610ca85760405162461bcd60e51b81526004016105b591906133c3565b50610cb58260003361086c565b6040518060400160405280601d8152602001600080516020613f3883398151915281525090610cf75760405162461bcd60e51b81526004016105b591906133c3565b506002600083815260096020526040902060030154610100900460ff166002811115610d2557610d25613430565b141560405180604001604052806015815260200174115d995b9d0e88115d995b9d0818d85b98d95b1959605a1b81525090610d735760405162461bcd60e51b81526004016105b591906133c3565b506000805b6000848152600b6020526040902054811015610def576000848152600b602052604081208054600a92919084908110610db357610db3613a6e565b906000526020600020015481526020019081526020016000206008015482610ddb9190613a84565b915080610de781613a55565b915050610d78565b50600083815260096020908152604091829020600201548251808401909352601e83527f4576656e743a204576656e742063616e27742062652063616e63656c65640000918301919091528214610e595760405162461bcd60e51b81526004016105b591906133c3565b5060005b6000848152600b60205260409020548110156110395760005b6000858152600b602052604081208054600a92919085908110610e9b57610e9b613a6e565b9060005260206000200154815260200190815260200160002060020180549050811015611026576011546000868152600b60205260408120805491926001600160a01b031691600a91849187908110610ef657610ef6613a6e565b906000526020600020015481526020019081526020016000206002018381548110610f2357610f23613a6e565b9060005260206000200154604051602401610f4091815260200190565b60408051601f198184030181529181526020820180516001600160e01b03166355ccad4360e01b17905251610f759190613a97565b6000604051808303816000865af19150503d8060008114610fb2576040519150601f19603f3d011682016040523d82523d6000602084013e610fb7565b606091505b5091505060008082806020019051810190610fd29190613ab3565b60008a81526010602090815260408083206001600160a01b0386168452909152812080549395509193508392611009908490613a84565b92505081905550505050808061101e90613a55565b915050610e76565b508061103181613a55565b915050610e5d565b50600083815260096020908152604091829020600301805461ff00191661020017905590518481527fceaf11772900fe569752a0207c8639fb8228eb8663456dc9eaa3a08f927a8705910161099b565b61065683838360405180602001604052806000815250611e38565b6000610c39826127be565b826110ba8484610c1b565b6110c4828261280d565b6110cf858585612818565b5050505050565b600081815260026020908152604091829020548251808401909352601b8352600080516020613ef8833981519152918301919091528291906001600160a01b03166111345760405162461bcd60e51b81526004016105b591906133c3565b506111418260003361086c565b6040518060400160405280601d8152602001600080516020613f38833981519152815250906111835760405162461bcd60e51b81526004016105b591906133c3565b506000828152600b60209081526040808320805482518185028101850190935280835291929091908301828280156111da57602002820191906000526020600020905b8154815260200190600101908083116111c6575b505050505090506000805b825181101561124b576000600a01600084838151811061120757611207613a6e565b6020026020010151815260200190815260200160002060020180549050600003611239578161123581613a55565b9250505b8061124381613a55565b9150506111e5565b50808251146040518060400160405280601d81526020017f4576656e743a2054686572652061726520736f6c64207469636b657473000000815250906112a45760405162461bcd60e51b81526004016105b591906133c3565b506112ae846128e2565b600084815260096020526040812080546001600160a01b031916815560018101829055600281018290556003810180546001600160901b0319169055906112f8600483018261328d565b50506000848152600b60205260408120611311916132ae565b60005b82518110156110cf576000600a01600084838151811061133657611336613a6e565b6020026020010151815260200190815260200160002060008082016000905560018201600061136591906132cc565b6113736002830160006132ae565b6003820160009055600482016000905560058201600090556006820160009055600782016000905560088201600090556009820160006113b391906132ae565b6113c1600a830160006132ae565b506000600b8201819055600c820155600d01805460ff19169055806113e581613a55565b915050611314565b600083815260026020908152604091829020548251808401909352601b8352600080516020613ef8833981519152918301919091528491906001600160a01b031661144b5760405162461bcd60e51b81526004016105b591906133c3565b506114588460003361086c565b6040518060400160405280601d8152602001600080516020613f388339815191528152509061149a5760405162461bcd60e51b81526004016105b591906133c3565b506114b484600080516020613f188339815191528561086c565b604051806060016040528060318152602001613ec760319139906114eb5760405162461bcd60e51b81526004016105b591906133c3565b5061150584600080516020613f18833981519152856110af565b61151e84600080516020613f1883398151915284612441565b604080518581526001600160a01b038416602082015233918101919091527f9f54db3c6775e8717da6972b09a7ed552d62f5fd63696a1a75e58f61bd240193906060015b60405180910390a150505050565b60008181526002602052604081205481906001600160a01b0316806115a75760405162461bcd60e51b81526004016105b590613ae1565b9392505050565b600083815260026020908152604091829020548251808401909352601b8352600080516020613ef8833981519152918301919091528491906001600160a01b031661160c5760405162461bcd60e51b81526004016105b591906133c3565b506116198460003361086c565b6040518060400160405280601d8152602001600080516020613f388339815191528152509061165b5760405162461bcd60e51b81526004016105b591906133c3565b5060408051808201909152601d81527f4576656e743a2043616e277420736574206361736869657220686572650000006020820152600080516020613f1883398151915284036116be5760405162461bcd60e51b81526004016105b591906133c3565b506116ca848484612441565b50505050565b6000806001600160a01b03831661173b5760405162461bcd60e51b815260206004820152602960248201527f4552433732313a2061646472657373207a65726f206973206e6f7420612076616044820152683634b21037bbb732b960b91b60648201526084016105b5565b6001600160a01b039092166000908152600390920160205250604090205490565b6001600160a01b03811633146117ca5760405162461bcd60e51b815260206004820152602d60248201527f526f6c65436f6e74726f6c3a2063616e206f6e6c792072656e6f756e6365207260448201526c37b632b9903337b91039b2b63360991b60648201526084016105b5565b610656838383612818565b6002600082815260096020526040902060030154610100900460ff16600281111561180257611802613430565b146040518060400160405280601c81526020017b115d995b9d0e88115d995b9d081a5cc81b9bdd0818d85b98d95b195960221b815250906118565760405162461bcd60e51b81526004016105b591906133c3565b50600081815260106020908152604080832033845282529182902054825180840190935260158352744576656e743a204e6f207769746864726177616c7360581b918301919091526118bb5760405162461bcd60e51b81526004016105b591906133c3565b5060008181526010602090815260408083203384528252808320805490849055848452600990925282206002018054919283926118f9908490613b13565b9091555050604051600090339083908381818185875af1925050503d8060008114611940576040519150601f19603f3d011682016040523d82523d6000602084013e611945565b606091505b50509050806040518060400160405280601b81526020017a22bb32b73a1d102330b4b632b2103a379039b2b7321022ba3432b960291b815250906116ca5760405162461bcd60e51b81526004016105b591906133c3565b60606000806001018054610494906139b7565b6119ba3383836129a7565b5050565b826001600160401b0316826001600160401b03161180156119e8575042836001600160401b031610155b60405180604001604052806018815260200177455243353030373a20496e76616c696420656e6454696d6560401b81525090611a375760405162461bcd60e51b81526004016105b591906133c3565b50611a46600780546001019055565b6000611a5160075490565b600081815260096020526040812080546001600160a01b0319163317815560018082018990556003820180546001600160401b03898116600160501b02600160501b600160901b0319918c16620100000261ff01600160501b03199093169290921790931792831681178255949550919361ff00191661ff00600160501b03600160901b0319909116176101008302179055507f9ce3d6db707bca4ba0eabed8fba1e2c013a1c0bc1132a764170a7854d198c73d8284604051611b15929190613b26565b60405180910390a1611b2982600033612a76565b611b4282600080516020613f5883398151915233612a76565b611b6d827f21702c8af46127c7fa207f89d0b0a8441bb32959a0ac7df790e9ab1a25c9892633612a76565b611b98827fb5a7f51d0593e853ad0aa6b718ee0bdd10c4966eb62d243b69d538e5823d040133612a76565b611bb182600080516020613f1883398151915233612a76565b611bbb3383612b82565b611bc582846124f8565b505050505050565b60606000611bda60075490565b905060008060015b838111611c4957611bf58160003361086c565b80611c145750611c1481600080516020613f588339815191523361086c565b8015611c245750611c2481612ca9565b15611c375782611c3381613a55565b9350505b80611c4181613a55565b915050611be2565b506000826001600160401b03811115611c6457611c646135db565b604051908082528060200260200182016040528015611c8d578160200160208202803683370190505b50905060015b848111610c1257611ca68160003361086c565b80611cc55750611cc581600080516020613f588339815191523361086c565b8015611cd55750611cd581612ca9565b15611d065780828481518110611ced57611ced613a6e565b602090810291909101015282611d0281613a55565b9350505b80611d1081613a55565b915050611c93565b600083815260026020908152604091829020548251808401909352601b8352600080516020613ef8833981519152918301919091528491906001600160a01b0316611d765760405162461bcd60e51b81526004016105b591906133c3565b50611d838460003361086c565b6040518060400160405280601d8152602001600080516020613f3883398151915281525090611dc55760405162461bcd60e51b81526004016105b591906133c3565b50600080516020613f188339815191528314156040518060400160405280602081526020017f4576656e743a2043616e27742072656d6f76652063617368696572206865726581525090611e2c5760405162461bcd60e51b81526004016105b591906133c3565b506116ca8484846110af565b611e423383612580565b611e5e5760405162461bcd60e51b81526004016105b5906139f1565b6116ca84848484612cc6565b60606000611e7783612461565b600083815260068201602052604081208054611e92906139b7565b80601f0160208091040260200160405190810160405280929190818152602001828054611ebe906139b7565b8015611f0b5780601f10611ee057610100808354040283529160200191611f0b565b820191906000526020600020905b815481529060010190602001808311611eee57829003601f168201915b505050505090506000611f2960408051602081019091526000815290565b90508051600003611f3c57509392505050565b815115611f6f578082604051602001611f56929190613b3f565b6040516020818303038152906040529350505050919050565b6000815111611f8d5760405180602001604052806000815250611fa8565b80611f9786612cf9565b604051602001611f56929190613b3f565b95945050505050565b600082815260026020908152604091829020548251808401909352601b8352600080516020613ef8833981519152918301919091528391906001600160a01b031661200f5760405162461bcd60e51b81526004016105b591906133c3565b5061201c8360003361086c565b6040518060400160405280601d8152602001600080516020613f388339815191528152509061205e5760405162461bcd60e51b81526004016105b591906133c3565b50600083815260096020526040902060030180548391906002906120929084906201000090046001600160401b0316613b6e565b92506101000a8154816001600160401b0302191690836001600160401b031602179055508160006009016000858152602001908152602001600020600301600a8282829054906101000a90046001600160401b03166120f19190613b6e565b82546001600160401b0391821661010093840a90810292021916179091556000858152600960205260408120600301805461ff00191690921790915590505b6000848152600960205260409020600401548110156121b057600084815260096020526040902060040180546001600160401b03851691908390811061217857612178613a6e565b906000526020600020906002020160000160008282546121989190613a84565b909155508190506121a881613a55565b915050612130565b506000838152600b602090815260408083208054825181850281018501909352808352919290919083018282801561220757602002820191906000526020600020905b8154815260200190600101908083116121f3575b5050505050905060005b81518110156122cf57836001600160401b03166000600a01600084848151811061223d5761223d613a6e565b6020026020010151815260200190815260200160002060050160008282546122659190613a84565b92505081905550836001600160401b03166000600a01600084848151811061228f5761228f613a6e565b6020026020010151815260200190815260200160002060060160008282546122b79190613a84565b909155508190506122c781613a55565b915050612211565b50604080518581526001600160401b03851660208201527f9066be8d402a022f5b4db8b98825f0604ef760ea5053e46d7654a84d5f27ba899101611562565b6001600160a01b03918216600090815260056020908152604080832093909416825291909152205460ff1690565b6060600061234960075490565b905060008060015b838111612395576000818152600960205260409020546001600160a01b031615612383578261237f81613a55565b9350505b8061238d81613a55565b915050612351565b506000826001600160401b038111156123b0576123b06135db565b6040519080825280602002602001820160405280156123d9578160200160208202803683370190505b50905060015b848111610c12576000818152600960205260409020546001600160a01b03161561242f578082848151811061241657612416613a6e565b60209081029190910101528261242b81613a55565b9350505b8061243981613a55565b9150506123df565b8261244c8484610c1b565b612456828261280d565b6110cf858585612a76565b61246a81612ca9565b6124865760405162461bcd60e51b81526004016105b590613ae1565b50565b600081815260046020526040812080546001600160a01b0319166001600160a01b03851690811790915582906124be82611570565b6001600160a01b03167f8c5be1e5ebec7d5bd14f71427d1e84f3dd0314c0f7b2291e5b200ac8c7c3b92560405160405180910390a4505050565b600061250383612ca9565b6125665760405162461bcd60e51b815260206004820152602e60248201527f45524337323155524953746f726167653a2055524920736574206f66206e6f6e60448201526d32bc34b9ba32b73a103a37b5b2b760911b60648201526084016105b5565b600083815260068201602052604090206116ca8382613bdb565b60008061258c83611570565b9050806001600160a01b0316846001600160a01b031614806125b357506125b3818561230e565b8061089b5750836001600160a01b03166125cc84610518565b6001600160a01b031614949350505050565b6000836001600160a01b03166125f383611570565b6001600160a01b0316146126575760405162461bcd60e51b815260206004820152602560248201527f4552433732313a207472616e736665722066726f6d20696e636f72726563742060448201526437bbb732b960d91b60648201526084016105b5565b6001600160a01b0383166126b95760405162461bcd60e51b8152602060048201526024808201527f4552433732313a207472616e7366657220746f20746865207a65726f206164646044820152637265737360e01b60648201526084016105b5565b6126c4600083612489565b6001600160a01b038416600090815260038201602052604081208054600192906126ef908490613b13565b90915550506001600160a01b0383166000908152600382016020526040812080546001929061271f908490613a84565b9091555050600082815260028201602052604080822080546001600160a01b0319166001600160a01b038781169182179092559151859391881691600080516020613f7883398151915291a46116ca565b60008061277c83612ca9565b6127985760405162461bcd60e51b81526004016105b590613c9a565b60009283526009016020525060409020600301546201000090046001600160401b031690565b6000806127ca83612ca9565b6127e65760405162461bcd60e51b81526004016105b590613c9a565b6000928352600901602052506040902060030154600160501b90046001600160401b031690565b6119ba828233612df9565b600061282584848461086c565b156116ca576000848152601282016020908152604080832086845282528083206001600160a01b03861684528252808320805460ff19169055601484019091529020546128728582612e5d565b6001600160a01b0383166000908152601483016020526040812055336001600160a01b0316836001600160a01b0316857f7b00293d63517946aeba2f56c6b4c5dec87b67393ac48520994d3d8ce776335a886040516128d391815260200190565b60405180910390a45050505050565b6000806128ee83611570565b90506128fb600084612489565b6001600160a01b03811660009081526003830160205260408120805460019290612926908490613b13565b9091555050600083815260028301602052604080822080546001600160a01b0319169055518491906001600160a01b03841690600080516020613f78833981519152908390a4600083815260068301602052604090208054612987906139b7565b1590506106565760008381526006830160205260408120610656916132cc565b6000826001600160a01b0316846001600160a01b031603612a065760405162461bcd60e51b815260206004820152601960248201527822a9219b99189d1030b8383937bb32903a379031b0b63632b960391b60448201526064016105b5565b6001600160a01b038481166000818152600584016020908152604080832094881680845294825291829020805460ff191687151590811790915591519182527f17307eab39ab6107e8899845ad3d59bd9653f200f220920489ca2b5937696c31910160405180910390a350505050565b6000612a8384848461086c565b6116ca576000848152601282016020908152604080832086845282528083206001600160a01b03868116808652918452828520805460ff19166001908117909155835180850185529283528285018981528a875260138801865293862080548083018255818852958720845160029097020180546001600160a01b03191696909316959095178255925190830155928790529054612b219190613b13565b6001600160a01b0384166000908152601484016020526040902055336001600160a01b0316836001600160a01b0316857fd9dfff7752b7a810e2b646c0c96b76bc9ed817f6c6f7848bbe68163f7e8b4378886040516128d391815260200190565b60006001600160a01b038316612bda5760405162461bcd60e51b815260206004820181905260248201527f4552433732313a206d696e7420746f20746865207a65726f206164647265737360448201526064016105b5565b612be382612ca9565b15612c2f5760405162461bcd60e51b815260206004820152601c60248201527b115490cdcc8c4e881d1bdad95b88185b1c9958591e481b5a5b9d195960221b60448201526064016105b5565b6001600160a01b03831660009081526003820160205260408120805460019290612c5a908490613a84565b9091555050600082815260028201602052604080822080546001600160a01b0319166001600160a01b0387169081179091559051849290600080516020613f78833981519152908290a4505050565b6000908152600260205260409020546001600160a01b0316151590565b612cd18484846125de565b612cdd84848484612f45565b6116ca5760405162461bcd60e51b81526004016105b590613ccc565b606081600003612d205750506040805180820190915260018152600360fc1b602082015290565b8160005b8115612d4a5780612d3481613a55565b9150612d439050600a83613d34565b9150612d24565b6000816001600160401b03811115612d6457612d646135db565b6040519080825280601f01601f191660200182016040528015612d8e576020820181803683370190505b5090505b841561089b57612da3600183613b13565b9150612db0600a86613d48565b612dbb906030613a84565b60f81b818381518110612dd057612dd0613a6e565b60200101906001600160f81b031916908160001a905350612df2600a86613d34565b9450612d92565b612e0483838361086c565b61065657612e1181613046565b612e1c836020613058565b612e25856131f3565b604051602001612e3793929190613d5c565b60408051601f198184030181529082905262461bcd60e51b82526105b5916004016133c3565b60008281526013602052604081208054612e7990600190613b13565b81548110612e8957612e89613a6e565b90600052602060002090600202018160130160008581526020019081526020016000208381548110612ebd57612ebd613a6e565b60009182526020808320845460029093020180546001600160a01b0319166001600160a01b0390931692909217825560019384015493909101929092558481526013830190915260409020805480612f1757612f17613dfe565b60008281526020812060026000199093019283020180546001600160a01b0319168155600101559055505050565b60006001600160a01b0384163b1561303b57604051630a85bd0160e11b81526001600160a01b0385169063150b7a0290612f89903390899088908890600401613e14565b6020604051808303816000875af1925050508015612fc4575060408051601f3d908101601f19168201909252612fc191810190613e51565b60015b613021573d808015612ff2576040519150601f19603f3d011682016040523d82523d6000602084013e612ff7565b606091505b5080516000036130195760405162461bcd60e51b81526004016105b590613ccc565b805181602001fd5b6001600160e01b031916630a85bd0160e11b14905061089b565b506001949350505050565b6060610c396001600160a01b03831660145b60606000613067836002613e6e565b613072906002613a84565b6001600160401b03811115613089576130896135db565b6040519080825280601f01601f1916602001820160405280156130b3576020820181803683370190505b509050600360fc1b816000815181106130ce576130ce613a6e565b60200101906001600160f81b031916908160001a905350600f60fb1b816001815181106130fd576130fd613a6e565b60200101906001600160f81b031916908160001a9053506000613121846002613e6e565b61312c906001613a84565b90505b60018111156131a4576f181899199a1a9b1b9c1cb0b131b232b360811b85600f166010811061316057613160613a6e565b1a60f81b82828151811061317657613176613a6e565b60200101906001600160f81b031916908160001a90535060049490941c9361319d81613e85565b905061312f565b5083156115a75760405162461bcd60e51b815260206004820181905260248201527f537472696e67733a20686578206c656e67746820696e73756666696369656e7460448201526064016105b5565b60608160000361321d5750506040805180820190915260048152630307830360e41b602082015290565b8160005b8115613240578061323181613a55565b915050600882901c9150613221565b61089b8482613058565b6040805161010081018252600080825260208201819052918101829052606081018290529060808201908152600060208201819052604082015260609081015290565b50805460008255600202906000526020600020908101906124869190613306565b5080546000825590600052602060002090810190612486919061332b565b5080546132d8906139b7565b6000825580601f106132e8575050565b601f016020900490600052602060002090810190612486919061332b565b5b80821115613327576000815560018101805460ff19169055600201613307565b5090565b5b80821115613327576000815560010161332c565b6001600160e01b03198116811461248657600080fd5b60006020828403121561336857600080fd5b81356115a781613340565b60005b8381101561338e578181015183820152602001613376565b50506000910152565b600081518084526133af816020860160208601613373565b601f01601f19169290920160200192915050565b6020815260006115a76020830184613397565b6000602082840312156133e857600080fd5b5035919050565b6001600160a01b038116811461248657600080fd5b6000806040838503121561341757600080fd5b8235613422816133ef565b946020939093013593505050565b634e487b7160e01b600052602160045260246000fd5b600081518084526020808501945080840160005b838110156134845781518051885283015160ff16838801526040909601959082019060010161345a565b509495945050505050565b600061010060018060a01b03835116845260208301516020850152604083015160408501526060830151151560608501526080830151600381106134e357634e487b7160e01b600052602160045260246000fd5b8060808601525060a083015161350460a08601826001600160401b03169052565b5060c083015161351f60c08601826001600160401b03169052565b5060e08301518160e0860152611fa882860182613446565b6020815260006115a7602083018461348f565b602080825282518282018190526000919060409081850190868401855b8281101561359557815180516001600160a01b03168552860151868501529284019290850190600101613567565b5091979650505050505050565b6000806000606084860312156135b757600080fd5b833592506020840135915060408401356135d0816133ef565b809150509250925092565b634e487b7160e01b600052604160045260246000fd5b60006001600160401b038084111561360b5761360b6135db565b604051601f8501601f19908116603f01168101908282118183101715613633576136336135db565b8160405280935085815286868601111561364c57600080fd5b858560208301376000602087830101525050509392505050565b600082601f83011261367757600080fd5b6115a7838335602085016135f1565b6000806040838503121561369957600080fd5b8235915060208301356001600160401b038111156136b657600080fd5b6136c285828601613666565b9150509250929050565b6000806000606084860312156136e157600080fd5b83356136ec816133ef565b925060208401356136fc816133ef565b929592945050506040919091013590565b6000602080830181845280855180835260408601915060408160051b870101925083870160005b8281101561376257603f1988860301845261375085835161348f565b94509285019290850190600101613734565b5092979650505050505050565b6000806040838503121561378257600080fd5b50508035926020909101359150565b6000806000606084860312156137a657600080fd5b8335925060208401356137b8816133ef565b915060408401356135d0816133ef565b6000602082840312156137da57600080fd5b81356115a7816133ef565b600080604083850312156137f857600080fd5b8235613803816133ef565b91506020830135801515811461381857600080fd5b809150509250929050565b80356001600160401b038116811461383a57600080fd5b919050565b6000806000806080858703121561385557600080fd5b8435935061386560208601613823565b925061387360408601613823565b915060608501356001600160401b0381111561388e57600080fd5b61389a87828801613666565b91505092959194509250565b6020808252825182820181905260009190848201906040850190845b818110156138de578351835292840192918401916001016138c2565b50909695505050505050565b6000806000806080858703121561390057600080fd5b843561390b816133ef565b9350602085013561391b816133ef565b92506040850135915060608501356001600160401b0381111561393d57600080fd5b8501601f8101871361394e57600080fd5b61389a878235602084016135f1565b6000806040838503121561397057600080fd5b8235915061398060208401613823565b90509250929050565b6000806040838503121561399c57600080fd5b82356139a7816133ef565b91506020830135613818816133ef565b600181811c908216806139cb57607f821691505b6020821081036139eb57634e487b7160e01b600052602260045260246000fd5b50919050565b6020808252602e908201527f4552433732313a2063616c6c6572206973206e6f7420746f6b656e206f776e6560408201526d1c881b9bdc88185c1c1c9bdd995960921b606082015260800190565b634e487b7160e01b600052601160045260246000fd5b600060018201613a6757613a67613a3f565b5060010190565b634e487b7160e01b600052603260045260246000fd5b80820180821115610c3957610c39613a3f565b60008251613aa9818460208701613373565b9190910192915050565b60008060408385031215613ac657600080fd5b8251613ad1816133ef565b6020939093015192949293505050565b602080825260189082015277115490cdcc8c4e881a5b9d985b1a59081d1bdad95b88125160421b604082015260600190565b81810381811115610c3957610c39613a3f565b82815260406020820152600061089b6040830184613397565b60008351613b51818460208801613373565b835190830190613b65818360208801613373565b01949350505050565b6001600160401b03818116838216019080821115613b8e57613b8e613a3f565b5092915050565b601f82111561065657600081815260208120601f850160051c81016020861015613bbc5750805b601f850160051c820191505b81811015611bc557828155600101613bc8565b81516001600160401b03811115613bf457613bf46135db565b613c0881613c0284546139b7565b84613b95565b602080601f831160018114613c3d5760008415613c255750858301515b600019600386901b1c1916600185901b178555611bc5565b600085815260208120601f198616915b82811015613c6c57888601518255948401946001909101908401613c4d565b5085821015613c8a5787850151600019600388901b60f8161c191681555b5050505050600190811b01905550565b602080825260189082015277115490cd4c0c0dce88125b9d985b1a59081d1bdad95b925960421b604082015260600190565b60208082526032908201527f4552433732313a207472616e7366657220746f206e6f6e20455243373231526560408201527131b2b4bb32b91034b6b83632b6b2b73a32b960711b606082015260800190565b634e487b7160e01b600052601260045260246000fd5b600082613d4357613d43613d1e565b500490565b600082613d5757613d57613d1e565b500690565b7402937b632a1b7b73a3937b61d1030b1b1b7bab73a1605d1b815260008451613d8c816015850160208901613373565b7001034b99036b4b9b9b4b733903937b6329607d1b6015918401918201528451613dbd816026840160208901613373565b720103337b91032bb32b73a103bb4ba341034b21606d1b602692909101918201528351613df1816039840160208801613373565b0160390195945050505050565b634e487b7160e01b600052603160045260246000fd5b6001600160a01b0385811682528416602082015260408101839052608060608201819052600090613e4790830184613397565b9695505050505050565b600060208284031215613e6357600080fd5b81516115a781613340565b8082028115828204841417610c3957610c39613a3f565b600081613e9457613e94613a3f565b50600019019056fe4576656e743a2043616c6c6572206973206e6f7420616e2061646d696e206f72206d6f64657261746f724576656e743a204f6e6c7920636173686965722063616e20776974686472617720636f6e74726163742062616c616e63654576656e743a204576656e7420646f6573206e6f742065786973740000000000ff3317e1e0e8c784290b957ee9b65ea8fe96420c4819db463283b95ecbe4a3fe4576656e743a2043616c6c6572206973206e6f7420616e2061646d696e00000071f3d55856e4058ed06ee057d79ada615f65cdf5f9ee88181b914225088f834fddf252ad1be2c89b69c2b068fc378daa952ba7f163c4a11628f55a4df523b3efa2646970667358221220e59dbc624dca09844707e3b32aad11c2840ea99d2a63071fa6fa4ebcbc6b38ca64736f6c63430008110033",
  "linkReferences": {},
  "deployedLinkReferences": {}
}