{
  "_format": "hh-sol-artifact-1",
  "contractName": "EventTicketControllerFacet",
  "sourceName": "contracts/EventDiamond/facets/EventTicketControllerFacet.sol",
  "abi": [
    {
      "anonymous": false,
      "inputs": [
        {
          "indexed": true,
          "internalType": "uint256",
          "name": "fromTokenId",
          "type": "uint256"
        },
        {
          "indexed": false,
          "internalType": "uint256",
          "name": "toTokenId",
          "type": "uint256"
        },
        {
          "indexed": true,
          "internalType": "address",
          "name": "fromAddress",
          "type": "address"
        },
        {
          "indexed": true,
          "internalType": "address",
          "name": "toAddress",
          "type": "address"
        }
      ],
      "name": "ConsecutiveTransfer",
      "type": "event"
    },
    {
      "anonymous": false,
      "inputs": [
        {
          "indexed": false,
          "internalType": "uint256",
          "name": "eventId",
          "type": "uint256"
        },
        {
          "indexed": false,
          "internalType": "uint256",
          "name": "date",
          "type": "uint256"
        },
        {
          "indexed": false,
          "internalType": "uint8",
          "name": "percentage",
          "type": "uint8"
        }
      ],
      "name": "EventRefundDateAdded",
      "type": "event"
    },
    {
      "anonymous": false,
      "inputs": [
        {
          "indexed": false,
          "internalType": "uint256",
          "name": "eventId",
          "type": "uint256"
        }
      ],
      "name": "EventWithdraw",
      "type": "event"
    },
    {
      "anonymous": false,
      "inputs": [
        {
          "indexed": false,
          "internalType": "uint256",
          "name": "eventId",
          "type": "uint256"
        },
        {
          "indexed": false,
          "internalType": "address[]",
          "name": "accounts",
          "type": "address[]"
        },
        {
          "indexed": false,
          "internalType": "address",
          "name": "staffMember",
          "type": "address"
        }
      ],
      "name": "InvitationSent",
      "type": "event"
    },
    {
      "anonymous": false,
      "inputs": [
        {
          "indexed": false,
          "internalType": "uint256",
          "name": "ticketId",
          "type": "uint256"
        },
        {
          "indexed": false,
          "internalType": "address",
          "name": "account",
          "type": "address"
        }
      ],
      "name": "RefundWithdraw",
      "type": "event"
    },
    {
      "anonymous": false,
      "inputs": [
        {
          "indexed": false,
          "internalType": "uint256",
          "name": "ticketId",
          "type": "uint256"
        },
        {
          "indexed": false,
          "internalType": "address",
          "name": "account",
          "type": "address"
        }
      ],
      "name": "TicketBought",
      "type": "event"
    },
    {
      "anonymous": false,
      "inputs": [
        {
          "indexed": false,
          "internalType": "uint256",
          "name": "eventId",
          "type": "uint256"
        },
        {
          "indexed": false,
          "internalType": "uint256",
          "name": "ticketId",
          "type": "uint256"
        },
        {
          "indexed": false,
          "internalType": "address",
          "name": "staffMember",
          "type": "address"
        }
      ],
      "name": "TicketClipped",
      "type": "event"
    },
    {
      "anonymous": false,
      "inputs": [
        {
          "indexed": false,
          "internalType": "uint256",
          "name": "eventId",
          "type": "uint256"
        },
        {
          "indexed": false,
          "internalType": "uint256",
          "name": "categoryId",
          "type": "uint256"
        },
        {
          "indexed": false,
          "internalType": "uint256",
          "name": "ticketId",
          "type": "uint256"
        },
        {
          "indexed": false,
          "internalType": "address",
          "name": "account",
          "type": "address"
        }
      ],
      "name": "TicketRefunded",
      "type": "event"
    },
    {
      "anonymous": false,
      "inputs": [
        {
          "indexed": false,
          "internalType": "uint256",
          "name": "eventId",
          "type": "uint256"
        },
        {
          "indexed": false,
          "internalType": "uint256",
          "name": "ticketCount",
          "type": "uint256"
        },
        {
          "indexed": false,
          "internalType": "address",
          "name": "staffMember",
          "type": "address"
        }
      ],
      "name": "TicketsBooked",
      "type": "event"
    },
    {
      "inputs": [
        {
          "internalType": "uint256",
          "name": "_eventId",
          "type": "uint256"
        },
        {
          "components": [
            {
              "internalType": "uint256",
              "name": "date",
              "type": "uint256"
            },
            {
              "internalType": "uint8",
              "name": "percentage",
              "type": "uint8"
            }
          ],
          "internalType": "struct RefundData",
          "name": "_refundData",
          "type": "tuple"
        }
      ],
      "name": "addRefundDeadline",
      "outputs": [],
      "stateMutability": "nonpayable",
      "type": "function"
    },
    {
      "inputs": [
        {
          "internalType": "uint256",
          "name": "_eventId",
          "type": "uint256"
        },
        {
          "components": [
            {
              "internalType": "uint256",
              "name": "categoryId",
              "type": "uint256"
            },
            {
              "internalType": "uint256",
              "name": "ticketAmount",
              "type": "uint256"
            }
          ],
          "internalType": "struct CategoryTicketAmount[]",
          "name": "_categoryTicketAmount",
          "type": "tuple[]"
        },
        {
          "components": [
            {
              "internalType": "uint256",
              "name": "row",
              "type": "uint256"
            },
            {
              "internalType": "uint256",
              "name": "seat",
              "type": "uint256"
            },
            {
              "internalType": "address",
              "name": "account",
              "type": "address"
            }
          ],
          "internalType": "struct TicketPlaceAddress[]",
          "name": "_place",
          "type": "tuple[]"
        },
        {
          "internalType": "string[]",
          "name": "_ticketMetadataUris",
          "type": "string[]"
        }
      ],
      "name": "bookTickets",
      "outputs": [],
      "stateMutability": "nonpayable",
      "type": "function"
    },
    {
      "inputs": [
        {
          "internalType": "uint256",
          "name": "_eventId",
          "type": "uint256"
        },
        {
          "internalType": "uint256",
          "name": "_categoryId",
          "type": "uint256"
        },
        {
          "components": [
            {
              "internalType": "uint256",
              "name": "amount",
              "type": "uint256"
            },
            {
              "internalType": "uint256",
              "name": "price",
              "type": "uint256"
            }
          ],
          "internalType": "struct TicketPriceData[]",
          "name": "_priceData",
          "type": "tuple[]"
        },
        {
          "components": [
            {
              "internalType": "uint256",
              "name": "row",
              "type": "uint256"
            },
            {
              "internalType": "uint256",
              "name": "seat",
              "type": "uint256"
            }
          ],
          "internalType": "struct TicketPlace[]",
          "name": "_place",
          "type": "tuple[]"
        },
        {
          "internalType": "string[]",
          "name": "_ticketMetadataUris",
          "type": "string[]"
        }
      ],
      "name": "buyTickets",
      "outputs": [],
      "stateMutability": "payable",
      "type": "function"
    },
    {
      "inputs": [
        {
          "components": [
            {
              "internalType": "uint256",
              "name": "eventId",
              "type": "uint256"
            },
            {
              "internalType": "uint256",
              "name": "categoryId",
              "type": "uint256"
            }
          ],
          "internalType": "struct EventCategoryData[]",
          "name": "_eventCategoryData",
          "type": "tuple[]"
        },
        {
          "components": [
            {
              "internalType": "uint256",
              "name": "amount",
              "type": "uint256"
            },
            {
              "internalType": "uint256",
              "name": "price",
              "type": "uint256"
            }
          ],
          "internalType": "struct TicketPriceData[]",
          "name": "_priceData",
          "type": "tuple[]"
        },
        {
          "components": [
            {
              "internalType": "uint256",
              "name": "row",
              "type": "uint256"
            },
            {
              "internalType": "uint256",
              "name": "seat",
              "type": "uint256"
            }
          ],
          "internalType": "struct TicketPlace[]",
          "name": "_place",
          "type": "tuple[]"
        },
        {
          "internalType": "string[]",
          "name": "_ticketMetadataUris",
          "type": "string[]"
        }
      ],
      "name": "buyTickets",
      "outputs": [],
      "stateMutability": "payable",
      "type": "function"
    },
    {
      "inputs": [
        {
          "internalType": "uint256",
          "name": "_eventId",
          "type": "uint256"
        },
        {
          "internalType": "uint256",
          "name": "_ticketId",
          "type": "uint256"
        }
      ],
      "name": "clipTicket",
      "outputs": [],
      "stateMutability": "nonpayable",
      "type": "function"
    },
    {
      "inputs": [
        {
          "internalType": "uint256",
          "name": "_eventId",
          "type": "uint256"
        }
      ],
      "name": "getAddressTicketIdsByEvent",
      "outputs": [
        {
          "internalType": "uint256[]",
          "name": "",
          "type": "uint256[]"
        }
      ],
      "stateMutability": "view",
      "type": "function"
    },
    {
      "inputs": [
        {
          "components": [
            {
              "internalType": "uint256",
              "name": "eventId",
              "type": "uint256"
            },
            {
              "internalType": "uint256",
              "name": "categoryId",
              "type": "uint256"
            },
            {
              "internalType": "uint256",
              "name": "ticketId",
              "type": "uint256"
            }
          ],
          "internalType": "struct ReturnTicketParams",
          "name": "_returnTicketParams",
          "type": "tuple"
        }
      ],
      "name": "returnTicket",
      "outputs": [],
      "stateMutability": "nonpayable",
      "type": "function"
    },
    {
      "inputs": [
        {
          "internalType": "uint256",
          "name": "_eventId",
          "type": "uint256"
        },
        {
          "internalType": "uint256[]",
          "name": "_ticketIds",
          "type": "uint256[]"
        },
        {
          "internalType": "address[]",
          "name": "_accounts",
          "type": "address[]"
        }
      ],
      "name": "sendInvitation",
      "outputs": [],
      "stateMutability": "nonpayable",
      "type": "function"
    },
    {
      "inputs": [
        {
          "internalType": "uint256",
          "name": "_eventId",
          "type": "uint256"
        },
        {
          "internalType": "uint256",
          "name": "_ticketId",
          "type": "uint256"
        },
        {
          "internalType": "address",
          "name": "_oldOwner",
          "type": "address"
        },
        {
          "internalType": "address",
          "name": "_newOwner",
          "type": "address"
        }
      ],
      "name": "updateTicketIdAfterTransfer",
      "outputs": [],
      "stateMutability": "nonpayable",
      "type": "function"
    },
    {
      "inputs": [
        {
          "internalType": "uint256",
          "name": "_eventId",
          "type": "uint256"
        }
      ],
      "name": "withdrawContractBalance",
      "outputs": [],
      "stateMutability": "nonpayable",
      "type": "function"
    },
    {
      "inputs": [
        {
          "internalType": "uint256",
          "name": "_eventId",
          "type": "uint256"
        },
        {
          "internalType": "uint256",
          "name": "_ticketId",
          "type": "uint256"
        }
      ],
      "name": "withdrawRefund",
      "outputs": [],
      "stateMutability": "nonpayable",
      "type": "function"
    }
  ],
  "bytecode": "0x608060405234801561001057600080fd5b506144fa806100206000396000f3fe60806040526004361061008c5760003560e01c806328e13a9e146100915780632d3bf559146100b35780634f905e5d146100d35780637ce8b341146100e65780639cbea36014610106578063ab6a8d6a14610126578063b5abe85a14610146578063d90e6dd714610166578063ddb7d5df14610186578063e3bccc0f146101a6578063ef71b78a146101dc575b600080fd5b34801561009d57600080fd5b506100b16100ac3660046137a9565b6101ef565b005b3480156100bf57600080fd5b506100b16100ce36600461393c565b610852565b6100b16100e1366004613a1f565b610c4d565b3480156100f257600080fd5b506100b1610101366004613aba565b610fd9565b34801561011257600080fd5b506100b1610121366004613b18565b61119c565b34801561013257600080fd5b506100b1610141366004613b62565b611245565b34801561015257600080fd5b506100b1610161366004613bbd565b611a34565b34801561017257600080fd5b506100b1610181366004613bd6565b611e6d565b34801561019257600080fd5b506100b16101a1366004613bd6565b6121d7565b3480156101b257600080fd5b506101c66101c1366004613bbd565b612386565b6040516101d39190613bf8565b60405180910390f35b6100b16101ea366004613c3c565b612450565b600084815260026020908152604091829020548251808401909352601b83526000805160206142bb833981519152918301919091528591906001600160a01b03166102565760405162461bcd60e51b815260040161024d9190613d43565b60405180910390fd5b506102638560003361284a565b806102825750610282856000805160206143988339815191523361284a565b6040518060600160405280602a81526020016141bb602a9139906102b95760405162461bcd60e51b815260040161024d9190613d43565b5083516000141560405180606001604052806025815260200161445860259139906102f75760405162461bcd60e51b815260040161024d9190613d43565b5081518351146040518060400160405280601f81526020016000805160206143588339815191528152509061033f5760405162461bcd60e51b815260040161024d9190613d43565b5060008086815260096020526040902060030154610100900460ff16600281111561036c5761036c613d56565b14604051806040016040528060158152602001600080516020614378833981519152815250906103af5760405162461bcd60e51b815260040161024d9190613d43565b5060008060005b86518110156105d0576000600a0160008883815181106103d8576103d8613d6c565b602002602001015160000151815260200190815260200160002060000154600014156040518060400160405280601e81526020016000805160206143078339815191528152509061043c5760405162461bcd60e51b815260040161024d9190613d43565b50876000600a01600089848151811061045757610457613d6c565b602002602001015160000151815260200190815260200160002060070154146040518060600160405280602981526020016141e560299139906104ad5760405162461bcd60e51b815260040161024d9190613d43565b508681815181106104c0576104c0613d6c565b602002602001015160200151836104d79190613d98565b92506000600a0160008883815181106104f2576104f2613d6c565b602002602001015160000151815260200190815260200160002060040154836000600a0160008a858151811061052a5761052a613d6c565b6020026020010151600001518152602001908152602001600020600201805490506105559190613d98565b11156040518060600160405280602381526020016144a2602391399061058e5760405162461bcd60e51b815260040161024d9190613d43565b50600092508681815181106105a5576105a5613d6c565b602002602001015160200151826105bc9190613d98565b9150806105c881613dab565b9150506103b6565b5060008060008060005b8a518110156108095760005b8b82815181106105f8576105f8613d6c565b6020026020010151602001518110156107f65760008d8152600c602052604090208b51610642908d908990811061063157610631613d6c565b60200260200101516000015161287c565b6106688d898151811061065757610657613d6c565b60200260200101516020015161287c565b604051602001610679929190613dc4565b60408051601f198184030181529082905261069391613df3565b90815260408051918290036020908101832054838301909252601583527422bb32b73a1d10283630b1b29034b9903a30b5b2b760591b9083015260ff16156106ee5760405162461bcd60e51b815260040161024d9190613d43565b5060006001600160a01b03168b878151811061070c5761070c613d6c565b6020026020010151604001516001600160a01b03161461074f578a868151811061073857610738613d6c565b602002602001015160400151935060019250610757565b309350600092505b6107d78d8d848151811061076d5761076d613d6c565b602002602001015160000151878e8a8151811061078c5761078c613d6c565b6020026020010151600001518f8b815181106107aa576107aa613d6c565b6020026020010151602001518f8c815181106107c8576107c8613d6c565b6020026020010151898b612984565b6107e2600187613d98565b9550806107ee81613dab565b9150506105e6565b508061080181613dab565b9150506105da565b507f0bf6beb306958fd2b5107d64b133ea297e354c91e8508878a9a4abb9206d82288b863360405161083d93929190613e0f565b60405180910390a15050505050505050505050565b600083815260026020908152604091829020548251808401909352601b83526000805160206142bb833981519152918301919091528491906001600160a01b03166108b05760405162461bcd60e51b815260040161024d9190613d43565b506108bd8460003361284a565b806108dc57506108dc846000805160206143988339815191523361284a565b6040518060600160405280602a81526020016141bb602a9139906109135760405162461bcd60e51b815260040161024d9190613d43565b508251158015906109245750815115155b604051806060016040528060258152602001614458602591399061095b5760405162461bcd60e51b815260040161024d9190613d43565b5081518351146040518060400160405280601f8152602001600080516020614358833981519152815250906109a35760405162461bcd60e51b815260040161024d9190613d43565b5060008085815260096020526040902060030154610100900460ff1660028111156109d0576109d0613d56565b1460405180604001604052806015815260200160008051602061437883398151915281525090610a135760405162461bcd60e51b815260040161024d9190613d43565b5060005b8351811015610c0b57610a4485858381518110610a3657610a36613d6c565b602002602001015130612bb6565b60125483516001600160a01b03909116906323b872dd903090869085908110610a6f57610a6f613d6c565b6020026020010151878581518110610a8957610a89613d6c565b60209081029190910101516040516001600160e01b031960e086901b1681526001600160a01b0393841660048201529290911660248301526044820152606401600060405180830381600087803b158015610ae357600080fd5b505af1158015610af7573d6000803e3d6000fd5b505060125486516001600160a01b03909116925063dd4670649150869084908110610b2457610b24613d6c565b60200260200101516040518263ffffffff1660e01b8152600401610b4a91815260200190565b600060405180830381600087803b158015610b6457600080fd5b505af1158015610b78573d6000803e3d6000fd5b5050506000868152600f602052604081208551909250859084908110610ba057610ba0613d6c565b60200260200101516001600160a01b03166001600160a01b03168152602001908152602001600020848281518110610bda57610bda613d6c565b6020908102919091018101518254600181018455600093845291909220015580610c0381613dab565b915050610a17565b507fc47e064bd57c3620a43c1e4ac852f9185e9582f40bdd973a20f4c1bf520f38a5848333604051610c3f93929190613e2e565b60405180910390a150505050565b8251600014156040518060600160405280602581526020016144586025913990610c8a5760405162461bcd60e51b815260040161024d9190613d43565b5080518251146040518060400160405280601f815260200160008051602061435883398151915281525090610cd25760405162461bcd60e51b815260040161024d9190613d43565b5060008086815260096020526040902060030154610100900460ff166002811115610cff57610cff613d56565b1460405180604001604052806015815260200160008051602061437883398151915281525090610d425760405162461bcd60e51b815260040161024d9190613d43565b50610d4d8585612d17565b60008060005b8551811015610de85760009150610d8487878381518110610d7657610d76613d6c565b602002602001015184612f83565b858181518110610d9657610d96613d6c565b602002602001015160000151868281518110610db457610db4613d6c565b602002602001015160200151610dca9190613e9a565b610dd49084613d98565b925080610de081613dab565b915050610d53565b503482146040518060600160405280602381526020016141986023913990610e235760405162461bcd60e51b815260040161024d9190613d43565b506000805b8651811015610fce5760005b878281518110610e4657610e46613d6c565b602002602001015160000151811015610fbb5760008a8152600c602052604090208751610e7f9089908690811061063157610631613d6c565b610e9489868151811061065757610657613d6c565b604051602001610ea5929190613dc4565b60408051601f1981840301815290829052610ebf91613df3565b90815260408051918290036020908101832054838301909252601583527422bb32b73a1d10283630b1b29034b9903a30b5b2b760591b9083015260ff1615610f1a5760405162461bcd60e51b815260040161024d9190613d43565b50610f9c8a8a8a8581518110610f3257610f32613d6c565b6020026020010151602001518a8781518110610f5057610f50613d6c565b6020026020010151600001518b8881518110610f6e57610f6e613d6c565b6020026020010151602001518b8981518110610f8c57610f8c613d6c565b6020026020010151600033612984565b610fa7600184613d98565b925080610fb381613dab565b915050610e34565b5080610fc681613dab565b915050610e28565b505050505050505050565b600082815260026020908152604091829020548251808401909352601b83526000805160206142bb833981519152918301919091528391906001600160a01b03166110375760405162461bcd60e51b815260040161024d9190613d43565b5060008084815260096020526040902060030154610100900460ff16600281111561106457611064613d56565b14604051806040016040528060158152602001600080516020614378833981519152815250906110a75760405162461bcd60e51b815260040161024d9190613d43565b506110b48360003361284a565b806110d357506110d3836000805160206143988339815191523361284a565b6040518060600160405280602a81526020016141bb602a91399061110a5760405162461bcd60e51b815260040161024d9190613d43565b506000838152600960209081526040808320600401805460018181018355918552938390208651600290950201848155928601519201805460ff841660ff19909116179055517f6acb6edf217693871c0a1b4dc7f139e64435ab88c84cdc94a85daf36cd06849c9261118f92878352602083019190915260ff16604082015260600190565b60405180910390a1505050565b6012546001600160a01b031633146112025760405162461bcd60e51b8152602060048201526024808201527f4576656e743a20596f752063616e206e6f742075736520746869732066756e636044820152633a34b7b760e11b606482015260840161024d565b61120d848484612bb6565b6000938452600f602090815260408086206001600160a01b039093168652918152908420805460018101825590855293209092015550565b8051600081815260026020908152604091829020548251808401909352601b83526000805160206142bb833981519152918301919091526001600160a01b03166112a25760405162461bcd60e51b815260040161024d9190613d43565b506020808301516000818152600a8352604090819020548151808301909252601e82526000805160206143078339815191529382019390935290916112fa5760405162461bcd60e51b815260040161024d9190613d43565b5082600001518360200151816000600a01600083815260200190815260200160002060070154146040518060600160405280602981526020016141e560299139906113585760405162461bcd60e51b815260040161024d9190613d43565b5084602001518560400151806000600d01600084815260200190815260200160002054146040518060600160405280602c81526020016142db602c9139906113b35760405162461bcd60e51b815260040161024d9190613d43565b508651600090815260096020526040902060040154151580611401575060018751600090815260096020526040902060030154610100900460ff1660028111156113ff576113ff613d56565b145b60405180606001604052806022815260200161443660229139906114385760405162461bcd60e51b815260040161024d9190613d43565b5060008061144e89600001518a604001516131aa565b91509150816040518060400160405280601a81526020017922bb32b73a1d102932b33ab732103230ba329034b99037bb32b960311b815250906114a45760405162461bcd60e51b815260040161024d9190613d43565b506040898101805160009081526010602090815283822033835290528281208490556012549151925160248101939093529182916001600160a01b03169060440160408051601f198184030181529181526020820180516001600160e01b03166331a9108f60e11b1790525161151a9190613df3565b6000604051808303816000865af19150503d8060008114611557576040519150601f19603f3d011682016040523d82523d6000602084013e61155c565b606091505b5091509150336001600160a01b03168180602001905181019061157f9190613eb1565b6001600160a01b03161480156115925750815b6040518060400160405280601d8152602001600080516020614416833981519152815250906115d45760405162461bcd60e51b815260040161024d9190613d43565b505089516000908152600c6020526040808220601254828e01519251633ee1bcfd60e11b815260048101939093529293509161166d916001600160a01b0390911690637dc379fa90602401600060405180830381865afa15801561163c573d6000803e3d6000fd5b505050506040513d6000823e601f3d908101601f191682016040526116649190810190613f36565b6080015161287c565b60125460408d8101519051633ee1bcfd60e11b815260048101919091526116ef916001600160a01b031690637dc379fa90602401600060405180830381865afa1580156116be573d6000803e3d6000fd5b505050506040513d6000823e601f3d908101601f191682016040526116e69190810190613f36565b60a0015161287c565b604051602001611700929190613dc4565b60408051601f198184030181529082905261171a91613df3565b90815260408051918290036020018220805493151560ff1990941693909317909255601254918b015160248201523360448201523060648201526000916001600160a01b03169060840160408051601f198184030181529181526020820180516001600160e01b031663025ba0e960e61b179052516117999190613df3565b6000604051808303816000865af19150503d80600081146117d6576040519150601f19603f3d011682016040523d82523d6000602084013e6117db565b606091505b50509050806040518060400160405280601d8152602001600080516020614416833981519152815250906118225760405162461bcd60e51b815260040161024d9190613d43565b506000805b6020808d01516000908152600a909152604090206002015481101561189f578b604001516000600a0160008e602001518152602001908152602001600020600201828154811061187957611879613d6c565b90600052602060002001540361188d578091505b8061189781613dab565b915050611827565b506020808c0180516000908152600a9092526040808320915183529091206002908101549101906118d290600190613fe5565b815481106118e2576118e2613d6c565b90600052602060002001546000600a0160008d602001518152602001908152602001600020600201828154811061191b5761191b613d6c565b60009182526020808320909101929092558c8201518152600a9091526040902060020180548061194d5761194d613ff8565b6000828152602080822083016000199081018390559092019092558c518252600e815260408083203384529091528120805460019350909190611991908490613fe5565b9091555050895160408b01516119a8919033612bb6565b89516000908152600f602090815260408083203084528252808320818e018051825460018101845592865294849020909101939093558c51828e015193518251918252928101939093528201523360608201527f87ff245f55dca5f20f12247f39f781d5710eda96984e49512daad7b675e414799060800160405180910390a150505050505050505050565b600081815260026020908152604091829020548251808401909352601b83526000805160206142bb833981519152918301919091528291906001600160a01b0316611a925760405162461bcd60e51b815260040161024d9190613d43565b50611abe827fff3317e1e0e8c784290b957ee9b65ea8fe96420c4819db463283b95ecbe4a3fe3361284a565b60405180606001604052806031815260200161423e6031913990611af55760405162461bcd60e51b815260040161024d9190613d43565b5060008281526009602052604090206003015442600160501b9091046001600160401b0316108015611b37575060008281526009602052604090206002015415155b15611bee576000828152600960205260408082206002015490513391908381818185875af1925050503d8060008114611b8c576040519150601f19603f3d011682016040523d82523d6000602084013e611b91565b606091505b50509050806040518060400160405280601b81526020017a22bb32b73a1d102330b4b632b2103a379039b2b7321022ba3432b960291b81525090611be85760405162461bcd60e51b815260040161024d9190613d43565b50505050565b6002600083815260096020526040902060030154610100900460ff166002811115611c1b57611c1b613d56565b141560405180604001604052806015815260200160008051602061437883398151915281525090611c5f5760405162461bcd60e51b815260040161024d9190613d43565b50600082815260096020526040812060040154819081908103611c95576000858152600960205260409020600201549250611d88565b60005b600086815260096020526040902060040154811015611d86576000868152600960205260409020600401805482908110611cd457611cd4613d6c565b9060005260206000209060020201600001544211611d74576000868152600960205260409020600401805482908110611d0f57611d0f613d6c565b600091825260208083206002928302016001015489845260099091526040909220015460ff9091169350611d4d90611d48856064613e9a565b613421565b600087815260096020526040902060020154909250611d6d908390613fe5565b9350611d86565b80611d7e81613dab565b915050611c98565b505b60008581526009602052604081206002018054859290611da9908490613fe5565b9091555050604051600090339085908381818185875af1925050503d8060008114611df0576040519150601f19603f3d011682016040523d82523d6000602084013e611df5565b606091505b505090508060405180606001604052806029815260200161426f6029913990611e315760405162461bcd60e51b815260040161024d9190613d43565b506040518681527feea9f2e0c73d19e23063194ae9ba8512a252b6c0bd44e31315f611c5efaa8f0b9060200160405180910390a1505050505050565b600082815260026020908152604091829020548251808401909352601b83526000805160206142bb833981519152918301919091528391906001600160a01b0316611ecb5760405162461bcd60e51b815260040161024d9190613d43565b5060008084815260096020526040902060030154610100900460ff166002811115611ef857611ef8613d56565b1460405180604001604052806015815260200160008051602061437883398151915281525090611f3b5760405162461bcd60e51b815260040161024d9190613d43565b50611f488360003361284a565b80611f675750611f67836000805160206143988339815191523361284a565b80611f985750611f98837fb5a7f51d0593e853ad0aa6b718ee0bdd10c4966eb62d243b69d538e5823d04013361284a565b6040518060600160405280603881526020016143de6038913990611fcf5760405162461bcd60e51b815260040161024d9190613d43565b5042611fda84613498565b6001600160401b031611158015612002575042611ff6846134e6565b6001600160401b031610155b60405180606001604052806025815260200161447d60259139906120395760405162461bcd60e51b815260040161024d9190613d43565b50601254604051600091600191606091849182916001600160a01b03169061206b9030908a908890889060240161400e565b60408051601f198184030181529181526020820180516001600160e01b0316631e27140560e01b179052516120a09190613df3565b6000604051808303816000865af19150503d80600081146120dd576040519150601f19603f3d011682016040523d82523d6000602084013e6120e2565b606091505b5091509150816040518060400160405280601d81526020016000805160206144168339815191528152509061212a5760405162461bcd60e51b815260040161024d9190613d43565b508080602001905181019061213f9190614045565b9450846040518060400160405280601881526020017722bb32b73a1d1021b634b8103a34b1b5b2ba1032b93937b960411b815250906121915760405162461bcd60e51b815260040161024d9190613d43565b507f73b94823b249d530a2b7223a82b4ae3a07a452eb37749ebe162f8bba7fb01f558888336040516121c593929190613e0f565b60405180910390a15050505050505050565b600082815260026020908152604091829020548251808401909352601b83526000805160206142bb833981519152918301919091528391906001600160a01b03166122355760405162461bcd60e51b815260040161024d9190613d43565b50600083815260096020908152604091829020600401548251606081019093526022808452901515929161443690830139906122845760405162461bcd60e51b815260040161024d9190613d43565b506000828152601060209081526040808320338452825280832054868452600990925282206002018054919283926122bd908490613fe5565b9091555050604051600090339083908381818185875af1925050503d8060008114612304576040519150601f19603f3d011682016040523d82523d6000602084013e612309565b606091505b505090508060405180606001604052806023815260200161429860239139906123455760405162461bcd60e51b815260040161024d9190613d43565b507fa454a872564530477ec0ade23bb2eadb5f61aeb76fb1f727d3f6c3a770f83da48433604051612377929190614067565b60405180910390a15050505050565b600081815260026020908152604091829020548251808401909352601b83526000805160206142bb8339815191529183019190915260609183916001600160a01b03166123e65760405162461bcd60e51b815260040161024d9190613d43565b506000838152600f602090815260408083203384528252918290208054835181840281018401909452808452909183018282801561244357602002820191906000526020600020905b81548152602001906001019080831161242f575b5050505050915050919050565b82518451146040518060400160405280601f8152602001600080516020614358833981519152815250906124975760405162461bcd60e51b815260040161024d9190613d43565b5080518251146040518060400160405280601f8152602001600080516020614358833981519152815250906124df5760405162461bcd60e51b815260040161024d9190613d43565b5060008060005b85518110156125ce5761253387828151811061250457612504613d6c565b60200260200101516000015188838151811061252257612522613d6c565b602002602001015160200151612d17565b6000915061256a87828151811061254c5761254c613d6c565b602002602001015160200151878381518110610d7657610d76613d6c565b85818151811061257c5761257c613d6c565b60200260200101516000015186828151811061259a5761259a613d6c565b6020026020010151602001516125b09190613e9a565b6125ba9084613d98565b9250806125c681613dab565b9150506124e6565b5034821460405180606001604052806023815260200161419860239139906126095760405162461bcd60e51b815260040161024d9190613d43565b506000805b87518110156128405760005b87828151811061262c5761262c613d6c565b60200260200101516000015181101561282d5760008060090160008b858151811061265957612659613d6c565b602002602001015160000151815260200190815260200160002060030160019054906101000a900460ff16600281111561269557612695613d56565b14604051806040016040528060158152602001600080516020614378833981519152815250906126d85760405162461bcd60e51b815260040161024d9190613d43565b506000600c0160008a84815181106126f2576126f2613d6c565b602002602001015160000151815260200190815260200160002061272188858151811061063157610631613d6c565b61273689868151811061065757610657613d6c565b604051602001612747929190613dc4565b60408051601f198184030181529082905261276191613df3565b90815260408051918290036020908101832054838301909252601583527422bb32b73a1d10283630b1b29034b9903a30b5b2b760591b9083015260ff16156127bc5760405162461bcd60e51b815260040161024d9190613d43565b5061280e8983815181106127d2576127d2613d6c565b6020026020010151600001518a84815181106127f0576127f0613d6c565b6020026020010151602001518a8581518110610f3257610f32613d6c565b612819600184613d98565b92508061282581613dab565b91505061261a565b508061283881613dab565b91505061260e565b5050505050505050565b60009283526013602090815260408085209385529281528284206001600160a01b039290921684525290205460ff1690565b6060816000036128a35750506040805180820190915260018152600360fc1b602082015290565b8160005b81156128cd57806128b781613dab565b91506128c69050600a83614094565b91506128a7565b6000816001600160401b038111156128e7576128e7613552565b6040519080825280601f01601f191660200182016040528015612911576020820181803683370190505b5090505b841561297c57612926600183613fe5565b9150612933600a866140a8565b61293e906030613d98565b60f81b81838151811061295357612953613d6c565b60200101906001600160f81b031916908160001a905350612975600a86614094565b9450612915565b949350505050565b600088815260096020526040812060020180548892906129a5908490613d98565b90915550506000878152600a6020526040812060080180548892906129cb908490613d98565b909155505060008881526009602052604080822060030154601254915163290be4dd60e01b8152620100009091046001600160401b031692916001600160a01b03169063290be4dd90612a32908d908d908d908d908d908d908d908d908d906004016140bc565b6020604051808303816000875af1158015612a51573d6000803e3d6000fd5b505050506040513d601f19601f82011682018060405250810190612a759190614123565b60008a8152600a602090815260408220600201805460018101825590835290822001829055909150612aa68861287c565b612aaf8861287c565b604051602001612ac0929190613dc4565b60408051601f1981840301815282825260008e8152600c60205291909120909250600191612aef908490613df3565b9081526040805160209281900383019020805460ff19169315159390931790925560008c8152600d82528281208590558d8152600e82528281206001600160a01b0388168252909152908120805460019290612b4c908490613d98565b909155505060008b8152600f602090815260408083206001600160a01b0388168452825280832080546001810182559084529190922001839055517f6606e4c8a88792ed4fd5159f9be235ca78e87fc1cbdc6158ea92d3ed3be9bf729061083d9084908790614067565b6000805b6000858152600f602090815260408083206001600160a01b0387168452909152902054811015612c41576000858152600f602090815260408083206001600160a01b03871684529091529020805485919083908110612c1b57612c1b613d6c565b906000526020600020015403612c2f578091505b80612c3981613dab565b915050612bba565b506000848152600f602090815260408083206001600160a01b038616845290915290208054612c7290600190613fe5565b81548110612c8257612c82613d6c565b6000918252602080832090910154868352600f825260408084206001600160a01b03871685529092529120805483908110612cbf57612cbf613d6c565b6000918252602080832090910192909255858152600f825260408082206001600160a01b038616835290925220805480612cfb57612cfb613ff8565b6001900381819060005260206000200160009055905550505050565b612d2082613535565b6040518060400160405280601b81526020016000805160206142bb83398151915281525090612d625760405162461bcd60e51b815260040161024d9190613d43565b506000818152600a6020908152604091829020548251808401909352601e835260008051602061430783398151915291830191909152612db55760405162461bcd60e51b815260040161024d9190613d43565b50816000600a01600083815260200190815260200160002060070154146040518060600160405280602981526020016141e56029913990612e095760405162461bcd60e51b815260040161024d9190613d43565b5060008281526009602090815260409182902060030154825160608101909352603180845260ff909116151560011492916143279083013990612e5f5760405162461bcd60e51b815260040161024d9190613d43565b506000818152600a6020908152604091829020600d0154825160608101909352603080845260ff9091161515600114929161420e9083013990612eb55760405162461bcd60e51b815260040161024d9190613d43565b506000818152600a60205260409020600501544210801590612ee857506000818152600a60205260409020600601544211155b60405180606001604052806029815260200161416f6029913990612f1f5760405162461bcd60e51b815260040161024d9190613d43565b50600082815260096020908152604080832060010154600e835281842033855283529281902054815160608101909252602680835293119290916143b89083013990612f7e5760405162461bcd60e51b815260040161024d9190613d43565b505050565b8151612f8f9082613d98565b6000848152600a60205260409020600481015460029091015491925090612fb7908390613d98565b11156040518060600160405280602381526020016144a26023913990612ff05760405162461bcd60e51b815260040161024d9190613d43565b506000838152600a6020526040902060090154156131425760005b6000848152600a6020526040902060090154811015611be85782516000858152600a6020526040902060090180548390811061304957613049613d6c565b906000526020600020015403613130576000848152600a6020819052604082200180548390811061307c5761307c613d6c565b906000526020600020015460646130939190613e9a565b6000868152600a6020526040812060030154919250906130b39083613421565b6020808701516000898152600a909252604090912060030154919250906130db908390613fe5565b14604051806040016040528060198152602001784576656e743a2057726f6e67207469636b657420707269636560381b8152509061312c5760405162461bcd60e51b815260040161024d9190613d43565b5050505b8061313a81613dab565b91505061300b565b6020808301516000858152600a835260409081902060030154815180830190925260198252784576656e743a2057726f6e67207469636b657420707269636560381b938201939093529114611be85760405162461bcd60e51b815260040161024d9190613d43565b601254604051633ee1bcfd60e11b81526004810183905260009182918291829182916001600160a01b031690637dc379fa90602401600060405180830381865afa1580156131fc573d6000803e3d6000fd5b505050506040513d6000823e601f3d908101601f191682016040526132249190810190613f36565b60008881526009602052604090206003015481519192506201000090046001600160401b03908116911614613265576060015160019450925061341a915050565b60005b6000888152600960205260409020600401548110156134115760008881526009602052604090206004018054829081106132a4576132a4613d6c565b90600052602060002090600202016000015442116133ff5760125460008981526009602052604081206004018054919283926001600160a01b03909116918b91869081106132f4576132f4613d6c565b6000918252602090912060029091020160010154604051602481019290925260ff16604482015260640160408051601f198184030181529181526020820180516001600160e01b03166375c8c9bd60e11b179052516133539190613df3565b6000604051808303816000865af19150503d8060008114613390576040519150601f19603f3d011682016040523d82523d6000602084013e613395565b606091505b5091509150816040518060400160405280601d8152602001600080516020614416833981519152815250906133dd5760405162461bcd60e51b815260040161024d9190613d43565b5060019450808060200190518101906133f69190614123565b95505050613411565b8061340981613dab565b915050613268565b50909350909150505b9250929050565b60006127106134308385613e9a565b10156134785760405162461bcd60e51b8152602060048201526017602482015276050657263656e746167653a20526f756e647320746f203604c1b604482015260640161024d565b6127106134858385613e9a565b61348f9190614094565b90505b92915050565b6000806134a483613535565b6134c05760405162461bcd60e51b815260040161024d9061413c565b60009283526009016020525060409020600301546201000090046001600160401b031690565b6000806134f283613535565b61350e5760405162461bcd60e51b815260040161024d9061413c565b6000928352600901602052506040902060030154600160501b90046001600160401b031690565b6000908152600260205260409020546001600160a01b0316151590565b634e487b7160e01b600052604160045260246000fd5b604080519081016001600160401b038111828210171561358a5761358a613552565b60405290565b604051606081016001600160401b038111828210171561358a5761358a613552565b60405160e081016001600160401b038111828210171561358a5761358a613552565b604051601f8201601f191681016001600160401b03811182821017156135fc576135fc613552565b604052919050565b60006001600160401b0382111561361d5761361d613552565b5060051b60200190565b600061363a61363584613604565b6135d4565b8381529050602080820190600685901b84018681111561365957600080fd5b845b8181101561369657604081890312156136745760008081fd5b61367c613568565b81358152838201358482015284529282019260400161365b565b505050509392505050565b6001600160a01b03811681146136b657600080fd5b50565b60006001600160401b038211156136d2576136d2613552565b50601f01601f191660200190565b600082601f8301126136f157600080fd5b8135602061370161363583613604565b82815260059290921b8401810191818101908684111561372057600080fd5b8286015b8481101561379e5780356001600160401b038111156137435760008081fd5b8701603f810189136137555760008081fd5b848101356040613767613635836136b9565b8281528b8284860101111561377c5760008081fd5b8282850189830137600092810188019290925250845250918301918301613724565b509695505050505050565b600080600080608085870312156137bf57600080fd5b843593506020808601356001600160401b03808211156137de57600080fd5b818801915088601f8301126137f257600080fd5b613800898335858501613627565b955060409150818801358181111561381757600080fd5b8801601f81018a1361382857600080fd5b803561383661363582613604565b8181526060918202830186019186820191908d84111561385557600080fd5b938701935b838510156138a65780858f0312156138725760008081fd5b61387a613590565b85358152888601358982015287860135613893816136a1565b818901528352938401939187019161385a565b9098508b01359550505050808311156138be57600080fd5b50506138cc878288016136e0565b91505092959194509250565b600082601f8301126138e957600080fd5b813560206138f961363583613604565b82815260059290921b8401810191818101908684111561391857600080fd5b8286015b8481101561379e57803561392f816136a1565b835291830191830161391c565b60008060006060848603121561395157600080fd5b833592506020808501356001600160401b038082111561397057600080fd5b818701915087601f83011261398457600080fd5b813561399261363582613604565b81815260059190911b8301840190848101908a8311156139b157600080fd5b938501935b828510156139cf578435825293850193908501906139b6565b9650505060408701359250808311156139e757600080fd5b50506139f5868287016138d8565b9150509250925092565b600082601f830112613a1057600080fd5b61348f83833560208501613627565b600080600080600060a08688031215613a3757600080fd5b853594506020860135935060408601356001600160401b0380821115613a5c57600080fd5b613a6889838a016139ff565b94506060880135915080821115613a7e57600080fd5b613a8a89838a016139ff565b93506080880135915080821115613aa057600080fd5b50613aad888289016136e0565b9150509295509295909350565b6000808284036060811215613ace57600080fd5b833592506040601f1982011215613ae457600080fd5b50613aed613568565b60208401358152604084013560ff81168114613b0857600080fd5b6020820152919491935090915050565b60008060008060808587031215613b2e57600080fd5b84359350602085013592506040850135613b47816136a1565b91506060850135613b57816136a1565b939692955090935050565b600060608284031215613b7457600080fd5b604051606081016001600160401b0381118282101715613b9657613b96613552565b80604052508235815260208301356020820152604083013560408201528091505092915050565b600060208284031215613bcf57600080fd5b5035919050565b60008060408385031215613be957600080fd5b50508035926020909101359150565b6020808252825182820181905260009190848201906040850190845b81811015613c3057835183529284019291840191600101613c14565b50909695505050505050565b60008060008060808587031215613c5257600080fd5b84356001600160401b0380821115613c6957600080fd5b818701915087601f830112613c7d57600080fd5b613c8c88833560208501613627565b95506020870135915080821115613ca257600080fd5b613cae888389016139ff565b94506040870135915080821115613cc457600080fd5b613cd0888389016139ff565b93506060870135915080821115613ce657600080fd5b506138cc878288016136e0565b60005b83811015613d0e578181015183820152602001613cf6565b50506000910152565b60008151808452613d2f816020860160208601613cf3565b601f01601f19169290920160200192915050565b60208152600061348f6020830184613d17565b634e487b7160e01b600052602160045260246000fd5b634e487b7160e01b600052603260045260246000fd5b634e487b7160e01b600052601160045260246000fd5b8082018082111561349257613492613d82565b600060018201613dbd57613dbd613d82565b5060010190565b60008351613dd6818460208801613cf3565b835190830190613dea818360208801613cf3565b01949350505050565b60008251613e05818460208701613cf3565b9190910192915050565b92835260208301919091526001600160a01b0316604082015260600190565b6000606082018583526020606081850152818651808452608086019150828801935060005b81811015613e785784516001600160a01b031683529383019391830191600101613e53565b50506001600160a01b0395909516604094909401939093525091949350505050565b808202811582820484141761349257613492613d82565b600060208284031215613ec357600080fd5b8151613ece816136a1565b9392505050565b80516001600160401b0381168114613eec57600080fd5b919050565b600082601f830112613f0257600080fd5b8151613f10613635826136b9565b818152846020838601011115613f2557600080fd5b61297c826020830160208701613cf3565b600060208284031215613f4857600080fd5b81516001600160401b0380821115613f5f57600080fd5b9083019060e08286031215613f7357600080fd5b613f7b6135b2565b613f8483613ed5565b81526020830151602082015260408301516040820152606083015160608201526080830151608082015260a083015160a082015260c083015182811115613fca57600080fd5b613fd687828601613ef1565b60c08301525095945050505050565b8181038181111561349257613492613d82565b634e487b7160e01b600052603160045260246000fd5b60018060a01b038516815283602082015282604082015260806060820152600061403b6080830184613d17565b9695505050505050565b60006020828403121561405757600080fd5b81518015158114613ece57600080fd5b9182526001600160a01b0316602082015260400190565b634e487b7160e01b600052601260045260246000fd5b6000826140a3576140a361407e565b500490565b6000826140b7576140b761407e565b500690565b60006101208b83528a60208401528960408401528860608401528760808401528060a08401526140ee81840188613d17565b95151560c084015250506001600160a01b039290921660e08301526001600160401b0316610100909101529695505050505050565b60006020828403121561413557600080fd5b5051919050565b602080825260189082015277115490cd4c0c0dce88125b9d985b1a59081d1bdad95b925960421b60408201526060019056fe4576656e743a2043616e277420627579207469636b65747320666f722063617465676f7279207965744576656e743a204d73672076616c7565206e6f7420657120746f74616c2070726963654576656e743a2043616c6c6572206973206e6f7420616e2061646d696e206f72206d6f64657261746f724576656e743a20546869732063617465676f727920697320666f7220616e6f74686572206576656e744576656e743a205469636b65747320666f7220746869732063617465676f727920617265206e6f742062757961626c654576656e743a204f6e6c7920636173686965722063616e20776974686472617720636f6e74726163742062616c616e63654576656e743a20436f6e74726163742062616c616e63652077697468647261772072657665727465644576656e743a2041636320726566756e642077697468647261772072657665727465644576656e743a204576656e7420646f6573206e6f7420657869737400000000004576656e743a205469636b657420646f65736e277420657869737420696e20746869732063617465676f72794576656e743a2043617465676f727920646f6573206e6f7420657869737400004576656e743a205469636b65747320666f7220616c6c2063617465676f7269657320617265206e6f742062757961626c654576656e743a20506172616d6574657273206c656e677468206e6f74206571004576656e743a204576656e742063616e63656c6564000000000000000000000071f3d55856e4058ed06ee057d79ada615f65cdf5f9ee88181b914225088f834f4576656e743a204d6178207469636b65747320666f72206163636f756e7420726561636865644576656e743a2043616c6c6572206973206e6f7420616e2061646d696e2c206d6f64657261746f72206f7220726563657074696f6e6973744576656e743a20436f6e74726163742063616c6c2072657665727465640000004576656e743a2043616e277420726566756e6420666f722074686973206576656e744576656e743a20506172616d657465722061727261792063616e277420626520656d7074794576656e743a2057726f6e67206461746520666f72207469636b657420636c697070696e674576656e743a204d6178207469636b65747320636f756e742069732072656163686564a264697066735822122006d86b300632eade40dd8fd963025470d9465c97b768109fc3766ddfba70d0bb64736f6c63430008110033",
  "linkReferences": {},
  "deployedLinkReferences": {}
}