{
  "_format": "hh-sol-artifact-1",
  "contractName": "EventTicketControllerFacet",
  "sourceName": "contracts/EventDiamond/facets/EventTicketControllerFacet.sol",
  "abi": [
    {
      "anonymous": false,
      "inputs": [
        {
          "indexed": true,
          "internalType": "uint256",
          "name": "fromTokenId",
          "type": "uint256"
        },
        {
          "indexed": false,
          "internalType": "uint256",
          "name": "toTokenId",
          "type": "uint256"
        },
        {
          "indexed": true,
          "internalType": "address",
          "name": "fromAddress",
          "type": "address"
        },
        {
          "indexed": true,
          "internalType": "address",
          "name": "toAddress",
          "type": "address"
        }
      ],
      "name": "ConsecutiveTransfer",
      "type": "event"
    },
    {
      "anonymous": false,
      "inputs": [
        {
          "indexed": false,
          "internalType": "uint256",
          "name": "eventId",
          "type": "uint256"
        },
        {
          "indexed": false,
          "internalType": "uint256",
          "name": "date",
          "type": "uint256"
        },
        {
          "indexed": false,
          "internalType": "uint8",
          "name": "percentage",
          "type": "uint8"
        }
      ],
      "name": "EventRefundDateAdded",
      "type": "event"
    },
    {
      "anonymous": false,
      "inputs": [
        {
          "indexed": false,
          "internalType": "uint256",
          "name": "eventId",
          "type": "uint256"
        }
      ],
      "name": "EventWithdraw",
      "type": "event"
    },
    {
      "anonymous": false,
      "inputs": [
        {
          "indexed": false,
          "internalType": "uint256",
          "name": "eventId",
          "type": "uint256"
        },
        {
          "indexed": false,
          "internalType": "address[]",
          "name": "accounts",
          "type": "address[]"
        },
        {
          "indexed": false,
          "internalType": "address",
          "name": "staffMember",
          "type": "address"
        }
      ],
      "name": "InvitationSent",
      "type": "event"
    },
    {
      "anonymous": false,
      "inputs": [
        {
          "indexed": false,
          "internalType": "uint256",
          "name": "ticketId",
          "type": "uint256"
        },
        {
          "indexed": false,
          "internalType": "address",
          "name": "account",
          "type": "address"
        }
      ],
      "name": "RefundWithdraw",
      "type": "event"
    },
    {
      "anonymous": false,
      "inputs": [
        {
          "indexed": false,
          "internalType": "uint256",
          "name": "ticketId",
          "type": "uint256"
        },
        {
          "indexed": false,
          "internalType": "address",
          "name": "account",
          "type": "address"
        }
      ],
      "name": "TicketBought",
      "type": "event"
    },
    {
      "anonymous": false,
      "inputs": [
        {
          "indexed": false,
          "internalType": "uint256",
          "name": "eventId",
          "type": "uint256"
        },
        {
          "indexed": false,
          "internalType": "uint256",
          "name": "ticketId",
          "type": "uint256"
        },
        {
          "indexed": false,
          "internalType": "address",
          "name": "staffMember",
          "type": "address"
        }
      ],
      "name": "TicketClipped",
      "type": "event"
    },
    {
      "anonymous": false,
      "inputs": [
        {
          "indexed": false,
          "internalType": "uint256",
          "name": "eventId",
          "type": "uint256"
        },
        {
          "indexed": false,
          "internalType": "uint256",
          "name": "categoryId",
          "type": "uint256"
        },
        {
          "indexed": false,
          "internalType": "uint256",
          "name": "ticketId",
          "type": "uint256"
        },
        {
          "indexed": false,
          "internalType": "address",
          "name": "account",
          "type": "address"
        }
      ],
      "name": "TicketRefunded",
      "type": "event"
    },
    {
      "anonymous": false,
      "inputs": [
        {
          "indexed": false,
          "internalType": "uint256",
          "name": "eventId",
          "type": "uint256"
        },
        {
          "indexed": false,
          "internalType": "uint256",
          "name": "ticketCount",
          "type": "uint256"
        },
        {
          "indexed": false,
          "internalType": "address",
          "name": "staffMember",
          "type": "address"
        }
      ],
      "name": "TicketsBooked",
      "type": "event"
    },
    {
      "inputs": [
        {
          "internalType": "uint256",
          "name": "_eventId",
          "type": "uint256"
        },
        {
          "components": [
            {
              "internalType": "uint256",
              "name": "date",
              "type": "uint256"
            },
            {
              "internalType": "uint8",
              "name": "percentage",
              "type": "uint8"
            }
          ],
          "internalType": "struct RefundData",
          "name": "_refundData",
          "type": "tuple"
        }
      ],
      "name": "addRefundDeadline",
      "outputs": [],
      "stateMutability": "nonpayable",
      "type": "function"
    },
    {
      "inputs": [
        {
          "internalType": "uint256",
          "name": "_eventId",
          "type": "uint256"
        },
        {
          "components": [
            {
              "internalType": "uint256",
              "name": "categoryId",
              "type": "uint256"
            },
            {
              "internalType": "uint256",
              "name": "ticketAmount",
              "type": "uint256"
            }
          ],
          "internalType": "struct CategoryTicketAmount[]",
          "name": "_categoryTicketAmount",
          "type": "tuple[]"
        },
        {
          "components": [
            {
              "internalType": "uint256",
              "name": "row",
              "type": "uint256"
            },
            {
              "internalType": "uint256",
              "name": "seat",
              "type": "uint256"
            },
            {
              "internalType": "address",
              "name": "account",
              "type": "address"
            }
          ],
          "internalType": "struct TicketPlaceAddress[]",
          "name": "_place",
          "type": "tuple[]"
        },
        {
          "internalType": "string[]",
          "name": "_ticketMetadataUris",
          "type": "string[]"
        }
      ],
      "name": "bookTickets",
      "outputs": [],
      "stateMutability": "nonpayable",
      "type": "function"
    },
    {
      "inputs": [
        {
          "internalType": "uint256",
          "name": "_eventId",
          "type": "uint256"
        },
        {
          "internalType": "uint256",
          "name": "_categoryId",
          "type": "uint256"
        },
        {
          "components": [
            {
              "internalType": "uint256",
              "name": "amount",
              "type": "uint256"
            },
            {
              "internalType": "uint256",
              "name": "price",
              "type": "uint256"
            }
          ],
          "internalType": "struct TicketPriceData[]",
          "name": "_priceData",
          "type": "tuple[]"
        },
        {
          "components": [
            {
              "internalType": "uint256",
              "name": "row",
              "type": "uint256"
            },
            {
              "internalType": "uint256",
              "name": "seat",
              "type": "uint256"
            }
          ],
          "internalType": "struct TicketPlace[]",
          "name": "_place",
          "type": "tuple[]"
        },
        {
          "internalType": "string[]",
          "name": "_ticketMetadataUris",
          "type": "string[]"
        }
      ],
      "name": "buyTickets",
      "outputs": [],
      "stateMutability": "payable",
      "type": "function"
    },
    {
      "inputs": [
        {
          "components": [
            {
              "internalType": "uint256",
              "name": "eventId",
              "type": "uint256"
            },
            {
              "internalType": "uint256",
              "name": "categoryId",
              "type": "uint256"
            }
          ],
          "internalType": "struct EventCategoryData[]",
          "name": "_eventCategoryData",
          "type": "tuple[]"
        },
        {
          "components": [
            {
              "internalType": "uint256",
              "name": "amount",
              "type": "uint256"
            },
            {
              "internalType": "uint256",
              "name": "price",
              "type": "uint256"
            }
          ],
          "internalType": "struct TicketPriceData[]",
          "name": "_priceData",
          "type": "tuple[]"
        },
        {
          "components": [
            {
              "internalType": "uint256",
              "name": "row",
              "type": "uint256"
            },
            {
              "internalType": "uint256",
              "name": "seat",
              "type": "uint256"
            }
          ],
          "internalType": "struct TicketPlace[]",
          "name": "_place",
          "type": "tuple[]"
        },
        {
          "internalType": "string[]",
          "name": "_ticketMetadataUris",
          "type": "string[]"
        }
      ],
      "name": "buyTickets",
      "outputs": [],
      "stateMutability": "payable",
      "type": "function"
    },
    {
      "inputs": [
        {
          "internalType": "uint256",
          "name": "_eventId",
          "type": "uint256"
        },
        {
          "internalType": "uint256",
          "name": "_ticketId",
          "type": "uint256"
        }
      ],
      "name": "clipTicket",
      "outputs": [],
      "stateMutability": "nonpayable",
      "type": "function"
    },
    {
      "inputs": [
        {
          "internalType": "uint256",
          "name": "_eventId",
          "type": "uint256"
        }
      ],
      "name": "getAddressTicketIdsByEvent",
      "outputs": [
        {
          "internalType": "uint256[]",
          "name": "",
          "type": "uint256[]"
        }
      ],
      "stateMutability": "view",
      "type": "function"
    },
    {
      "inputs": [
        {
          "components": [
            {
              "internalType": "uint256",
              "name": "eventId",
              "type": "uint256"
            },
            {
              "internalType": "uint256",
              "name": "categoryId",
              "type": "uint256"
            },
            {
              "internalType": "uint256",
              "name": "ticketId",
              "type": "uint256"
            }
          ],
          "internalType": "struct ReturnTicketParams",
          "name": "_returnTicketParams",
          "type": "tuple"
        }
      ],
      "name": "returnTicket",
      "outputs": [],
      "stateMutability": "nonpayable",
      "type": "function"
    },
    {
      "inputs": [
        {
          "internalType": "uint256",
          "name": "_eventId",
          "type": "uint256"
        },
        {
          "internalType": "uint256[]",
          "name": "_ticketIds",
          "type": "uint256[]"
        },
        {
          "internalType": "address[]",
          "name": "_accounts",
          "type": "address[]"
        }
      ],
      "name": "sendInvitation",
      "outputs": [],
      "stateMutability": "nonpayable",
      "type": "function"
    },
    {
      "inputs": [
        {
          "internalType": "uint256",
          "name": "_eventId",
          "type": "uint256"
        }
      ],
      "name": "withdrawContractBalance",
      "outputs": [],
      "stateMutability": "nonpayable",
      "type": "function"
    },
    {
      "inputs": [
        {
          "internalType": "uint256",
          "name": "_eventId",
          "type": "uint256"
        },
        {
          "internalType": "uint256",
          "name": "_ticketId",
          "type": "uint256"
        }
      ],
      "name": "withdrawRefund",
      "outputs": [],
      "stateMutability": "nonpayable",
      "type": "function"
    }
  ],
  "bytecode": "0x608060405234801561001057600080fd5b50613df4806100206000396000f3fe6080604052600436106100915760003560e01c8063b5abe85a11610059578063b5abe85a1461012b578063d90e6dd71461014b578063ddb7d5df1461016b578063e3bccc0f1461018b578063ef71b78a146101c157600080fd5b806328e13a9e146100965780632d3bf559146100b85780634f905e5d146100d85780637ce8b341146100eb578063ab6a8d6a1461010b575b600080fd5b3480156100a257600080fd5b506100b66100b13660046131cb565b6101d4565b005b3480156100c457600080fd5b506100b66100d336600461335e565b6107dd565b6100b66100e6366004613441565b610b44565b3480156100f757600080fd5b506100b66101063660046134dc565b610e60565b34801561011757600080fd5b506100b661012636600461353a565b610fb3565b34801561013757600080fd5b506100b6610146366004613595565b6118f4565b34801561015757600080fd5b506100b66101663660046135ae565b611bc3565b34801561017757600080fd5b506100b66101863660046135ae565b611ec6565b34801561019757600080fd5b506101ab6101a6366004613595565b61200b565b6040516101b891906135d0565b60405180910390f35b6100b66101cf366004613614565b612075565b600084815260026020908152604091829020548251808401909352601b8352600080516020613bcf833981519152918301919091528591906001600160a01b031661023b5760405162461bcd60e51b8152600401610232919061371b565b60405180910390fd5b50610248856000336123d5565b80610267575061026785600080516020613c6c833981519152336123d5565b6040518060600160405280602a8152602001613acf602a91399061029e5760405162461bcd60e51b8152600401610232919061371b565b50835160001415604051806060016040528060258152602001613d2c60259139906102dc5760405162461bcd60e51b8152600401610232919061371b565b5081518351146040518060400160405280601f8152602001600080516020613c4c833981519152815250906103245760405162461bcd60e51b8152600401610232919061371b565b5060008060005b8651811015610557576000600a01600088838151811061034d5761034d61372e565b602002602001015160000151815260200190815260200160002060000154600014156040518060400160405280601e81526020017f4576656e743a2043617465676f727920646f6573206e6f742065786973740000815250906103c35760405162461bcd60e51b8152600401610232919061371b565b50876000600a0160008984815181106103de576103de61372e565b60200260200101516000015181526020019081526020016000206007015414604051806060016040528060298152602001613af960299139906104345760405162461bcd60e51b8152600401610232919061371b565b508681815181106104475761044761372e565b6020026020010151602001518361045e919061375a565b92506000600a0160008883815181106104795761047961372e565b602002602001015160000151815260200190815260200160002060040154836000600a0160008a85815181106104b1576104b161372e565b6020026020010151600001518152602001908152602001600020600201805490506104dc919061375a565b1115604051806060016040528060238152602001613d7660239139906105155760405162461bcd60e51b8152600401610232919061371b565b506000925086818151811061052c5761052c61372e565b60200260200101516020015182610543919061375a565b91508061054f8161376d565b91505061032b565b5060008060008060005b8a518110156107905760005b8b828151811061057f5761057f61372e565b60200260200101516020015181101561077d5760008d8152600c602052604090208b516105c9908d90899081106105b8576105b861372e565b602002602001015160000151612407565b6105ef8d89815181106105de576105de61372e565b602002602001015160200151612407565b604051602001610600929190613786565b60408051601f198184030181529082905261061a916137b5565b90815260408051918290036020908101832054838301909252601583527422bb32b73a1d10283630b1b29034b9903a30b5b2b760591b9083015260ff16156106755760405162461bcd60e51b8152600401610232919061371b565b5060006001600160a01b03168b87815181106106935761069361372e565b6020026020010151604001516001600160a01b0316146106d6578a86815181106106bf576106bf61372e565b6020026020010151604001519350600192506106de565b309350600092505b61075e8d8d84815181106106f4576106f461372e565b602002602001015160000151878e8a815181106107135761071361372e565b6020026020010151600001518f8b815181106107315761073161372e565b6020026020010151602001518f8c8151811061074f5761074f61372e565b6020026020010151898b61250f565b61076960018761375a565b9550806107758161376d565b91505061056d565b50806107888161376d565b915050610561565b50604080518c815260208101879052338183015290517f0bf6beb306958fd2b5107d64b133ea297e354c91e8508878a9a4abb9206d82289181900360600190a15050505050505050505050565b600083815260026020908152604091829020548251808401909352601b8352600080516020613bcf833981519152918301919091528491906001600160a01b031661083b5760405162461bcd60e51b8152600401610232919061371b565b50610848846000336123d5565b80610867575061086784600080516020613c6c833981519152336123d5565b6040518060600160405280602a8152602001613acf602a91399061089e5760405162461bcd60e51b8152600401610232919061371b565b508251158015906108af5750815115155b604051806060016040528060258152602001613d2c60259139906108e65760405162461bcd60e51b8152600401610232919061371b565b5081518351146040518060400160405280601f8152602001600080516020613c4c8339815191528152509061092e5760405162461bcd60e51b8152600401610232919061371b565b5060005b8351811015610b025760115483516001600160a01b03909116906323b872dd9030908690859081106109665761096661372e565b60200260200101518785815181106109805761098061372e565b60209081029190910101516040516001600160e01b031960e086901b1681526001600160a01b0393841660048201529290911660248301526044820152606401600060405180830381600087803b1580156109da57600080fd5b505af11580156109ee573d6000803e3d6000fd5b505060115486516001600160a01b03909116925063dd4670649150869084908110610a1b57610a1b61372e565b60200260200101516040518263ffffffff1660e01b8152600401610a4191815260200190565b600060405180830381600087803b158015610a5b57600080fd5b505af1158015610a6f573d6000803e3d6000fd5b5050506000868152600f602052604081208551909250859084908110610a9757610a9761372e565b60200260200101516001600160a01b03166001600160a01b03168152602001908152602001600020848281518110610ad157610ad161372e565b6020908102919091018101518254600181018455600093845291909220015580610afa8161376d565b915050610932565b507fc47e064bd57c3620a43c1e4ac852f9185e9582f40bdd973a20f4c1bf520f38a5848333604051610b36939291906137d1565b60405180910390a150505050565b825160001415604051806060016040528060258152602001613d2c6025913990610b815760405162461bcd60e51b8152600401610232919061371b565b5080518251146040518060400160405280601f8152602001600080516020613c4c83398151915281525090610bc95760405162461bcd60e51b8152600401610232919061371b565b50610bd48585612700565b60008060005b8551811015610c6f5760009150610c0b87878381518110610bfd57610bfd61372e565b6020026020010151846129f9565b858181518110610c1d57610c1d61372e565b602002602001015160000151868281518110610c3b57610c3b61372e565b602002602001015160200151610c51919061383d565b610c5b908461375a565b925080610c678161376d565b915050610bda565b50348214604051806060016040528060238152602001613aac6023913990610caa5760405162461bcd60e51b8152600401610232919061371b565b506000805b8651811015610e555760005b878281518110610ccd57610ccd61372e565b602002602001015160000151811015610e425760008a8152600c602052604090208751610d06908990869081106105b8576105b861372e565b610d1b8986815181106105de576105de61372e565b604051602001610d2c929190613786565b60408051601f1981840301815290829052610d46916137b5565b90815260408051918290036020908101832054838301909252601583527422bb32b73a1d10283630b1b29034b9903a30b5b2b760591b9083015260ff1615610da15760405162461bcd60e51b8152600401610232919061371b565b50610e238a8a8a8581518110610db957610db961372e565b6020026020010151602001518a8781518110610dd757610dd761372e565b6020026020010151600001518b8881518110610df557610df561372e565b6020026020010151602001518b8981518110610e1357610e1361372e565b602002602001015160003361250f565b610e2e60018461375a565b925080610e3a8161376d565b915050610cbb565b5080610e4d8161376d565b915050610caf565b505050505050505050565b600082815260026020908152604091829020548251808401909352601b8352600080516020613bcf833981519152918301919091528391906001600160a01b0316610ebe5760405162461bcd60e51b8152600401610232919061371b565b50610ecb836000336123d5565b80610eea5750610eea83600080516020613c6c833981519152336123d5565b6040518060600160405280602a8152602001613acf602a913990610f215760405162461bcd60e51b8152600401610232919061371b565b506000838152600960209081526040808320600401805460018181018355918552938390208651600290950201848155928601519201805460ff841660ff19909116179055517f6acb6edf217693871c0a1b4dc7f139e64435ab88c84cdc94a85daf36cd06849c92610fa692878352602083019190915260ff16604082015260600190565b60405180910390a1505050565b8051600081815260026020908152604091829020548251808401909352601b8352600080516020613bcf833981519152918301919091526001600160a01b03166110105760405162461bcd60e51b8152600401610232919061371b565b506020808301516000818152600a8352604090819020548151808301909252601e82527f4576656e743a2043617465676f727920646f6573206e6f74206578697374000093820193909352909161107a5760405162461bcd60e51b8152600401610232919061371b565b5082600001518360200151816000600a0160008381526020019081526020016000206007015414604051806060016040528060298152602001613af960299139906110d85760405162461bcd60e51b8152600401610232919061371b565b5084602001518560400151806000600d01600084815260200190815260200160002054146040518060600160405280602c8152602001613bef602c9139906111335760405162461bcd60e51b8152600401610232919061371b565b5086516000908152600960209081526040918290206004015482516060810190935260228084529015159291613d0a90830139906111845760405162461bcd60e51b8152600401610232919061371b565b5060008061119a89600001518a60400151612c26565b91509150816040518060400160405280601a81526020017f4576656e743a20526566756e642064617465206973206f766572000000000000815250906111f35760405162461bcd60e51b8152600401610232919061371b565b506040898101805160009081526010602090815283822033835290528281208490556011549151925160248101939093529182916001600160a01b03169060440160408051601f198184030181529181526020820180516001600160e01b03166331a9108f60e11b1790525161126991906137b5565b6000604051808303816000865af19150503d80600081146112a6576040519150601f19603f3d011682016040523d82523d6000602084013e6112ab565b606091505b5091509150336001600160a01b0316818060200190518101906112ce9190613854565b6001600160a01b03161480156112e15750815b6040518060400160405280601d8152602001600080516020613cea833981519152815250906113235760405162461bcd60e51b8152600401610232919061371b565b505089516000908152600c6020526040808220601154828e01519251633ee1bcfd60e11b81526004810193909352929350916113bc916001600160a01b0390911690637dc379fa90602401600060405180830381865afa15801561138b573d6000803e3d6000fd5b505050506040513d6000823e601f3d908101601f191682016040526113b39190810190613878565b60600151612407565b60115460408d8101519051633ee1bcfd60e11b8152600481019190915261143e916001600160a01b031690637dc379fa90602401600060405180830381865afa15801561140d573d6000803e3d6000fd5b505050506040513d6000823e601f3d908101601f191682016040526114359190810190613878565b60800151612407565b60405160200161144f929190613786565b60408051601f1981840301815290829052611469916137b5565b90815260408051918290036020018220805493151560ff1990941693909317909255601154918b015160248201523360448201523060648201526000916001600160a01b03169060840160408051601f198184030181529181526020820180516001600160e01b031663025ba0e960e61b179052516114e891906137b5565b6000604051808303816000865af19150503d8060008114611525576040519150601f19603f3d011682016040523d82523d6000602084013e61152a565b606091505b50509050806040518060400160405280601d8152602001600080516020613cea833981519152815250906115715760405162461bcd60e51b8152600401610232919061371b565b506000805b6020808d01516000908152600a90915260409020600201548110156115ee578b604001516000600a0160008e60200151815260200190815260200160002060020182815481106115c8576115c861372e565b9060005260206000200154036115dc578091505b806115e68161376d565b915050611576565b506020808c0180516000908152600a90925260408083209151835290912060029081015491019061162190600190613951565b815481106116315761163161372e565b90600052602060002001546000600a0160008d602001518152602001908152602001600020600201828154811061166a5761166a61372e565b60009182526020808320909101929092558c8201518152600a9091526040902060020180548061169c5761169c613964565b6000828152602080822083016000199081018390559092019092558c518252600e8152604080832033845290915281208054600193509091906116e0908490613951565b9091555060009050805b8b516000908152600f60209081526040808320338452909152902054811015611765576040808d01518d516000908152600f602090815283822033835290529190912080548390811061173f5761173f61372e565b906000526020600020015403611753578091505b8061175d8161376d565b9150506116ea565b506000600f0160008c6000015181526020019081526020016000206000336001600160a01b03166001600160a01b0316815260200190815260200160002060016000600f0160008e6000015181526020019081526020016000206000336001600160a01b03166001600160a01b03168152602001908152602001600020805490506117f09190613951565b815481106118005761180061372e565b60009182526020808320909101548d518352600f8252604080842033855290925291208054839081106118355761183561372e565b60009182526020808320909101929092558c518152600f825260408082203383529092522080548061186957611869613964565b60019003818190600052602060002001600090559055507f87ff245f55dca5f20f12247f39f781d5710eda96984e49512daad7b675e414798a600001518b602001518c60400151336040516118e09493929190938452602084019290925260408301526001600160a01b0316606082015260800190565b60405180910390a150505050505050505050565b600081815260026020908152604091829020548251808401909352601b8352600080516020613bcf833981519152918301919091528291906001600160a01b03166119525760405162461bcd60e51b8152600401610232919061371b565b5061197e827fff3317e1e0e8c784290b957ee9b65ea8fe96420c4819db463283b95ecbe4a3fe336123d5565b604051806060016040528060318152602001613b5260319139906119b55760405162461bcd60e51b8152600401610232919061371b565b506000828152600960205260408120600401548190819081036119eb576000858152600960205260409020600201549250611ade565b60005b600086815260096020526040902060040154811015611adc576000868152600960205260409020600401805482908110611a2a57611a2a61372e565b9060005260206000209060020201600001544211611aca576000868152600960205260409020600401805482908110611a6557611a6561372e565b600091825260208083206002928302016001015489845260099091526040909220015460ff9091169350611aa390611a9e85606461383d565b612de3565b600087815260096020526040902060020154909250611ac3908390613951565b9350611adc565b80611ad48161376d565b9150506119ee565b505b60008581526009602052604081206002018054859290611aff908490613951565b9091555050604051600090339085908381818185875af1925050503d8060008114611b46576040519150601f19603f3d011682016040523d82523d6000602084013e611b4b565b606091505b5050905080604051806060016040528060298152602001613b836029913990611b875760405162461bcd60e51b8152600401610232919061371b565b506040518681527feea9f2e0c73d19e23063194ae9ba8512a252b6c0bd44e31315f611c5efaa8f0b9060200160405180910390a1505050505050565b600082815260026020908152604091829020548251808401909352601b8352600080516020613bcf833981519152918301919091528391906001600160a01b0316611c215760405162461bcd60e51b8152600401610232919061371b565b50611c2e836000336123d5565b80611c4d5750611c4d83600080516020613c6c833981519152336123d5565b80611c7e5750611c7e837fb5a7f51d0593e853ad0aa6b718ee0bdd10c4966eb62d243b69d538e5823d0401336123d5565b604051806060016040528060388152602001613cb26038913990611cb55760405162461bcd60e51b8152600401610232919061371b565b5042611cc084612e60565b6001600160401b031611158015611ce8575042611cdc84612ee6565b6001600160401b031610155b604051806060016040528060258152602001613d516025913990611d1f5760405162461bcd60e51b8152600401610232919061371b565b50601154604051600091600191606091849182916001600160a01b031690611d519030908a908890889060240161397a565b60408051601f198184030181529181526020820180516001600160e01b0316631e27140560e01b17905251611d8691906137b5565b6000604051808303816000865af19150503d8060008114611dc3576040519150601f19603f3d011682016040523d82523d6000602084013e611dc8565b606091505b5091509150816040518060400160405280601d8152602001600080516020613cea83398151915281525090611e105760405162461bcd60e51b8152600401610232919061371b565b5080806020019051810190611e2591906139b1565b9450846040518060400160405280601881526020017f4576656e743a20436c6970207469636b6574206572726f72000000000000000081525090611e7c5760405162461bcd60e51b8152600401610232919061371b565b506040805189815260208101899052338183015290517f73b94823b249d530a2b7223a82b4ae3a07a452eb37749ebe162f8bba7fb01f559181900360600190a15050505050505050565b6000828152600960209081526040918290206004015482516060810190935260228084529015159291613d0a9083013990611f145760405162461bcd60e51b8152600401610232919061371b565b50600081815260106020908152604080832033845282528083205485845260099092528220600201805491928392611f4d908490613951565b9091555050604051600090339083908381818185875af1925050503d8060008114611f94576040519150601f19603f3d011682016040523d82523d6000602084013e611f99565b606091505b5050905080604051806060016040528060238152602001613bac6023913990611fd55760405162461bcd60e51b8152600401610232919061371b565b50604080518481523360208201527fa454a872564530477ec0ade23bb2eadb5f61aeb76fb1f727d3f6c3a770f83da49101610b36565b6000818152600f6020908152604080832033845282529182902080548351818402810184019094528084526060939283018282801561206957602002820191906000526020600020905b815481526020019060010190808311612055575b50505050509050919050565b82518451146040518060400160405280601f8152602001600080516020613c4c833981519152815250906120bc5760405162461bcd60e51b8152600401610232919061371b565b5080518251146040518060400160405280601f8152602001600080516020613c4c833981519152815250906121045760405162461bcd60e51b8152600401610232919061371b565b5060008060005b85518110156121f3576121588782815181106121295761212961372e565b6020026020010151600001518883815181106121475761214761372e565b602002602001015160200151612700565b6000915061218f8782815181106121715761217161372e565b602002602001015160200151878381518110610bfd57610bfd61372e565b8581815181106121a1576121a161372e565b6020026020010151600001518682815181106121bf576121bf61372e565b6020026020010151602001516121d5919061383d565b6121df908461375a565b9250806121eb8161376d565b91505061210b565b50348214604051806060016040528060238152602001613aac602391399061222e5760405162461bcd60e51b8152600401610232919061371b565b506000805b87518110156123cb5760005b8782815181106122515761225161372e565b6020026020010151600001518110156123b8576000600c0160008a848151811061227d5761227d61372e565b60200260200101516000015181526020019081526020016000206122ac8885815181106105b8576105b861372e565b6122c18986815181106105de576105de61372e565b6040516020016122d2929190613786565b60408051601f19818403018152908290526122ec916137b5565b90815260408051918290036020908101832054838301909252601583527422bb32b73a1d10283630b1b29034b9903a30b5b2b760591b9083015260ff16156123475760405162461bcd60e51b8152600401610232919061371b565b5061239989838151811061235d5761235d61372e565b6020026020010151600001518a848151811061237b5761237b61372e565b6020026020010151602001518a8581518110610db957610db961372e565b6123a460018461375a565b9250806123b08161376d565b91505061223f565b50806123c38161376d565b915050612233565b5050505050505050565b60009283526012602090815260408085209385529281528284206001600160a01b039290921684525290205460ff1690565b60608160000361242e5750506040805180820190915260018152600360fc1b602082015290565b8160005b811561245857806124428161376d565b91506124519050600a836139e9565b9150612432565b6000816001600160401b0381111561247257612472612f74565b6040519080825280601f01601f19166020018201604052801561249c576020820181803683370190505b5090505b8415612507576124b1600183613951565b91506124be600a866139fd565b6124c990603061375a565b60f81b8183815181106124de576124de61372e565b60200101906001600160f81b031916908160001a905350612500600a866139e9565b94506124a0565b949350505050565b6000888152600960205260408120600201805488929061253090849061375a565b9091555050601154604051639b69ff0960e01b81526000916001600160a01b031690639b69ff0990612574908c908c908c908c908c908c908c908c90600401613a11565b6020604051808303816000875af1158015612593573d6000803e3d6000fd5b505050506040513d601f19601f820116820180604052508101906125b79190613a69565b6000898152600a6020908152604082206002018054600181018255908352908220018290559091506125e887612407565b6125f187612407565b604051602001612602929190613786565b60408051601f1981840301815282825260008d8152600c602052919091209092506001916126319084906137b5565b9081526040805160209281900383019020805460ff19169315159390931790925560008b8152600d82528281208590558c8152600e82528281206001600160a01b038716825290915290812080546001929061268e90849061375a565b909155505060008a8152600f602090815260408083206001600160a01b0387168085529083528184208054600181018255908552938390209093018590558051858152918201929092527f6606e4c8a88792ed4fd5159f9be235ca78e87fc1cbdc6158ea92d3ed3be9bf7291016118e0565b6000828152600260205260409020546001600160a01b031615156040518060400160405280601b8152602001600080516020613bcf8339815191528152509061275c5760405162461bcd60e51b8152600401610232919061371b565b506000818152600a6020908152604091829020548251808401909352601e83527f4576656e743a2043617465676f727920646f6573206e6f742065786973740000918301919091526127c15760405162461bcd60e51b8152600401610232919061371b565b50816000600a0160008381526020019081526020016000206007015414604051806060016040528060298152602001613af960299139906128155760405162461bcd60e51b8152600401610232919061371b565b5060008281526009602090815260409182902060030154825160608101909352603180845260ff90911615156001149291613c1b908301399061286b5760405162461bcd60e51b8152600401610232919061371b565b506000818152600a6020908152604091829020600c0154825160608101909352603080845260ff90911615156001149291613b2290830139906128c15760405162461bcd60e51b8152600401610232919061371b565b50426128cc83612e60565b6001600160401b0316111580156128f45750426128e883612ee6565b6001600160401b031610155b604051806060016040528060268152602001613d99602691399061292b5760405162461bcd60e51b8152600401610232919061371b565b506000818152600a6020526040902060050154421080159061295e57506000818152600a60205260409020600601544211155b604051806060016040528060298152602001613a8360299139906129955760405162461bcd60e51b8152600401610232919061371b565b50600082815260096020908152604080832060010154600e83528184203385528352928190205481516060810190925260268083529311929091613c8c90830139906129f45760405162461bcd60e51b8152600401610232919061371b565b505050565b8151612a05908261375a565b6000848152600a60205260409020600481015460029091015491925090612a2d90839061375a565b1115604051806060016040528060238152602001613d766023913990612a665760405162461bcd60e51b8152600401610232919061371b565b506000838152600a602052604090206008015415612bbe5760005b6000848152600a6020526040902060080154811015612bb85782516000858152600a60205260409020600801805483908110612abf57612abf61372e565b906000526020600020015403612ba6576000848152600a60205260408120600901805483908110612af257612af261372e565b90600052602060002001546064612b09919061383d565b6000868152600a602052604081206003015491925090612b299083612de3565b6020808701516000898152600a90925260409091206003015491925090612b51908390613951565b14604051806040016040528060198152602001784576656e743a2057726f6e67207469636b657420707269636560381b81525090612ba25760405162461bcd60e51b8152600401610232919061371b565b5050505b80612bb08161376d565b915050612a81565b50505050565b6020808301516000858152600a835260409081902060030154815180830190925260198252784576656e743a2057726f6e67207469636b657420707269636560381b938201939093529114612bb85760405162461bcd60e51b8152600401610232919061371b565b60008060008060005b600087815260096020526040902060040154811015612dd8576000878152600960205260409020600401805482908110612c6b57612c6b61372e565b9060005260206000209060020201600001544211612dc65760115460008881526009602052604081206004018054919283926001600160a01b03909116918a9186908110612cbb57612cbb61372e565b6000918252602090912060029091020160010154604051602481019290925260ff16604482015260640160408051601f198184030181529181526020820180516001600160e01b03166375c8c9bd60e11b17905251612d1a91906137b5565b6000604051808303816000865af19150503d8060008114612d57576040519150601f19603f3d011682016040523d82523d6000602084013e612d5c565b606091505b5091509150816040518060400160405280601d8152602001600080516020613cea83398151915281525090612da45760405162461bcd60e51b8152600401610232919061371b565b506001935080806020019051810190612dbd9190613a69565b94505050612dd8565b80612dd08161376d565b915050612c2f565b509590945092505050565b6000612710612df2838561383d565b1015612e405760405162461bcd60e51b815260206004820152601760248201527f50657263656e746167653a20526f756e647320746f20300000000000000000006044820152606401610232565b612710612e4d838561383d565b612e5791906139e9565b90505b92915050565b60008181526002602052604081205481906001600160a01b0316612ec15760405162461bcd60e51b8152602060048201526018602482015277115490cd4c0c0dce88125b9d985b1a59081d1bdad95b925960421b6044820152606401610232565b600092835260090160205250604090206003015461010090046001600160401b031690565b60008181526002602052604081205481906001600160a01b0316612f475760405162461bcd60e51b8152602060048201526018602482015277115490cd4c0c0dce88125b9d985b1a59081d1bdad95b925960421b6044820152606401610232565b6000928352600901602052506040902060030154690100000000000000000090046001600160401b031690565b634e487b7160e01b600052604160045260246000fd5b604080519081016001600160401b0381118282101715612fac57612fac612f74565b60405290565b604051606081016001600160401b0381118282101715612fac57612fac612f74565b60405160c081016001600160401b0381118282101715612fac57612fac612f74565b604051601f8201601f191681016001600160401b038111828210171561301e5761301e612f74565b604052919050565b60006001600160401b0382111561303f5761303f612f74565b5060051b60200190565b600061305c61305784613026565b612ff6565b8381529050602080820190600685901b84018681111561307b57600080fd5b845b818110156130b857604081890312156130965760008081fd5b61309e612f8a565b81358152838201358482015284529282019260400161307d565b505050509392505050565b6001600160a01b03811681146130d857600080fd5b50565b60006001600160401b038211156130f4576130f4612f74565b50601f01601f191660200190565b600082601f83011261311357600080fd5b8135602061312361305783613026565b82815260059290921b8401810191818101908684111561314257600080fd5b8286015b848110156131c05780356001600160401b038111156131655760008081fd5b8701603f810189136131775760008081fd5b848101356040613189613057836130db565b8281528b8284860101111561319e5760008081fd5b8282850189830137600092810188019290925250845250918301918301613146565b509695505050505050565b600080600080608085870312156131e157600080fd5b843593506020808601356001600160401b038082111561320057600080fd5b818801915088601f83011261321457600080fd5b613222898335858501613049565b955060409150818801358181111561323957600080fd5b8801601f81018a1361324a57600080fd5b803561325861305782613026565b8181526060918202830186019186820191908d84111561327757600080fd5b938701935b838510156132c85780858f0312156132945760008081fd5b61329c612fb2565b853581528886013589820152878601356132b5816130c3565b818901528352938401939187019161327c565b9098508b01359550505050808311156132e057600080fd5b50506132ee87828801613102565b91505092959194509250565b600082601f83011261330b57600080fd5b8135602061331b61305783613026565b82815260059290921b8401810191818101908684111561333a57600080fd5b8286015b848110156131c0578035613351816130c3565b835291830191830161333e565b60008060006060848603121561337357600080fd5b833592506020808501356001600160401b038082111561339257600080fd5b818701915087601f8301126133a657600080fd5b81356133b461305782613026565b81815260059190911b8301840190848101908a8311156133d357600080fd5b938501935b828510156133f1578435825293850193908501906133d8565b96505050604087013592508083111561340957600080fd5b5050613417868287016132fa565b9150509250925092565b600082601f83011261343257600080fd5b612e5783833560208501613049565b600080600080600060a0868803121561345957600080fd5b853594506020860135935060408601356001600160401b038082111561347e57600080fd5b61348a89838a01613421565b945060608801359150808211156134a057600080fd5b6134ac89838a01613421565b935060808801359150808211156134c257600080fd5b506134cf88828901613102565b9150509295509295909350565b60008082840360608112156134f057600080fd5b833592506040601f198201121561350657600080fd5b5061350f612f8a565b60208401358152604084013560ff8116811461352a57600080fd5b6020820152919491935090915050565b60006060828403121561354c57600080fd5b604051606081018181106001600160401b038211171561356e5761356e612f74565b80604052508235815260208301356020820152604083013560408201528091505092915050565b6000602082840312156135a757600080fd5b5035919050565b600080604083850312156135c157600080fd5b50508035926020909101359150565b6020808252825182820181905260009190848201906040850190845b81811015613608578351835292840192918401916001016135ec565b50909695505050505050565b6000806000806080858703121561362a57600080fd5b84356001600160401b038082111561364157600080fd5b818701915087601f83011261365557600080fd5b61366488833560208501613049565b9550602087013591508082111561367a57600080fd5b61368688838901613421565b9450604087013591508082111561369c57600080fd5b6136a888838901613421565b935060608701359150808211156136be57600080fd5b506132ee87828801613102565b60005b838110156136e65781810151838201526020016136ce565b50506000910152565b600081518084526137078160208601602086016136cb565b601f01601f19169290920160200192915050565b602081526000612e5760208301846136ef565b634e487b7160e01b600052603260045260246000fd5b634e487b7160e01b600052601160045260246000fd5b80820180821115612e5a57612e5a613744565b60006001820161377f5761377f613744565b5060010190565b600083516137988184602088016136cb565b8351908301906137ac8183602088016136cb565b01949350505050565b600082516137c78184602087016136cb565b9190910192915050565b6000606082018583526020606081850152818651808452608086019150828801935060005b8181101561381b5784516001600160a01b0316835293830193918301916001016137f6565b50506001600160a01b0395909516604094909401939093525091949350505050565b8082028115828204841417612e5a57612e5a613744565b60006020828403121561386657600080fd5b8151613871816130c3565b9392505050565b6000602080838503121561388b57600080fd5b82516001600160401b03808211156138a257600080fd5b9084019060c082870312156138b657600080fd5b6138be612fd4565b82518152838301518482015260408301516040820152606083015160608201526080830151608082015260a0830151828111156138fa57600080fd5b80840193505086601f84011261390f57600080fd5b8251915061391f613057836130db565b828152878584860101111561393357600080fd5b613942838683018787016136cb565b60a08201529695505050505050565b81810381811115612e5a57612e5a613744565b634e487b7160e01b600052603160045260246000fd5b60018060a01b03851681528360208201528260408201526080606082015260006139a760808301846136ef565b9695505050505050565b6000602082840312156139c357600080fd5b8151801515811461387157600080fd5b634e487b7160e01b600052601260045260246000fd5b6000826139f8576139f86139d3565b500490565b600082613a0c57613a0c6139d3565b500690565b60006101008a83528960208401528860408401528760608401528660808401528060a0840152613a43818401876136ef565b94151560c084015250506001600160a01b039190911660e0909101529695505050505050565b600060208284031215613a7b57600080fd5b505191905056fe4576656e743a2043616e277420627579207469636b65747320666f722063617465676f7279207965744576656e743a204d73672076616c7565206e6f7420657120746f74616c2070726963654576656e743a2043616c6c6572206973206e6f7420616e2061646d696e206f72206d6f64657261746f724576656e743a20546869732063617465676f727920697320666f7220616e6f74686572206576656e744576656e743a205469636b65747320666f7220746869732063617465676f727920617265206e6f742062757961626c654576656e743a204f6e6c7920636173686965722063616e20776974686472617720636f6e74726163742062616c616e63654576656e743a20436f6e74726163742062616c616e63652077697468647261772072657665727465644576656e743a2041636320726566756e642077697468647261772072657665727465644576656e743a204576656e7420646f6573206e6f7420657869737400000000004576656e743a205469636b657420646f65736e277420657869737420696e20746869732063617465676f72794576656e743a205469636b65747320666f7220616c6c2063617465676f7269657320617265206e6f742062757961626c654576656e743a20506172616d6574657273206c656e677468206e6f742065710071f3d55856e4058ed06ee057d79ada615f65cdf5f9ee88181b914225088f834f4576656e743a204d6178207469636b65747320666f72206163636f756e7420726561636865644576656e743a2043616c6c6572206973206e6f7420616e2061646d696e2c206d6f64657261746f72206f7220726563657074696f6e6973744576656e743a20436f6e74726163742063616c6c2072657665727465640000004576656e743a2043616e277420726566756e6420666f722074686973206576656e744576656e743a20506172616d657465722061727261792063616e277420626520656d7074794576656e743a2057726f6e67206461746520666f72207469636b657420636c697070696e674576656e743a204d6178207469636b65747320636f756e7420697320726561636865644576656e743a2043616e277420627579207469636b65747320666f72206576656e7420796574a264697066735822122003524824d18a8f7554aa0e6ac743e7f6fe5c142bf12171841bc3ad69dabda14d64736f6c63430008110033",
  "linkReferences": {},
  "deployedLinkReferences": {}
}