{
  "_format": "hh-sol-artifact-1",
  "contractName": "EventERC721",
  "sourceName": "contracts/EventDiamond/facets/EventERC721Facet.sol",
  "abi": [
    {
      "anonymous": false,
      "inputs": [
        {
          "indexed": true,
          "internalType": "address",
          "name": "owner",
          "type": "address"
        },
        {
          "indexed": true,
          "internalType": "address",
          "name": "approved",
          "type": "address"
        },
        {
          "indexed": true,
          "internalType": "uint256",
          "name": "tokenId",
          "type": "uint256"
        }
      ],
      "name": "Approval",
      "type": "event"
    },
    {
      "anonymous": false,
      "inputs": [
        {
          "indexed": true,
          "internalType": "address",
          "name": "owner",
          "type": "address"
        },
        {
          "indexed": true,
          "internalType": "address",
          "name": "operator",
          "type": "address"
        },
        {
          "indexed": false,
          "internalType": "bool",
          "name": "approved",
          "type": "bool"
        }
      ],
      "name": "ApprovalForAll",
      "type": "event"
    },
    {
      "anonymous": false,
      "inputs": [
        {
          "indexed": true,
          "internalType": "address",
          "name": "from",
          "type": "address"
        },
        {
          "indexed": true,
          "internalType": "address",
          "name": "to",
          "type": "address"
        },
        {
          "indexed": true,
          "internalType": "uint256",
          "name": "tokenId",
          "type": "uint256"
        }
      ],
      "name": "Transfer",
      "type": "event"
    },
    {
      "inputs": [
        {
          "internalType": "address",
          "name": "to",
          "type": "address"
        },
        {
          "internalType": "uint256",
          "name": "tokenId",
          "type": "uint256"
        }
      ],
      "name": "approve",
      "outputs": [],
      "stateMutability": "nonpayable",
      "type": "function"
    },
    {
      "inputs": [
        {
          "internalType": "address",
          "name": "owner",
          "type": "address"
        }
      ],
      "name": "balanceOf",
      "outputs": [
        {
          "internalType": "uint256",
          "name": "",
          "type": "uint256"
        }
      ],
      "stateMutability": "view",
      "type": "function"
    },
    {
      "inputs": [
        {
          "internalType": "uint256",
          "name": "tokenId",
          "type": "uint256"
        }
      ],
      "name": "endTime",
      "outputs": [
        {
          "internalType": "uint64",
          "name": "",
          "type": "uint64"
        }
      ],
      "stateMutability": "view",
      "type": "function"
    },
    {
      "inputs": [
        {
          "internalType": "uint256",
          "name": "tokenId",
          "type": "uint256"
        }
      ],
      "name": "getApproved",
      "outputs": [
        {
          "internalType": "address",
          "name": "",
          "type": "address"
        }
      ],
      "stateMutability": "view",
      "type": "function"
    },
    {
      "inputs": [
        {
          "internalType": "address",
          "name": "owner",
          "type": "address"
        },
        {
          "internalType": "address",
          "name": "operator",
          "type": "address"
        }
      ],
      "name": "isApprovedForAll",
      "outputs": [
        {
          "internalType": "bool",
          "name": "",
          "type": "bool"
        }
      ],
      "stateMutability": "view",
      "type": "function"
    },
    {
      "inputs": [],
      "name": "name",
      "outputs": [
        {
          "internalType": "string",
          "name": "",
          "type": "string"
        }
      ],
      "stateMutability": "view",
      "type": "function"
    },
    {
      "inputs": [
        {
          "internalType": "uint256",
          "name": "tokenId",
          "type": "uint256"
        }
      ],
      "name": "ownerOf",
      "outputs": [
        {
          "internalType": "address",
          "name": "",
          "type": "address"
        }
      ],
      "stateMutability": "view",
      "type": "function"
    },
    {
      "inputs": [
        {
          "internalType": "address",
          "name": "from",
          "type": "address"
        },
        {
          "internalType": "address",
          "name": "to",
          "type": "address"
        },
        {
          "internalType": "uint256",
          "name": "tokenId",
          "type": "uint256"
        }
      ],
      "name": "safeTransferFrom",
      "outputs": [],
      "stateMutability": "nonpayable",
      "type": "function"
    },
    {
      "inputs": [
        {
          "internalType": "address",
          "name": "from",
          "type": "address"
        },
        {
          "internalType": "address",
          "name": "to",
          "type": "address"
        },
        {
          "internalType": "uint256",
          "name": "tokenId",
          "type": "uint256"
        },
        {
          "internalType": "bytes",
          "name": "data",
          "type": "bytes"
        }
      ],
      "name": "safeTransferFrom",
      "outputs": [],
      "stateMutability": "nonpayable",
      "type": "function"
    },
    {
      "inputs": [
        {
          "internalType": "address",
          "name": "operator",
          "type": "address"
        },
        {
          "internalType": "bool",
          "name": "approved",
          "type": "bool"
        }
      ],
      "name": "setApprovalForAll",
      "outputs": [],
      "stateMutability": "nonpayable",
      "type": "function"
    },
    {
      "inputs": [
        {
          "internalType": "uint256",
          "name": "tokenId",
          "type": "uint256"
        }
      ],
      "name": "startTime",
      "outputs": [
        {
          "internalType": "uint64",
          "name": "",
          "type": "uint64"
        }
      ],
      "stateMutability": "view",
      "type": "function"
    },
    {
      "inputs": [
        {
          "internalType": "bytes4",
          "name": "interfaceId",
          "type": "bytes4"
        }
      ],
      "name": "supportsInterface",
      "outputs": [
        {
          "internalType": "bool",
          "name": "",
          "type": "bool"
        }
      ],
      "stateMutability": "view",
      "type": "function"
    },
    {
      "inputs": [],
      "name": "symbol",
      "outputs": [
        {
          "internalType": "string",
          "name": "",
          "type": "string"
        }
      ],
      "stateMutability": "view",
      "type": "function"
    },
    {
      "inputs": [
        {
          "internalType": "uint256",
          "name": "tokenId",
          "type": "uint256"
        }
      ],
      "name": "tokenURI",
      "outputs": [
        {
          "internalType": "string",
          "name": "",
          "type": "string"
        }
      ],
      "stateMutability": "view",
      "type": "function"
    },
    {
      "inputs": [
        {
          "internalType": "address",
          "name": "from",
          "type": "address"
        },
        {
          "internalType": "address",
          "name": "to",
          "type": "address"
        },
        {
          "internalType": "uint256",
          "name": "tokenId",
          "type": "uint256"
        }
      ],
      "name": "transferFrom",
      "outputs": [],
      "stateMutability": "nonpayable",
      "type": "function"
    }
  ],
  "bytecode": "0x608060405234801561001057600080fd5b506112b8806100206000396000f3fe608060405234801561001057600080fd5b50600436106100c55760003560e01c806301ffc9a7146100ca57806306fdde03146100f3578063081812fc14610108578063095ea7b31461013357806323b872dd146101485780633ec4c9681461015b57806342842e0e1461018657806344c816fa146101995780636352211e146101ac57806370a08231146101bf57806395d89b41146101e0578063a22cb465146101e8578063b88d4fde146101fb578063c87b56dd1461020e578063e985e9c514610221575b600080fd5b6100de6100d8366004610d7c565b50600090565b60405190151581526020015b60405180910390f35b6100fb610234565b6040516100ea9190610de9565b61011b610116366004610dfc565b6102cb565b6040516001600160a01b0390911681526020016100ea565b610146610141366004610e31565b6102f4565b005b610146610156366004610e5b565b61040e565b61016e610169366004610dfc565b61043f565b6040516001600160401b0390911681526020016100ea565b610146610194366004610e5b565b610450565b61016e6101a7366004610dfc565b61046b565b61011b6101ba366004610dfc565b610476565b6101d26101cd366004610e97565b6104b4565b6040519081526020016100ea565b6100fb610540565b6101466101f6366004610eb2565b610553565b610146610209366004610f04565b610562565b6100fb61021c366004610dfc565b61059a565b6100de61022f366004610fdf565b6106e1565b6060600080600001805461024790611012565b80601f016020809104026020016040519081016040528092919081815260200182805461027390611012565b80156102c05780601f10610295576101008083540402835291602001916102c0565b820191906000526020600020905b8154815290600101906020018083116102a357829003601f168201915b505050505091505090565b6000806102d78361070f565b60009283526004016020525060409020546001600160a01b031690565b60006102ff82610476565b9050806001600160a01b0316836001600160a01b0316036103715760405162461bcd60e51b815260206004820152602160248201527f4552433732313a20617070726f76616c20746f2063757272656e74206f776e656044820152603960f91b60648201526084015b60405180910390fd5b336001600160a01b038216148061038d575061038d81336106e1565b6103ff5760405162461bcd60e51b815260206004820152603e60248201527f4552433732313a20617070726f76652063616c6c6572206973206e6f7420746f60448201527f6b656e206f776e6572206e6f7220617070726f76656420666f7220616c6c00006064820152608401610368565b6104098383610737565b505050565b61041833826107a6565b6104345760405162461bcd60e51b81526004016103689061104c565b610409838383610805565b600061044a826109a9565b92915050565b61040983838360405180602001604052806000815250610562565b600061044a826109f7565b60008181526002602052604081205481906001600160a01b0316806104ad5760405162461bcd60e51b81526004016103689061109a565b9392505050565b6000806001600160a01b03831661051f5760405162461bcd60e51b815260206004820152602960248201527f4552433732313a2061646472657373207a65726f206973206e6f7420612076616044820152683634b21037bbb732b960b91b6064820152608401610368565b6001600160a01b039092166000908152600390920160205250604090205490565b6060600080600101805461024790611012565b61055e338383610a46565b5050565b61056c33836107a6565b6105885760405162461bcd60e51b81526004016103689061104c565b61059484848484610b15565b50505050565b606060006105a78361070f565b6000838152600682016020526040812080546105c290611012565b80601f01602080910402602001604051908101604052809291908181526020018280546105ee90611012565b801561063b5780601f106106105761010080835404028352916020019161063b565b820191906000526020600020905b81548152906001019060200180831161061e57829003601f168201915b50505050509050600061065960408051602081019091526000815290565b9050805160000361066c57509392505050565b81511561069f5780826040516020016106869291906110cc565b6040516020818303038152906040529350505050919050565b60008151116106bd57604051806020016040528060008152506106d8565b806106c786610b48565b6040516020016106869291906110cc565b95945050505050565b6001600160a01b03918216600090815260056020908152604080832093909416825291909152205460ff1690565b61071881610c48565b6107345760405162461bcd60e51b81526004016103689061109a565b50565b600081815260046020526040812080546001600160a01b0319166001600160a01b038516908117909155829061076c82610476565b6001600160a01b03167f8c5be1e5ebec7d5bd14f71427d1e84f3dd0314c0f7b2291e5b200ac8c7c3b92560405160405180910390a4505050565b6000806107b283610476565b9050806001600160a01b0316846001600160a01b031614806107d957506107d981856106e1565b806107fd5750836001600160a01b03166107f2846102cb565b6001600160a01b0316145b949350505050565b6000836001600160a01b031661081a83610476565b6001600160a01b03161461087e5760405162461bcd60e51b815260206004820152602560248201527f4552433732313a207472616e736665722066726f6d20696e636f72726563742060448201526437bbb732b960d91b6064820152608401610368565b6001600160a01b0383166108e05760405162461bcd60e51b8152602060048201526024808201527f4552433732313a207472616e7366657220746f20746865207a65726f206164646044820152637265737360e01b6064820152608401610368565b6108eb600083610737565b6001600160a01b03841660009081526003820160205260408120805460019290610916908490611111565b90915550506001600160a01b03831660009081526003820160205260408120805460019290610946908490611124565b9091555050600082815260028201602052604080822080546001600160a01b0319166001600160a01b0387811691821790925591518593918816917fddf252ad1be2c89b69c2b068fc378daa952ba7f163c4a11628f55a4df523b3ef91a4610594565b6000806109b583610c48565b6109d15760405162461bcd60e51b815260040161036890611137565b6000928352600e016020525060409020600301546201000090046001600160401b031690565b600080610a0383610c48565b610a1f5760405162461bcd60e51b815260040161036890611137565b6000928352600e01602052506040902060030154600160501b90046001600160401b031690565b6000826001600160a01b0316846001600160a01b031603610aa55760405162461bcd60e51b815260206004820152601960248201527822a9219b99189d1030b8383937bb32903a379031b0b63632b960391b6044820152606401610368565b6001600160a01b038481166000818152600584016020908152604080832094881680845294825291829020805460ff191687151590811790915591519182527f17307eab39ab6107e8899845ad3d59bd9653f200f220920489ca2b5937696c31910160405180910390a350505050565b610b20848484610805565b610b2c84848484610c65565b6105945760405162461bcd60e51b815260040161036890611169565b606081600003610b6f5750506040805180820190915260018152600360fc1b602082015290565b8160005b8115610b995780610b83816111bb565b9150610b929050600a836111ea565b9150610b73565b6000816001600160401b03811115610bb357610bb3610eee565b6040519080825280601f01601f191660200182016040528015610bdd576020820181803683370190505b5090505b84156107fd57610bf2600183611111565b9150610bff600a866111fe565b610c0a906030611124565b60f81b818381518110610c1f57610c1f611212565b60200101906001600160f81b031916908160001a905350610c41600a866111ea565b9450610be1565b6000908152600260205260409020546001600160a01b0316151590565b60006001600160a01b0384163b15610d5b57604051630a85bd0160e11b81526001600160a01b0385169063150b7a0290610ca9903390899088908890600401611228565b6020604051808303816000875af1925050508015610ce4575060408051601f3d908101601f19168201909252610ce191810190611265565b60015b610d41573d808015610d12576040519150601f19603f3d011682016040523d82523d6000602084013e610d17565b606091505b508051600003610d395760405162461bcd60e51b815260040161036890611169565b805181602001fd5b6001600160e01b031916630a85bd0160e11b1490506107fd565b506001949350505050565b6001600160e01b03198116811461073457600080fd5b600060208284031215610d8e57600080fd5b81356104ad81610d66565b60005b83811015610db4578181015183820152602001610d9c565b50506000910152565b60008151808452610dd5816020860160208601610d99565b601f01601f19169290920160200192915050565b6020815260006104ad6020830184610dbd565b600060208284031215610e0e57600080fd5b5035919050565b80356001600160a01b0381168114610e2c57600080fd5b919050565b60008060408385031215610e4457600080fd5b610e4d83610e15565b946020939093013593505050565b600080600060608486031215610e7057600080fd5b610e7984610e15565b9250610e8760208501610e15565b9150604084013590509250925092565b600060208284031215610ea957600080fd5b6104ad82610e15565b60008060408385031215610ec557600080fd5b610ece83610e15565b915060208301358015158114610ee357600080fd5b809150509250929050565b634e487b7160e01b600052604160045260246000fd5b60008060008060808587031215610f1a57600080fd5b610f2385610e15565b9350610f3160208601610e15565b92506040850135915060608501356001600160401b0380821115610f5457600080fd5b818701915087601f830112610f6857600080fd5b813581811115610f7a57610f7a610eee565b604051601f8201601f19908116603f01168101908382118183101715610fa257610fa2610eee565b816040528281528a6020848701011115610fbb57600080fd5b82602086016020830137600060208483010152809550505050505092959194509250565b60008060408385031215610ff257600080fd5b610ffb83610e15565b915061100960208401610e15565b90509250929050565b600181811c9082168061102657607f821691505b60208210810361104657634e487b7160e01b600052602260045260246000fd5b50919050565b6020808252602e908201527f4552433732313a2063616c6c6572206973206e6f7420746f6b656e206f776e6560408201526d1c881b9bdc88185c1c1c9bdd995960921b606082015260800190565b602080825260189082015277115490cdcc8c4e881a5b9d985b1a59081d1bdad95b88125160421b604082015260600190565b600083516110de818460208801610d99565b8351908301906110f2818360208801610d99565b01949350505050565b634e487b7160e01b600052601160045260246000fd5b8181038181111561044a5761044a6110fb565b8082018082111561044a5761044a6110fb565b602080825260189082015277115490cd4c0c0dce88125b9d985b1a59081d1bdad95b925960421b604082015260600190565b60208082526032908201527f4552433732313a207472616e7366657220746f206e6f6e20455243373231526560408201527131b2b4bb32b91034b6b83632b6b2b73a32b960711b606082015260800190565b6000600182016111cd576111cd6110fb565b5060010190565b634e487b7160e01b600052601260045260246000fd5b6000826111f9576111f96111d4565b500490565b60008261120d5761120d6111d4565b500690565b634e487b7160e01b600052603260045260246000fd5b6001600160a01b038581168252841660208201526040810183905260806060820181905260009061125b90830184610dbd565b9695505050505050565b60006020828403121561127757600080fd5b81516104ad81610d6656fea2646970667358221220fc11b10c1d39ab3f9cb71ec87585e12df6e27fbe464933b5945b436b0ee3b8b464736f6c63430008110033",
  "linkReferences": {},
  "deployedLinkReferences": {}
}