{
  "_format": "hh-sol-artifact-1",
  "contractName": "EventTicketControllerFacet",
  "sourceName": "contracts/EventDiamond/facets/EventTicketControllerFacet.sol",
  "abi": [
    {
      "anonymous": false,
      "inputs": [
        {
          "indexed": true,
          "internalType": "uint256",
          "name": "fromTokenId",
          "type": "uint256"
        },
        {
          "indexed": false,
          "internalType": "uint256",
          "name": "toTokenId",
          "type": "uint256"
        },
        {
          "indexed": true,
          "internalType": "address",
          "name": "fromAddress",
          "type": "address"
        },
        {
          "indexed": true,
          "internalType": "address",
          "name": "toAddress",
          "type": "address"
        }
      ],
      "name": "ConsecutiveTransfer",
      "type": "event"
    },
    {
      "anonymous": false,
      "inputs": [
        {
          "indexed": false,
          "internalType": "uint256",
          "name": "eventId",
          "type": "uint256"
        },
        {
          "indexed": false,
          "internalType": "uint256",
          "name": "date",
          "type": "uint256"
        },
        {
          "indexed": false,
          "internalType": "uint8",
          "name": "percentage",
          "type": "uint8"
        }
      ],
      "name": "EventRefundDateAdded",
      "type": "event"
    },
    {
      "anonymous": false,
      "inputs": [
        {
          "indexed": false,
          "internalType": "uint256",
          "name": "eventId",
          "type": "uint256"
        }
      ],
      "name": "EventWithdraw",
      "type": "event"
    },
    {
      "anonymous": false,
      "inputs": [
        {
          "indexed": false,
          "internalType": "uint256",
          "name": "eventId",
          "type": "uint256"
        },
        {
          "indexed": false,
          "internalType": "address[]",
          "name": "accounts",
          "type": "address[]"
        },
        {
          "indexed": false,
          "internalType": "address",
          "name": "staffMember",
          "type": "address"
        }
      ],
      "name": "InvitationSent",
      "type": "event"
    },
    {
      "anonymous": false,
      "inputs": [
        {
          "indexed": false,
          "internalType": "uint256",
          "name": "ticketId",
          "type": "uint256"
        },
        {
          "indexed": false,
          "internalType": "address",
          "name": "account",
          "type": "address"
        }
      ],
      "name": "RefundWithdraw",
      "type": "event"
    },
    {
      "anonymous": false,
      "inputs": [
        {
          "indexed": false,
          "internalType": "uint256",
          "name": "ticketId",
          "type": "uint256"
        },
        {
          "indexed": false,
          "internalType": "address",
          "name": "account",
          "type": "address"
        }
      ],
      "name": "TicketBought",
      "type": "event"
    },
    {
      "anonymous": false,
      "inputs": [
        {
          "indexed": false,
          "internalType": "uint256",
          "name": "eventId",
          "type": "uint256"
        },
        {
          "indexed": false,
          "internalType": "uint256",
          "name": "ticketId",
          "type": "uint256"
        },
        {
          "indexed": false,
          "internalType": "address",
          "name": "staffMember",
          "type": "address"
        }
      ],
      "name": "TicketClipped",
      "type": "event"
    },
    {
      "anonymous": false,
      "inputs": [
        {
          "indexed": false,
          "internalType": "uint256",
          "name": "eventId",
          "type": "uint256"
        },
        {
          "indexed": false,
          "internalType": "uint256",
          "name": "categoryId",
          "type": "uint256"
        },
        {
          "indexed": false,
          "internalType": "uint256",
          "name": "ticketId",
          "type": "uint256"
        },
        {
          "indexed": false,
          "internalType": "address",
          "name": "account",
          "type": "address"
        }
      ],
      "name": "TicketRefunded",
      "type": "event"
    },
    {
      "anonymous": false,
      "inputs": [
        {
          "indexed": false,
          "internalType": "uint256",
          "name": "eventId",
          "type": "uint256"
        },
        {
          "indexed": false,
          "internalType": "uint256",
          "name": "ticketCount",
          "type": "uint256"
        },
        {
          "indexed": false,
          "internalType": "address",
          "name": "staffMember",
          "type": "address"
        }
      ],
      "name": "TicketsBooked",
      "type": "event"
    },
    {
      "inputs": [
        {
          "internalType": "uint256",
          "name": "_eventId",
          "type": "uint256"
        },
        {
          "components": [
            {
              "internalType": "uint256",
              "name": "date",
              "type": "uint256"
            },
            {
              "internalType": "uint8",
              "name": "percentage",
              "type": "uint8"
            }
          ],
          "internalType": "struct RefundData",
          "name": "_refundData",
          "type": "tuple"
        }
      ],
      "name": "addRefundDeadline",
      "outputs": [],
      "stateMutability": "nonpayable",
      "type": "function"
    },
    {
      "inputs": [
        {
          "internalType": "uint256",
          "name": "_eventId",
          "type": "uint256"
        },
        {
          "components": [
            {
              "internalType": "uint256",
              "name": "categoryId",
              "type": "uint256"
            },
            {
              "internalType": "uint256",
              "name": "ticketAmount",
              "type": "uint256"
            }
          ],
          "internalType": "struct CategoryTicketAmount[]",
          "name": "_categoryTicketAmount",
          "type": "tuple[]"
        },
        {
          "components": [
            {
              "internalType": "uint256",
              "name": "row",
              "type": "uint256"
            },
            {
              "internalType": "uint256",
              "name": "seat",
              "type": "uint256"
            },
            {
              "internalType": "address",
              "name": "account",
              "type": "address"
            }
          ],
          "internalType": "struct TicketPlaceAddress[]",
          "name": "_place",
          "type": "tuple[]"
        },
        {
          "internalType": "string[]",
          "name": "_ticketMetadataUris",
          "type": "string[]"
        }
      ],
      "name": "bookTickets",
      "outputs": [],
      "stateMutability": "nonpayable",
      "type": "function"
    },
    {
      "inputs": [
        {
          "internalType": "uint256",
          "name": "_eventId",
          "type": "uint256"
        },
        {
          "internalType": "uint256",
          "name": "_categoryId",
          "type": "uint256"
        },
        {
          "components": [
            {
              "internalType": "uint256",
              "name": "amount",
              "type": "uint256"
            },
            {
              "internalType": "uint256",
              "name": "price",
              "type": "uint256"
            }
          ],
          "internalType": "struct TicketPriceData[]",
          "name": "_priceData",
          "type": "tuple[]"
        },
        {
          "components": [
            {
              "internalType": "uint256",
              "name": "row",
              "type": "uint256"
            },
            {
              "internalType": "uint256",
              "name": "seat",
              "type": "uint256"
            }
          ],
          "internalType": "struct TicketPlace[]",
          "name": "_place",
          "type": "tuple[]"
        },
        {
          "internalType": "string[]",
          "name": "_ticketMetadataUris",
          "type": "string[]"
        }
      ],
      "name": "buyTickets",
      "outputs": [],
      "stateMutability": "payable",
      "type": "function"
    },
    {
      "inputs": [
        {
          "components": [
            {
              "internalType": "uint256",
              "name": "eventId",
              "type": "uint256"
            },
            {
              "internalType": "uint256",
              "name": "categoryId",
              "type": "uint256"
            }
          ],
          "internalType": "struct EventCategoryData[]",
          "name": "_eventCategoryData",
          "type": "tuple[]"
        },
        {
          "components": [
            {
              "internalType": "uint256",
              "name": "amount",
              "type": "uint256"
            },
            {
              "internalType": "uint256",
              "name": "price",
              "type": "uint256"
            }
          ],
          "internalType": "struct TicketPriceData[]",
          "name": "_priceData",
          "type": "tuple[]"
        },
        {
          "components": [
            {
              "internalType": "uint256",
              "name": "row",
              "type": "uint256"
            },
            {
              "internalType": "uint256",
              "name": "seat",
              "type": "uint256"
            }
          ],
          "internalType": "struct TicketPlace[]",
          "name": "_place",
          "type": "tuple[]"
        },
        {
          "internalType": "string[]",
          "name": "_ticketMetadataUris",
          "type": "string[]"
        }
      ],
      "name": "buyTickets",
      "outputs": [],
      "stateMutability": "payable",
      "type": "function"
    },
    {
      "inputs": [
        {
          "internalType": "uint256",
          "name": "_eventId",
          "type": "uint256"
        },
        {
          "internalType": "uint256",
          "name": "_ticketId",
          "type": "uint256"
        },
        {
          "internalType": "uint256",
          "name": "signatureTimestamp",
          "type": "uint256"
        },
        {
          "internalType": "bytes",
          "name": "signature",
          "type": "bytes"
        }
      ],
      "name": "clipTicket",
      "outputs": [],
      "stateMutability": "nonpayable",
      "type": "function"
    },
    {
      "inputs": [
        {
          "internalType": "uint256",
          "name": "_eventId",
          "type": "uint256"
        }
      ],
      "name": "getAddressTicketIdsByEvent",
      "outputs": [
        {
          "internalType": "uint256[]",
          "name": "",
          "type": "uint256[]"
        }
      ],
      "stateMutability": "view",
      "type": "function"
    },
    {
      "inputs": [
        {
          "components": [
            {
              "internalType": "uint256",
              "name": "eventId",
              "type": "uint256"
            },
            {
              "internalType": "uint256",
              "name": "categoryId",
              "type": "uint256"
            },
            {
              "internalType": "uint256",
              "name": "ticketId",
              "type": "uint256"
            }
          ],
          "internalType": "struct ReturnTicketParams",
          "name": "_returnTicketParams",
          "type": "tuple"
        }
      ],
      "name": "returnTicket",
      "outputs": [],
      "stateMutability": "nonpayable",
      "type": "function"
    },
    {
      "inputs": [
        {
          "internalType": "uint256",
          "name": "_eventId",
          "type": "uint256"
        },
        {
          "internalType": "uint256[]",
          "name": "_ticketIds",
          "type": "uint256[]"
        },
        {
          "internalType": "address[]",
          "name": "_accounts",
          "type": "address[]"
        }
      ],
      "name": "sendInvitation",
      "outputs": [],
      "stateMutability": "nonpayable",
      "type": "function"
    },
    {
      "inputs": [
        {
          "internalType": "uint256",
          "name": "_feePercentageInDps",
          "type": "uint256"
        }
      ],
      "name": "setTicketFeePercentage",
      "outputs": [],
      "stateMutability": "nonpayable",
      "type": "function"
    },
    {
      "inputs": [
        {
          "internalType": "uint256",
          "name": "_eventId",
          "type": "uint256"
        },
        {
          "internalType": "uint256",
          "name": "_ticketId",
          "type": "uint256"
        },
        {
          "internalType": "address",
          "name": "_oldOwner",
          "type": "address"
        },
        {
          "internalType": "address",
          "name": "_newOwner",
          "type": "address"
        }
      ],
      "name": "updateTicketIdAfterTransfer",
      "outputs": [],
      "stateMutability": "nonpayable",
      "type": "function"
    },
    {
      "inputs": [
        {
          "internalType": "uint256",
          "name": "_eventId",
          "type": "uint256"
        }
      ],
      "name": "withdrawEventBalance",
      "outputs": [],
      "stateMutability": "nonpayable",
      "type": "function"
    },
    {
      "inputs": [],
      "name": "withdrawFees",
      "outputs": [],
      "stateMutability": "nonpayable",
      "type": "function"
    }
  ],
  "bytecode": "0x608060405234801561001057600080fd5b50614bdd806100206000396000f3fe6080604052600436106100975760003560e01c8063262e6b4b1461009c57806328e13a9e146100be5780632d3bf559146100de578063476343ee146100fe5780634f905e5d1461011357806356a61c8e146101265780637ce8b341146101465780639cbea36014610166578063ab6a8d6a14610186578063b61c7dc1146101a6578063e3bccc0f146101c6578063ef71b78a146101fc575b600080fd5b3480156100a857600080fd5b506100bc6100b7366004613ccd565b61020f565b005b3480156100ca57600080fd5b506100bc6100d9366004613e86565b6105ec565b3480156100ea57600080fd5b506100bc6100f936600461400d565b610c46565b34801561010a57600080fd5b506100bc61105b565b6100bc6101213660046140f0565b611120565b34801561013257600080fd5b506100bc61014136600461418b565b6113ea565b34801561015257600080fd5b506100bc6101613660046141a4565b6113f7565b34801561017257600080fd5b506100bc610181366004614202565b6115ba565b34801561019257600080fd5b506100bc6101a136600461424c565b6116eb565b3480156101b257600080fd5b506100bc6101c136600461418b565b611e2e565b3480156101d257600080fd5b506101e66101e136600461418b565b612267565b6040516101f391906142a7565b60405180910390f35b6100bc61020a3660046142eb565b612331565b600084815260026020908152604091829020548251808401909352601b835260008051602061499e833981519152918301919091528591906001600160a01b03166102765760405162461bcd60e51b815260040161026d91906143f2565b60405180910390fd5b50600080868152600c6020526040902060030154610100900460ff1660028111156102a3576102a3614405565b14604051806040016040528060158152602001600080516020614a5b833981519152815250906102e65760405162461bcd60e51b815260040161026d91906143f2565b506102f385600033612647565b80610312575061031285600080516020614a7b83398151915233612647565b806103435750610343857fb5a7f51d0593e853ad0aa6b718ee0bdd10c4966eb62d243b69d538e5823d040133612647565b604051806060016040528060388152602001614ac1603891399061037a5760405162461bcd60e51b815260040161026d91906143f2565b5042611c2061038887612679565b6103929190614431565b6001600160401b0316111580156103ba5750426103ae866126c7565b6001600160401b031610155b604051806060016040528060258152602001614b6060259139906103f15760405162461bcd60e51b815260040161026d91906143f2565b506103fd848484612716565b604051806040016040528060188152602001774576656e743a20496e76616c6964207369676e617475726560401b8152509061044c5760405162461bcd60e51b815260040161026d91906143f2565b50601754604051600091600191606091849182916001600160a01b03169061047e9030908c9088908890602401614458565b60408051601f198184030181529181526020820180516001600160e01b0316631e27140560e01b179052516104b3919061448f565b6000604051808303816000865af19150503d80600081146104f0576040519150601f19603f3d011682016040523d82523d6000602084013e6104f5565b606091505b5091509150816040518060400160405280601d8152602001600080516020614af98339815191528152509061053d5760405162461bcd60e51b815260040161026d91906143f2565b508080602001905181019061055291906144ab565b9450846040518060400160405280601881526020017722bb32b73a1d1021b634b8103a34b1b5b2ba1032b93937b960411b815250906105a45760405162461bcd60e51b815260040161026d91906143f2565b507f73b94823b249d530a2b7223a82b4ae3a07a452eb37749ebe162f8bba7fb01f558a8a336040516105d8939291906144d4565b60405180910390a150505050505050505050565b600084815260026020908152604091829020548251808401909352601b835260008051602061499e833981519152918301919091528591906001600160a01b031661064a5760405162461bcd60e51b815260040161026d91906143f2565b5061065785600033612647565b80610676575061067685600080516020614a7b83398151915233612647565b6040518060600160405280602a815260200161487a602a9139906106ad5760405162461bcd60e51b815260040161026d91906143f2565b50835160001415604051806060016040528060258152602001614b3b60259139906106eb5760405162461bcd60e51b815260040161026d91906143f2565b5081518351146040518060400160405280601f8152602001600080516020614a3b833981519152815250906107335760405162461bcd60e51b815260040161026d91906143f2565b50600080868152600c6020526040902060030154610100900460ff16600281111561076057610760614405565b14604051806040016040528060158152602001600080516020614a5b833981519152815250906107a35760405162461bcd60e51b815260040161026d91906143f2565b5060008060005b86518110156109c4576000600d0160008883815181106107cc576107cc6144f3565b602002602001015160000151815260200190815260200160002060000154600014156040518060400160405280601e81526020016000805160206149ea833981519152815250906108305760405162461bcd60e51b815260040161026d91906143f2565b50876000600d01600089848151811061084b5761084b6144f3565b602002602001015160000151815260200190815260200160002060070154146040518060600160405280602981526020016148f160299139906108a15760405162461bcd60e51b815260040161026d91906143f2565b508681815181106108b4576108b46144f3565b602002602001015160200151836108cb9190614509565b92506000600d0160008883815181106108e6576108e66144f3565b602002602001015160000151815260200190815260200160002060040154836000600d0160008a858151811061091e5761091e6144f3565b6020026020010151600001518152602001908152602001600020600201805490506109499190614509565b1115604051806060016040528060238152602001614b8560239139906109825760405162461bcd60e51b815260040161026d91906143f2565b5060009250868181518110610999576109996144f3565b602002602001015160200151826109b09190614509565b9150806109bc8161451c565b9150506107aa565b5060008060008060005b8a51811015610bfd5760005b8b82815181106109ec576109ec6144f3565b602002602001015160200151811015610bea5760008d8152600f602052604090208b51610a36908d9089908110610a2557610a256144f3565b6020026020010151600001516128f9565b610a5c8d8981518110610a4b57610a4b6144f3565b6020026020010151602001516128f9565b604051602001610a6d929190614535565b60408051601f1981840301815290829052610a879161448f565b90815260408051918290036020908101832054838301909252601583527422bb32b73a1d10283630b1b29034b9903a30b5b2b760591b9083015260ff1615610ae25760405162461bcd60e51b815260040161026d91906143f2565b5060006001600160a01b03168b8781518110610b0057610b006144f3565b6020026020010151604001516001600160a01b031614610b43578a8681518110610b2c57610b2c6144f3565b602002602001015160400151935060019250610b4b565b309350600092505b610bcb8d8d8481518110610b6157610b616144f3565b602002602001015160000151878e8a81518110610b8057610b806144f3565b6020026020010151600001518f8b81518110610b9e57610b9e6144f3565b6020026020010151602001518f8c81518110610bbc57610bbc6144f3565b6020026020010151898b612a01565b610bd6600187614509565b955080610be28161451c565b9150506109da565b5080610bf58161451c565b9150506109ce565b507f0bf6beb306958fd2b5107d64b133ea297e354c91e8508878a9a4abb9206d82288b8633604051610c31939291906144d4565b60405180910390a15050505050505050505050565b600083815260026020908152604091829020548251808401909352601b835260008051602061499e833981519152918301919091528491906001600160a01b0316610ca45760405162461bcd60e51b815260040161026d91906143f2565b50610cb184600033612647565b80610cd05750610cd084600080516020614a7b83398151915233612647565b6040518060600160405280602a815260200161487a602a913990610d075760405162461bcd60e51b815260040161026d91906143f2565b50825115801590610d185750815115155b604051806060016040528060258152602001614b3b6025913990610d4f5760405162461bcd60e51b815260040161026d91906143f2565b5081518351146040518060400160405280601f8152602001600080516020614a3b83398151915281525090610d975760405162461bcd60e51b815260040161026d91906143f2565b50600080858152600c6020526040902060030154610100900460ff166002811115610dc457610dc4614405565b14604051806040016040528060158152602001600080516020614a5b83398151915281525090610e075760405162461bcd60e51b815260040161026d91906143f2565b5060005b835181101561101957610e52848281518110610e2957610e296144f3565b602090810291909101810151600088815260128352604080822030835290935291909120612cff565b60175483516001600160a01b03909116906323b872dd903090869085908110610e7d57610e7d6144f3565b6020026020010151878581518110610e9757610e976144f3565b60209081029190910101516040516001600160e01b031960e086901b1681526001600160a01b0393841660048201529290911660248301526044820152606401600060405180830381600087803b158015610ef157600080fd5b505af1158015610f05573d6000803e3d6000fd5b505060175486516001600160a01b03909116925063dd4670649150869084908110610f3257610f326144f3565b60200260200101516040518263ffffffff1660e01b8152600401610f5891815260200190565b600060405180830381600087803b158015610f7257600080fd5b505af1158015610f86573d6000803e3d6000fd5b50505060008681526012602052604081208551909250859084908110610fae57610fae6144f3565b60200260200101516001600160a01b03166001600160a01b03168152602001908152602001600020848281518110610fe857610fe86144f3565b60209081029190910181015182546001810184556000938452919092200155806110118161451c565b915050610e0b565b507fc47e064bd57c3620a43c1e4ac852f9185e9582f40bdd973a20f4c1bf520f38a584833360405161104d93929190614564565b60405180910390a150505050565b611063612d4a565b6008805460009182905590611076612dbf565b6001600160a01b03168260405160006040518083038185875af1925050503d80600081146110c0576040519150601f19603f3d011682016040523d82523d6000602084013e6110c5565b606091505b50509050806040518060400160405280601a8152602001794576656e743a2043616e2774207769746864726177206665657360301b8152509061111b5760405162461bcd60e51b815260040161026d91906143f2565b505050565b825160001415604051806060016040528060258152602001614b3b602591399061115d5760405162461bcd60e51b815260040161026d91906143f2565b5080518251146040518060400160405280601f8152602001600080516020614a3b833981519152815250906111a55760405162461bcd60e51b815260040161026d91906143f2565b50600080868152600c6020526040902060030154610100900460ff1660028111156111d2576111d2614405565b14604051806040016040528060158152602001600080516020614a5b833981519152815250906112155760405162461bcd60e51b815260040161026d91906143f2565b506112208585612ddb565b60008060005b85518110156112bb576000915061125787878381518110611249576112496144f3565b602002602001015184613042565b858181518110611269576112696144f3565b602002602001015160000151868281518110611287576112876144f3565b60200260200101516020015161129d91906145d0565b6112a79084614509565b9250806112b38161451c565b915050611226565b5034821460405180606001604052806023815260200161485760239139906112f65760405162461bcd60e51b815260040161026d91906143f2565b506000805b86518110156113df5760005b878281518110611319576113196144f3565b6020026020010151600001518110156113cc576113ad8a8a8a8581518110611343576113436144f3565b6020026020010151602001518a8781518110611361576113616144f3565b6020026020010151600001518b888151811061137f5761137f6144f3565b6020026020010151602001518b898151811061139d5761139d6144f3565b6020026020010151600033612a01565b6113b8600184614509565b9250806113c48161451c565b915050611307565b50806113d78161451c565b9150506112fb565b505050505050505050565b6113f2612d4a565b600755565b600082815260026020908152604091829020548251808401909352601b835260008051602061499e833981519152918301919091528391906001600160a01b03166114555760405162461bcd60e51b815260040161026d91906143f2565b50600080848152600c6020526040902060030154610100900460ff16600281111561148257611482614405565b14604051806040016040528060158152602001600080516020614a5b833981519152815250906114c55760405162461bcd60e51b815260040161026d91906143f2565b506114d283600033612647565b806114f157506114f183600080516020614a7b83398151915233612647565b6040518060600160405280602a815260200161487a602a9139906115285760405162461bcd60e51b815260040161026d91906143f2565b506000838152600c60209081526040808320600401805460018181018355918552938390208651600290950201848155928601519201805460ff841660ff19909116179055517f6acb6edf217693871c0a1b4dc7f139e64435ab88c84cdc94a85daf36cd06849c926115ad92878352602083019190915260ff16604082015260600190565b60405180910390a1505050565b6017546001600160a01b031633146116205760405162461bcd60e51b8152602060048201526024808201527f4576656e743a20596f752063616e206e6f742075736520746869732066756e636044820152633a34b7b760e11b606482015260840161026d565b60008481526012602090815260408083206001600160a01b0386168452909152902061164d908490612cff565b60008481526012602090815260408083206001600160a01b03808616855290835281842080546001818101835591865284862001889055888552601184528285209187168552925282208054919290916116a89084906145e7565b909155505060008481526011602090815260408083206001600160a01b038516845290915281208054600192906116e0908490614509565b909155505050505050565b8051600081815260026020908152604091829020548251808401909352601b835260008051602061499e833981519152918301919091526001600160a01b03166117485760405162461bcd60e51b815260040161026d91906143f2565b506020808301516000818152600d8352604090819020548151808301909252601e82526000805160206149ea8339815191529382019390935290916117a05760405162461bcd60e51b815260040161026d91906143f2565b5082600001518360200151816000600d01600083815260200190815260200160002060070154146040518060600160405280602981526020016148f160299139906117fe5760405162461bcd60e51b815260040161026d91906143f2565b5084602001518560400151816000601001600083815260200190815260200160002054146040518060600160405280602c81526020016149be602c9139906118595760405162461bcd60e51b815260040161026d91906143f2565b5086516000908152600c60205260409020600401541515806118a75750600187516000908152600c6020526040902060030154610100900460ff1660028111156118a5576118a5614405565b145b604051806060016040528060228152602001614b1960229139906118de5760405162461bcd60e51b815260040161026d91906143f2565b506000806118f489600001518a60400151613269565b91509150816040518060400160405280601a81526020017922bb32b73a1d102932b33ab732103230ba329034b99037bb32b960311b8152509061194a5760405162461bcd60e51b815260040161026d91906143f2565b5060175460408a8101519051602481019190915260009182916001600160a01b039091169060440160408051601f198184030181529181526020820180516001600160e01b03166331a9108f60e11b179052516119a7919061448f565b6000604051808303816000865af19150503d80600081146119e4576040519150601f19603f3d011682016040523d82523d6000602084013e6119e9565b606091505b5091509150336001600160a01b031681806020019051810190611a0c91906145fa565b6001600160a01b0316148015611a1f5750815b6040518060400160405280601d8152602001600080516020614af983398151915281525090611a615760405162461bcd60e51b815260040161026d91906143f2565b505089516000908152600f6020526040808220601754828e01519251633ee1bcfd60e11b8152600481019390935292935091611afa916001600160a01b0390911690637dc379fa90602401600060405180830381865afa158015611ac9573d6000803e3d6000fd5b505050506040513d6000823e601f3d908101601f19168201604052611af19190810190614678565b608001516128f9565b60175460408d8101519051633ee1bcfd60e11b81526004810191909152611b7c916001600160a01b031690637dc379fa90602401600060405180830381865afa158015611b4b573d6000803e3d6000fd5b505050506040513d6000823e601f3d908101601f19168201604052611b739190810190614678565b60a001516128f9565b604051602001611b8d929190614535565b60408051601f1981840301815290829052611ba79161448f565b90815260408051918290036020018220805493151560ff1990941693909317909255601754918b015160248201523360448201523060648201526000916001600160a01b03169060840160408051601f198184030181529181526020820180516001600160e01b031663025ba0e960e61b17905251611c26919061448f565b6000604051808303816000865af19150503d8060008114611c63576040519150601f19603f3d011682016040523d82523d6000602084013e611c68565b606091505b50509050806040518060400160405280601d8152602001600080516020614af983398151915281525090611caf5760405162461bcd60e51b815260040161026d91906143f2565b50611cda8a604001516000600d0160008d602001518152602001908152602001600020600201612cff565b895160009081526011602090815260408083203384529091528120805460019290611d069084906145e7565b90915550506040808b01518b51600090815260126020908152838220338352905291909120611d359190612cff565b89516000908152600c602052604081206002018054849290611d589084906145e7565b9091555050604051600090339084908381818185875af1925050503d8060008114611d9f576040519150601f19603f3d011682016040523d82523d6000602084013e611da4565b606091505b505090508060405180606001604052806023815260200161497b6023913990611de05760405162461bcd60e51b815260040161026d91906143f2565b508a516020808d01516040808f01518151948552928401919091528201523360608201527f87ff245f55dca5f20f12247f39f781d5710eda96984e49512daad7b675e4147990608001610c31565b600081815260026020908152604091829020548251808401909352601b835260008051602061499e833981519152918301919091528291906001600160a01b0316611e8c5760405162461bcd60e51b815260040161026d91906143f2565b50611eb8827fff3317e1e0e8c784290b957ee9b65ea8fe96420c4819db463283b95ecbe4a3fe33612647565b60405180606001604052806031815260200161494a6031913990611eef5760405162461bcd60e51b815260040161026d91906143f2565b506000828152600c602052604090206003015442600160501b9091046001600160401b0316108015611f3157506000828152600c602052604090206002015415155b15611fe8576000828152600c60205260408082206002015490513391908381818185875af1925050503d8060008114611f86576040519150601f19603f3d011682016040523d82523d6000602084013e611f8b565b606091505b50509050806040518060400160405280601b81526020017a22bb32b73a1d102330b4b632b2103a379039b2b7321022ba3432b960291b81525090611fe25760405162461bcd60e51b815260040161026d91906143f2565b50505050565b60026000838152600c6020526040902060030154610100900460ff16600281111561201557612015614405565b1415604051806040016040528060158152602001600080516020614a5b833981519152815250906120595760405162461bcd60e51b815260040161026d91906143f2565b506000828152600c602052604081206004015481908190810361208f576000858152600c60205260409020600201549250612182565b60005b6000868152600c6020526040902060040154811015612180576000868152600c602052604090206004018054829081106120ce576120ce6144f3565b906000526020600020906002020160000154421161216e576000868152600c60205260409020600401805482908110612109576121096144f3565b6000918252602080832060029283020160010154898452600c9091526040909220015460ff9091169350612147906121428560646145d0565b61357c565b6000878152600c60205260409020600201549092506121679083906145e7565b9350612180565b806121788161451c565b915050612092565b505b6000858152600c6020526040812060020180548592906121a39084906145e7565b9091555050604051600090339085908381818185875af1925050503d80600081146121ea576040519150601f19603f3d011682016040523d82523d6000602084013e6121ef565b606091505b50509050806040518060600160405280602681526020016148a4602691399061222b5760405162461bcd60e51b815260040161026d91906143f2565b506040518681527feea9f2e0c73d19e23063194ae9ba8512a252b6c0bd44e31315f611c5efaa8f0b9060200160405180910390a1505050505050565b600081815260026020908152604091829020548251808401909352601b835260008051602061499e8339815191529183019190915260609183916001600160a01b03166122c75760405162461bcd60e51b815260040161026d91906143f2565b5060008381526012602090815260408083203384528252918290208054835181840281018401909452808452909183018282801561232457602002820191906000526020600020905b815481526020019060010190808311612310575b5050505050915050919050565b82518451146040518060400160405280601f8152602001600080516020614a3b833981519152815250906123785760405162461bcd60e51b815260040161026d91906143f2565b5080518251146040518060400160405280601f8152602001600080516020614a3b833981519152815250906123c05760405162461bcd60e51b815260040161026d91906143f2565b5060008060005b85518110156124af576124148782815181106123e5576123e56144f3565b602002602001015160000151888381518110612403576124036144f3565b602002602001015160200151612ddb565b6000915061244b87828151811061242d5761242d6144f3565b602002602001015160200151878381518110611249576112496144f3565b85818151811061245d5761245d6144f3565b60200260200101516000015186828151811061247b5761247b6144f3565b60200260200101516020015161249191906145d0565b61249b9084614509565b9250806124a78161451c565b9150506123c7565b5034821460405180606001604052806023815260200161485760239139906124ea5760405162461bcd60e51b815260040161026d91906143f2565b506000805b875181101561263d5760005b87828151811061250d5761250d6144f3565b60200260200101516000015181101561262a57600080600c0160008b858151811061253a5761253a6144f3565b602002602001015160000151815260200190815260200160002060030160019054906101000a900460ff16600281111561257657612576614405565b14604051806040016040528060158152602001600080516020614a5b833981519152815250906125b95760405162461bcd60e51b815260040161026d91906143f2565b5061260b8983815181106125cf576125cf6144f3565b6020026020010151600001518a84815181106125ed576125ed6144f3565b6020026020010151602001518a8581518110611343576113436144f3565b612616600184614509565b9250806126228161451c565b9150506124fb565b50806126358161451c565b9150506124ef565b5050505050505050565b60009283526018602090815260408085209385529281528284206001600160a01b039290921684525290205460ff1690565b600080612685836135f3565b6126a15760405162461bcd60e51b815260040161026d90614727565b6000928352600c016020525060409020600301546201000090046001600160401b031690565b6000806126d3836135f3565b6126ef5760405162461bcd60e51b815260040161026d90614727565b6000928352600c01602052506040902060030154600160501b90046001600160401b031690565b60004261272584610258614509565b11604051806040016040528060148152602001734576656e743a204f6c64207369676e617475726560601b815250906127715760405162461bcd60e51b815260040161026d91906143f2565b506040805160208082018790528183018690528251808303840181526060830184528051908201207b0ca2ba3432b932bab69029b4b3b732b21026b2b9b9b0b3b29d05199960211b6080840152609c8084018290528451808503909101815260bc8401855280519083012060175460e08086018b905286518087039091018152610100909501865292840180516001600160e01b03166331a9108f60e11b179052935190939260009283926001600160a01b03909116916128319161448f565b6000604051808303816000865af19150503d806000811461286e576040519150601f19603f3d011682016040523d82523d6000602084013e612873565b606091505b5091509150816040518060400160405280601d8152602001600080516020614af9833981519152815250906128bb5760405162461bcd60e51b815260040161026d91906143f2565b50808060200190518101906128d091906145fa565b6001600160a01b03166128e38488613610565b6001600160a01b03161498975050505050505050565b6060816000036129205750506040805180820190915260018152600360fc1b602082015290565b8160005b811561294a57806129348161451c565b91506129439050600a8361476f565b9150612924565b6000816001600160401b0381111561296457612964613bb6565b6040519080825280601f01601f19166020018201604052801561298e576020820181803683370190505b5090505b84156129f9576129a36001836145e7565b91506129b0600a86614783565b6129bb906030614509565b60f81b8183815181106129d0576129d06144f3565b60200101906001600160f81b031916908160001a9053506129f2600a8661476f565b9450612992565b949350505050565b6000888152600c602052604090206006015460ff1615612a5e57612a258882613634565b6040518060600160405280602781526020016148ca6027913990612a5c5760405162461bcd60e51b815260040161026d91906143f2565b505b600080612a6d8a8a89896136f0565b600754919350915060009015612aa957612a8c8960006007015461357c565b90508060006008016000828254612aa39190614509565b90915550505b612ab3818a6145e7565b60008c8152600c602052604081206002018054909190612ad4908490614509565b90915550612ae49050818a6145e7565b60008b8152600d602052604081206008018054909190612b05908490614509565b92505081905550600080600c0160008d815260200190815260200160002060030160029054906101000a90046001600160401b0316905060008060170160009054906101000a90046001600160a01b03166001600160a01b031663290be4dd8e8e8e89898e8e8e8b6040518a63ffffffff1660e01b8152600401612b9199989796959493929190614797565b6020604051808303816000875af1158015612bb0573d6000803e3d6000fd5b505050506040513d601f19601f82011682018060405250810190612bd491906147fe565b90506000600d0160008d81526020019081526020016000206002018190806001815401808255809150506001900390600052602060002001600090919091909150558b60006010016000838152602001908152602001600020819055506001600060110160008f81526020019081526020016000206000886001600160a01b03166001600160a01b031681526020019081526020016000206000828254612c7b9190614509565b909155505060008d81526012602090815260408083206001600160a01b038a168085529083528184208054600181018255908552938390209093018490558051848152918201929092527f6606e4c8a88792ed4fd5159f9be235ca78e87fc1cbdc6158ea92d3ed3be9bf72910160405180910390a150505050505050505050505050565b60005b815481101561111b5782828281548110612d1e57612d1e6144f3565b906000526020600020015403612d3857612d388183613847565b80612d428161451c565b915050612d02565b612d526138bc565b600401546001600160a01b03163314612dbd5760405162461bcd60e51b815260206004820152602760248201527f4c69624576656e744469616d6f6e643a204d75737420626520636f6e747261636044820152663a1037bbb732b960c91b606482015260840161026d565b565b6000612dc96138bc565b600401546001600160a01b0316919050565b612de4826135f3565b6040518060400160405280601b815260200160008051602061499e83398151915281525090612e265760405162461bcd60e51b815260040161026d91906143f2565b506000818152600d6020908152604091829020548251808401909352601e83526000805160206149ea83398151915291830191909152612e795760405162461bcd60e51b815260040161026d91906143f2565b50816000600d01600083815260200190815260200160002060070154146040518060600160405280602981526020016148f16029913990612ecd5760405162461bcd60e51b815260040161026d91906143f2565b506000828152600c602090815260409182902060030154825160608101909352603180845260ff90911615156001149291614a0a9083013990612f235760405162461bcd60e51b815260040161026d91906143f2565b506000818152600d6020908152604091829020600e0154825160608101909352603080845260ff9091161515600114929161491a9083013990612f795760405162461bcd60e51b815260040161026d91906143f2565b506000818152600d60205260409020600501544210801590612fac57506000818152600d60205260409020600601544211155b60405180606001604052806029815260200161482e6029913990612fe35760405162461bcd60e51b815260040161026d91906143f2565b506000828152600c6020908152604080832060010154601183528184203385528352928190205481516060810190925260268083529311929091614a9b908301399061111b5760405162461bcd60e51b815260040161026d91906143f2565b815161304e9082614509565b6000848152600d60205260409020600481015460029091015491925090613076908390614509565b1115604051806060016040528060238152602001614b8560239139906130af5760405162461bcd60e51b815260040161026d91906143f2565b506000838152600d60205260409020600a0154156132015760005b6000848152600d60205260409020600a0154811015611fe25782516000858152600d60205260409020600a01805483908110613108576131086144f3565b9060005260206000200154036131ef576000848152600d60205260408120600b0180548390811061313b5761313b6144f3565b9060005260206000200154606461315291906145d0565b6000868152600d602052604081206003015491925090613172908361357c565b6020808701516000898152600d9092526040909120600301549192509061319a9083906145e7565b14604051806040016040528060198152602001784576656e743a2057726f6e67207469636b657420707269636560381b815250906131eb5760405162461bcd60e51b815260040161026d91906143f2565b5050505b806131f98161451c565b9150506130ca565b6020808301516000858152600d835260409081902060030154815180830190925260198252784576656e743a2057726f6e67207469636b657420707269636560381b938201939093529114611fe25760405162461bcd60e51b815260040161026d91906143f2565b601754604051633ee1bcfd60e11b815260048101839052600091829182918291829182916001600160a01b0390911690637dc379fa90602401600060405180830381865afa1580156132bf573d6000803e3d6000fd5b505050506040513d6000823e601f3d908101601f191682016040526132e79190810190614678565b6000898152600c602052604090206003015481519192506201000090046001600160401b03908116911614613329576060015160019550935061357592505050565b60005b6000898152600c6020526040902060040154811015613461576000898152600c60205260409020600401805482908110613368576133686144f3565b906000526020600020906002020160000154421161344f578215156000036133cf576000898152600c60205260409020600401805460019450829081106133b1576133b16144f3565b600091825260209091206001600290920201015460ff16935061344f565b6000898152600c602052604090206004018054859190839081106133f5576133f56144f3565b600091825260209091206001600290920201015460ff16111561344f576000898152600c60205260409020600401805482908110613435576134356144f3565b600091825260209091206001600290920201015460ff1693505b806134598161451c565b91505061332c565b5081151560010361356d57601754604051602481018990526044810185905260009182916001600160a01b039091169060640160408051601f198184030181529181526020820180516001600160e01b03166375c8c9bd60e11b179052516134c9919061448f565b6000604051808303816000865af19150503d8060008114613506576040519150601f19603f3d011682016040523d82523d6000602084013e61350b565b606091505b5091509150816040518060400160405280601d8152602001600080516020614af9833981519152815250906135535760405162461bcd60e51b815260040161026d91906143f2565b508080602001905181019061356891906147fe565b955050505b509350909150505b9250929050565b600061271061358b83856145d0565b10156135d35760405162461bcd60e51b8152602060048201526017602482015276050657263656e746167653a20526f756e647320746f203604c1b604482015260640161026d565b6127106135e083856145d0565b6135ea919061476f565b90505b92915050565b6000908152600260205260409020546001600160a01b0316151590565b600080600061361f85856138e0565b9150915061362c81613922565b509392505050565b6000306001600160a01b0383160361364e575060016135ed565b60005b6000848152600c60205260409020600501548110156136e6576000848152600c602052604081206005018054601692919084908110613692576136926144f3565b6000918252602080832090910154835282810193909352604091820181206001600160a01b038716825290925290205460ff16156136d45760019150506135ed565b806136de8161451c565b915050613651565b5060009392505050565b6000838152600d6020526040812060090154819060ff161515600103613837576000868152600f60205260409020613727856128f9565b613730856128f9565b604051602001613741929190614535565b60408051601f198184030181529082905261375b9161448f565b90815260408051918290036020908101832054838301909252601583527422bb32b73a1d10283630b1b29034b9903a30b5b2b760591b9083015260ff16156137b65760405162461bcd60e51b815260040161026d91906143f2565b5060006137c2856128f9565b6137cb856128f9565b6040516020016137dc929190614535565b60408051601f1981840301815282825260008a8152600f6020529190912090925060019161380b90849061448f565b908152604051908190036020019020805491151560ff199092169190911790555083915082905061383e565b5060009050805b94509492505050565b80548190613857906001906145e7565b81548110613867576138676144f3565b9060005260206000200154818381548110613884576138846144f3565b9060005260206000200181905550808054806138a2576138a2614817565b600190038181906000526020600020016000905590555050565b7fc8fcad8db84d3cc18b4c41d551ea0ee66dd599cde068d998e57d5e09332c131c90565b60008082516041036139165760208301516040840151606085015160001a61390a87828585613ad6565b94509450505050613575565b50600090506002613575565b600081600481111561393657613936614405565b0361393e5750565b600181600481111561395257613952614405565b0361399a5760405162461bcd60e51b815260206004820152601860248201527745434453413a20696e76616c6964207369676e617475726560401b604482015260640161026d565b60028160048111156139ae576139ae614405565b036139fb5760405162461bcd60e51b815260206004820152601f60248201527f45434453413a20696e76616c6964207369676e6174757265206c656e67746800604482015260640161026d565b6003816004811115613a0f57613a0f614405565b03613a675760405162461bcd60e51b815260206004820152602260248201527f45434453413a20696e76616c6964207369676e6174757265202773272076616c604482015261756560f01b606482015260840161026d565b6004816004811115613a7b57613a7b614405565b03613ad35760405162461bcd60e51b815260206004820152602260248201527f45434453413a20696e76616c6964207369676e6174757265202776272076616c604482015261756560f01b606482015260840161026d565b50565b6000806fa2a8918ca85bafe22016d0b997e4df60600160ff1b03831115613b03575060009050600361383e565b8460ff16601b14158015613b1b57508460ff16601c14155b15613b2c575060009050600461383e565b6040805160008082526020820180845289905260ff881692820192909252606081018690526080810185905260019060a0016020604051602081039080840390855afa158015613b80573d6000803e3d6000fd5b5050604051601f1901519150506001600160a01b038116613ba95760006001925092505061383e565b9660009650945050505050565b634e487b7160e01b600052604160045260246000fd5b604080519081016001600160401b0381118282101715613bee57613bee613bb6565b60405290565b604051606081016001600160401b0381118282101715613bee57613bee613bb6565b60405160e081016001600160401b0381118282101715613bee57613bee613bb6565b604051601f8201601f191681016001600160401b0381118282101715613c6057613c60613bb6565b604052919050565b60006001600160401b03821115613c8157613c81613bb6565b50601f01601f191660200190565b6000613ca2613c9d84613c68565b613c38565b9050828152838383011115613cb657600080fd5b828260208301376000602084830101529392505050565b60008060008060808587031215613ce357600080fd5b84359350602085013592506040850135915060608501356001600160401b03811115613d0e57600080fd5b8501601f81018713613d1f57600080fd5b613d2e87823560208401613c8f565b91505092959194509250565b60006001600160401b03821115613d5357613d53613bb6565b5060051b60200190565b6000613d6b613c9d84613d3a565b8381529050602080820190600685901b840186811115613d8a57600080fd5b845b81811015613dc75760408189031215613da55760008081fd5b613dad613bcc565b813581528382013584820152845292820192604001613d8c565b505050509392505050565b6001600160a01b0381168114613ad357600080fd5b600082601f830112613df857600080fd5b81356020613e08613c9d83613d3a565b82815260059290921b84018101918181019086841115613e2757600080fd5b8286015b84811015613e7b5780356001600160401b03811115613e4a5760008081fd5b8701603f81018913613e5c5760008081fd5b613e6d898683013560408401613c8f565b845250918301918301613e2b565b509695505050505050565b60008060008060808587031215613e9c57600080fd5b843593506020808601356001600160401b0380821115613ebb57600080fd5b818801915088601f830112613ecf57600080fd5b613edd898335858501613d5d565b9550604091508188013581811115613ef457600080fd5b8801601f81018a13613f0557600080fd5b8035613f13613c9d82613d3a565b8181526060918202830186019186820191908d841115613f3257600080fd5b938701935b83851015613f835780858f031215613f4f5760008081fd5b613f57613bf4565b85358152888601358982015287860135613f7081613dd2565b8189015283529384019391870191613f37565b9098508b0135955050505080831115613f9b57600080fd5b5050613d2e87828801613de7565b600082601f830112613fba57600080fd5b81356020613fca613c9d83613d3a565b82815260059290921b84018101918181019086841115613fe957600080fd5b8286015b84811015613e7b57803561400081613dd2565b8352918301918301613fed565b60008060006060848603121561402257600080fd5b833592506020808501356001600160401b038082111561404157600080fd5b818701915087601f83011261405557600080fd5b8135614063613c9d82613d3a565b81815260059190911b8301840190848101908a83111561408257600080fd5b938501935b828510156140a057843582529385019390850190614087565b9650505060408701359250808311156140b857600080fd5b50506140c686828701613fa9565b9150509250925092565b600082601f8301126140e157600080fd5b6135ea83833560208501613d5d565b600080600080600060a0868803121561410857600080fd5b853594506020860135935060408601356001600160401b038082111561412d57600080fd5b61413989838a016140d0565b9450606088013591508082111561414f57600080fd5b61415b89838a016140d0565b9350608088013591508082111561417157600080fd5b5061417e88828901613de7565b9150509295509295909350565b60006020828403121561419d57600080fd5b5035919050565b60008082840360608112156141b857600080fd5b833592506040601f19820112156141ce57600080fd5b506141d7613bcc565b60208401358152604084013560ff811681146141f257600080fd5b6020820152919491935090915050565b6000806000806080858703121561421857600080fd5b8435935060208501359250604085013561423181613dd2565b9150606085013561424181613dd2565b939692955090935050565b60006060828403121561425e57600080fd5b604051606081016001600160401b038111828210171561428057614280613bb6565b80604052508235815260208301356020820152604083013560408201528091505092915050565b6020808252825182820181905260009190848201906040850190845b818110156142df578351835292840192918401916001016142c3565b50909695505050505050565b6000806000806080858703121561430157600080fd5b84356001600160401b038082111561431857600080fd5b818701915087601f83011261432c57600080fd5b61433b88833560208501613d5d565b9550602087013591508082111561435157600080fd5b61435d888389016140d0565b9450604087013591508082111561437357600080fd5b61437f888389016140d0565b9350606087013591508082111561439557600080fd5b50613d2e87828801613de7565b60005b838110156143bd5781810151838201526020016143a5565b50506000910152565b600081518084526143de8160208601602086016143a2565b601f01601f19169290920160200192915050565b6020815260006135ea60208301846143c6565b634e487b7160e01b600052602160045260246000fd5b634e487b7160e01b600052601160045260246000fd5b6001600160401b038281168282160390808211156144515761445161441b565b5092915050565b60018060a01b038516815283602082015282604082015260806060820152600061448560808301846143c6565b9695505050505050565b600082516144a18184602087016143a2565b9190910192915050565b6000602082840312156144bd57600080fd5b815180151581146144cd57600080fd5b9392505050565b92835260208301919091526001600160a01b0316604082015260600190565b634e487b7160e01b600052603260045260246000fd5b808201808211156135ed576135ed61441b565b60006001820161452e5761452e61441b565b5060010190565b600083516145478184602088016143a2565b83519083019061455b8183602088016143a2565b01949350505050565b6000606082018583526020606081850152818651808452608086019150828801935060005b818110156145ae5784516001600160a01b031683529383019391830191600101614589565b50506001600160a01b0395909516604094909401939093525091949350505050565b80820281158282048414176135ed576135ed61441b565b818103818111156135ed576135ed61441b565b60006020828403121561460c57600080fd5b81516144cd81613dd2565b80516001600160401b038116811461462e57600080fd5b919050565b600082601f83011261464457600080fd5b8151614652613c9d82613c68565b81815284602083860101111561466757600080fd5b6129f98260208301602087016143a2565b60006020828403121561468a57600080fd5b81516001600160401b03808211156146a157600080fd5b9083019060e082860312156146b557600080fd5b6146bd613c16565b6146c683614617565b81526020830151602082015260408301516040820152606083015160608201526080830151608082015260a083015160a082015260c08301518281111561470c57600080fd5b61471887828601614633565b60c08301525095945050505050565b602080825260189082015277115490cd4c0c0dce88125b9d985b1a59081d1bdad95b925960421b604082015260600190565b634e487b7160e01b600052601260045260246000fd5b60008261477e5761477e614759565b500490565b60008261479257614792614759565b500690565b60006101208b83528a60208401528960408401528860608401528760808401528060a08401526147c9818401886143c6565b95151560c084015250506001600160a01b039290921660e08301526001600160401b0316610100909101529695505050505050565b60006020828403121561481057600080fd5b5051919050565b634e487b7160e01b600052603160045260246000fdfe4576656e743a2043616e277420627579207469636b65747320666f722063617465676f7279207965744576656e743a204d73672076616c7565206e6f7420657120746f74616c2070726963654576656e743a2043616c6c6572206973206e6f7420616e2061646d696e206f72206d6f64657261746f724576656e743a204576656e742062616c616e636520776974686472617720726576657274656457686974656c6973743a2041646465727373206973206e6f7420696e207768697465206c6973744576656e743a20546869732063617465676f727920697320666f7220616e6f74686572206576656e744576656e743a205469636b65747320666f7220746869732063617465676f727920617265206e6f742062757961626c654576656e743a204f6e6c7920636173686965722063616e20776974686472617720636f6e74726163742062616c616e63654576656e743a2041636320726566756e642077697468647261772072657665727465644576656e743a204576656e7420646f6573206e6f7420657869737400000000004576656e743a205469636b657420646f65736e277420657869737420696e20746869732063617465676f72794576656e743a2043617465676f727920646f6573206e6f7420657869737400004576656e743a205469636b65747320666f7220616c6c2063617465676f7269657320617265206e6f742062757961626c654576656e743a20506172616d6574657273206c656e677468206e6f74206571004576656e743a204576656e742063616e63656c6564000000000000000000000071f3d55856e4058ed06ee057d79ada615f65cdf5f9ee88181b914225088f834f4576656e743a204d6178207469636b65747320666f72206163636f756e7420726561636865644576656e743a2043616c6c6572206973206e6f7420616e2061646d696e2c206d6f64657261746f72206f7220726563657074696f6e6973744576656e743a20436f6e74726163742063616c6c2072657665727465640000004576656e743a2043616e277420726566756e6420666f722074686973206576656e744576656e743a20506172616d657465722061727261792063616e277420626520656d7074794576656e743a2057726f6e67206461746520666f72207469636b657420636c697070696e674576656e743a204d6178207469636b65747320636f756e742069732072656163686564a2646970667358221220c56059d162fc142e8f9c622726ea5d09a7c399b2ede43aa7bfef662a0c65d37f64736f6c63430008110033",
  "linkReferences": {},
  "deployedLinkReferences": {}
}