{
  "_format": "hh-sol-artifact-1",
  "contractName": "EventFacet",
  "sourceName": "contracts/EventDiamond/facets/EventFacet.sol",
  "abi": [
    {
      "anonymous": false,
      "inputs": [
        {
          "indexed": false,
          "internalType": "uint256",
          "name": "eventId",
          "type": "uint256"
        },
        {
          "indexed": false,
          "internalType": "bool",
          "name": "value",
          "type": "bool"
        }
      ],
      "name": "AllCategorySellChanged",
      "type": "event"
    },
    {
      "anonymous": false,
      "inputs": [
        {
          "indexed": true,
          "internalType": "address",
          "name": "owner",
          "type": "address"
        },
        {
          "indexed": true,
          "internalType": "address",
          "name": "approved",
          "type": "address"
        },
        {
          "indexed": true,
          "internalType": "uint256",
          "name": "tokenId",
          "type": "uint256"
        }
      ],
      "name": "Approval",
      "type": "event"
    },
    {
      "anonymous": false,
      "inputs": [
        {
          "indexed": true,
          "internalType": "address",
          "name": "owner",
          "type": "address"
        },
        {
          "indexed": true,
          "internalType": "address",
          "name": "operator",
          "type": "address"
        },
        {
          "indexed": false,
          "internalType": "bool",
          "name": "approved",
          "type": "bool"
        }
      ],
      "name": "ApprovalForAll",
      "type": "event"
    },
    {
      "anonymous": false,
      "inputs": [
        {
          "indexed": false,
          "internalType": "uint256",
          "name": "_fromTokenId",
          "type": "uint256"
        },
        {
          "indexed": false,
          "internalType": "uint256",
          "name": "_toTokenId",
          "type": "uint256"
        }
      ],
      "name": "BatchMetadataUpdate",
      "type": "event"
    },
    {
      "anonymous": false,
      "inputs": [
        {
          "indexed": false,
          "internalType": "uint256",
          "name": "eventId",
          "type": "uint256"
        },
        {
          "indexed": false,
          "internalType": "uint256",
          "name": "categoryId",
          "type": "uint256"
        },
        {
          "indexed": false,
          "internalType": "string",
          "name": "categoryCid",
          "type": "string"
        }
      ],
      "name": "CategoryCreated",
      "type": "event"
    },
    {
      "anonymous": false,
      "inputs": [
        {
          "indexed": false,
          "internalType": "uint256",
          "name": "eventId",
          "type": "uint256"
        },
        {
          "indexed": false,
          "internalType": "uint256",
          "name": "categoryId",
          "type": "uint256"
        }
      ],
      "name": "CategoryDeleted",
      "type": "event"
    },
    {
      "anonymous": false,
      "inputs": [
        {
          "indexed": false,
          "internalType": "uint256",
          "name": "eventId",
          "type": "uint256"
        },
        {
          "indexed": false,
          "internalType": "uint256",
          "name": "categoryId",
          "type": "uint256"
        },
        {
          "indexed": false,
          "internalType": "address",
          "name": "staffMember",
          "type": "address"
        }
      ],
      "name": "CategorySaleDatesUpdated",
      "type": "event"
    },
    {
      "anonymous": false,
      "inputs": [
        {
          "indexed": false,
          "internalType": "uint256",
          "name": "eventId",
          "type": "uint256"
        },
        {
          "indexed": false,
          "internalType": "uint256",
          "name": "categoryId",
          "type": "uint256"
        },
        {
          "indexed": false,
          "internalType": "bool",
          "name": "value",
          "type": "bool"
        }
      ],
      "name": "CategorySellChanged",
      "type": "event"
    },
    {
      "anonymous": false,
      "inputs": [
        {
          "indexed": false,
          "internalType": "uint256",
          "name": "eventId",
          "type": "uint256"
        },
        {
          "indexed": false,
          "internalType": "uint256",
          "name": "categoryId",
          "type": "uint256"
        },
        {
          "indexed": false,
          "internalType": "uint256",
          "name": "ticketsCount",
          "type": "uint256"
        }
      ],
      "name": "CategoryTicketsAdded",
      "type": "event"
    },
    {
      "anonymous": false,
      "inputs": [
        {
          "indexed": false,
          "internalType": "uint256",
          "name": "eventId",
          "type": "uint256"
        },
        {
          "indexed": false,
          "internalType": "uint256",
          "name": "categoryId",
          "type": "uint256"
        },
        {
          "indexed": false,
          "internalType": "uint256",
          "name": "ticketsCount",
          "type": "uint256"
        }
      ],
      "name": "CategoryTicketsRemoved",
      "type": "event"
    },
    {
      "anonymous": false,
      "inputs": [
        {
          "indexed": false,
          "internalType": "uint256",
          "name": "eventId",
          "type": "uint256"
        },
        {
          "indexed": false,
          "internalType": "uint256",
          "name": "categoryId",
          "type": "uint256"
        }
      ],
      "name": "CategoryUpdated",
      "type": "event"
    },
    {
      "anonymous": false,
      "inputs": [
        {
          "indexed": false,
          "internalType": "uint256",
          "name": "eventId",
          "type": "uint256"
        }
      ],
      "name": "EventCanceled",
      "type": "event"
    },
    {
      "anonymous": false,
      "inputs": [
        {
          "indexed": false,
          "internalType": "uint256",
          "name": "eventId",
          "type": "uint256"
        },
        {
          "indexed": false,
          "internalType": "address",
          "name": "account",
          "type": "address"
        },
        {
          "indexed": false,
          "internalType": "address",
          "name": "setter",
          "type": "address"
        }
      ],
      "name": "EventCashierSet",
      "type": "event"
    },
    {
      "anonymous": false,
      "inputs": [
        {
          "indexed": false,
          "internalType": "uint256",
          "name": "eventId",
          "type": "uint256"
        },
        {
          "indexed": false,
          "internalType": "string",
          "name": "metadataUri",
          "type": "string"
        }
      ],
      "name": "EventCreated",
      "type": "event"
    },
    {
      "anonymous": false,
      "inputs": [
        {
          "indexed": false,
          "internalType": "uint256",
          "name": "eventId",
          "type": "uint256"
        },
        {
          "indexed": false,
          "internalType": "uint256",
          "name": "time",
          "type": "uint256"
        }
      ],
      "name": "EventPostponed",
      "type": "event"
    },
    {
      "anonymous": false,
      "inputs": [
        {
          "indexed": false,
          "internalType": "uint256",
          "name": "_tokenId",
          "type": "uint256"
        }
      ],
      "name": "MetadataUpdate",
      "type": "event"
    },
    {
      "anonymous": false,
      "inputs": [
        {
          "indexed": false,
          "internalType": "uint256",
          "name": "eventId",
          "type": "uint256"
        },
        {
          "indexed": true,
          "internalType": "bytes32",
          "name": "role",
          "type": "bytes32"
        },
        {
          "indexed": true,
          "internalType": "bytes32",
          "name": "previousAdminRole",
          "type": "bytes32"
        },
        {
          "indexed": true,
          "internalType": "bytes32",
          "name": "newAdminRole",
          "type": "bytes32"
        }
      ],
      "name": "RoleAdminChanged",
      "type": "event"
    },
    {
      "anonymous": false,
      "inputs": [
        {
          "indexed": false,
          "internalType": "uint256",
          "name": "eventId",
          "type": "uint256"
        },
        {
          "indexed": true,
          "internalType": "bytes32",
          "name": "role",
          "type": "bytes32"
        },
        {
          "indexed": true,
          "internalType": "address",
          "name": "account",
          "type": "address"
        },
        {
          "indexed": true,
          "internalType": "address",
          "name": "sender",
          "type": "address"
        }
      ],
      "name": "RoleGranted",
      "type": "event"
    },
    {
      "anonymous": false,
      "inputs": [
        {
          "indexed": false,
          "internalType": "uint256",
          "name": "eventId",
          "type": "uint256"
        },
        {
          "indexed": true,
          "internalType": "bytes32",
          "name": "role",
          "type": "bytes32"
        },
        {
          "indexed": true,
          "internalType": "address",
          "name": "account",
          "type": "address"
        },
        {
          "indexed": true,
          "internalType": "address",
          "name": "sender",
          "type": "address"
        }
      ],
      "name": "RoleRevoked",
      "type": "event"
    },
    {
      "anonymous": false,
      "inputs": [
        {
          "indexed": true,
          "internalType": "address",
          "name": "from",
          "type": "address"
        },
        {
          "indexed": true,
          "internalType": "address",
          "name": "to",
          "type": "address"
        },
        {
          "indexed": true,
          "internalType": "uint256",
          "name": "tokenId",
          "type": "uint256"
        }
      ],
      "name": "Transfer",
      "type": "event"
    },
    {
      "inputs": [
        {
          "internalType": "uint256",
          "name": "_eventId",
          "type": "uint256"
        },
        {
          "internalType": "uint256",
          "name": "_categoryId",
          "type": "uint256"
        },
        {
          "internalType": "uint256",
          "name": "_ticketsCount",
          "type": "uint256"
        }
      ],
      "name": "addCategoryTicketsCount",
      "outputs": [],
      "stateMutability": "nonpayable",
      "type": "function"
    },
    {
      "inputs": [
        {
          "internalType": "uint256",
          "name": "_eventId",
          "type": "uint256"
        },
        {
          "internalType": "bytes32",
          "name": "_role",
          "type": "bytes32"
        },
        {
          "internalType": "address",
          "name": "_account",
          "type": "address"
        }
      ],
      "name": "addTeamMember",
      "outputs": [],
      "stateMutability": "nonpayable",
      "type": "function"
    },
    {
      "inputs": [
        {
          "internalType": "address",
          "name": "to",
          "type": "address"
        },
        {
          "internalType": "uint256",
          "name": "tokenId",
          "type": "uint256"
        }
      ],
      "name": "approve",
      "outputs": [],
      "stateMutability": "nonpayable",
      "type": "function"
    },
    {
      "inputs": [
        {
          "internalType": "address",
          "name": "owner",
          "type": "address"
        }
      ],
      "name": "balanceOf",
      "outputs": [
        {
          "internalType": "uint256",
          "name": "",
          "type": "uint256"
        }
      ],
      "stateMutability": "view",
      "type": "function"
    },
    {
      "inputs": [
        {
          "internalType": "uint256",
          "name": "_eventId",
          "type": "uint256"
        }
      ],
      "name": "cancelEvent",
      "outputs": [],
      "stateMutability": "nonpayable",
      "type": "function"
    },
    {
      "inputs": [
        {
          "internalType": "uint256",
          "name": "_maxTicketsPerClient",
          "type": "uint256"
        },
        {
          "internalType": "uint64",
          "name": "_startDate",
          "type": "uint64"
        },
        {
          "internalType": "uint64",
          "name": "_endDate",
          "type": "uint64"
        },
        {
          "internalType": "string",
          "name": "_metadataURI",
          "type": "string"
        }
      ],
      "name": "createEvent",
      "outputs": [],
      "stateMutability": "nonpayable",
      "type": "function"
    },
    {
      "inputs": [
        {
          "internalType": "uint256",
          "name": "_eventId",
          "type": "uint256"
        },
        {
          "internalType": "string",
          "name": "_categoryCid",
          "type": "string"
        },
        {
          "internalType": "uint256",
          "name": "_saleStartDate",
          "type": "uint256"
        },
        {
          "internalType": "uint256",
          "name": "_saleEndDate",
          "type": "uint256"
        },
        {
          "internalType": "uint256",
          "name": "_ticketsCount",
          "type": "uint256"
        },
        {
          "internalType": "uint256",
          "name": "_ticketPrice",
          "type": "uint256"
        },
        {
          "internalType": "uint256[]",
          "name": "_discountsTicketsCount",
          "type": "uint256[]"
        },
        {
          "internalType": "uint256[]",
          "name": "_discountsPercentage",
          "type": "uint256[]"
        },
        {
          "components": [
            {
              "internalType": "uint256",
              "name": "price",
              "type": "uint256"
            },
            {
              "internalType": "uint256",
              "name": "finalAmountDate",
              "type": "uint256"
            }
          ],
          "internalType": "struct DownPayment",
          "name": "_downPayment",
          "type": "tuple"
        }
      ],
      "name": "createTicketCategory",
      "outputs": [],
      "stateMutability": "nonpayable",
      "type": "function"
    },
    {
      "inputs": [
        {
          "internalType": "uint256",
          "name": "tokenId",
          "type": "uint256"
        }
      ],
      "name": "endTime",
      "outputs": [
        {
          "internalType": "uint64",
          "name": "",
          "type": "uint64"
        }
      ],
      "stateMutability": "view",
      "type": "function"
    },
    {
      "inputs": [],
      "name": "fetchAllEventIds",
      "outputs": [
        {
          "internalType": "uint256[]",
          "name": "",
          "type": "uint256[]"
        }
      ],
      "stateMutability": "view",
      "type": "function"
    },
    {
      "inputs": [],
      "name": "fetchAllEvents",
      "outputs": [
        {
          "components": [
            {
              "internalType": "address",
              "name": "organizer",
              "type": "address"
            },
            {
              "internalType": "uint256",
              "name": "maxTicketsPerClient",
              "type": "uint256"
            },
            {
              "internalType": "uint256",
              "name": "balance",
              "type": "uint256"
            },
            {
              "internalType": "bool",
              "name": "areAllCategoryTicketsBuyable",
              "type": "bool"
            },
            {
              "internalType": "enum EventStatus",
              "name": "status",
              "type": "uint8"
            },
            {
              "internalType": "uint64",
              "name": "startTime",
              "type": "uint64"
            },
            {
              "internalType": "uint64",
              "name": "endTime",
              "type": "uint64"
            },
            {
              "components": [
                {
                  "internalType": "uint256",
                  "name": "date",
                  "type": "uint256"
                },
                {
                  "internalType": "uint8",
                  "name": "percentage",
                  "type": "uint8"
                }
              ],
              "internalType": "struct RefundData[]",
              "name": "refundData",
              "type": "tuple[]"
            }
          ],
          "internalType": "struct Event[]",
          "name": "",
          "type": "tuple[]"
        }
      ],
      "stateMutability": "view",
      "type": "function"
    },
    {
      "inputs": [
        {
          "internalType": "uint256",
          "name": "_eventId",
          "type": "uint256"
        }
      ],
      "name": "fetchCategoriesByEventId",
      "outputs": [
        {
          "components": [
            {
              "internalType": "uint256",
              "name": "id",
              "type": "uint256"
            },
            {
              "internalType": "string",
              "name": "cid",
              "type": "string"
            },
            {
              "internalType": "uint256[]",
              "name": "ticketIds",
              "type": "uint256[]"
            },
            {
              "internalType": "uint256",
              "name": "ticketPrice",
              "type": "uint256"
            },
            {
              "internalType": "uint256",
              "name": "ticketsCount",
              "type": "uint256"
            },
            {
              "internalType": "uint256",
              "name": "saleStartDate",
              "type": "uint256"
            },
            {
              "internalType": "uint256",
              "name": "saleEndDate",
              "type": "uint256"
            },
            {
              "internalType": "uint256",
              "name": "eventId",
              "type": "uint256"
            },
            {
              "internalType": "uint256",
              "name": "balance",
              "type": "uint256"
            },
            {
              "internalType": "uint256[]",
              "name": "discountsTicketsCount",
              "type": "uint256[]"
            },
            {
              "internalType": "uint256[]",
              "name": "discountsPercentage",
              "type": "uint256[]"
            },
            {
              "components": [
                {
                  "internalType": "uint256",
                  "name": "price",
                  "type": "uint256"
                },
                {
                  "internalType": "uint256",
                  "name": "finalAmountDate",
                  "type": "uint256"
                }
              ],
              "internalType": "struct DownPayment",
              "name": "downPayment",
              "type": "tuple"
            },
            {
              "internalType": "bool",
              "name": "areTicketsBuyable",
              "type": "bool"
            }
          ],
          "internalType": "struct Category[]",
          "name": "",
          "type": "tuple[]"
        }
      ],
      "stateMutability": "view",
      "type": "function"
    },
    {
      "inputs": [
        {
          "internalType": "uint256",
          "name": "_eventId",
          "type": "uint256"
        }
      ],
      "name": "fetchEventById",
      "outputs": [
        {
          "components": [
            {
              "internalType": "address",
              "name": "organizer",
              "type": "address"
            },
            {
              "internalType": "uint256",
              "name": "maxTicketsPerClient",
              "type": "uint256"
            },
            {
              "internalType": "uint256",
              "name": "balance",
              "type": "uint256"
            },
            {
              "internalType": "bool",
              "name": "areAllCategoryTicketsBuyable",
              "type": "bool"
            },
            {
              "internalType": "enum EventStatus",
              "name": "status",
              "type": "uint8"
            },
            {
              "internalType": "uint64",
              "name": "startTime",
              "type": "uint64"
            },
            {
              "internalType": "uint64",
              "name": "endTime",
              "type": "uint64"
            },
            {
              "components": [
                {
                  "internalType": "uint256",
                  "name": "date",
                  "type": "uint256"
                },
                {
                  "internalType": "uint8",
                  "name": "percentage",
                  "type": "uint8"
                }
              ],
              "internalType": "struct RefundData[]",
              "name": "refundData",
              "type": "tuple[]"
            }
          ],
          "internalType": "struct Event",
          "name": "eventObj",
          "type": "tuple"
        }
      ],
      "stateMutability": "view",
      "type": "function"
    },
    {
      "inputs": [],
      "name": "fetchOwnedEvents",
      "outputs": [
        {
          "internalType": "uint256[]",
          "name": "",
          "type": "uint256[]"
        }
      ],
      "stateMutability": "view",
      "type": "function"
    },
    {
      "inputs": [
        {
          "internalType": "uint256",
          "name": "tokenId",
          "type": "uint256"
        }
      ],
      "name": "getApproved",
      "outputs": [
        {
          "internalType": "address",
          "name": "",
          "type": "address"
        }
      ],
      "stateMutability": "view",
      "type": "function"
    },
    {
      "inputs": [
        {
          "internalType": "uint256",
          "name": "eventId",
          "type": "uint256"
        }
      ],
      "name": "getEventMembers",
      "outputs": [
        {
          "components": [
            {
              "internalType": "address",
              "name": "account",
              "type": "address"
            },
            {
              "internalType": "bytes32",
              "name": "role",
              "type": "bytes32"
            }
          ],
          "internalType": "struct MemberData[]",
          "name": "",
          "type": "tuple[]"
        }
      ],
      "stateMutability": "view",
      "type": "function"
    },
    {
      "inputs": [
        {
          "internalType": "uint256",
          "name": "eventId",
          "type": "uint256"
        },
        {
          "internalType": "bytes32",
          "name": "role",
          "type": "bytes32"
        }
      ],
      "name": "getRoleAdmin",
      "outputs": [
        {
          "internalType": "bytes32",
          "name": "",
          "type": "bytes32"
        }
      ],
      "stateMutability": "view",
      "type": "function"
    },
    {
      "inputs": [
        {
          "internalType": "uint256",
          "name": "eventId",
          "type": "uint256"
        },
        {
          "internalType": "bytes32",
          "name": "role",
          "type": "bytes32"
        },
        {
          "internalType": "address",
          "name": "account",
          "type": "address"
        }
      ],
      "name": "grantRole",
      "outputs": [],
      "stateMutability": "nonpayable",
      "type": "function"
    },
    {
      "inputs": [
        {
          "internalType": "uint256",
          "name": "eventId",
          "type": "uint256"
        },
        {
          "internalType": "bytes32",
          "name": "role",
          "type": "bytes32"
        },
        {
          "internalType": "address",
          "name": "account",
          "type": "address"
        }
      ],
      "name": "hasRole",
      "outputs": [
        {
          "internalType": "bool",
          "name": "",
          "type": "bool"
        }
      ],
      "stateMutability": "view",
      "type": "function"
    },
    {
      "inputs": [
        {
          "internalType": "address",
          "name": "owner",
          "type": "address"
        },
        {
          "internalType": "address",
          "name": "operator",
          "type": "address"
        }
      ],
      "name": "isApprovedForAll",
      "outputs": [
        {
          "internalType": "bool",
          "name": "",
          "type": "bool"
        }
      ],
      "stateMutability": "view",
      "type": "function"
    },
    {
      "inputs": [
        {
          "internalType": "uint256",
          "name": "_eventId",
          "type": "uint256"
        },
        {
          "internalType": "bool",
          "name": "_value",
          "type": "bool"
        }
      ],
      "name": "manageAllCategorySelling",
      "outputs": [],
      "stateMutability": "nonpayable",
      "type": "function"
    },
    {
      "inputs": [
        {
          "internalType": "uint256",
          "name": "_eventId",
          "type": "uint256"
        },
        {
          "internalType": "uint256",
          "name": "_categoryId",
          "type": "uint256"
        },
        {
          "internalType": "bool",
          "name": "_value",
          "type": "bool"
        }
      ],
      "name": "manageCategorySelling",
      "outputs": [],
      "stateMutability": "nonpayable",
      "type": "function"
    },
    {
      "inputs": [],
      "name": "name",
      "outputs": [
        {
          "internalType": "string",
          "name": "",
          "type": "string"
        }
      ],
      "stateMutability": "view",
      "type": "function"
    },
    {
      "inputs": [
        {
          "internalType": "uint256",
          "name": "tokenId",
          "type": "uint256"
        }
      ],
      "name": "ownerOf",
      "outputs": [
        {
          "internalType": "address",
          "name": "",
          "type": "address"
        }
      ],
      "stateMutability": "view",
      "type": "function"
    },
    {
      "inputs": [
        {
          "internalType": "uint256",
          "name": "_eventId",
          "type": "uint256"
        },
        {
          "internalType": "uint64",
          "name": "_time",
          "type": "uint64"
        }
      ],
      "name": "postponeEvent",
      "outputs": [],
      "stateMutability": "nonpayable",
      "type": "function"
    },
    {
      "inputs": [
        {
          "internalType": "uint256",
          "name": "_eventId",
          "type": "uint256"
        },
        {
          "internalType": "uint256",
          "name": "_categoryId",
          "type": "uint256"
        }
      ],
      "name": "removeCategory",
      "outputs": [],
      "stateMutability": "nonpayable",
      "type": "function"
    },
    {
      "inputs": [
        {
          "internalType": "uint256",
          "name": "_eventId",
          "type": "uint256"
        },
        {
          "internalType": "uint256",
          "name": "_categoryId",
          "type": "uint256"
        },
        {
          "internalType": "uint256",
          "name": "_ticketsCount",
          "type": "uint256"
        }
      ],
      "name": "removeCategoryTicketsCount",
      "outputs": [],
      "stateMutability": "nonpayable",
      "type": "function"
    },
    {
      "inputs": [
        {
          "internalType": "uint256",
          "name": "_eventId",
          "type": "uint256"
        }
      ],
      "name": "removeEvent",
      "outputs": [],
      "stateMutability": "nonpayable",
      "type": "function"
    },
    {
      "inputs": [
        {
          "internalType": "uint256",
          "name": "_eventId",
          "type": "uint256"
        },
        {
          "internalType": "bytes32",
          "name": "_role",
          "type": "bytes32"
        },
        {
          "internalType": "address",
          "name": "_account",
          "type": "address"
        }
      ],
      "name": "removeTeamMember",
      "outputs": [],
      "stateMutability": "nonpayable",
      "type": "function"
    },
    {
      "inputs": [
        {
          "internalType": "uint256",
          "name": "eventId",
          "type": "uint256"
        },
        {
          "internalType": "bytes32",
          "name": "role",
          "type": "bytes32"
        },
        {
          "internalType": "address",
          "name": "account",
          "type": "address"
        }
      ],
      "name": "renounceRole",
      "outputs": [],
      "stateMutability": "nonpayable",
      "type": "function"
    },
    {
      "inputs": [
        {
          "internalType": "uint256",
          "name": "eventId",
          "type": "uint256"
        },
        {
          "internalType": "bytes32",
          "name": "role",
          "type": "bytes32"
        },
        {
          "internalType": "address",
          "name": "account",
          "type": "address"
        }
      ],
      "name": "revokeRole",
      "outputs": [],
      "stateMutability": "nonpayable",
      "type": "function"
    },
    {
      "inputs": [
        {
          "internalType": "address",
          "name": "from",
          "type": "address"
        },
        {
          "internalType": "address",
          "name": "to",
          "type": "address"
        },
        {
          "internalType": "uint256",
          "name": "tokenId",
          "type": "uint256"
        }
      ],
      "name": "safeTransferFrom",
      "outputs": [],
      "stateMutability": "nonpayable",
      "type": "function"
    },
    {
      "inputs": [
        {
          "internalType": "address",
          "name": "from",
          "type": "address"
        },
        {
          "internalType": "address",
          "name": "to",
          "type": "address"
        },
        {
          "internalType": "uint256",
          "name": "tokenId",
          "type": "uint256"
        },
        {
          "internalType": "bytes",
          "name": "data",
          "type": "bytes"
        }
      ],
      "name": "safeTransferFrom",
      "outputs": [],
      "stateMutability": "nonpayable",
      "type": "function"
    },
    {
      "inputs": [
        {
          "internalType": "address",
          "name": "operator",
          "type": "address"
        },
        {
          "internalType": "bool",
          "name": "approved",
          "type": "bool"
        }
      ],
      "name": "setApprovalForAll",
      "outputs": [],
      "stateMutability": "nonpayable",
      "type": "function"
    },
    {
      "inputs": [
        {
          "internalType": "uint256",
          "name": "_eventId",
          "type": "uint256"
        },
        {
          "internalType": "address",
          "name": "_account",
          "type": "address"
        }
      ],
      "name": "setEventCashier",
      "outputs": [],
      "stateMutability": "nonpayable",
      "type": "function"
    },
    {
      "inputs": [
        {
          "internalType": "uint256",
          "name": "tokenId",
          "type": "uint256"
        }
      ],
      "name": "startTime",
      "outputs": [
        {
          "internalType": "uint64",
          "name": "",
          "type": "uint64"
        }
      ],
      "stateMutability": "view",
      "type": "function"
    },
    {
      "inputs": [
        {
          "internalType": "bytes4",
          "name": "interfaceId",
          "type": "bytes4"
        }
      ],
      "name": "supportsInterface",
      "outputs": [
        {
          "internalType": "bool",
          "name": "",
          "type": "bool"
        }
      ],
      "stateMutability": "view",
      "type": "function"
    },
    {
      "inputs": [],
      "name": "symbol",
      "outputs": [
        {
          "internalType": "string",
          "name": "",
          "type": "string"
        }
      ],
      "stateMutability": "view",
      "type": "function"
    },
    {
      "inputs": [
        {
          "internalType": "uint256",
          "name": "tokenId",
          "type": "uint256"
        }
      ],
      "name": "tokenURI",
      "outputs": [
        {
          "internalType": "string",
          "name": "",
          "type": "string"
        }
      ],
      "stateMutability": "view",
      "type": "function"
    },
    {
      "inputs": [
        {
          "internalType": "address",
          "name": "from",
          "type": "address"
        },
        {
          "internalType": "address",
          "name": "to",
          "type": "address"
        },
        {
          "internalType": "uint256",
          "name": "tokenId",
          "type": "uint256"
        }
      ],
      "name": "transferFrom",
      "outputs": [],
      "stateMutability": "nonpayable",
      "type": "function"
    },
    {
      "inputs": [
        {
          "internalType": "uint256",
          "name": "_eventId",
          "type": "uint256"
        },
        {
          "internalType": "uint256",
          "name": "_categoryId",
          "type": "uint256"
        },
        {
          "internalType": "string",
          "name": "_categoryCid",
          "type": "string"
        },
        {
          "internalType": "uint256",
          "name": "_ticketPrice",
          "type": "uint256"
        },
        {
          "internalType": "uint256[]",
          "name": "_discountsTicketsCount",
          "type": "uint256[]"
        },
        {
          "internalType": "uint256[]",
          "name": "_discountsPercentage",
          "type": "uint256[]"
        },
        {
          "components": [
            {
              "internalType": "uint256",
              "name": "price",
              "type": "uint256"
            },
            {
              "internalType": "uint256",
              "name": "finalAmountDate",
              "type": "uint256"
            }
          ],
          "internalType": "struct DownPayment",
          "name": "_downPayment",
          "type": "tuple"
        }
      ],
      "name": "updateCategory",
      "outputs": [],
      "stateMutability": "nonpayable",
      "type": "function"
    },
    {
      "inputs": [
        {
          "internalType": "uint256",
          "name": "_eventId",
          "type": "uint256"
        },
        {
          "internalType": "uint256",
          "name": "_categoryId",
          "type": "uint256"
        },
        {
          "internalType": "uint256",
          "name": "_saleStartDate",
          "type": "uint256"
        },
        {
          "internalType": "uint256",
          "name": "_saleEndDate",
          "type": "uint256"
        }
      ],
      "name": "updateCategorySaleDates",
      "outputs": [],
      "stateMutability": "nonpayable",
      "type": "function"
    },
    {
      "inputs": [
        {
          "internalType": "uint256",
          "name": "_eventId",
          "type": "uint256"
        },
        {
          "internalType": "string",
          "name": "_newMetadataURI",
          "type": "string"
        }
      ],
      "name": "updateEventTokenUri",
      "outputs": [],
      "stateMutability": "nonpayable",
      "type": "function"
    },
    {
      "inputs": [
        {
          "internalType": "uint256",
          "name": "_eventId",
          "type": "uint256"
        }
      ],
      "name": "withdrawFromCanceledEvent",
      "outputs": [],
      "stateMutability": "nonpayable",
      "type": "function"
    }
  ],
  "bytecode": "0x608060405234801561001057600080fd5b50615fac80620000216000396000f3fe608060405234801561001057600080fd5b50600436106101f95760003560e01c806301ffc9a7146101fe5780630309a5391461022757806306fdde031461023c578063081812fc14610251578063095ea7b31461027c5780630d5172861461028f5780630e1b943d146102af578063119345aa146102cf5780631c6f9271146102e25780631cdf29c7146102f55780632053d82c1461030857806323b872dd1461031b5780632761f33b1461032e5780633660ff8314610341578063397d4dbc146103565780633d378bb0146103775780633ec4c9681461038a5780633f69babd146103b557806342842e0e146103c857806344c816fa146103db5780634a120dd7146103ee57806356164e1e146104015780636352211e146104145780636a4bc7de1461042757806370a082311461043a578063724bdedf1461044d5780637986b23014610460578063959a1b581461047357806395d89b4114610486578063a22cb4651461048e578063a310d9bf146104a1578063a3bdc7c7146104b4578063a3cfe160146104d4578063abae6af9146104e7578063b0155544146104fc578063b88d4fde1461050f578063c87b56dd14610522578063d5533da014610535578063dc91a98f14610548578063e985e9c51461055b578063f354159b1461056e578063f99c229214610581578063fb42204d14610589575b600080fd5b61021261020c366004614cdc565b50600090565b60405190151581526020015b60405180910390f35b61023a610235366004614d0e565b61059c565b005b6102446106c5565b60405161021e9190614d8a565b61026461025f366004614d9d565b61075c565b6040516001600160a01b03909116815260200161021e565b61023a61028a366004614dcb565b610785565b6102a261029d366004614d9d565b61089a565b60405161021e9190614efe565b6102c26102bd366004614d9d565b610a2c565b60405161021e9190614f11565b6102126102dd366004614f69565b610aab565b61023a6102f0366004614fa2565b610ae2565b61023a610303366004614fd4565b610ca5565b61023a6103163660046150af565b610db4565b61023a6103293660046150f5565b610eb0565b61023a61033c366004615193565b610ee1565b6103496111aa565b60405161021e9190615255565b6103696103643660046152b7565b6113ec565b60405190815260200161021e565b61023a6103853660046152b7565b611410565b61039d610398366004614d9d565b6117f0565b6040516001600160401b03909116815260200161021e565b61023a6103c3366004614d9d565b6117fb565b61023a6103d63660046150f5565b611c3a565b61039d6103e9366004614d9d565b611c55565b61023a6103fc366004614f69565b611c60565b61023a61040f366004614d9d565b611c87565b610264610422366004614d9d565b611f8c565b61023a610435366004614f69565b611fca565b6103696104483660046152d9565b6120ec565b61023a61045b366004614f69565b612178565b61023a61046e366004614d9d565b6121f1565b61023a610481366004615337565b6123b8565b610244612681565b61023a61049c366004615421565b612694565b61023a6104af36600461544d565b6126a3565b6104c76104c2366004614d9d565b612871565b60405161021e91906154b2565b61023a6104e2366004615608565b612c18565b6104ef612e27565b60405161021e919061566f565b61023a61050a366004614f69565b612f72565b61023a61051d366004615682565b613092565b610244610530366004614d9d565b6130c4565b61023a6105433660046156f5565b61320b565b61023a610556366004615721565b6133d3565b610212610569366004615744565b613739565b61023a61057c3660046156f5565b613767565b6104ef6139f0565b61023a610597366004614f69565b613af5565b600082815260026020908152604091829020548251808401909352601b8352600080516020615e0c833981519152918301919091528391906001600160a01b03166106035760405162461bcd60e51b81526004016105fa9190614d8a565b60405180910390fd5b5061061083600033610aab565b8061062f575061062f83600080516020615eb483398151915233610aab565b6040518060600160405280602a8152602001615d6d602a9139906106665760405162461bcd60e51b81526004016105fa9190614d8a565b50600083815260096020908152604091829020600301805460ff19168515159081179091558251868152918201527f578eeefe0b8083fcd939e8d547da4c0ba6b26ed213c13de65ab08a52f9f26a5291015b60405180910390a1505050565b606060008060000180546106d890615772565b80601f016020809104026020016040519081016040528092919081815260200182805461070490615772565b80156107515780601f1061072657610100808354040283529160200191610751565b820191906000526020600020905b81548152906001019060200180831161073457829003601f168201915b505050505091505090565b60008061076883613b15565b60009283526004016020525060409020546001600160a01b031690565b600061079082611f8c565b9050806001600160a01b0316836001600160a01b0316036107fd5760405162461bcd60e51b815260206004820152602160248201527f4552433732313a20617070726f76616c20746f2063757272656e74206f776e656044820152603960f91b60648201526084016105fa565b336001600160a01b038216148061081957506108198133613739565b61088b5760405162461bcd60e51b815260206004820152603e60248201527f4552433732313a20617070726f76652063616c6c6572206973206e6f7420746f60448201527f6b656e206f776e6572206e6f7220617070726f76656420666f7220616c6c000060648201526084016105fa565b6108958383613b3d565b505050565b6108a2614acb565b600082815260026020908152604091829020548251808401909352601b8352600080516020615e0c833981519152918301919091528391906001600160a01b03166109005760405162461bcd60e51b81526004016105fa9190614d8a565b506000838152600960209081526040918290208251610100808201855282546001600160a01b0316825260018301549382019390935260028083015494820194909452600382015460ff8082161515606084015291949293608086019391049091169081111561097257610972614df7565b600281111561098357610983614df7565b815260038201546001600160401b036201000082048116602080850191909152600160501b90920416604080840191909152600484018054825181850281018501909352808352606090940193919290919060009084015b82821015610a1d57600084815260209081902060408051808201909152600285029091018054825260019081015460ff168284015290835290920191016109db565b50505091525090949350505050565b6000818152601460209081526040808320805482518185028101850190935280835260609493849084015b82821015610a9f576000848152602090819020604080518082019091526002850290910180546001600160a01b03168252600190810154828401529083529092019101610a57565b50505050915050919050565b600083815260136020908152604080832085845282528083206001600160a01b038516845290915281205460ff165b949350505050565b600084815260026020908152604091829020548251808401909352601b8352600080516020615e0c833981519152918301919091528591906001600160a01b0316610b405760405162461bcd60e51b81526004016105fa9190614d8a565b506000848152600a6020908152604091829020548251808401909352601e8352600080516020615e2c83398151915291830191909152859190610b965760405162461bcd60e51b81526004016105fa9190614d8a565b508585816000600a0160008381526020019081526020016000206007015414604051806060016040528060298152602001615d976029913990610bec5760405162461bcd60e51b81526004016105fa9190614d8a565b50610bf988600033610aab565b80610c185750610c1888600080516020615eb483398151915233610aab565b6040518060600160405280602a8152602001615d6d602a913990610c4f5760405162461bcd60e51b81526004016105fa9190614d8a565b50610c5c88888888613bac565b6040805189815260208101899052338183015290517f4192182acd964db32b1197a6483d5694cf6e678e7202565c44cc961078eb2c8f9181900360600190a15050505050505050565b600082815260026020908152604091829020548251808401909352601b8352600080516020615e0c833981519152918301919091528391906001600160a01b0316610d035760405162461bcd60e51b81526004016105fa9190614d8a565b50610d1083600033610aab565b6040518060400160405280601d8152602001600080516020615e9483398151915281525090610d525760405162461bcd60e51b81526004016105fa9190614d8a565b50610d6c83600080516020615e7483398151915284613af5565b604080518481526001600160a01b038416602082015233918101919091527f9f54db3c6775e8717da6972b09a7ed552d62f5fd63696a1a75e58f61bd240193906060016106b8565b600082815260026020908152604091829020548251808401909352601b8352600080516020615e0c833981519152918301919091528391906001600160a01b0316610e125760405162461bcd60e51b81526004016105fa9190614d8a565b50610e1f83600033610aab565b80610e3e5750610e3e83600080516020615eb483398151915233610aab565b6040518060600160405280602a8152602001615d6d602a913990610e755760405162461bcd60e51b81526004016105fa9190614d8a565b50610e808383613d79565b6040518381527ff8e1a15aba9398e019f0b49df1a4fde98ee17ae345cb5f6b5e2c27f5033e8ce7906020016106b8565b610eba3382613e01565b610ed65760405162461bcd60e51b81526004016105fa906157a6565b610895838383613e5f565b600089815260026020908152604091829020548251808401909352601b8352600080516020615e0c833981519152918301919091528a91906001600160a01b0316610f3f5760405162461bcd60e51b81526004016105fa9190614d8a565b506000898152600a6020908152604091829020548251808401909352601e8352600080516020615e2c833981519152918301919091528a9190610f955760405162461bcd60e51b81526004016105fa9190614d8a565b508a8a816000600a0160008381526020019081526020016000206007015414604051806060016040528060298152602001615d976029913990610feb5760405162461bcd60e51b81526004016105fa9190614d8a565b50610ff88d600033610aab565b8061101757506110178d600080516020615eb483398151915233610aab565b6040518060600160405280602a8152602001615d6d602a91399061104e5760405162461bcd60e51b81526004016105fa9190614d8a565b50604080516060810190915260288082528988149190615e4c60208301399061108a5760405162461bcd60e51b81526004016105fa9190614d8a565b50896000036110d8578715801561109f575085155b604051806060016040528060288152602001615e4c60289139906110d65760405162461bcd60e51b81526004016105fa9190614d8a565b505b60008c8152600a602052604090206001016110f38c8261584f565b5060008c8152600a60205260409020600381018b9055611117906009018a8a614b0e565b5060008c8152600a6020819052604090912061113591018888614b0e565b5060008c8152600a602052604090208590600b01611160828281358155602082013560018201555050565b5050604080518e8152602081018e90527f44df894581249b9c6cda25b6fe8239320be1641adde53f17479b4153cadfcc60910160405180910390a150505050505050505050505050565b606060006111b760075490565b905060008060015b838111611203576000818152600960205260409020546001600160a01b0316156111f157826111ed8161591e565b9350505b806111fb8161591e565b9150506111bf565b506000826001600160401b0381111561121e5761121e615004565b60405190808252806020026020018201604052801561125757816020015b611244614acb565b81526020019060019003908161123c5790505b50905060015b8481116113e3576000818152600960205260409020546001600160a01b0316156113d1576000818152600960209081526040918290208251610100808201855282546001600160a01b0316825260018301549382019390935260028083015494820194909452600382015460ff808216151560608401529194929360808601939104909116908111156112f2576112f2614df7565b600281111561130357611303614df7565b815260038201546001600160401b036201000082048116602080850191909152600160501b90920416604080840191909152600484018054825181850281018501909352808352606090940193919290919060009084015b8282101561139d57600084815260209081902060408051808201909152600285029091018054825260019081015460ff1682840152908352909201910161135b565b50505050815250508284815181106113b7576113b7615937565b602002602001018190525082806113cd9061591e565b9350505b806113db8161591e565b91505061125d565b50949350505050565b60008281526013602090815260408083208484529091529020600101545b92915050565b600082815260026020908152604091829020548251808401909352601b8352600080516020615e0c833981519152918301919091528391906001600160a01b031661146e5760405162461bcd60e51b81526004016105fa9190614d8a565b506000828152600a6020908152604091829020548251808401909352601e8352600080516020615e2c833981519152918301919091528391906114c45760405162461bcd60e51b81526004016105fa9190614d8a565b508383816000600a0160008381526020019081526020016000206007015414604051806060016040528060298152602001615d97602991399061151a5760405162461bcd60e51b81526004016105fa9190614d8a565b5061152786600033610aab565b80611546575061154686600080516020615eb483398151915233610aab565b6040518060600160405280602a8152602001615d6d602a91399061157d5760405162461bcd60e51b81526004016105fa9190614d8a565b506000858152600a6020908152604091829020600201548251808401909352601d8352600080516020615f2283398151915291830191909152156115d45760405162461bcd60e51b81526004016105fa9190614d8a565b506000858152600a60205260408120818155906115f46001830182614b59565b611602600283016000614b93565b6003820160009055600482016000905560058201600090556006820160009055600782016000905560088201600090556009820160006116429190614b93565b611650600a83016000614b93565b506000600b828101829055600c8301829055600d909201805460ff191690558781526020918252604080822080548251818602810186019093528083529293919290918301828280156116c257602002820191906000526020600020905b8154815260200190600101908083116116ae575b5050505050905060005b81518110156117ac57868282815181106116e8576116e8615937565b60200260200101510361179a576000888152600b6020526040902082516117119060019061594d565b8154811061172157611721615937565b90600052602060002001546000600b0160008a8152602001908152602001600020828154811061175357611753615937565b6000918252602080832090910192909255898152600b9091526040902080548061177f5761177f615960565b600190038181906000526020600020016000905590556117ac565b806117a48161591e565b9150506116cc565b5060408051888152602081018890527ff67e86d3ffc2c26729aac7f4e3e07e009ad076ace7cd9e9fc184fd452ac0cc8591015b60405180910390a150505050505050565b600061140a82613ff1565b600081815260026020908152604091829020548251808401909352601b8352600080516020615e0c833981519152918301919091528291906001600160a01b03166118595760405162461bcd60e51b81526004016105fa9190614d8a565b5061186682600033610aab565b6040518060400160405280601d8152602001600080516020615e94833981519152815250906118a85760405162461bcd60e51b81526004016105fa9190614d8a565b506002600083815260096020526040902060030154610100900460ff1660028111156118d6576118d6614df7565b141560405180604001604052806015815260200174115d995b9d0e88115d995b9d0818d85b98d95b1959605a1b815250906119245760405162461bcd60e51b81526004016105fa9190614d8a565b506000805b6000848152600b60205260409020548110156119a0576000848152600b602052604081208054600a9291908490811061196457611964615937565b90600052602060002001548152602001908152602001600020600801548261198c9190615976565b9150806119988161591e565b915050611929565b50600083815260096020908152604091829020600201548251808401909352601e83527f4576656e743a204576656e742063616e27742062652063616e63656c65640000918301919091528214611a0a5760405162461bcd60e51b81526004016105fa9190614d8a565b5060005b6000848152600b6020526040902054811015611bea5760005b6000858152600b602052604081208054600a92919085908110611a4c57611a4c615937565b9060005260206000200154815260200190815260200160002060020180549050811015611bd7576012546000868152600b60205260408120805491926001600160a01b031691600a91849187908110611aa757611aa7615937565b906000526020600020015481526020019081526020016000206002018381548110611ad457611ad4615937565b9060005260206000200154604051602401611af191815260200190565b60408051601f198184030181529181526020820180516001600160e01b03166355ccad4360e01b17905251611b269190615989565b6000604051808303816000865af19150503d8060008114611b63576040519150601f19603f3d011682016040523d82523d6000602084013e611b68565b606091505b5091505060008082806020019051810190611b8391906159a5565b60008a81526011602090815260408083206001600160a01b0386168452909152812080549395509193508392611bba908490615976565b925050819055505050508080611bcf9061591e565b915050611a27565b5080611be28161591e565b915050611a0e565b50600083815260096020908152604091829020600301805461ff00191661020017905590518481527fceaf11772900fe569752a0207c8639fb8228eb8663456dc9eaa3a08f927a870591016106b8565b61089583838360405180602001604052806000815250613092565b600061140a8261403f565b82611c6b84846113ec565b611c75828261408e565b611c80858585614099565b5050505050565b600081815260026020908152604091829020548251808401909352601b8352600080516020615e0c833981519152918301919091528291906001600160a01b0316611ce55760405162461bcd60e51b81526004016105fa9190614d8a565b50611cf282600033610aab565b6040518060400160405280601d8152602001600080516020615e9483398151915281525090611d345760405162461bcd60e51b81526004016105fa9190614d8a565b506000828152600b6020908152604080832080548251818502810185019093528083529192909190830182828015611d8b57602002820191906000526020600020905b815481526020019060010190808311611d77575b505050505090506000805b8251811015611dfc576000600a016000848381518110611db857611db8615937565b6020026020010151815260200190815260200160002060020180549050600003611dea5781611de68161591e565b9250505b80611df48161591e565b915050611d96565b50808251146040518060400160405280601d8152602001600080516020615f2283398151915281525090611e435760405162461bcd60e51b81526004016105fa9190614d8a565b50611e4d84614163565b600084815260096020526040812080546001600160a01b031916815560018101829055600281018290556003810180546001600160901b031916905590611e976004830182614bb1565b50506000848152600b60205260408120611eb091614b93565b60005b8251811015611c80576000600a016000848381518110611ed557611ed5615937565b60200260200101518152602001908152602001600020600080820160009055600182016000611f049190614b59565b611f12600283016000614b93565b600382016000905560048201600090556005820160009055600682016000905560078201600090556008820160009055600982016000611f529190614b93565b611f60600a83016000614b93565b506000600b8201819055600c820155600d01805460ff1916905580611f848161591e565b915050611eb3565b60008181526002602052604081205481906001600160a01b031680611fc35760405162461bcd60e51b81526004016105fa906159d3565b9392505050565b600083815260026020908152604091829020548251808401909352601b8352600080516020615e0c833981519152918301919091528491906001600160a01b03166120285760405162461bcd60e51b81526004016105fa9190614d8a565b5061203584600033610aab565b6040518060400160405280601d8152602001600080516020615e94833981519152815250906120775760405162461bcd60e51b81526004016105fa9190614d8a565b5060408051808201909152601d81527f4576656e743a2043616e277420736574206361736869657220686572650000006020820152600080516020615e7483398151915284036120da5760405162461bcd60e51b81526004016105fa9190614d8a565b506120e6848484613af5565b50505050565b6000806001600160a01b0383166121575760405162461bcd60e51b815260206004820152602960248201527f4552433732313a2061646472657373207a65726f206973206e6f7420612076616044820152683634b21037bbb732b960b91b60648201526084016105fa565b6001600160a01b039092166000908152600390920160205250604090205490565b6001600160a01b03811633146121e65760405162461bcd60e51b815260206004820152602d60248201527f526f6c65436f6e74726f6c3a2063616e206f6e6c792072656e6f756e6365207260448201526c37b632b9903337b91039b2b63360991b60648201526084016105fa565b610895838383614099565b6002600082815260096020526040902060030154610100900460ff16600281111561221e5761221e614df7565b146040518060400160405280601c81526020017b115d995b9d0e88115d995b9d081a5cc81b9bdd0818d85b98d95b195960221b815250906122725760405162461bcd60e51b81526004016105fa9190614d8a565b50600081815260116020908152604080832033845282529182902054825180840190935260158352744576656e743a204e6f207769746864726177616c7360581b918301919091526122d75760405162461bcd60e51b81526004016105fa9190614d8a565b50600081815260116020908152604080832033845282528083208054908490558484526009909252822060020180549192839261231590849061594d565b9091555050604051600090339083908381818185875af1925050503d806000811461235c576040519150601f19603f3d011682016040523d82523d6000602084013e612361565b606091505b50509050806040518060400160405280601b81526020017a22bb32b73a1d102330b4b632b2103a379039b2b7321022ba3432b960291b815250906120e65760405162461bcd60e51b81526004016105fa9190614d8a565b60008c815260026020908152604091829020548251808401909352601b8352600080516020615e0c833981519152918301919091528d91906001600160a01b03166124165760405162461bcd60e51b81526004016105fa9190614d8a565b506124238d600033610aab565b8061244257506124428d600080516020615eb483398151915233610aab565b6040518060600160405280602a8152602001615d6d602a9139906124795760405162461bcd60e51b81526004016105fa9190614d8a565b50604080516060810190915260288082528685149190615e4c6020830139906124b55760405162461bcd60e51b81526004016105fa9190614d8a565b508660000361250357841580156124ca575082155b604051806060016040528060288152602001615e4c60289139906125015760405162461bcd60e51b81526004016105fa9190614d8a565b505b612511600880546001019055565b600061251c60085490565b6000818152600a6020526040902081815590915060010161253e8d8f83615a05565b506040805160008082526020808301808552858352600a909152929020905161256d9260029092019190614bd2565b506000818152600a60205260409020600481018a9055600781018f90556003810189905561259f906009018888614b0e565b506000818152600a602081905260409091206125bd91018686614b0e565b506000818152600a602052604090208390600b016125e8828281358155602082013560018201555050565b9050506125f78e828d8d613bac565b6000600b0160008f81526020019081526020016000208190806001815401808255809150506001900390600052602060002001600090919091909150557f2a94cd6b8e4219d087c43453e983d276c11f9ba16e547f01adb19edb60ae3c7d8e828f8f6040516126699493929190615abe565b60405180910390a15050505050505050505050505050565b606060008060010180546106d890615772565b61269f338383614228565b5050565b600083815260026020908152604091829020548251808401909352601b8352600080516020615e0c833981519152918301919091528491906001600160a01b03166127015760405162461bcd60e51b81526004016105fa9190614d8a565b506000838152600a6020908152604091829020548251808401909352601e8352600080516020615e2c833981519152918301919091528491906127575760405162461bcd60e51b81526004016105fa9190614d8a565b508484816000600a0160008381526020019081526020016000206007015414604051806060016040528060298152602001615d9760299139906127ad5760405162461bcd60e51b81526004016105fa9190614d8a565b506127ba87600033610aab565b806127d957506127d987600080516020615eb483398151915233610aab565b6040518060600160405280602a8152602001615d6d602a9139906128105760405162461bcd60e51b81526004016105fa9190614d8a565b506000868152600a6020908152604091829020600d01805460ff191688151590811790915582518a8152918201899052918101919091527f15fa4fe87d07b2a02e02cc0fac2981a3fd8653661340b9b26feae8ffefaade8a906060016117df565b600081815260026020908152604091829020548251808401909352601b8352600080516020615e0c8339815191529183019190915260609183916001600160a01b03166128d15760405162461bcd60e51b81526004016105fa9190614d8a565b506000838152600b602090815260408083208054825181850281018501909352808352919290919083018282801561292857602002820191906000526020600020905b815481526020019060010190808311612914575b50505050509050600081516001600160401b0381111561294a5761294a615004565b60405190808252806020026020018201604052801561298357816020015b612970614c0d565b8152602001906001900390816129685790505b50905060005b8251811015612c0d576000600a0160008483815181106129ab576129ab615937565b60200260200101518152602001908152602001600020604051806101a0016040529081600082015481526020016001820180546129e790615772565b80601f0160208091040260200160405190810160405280929190818152602001828054612a1390615772565b8015612a605780601f10612a3557610100808354040283529160200191612a60565b820191906000526020600020905b815481529060010190602001808311612a4357829003601f168201915b5050505050815260200160028201805480602002602001604051908101604052809291908181526020018280548015612ab857602002820191906000526020600020905b815481526020019060010190808311612aa4575b5050505050815260200160038201548152602001600482015481526020016005820154815260200160068201548152602001600782015481526020016008820154815260200160098201805480602002602001604051908101604052809291908181526020018280548015612b4c57602002820191906000526020600020905b815481526020019060010190808311612b38575b50505050508152602001600a8201805480602002602001604051908101604052809291908181526020018280548015612ba457602002820191906000526020600020905b815481526020019060010190808311612b90575b5050509183525050604080518082018252600b8401548152600c840154602082810191909152830152600d9092015460ff1615159101528251839083908110612bef57612bef615937565b60200260200101819052508080612c059061591e565b915050612989565b509250505b50919050565b826001600160401b0316826001600160401b0316118015612c42575042836001600160401b031610155b60405180604001604052806018815260200177455243353030373a20496e76616c696420656e6454696d6560401b81525090612c915760405162461bcd60e51b81526004016105fa9190614d8a565b50612ca0600780546001019055565b6000612cab60075490565b600081815260096020526040812080546001600160a01b0319163317815560018082018990556003820180546001600160401b03898116600160501b02600160501b600160901b0319918c16620100000261ff01600160501b03199093169290921790931792831681178255949550919361ff00191661ff00600160501b03600160901b0319909116176101008302179055507f9ce3d6db707bca4ba0eabed8fba1e2c013a1c0bc1132a764170a7854d198c73d8284604051612d6f929190615afb565b60405180910390a1612d83826000336142f7565b612d9c82600080516020615eb4833981519152336142f7565b612dc7827f21702c8af46127c7fa207f89d0b0a8441bb32959a0ac7df790e9ab1a25c98926336142f7565b612df2827fb5a7f51d0593e853ad0aa6b718ee0bdd10c4966eb62d243b69d538e5823d0401336142f7565b612e0b82600080516020615e74833981519152336142f7565b612e153383614403565b612e1f8284613d79565b505050505050565b60606000612e3460075490565b905060008060015b838111612ea357612e4f81600033610aab565b80612e6e5750612e6e81600080516020615eb483398151915233610aab565b8015612e7e5750612e7e8161452a565b15612e915782612e8d8161591e565b9350505b80612e9b8161591e565b915050612e3c565b506000826001600160401b03811115612ebe57612ebe615004565b604051908082528060200260200182016040528015612ee7578160200160208202803683370190505b50905060015b8481116113e357612f0081600033610aab565b80612f1f5750612f1f81600080516020615eb483398151915233610aab565b8015612f2f5750612f2f8161452a565b15612f605780828481518110612f4757612f47615937565b602090810291909101015282612f5c8161591e565b9350505b80612f6a8161591e565b915050612eed565b600083815260026020908152604091829020548251808401909352601b8352600080516020615e0c833981519152918301919091528491906001600160a01b0316612fd05760405162461bcd60e51b81526004016105fa9190614d8a565b50612fdd84600033610aab565b6040518060400160405280601d8152602001600080516020615e948339815191528152509061301f5760405162461bcd60e51b81526004016105fa9190614d8a565b50600080516020615e748339815191528314156040518060400160405280602081526020017f4576656e743a2043616e27742072656d6f766520636173686965722068657265815250906130865760405162461bcd60e51b81526004016105fa9190614d8a565b506120e6848484611c60565b61309c3383613e01565b6130b85760405162461bcd60e51b81526004016105fa906157a6565b6120e684848484614547565b606060006130d183613b15565b6000838152600682016020526040812080546130ec90615772565b80601f016020809104026020016040519081016040528092919081815260200182805461311890615772565b80156131655780601f1061313a57610100808354040283529160200191613165565b820191906000526020600020905b81548152906001019060200180831161314857829003601f168201915b50505050509050600061318360408051602081019091526000815290565b9050805160000361319657509392505050565b8151156131c95780826040516020016131b0929190615b14565b6040516020818303038152906040529350505050919050565b60008151116131e75760405180602001604052806000815250613202565b806131f18661457a565b6040516020016131b0929190615b14565b95945050505050565b600083815260026020908152604091829020548251808401909352601b8352600080516020615e0c833981519152918301919091528491906001600160a01b03166132695760405162461bcd60e51b81526004016105fa9190614d8a565b506000838152600a6020908152604091829020548251808401909352601e8352600080516020615e2c833981519152918301919091528491906132bf5760405162461bcd60e51b81526004016105fa9190614d8a565b508484816000600a0160008381526020019081526020016000206007015414604051806060016040528060298152602001615d9760299139906133155760405162461bcd60e51b81526004016105fa9190614d8a565b5061332287600033610aab565b80613341575061334187600080516020615eb483398151915233610aab565b6040518060600160405280602a8152602001615d6d602a9139906133785760405162461bcd60e51b81526004016105fa9190614d8a565b506000868152600a60205260408120600401805487929061339a908490615976565b90915550506040517f3a50fbe2fa0bdf2022fcd8fe2132970519fcf4df5cf97d78e86c510eb0805b6a906117df90899089908990615b43565b600082815260026020908152604091829020548251808401909352601b8352600080516020615e0c833981519152918301919091528391906001600160a01b03166134315760405162461bcd60e51b81526004016105fa9190614d8a565b5061343e83600033610aab565b6040518060400160405280601d8152602001600080516020615e94833981519152815250906134805760405162461bcd60e51b81526004016105fa9190614d8a565b50600083815260096020526040902060030180548391906002906134b49084906201000090046001600160401b0316615b59565b92506101000a8154816001600160401b0302191690836001600160401b031602179055508160006009016000858152602001908152602001600020600301600a8282829054906101000a90046001600160401b03166135139190615b59565b82546001600160401b0391821661010093840a90810292021916179091556000858152600960205260408120600301805461ff00191690921790915590505b6000848152600960205260409020600401548110156135d257600084815260096020526040902060040180546001600160401b03851691908390811061359a5761359a615937565b906000526020600020906002020160000160008282546135ba9190615976565b909155508190506135ca8161591e565b915050613552565b506000838152600b602090815260408083208054825181850281018501909352808352919290919083018282801561362957602002820191906000526020600020905b815481526020019060010190808311613615575b5050505050905060005b81518110156136f157836001600160401b03166000600a01600084848151811061365f5761365f615937565b6020026020010151815260200190815260200160002060050160008282546136879190615976565b92505081905550836001600160401b03166000600a0160008484815181106136b1576136b1615937565b6020026020010151815260200190815260200160002060060160008282546136d99190615976565b909155508190506136e98161591e565b915050613633565b50604080518581526001600160401b03851660208201527f9066be8d402a022f5b4db8b98825f0604ef760ea5053e46d7654a84d5f27ba89910160405180910390a150505050565b6001600160a01b03918216600090815260056020908152604080832093909416825291909152205460ff1690565b600083815260026020908152604091829020548251808401909352601b8352600080516020615e0c833981519152918301919091528491906001600160a01b03166137c55760405162461bcd60e51b81526004016105fa9190614d8a565b506000838152600a6020908152604091829020548251808401909352601e8352600080516020615e2c8339815191529183019190915284919061381b5760405162461bcd60e51b81526004016105fa9190614d8a565b508484816000600a0160008381526020019081526020016000206007015414604051806060016040528060298152602001615d9760299139906138715760405162461bcd60e51b81526004016105fa9190614d8a565b5061387e87600033610aab565b8061389d575061389d87600080516020615eb483398151915233610aab565b6040518060600160405280602a8152602001615d6d602a9139906138d45760405162461bcd60e51b81526004016105fa9190614d8a565b50846000600a0160008881526020019081526020016000206004015410156040518060600160405280602e8152602001615ef4602e9139906139295760405162461bcd60e51b81526004016105fa9190614d8a565b506000868152600a602052604090206004015461394790869061594d565b6000878152600a60209081526040918290206002015482516060810190935260358084529310159290615f4290830139906139955760405162461bcd60e51b81526004016105fa9190614d8a565b506000868152600a6020526040812060040180548792906139b790849061594d565b90915550506040517fb39ecd9af22a3fec10ec63455a79d572fdcfadf6a9005d5cd232b2829f958c70906117df90899089908990615b43565b606060006139fd60075490565b905060008060015b838111613a49576000818152600960205260409020546001600160a01b031615613a375782613a338161591e565b9350505b80613a418161591e565b915050613a05565b506000826001600160401b03811115613a6457613a64615004565b604051908082528060200260200182016040528015613a8d578160200160208202803683370190505b50905060015b8481116113e3576000818152600960205260409020546001600160a01b031615613ae35780828481518110613aca57613aca615937565b602090810291909101015282613adf8161591e565b9350505b80613aed8161591e565b915050613a93565b82613b0084846113ec565b613b0a828261408e565b611c808585856142f7565b613b1e8161452a565b613b3a5760405162461bcd60e51b81526004016105fa906159d3565b50565b600081815260046020526040812080546001600160a01b0319166001600160a01b0385169081179091558290613b7282611f8c565b6001600160a01b03167f8c5be1e5ebec7d5bd14f71427d1e84f3dd0314c0f7b2291e5b200ac8c7c3b92560405160405180910390a4505050565b81158015613bb8575080155b15613be9576000838152600a602052604090206005810183905560068101829055600d01805460ff191690556120e6565b81600003613c0b576000838152600a6020526040902042600590910155613c87565b6000848152600960205260409020600301546201000090046001600160401b031682108015613c3a5750428210155b604051806060016040528060278152602001615de56027913990613c715760405162461bcd60e51b81526004016105fa9190614d8a565b506000838152600a602052604090206005018290555b80600003613cca57600084815260096020908152604080832060030154868452600a909252909120620100009091046001600160401b0316600690910155613d57565b6000838152600a602052604090206005015481118015613d0a57506000848152600960205260409020600301546201000090046001600160401b03168111155b604051806060016040528060258152602001615dc06025913990613d415760405162461bcd60e51b81526004016105fa9190614d8a565b506000838152600a602052604090206006018190555b6000838152600a60205260409020600d01805460ff1916600117905550505050565b6000613d848361452a565b613de75760405162461bcd60e51b815260206004820152602e60248201527f45524337323155524953746f726167653a2055524920736574206f66206e6f6e60448201526d32bc34b9ba32b73a103a37b5b2b760911b60648201526084016105fa565b600083815260068201602052604090206120e6838261584f565b600080613e0d83611f8c565b9050806001600160a01b0316846001600160a01b03161480613e345750613e348185613739565b80610ada5750836001600160a01b0316613e4d8461075c565b6001600160a01b031614949350505050565b6000836001600160a01b0316613e7483611f8c565b6001600160a01b031614613ed85760405162461bcd60e51b815260206004820152602560248201527f4552433732313a207472616e736665722066726f6d20696e636f72726563742060448201526437bbb732b960d91b60648201526084016105fa565b6001600160a01b038316613f3a5760405162461bcd60e51b8152602060048201526024808201527f4552433732313a207472616e7366657220746f20746865207a65726f206164646044820152637265737360e01b60648201526084016105fa565b613f45600083613b3d565b6001600160a01b03841660009081526003820160205260408120805460019290613f7090849061594d565b90915550506001600160a01b03831660009081526003820160205260408120805460019290613fa0908490615976565b9091555050600082815260028201602052604080822080546001600160a01b0319166001600160a01b038781169182179092559151859391881691600080516020615ed483398151915291a46120e6565b600080613ffd8361452a565b6140195760405162461bcd60e51b81526004016105fa90615b80565b60009283526009016020525060409020600301546201000090046001600160401b031690565b60008061404b8361452a565b6140675760405162461bcd60e51b81526004016105fa90615b80565b6000928352600901602052506040902060030154600160501b90046001600160401b031690565b61269f82823361467a565b60006140a6848484610aab565b156120e6576000848152601382016020908152604080832086845282528083206001600160a01b03861684528252808320805460ff19169055601584019091529020546140f385826146de565b6001600160a01b0383166000908152601583016020526040812055336001600160a01b0316836001600160a01b0316857f7b00293d63517946aeba2f56c6b4c5dec87b67393ac48520994d3d8ce776335a8860405161415491815260200190565b60405180910390a45050505050565b60008061416f83611f8c565b905061417c600084613b3d565b6001600160a01b038116600090815260038301602052604081208054600192906141a790849061594d565b9091555050600083815260028301602052604080822080546001600160a01b0319169055518491906001600160a01b03841690600080516020615ed4833981519152908390a460008381526006830160205260409020805461420890615772565b159050610895576000838152600683016020526040812061089591614b59565b6000826001600160a01b0316846001600160a01b0316036142875760405162461bcd60e51b815260206004820152601960248201527822a9219b99189d1030b8383937bb32903a379031b0b63632b960391b60448201526064016105fa565b6001600160a01b038481166000818152600584016020908152604080832094881680845294825291829020805460ff191687151590811790915591519182527f17307eab39ab6107e8899845ad3d59bd9653f200f220920489ca2b5937696c31910160405180910390a350505050565b6000614304848484610aab565b6120e6576000848152601382016020908152604080832086845282528083206001600160a01b03868116808652918452828520805460ff19166001908117909155835180850185529283528285018981528a875260148801865293862080548083018255818852958720845160029097020180546001600160a01b031916969093169590951782559251908301559287905290546143a2919061594d565b6001600160a01b0384166000908152601584016020526040902055336001600160a01b0316836001600160a01b0316857fd9dfff7752b7a810e2b646c0c96b76bc9ed817f6c6f7848bbe68163f7e8b43788860405161415491815260200190565b60006001600160a01b03831661445b5760405162461bcd60e51b815260206004820181905260248201527f4552433732313a206d696e7420746f20746865207a65726f206164647265737360448201526064016105fa565b6144648261452a565b156144b05760405162461bcd60e51b815260206004820152601c60248201527b115490cdcc8c4e881d1bdad95b88185b1c9958591e481b5a5b9d195960221b60448201526064016105fa565b6001600160a01b038316600090815260038201602052604081208054600192906144db908490615976565b9091555050600082815260028201602052604080822080546001600160a01b0319166001600160a01b0387169081179091559051849290600080516020615ed4833981519152908290a4505050565b6000908152600260205260409020546001600160a01b0316151590565b614552848484613e5f565b61455e848484846147c6565b6120e65760405162461bcd60e51b81526004016105fa90615bb2565b6060816000036145a15750506040805180820190915260018152600360fc1b602082015290565b8160005b81156145cb57806145b58161591e565b91506145c49050600a83615c1a565b91506145a5565b6000816001600160401b038111156145e5576145e5615004565b6040519080825280601f01601f19166020018201604052801561460f576020820181803683370190505b5090505b8415610ada5761462460018361594d565b9150614631600a86615c2e565b61463c906030615976565b60f81b81838151811061465157614651615937565b60200101906001600160f81b031916908160001a905350614673600a86615c1a565b9450614613565b614685838383610aab565b61089557614692816148c7565b61469d8360206148d9565b6146a685614a74565b6040516020016146b893929190615c42565b60408051601f198184030181529082905262461bcd60e51b82526105fa91600401614d8a565b600082815260146020526040812080546146fa9060019061594d565b8154811061470a5761470a615937565b9060005260206000209060020201816014016000858152602001908152602001600020838154811061473e5761473e615937565b60009182526020808320845460029093020180546001600160a01b0319166001600160a01b039093169290921782556001938401549390910192909255848152601483019091526040902080548061479857614798615960565b60008281526020812060026000199093019283020180546001600160a01b0319168155600101559055505050565b60006001600160a01b0384163b156148bc57604051630a85bd0160e11b81526001600160a01b0385169063150b7a029061480a903390899088908890600401615ce4565b6020604051808303816000875af1925050508015614845575060408051601f3d908101601f1916820190925261484291810190615d21565b60015b6148a2573d808015614873576040519150601f19603f3d011682016040523d82523d6000602084013e614878565b606091505b50805160000361489a5760405162461bcd60e51b81526004016105fa90615bb2565b805181602001fd5b6001600160e01b031916630a85bd0160e11b149050610ada565b506001949350505050565b606061140a6001600160a01b03831660145b606060006148e8836002615d3e565b6148f3906002615976565b6001600160401b0381111561490a5761490a615004565b6040519080825280601f01601f191660200182016040528015614934576020820181803683370190505b509050600360fc1b8160008151811061494f5761494f615937565b60200101906001600160f81b031916908160001a905350600f60fb1b8160018151811061497e5761497e615937565b60200101906001600160f81b031916908160001a90535060006149a2846002615d3e565b6149ad906001615976565b90505b6001811115614a25576f181899199a1a9b1b9c1cb0b131b232b360811b85600f16601081106149e1576149e1615937565b1a60f81b8282815181106149f7576149f7615937565b60200101906001600160f81b031916908160001a90535060049490941c93614a1e81615d55565b90506149b0565b508315611fc35760405162461bcd60e51b815260206004820181905260248201527f537472696e67733a20686578206c656e67746820696e73756666696369656e7460448201526064016105fa565b606081600003614a9e5750506040805180820190915260048152630307830360e41b602082015290565b8160005b8115614ac15780614ab28161591e565b915050600882901c9150614aa2565b610ada84826148d9565b6040805161010081018252600080825260208201819052918101829052606081018290529060808201908152600060208201819052604082015260609081015290565b828054828255906000526020600020908101928215614b49579160200282015b82811115614b49578235825591602001919060010190614b2e565b50614b55929150614c90565b5090565b508054614b6590615772565b6000825580601f10614b75575050565b601f016020900490600052602060002090810190613b3a9190614c90565b5080546000825590600052602060002090810190613b3a9190614c90565b5080546000825560020290600052602060002090810190613b3a9190614ca5565b828054828255906000526020600020908101928215614b49579160200282015b82811115614b49578251825591602001919060010190614bf2565b604051806101a001604052806000815260200160608152602001606081526020016000815260200160008152602001600081526020016000815260200160008152602001600081526020016060815260200160608152602001614c83604051806040016040528060008152602001600081525090565b8152600060209091015290565b5b80821115614b555760008155600101614c91565b5b80821115614b55576000815560018101805460ff19169055600201614ca6565b6001600160e01b031981168114613b3a57600080fd5b600060208284031215614cee57600080fd5b8135611fc381614cc6565b80358015158114614d0957600080fd5b919050565b60008060408385031215614d2157600080fd5b82359150614d3160208401614cf9565b90509250929050565b60005b83811015614d55578181015183820152602001614d3d565b50506000910152565b60008151808452614d76816020860160208601614d3a565b601f01601f19169290920160200192915050565b602081526000611fc36020830184614d5e565b600060208284031215614daf57600080fd5b5035919050565b6001600160a01b0381168114613b3a57600080fd5b60008060408385031215614dde57600080fd5b8235614de981614db6565b946020939093013593505050565b634e487b7160e01b600052602160045260246000fd5b600081518084526020808501945080840160005b83811015614e4b5781518051885283015160ff168388015260409096019590820190600101614e21565b509495945050505050565b600061010060018060a01b0383511684526020830151602085015260408301516040850152606083015115156060850152608083015160038110614eaa57634e487b7160e01b600052602160045260246000fd5b8060808601525060a0830151614ecb60a08601826001600160401b03169052565b5060c0830151614ee660c08601826001600160401b03169052565b5060e08301518160e086015261320282860182614e0d565b602081526000611fc36020830184614e56565b602080825282518282018190526000919060409081850190868401855b82811015614f5c57815180516001600160a01b03168552860151868501529284019290850190600101614f2e565b5091979650505050505050565b600080600060608486031215614f7e57600080fd5b83359250602084013591506040840135614f9781614db6565b809150509250925092565b60008060008060808587031215614fb857600080fd5b5050823594602084013594506040840135936060013592509050565b60008060408385031215614fe757600080fd5b823591506020830135614ff981614db6565b809150509250929050565b634e487b7160e01b600052604160045260246000fd5b60006001600160401b038084111561503457615034615004565b604051601f8501601f19908116603f0116810190828211818310171561505c5761505c615004565b8160405280935085815286868601111561507557600080fd5b858560208301376000602087830101525050509392505050565b600082601f8301126150a057600080fd5b611fc38383356020850161501a565b600080604083850312156150c257600080fd5b8235915060208301356001600160401b038111156150df57600080fd5b6150eb8582860161508f565b9150509250929050565b60008060006060848603121561510a57600080fd5b833561511581614db6565b9250602084013561512581614db6565b929592945050506040919091013590565b60008083601f84011261514857600080fd5b5081356001600160401b0381111561515f57600080fd5b6020830191508360208260051b850101111561517a57600080fd5b9250929050565b600060408284031215612c1257600080fd5b60008060008060008060008060006101008a8c0312156151b257600080fd5b8935985060208a0135975060408a01356001600160401b03808211156151d757600080fd5b6151e38d838e0161508f565b985060608c0135975060808c013591508082111561520057600080fd5b61520c8d838e01615136565b909750955060a08c013591508082111561522557600080fd5b506152328c828d01615136565b909450925061524690508b60c08c01615181565b90509295985092959850929598565b6000602080830181845280855180835260408601915060408160051b870101925083870160005b828110156152aa57603f19888603018452615298858351614e56565b9450928501929085019060010161527c565b5092979650505050505050565b600080604083850312156152ca57600080fd5b50508035926020909101359150565b6000602082840312156152eb57600080fd5b8135611fc381614db6565b60008083601f84011261530857600080fd5b5081356001600160401b0381111561531f57600080fd5b60208301915083602082850101111561517a57600080fd5b6000806000806000806000806000806000806101408d8f03121561535a57600080fd5b8c359b506001600160401b0360208e0135111561537657600080fd5b6153868e60208f01358f016152f6565b909b50995060408d0135985060608d0135975060808d0135965060a08d013595506001600160401b0360c08e013511156153bf57600080fd5b6153cf8e60c08f01358f01615136565b90955093506001600160401b0360e08e013511156153ec57600080fd5b6153fc8e60e08f01358f01615136565b909350915061540f8e6101008f01615181565b90509295989b509295989b509295989b565b6000806040838503121561543457600080fd5b823561543f81614db6565b9150614d3160208401614cf9565b60008060006060848603121561546257600080fd5b833592506020840135915061547960408501614cf9565b90509250925092565b600081518084526020808501945080840160005b83811015614e4b57815187529582019590820190600101615496565b60006020808301818452808551808352604092508286019150828160051b87010184880160005b838110156155e357603f1989840301855281516101c08151855288820151818a87015261550882870182614d5e565b91505087820151858203898701526155208282615482565b606084810151908801526080808501519088015260a0808501519088015260c0808501519088015260e08085015190880152610100808501519088015261012080850151888303828a0152919350915061557a8382615482565b9250505061014080830151868303828801526155968382615482565b92505050610160808301516155b78288018280518252602090810151910152565b505061018082015191506155d06101a086018315159052565b95880195935050908601906001016154d9565b509098975050505050505050565b80356001600160401b0381168114614d0957600080fd5b6000806000806080858703121561561e57600080fd5b8435935061562e602086016155f1565b925061563c604086016155f1565b915060608501356001600160401b0381111561565757600080fd5b6156638782880161508f565b91505092959194509250565b602081526000611fc36020830184615482565b6000806000806080858703121561569857600080fd5b84356156a381614db6565b935060208501356156b381614db6565b92506040850135915060608501356001600160401b038111156156d557600080fd5b8501601f810187136156e657600080fd5b6156638782356020840161501a565b60008060006060848603121561570a57600080fd5b505081359360208301359350604090920135919050565b6000806040838503121561573457600080fd5b82359150614d31602084016155f1565b6000806040838503121561575757600080fd5b823561576281614db6565b91506020830135614ff981614db6565b600181811c9082168061578657607f821691505b602082108103612c1257634e487b7160e01b600052602260045260246000fd5b6020808252602e908201527f4552433732313a2063616c6c6572206973206e6f7420746f6b656e206f776e6560408201526d1c881b9bdc88185c1c1c9bdd995960921b606082015260800190565b601f82111561089557600081815260208120601f850160051c8101602086101561581b5750805b601f850160051c820191505b81811015612e1f57828155600101615827565b600019600383901b1c191660019190911b1790565b81516001600160401b0381111561586857615868615004565b61587c816158768454615772565b846157f4565b602080601f8311600181146158ab57600084156158995750858301515b6158a3858261583a565b865550612e1f565b600085815260208120601f198616915b828110156158da578886015182559484019460019091019084016158bb565b50858210156158f85787850151600019600388901b60f8161c191681555b5050505050600190811b01905550565b634e487b7160e01b600052601160045260246000fd5b60006001820161593057615930615908565b5060010190565b634e487b7160e01b600052603260045260246000fd5b8181038181111561140a5761140a615908565b634e487b7160e01b600052603160045260246000fd5b8082018082111561140a5761140a615908565b6000825161599b818460208701614d3a565b9190910192915050565b600080604083850312156159b857600080fd5b82516159c381614db6565b6020939093015192949293505050565b602080825260189082015277115490cdcc8c4e881a5b9d985b1a59081d1bdad95b88125160421b604082015260600190565b6001600160401b03831115615a1c57615a1c615004565b615a3083615a2a8354615772565b836157f4565b6000601f841160018114615a5e5760008515615a4c5750838201355b615a56868261583a565b845550611c80565b600083815260209020601f19861690835b82811015615a8f5786850135825560209485019460019092019101615a6f565b5086821015615aac5760001960f88860031b161c19848701351681555b505060018560011b0183555050505050565b84815283602082015260606040820152816060820152818360808301376000818301608090810191909152601f909201601f191601019392505050565b828152604060208201526000610ada6040830184614d5e565b60008351615b26818460208801614d3a565b835190830190615b3a818360208801614d3a565b01949350505050565b9283526020830191909152604082015260600190565b6001600160401b03818116838216019080821115615b7957615b79615908565b5092915050565b602080825260189082015277115490cd4c0c0dce88125b9d985b1a59081d1bdad95b925960421b604082015260600190565b60208082526032908201527f4552433732313a207472616e7366657220746f206e6f6e20455243373231526560408201527131b2b4bb32b91034b6b83632b6b2b73a32b960711b606082015260800190565b634e487b7160e01b600052601260045260246000fd5b600082615c2957615c29615c04565b500490565b600082615c3d57615c3d615c04565b500690565b7402937b632a1b7b73a3937b61d1030b1b1b7bab73a1605d1b815260008451615c72816015850160208901614d3a565b7001034b99036b4b9b9b4b733903937b6329607d1b6015918401918201528451615ca3816026840160208901614d3a565b720103337b91032bb32b73a103bb4ba341034b21606d1b602692909101918201528351615cd7816039840160208801614d3a565b0160390195945050505050565b6001600160a01b0385811682528416602082015260408101839052608060608201819052600090615d1790830184614d5e565b9695505050505050565b600060208284031215615d3357600080fd5b8151611fc381614cc6565b808202811582820484141761140a5761140a615908565b600081615d6457615d64615908565b50600019019056fe4576656e743a2043616c6c6572206973206e6f7420616e2061646d696e206f72206d6f64657261746f724576656e743a20546869732063617465676f727920697320666f7220616e6f74686572206576656e744576656e743a2043617465676f727920656e64206461746520697320696e636f72726563744576656e743a2043617465676f7279207374617274206461746520697320696e636f72726563744576656e743a204576656e7420646f6573206e6f7420657869737400000000004576656e743a2043617465676f727920646f6573206e6f7420657869737400004576656e743a20446973636f756e7420706172616d6574657273206c656e677468206e6f74206571ff3317e1e0e8c784290b957ee9b65ea8fe96420c4819db463283b95ecbe4a3fe4576656e743a2043616c6c6572206973206e6f7420616e2061646d696e00000071f3d55856e4058ed06ee057d79ada615f65cdf5f9ee88181b914225088f834fddf252ad1be2c89b69c2b068fc378daa952ba7f163c4a11628f55a4df523b3ef4576656e743a2043616e2774206465637265617365207469636b65747320636f756e742062656c6f77207a65726f4576656e743a2054686572652061726520736f6c64207469636b6574730000004576656e743a205469636b65747320616d6f756e742063616e2774206265206c657373207468616e20736f6c64207469636b657473a2646970667358221220a8a28b69a6352d230eadf23d8f445171698da9c2720699c2efdb7b1934570bf164736f6c63430008110033",
  "linkReferences": {},
  "deployedLinkReferences": {}
}