{
  "_format": "hh-sol-artifact-1",
  "contractName": "EventFacet",
  "sourceName": "contracts/EventDiamond/facets/EventFacet.sol",
  "abi": [
    {
      "anonymous": false,
      "inputs": [
        {
          "indexed": false,
          "internalType": "uint256",
          "name": "eventId",
          "type": "uint256"
        },
        {
          "indexed": false,
          "internalType": "bool",
          "name": "value",
          "type": "bool"
        }
      ],
      "name": "AllCategorySellChanged",
      "type": "event"
    },
    {
      "anonymous": false,
      "inputs": [
        {
          "indexed": true,
          "internalType": "address",
          "name": "owner",
          "type": "address"
        },
        {
          "indexed": true,
          "internalType": "address",
          "name": "approved",
          "type": "address"
        },
        {
          "indexed": true,
          "internalType": "uint256",
          "name": "tokenId",
          "type": "uint256"
        }
      ],
      "name": "Approval",
      "type": "event"
    },
    {
      "anonymous": false,
      "inputs": [
        {
          "indexed": true,
          "internalType": "address",
          "name": "owner",
          "type": "address"
        },
        {
          "indexed": true,
          "internalType": "address",
          "name": "operator",
          "type": "address"
        },
        {
          "indexed": false,
          "internalType": "bool",
          "name": "approved",
          "type": "bool"
        }
      ],
      "name": "ApprovalForAll",
      "type": "event"
    },
    {
      "anonymous": false,
      "inputs": [
        {
          "indexed": false,
          "internalType": "uint256",
          "name": "_fromTokenId",
          "type": "uint256"
        },
        {
          "indexed": false,
          "internalType": "uint256",
          "name": "_toTokenId",
          "type": "uint256"
        }
      ],
      "name": "BatchMetadataUpdate",
      "type": "event"
    },
    {
      "anonymous": false,
      "inputs": [
        {
          "indexed": false,
          "internalType": "uint256",
          "name": "eventId",
          "type": "uint256"
        },
        {
          "indexed": false,
          "internalType": "uint256",
          "name": "categoryId",
          "type": "uint256"
        },
        {
          "indexed": false,
          "internalType": "string",
          "name": "categoryCid",
          "type": "string"
        }
      ],
      "name": "CategoryCreated",
      "type": "event"
    },
    {
      "anonymous": false,
      "inputs": [
        {
          "indexed": false,
          "internalType": "uint256",
          "name": "eventId",
          "type": "uint256"
        },
        {
          "indexed": false,
          "internalType": "uint256",
          "name": "categoryId",
          "type": "uint256"
        }
      ],
      "name": "CategoryDeleted",
      "type": "event"
    },
    {
      "anonymous": false,
      "inputs": [
        {
          "indexed": false,
          "internalType": "uint256",
          "name": "eventId",
          "type": "uint256"
        },
        {
          "indexed": false,
          "internalType": "uint256",
          "name": "categoryId",
          "type": "uint256"
        },
        {
          "indexed": false,
          "internalType": "address",
          "name": "staffMember",
          "type": "address"
        }
      ],
      "name": "CategorySaleDatesUpdated",
      "type": "event"
    },
    {
      "anonymous": false,
      "inputs": [
        {
          "indexed": false,
          "internalType": "uint256",
          "name": "eventId",
          "type": "uint256"
        },
        {
          "indexed": false,
          "internalType": "uint256",
          "name": "categoryId",
          "type": "uint256"
        },
        {
          "indexed": false,
          "internalType": "bool",
          "name": "value",
          "type": "bool"
        }
      ],
      "name": "CategorySellChanged",
      "type": "event"
    },
    {
      "anonymous": false,
      "inputs": [
        {
          "indexed": false,
          "internalType": "uint256",
          "name": "eventId",
          "type": "uint256"
        },
        {
          "indexed": false,
          "internalType": "uint256",
          "name": "categoryId",
          "type": "uint256"
        },
        {
          "indexed": false,
          "internalType": "uint256",
          "name": "ticketsCount",
          "type": "uint256"
        }
      ],
      "name": "CategoryTicketsAdded",
      "type": "event"
    },
    {
      "anonymous": false,
      "inputs": [
        {
          "indexed": false,
          "internalType": "uint256",
          "name": "eventId",
          "type": "uint256"
        },
        {
          "indexed": false,
          "internalType": "uint256",
          "name": "categoryId",
          "type": "uint256"
        },
        {
          "indexed": false,
          "internalType": "uint256",
          "name": "ticketsCount",
          "type": "uint256"
        }
      ],
      "name": "CategoryTicketsRemoved",
      "type": "event"
    },
    {
      "anonymous": false,
      "inputs": [
        {
          "indexed": false,
          "internalType": "uint256",
          "name": "eventId",
          "type": "uint256"
        },
        {
          "indexed": false,
          "internalType": "uint256",
          "name": "categoryId",
          "type": "uint256"
        }
      ],
      "name": "CategoryUpdated",
      "type": "event"
    },
    {
      "anonymous": false,
      "inputs": [
        {
          "indexed": false,
          "internalType": "uint256",
          "name": "eventId",
          "type": "uint256"
        },
        {
          "indexed": false,
          "internalType": "address",
          "name": "account",
          "type": "address"
        },
        {
          "indexed": false,
          "internalType": "address",
          "name": "setter",
          "type": "address"
        }
      ],
      "name": "EventCashierSet",
      "type": "event"
    },
    {
      "anonymous": false,
      "inputs": [
        {
          "indexed": false,
          "internalType": "uint256",
          "name": "eventId",
          "type": "uint256"
        },
        {
          "indexed": false,
          "internalType": "string",
          "name": "metadataUri",
          "type": "string"
        }
      ],
      "name": "EventCreated",
      "type": "event"
    },
    {
      "anonymous": false,
      "inputs": [
        {
          "indexed": false,
          "internalType": "uint256",
          "name": "eventId",
          "type": "uint256"
        },
        {
          "indexed": false,
          "internalType": "uint256",
          "name": "time",
          "type": "uint256"
        }
      ],
      "name": "EventPostponed",
      "type": "event"
    },
    {
      "anonymous": false,
      "inputs": [
        {
          "indexed": false,
          "internalType": "uint256",
          "name": "_tokenId",
          "type": "uint256"
        }
      ],
      "name": "MetadataUpdate",
      "type": "event"
    },
    {
      "anonymous": false,
      "inputs": [
        {
          "indexed": false,
          "internalType": "uint256",
          "name": "eventId",
          "type": "uint256"
        },
        {
          "indexed": true,
          "internalType": "bytes32",
          "name": "role",
          "type": "bytes32"
        },
        {
          "indexed": true,
          "internalType": "bytes32",
          "name": "previousAdminRole",
          "type": "bytes32"
        },
        {
          "indexed": true,
          "internalType": "bytes32",
          "name": "newAdminRole",
          "type": "bytes32"
        }
      ],
      "name": "RoleAdminChanged",
      "type": "event"
    },
    {
      "anonymous": false,
      "inputs": [
        {
          "indexed": false,
          "internalType": "uint256",
          "name": "eventId",
          "type": "uint256"
        },
        {
          "indexed": true,
          "internalType": "bytes32",
          "name": "role",
          "type": "bytes32"
        },
        {
          "indexed": true,
          "internalType": "address",
          "name": "account",
          "type": "address"
        },
        {
          "indexed": true,
          "internalType": "address",
          "name": "sender",
          "type": "address"
        }
      ],
      "name": "RoleGranted",
      "type": "event"
    },
    {
      "anonymous": false,
      "inputs": [
        {
          "indexed": false,
          "internalType": "uint256",
          "name": "eventId",
          "type": "uint256"
        },
        {
          "indexed": true,
          "internalType": "bytes32",
          "name": "role",
          "type": "bytes32"
        },
        {
          "indexed": true,
          "internalType": "address",
          "name": "account",
          "type": "address"
        },
        {
          "indexed": true,
          "internalType": "address",
          "name": "sender",
          "type": "address"
        }
      ],
      "name": "RoleRevoked",
      "type": "event"
    },
    {
      "anonymous": false,
      "inputs": [
        {
          "indexed": true,
          "internalType": "address",
          "name": "from",
          "type": "address"
        },
        {
          "indexed": true,
          "internalType": "address",
          "name": "to",
          "type": "address"
        },
        {
          "indexed": true,
          "internalType": "uint256",
          "name": "tokenId",
          "type": "uint256"
        }
      ],
      "name": "Transfer",
      "type": "event"
    },
    {
      "inputs": [
        {
          "internalType": "uint256",
          "name": "_eventId",
          "type": "uint256"
        },
        {
          "internalType": "uint256",
          "name": "_categoryId",
          "type": "uint256"
        },
        {
          "internalType": "uint256",
          "name": "_ticketsCount",
          "type": "uint256"
        }
      ],
      "name": "addCategoryTicketsCount",
      "outputs": [],
      "stateMutability": "nonpayable",
      "type": "function"
    },
    {
      "inputs": [
        {
          "internalType": "uint256",
          "name": "_eventId",
          "type": "uint256"
        },
        {
          "internalType": "bytes32",
          "name": "_role",
          "type": "bytes32"
        },
        {
          "internalType": "address",
          "name": "_account",
          "type": "address"
        }
      ],
      "name": "addTeamMember",
      "outputs": [],
      "stateMutability": "nonpayable",
      "type": "function"
    },
    {
      "inputs": [
        {
          "internalType": "address",
          "name": "to",
          "type": "address"
        },
        {
          "internalType": "uint256",
          "name": "tokenId",
          "type": "uint256"
        }
      ],
      "name": "approve",
      "outputs": [],
      "stateMutability": "nonpayable",
      "type": "function"
    },
    {
      "inputs": [
        {
          "internalType": "address",
          "name": "owner",
          "type": "address"
        }
      ],
      "name": "balanceOf",
      "outputs": [
        {
          "internalType": "uint256",
          "name": "",
          "type": "uint256"
        }
      ],
      "stateMutability": "view",
      "type": "function"
    },
    {
      "inputs": [
        {
          "internalType": "uint256",
          "name": "_maxTicketsPerClient",
          "type": "uint256"
        },
        {
          "internalType": "uint64",
          "name": "_startDate",
          "type": "uint64"
        },
        {
          "internalType": "uint64",
          "name": "_endDate",
          "type": "uint64"
        },
        {
          "internalType": "string",
          "name": "_metadataURI",
          "type": "string"
        }
      ],
      "name": "createEvent",
      "outputs": [],
      "stateMutability": "nonpayable",
      "type": "function"
    },
    {
      "inputs": [
        {
          "internalType": "uint256",
          "name": "_eventId",
          "type": "uint256"
        },
        {
          "internalType": "string",
          "name": "_categoryCid",
          "type": "string"
        },
        {
          "internalType": "uint256",
          "name": "_saleStartDate",
          "type": "uint256"
        },
        {
          "internalType": "uint256",
          "name": "_saleEndDate",
          "type": "uint256"
        },
        {
          "internalType": "uint256",
          "name": "_ticketsCount",
          "type": "uint256"
        },
        {
          "internalType": "uint256",
          "name": "_ticketPrice",
          "type": "uint256"
        },
        {
          "internalType": "uint256[]",
          "name": "_discountsTicketsCount",
          "type": "uint256[]"
        },
        {
          "internalType": "uint256[]",
          "name": "_discountsPercentage",
          "type": "uint256[]"
        },
        {
          "components": [
            {
              "internalType": "uint256",
              "name": "price",
              "type": "uint256"
            },
            {
              "internalType": "uint256",
              "name": "finalAmountDate",
              "type": "uint256"
            }
          ],
          "internalType": "struct DownPayment",
          "name": "_downPayment",
          "type": "tuple"
        }
      ],
      "name": "createTicketCategory",
      "outputs": [],
      "stateMutability": "nonpayable",
      "type": "function"
    },
    {
      "inputs": [
        {
          "internalType": "uint256",
          "name": "tokenId",
          "type": "uint256"
        }
      ],
      "name": "endTime",
      "outputs": [
        {
          "internalType": "uint64",
          "name": "",
          "type": "uint64"
        }
      ],
      "stateMutability": "view",
      "type": "function"
    },
    {
      "inputs": [],
      "name": "fetchAllEventIds",
      "outputs": [
        {
          "internalType": "uint256[]",
          "name": "",
          "type": "uint256[]"
        }
      ],
      "stateMutability": "view",
      "type": "function"
    },
    {
      "inputs": [],
      "name": "fetchAllEvents",
      "outputs": [
        {
          "components": [
            {
              "internalType": "address",
              "name": "organizer",
              "type": "address"
            },
            {
              "internalType": "uint256",
              "name": "maxTicketsPerClient",
              "type": "uint256"
            },
            {
              "internalType": "uint256",
              "name": "balance",
              "type": "uint256"
            },
            {
              "internalType": "bool",
              "name": "areAllCategoryTicketsBuyable",
              "type": "bool"
            },
            {
              "internalType": "uint64",
              "name": "startTime",
              "type": "uint64"
            },
            {
              "internalType": "uint64",
              "name": "endTime",
              "type": "uint64"
            },
            {
              "components": [
                {
                  "internalType": "uint256",
                  "name": "date",
                  "type": "uint256"
                },
                {
                  "internalType": "uint8",
                  "name": "percentage",
                  "type": "uint8"
                }
              ],
              "internalType": "struct RefundData[]",
              "name": "refundData",
              "type": "tuple[]"
            }
          ],
          "internalType": "struct Event[]",
          "name": "",
          "type": "tuple[]"
        }
      ],
      "stateMutability": "view",
      "type": "function"
    },
    {
      "inputs": [
        {
          "internalType": "uint256",
          "name": "_eventId",
          "type": "uint256"
        }
      ],
      "name": "fetchCategoriesByEventId",
      "outputs": [
        {
          "components": [
            {
              "internalType": "uint256",
              "name": "id",
              "type": "uint256"
            },
            {
              "internalType": "string",
              "name": "cid",
              "type": "string"
            },
            {
              "internalType": "uint256[]",
              "name": "ticketIds",
              "type": "uint256[]"
            },
            {
              "internalType": "uint256",
              "name": "ticketPrice",
              "type": "uint256"
            },
            {
              "internalType": "uint256",
              "name": "ticketsCount",
              "type": "uint256"
            },
            {
              "internalType": "uint256",
              "name": "saleStartDate",
              "type": "uint256"
            },
            {
              "internalType": "uint256",
              "name": "saleEndDate",
              "type": "uint256"
            },
            {
              "internalType": "uint256",
              "name": "eventId",
              "type": "uint256"
            },
            {
              "internalType": "uint256[]",
              "name": "discountsTicketsCount",
              "type": "uint256[]"
            },
            {
              "internalType": "uint256[]",
              "name": "discountsPercentage",
              "type": "uint256[]"
            },
            {
              "components": [
                {
                  "internalType": "uint256",
                  "name": "price",
                  "type": "uint256"
                },
                {
                  "internalType": "uint256",
                  "name": "finalAmountDate",
                  "type": "uint256"
                }
              ],
              "internalType": "struct DownPayment",
              "name": "downPayment",
              "type": "tuple"
            },
            {
              "internalType": "bool",
              "name": "areTicketsBuyable",
              "type": "bool"
            }
          ],
          "internalType": "struct Category[]",
          "name": "",
          "type": "tuple[]"
        }
      ],
      "stateMutability": "view",
      "type": "function"
    },
    {
      "inputs": [
        {
          "internalType": "uint256",
          "name": "_eventId",
          "type": "uint256"
        }
      ],
      "name": "fetchEventById",
      "outputs": [
        {
          "components": [
            {
              "internalType": "address",
              "name": "organizer",
              "type": "address"
            },
            {
              "internalType": "uint256",
              "name": "maxTicketsPerClient",
              "type": "uint256"
            },
            {
              "internalType": "uint256",
              "name": "balance",
              "type": "uint256"
            },
            {
              "internalType": "bool",
              "name": "areAllCategoryTicketsBuyable",
              "type": "bool"
            },
            {
              "internalType": "uint64",
              "name": "startTime",
              "type": "uint64"
            },
            {
              "internalType": "uint64",
              "name": "endTime",
              "type": "uint64"
            },
            {
              "components": [
                {
                  "internalType": "uint256",
                  "name": "date",
                  "type": "uint256"
                },
                {
                  "internalType": "uint8",
                  "name": "percentage",
                  "type": "uint8"
                }
              ],
              "internalType": "struct RefundData[]",
              "name": "refundData",
              "type": "tuple[]"
            }
          ],
          "internalType": "struct Event",
          "name": "eventObj",
          "type": "tuple"
        }
      ],
      "stateMutability": "view",
      "type": "function"
    },
    {
      "inputs": [],
      "name": "fetchOwnedEvents",
      "outputs": [
        {
          "internalType": "uint256[]",
          "name": "",
          "type": "uint256[]"
        }
      ],
      "stateMutability": "view",
      "type": "function"
    },
    {
      "inputs": [
        {
          "internalType": "uint256",
          "name": "tokenId",
          "type": "uint256"
        }
      ],
      "name": "getApproved",
      "outputs": [
        {
          "internalType": "address",
          "name": "",
          "type": "address"
        }
      ],
      "stateMutability": "view",
      "type": "function"
    },
    {
      "inputs": [
        {
          "internalType": "uint256",
          "name": "eventId",
          "type": "uint256"
        }
      ],
      "name": "getEventMembers",
      "outputs": [
        {
          "components": [
            {
              "internalType": "address",
              "name": "account",
              "type": "address"
            },
            {
              "internalType": "bytes32",
              "name": "role",
              "type": "bytes32"
            }
          ],
          "internalType": "struct MemberData[]",
          "name": "",
          "type": "tuple[]"
        }
      ],
      "stateMutability": "view",
      "type": "function"
    },
    {
      "inputs": [
        {
          "internalType": "uint256",
          "name": "eventId",
          "type": "uint256"
        },
        {
          "internalType": "bytes32",
          "name": "role",
          "type": "bytes32"
        }
      ],
      "name": "getRoleAdmin",
      "outputs": [
        {
          "internalType": "bytes32",
          "name": "",
          "type": "bytes32"
        }
      ],
      "stateMutability": "view",
      "type": "function"
    },
    {
      "inputs": [
        {
          "internalType": "uint256",
          "name": "eventId",
          "type": "uint256"
        },
        {
          "internalType": "bytes32",
          "name": "role",
          "type": "bytes32"
        },
        {
          "internalType": "address",
          "name": "account",
          "type": "address"
        }
      ],
      "name": "grantRole",
      "outputs": [],
      "stateMutability": "nonpayable",
      "type": "function"
    },
    {
      "inputs": [
        {
          "internalType": "uint256",
          "name": "eventId",
          "type": "uint256"
        },
        {
          "internalType": "bytes32",
          "name": "role",
          "type": "bytes32"
        },
        {
          "internalType": "address",
          "name": "account",
          "type": "address"
        }
      ],
      "name": "hasRole",
      "outputs": [
        {
          "internalType": "bool",
          "name": "",
          "type": "bool"
        }
      ],
      "stateMutability": "view",
      "type": "function"
    },
    {
      "inputs": [
        {
          "internalType": "address",
          "name": "owner",
          "type": "address"
        },
        {
          "internalType": "address",
          "name": "operator",
          "type": "address"
        }
      ],
      "name": "isApprovedForAll",
      "outputs": [
        {
          "internalType": "bool",
          "name": "",
          "type": "bool"
        }
      ],
      "stateMutability": "view",
      "type": "function"
    },
    {
      "inputs": [
        {
          "internalType": "uint256",
          "name": "_eventId",
          "type": "uint256"
        },
        {
          "internalType": "bool",
          "name": "_value",
          "type": "bool"
        }
      ],
      "name": "manageAllCategorySelling",
      "outputs": [],
      "stateMutability": "nonpayable",
      "type": "function"
    },
    {
      "inputs": [
        {
          "internalType": "uint256",
          "name": "_eventId",
          "type": "uint256"
        },
        {
          "internalType": "uint256",
          "name": "_categoryId",
          "type": "uint256"
        },
        {
          "internalType": "bool",
          "name": "_value",
          "type": "bool"
        }
      ],
      "name": "manageCategorySelling",
      "outputs": [],
      "stateMutability": "nonpayable",
      "type": "function"
    },
    {
      "inputs": [],
      "name": "name",
      "outputs": [
        {
          "internalType": "string",
          "name": "",
          "type": "string"
        }
      ],
      "stateMutability": "view",
      "type": "function"
    },
    {
      "inputs": [
        {
          "internalType": "uint256",
          "name": "tokenId",
          "type": "uint256"
        }
      ],
      "name": "ownerOf",
      "outputs": [
        {
          "internalType": "address",
          "name": "",
          "type": "address"
        }
      ],
      "stateMutability": "view",
      "type": "function"
    },
    {
      "inputs": [
        {
          "internalType": "uint256",
          "name": "_eventId",
          "type": "uint256"
        },
        {
          "internalType": "uint64",
          "name": "_time",
          "type": "uint64"
        }
      ],
      "name": "postponeEvent",
      "outputs": [],
      "stateMutability": "nonpayable",
      "type": "function"
    },
    {
      "inputs": [
        {
          "internalType": "uint256",
          "name": "_eventId",
          "type": "uint256"
        },
        {
          "internalType": "uint256",
          "name": "_categoryId",
          "type": "uint256"
        }
      ],
      "name": "removeCategory",
      "outputs": [],
      "stateMutability": "nonpayable",
      "type": "function"
    },
    {
      "inputs": [
        {
          "internalType": "uint256",
          "name": "_eventId",
          "type": "uint256"
        },
        {
          "internalType": "uint256",
          "name": "_categoryId",
          "type": "uint256"
        },
        {
          "internalType": "uint256",
          "name": "_ticketsCount",
          "type": "uint256"
        }
      ],
      "name": "removeCategoryTicketsCount",
      "outputs": [],
      "stateMutability": "nonpayable",
      "type": "function"
    },
    {
      "inputs": [
        {
          "internalType": "uint256",
          "name": "_eventId",
          "type": "uint256"
        }
      ],
      "name": "removeEvent",
      "outputs": [],
      "stateMutability": "nonpayable",
      "type": "function"
    },
    {
      "inputs": [
        {
          "internalType": "uint256",
          "name": "_eventId",
          "type": "uint256"
        },
        {
          "internalType": "bytes32",
          "name": "_role",
          "type": "bytes32"
        },
        {
          "internalType": "address",
          "name": "_account",
          "type": "address"
        }
      ],
      "name": "removeTeamMember",
      "outputs": [],
      "stateMutability": "nonpayable",
      "type": "function"
    },
    {
      "inputs": [
        {
          "internalType": "uint256",
          "name": "eventId",
          "type": "uint256"
        },
        {
          "internalType": "bytes32",
          "name": "role",
          "type": "bytes32"
        },
        {
          "internalType": "address",
          "name": "account",
          "type": "address"
        }
      ],
      "name": "renounceRole",
      "outputs": [],
      "stateMutability": "nonpayable",
      "type": "function"
    },
    {
      "inputs": [
        {
          "internalType": "uint256",
          "name": "eventId",
          "type": "uint256"
        },
        {
          "internalType": "bytes32",
          "name": "role",
          "type": "bytes32"
        },
        {
          "internalType": "address",
          "name": "account",
          "type": "address"
        }
      ],
      "name": "revokeRole",
      "outputs": [],
      "stateMutability": "nonpayable",
      "type": "function"
    },
    {
      "inputs": [
        {
          "internalType": "address",
          "name": "from",
          "type": "address"
        },
        {
          "internalType": "address",
          "name": "to",
          "type": "address"
        },
        {
          "internalType": "uint256",
          "name": "tokenId",
          "type": "uint256"
        }
      ],
      "name": "safeTransferFrom",
      "outputs": [],
      "stateMutability": "nonpayable",
      "type": "function"
    },
    {
      "inputs": [
        {
          "internalType": "address",
          "name": "from",
          "type": "address"
        },
        {
          "internalType": "address",
          "name": "to",
          "type": "address"
        },
        {
          "internalType": "uint256",
          "name": "tokenId",
          "type": "uint256"
        },
        {
          "internalType": "bytes",
          "name": "data",
          "type": "bytes"
        }
      ],
      "name": "safeTransferFrom",
      "outputs": [],
      "stateMutability": "nonpayable",
      "type": "function"
    },
    {
      "inputs": [
        {
          "internalType": "address",
          "name": "operator",
          "type": "address"
        },
        {
          "internalType": "bool",
          "name": "approved",
          "type": "bool"
        }
      ],
      "name": "setApprovalForAll",
      "outputs": [],
      "stateMutability": "nonpayable",
      "type": "function"
    },
    {
      "inputs": [
        {
          "internalType": "uint256",
          "name": "_eventId",
          "type": "uint256"
        },
        {
          "internalType": "address",
          "name": "_account",
          "type": "address"
        }
      ],
      "name": "setEventCashier",
      "outputs": [],
      "stateMutability": "nonpayable",
      "type": "function"
    },
    {
      "inputs": [
        {
          "internalType": "uint256",
          "name": "tokenId",
          "type": "uint256"
        }
      ],
      "name": "startTime",
      "outputs": [
        {
          "internalType": "uint64",
          "name": "",
          "type": "uint64"
        }
      ],
      "stateMutability": "view",
      "type": "function"
    },
    {
      "inputs": [
        {
          "internalType": "bytes4",
          "name": "interfaceId",
          "type": "bytes4"
        }
      ],
      "name": "supportsInterface",
      "outputs": [
        {
          "internalType": "bool",
          "name": "",
          "type": "bool"
        }
      ],
      "stateMutability": "view",
      "type": "function"
    },
    {
      "inputs": [],
      "name": "symbol",
      "outputs": [
        {
          "internalType": "string",
          "name": "",
          "type": "string"
        }
      ],
      "stateMutability": "view",
      "type": "function"
    },
    {
      "inputs": [
        {
          "internalType": "uint256",
          "name": "tokenId",
          "type": "uint256"
        }
      ],
      "name": "tokenURI",
      "outputs": [
        {
          "internalType": "string",
          "name": "",
          "type": "string"
        }
      ],
      "stateMutability": "view",
      "type": "function"
    },
    {
      "inputs": [
        {
          "internalType": "address",
          "name": "from",
          "type": "address"
        },
        {
          "internalType": "address",
          "name": "to",
          "type": "address"
        },
        {
          "internalType": "uint256",
          "name": "tokenId",
          "type": "uint256"
        }
      ],
      "name": "transferFrom",
      "outputs": [],
      "stateMutability": "nonpayable",
      "type": "function"
    },
    {
      "inputs": [
        {
          "internalType": "uint256",
          "name": "_eventId",
          "type": "uint256"
        },
        {
          "internalType": "uint256",
          "name": "_categoryId",
          "type": "uint256"
        },
        {
          "internalType": "string",
          "name": "_categoryCid",
          "type": "string"
        },
        {
          "internalType": "uint256",
          "name": "_ticketPrice",
          "type": "uint256"
        },
        {
          "internalType": "uint256[]",
          "name": "_discountsTicketsCount",
          "type": "uint256[]"
        },
        {
          "internalType": "uint256[]",
          "name": "_discountsPercentage",
          "type": "uint256[]"
        },
        {
          "components": [
            {
              "internalType": "uint256",
              "name": "price",
              "type": "uint256"
            },
            {
              "internalType": "uint256",
              "name": "finalAmountDate",
              "type": "uint256"
            }
          ],
          "internalType": "struct DownPayment",
          "name": "_downPayment",
          "type": "tuple"
        }
      ],
      "name": "updateCategory",
      "outputs": [],
      "stateMutability": "nonpayable",
      "type": "function"
    },
    {
      "inputs": [
        {
          "internalType": "uint256",
          "name": "_eventId",
          "type": "uint256"
        },
        {
          "internalType": "uint256",
          "name": "_categoryId",
          "type": "uint256"
        },
        {
          "internalType": "uint256",
          "name": "_saleStartDate",
          "type": "uint256"
        },
        {
          "internalType": "uint256",
          "name": "_saleEndDate",
          "type": "uint256"
        }
      ],
      "name": "updateCategorySaleDates",
      "outputs": [],
      "stateMutability": "nonpayable",
      "type": "function"
    },
    {
      "inputs": [
        {
          "internalType": "uint256",
          "name": "_eventId",
          "type": "uint256"
        },
        {
          "internalType": "string",
          "name": "_newMetadataURI",
          "type": "string"
        }
      ],
      "name": "updateEventTokenUri",
      "outputs": [],
      "stateMutability": "nonpayable",
      "type": "function"
    }
  ],
  "bytecode": "0x608060405234801561001057600080fd5b5061598c80620000216000396000f3fe608060405234801561001057600080fd5b50600436106102535760003560e01c806356164e1e11610146578063a3cfe160116100c3578063d5533da011610087578063d5533da014610569578063dc91a98f1461057c578063e985e9c51461058f578063f354159b146105a2578063f99c2292146105b5578063fb42204d146105bd57600080fd5b8063a3cfe16014610508578063abae6af91461051b578063b015554414610530578063b88d4fde14610543578063c87b56dd1461055657600080fd5b8063959a1b581161010a578063959a1b58146104a757806395d89b41146104ba578063a22cb465146104c2578063a310d9bf146104d5578063a3bdc7c7146104e857600080fd5b806356164e1e146104485780636352211e1461045b5780636a4bc7de1461046e57806370a0823114610481578063724bdedf1461049457600080fd5b80632053d82c116101d45780633d378bb0116101985780633d378bb0146103d15780633ec4c968146103e457806342842e0e1461040f57806344c816fa146104225780634a120dd71461043557600080fd5b80632053d82c1461036257806323b872dd146103755780632761f33b146103885780633660ff831461039b578063397d4dbc146103b057600080fd5b80630d5172861161021b5780630d517286146102e95780630e1b943d14610309578063119345aa146103295780631c6f92711461033c5780631cdf29c71461034f57600080fd5b806301ffc9a7146102585780630309a5391461028157806306fdde0314610296578063081812fc146102ab578063095ea7b3146102d6575b600080fd5b61026c610266366004614829565b50600090565b60405190151581526020015b60405180910390f35b61029461028f36600461485b565b6105d0565b005b61029e6106f9565b60405161027891906148d7565b6102be6102b93660046148ea565b610790565b6040516001600160a01b039091168152602001610278565b6102946102e436600461491a565b6107b9565b6102fc6102f73660046148ea565b6108ce565b60405161027891906149f4565b61031c6103173660046148ea565b610a16565b6040516102789190614a07565b61026c610337366004614a5f565b610a95565b61029461034a366004614a94565b610acc565b61029461035d366004614ac6565b610c9f565b610294610370366004614b94565b610dae565b610294610383366004614bda565b610eaa565b610294610396366004614c73565b610edb565b6103a36111a4565b6040516102789190614d35565b6103c36103be366004614d97565b61139c565b604051908152602001610278565b6102946103df366004614d97565b6113c0565b6103f76103f23660046148ea565b6117aa565b6040516001600160401b039091168152602001610278565b61029461041d366004614bda565b6117b5565b6103f76104303660046148ea565b6117d0565b610294610443366004614a5f565b6117db565b6102946104563660046148ea565b611802565b6102be6104693660046148ea565b611b1b565b61029461047c366004614a5f565b611b84565b6103c361048f366004614db9565b611ca6565b6102946104a2366004614a5f565b611d32565b6102946104b5366004614e15565b611dab565b61029e6121ed565b6102946104d0366004614eff565b612200565b6102946104e3366004614f29565b61220f565b6104fb6104f63660046148ea565b6123dd565b6040516102789190614f90565b6102946105163660046150db565b61277a565b61052361295c565b6040516102789190615142565b61029461053e366004614a5f565b612aa7565b610294610551366004615155565b612bc7565b61029e6105643660046148ea565b612bf9565b6102946105773660046151c4565b612d40565b61029461058a3660046151f0565b612f12565b61026c61059d366004615213565b61337e565b6102946105b03660046151c4565b6133ac565b61052361363f565b6102946105cb366004614a5f565b613744565b600082815260026020908152604091829020548251808401909352601b835260008051602061580a833981519152918301919091528391906001600160a01b03166106375760405162461bcd60e51b815260040161062e91906148d7565b60405180910390fd5b5061064483600033610a95565b806106635750610663836000805160206158d483398151915233610a95565b6040518060600160405280602a815260200161576b602a91399061069a5760405162461bcd60e51b815260040161062e91906148d7565b50600083815260096020908152604091829020600301805460ff19168515159081179091558251868152918201527f578eeefe0b8083fcd939e8d547da4c0ba6b26ed213c13de65ab08a52f9f26a5291015b60405180910390a1505050565b6060600080600001805461070c9061523d565b80601f01602080910402602001604051908101604052809291908181526020018280546107389061523d565b80156107855780601f1061075a57610100808354040283529160200191610785565b820191906000526020600020905b81548152906001019060200180831161076857829003601f168201915b505050505091505090565b60008061079c83613764565b60009283526004016020525060409020546001600160a01b031690565b60006107c482611b1b565b9050806001600160a01b0316836001600160a01b0316036108315760405162461bcd60e51b815260206004820152602160248201527f4552433732313a20617070726f76616c20746f2063757272656e74206f776e656044820152603960f91b606482015260840161062e565b336001600160a01b038216148061084d575061084d813361337e565b6108bf5760405162461bcd60e51b815260206004820152603e60248201527f4552433732313a20617070726f76652063616c6c6572206973206e6f7420746f60448201527f6b656e206f776e6572206e6f7220617070726f76656420666f7220616c6c0000606482015260840161062e565b6108c983836137b7565b505050565b6108d6614608565b600082815260026020908152604091829020548251808401909352601b835260008051602061580a833981519152918301919091528391906001600160a01b03166109345760405162461bcd60e51b815260040161062e91906148d7565b506000838152600960209081526040808320815160e08101835281546001600160a01b03168152600182015481850152600282015481840152600382015460ff8116151560608301526001600160401b03610100820481166080840152600160481b9091041660a08201526004820180548451818702810187019095528085529195929460c0870194939192919084015b82821015610a0757600084815260209081902060408051808201909152600285029091018054825260019081015460ff168284015290835290920191016109c5565b50505091525090949350505050565b6000818152601360209081526040808320805482518185028101850190935280835260609493849084015b82821015610a89576000848152602090819020604080518082019091526002850290910180546001600160a01b03168252600190810154828401529083529092019101610a41565b50505050915050919050565b600083815260126020908152604080832085845282528083206001600160a01b038516845290915281205460ff165b949350505050565b600084815260026020908152604091829020548251808401909352601b835260008051602061580a833981519152918301919091528591906001600160a01b0316610b2a5760405162461bcd60e51b815260040161062e91906148d7565b506000848152600a6020908152604091829020548251808401909352601e835260008051602061582a83398151915291830191909152859190610b805760405162461bcd60e51b815260040161062e91906148d7565b508585816000600a01600083815260200190815260200160002060070154146040518060600160405280602981526020016157956029913990610bd65760405162461bcd60e51b815260040161062e91906148d7565b50610be388600033610a95565b80610c025750610c02886000805160206158d483398151915233610a95565b6040518060600160405280602a815260200161576b602a913990610c395760405162461bcd60e51b815260040161062e91906148d7565b506000878152600a60209081526040918290206005810189905560060187905581518a8152908101899052338183015290517f4192182acd964db32b1197a6483d5694cf6e678e7202565c44cc961078eb2c8f9181900360600190a15050505050505050565b600082815260026020908152604091829020548251808401909352601b835260008051602061580a833981519152918301919091528391906001600160a01b0316610cfd5760405162461bcd60e51b815260040161062e91906148d7565b50610d0a83600033610a95565b6040518060400160405280601d81526020016000805160206158b483398151915281525090610d4c5760405162461bcd60e51b815260040161062e91906148d7565b50610d668360008051602061587283398151915284613744565b604080518481526001600160a01b038416602082015233918101919091527f9f54db3c6775e8717da6972b09a7ed552d62f5fd63696a1a75e58f61bd240193906060016106ec565b600082815260026020908152604091829020548251808401909352601b835260008051602061580a833981519152918301919091528391906001600160a01b0316610e0c5760405162461bcd60e51b815260040161062e91906148d7565b50610e1983600033610a95565b80610e385750610e38836000805160206158d483398151915233610a95565b6040518060600160405280602a815260200161576b602a913990610e6f5760405162461bcd60e51b815260040161062e91906148d7565b50610e7a8383613826565b6040518381527ff8e1a15aba9398e019f0b49df1a4fde98ee17ae345cb5f6b5e2c27f5033e8ce7906020016106ec565b610eb433826138ae565b610ed05760405162461bcd60e51b815260040161062e90615271565b6108c983838361390c565b600089815260026020908152604091829020548251808401909352601b835260008051602061580a833981519152918301919091528a91906001600160a01b0316610f395760405162461bcd60e51b815260040161062e91906148d7565b506000898152600a6020908152604091829020548251808401909352601e835260008051602061582a833981519152918301919091528a9190610f8f5760405162461bcd60e51b815260040161062e91906148d7565b508a8a816000600a01600083815260200190815260200160002060070154146040518060600160405280602981526020016157956029913990610fe55760405162461bcd60e51b815260040161062e91906148d7565b50610ff28d600033610a95565b8061101157506110118d6000805160206158d483398151915233610a95565b6040518060600160405280602a815260200161576b602a9139906110485760405162461bcd60e51b815260040161062e91906148d7565b5060408051606081019091526028808252898814919061584a6020830139906110845760405162461bcd60e51b815260040161062e91906148d7565b50896000036110d25787158015611099575085155b60405180606001604052806028815260200161584a60289139906110d05760405162461bcd60e51b815260040161062e91906148d7565b505b60008c8152600a602052604090206001016110ed8c82615305565b5060008c8152600a60205260409020600381018b9055611111906008018a8a614662565b5060008c8152600a6020526040902061112e906009018888614662565b5060008c8152600a6020819052604090912086910161115a828281358155602082013560018201555050565b5050604080518e8152602081018e90527f44df894581249b9c6cda25b6fe8239320be1641adde53f17479b4153cadfcc60910160405180910390a150505050505050505050505050565b606060006111b160075490565b905060008060015b8381116111fd576000818152600960205260409020546001600160a01b0316156111eb57826111e7816153da565b9350505b806111f5816153da565b9150506111b9565b506000826001600160401b0381111561121857611218614ae9565b60405190808252806020026020018201604052801561125157816020015b61123e614608565b8152602001906001900390816112365790505b50905060015b848111611393576000818152600960205260409020546001600160a01b031615611381576000818152600960209081526040808320815160e08101835281546001600160a01b03168152600182015481850152600282015481840152600382015460ff8116151560608301526001600160401b03610100820481166080840152600160481b9091041660a08201526004820180548451818702810187019095528085529195929460c0870194939192919084015b8282101561134d57600084815260209081902060408051808201909152600285029091018054825260019081015460ff1682840152908352909201910161130b565b5050505081525050828481518110611367576113676153f3565b6020026020010181905250828061137d906153da565b9350505b8061138b816153da565b915050611257565b50949350505050565b60008281526012602090815260408083208484529091529020600101545b92915050565b600082815260026020908152604091829020548251808401909352601b835260008051602061580a833981519152918301919091528391906001600160a01b031661141e5760405162461bcd60e51b815260040161062e91906148d7565b506000828152600a6020908152604091829020548251808401909352601e835260008051602061582a833981519152918301919091528391906114745760405162461bcd60e51b815260040161062e91906148d7565b508383816000600a016000838152602001908152602001600020600701541460405180606001604052806029815260200161579560299139906114ca5760405162461bcd60e51b815260040161062e91906148d7565b506114d786600033610a95565b806114f657506114f6866000805160206158d483398151915233610a95565b6040518060600160405280602a815260200161576b602a91399061152d5760405162461bcd60e51b815260040161062e91906148d7565b506000858152600a6020908152604091829020600201548251808401909352601d83527f4576656e743a2054686572652061726520736f6c64207469636b65747300000091830191909152156115965760405162461bcd60e51b815260040161062e91906148d7565b506000858152600a60205260408120818155906115b660018301826146ad565b6115c46002830160006146e7565b600382016000905560048201600090556005820160009055600682016000905560078201600090556008820160006115fc91906146e7565b61160a6009830160006146e7565b506000600a8201819055600b808301829055600c909201805460ff1916905587815260209182526040808220805482518186028101860190935280835292939192909183018282801561167c57602002820191906000526020600020905b815481526020019060010190808311611668575b5050505050905060005b815181101561176657868282815181106116a2576116a26153f3565b602002602001015103611754576000888152600b6020526040902082516116cb90600190615409565b815481106116db576116db6153f3565b90600052602060002001546000600b0160008a8152602001908152602001600020828154811061170d5761170d6153f3565b6000918252602080832090910192909255898152600b909152604090208054806117395761173961541c565b60019003818190600052602060002001600090559055611766565b8061175e816153da565b915050611686565b5060408051888152602081018890527ff67e86d3ffc2c26729aac7f4e3e07e009ad076ace7cd9e9fc184fd452ac0cc8591015b60405180910390a150505050505050565b60006113ba82613ab0565b6108c983838360405180602001604052806000815250612bc7565b60006113ba82613b28565b826117e6848461139c565b6117f08282613ba2565b6117fb858585613bad565b5050505050565b600081815260026020908152604091829020548251808401909352601b835260008051602061580a833981519152918301919091528291906001600160a01b03166118605760405162461bcd60e51b815260040161062e91906148d7565b5061186d82600033610a95565b6040518060400160405280601d81526020016000805160206158b4833981519152815250906118af5760405162461bcd60e51b815260040161062e91906148d7565b506000828152600b602090815260408083208054825181850281018501909352808352919290919083018282801561190657602002820191906000526020600020905b8154815260200190600101908083116118f2575b505050505090506000805b8251811015611977576000600a016000848381518110611933576119336153f3565b60200260200101518152602001908152602001600020600201805490506000036119655781611961816153da565b9250505b8061196f816153da565b915050611911565b50808251146040518060400160405280601d81526020017f4576656e743a2054686572652061726520736f6c64207469636b657473000000815250906119d05760405162461bcd60e51b815260040161062e91906148d7565b506119da84613c77565b600084815260096020526040812080546001600160a01b0319168155600181018290556002810182905560038101805470ffffffffffffffffffffffffffffffffff1916905590611a2e6004830182614705565b50506000848152600b60205260408120611a47916146e7565b60005b82518110156117fb576000600a016000848381518110611a6c57611a6c6153f3565b60200260200101518152602001908152602001600020600080820160009055600182016000611a9b91906146ad565b611aa96002830160006146e7565b60038201600090556004820160009055600582016000905560068201600090556007820160009055600882016000611ae191906146e7565b611aef6009830160006146e7565b506000600a8201819055600b820155600c01805460ff1916905580611b13816153da565b915050611a4a565b60008181526002602052604081205481906001600160a01b031680611b7d5760405162461bcd60e51b8152602060048201526018602482015277115490cdcc8c4e881a5b9d985b1a59081d1bdad95b88125160421b604482015260640161062e565b9392505050565b600083815260026020908152604091829020548251808401909352601b835260008051602061580a833981519152918301919091528491906001600160a01b0316611be25760405162461bcd60e51b815260040161062e91906148d7565b50611bef84600033610a95565b6040518060400160405280601d81526020016000805160206158b483398151915281525090611c315760405162461bcd60e51b815260040161062e91906148d7565b5060408051808201909152601d81527f4576656e743a2043616e2774207365742063617368696572206865726500000060208201526000805160206158728339815191528403611c945760405162461bcd60e51b815260040161062e91906148d7565b50611ca0848484613744565b50505050565b6000806001600160a01b038316611d115760405162461bcd60e51b815260206004820152602960248201527f4552433732313a2061646472657373207a65726f206973206e6f7420612076616044820152683634b21037bbb732b960b91b606482015260840161062e565b6001600160a01b039092166000908152600390920160205250604090205490565b6001600160a01b0381163314611da05760405162461bcd60e51b815260206004820152602d60248201527f526f6c65436f6e74726f6c3a2063616e206f6e6c792072656e6f756e6365207260448201526c37b632b9903337b91039b2b63360991b606482015260840161062e565b6108c9838383613bad565b60008c815260026020908152604091829020548251808401909352601b835260008051602061580a833981519152918301919091528d91906001600160a01b0316611e095760405162461bcd60e51b815260040161062e91906148d7565b50611e168d600033610a95565b80611e355750611e358d6000805160206158d483398151915233610a95565b6040518060600160405280602a815260200161576b602a913990611e6c5760405162461bcd60e51b815260040161062e91906148d7565b5060408051606081019091526028808252868514919061584a602083013990611ea85760405162461bcd60e51b815260040161062e91906148d7565b5086600003611ef65784158015611ebd575082155b60405180606001604052806028815260200161584a6028913990611ef45760405162461bcd60e51b815260040161062e91906148d7565b505b611f04600880546001019055565b6000611f0f60085490565b6000818152600a60205260409020818155909150600101611f318d8f83615432565b506040805160008082526020808301808552858352600a9091529290209051611f609260029092019190614726565b506000818152600a60205260409020600481018a9055600781018f905560038101899055611f92906008018888614662565b506000818152600a60205260409020611faf906009018686614662565b506000818152600a60208190526040909120849101611fdb828281358155602082013560018201555050565b50508a158015611fe9575089155b1561201a576000818152600a60205260409020600581018c9055600681018b9055600c01805460ff19169055612163565b8a60000361203c576000818152600a60205260409020426005909101556120af565b60008e8152600960209081526040918290206003015482516060810190935260278084526101009091046001600160401b03168e101592916157e390830139906120995760405162461bcd60e51b815260040161062e91906148d7565b506000818152600a602052604090206005018b90555b896000036120d1576000818152600a6020526040902042600690910155612146565b60008e815260096020908152604091829020600301548251606081019093526025808452600160481b9091046001600160401b03168d111592916157be90830139906121305760405162461bcd60e51b815260040161062e91906148d7565b506000818152600a602052604090206006018a90555b6000818152600a60205260409020600c01805460ff191660011790555b6000600b0160008f81526020019081526020016000208190806001815401808255809150506001900390600052602060002001600090919091909150557f2a94cd6b8e4219d087c43453e983d276c11f9ba16e547f01adb19edb60ae3c7d8e828f8f6040516121d594939291906154f1565b60405180910390a15050505050505050505050505050565b6060600080600101805461070c9061523d565b61220b338383613d4e565b5050565b600083815260026020908152604091829020548251808401909352601b835260008051602061580a833981519152918301919091528491906001600160a01b031661226d5760405162461bcd60e51b815260040161062e91906148d7565b506000838152600a6020908152604091829020548251808401909352601e835260008051602061582a833981519152918301919091528491906122c35760405162461bcd60e51b815260040161062e91906148d7565b508484816000600a016000838152602001908152602001600020600701541460405180606001604052806029815260200161579560299139906123195760405162461bcd60e51b815260040161062e91906148d7565b5061232687600033610a95565b806123455750612345876000805160206158d483398151915233610a95565b6040518060600160405280602a815260200161576b602a91399061237c5760405162461bcd60e51b815260040161062e91906148d7565b506000868152600a6020908152604091829020600c01805460ff191688151590811790915582518a8152918201899052918101919091527f15fa4fe87d07b2a02e02cc0fac2981a3fd8653661340b9b26feae8ffefaade8a90606001611799565b600081815260026020908152604091829020548251808401909352601b835260008051602061580a8339815191529183019190915260609183916001600160a01b031661243d5760405162461bcd60e51b815260040161062e91906148d7565b506000838152600b602090815260408083208054825181850281018501909352808352919290919083018282801561249457602002820191906000526020600020905b815481526020019060010190808311612480575b50505050509050600081516001600160401b038111156124b6576124b6614ae9565b6040519080825280602002602001820160405280156124ef57816020015b6124dc614761565b8152602001906001900390816124d45790505b50905060005b825181101561276f576000600a016000848381518110612517576125176153f3565b6020026020010151815260200190815260200160002060405180610180016040529081600082015481526020016001820180546125539061523d565b80601f016020809104026020016040519081016040528092919081815260200182805461257f9061523d565b80156125cc5780601f106125a1576101008083540402835291602001916125cc565b820191906000526020600020905b8154815290600101906020018083116125af57829003601f168201915b505050505081526020016002820180548060200260200160405190810160405280929190818152602001828054801561262457602002820191906000526020600020905b815481526020019060010190808311612610575b505050505081526020016003820154815260200160048201548152602001600582015481526020016006820154815260200160078201548152602001600882018054806020026020016040519081016040528092919081815260200182805480156126ae57602002820191906000526020600020905b81548152602001906001019080831161269a575b505050505081526020016009820180548060200260200160405190810160405280929190818152602001828054801561270657602002820191906000526020600020905b8154815260200190600101908083116126f2575b5050509183525050604080518082018252600a8401548152600b840154602082810191909152830152600c9092015460ff1615159101528251839083908110612751576127516153f3565b60200260200101819052508080612767906153da565b9150506124f5565b509250505b50919050565b826001600160401b0316826001600160401b0316116040518060400160405280601881526020017f455243353030373a20496e76616c696420656e6454696d650000000000000000815250906127e35760405162461bcd60e51b815260040161062e91906148d7565b506127f2600780546001019055565b60006127fd60075490565b6000818152600960205260409081902080546001600160a01b0319163317815560018082018990556003820180546001600160401b03898116600160481b0267ffffffffffffffff60481b19918c166101000268ffffffffffffffffff1990931692909217909317929092169190911790559051919250907f9ce3d6db707bca4ba0eabed8fba1e2c013a1c0bc1132a764170a7854d198c73d906128a4908490869061552e565b60405180910390a16128b882600033613e21565b6128d1826000805160206158d483398151915233613e21565b6128fc827f21702c8af46127c7fa207f89d0b0a8441bb32959a0ac7df790e9ab1a25c9892633613e21565b612927827fb5a7f51d0593e853ad0aa6b718ee0bdd10c4966eb62d243b69d538e5823d040133613e21565b6129408260008051602061587283398151915233613e21565b61294a3383613f2d565b6129548284613826565b505050505050565b6060600061296960075490565b905060008060015b8381116129d85761298481600033610a95565b806129a357506129a3816000805160206158d483398151915233610a95565b80156129b357506129b381614067565b156129c657826129c2816153da565b9350505b806129d0816153da565b915050612971565b506000826001600160401b038111156129f3576129f3614ae9565b604051908082528060200260200182016040528015612a1c578160200160208202803683370190505b50905060015b84811161139357612a3581600033610a95565b80612a545750612a54816000805160206158d483398151915233610a95565b8015612a645750612a6481614067565b15612a955780828481518110612a7c57612a7c6153f3565b602090810291909101015282612a91816153da565b9350505b80612a9f816153da565b915050612a22565b600083815260026020908152604091829020548251808401909352601b835260008051602061580a833981519152918301919091528491906001600160a01b0316612b055760405162461bcd60e51b815260040161062e91906148d7565b50612b1284600033610a95565b6040518060400160405280601d81526020016000805160206158b483398151915281525090612b545760405162461bcd60e51b815260040161062e91906148d7565b506000805160206158728339815191528314156040518060400160405280602081526020017f4576656e743a2043616e27742072656d6f76652063617368696572206865726581525090612bbb5760405162461bcd60e51b815260040161062e91906148d7565b50611ca08484846117db565b612bd133836138ae565b612bed5760405162461bcd60e51b815260040161062e90615271565b611ca084848484614084565b60606000612c0683613764565b600083815260068201602052604081208054612c219061523d565b80601f0160208091040260200160405190810160405280929190818152602001828054612c4d9061523d565b8015612c9a5780601f10612c6f57610100808354040283529160200191612c9a565b820191906000526020600020905b815481529060010190602001808311612c7d57829003601f168201915b505050505090506000612cb860408051602081019091526000815290565b90508051600003612ccb57509392505050565b815115612cfe578082604051602001612ce5929190615547565b6040516020818303038152906040529350505050919050565b6000815111612d1c5760405180602001604052806000815250612d37565b80612d26866140b7565b604051602001612ce5929190615547565b95945050505050565b600083815260026020908152604091829020548251808401909352601b835260008051602061580a833981519152918301919091528491906001600160a01b0316612d9e5760405162461bcd60e51b815260040161062e91906148d7565b506000838152600a6020908152604091829020548251808401909352601e835260008051602061582a83398151915291830191909152849190612df45760405162461bcd60e51b815260040161062e91906148d7565b508484816000600a01600083815260200190815260200160002060070154146040518060600160405280602981526020016157956029913990612e4a5760405162461bcd60e51b815260040161062e91906148d7565b50612e5787600033610a95565b80612e765750612e76876000805160206158d483398151915233610a95565b6040518060600160405280602a815260200161576b602a913990612ead5760405162461bcd60e51b815260040161062e91906148d7565b506000868152600a602052604081206004018054879290612ecf908490615576565b909155505060408051888152602081018890529081018690527f3a50fbe2fa0bdf2022fcd8fe2132970519fcf4df5cf97d78e86c510eb0805b6a90606001611799565b600082815260026020908152604091829020548251808401909352601b835260008051602061580a833981519152918301919091528391906001600160a01b0316612f705760405162461bcd60e51b815260040161062e91906148d7565b50612f7d83600033610a95565b6040518060400160405280601d81526020016000805160206158b483398151915281525090612fbf5760405162461bcd60e51b815260040161062e91906148d7565b506000838152600960209081526040808320815160e08101835281546001600160a01b03168152600182015481850152600282015481840152600382015460ff8116151560608301526001600160401b03610100820481166080840152600160481b9091041660a08201526004820180548451818702810187019095528085529194929360c0860193909290879084015b8282101561309257600084815260209081902060408051808201909152600285029091018054825260019081015460ff16828401529083529092019101613050565b5050505081525050905042836001600160401b03161180156130c95750826001600160401b031681608001516001600160401b0316105b60405180606001604052806022815260200161589260229139906131005760405162461bcd60e51b815260040161062e91906148d7565b5082816080018181516131139190615589565b6001600160401b031690525060a081018051849190613133908390615589565b6001600160401b0390811690915260808301516000878152600960205260408120600301805460a08701518516600160481b0267ffffffffffffffff60481b1994909516610100029390931670ffffffffffffffffffffffffffffffff00199093169290921792909217905590505b8160c001515181101561321657600085815260096020526040902060040180546001600160401b0386169190839081106131de576131de6153f3565b906000526020600020906002020160000160008282546131fe9190615576565b9091555081905061320e816153da565b9150506131a2565b506000848152600b602090815260408083208054825181850281018501909352808352919290919083018282801561326d57602002820191906000526020600020905b815481526020019060010190808311613259575b5050505050905060005b815181101561333557846001600160401b03166000600a0160008484815181106132a3576132a36153f3565b6020026020010151815260200190815260200160002060050160008282546132cb9190615576565b92505081905550846001600160401b03166000600a0160008484815181106132f5576132f56153f3565b60200260200101518152602001908152602001600020600601600082825461331d9190615576565b9091555081905061332d816153da565b915050613277565b50604080518681526001600160401b03861660208201527f9066be8d402a022f5b4db8b98825f0604ef760ea5053e46d7654a84d5f27ba89910160405180910390a15050505050565b6001600160a01b03918216600090815260056020908152604080832093909416825291909152205460ff1690565b600083815260026020908152604091829020548251808401909352601b835260008051602061580a833981519152918301919091528491906001600160a01b031661340a5760405162461bcd60e51b815260040161062e91906148d7565b506000838152600a6020908152604091829020548251808401909352601e835260008051602061582a833981519152918301919091528491906134605760405162461bcd60e51b815260040161062e91906148d7565b508484816000600a016000838152602001908152602001600020600701541460405180606001604052806029815260200161579560299139906134b65760405162461bcd60e51b815260040161062e91906148d7565b506134c387600033610a95565b806134e257506134e2876000805160206158d483398151915233610a95565b6040518060600160405280602a815260200161576b602a9139906135195760405162461bcd60e51b815260040161062e91906148d7565b50846000600a0160008881526020019081526020016000206004015410156040518060600160405280602e81526020016158f4602e91399061356e5760405162461bcd60e51b815260040161062e91906148d7565b506000868152600a602052604090206004015461358c908690615409565b6000878152600a6020908152604091829020600201548251606081019093526035808452931015929061592290830139906135da5760405162461bcd60e51b815260040161062e91906148d7565b506000868152600a6020526040812060040180548792906135fc908490615409565b909155505060408051888152602081018890529081018690527fb39ecd9af22a3fec10ec63455a79d572fdcfadf6a9005d5cd232b2829f958c7090606001611799565b6060600061364c60075490565b905060008060015b838111613698576000818152600960205260409020546001600160a01b0316156136865782613682816153da565b9350505b80613690816153da565b915050613654565b506000826001600160401b038111156136b3576136b3614ae9565b6040519080825280602002602001820160405280156136dc578160200160208202803683370190505b50905060015b848111611393576000818152600960205260409020546001600160a01b0316156137325780828481518110613719576137196153f3565b60209081029190910101528261372e816153da565b9350505b8061373c816153da565b9150506136e2565b8261374f848461139c565b6137598282613ba2565b6117fb858585613e21565b61376d81614067565b6137b45760405162461bcd60e51b8152602060048201526018602482015277115490cdcc8c4e881a5b9d985b1a59081d1bdad95b88125160421b604482015260640161062e565b50565b600081815260046020526040812080546001600160a01b0319166001600160a01b03851690811790915582906137ec82611b1b565b6001600160a01b03167f8c5be1e5ebec7d5bd14f71427d1e84f3dd0314c0f7b2291e5b200ac8c7c3b92560405160405180910390a4505050565b600061383183614067565b6138945760405162461bcd60e51b815260206004820152602e60248201527f45524337323155524953746f726167653a2055524920736574206f66206e6f6e60448201526d32bc34b9ba32b73a103a37b5b2b760911b606482015260840161062e565b60008381526006820160205260409020611ca08382615305565b6000806138ba83611b1b565b9050806001600160a01b0316846001600160a01b031614806138e157506138e1818561337e565b80610ac45750836001600160a01b03166138fa84610790565b6001600160a01b031614949350505050565b6000836001600160a01b031661392183611b1b565b6001600160a01b0316146139855760405162461bcd60e51b815260206004820152602560248201527f4552433732313a207472616e736665722066726f6d20696e636f72726563742060448201526437bbb732b960d91b606482015260840161062e565b6001600160a01b0383166139e75760405162461bcd60e51b8152602060048201526024808201527f4552433732313a207472616e7366657220746f20746865207a65726f206164646044820152637265737360e01b606482015260840161062e565b6139f26000836137b7565b6001600160a01b03841660009081526003820160205260408120805460019290613a1d908490615409565b90915550506001600160a01b03831660009081526003820160205260408120805460019290613a4d908490615576565b9091555050600082815260028201602052604080822080546001600160a01b0319166001600160a01b0387811691821790925591518593918816917fddf252ad1be2c89b69c2b068fc378daa952ba7f163c4a11628f55a4df523b3ef91a4611ca0565b600080613abc83614067565b613b035760405162461bcd60e51b8152602060048201526018602482015277115490cd4c0c0dce88125b9d985b1a59081d1bdad95b925960421b604482015260640161062e565b600092835260090160205250604090206003015461010090046001600160401b031690565b600080613b3483614067565b613b7b5760405162461bcd60e51b8152602060048201526018602482015277115490cd4c0c0dce88125b9d985b1a59081d1bdad95b925960421b604482015260640161062e565b6000928352600901602052506040902060030154600160481b90046001600160401b031690565b61220b8282336141b7565b6000613bba848484610a95565b15611ca0576000848152601282016020908152604080832086845282528083206001600160a01b03861684528252808320805460ff1916905560148401909152902054613c07858261421b565b6001600160a01b0383166000908152601483016020526040812055336001600160a01b0316836001600160a01b0316857f7b00293d63517946aeba2f56c6b4c5dec87b67393ac48520994d3d8ce776335a88604051613c6891815260200190565b60405180910390a45050505050565b600080613c8383611b1b565b9050613c906000846137b7565b6001600160a01b03811660009081526003830160205260408120805460019290613cbb908490615409565b9091555050600083815260028301602052604080822080546001600160a01b0319169055518491906001600160a01b038416907fddf252ad1be2c89b69c2b068fc378daa952ba7f163c4a11628f55a4df523b3ef908390a4600083815260068301602052604090208054613d2e9061523d565b1590506108c957600083815260068301602052604081206108c9916146ad565b6000826001600160a01b0316846001600160a01b031603613db15760405162461bcd60e51b815260206004820152601960248201527f4552433732313a20617070726f766520746f2063616c6c657200000000000000604482015260640161062e565b6001600160a01b038481166000818152600584016020908152604080832094881680845294825291829020805460ff191687151590811790915591519182527f17307eab39ab6107e8899845ad3d59bd9653f200f220920489ca2b5937696c31910160405180910390a350505050565b6000613e2e848484610a95565b611ca0576000848152601282016020908152604080832086845282528083206001600160a01b03868116808652918452828520805460ff19166001908117909155835180850185529283528285018981528a875260138801865293862080548083018255818852958720845160029097020180546001600160a01b03191696909316959095178255925190830155928790529054613ecc9190615409565b6001600160a01b0384166000908152601484016020526040902055336001600160a01b0316836001600160a01b0316857fd9dfff7752b7a810e2b646c0c96b76bc9ed817f6c6f7848bbe68163f7e8b437888604051613c6891815260200190565b60006001600160a01b038316613f855760405162461bcd60e51b815260206004820181905260248201527f4552433732313a206d696e7420746f20746865207a65726f2061646472657373604482015260640161062e565b613f8e82614067565b15613fdb5760405162461bcd60e51b815260206004820152601c60248201527f4552433732313a20746f6b656e20616c7265616479206d696e74656400000000604482015260640161062e565b6001600160a01b03831660009081526003820160205260408120805460019290614006908490615576565b9091555050600082815260028201602052604080822080546001600160a01b0319166001600160a01b03871690811790915590518492907fddf252ad1be2c89b69c2b068fc378daa952ba7f163c4a11628f55a4df523b3ef908290a4505050565b6000908152600260205260409020546001600160a01b0316151590565b61408f84848461390c565b61409b84848484614303565b611ca05760405162461bcd60e51b815260040161062e906155b0565b6060816000036140de5750506040805180820190915260018152600360fc1b602082015290565b8160005b811561410857806140f2816153da565b91506141019050600a83615618565b91506140e2565b6000816001600160401b0381111561412257614122614ae9565b6040519080825280601f01601f19166020018201604052801561414c576020820181803683370190505b5090505b8415610ac457614161600183615409565b915061416e600a8661562c565b614179906030615576565b60f81b81838151811061418e5761418e6153f3565b60200101906001600160f81b031916908160001a9053506141b0600a86615618565b9450614150565b6141c2838383610a95565b6108c9576141cf81614404565b6141da836020614416565b6141e3856145b1565b6040516020016141f593929190615640565b60408051601f198184030181529082905262461bcd60e51b825261062e916004016148d7565b6000828152601360205260408120805461423790600190615409565b81548110614247576142476153f3565b9060005260206000209060020201816013016000858152602001908152602001600020838154811061427b5761427b6153f3565b60009182526020808320845460029093020180546001600160a01b0319166001600160a01b03909316929092178255600193840154939091019290925584815260138301909152604090208054806142d5576142d561541c565b60008281526020812060026000199093019283020180546001600160a01b0319168155600101559055505050565b60006001600160a01b0384163b156143f957604051630a85bd0160e11b81526001600160a01b0385169063150b7a02906143479033908990889088906004016156e2565b6020604051808303816000875af1925050508015614382575060408051601f3d908101601f1916820190925261437f9181019061571f565b60015b6143df573d8080156143b0576040519150601f19603f3d011682016040523d82523d6000602084013e6143b5565b606091505b5080516000036143d75760405162461bcd60e51b815260040161062e906155b0565b805181602001fd5b6001600160e01b031916630a85bd0160e11b149050610ac4565b506001949350505050565b60606113ba6001600160a01b03831660145b6060600061442583600261573c565b614430906002615576565b6001600160401b0381111561444757614447614ae9565b6040519080825280601f01601f191660200182016040528015614471576020820181803683370190505b509050600360fc1b8160008151811061448c5761448c6153f3565b60200101906001600160f81b031916908160001a905350600f60fb1b816001815181106144bb576144bb6153f3565b60200101906001600160f81b031916908160001a90535060006144df84600261573c565b6144ea906001615576565b90505b6001811115614562576f181899199a1a9b1b9c1cb0b131b232b360811b85600f166010811061451e5761451e6153f3565b1a60f81b828281518110614534576145346153f3565b60200101906001600160f81b031916908160001a90535060049490941c9361455b81615753565b90506144ed565b508315611b7d5760405162461bcd60e51b815260206004820181905260248201527f537472696e67733a20686578206c656e67746820696e73756666696369656e74604482015260640161062e565b6060816000036145db5750506040805180820190915260048152630307830360e41b602082015290565b8160005b81156145fe57806145ef816153da565b915050600882901c91506145df565b610ac48482614416565b6040518060e0016040528060006001600160a01b03168152602001600081526020016000815260200160001515815260200160006001600160401b0316815260200160006001600160401b03168152602001606081525090565b82805482825590600052602060002090810192821561469d579160200282015b8281111561469d578235825591602001919060010190614682565b506146a99291506147dd565b5090565b5080546146b99061523d565b6000825580601f106146c9575050565b601f0160209004906000526020600020908101906137b491906147dd565b50805460008255906000526020600020908101906137b491906147dd565b50805460008255600202906000526020600020908101906137b491906147f2565b82805482825590600052602060002090810192821561469d579160200282015b8281111561469d578251825591602001919060010190614746565b604051806101800160405280600081526020016060815260200160608152602001600081526020016000815260200160008152602001600081526020016000815260200160608152602001606081526020016147d0604051806040016040528060008152602001600081525090565b8152600060209091015290565b5b808211156146a957600081556001016147de565b5b808211156146a9576000815560018101805460ff191690556002016147f3565b6001600160e01b0319811681146137b457600080fd5b60006020828403121561483b57600080fd5b8135611b7d81614813565b8035801515811461485657600080fd5b919050565b6000806040838503121561486e57600080fd5b8235915061487e60208401614846565b90509250929050565b60005b838110156148a257818101518382015260200161488a565b50506000910152565b600081518084526148c3816020860160208601614887565b601f01601f19169290920160200192915050565b602081526000611b7d60208301846148ab565b6000602082840312156148fc57600080fd5b5035919050565b80356001600160a01b038116811461485657600080fd5b6000806040838503121561492d57600080fd5b61493683614903565b946020939093013593505050565b600060e0830160018060a01b038351168452602080840151818601526040808501518187015260608501511515606087015260808501516001600160401b0380821660808901528060a08801511660a0890152505060c085015160e060c0880152838151808652610100890191508483019550600092505b808310156149e85785518051835285015160ff16858301529484019460019290920191908301906149bc565b50979650505050505050565b602081526000611b7d6020830184614944565b602080825282518282018190526000919060409081850190868401855b82811015614a5257815180516001600160a01b03168552860151868501529284019290850190600101614a24565b5091979650505050505050565b600080600060608486031215614a7457600080fd5b8335925060208401359150614a8b60408501614903565b90509250925092565b60008060008060808587031215614aaa57600080fd5b5050823594602084013594506040840135936060013592509050565b60008060408385031215614ad957600080fd5b8235915061487e60208401614903565b634e487b7160e01b600052604160045260246000fd5b60006001600160401b0380841115614b1957614b19614ae9565b604051601f8501601f19908116603f01168101908282118183101715614b4157614b41614ae9565b81604052809350858152868686011115614b5a57600080fd5b858560208301376000602087830101525050509392505050565b600082601f830112614b8557600080fd5b611b7d83833560208501614aff565b60008060408385031215614ba757600080fd5b8235915060208301356001600160401b03811115614bc457600080fd5b614bd085828601614b74565b9150509250929050565b600080600060608486031215614bef57600080fd5b614bf884614903565b9250614c0660208501614903565b9150604084013590509250925092565b60008083601f840112614c2857600080fd5b5081356001600160401b03811115614c3f57600080fd5b6020830191508360208260051b8501011115614c5a57600080fd5b9250929050565b60006040828403121561277457600080fd5b60008060008060008060008060006101008a8c031215614c9257600080fd5b8935985060208a0135975060408a01356001600160401b0380821115614cb757600080fd5b614cc38d838e01614b74565b985060608c0135975060808c0135915080821115614ce057600080fd5b614cec8d838e01614c16565b909750955060a08c0135915080821115614d0557600080fd5b50614d128c828d01614c16565b9094509250614d2690508b60c08c01614c61565b90509295985092959850929598565b6000602080830181845280855180835260408601915060408160051b870101925083870160005b82811015614d8a57603f19888603018452614d78858351614944565b94509285019290850190600101614d5c565b5092979650505050505050565b60008060408385031215614daa57600080fd5b50508035926020909101359150565b600060208284031215614dcb57600080fd5b611b7d82614903565b60008083601f840112614de657600080fd5b5081356001600160401b03811115614dfd57600080fd5b602083019150836020828501011115614c5a57600080fd5b6000806000806000806000806000806000806101408d8f031215614e3857600080fd5b8c359b506001600160401b0360208e01351115614e5457600080fd5b614e648e60208f01358f01614dd4565b909b50995060408d0135985060608d0135975060808d0135965060a08d013595506001600160401b0360c08e01351115614e9d57600080fd5b614ead8e60c08f01358f01614c16565b90955093506001600160401b0360e08e01351115614eca57600080fd5b614eda8e60e08f01358f01614c16565b9093509150614eed8e6101008f01614c61565b90509295989b509295989b509295989b565b60008060408385031215614f1257600080fd5b614f1b83614903565b915061487e60208401614846565b600080600060608486031215614f3e57600080fd5b8335925060208401359150614a8b60408501614846565b600081518084526020808501945080840160005b83811015614f8557815187529582019590820190600101614f69565b509495945050505050565b60006020808301818452808551808352604092508286019150828160051b87010184880160005b838110156150b657603f1989840301855281516101a08151855288820151818a870152614fe6828701826148ab565b9150508782015185820389870152614ffe8282614f55565b606084810151908801526080808501519088015260a0808501519088015260c0808501519088015260e0808501519088015261010080850151888303828a0152919350915061504d8382614f55565b9250505061012080830151868303828801526150698382614f55565b925050506101408083015161508a8288018280518252602090810151910152565b505061016082015191506150a361018086018315159052565b9588019593505090860190600101614fb7565b509098975050505050505050565b80356001600160401b038116811461485657600080fd5b600080600080608085870312156150f157600080fd5b84359350615101602086016150c4565b925061510f604086016150c4565b915060608501356001600160401b0381111561512a57600080fd5b61513687828801614b74565b91505092959194509250565b602081526000611b7d6020830184614f55565b6000806000806080858703121561516b57600080fd5b61517485614903565b935061518260208601614903565b92506040850135915060608501356001600160401b038111156151a457600080fd5b8501601f810187136151b557600080fd5b61513687823560208401614aff565b6000806000606084860312156151d957600080fd5b505081359360208301359350604090920135919050565b6000806040838503121561520357600080fd5b8235915061487e602084016150c4565b6000806040838503121561522657600080fd5b61522f83614903565b915061487e60208401614903565b600181811c9082168061525157607f821691505b60208210810361277457634e487b7160e01b600052602260045260246000fd5b6020808252602e908201527f4552433732313a2063616c6c6572206973206e6f7420746f6b656e206f776e6560408201526d1c881b9bdc88185c1c1c9bdd995960921b606082015260800190565b601f8211156108c957600081815260208120601f850160051c810160208610156152e65750805b601f850160051c820191505b81811015612954578281556001016152f2565b81516001600160401b0381111561531e5761531e614ae9565b6153328161532c845461523d565b846152bf565b602080601f831160018114615367576000841561534f5750858301515b600019600386901b1c1916600185901b178555612954565b600085815260208120601f198616915b8281101561539657888601518255948401946001909101908401615377565b50858210156153b45787850151600019600388901b60f8161c191681555b5050505050600190811b01905550565b634e487b7160e01b600052601160045260246000fd5b6000600182016153ec576153ec6153c4565b5060010190565b634e487b7160e01b600052603260045260246000fd5b818103818111156113ba576113ba6153c4565b634e487b7160e01b600052603160045260246000fd5b6001600160401b0383111561544957615449614ae9565b61545d83615457835461523d565b836152bf565b6000601f84116001811461549157600085156154795750838201355b600019600387901b1c1916600186901b1783556117fb565b600083815260209020601f19861690835b828110156154c257868501358255602094850194600190920191016154a2565b50868210156154df5760001960f88860031b161c19848701351681555b505060018560011b0183555050505050565b84815283602082015260606040820152816060820152818360808301376000818301608090810191909152601f909201601f191601019392505050565b828152604060208201526000610ac460408301846148ab565b60008351615559818460208801614887565b83519083019061556d818360208801614887565b01949350505050565b808201808211156113ba576113ba6153c4565b6001600160401b038181168382160190808211156155a9576155a96153c4565b5092915050565b60208082526032908201527f4552433732313a207472616e7366657220746f206e6f6e20455243373231526560408201527131b2b4bb32b91034b6b83632b6b2b73a32b960711b606082015260800190565b634e487b7160e01b600052601260045260246000fd5b60008261562757615627615602565b500490565b60008261563b5761563b615602565b500690565b7402937b632a1b7b73a3937b61d1030b1b1b7bab73a1605d1b815260008451615670816015850160208901614887565b7001034b99036b4b9b9b4b733903937b6329607d1b60159184019182015284516156a1816026840160208901614887565b720103337b91032bb32b73a103bb4ba341034b21606d1b6026929091019182015283516156d5816039840160208801614887565b0160390195945050505050565b6001600160a01b0385811682528416602082015260408101839052608060608201819052600090615715908301846148ab565b9695505050505050565b60006020828403121561573157600080fd5b8151611b7d81614813565b80820281158282048414176113ba576113ba6153c4565b600081615762576157626153c4565b50600019019056fe4576656e743a2043616c6c6572206973206e6f7420616e2061646d696e206f72206d6f64657261746f724576656e743a20546869732063617465676f727920697320666f7220616e6f74686572206576656e744576656e743a2043617465676f727920656e64206461746520697320696e636f72726563744576656e743a2043617465676f7279207374617274206461746520697320696e636f72726563744576656e743a204576656e7420646f6573206e6f7420657869737400000000004576656e743a2043617465676f727920646f6573206e6f7420657869737400004576656e743a20446973636f756e7420706172616d6574657273206c656e677468206e6f74206571ff3317e1e0e8c784290b957ee9b65ea8fe96420c4819db463283b95ecbe4a3fe4576656e743a20496e76616c696420706f7374706f6e652074696d6520676976656e4576656e743a2043616c6c6572206973206e6f7420616e2061646d696e00000071f3d55856e4058ed06ee057d79ada615f65cdf5f9ee88181b914225088f834f4576656e743a2043616e2774206465637265617365207469636b65747320636f756e742062656c6f77207a65726f4576656e743a205469636b65747320616d6f756e742063616e2774206265206c657373207468616e20736f6c64207469636b657473a2646970667358221220d03ca30163b67e9d824f2889a5cb68fb29052e9f2f5e39f42c949bee2e3b59d564736f6c63430008110033",
  "linkReferences": {},
  "deployedLinkReferences": {}
}