{
  "_format": "hh-sol-artifact-1",
  "contractName": "EventTicketControllerFacet",
  "sourceName": "contracts/EventDiamond/facets/EventTicketControllerFacet.sol",
  "abi": [
    {
      "anonymous": false,
      "inputs": [
        {
          "indexed": true,
          "internalType": "uint256",
          "name": "fromTokenId",
          "type": "uint256"
        },
        {
          "indexed": false,
          "internalType": "uint256",
          "name": "toTokenId",
          "type": "uint256"
        },
        {
          "indexed": true,
          "internalType": "address",
          "name": "fromAddress",
          "type": "address"
        },
        {
          "indexed": true,
          "internalType": "address",
          "name": "toAddress",
          "type": "address"
        }
      ],
      "name": "ConsecutiveTransfer",
      "type": "event"
    },
    {
      "anonymous": false,
      "inputs": [
        {
          "indexed": false,
          "internalType": "uint256",
          "name": "eventId",
          "type": "uint256"
        },
        {
          "indexed": false,
          "internalType": "uint256",
          "name": "date",
          "type": "uint256"
        },
        {
          "indexed": false,
          "internalType": "uint8",
          "name": "percentage",
          "type": "uint8"
        }
      ],
      "name": "EventRefundDateAdded",
      "type": "event"
    },
    {
      "anonymous": false,
      "inputs": [
        {
          "indexed": false,
          "internalType": "uint256",
          "name": "eventId",
          "type": "uint256"
        }
      ],
      "name": "EventWithdraw",
      "type": "event"
    },
    {
      "anonymous": false,
      "inputs": [
        {
          "indexed": false,
          "internalType": "uint256",
          "name": "eventId",
          "type": "uint256"
        },
        {
          "indexed": false,
          "internalType": "address[]",
          "name": "accounts",
          "type": "address[]"
        },
        {
          "indexed": false,
          "internalType": "address",
          "name": "staffMember",
          "type": "address"
        }
      ],
      "name": "InvitationSent",
      "type": "event"
    },
    {
      "anonymous": false,
      "inputs": [
        {
          "indexed": false,
          "internalType": "uint256",
          "name": "ticketId",
          "type": "uint256"
        },
        {
          "indexed": false,
          "internalType": "address",
          "name": "account",
          "type": "address"
        }
      ],
      "name": "RefundWithdraw",
      "type": "event"
    },
    {
      "anonymous": false,
      "inputs": [
        {
          "indexed": false,
          "internalType": "uint256",
          "name": "ticketId",
          "type": "uint256"
        },
        {
          "indexed": false,
          "internalType": "address",
          "name": "account",
          "type": "address"
        }
      ],
      "name": "TicketBought",
      "type": "event"
    },
    {
      "anonymous": false,
      "inputs": [
        {
          "indexed": false,
          "internalType": "uint256",
          "name": "eventId",
          "type": "uint256"
        },
        {
          "indexed": false,
          "internalType": "uint256",
          "name": "ticketId",
          "type": "uint256"
        },
        {
          "indexed": false,
          "internalType": "address",
          "name": "staffMember",
          "type": "address"
        }
      ],
      "name": "TicketClipped",
      "type": "event"
    },
    {
      "anonymous": false,
      "inputs": [
        {
          "indexed": false,
          "internalType": "uint256",
          "name": "eventId",
          "type": "uint256"
        },
        {
          "indexed": false,
          "internalType": "uint256",
          "name": "categoryId",
          "type": "uint256"
        },
        {
          "indexed": false,
          "internalType": "uint256",
          "name": "ticketId",
          "type": "uint256"
        },
        {
          "indexed": false,
          "internalType": "address",
          "name": "account",
          "type": "address"
        }
      ],
      "name": "TicketRefunded",
      "type": "event"
    },
    {
      "anonymous": false,
      "inputs": [
        {
          "indexed": false,
          "internalType": "uint256",
          "name": "eventId",
          "type": "uint256"
        },
        {
          "indexed": false,
          "internalType": "uint256",
          "name": "ticketCount",
          "type": "uint256"
        },
        {
          "indexed": false,
          "internalType": "address",
          "name": "staffMember",
          "type": "address"
        }
      ],
      "name": "TicketsBooked",
      "type": "event"
    },
    {
      "inputs": [
        {
          "internalType": "uint256",
          "name": "_eventId",
          "type": "uint256"
        },
        {
          "components": [
            {
              "internalType": "uint256",
              "name": "date",
              "type": "uint256"
            },
            {
              "internalType": "uint8",
              "name": "percentage",
              "type": "uint8"
            }
          ],
          "internalType": "struct RefundData",
          "name": "_refundData",
          "type": "tuple"
        }
      ],
      "name": "addRefundDeadline",
      "outputs": [],
      "stateMutability": "nonpayable",
      "type": "function"
    },
    {
      "inputs": [
        {
          "internalType": "uint256",
          "name": "_eventId",
          "type": "uint256"
        },
        {
          "components": [
            {
              "internalType": "uint256",
              "name": "categoryId",
              "type": "uint256"
            },
            {
              "internalType": "uint256",
              "name": "ticketAmount",
              "type": "uint256"
            }
          ],
          "internalType": "struct CategoryTicketAmount[]",
          "name": "_categoryTicketAmount",
          "type": "tuple[]"
        },
        {
          "components": [
            {
              "internalType": "uint256",
              "name": "row",
              "type": "uint256"
            },
            {
              "internalType": "uint256",
              "name": "seat",
              "type": "uint256"
            },
            {
              "internalType": "address",
              "name": "account",
              "type": "address"
            }
          ],
          "internalType": "struct TicketPlaceAddress[]",
          "name": "_place",
          "type": "tuple[]"
        },
        {
          "internalType": "string[]",
          "name": "_ticketMetadataUris",
          "type": "string[]"
        }
      ],
      "name": "bookTickets",
      "outputs": [],
      "stateMutability": "nonpayable",
      "type": "function"
    },
    {
      "inputs": [
        {
          "internalType": "uint256",
          "name": "_eventId",
          "type": "uint256"
        },
        {
          "internalType": "uint256",
          "name": "_categoryId",
          "type": "uint256"
        },
        {
          "components": [
            {
              "internalType": "uint256",
              "name": "amount",
              "type": "uint256"
            },
            {
              "internalType": "uint256",
              "name": "price",
              "type": "uint256"
            }
          ],
          "internalType": "struct TicketPriceData[]",
          "name": "_priceData",
          "type": "tuple[]"
        },
        {
          "components": [
            {
              "internalType": "uint256",
              "name": "row",
              "type": "uint256"
            },
            {
              "internalType": "uint256",
              "name": "seat",
              "type": "uint256"
            }
          ],
          "internalType": "struct TicketPlace[]",
          "name": "_place",
          "type": "tuple[]"
        },
        {
          "internalType": "string[]",
          "name": "_ticketMetadataUris",
          "type": "string[]"
        }
      ],
      "name": "buyTickets",
      "outputs": [],
      "stateMutability": "payable",
      "type": "function"
    },
    {
      "inputs": [
        {
          "components": [
            {
              "internalType": "uint256",
              "name": "eventId",
              "type": "uint256"
            },
            {
              "internalType": "uint256",
              "name": "categoryId",
              "type": "uint256"
            }
          ],
          "internalType": "struct EventCategoryData[]",
          "name": "_eventCategoryData",
          "type": "tuple[]"
        },
        {
          "components": [
            {
              "internalType": "uint256",
              "name": "amount",
              "type": "uint256"
            },
            {
              "internalType": "uint256",
              "name": "price",
              "type": "uint256"
            }
          ],
          "internalType": "struct TicketPriceData[]",
          "name": "_priceData",
          "type": "tuple[]"
        },
        {
          "components": [
            {
              "internalType": "uint256",
              "name": "row",
              "type": "uint256"
            },
            {
              "internalType": "uint256",
              "name": "seat",
              "type": "uint256"
            }
          ],
          "internalType": "struct TicketPlace[]",
          "name": "_place",
          "type": "tuple[]"
        },
        {
          "internalType": "string[]",
          "name": "_ticketMetadataUris",
          "type": "string[]"
        }
      ],
      "name": "buyTickets",
      "outputs": [],
      "stateMutability": "payable",
      "type": "function"
    },
    {
      "inputs": [
        {
          "internalType": "uint256",
          "name": "_eventId",
          "type": "uint256"
        },
        {
          "internalType": "uint256",
          "name": "_ticketId",
          "type": "uint256"
        }
      ],
      "name": "clipTicket",
      "outputs": [],
      "stateMutability": "nonpayable",
      "type": "function"
    },
    {
      "inputs": [
        {
          "internalType": "uint256",
          "name": "_eventId",
          "type": "uint256"
        }
      ],
      "name": "getAddressTicketIdsByEvent",
      "outputs": [
        {
          "internalType": "uint256[]",
          "name": "",
          "type": "uint256[]"
        }
      ],
      "stateMutability": "view",
      "type": "function"
    },
    {
      "inputs": [
        {
          "components": [
            {
              "internalType": "uint256",
              "name": "eventId",
              "type": "uint256"
            },
            {
              "internalType": "uint256",
              "name": "categoryId",
              "type": "uint256"
            },
            {
              "internalType": "uint256",
              "name": "ticketId",
              "type": "uint256"
            }
          ],
          "internalType": "struct ReturnTicketParams",
          "name": "_returnTicketParams",
          "type": "tuple"
        }
      ],
      "name": "returnTicket",
      "outputs": [],
      "stateMutability": "nonpayable",
      "type": "function"
    },
    {
      "inputs": [
        {
          "internalType": "uint256",
          "name": "_eventId",
          "type": "uint256"
        },
        {
          "internalType": "uint256[]",
          "name": "_ticketIds",
          "type": "uint256[]"
        },
        {
          "internalType": "address[]",
          "name": "_accounts",
          "type": "address[]"
        }
      ],
      "name": "sendInvitation",
      "outputs": [],
      "stateMutability": "nonpayable",
      "type": "function"
    },
    {
      "inputs": [
        {
          "internalType": "uint256",
          "name": "_eventId",
          "type": "uint256"
        },
        {
          "internalType": "uint256",
          "name": "_ticketId",
          "type": "uint256"
        },
        {
          "internalType": "address",
          "name": "_oldOwner",
          "type": "address"
        },
        {
          "internalType": "address",
          "name": "_newOwner",
          "type": "address"
        }
      ],
      "name": "updateTicketIdAfterTransfer",
      "outputs": [],
      "stateMutability": "nonpayable",
      "type": "function"
    },
    {
      "inputs": [
        {
          "internalType": "uint256",
          "name": "_eventId",
          "type": "uint256"
        }
      ],
      "name": "withdrawContractBalance",
      "outputs": [],
      "stateMutability": "nonpayable",
      "type": "function"
    }
  ],
  "bytecode": "0x608060405234801561001057600080fd5b506143cb806100206000396000f3fe6080604052600436106100815760003560e01c806328e13a9e146100865780632d3bf559146100a85780634f905e5d146100c85780637ce8b341146100db5780639cbea360146100fb578063ab6a8d6a1461011b578063b5abe85a1461013b578063d90e6dd71461015b578063e3bccc0f1461017b578063ef71b78a146101b1575b600080fd5b34801561009257600080fd5b506100a66100a1366004613691565b6101c4565b005b3480156100b457600080fd5b506100a66100c3366004613824565b610827565b6100a66100d6366004613907565b610c22565b3480156100e757600080fd5b506100a66100f63660046139a2565b610fae565b34801561010757600080fd5b506100a6610116366004613a00565b611171565b34801561012757600080fd5b506100a6610136366004613a4a565b611280565b34801561014757600080fd5b506100a6610156366004613aa5565b611ac3565b34801561016757600080fd5b506100a6610176366004613abe565b611efc565b34801561018757600080fd5b5061019b610196366004613aa5565b612266565b6040516101a89190613ae0565b60405180910390f35b6100a66101bf366004613b24565b612330565b600084815260026020908152604091829020548251808401909352601b835260008051602061418c833981519152918301919091528591906001600160a01b031661022b5760405162461bcd60e51b81526004016102229190613c2b565b60405180910390fd5b506102388560003361272a565b806102575750610257856000805160206142698339815191523361272a565b6040518060600160405280602a815260200161408c602a91399061028e5760405162461bcd60e51b81526004016102229190613c2b565b5083516000141560405180606001604052806025815260200161432960259139906102cc5760405162461bcd60e51b81526004016102229190613c2b565b5081518351146040518060400160405280601f8152602001600080516020614229833981519152815250906103145760405162461bcd60e51b81526004016102229190613c2b565b5060008086815260096020526040902060030154610100900460ff16600281111561034157610341613c3e565b14604051806040016040528060158152602001600080516020614249833981519152815250906103845760405162461bcd60e51b81526004016102229190613c2b565b5060008060005b86518110156105a5576000600a0160008883815181106103ad576103ad613c54565b602002602001015160000151815260200190815260200160002060000154600014156040518060400160405280601e81526020016000805160206141d8833981519152815250906104115760405162461bcd60e51b81526004016102229190613c2b565b50876000600a01600089848151811061042c5761042c613c54565b602002602001015160000151815260200190815260200160002060070154146040518060600160405280602981526020016140b660299139906104825760405162461bcd60e51b81526004016102229190613c2b565b5086818151811061049557610495613c54565b602002602001015160200151836104ac9190613c80565b92506000600a0160008883815181106104c7576104c7613c54565b602002602001015160000151815260200190815260200160002060040154836000600a0160008a85815181106104ff576104ff613c54565b60200260200101516000015181526020019081526020016000206002018054905061052a9190613c80565b111560405180606001604052806023815260200161437360239139906105635760405162461bcd60e51b81526004016102229190613c2b565b506000925086818151811061057a5761057a613c54565b602002602001015160200151826105919190613c80565b91508061059d81613c93565b91505061038b565b5060008060008060005b8a518110156107de5760005b8b82815181106105cd576105cd613c54565b6020026020010151602001518110156107cb5760008d8152600c602052604090208b51610617908d908990811061060657610606613c54565b60200260200101516000015161275c565b61063d8d898151811061062c5761062c613c54565b60200260200101516020015161275c565b60405160200161064e929190613cac565b60408051601f198184030181529082905261066891613cdb565b90815260408051918290036020908101832054838301909252601583527422bb32b73a1d10283630b1b29034b9903a30b5b2b760591b9083015260ff16156106c35760405162461bcd60e51b81526004016102229190613c2b565b5060006001600160a01b03168b87815181106106e1576106e1613c54565b6020026020010151604001516001600160a01b031614610724578a868151811061070d5761070d613c54565b60200260200101516040015193506001925061072c565b309350600092505b6107ac8d8d848151811061074257610742613c54565b602002602001015160000151878e8a8151811061076157610761613c54565b6020026020010151600001518f8b8151811061077f5761077f613c54565b6020026020010151602001518f8c8151811061079d5761079d613c54565b6020026020010151898b612864565b6107b7600187613c80565b9550806107c381613c93565b9150506105bb565b50806107d681613c93565b9150506105af565b507f0bf6beb306958fd2b5107d64b133ea297e354c91e8508878a9a4abb9206d82288b863360405161081293929190613cf7565b60405180910390a15050505050505050505050565b600083815260026020908152604091829020548251808401909352601b835260008051602061418c833981519152918301919091528491906001600160a01b03166108855760405162461bcd60e51b81526004016102229190613c2b565b506108928460003361272a565b806108b157506108b1846000805160206142698339815191523361272a565b6040518060600160405280602a815260200161408c602a9139906108e85760405162461bcd60e51b81526004016102229190613c2b565b508251158015906108f95750815115155b60405180606001604052806025815260200161432960259139906109305760405162461bcd60e51b81526004016102229190613c2b565b5081518351146040518060400160405280601f8152602001600080516020614229833981519152815250906109785760405162461bcd60e51b81526004016102229190613c2b565b5060008085815260096020526040902060030154610100900460ff1660028111156109a5576109a5613c3e565b14604051806040016040528060158152602001600080516020614249833981519152815250906109e85760405162461bcd60e51b81526004016102229190613c2b565b5060005b8351811015610be057610a1985858381518110610a0b57610a0b613c54565b602002602001015130612a9e565b60115483516001600160a01b03909116906323b872dd903090869085908110610a4457610a44613c54565b6020026020010151878581518110610a5e57610a5e613c54565b60209081029190910101516040516001600160e01b031960e086901b1681526001600160a01b0393841660048201529290911660248301526044820152606401600060405180830381600087803b158015610ab857600080fd5b505af1158015610acc573d6000803e3d6000fd5b505060115486516001600160a01b03909116925063dd4670649150869084908110610af957610af9613c54565b60200260200101516040518263ffffffff1660e01b8152600401610b1f91815260200190565b600060405180830381600087803b158015610b3957600080fd5b505af1158015610b4d573d6000803e3d6000fd5b5050506000868152600f602052604081208551909250859084908110610b7557610b75613c54565b60200260200101516001600160a01b03166001600160a01b03168152602001908152602001600020848281518110610baf57610baf613c54565b6020908102919091018101518254600181018455600093845291909220015580610bd881613c93565b9150506109ec565b507fc47e064bd57c3620a43c1e4ac852f9185e9582f40bdd973a20f4c1bf520f38a5848333604051610c1493929190613d16565b60405180910390a150505050565b8251600014156040518060600160405280602581526020016143296025913990610c5f5760405162461bcd60e51b81526004016102229190613c2b565b5080518251146040518060400160405280601f815260200160008051602061422983398151915281525090610ca75760405162461bcd60e51b81526004016102229190613c2b565b5060008086815260096020526040902060030154610100900460ff166002811115610cd457610cd4613c3e565b1460405180604001604052806015815260200160008051602061424983398151915281525090610d175760405162461bcd60e51b81526004016102229190613c2b565b50610d228585612bff565b60008060005b8551811015610dbd5760009150610d5987878381518110610d4b57610d4b613c54565b602002602001015184612e6b565b858181518110610d6b57610d6b613c54565b602002602001015160000151868281518110610d8957610d89613c54565b602002602001015160200151610d9f9190613d82565b610da99084613c80565b925080610db581613c93565b915050610d28565b503482146040518060600160405280602381526020016140696023913990610df85760405162461bcd60e51b81526004016102229190613c2b565b506000805b8651811015610fa35760005b878281518110610e1b57610e1b613c54565b602002602001015160000151811015610f905760008a8152600c602052604090208751610e549089908690811061060657610606613c54565b610e6989868151811061062c5761062c613c54565b604051602001610e7a929190613cac565b60408051601f1981840301815290829052610e9491613cdb565b90815260408051918290036020908101832054838301909252601583527422bb32b73a1d10283630b1b29034b9903a30b5b2b760591b9083015260ff1615610eef5760405162461bcd60e51b81526004016102229190613c2b565b50610f718a8a8a8581518110610f0757610f07613c54565b6020026020010151602001518a8781518110610f2557610f25613c54565b6020026020010151600001518b8881518110610f4357610f43613c54565b6020026020010151602001518b8981518110610f6157610f61613c54565b6020026020010151600033612864565b610f7c600184613c80565b925080610f8881613c93565b915050610e09565b5080610f9b81613c93565b915050610dfd565b505050505050505050565b600082815260026020908152604091829020548251808401909352601b835260008051602061418c833981519152918301919091528391906001600160a01b031661100c5760405162461bcd60e51b81526004016102229190613c2b565b5060008084815260096020526040902060030154610100900460ff16600281111561103957611039613c3e565b146040518060400160405280601581526020016000805160206142498339815191528152509061107c5760405162461bcd60e51b81526004016102229190613c2b565b506110898360003361272a565b806110a857506110a8836000805160206142698339815191523361272a565b6040518060600160405280602a815260200161408c602a9139906110df5760405162461bcd60e51b81526004016102229190613c2b565b506000838152600960209081526040808320600401805460018181018355918552938390208651600290950201848155928601519201805460ff841660ff19909116179055517f6acb6edf217693871c0a1b4dc7f139e64435ab88c84cdc94a85daf36cd06849c9261116492878352602083019190915260ff16604082015260600190565b60405180910390a1505050565b6011546001600160a01b031633146111d75760405162461bcd60e51b8152602060048201526024808201527f4576656e743a20596f752063616e206e6f742075736520746869732066756e636044820152633a34b7b760e11b6064820152608401610222565b6111e2848484612a9e565b6000848152600f602090815260408083206001600160a01b03808616855290835281842080546001818101835591865284862001889055888552600e845282852091871685529252822080549192909161123d908490613d99565b90915550506000848152600e602090815260408083206001600160a01b03851684529091528120805460019290611275908490613c80565b909155505050505050565b8051600081815260026020908152604091829020548251808401909352601b835260008051602061418c833981519152918301919091526001600160a01b03166112dd5760405162461bcd60e51b81526004016102229190613c2b565b506020808301516000818152600a8352604090819020548151808301909252601e82526000805160206141d88339815191529382019390935290916113355760405162461bcd60e51b81526004016102229190613c2b565b5082600001518360200151816000600a01600083815260200190815260200160002060070154146040518060600160405280602981526020016140b660299139906113935760405162461bcd60e51b81526004016102229190613c2b565b5084602001518560400151806000600d01600084815260200190815260200160002054146040518060600160405280602c81526020016141ac602c9139906113ee5760405162461bcd60e51b81526004016102229190613c2b565b50865160009081526009602052604090206004015415158061143c575060018751600090815260096020526040902060030154610100900460ff16600281111561143a5761143a613c3e565b145b60405180606001604052806022815260200161430760229139906114735760405162461bcd60e51b81526004016102229190613c2b565b5060008061148989600001518a60400151613092565b91509150816040518060400160405280601a81526020017922bb32b73a1d102932b33ab732103230ba329034b99037bb32b960311b815250906114df5760405162461bcd60e51b81526004016102229190613c2b565b5060115460408a8101519051602481019190915260009182916001600160a01b039091169060440160408051601f198184030181529181526020820180516001600160e01b03166331a9108f60e11b1790525161153c9190613cdb565b6000604051808303816000865af19150503d8060008114611579576040519150601f19603f3d011682016040523d82523d6000602084013e61157e565b606091505b5091509150336001600160a01b0316818060200190518101906115a19190613dac565b6001600160a01b03161480156115b45750815b6040518060400160405280601d81526020016000805160206142e7833981519152815250906115f65760405162461bcd60e51b81526004016102229190613c2b565b505089516000908152600c6020526040808220601154828e01519251633ee1bcfd60e11b815260048101939093529293509161168f916001600160a01b0390911690637dc379fa90602401600060405180830381865afa15801561165e573d6000803e3d6000fd5b505050506040513d6000823e601f3d908101601f191682016040526116869190810190613e31565b6080015161275c565b60115460408d8101519051633ee1bcfd60e11b81526004810191909152611711916001600160a01b031690637dc379fa90602401600060405180830381865afa1580156116e0573d6000803e3d6000fd5b505050506040513d6000823e601f3d908101601f191682016040526117089190810190613e31565b60a0015161275c565b604051602001611722929190613cac565b60408051601f198184030181529082905261173c91613cdb565b90815260408051918290036020018220805493151560ff1990941693909317909255601154918b015160248201523360448201523060648201526000916001600160a01b03169060840160408051601f198184030181529181526020820180516001600160e01b031663025ba0e960e61b179052516117bb9190613cdb565b6000604051808303816000865af19150503d80600081146117f8576040519150601f19603f3d011682016040523d82523d6000602084013e6117fd565b606091505b50509050806040518060400160405280601d81526020016000805160206142e7833981519152815250906118445760405162461bcd60e51b81526004016102229190613c2b565b506000805b6020808d01516000908152600a90915260409020600201548110156118c1578b604001516000600a0160008e602001518152602001908152602001600020600201828154811061189b5761189b613c54565b9060005260206000200154036118af578091505b806118b981613c93565b915050611849565b506020808c0180516000908152600a9092526040808320915183529091206002908101549101906118f490600190613d99565b8154811061190457611904613c54565b90600052602060002001546000600a0160008d602001518152602001908152602001600020600201828154811061193d5761193d613c54565b60009182526020808320909101929092558c8201518152600a9091526040902060020180548061196f5761196f613ee0565b6000828152602080822083016000199081018390559092019092558c518252600e8152604080832033845290915281208054600193509091906119b3908490613d99565b9091555050895160408b01516119ca919033612a9e565b8951600090815260096020526040812060020180548492906119ed908490613d99565b9091555050604051600090339084908381818185875af1925050503d8060008114611a34576040519150601f19603f3d011682016040523d82523d6000602084013e611a39565b606091505b50509050806040518060600160405280602381526020016141696023913990611a755760405162461bcd60e51b81526004016102229190613c2b565b508a516020808d01516040808f01518151948552928401919091528201523360608201527f87ff245f55dca5f20f12247f39f781d5710eda96984e49512daad7b675e4147990608001610812565b600081815260026020908152604091829020548251808401909352601b835260008051602061418c833981519152918301919091528291906001600160a01b0316611b215760405162461bcd60e51b81526004016102229190613c2b565b50611b4d827fff3317e1e0e8c784290b957ee9b65ea8fe96420c4819db463283b95ecbe4a3fe3361272a565b60405180606001604052806031815260200161410f6031913990611b845760405162461bcd60e51b81526004016102229190613c2b565b5060008281526009602052604090206003015442600160501b9091046001600160401b0316108015611bc6575060008281526009602052604090206002015415155b15611c7d576000828152600960205260408082206002015490513391908381818185875af1925050503d8060008114611c1b576040519150601f19603f3d011682016040523d82523d6000602084013e611c20565b606091505b50509050806040518060400160405280601b81526020017a22bb32b73a1d102330b4b632b2103a379039b2b7321022ba3432b960291b81525090611c775760405162461bcd60e51b81526004016102229190613c2b565b50505050565b6002600083815260096020526040902060030154610100900460ff166002811115611caa57611caa613c3e565b141560405180604001604052806015815260200160008051602061424983398151915281525090611cee5760405162461bcd60e51b81526004016102229190613c2b565b50600082815260096020526040812060040154819081908103611d24576000858152600960205260409020600201549250611e17565b60005b600086815260096020526040902060040154811015611e15576000868152600960205260409020600401805482908110611d6357611d63613c54565b9060005260206000209060020201600001544211611e03576000868152600960205260409020600401805482908110611d9e57611d9e613c54565b600091825260208083206002928302016001015489845260099091526040909220015460ff9091169350611ddc90611dd7856064613d82565b613309565b600087815260096020526040902060020154909250611dfc908390613d99565b9350611e15565b80611e0d81613c93565b915050611d27565b505b60008581526009602052604081206002018054859290611e38908490613d99565b9091555050604051600090339085908381818185875af1925050503d8060008114611e7f576040519150601f19603f3d011682016040523d82523d6000602084013e611e84565b606091505b50509050806040518060600160405280602981526020016141406029913990611ec05760405162461bcd60e51b81526004016102229190613c2b565b506040518681527feea9f2e0c73d19e23063194ae9ba8512a252b6c0bd44e31315f611c5efaa8f0b9060200160405180910390a1505050505050565b600082815260026020908152604091829020548251808401909352601b835260008051602061418c833981519152918301919091528391906001600160a01b0316611f5a5760405162461bcd60e51b81526004016102229190613c2b565b5060008084815260096020526040902060030154610100900460ff166002811115611f8757611f87613c3e565b1460405180604001604052806015815260200160008051602061424983398151915281525090611fca5760405162461bcd60e51b81526004016102229190613c2b565b50611fd78360003361272a565b80611ff65750611ff6836000805160206142698339815191523361272a565b806120275750612027837fb5a7f51d0593e853ad0aa6b718ee0bdd10c4966eb62d243b69d538e5823d04013361272a565b6040518060600160405280603881526020016142af603891399061205e5760405162461bcd60e51b81526004016102229190613c2b565b504261206984613380565b6001600160401b031611158015612091575042612085846133ce565b6001600160401b031610155b60405180606001604052806025815260200161434e60259139906120c85760405162461bcd60e51b81526004016102229190613c2b565b50601154604051600091600191606091849182916001600160a01b0316906120fa9030908a9088908890602401613ef6565b60408051601f198184030181529181526020820180516001600160e01b0316631e27140560e01b1790525161212f9190613cdb565b6000604051808303816000865af19150503d806000811461216c576040519150601f19603f3d011682016040523d82523d6000602084013e612171565b606091505b5091509150816040518060400160405280601d81526020016000805160206142e7833981519152815250906121b95760405162461bcd60e51b81526004016102229190613c2b565b50808060200190518101906121ce9190613f2d565b9450846040518060400160405280601881526020017722bb32b73a1d1021b634b8103a34b1b5b2ba1032b93937b960411b815250906122205760405162461bcd60e51b81526004016102229190613c2b565b507f73b94823b249d530a2b7223a82b4ae3a07a452eb37749ebe162f8bba7fb01f5588883360405161225493929190613cf7565b60405180910390a15050505050505050565b600081815260026020908152604091829020548251808401909352601b835260008051602061418c8339815191529183019190915260609183916001600160a01b03166122c65760405162461bcd60e51b81526004016102229190613c2b565b506000838152600f602090815260408083203384528252918290208054835181840281018401909452808452909183018282801561232357602002820191906000526020600020905b81548152602001906001019080831161230f575b5050505050915050919050565b82518451146040518060400160405280601f8152602001600080516020614229833981519152815250906123775760405162461bcd60e51b81526004016102229190613c2b565b5080518251146040518060400160405280601f8152602001600080516020614229833981519152815250906123bf5760405162461bcd60e51b81526004016102229190613c2b565b5060008060005b85518110156124ae576124138782815181106123e4576123e4613c54565b60200260200101516000015188838151811061240257612402613c54565b602002602001015160200151612bff565b6000915061244a87828151811061242c5761242c613c54565b602002602001015160200151878381518110610d4b57610d4b613c54565b85818151811061245c5761245c613c54565b60200260200101516000015186828151811061247a5761247a613c54565b6020026020010151602001516124909190613d82565b61249a9084613c80565b9250806124a681613c93565b9150506123c6565b5034821460405180606001604052806023815260200161406960239139906124e95760405162461bcd60e51b81526004016102229190613c2b565b506000805b87518110156127205760005b87828151811061250c5761250c613c54565b60200260200101516000015181101561270d5760008060090160008b858151811061253957612539613c54565b602002602001015160000151815260200190815260200160002060030160019054906101000a900460ff16600281111561257557612575613c3e565b14604051806040016040528060158152602001600080516020614249833981519152815250906125b85760405162461bcd60e51b81526004016102229190613c2b565b506000600c0160008a84815181106125d2576125d2613c54565b602002602001015160000151815260200190815260200160002061260188858151811061060657610606613c54565b61261689868151811061062c5761062c613c54565b604051602001612627929190613cac565b60408051601f198184030181529082905261264191613cdb565b90815260408051918290036020908101832054838301909252601583527422bb32b73a1d10283630b1b29034b9903a30b5b2b760591b9083015260ff161561269c5760405162461bcd60e51b81526004016102229190613c2b565b506126ee8983815181106126b2576126b2613c54565b6020026020010151600001518a84815181106126d0576126d0613c54565b6020026020010151602001518a8581518110610f0757610f07613c54565b6126f9600184613c80565b92508061270581613c93565b9150506124fa565b508061271881613c93565b9150506124ee565b5050505050505050565b60009283526012602090815260408085209385529281528284206001600160a01b039290921684525290205460ff1690565b6060816000036127835750506040805180820190915260018152600360fc1b602082015290565b8160005b81156127ad578061279781613c93565b91506127a69050600a83613f65565b9150612787565b6000816001600160401b038111156127c7576127c761343a565b6040519080825280601f01601f1916602001820160405280156127f1576020820181803683370190505b5090505b841561285c57612806600183613d99565b9150612813600a86613f79565b61281e906030613c80565b60f81b81838151811061283357612833613c54565b60200101906001600160f81b031916908160001a905350612855600a86613f65565b94506127f5565b949350505050565b60008881526009602052604081206002018054889290612885908490613c80565b90915550506000878152600a6020526040812060080180548892906128ab908490613c80565b909155505060008881526009602052604080822060030154601154915163290be4dd60e01b8152620100009091046001600160401b031692916001600160a01b03169063290be4dd90612912908d908d908d908d908d908d908d908d908d90600401613f8d565b6020604051808303816000875af1158015612931573d6000803e3d6000fd5b505050506040513d601f19601f820116820180604052508101906129559190613ff4565b60008a8152600a6020908152604082206002018054600181018255908352908220018290559091506129868861275c565b61298f8861275c565b6040516020016129a0929190613cac565b60408051601f1981840301815282825260008e8152600c602052919091209092506001916129cf908490613cdb565b9081526040805160209281900383019020805460ff19169315159390931790925560008c8152600d82528281208590558d8152600e82528281206001600160a01b0388168252909152908120805460019290612a2c908490613c80565b909155505060008b8152600f602090815260408083206001600160a01b0388168085529083528184208054600181018255908552938390209093018590558051858152918201929092527f6606e4c8a88792ed4fd5159f9be235ca78e87fc1cbdc6158ea92d3ed3be9bf729101610812565b6000805b6000858152600f602090815260408083206001600160a01b0387168452909152902054811015612b29576000858152600f602090815260408083206001600160a01b03871684529091529020805485919083908110612b0357612b03613c54565b906000526020600020015403612b17578091505b80612b2181613c93565b915050612aa2565b506000848152600f602090815260408083206001600160a01b038616845290915290208054612b5a90600190613d99565b81548110612b6a57612b6a613c54565b6000918252602080832090910154868352600f825260408084206001600160a01b03871685529092529120805483908110612ba757612ba7613c54565b6000918252602080832090910192909255858152600f825260408082206001600160a01b038616835290925220805480612be357612be3613ee0565b6001900381819060005260206000200160009055905550505050565b612c088261341d565b6040518060400160405280601b815260200160008051602061418c83398151915281525090612c4a5760405162461bcd60e51b81526004016102229190613c2b565b506000818152600a6020908152604091829020548251808401909352601e83526000805160206141d883398151915291830191909152612c9d5760405162461bcd60e51b81526004016102229190613c2b565b50816000600a01600083815260200190815260200160002060070154146040518060600160405280602981526020016140b66029913990612cf15760405162461bcd60e51b81526004016102229190613c2b565b5060008281526009602090815260409182902060030154825160608101909352603180845260ff909116151560011492916141f89083013990612d475760405162461bcd60e51b81526004016102229190613c2b565b506000818152600a6020908152604091829020600d0154825160608101909352603080845260ff909116151560011492916140df9083013990612d9d5760405162461bcd60e51b81526004016102229190613c2b565b506000818152600a60205260409020600501544210801590612dd057506000818152600a60205260409020600601544211155b6040518060600160405280602981526020016140406029913990612e075760405162461bcd60e51b81526004016102229190613c2b565b50600082815260096020908152604080832060010154600e835281842033855283529281902054815160608101909252602680835293119290916142899083013990612e665760405162461bcd60e51b81526004016102229190613c2b565b505050565b8151612e779082613c80565b6000848152600a60205260409020600481015460029091015491925090612e9f908390613c80565b11156040518060600160405280602381526020016143736023913990612ed85760405162461bcd60e51b81526004016102229190613c2b565b506000838152600a60205260409020600901541561302a5760005b6000848152600a6020526040902060090154811015611c775782516000858152600a60205260409020600901805483908110612f3157612f31613c54565b906000526020600020015403613018576000848152600a60208190526040822001805483908110612f6457612f64613c54565b90600052602060002001546064612f7b9190613d82565b6000868152600a602052604081206003015491925090612f9b9083613309565b6020808701516000898152600a90925260409091206003015491925090612fc3908390613d99565b14604051806040016040528060198152602001784576656e743a2057726f6e67207469636b657420707269636560381b815250906130145760405162461bcd60e51b81526004016102229190613c2b565b5050505b8061302281613c93565b915050612ef3565b6020808301516000858152600a835260409081902060030154815180830190925260198252784576656e743a2057726f6e67207469636b657420707269636560381b938201939093529114611c775760405162461bcd60e51b81526004016102229190613c2b565b601154604051633ee1bcfd60e11b81526004810183905260009182918291829182916001600160a01b031690637dc379fa90602401600060405180830381865afa1580156130e4573d6000803e3d6000fd5b505050506040513d6000823e601f3d908101601f1916820160405261310c9190810190613e31565b60008881526009602052604090206003015481519192506201000090046001600160401b0390811691161461314d5760600151600194509250613302915050565b60005b6000888152600960205260409020600401548110156132f957600088815260096020526040902060040180548290811061318c5761318c613c54565b90600052602060002090600202016000015442116132e75760115460008981526009602052604081206004018054919283926001600160a01b03909116918b91869081106131dc576131dc613c54565b6000918252602090912060029091020160010154604051602481019290925260ff16604482015260640160408051601f198184030181529181526020820180516001600160e01b03166375c8c9bd60e11b1790525161323b9190613cdb565b6000604051808303816000865af19150503d8060008114613278576040519150601f19603f3d011682016040523d82523d6000602084013e61327d565b606091505b5091509150816040518060400160405280601d81526020016000805160206142e7833981519152815250906132c55760405162461bcd60e51b81526004016102229190613c2b565b5060019450808060200190518101906132de9190613ff4565b955050506132f9565b806132f181613c93565b915050613150565b50909350909150505b9250929050565b60006127106133188385613d82565b10156133605760405162461bcd60e51b8152602060048201526017602482015276050657263656e746167653a20526f756e647320746f203604c1b6044820152606401610222565b61271061336d8385613d82565b6133779190613f65565b90505b92915050565b60008061338c8361341d565b6133a85760405162461bcd60e51b81526004016102229061400d565b60009283526009016020525060409020600301546201000090046001600160401b031690565b6000806133da8361341d565b6133f65760405162461bcd60e51b81526004016102229061400d565b6000928352600901602052506040902060030154600160501b90046001600160401b031690565b6000908152600260205260409020546001600160a01b0316151590565b634e487b7160e01b600052604160045260246000fd5b604080519081016001600160401b03811182821017156134725761347261343a565b60405290565b604051606081016001600160401b03811182821017156134725761347261343a565b60405160e081016001600160401b03811182821017156134725761347261343a565b604051601f8201601f191681016001600160401b03811182821017156134e4576134e461343a565b604052919050565b60006001600160401b038211156135055761350561343a565b5060051b60200190565b600061352261351d846134ec565b6134bc565b8381529050602080820190600685901b84018681111561354157600080fd5b845b8181101561357e576040818903121561355c5760008081fd5b613564613450565b813581528382013584820152845292820192604001613543565b505050509392505050565b6001600160a01b038116811461359e57600080fd5b50565b60006001600160401b038211156135ba576135ba61343a565b50601f01601f191660200190565b600082601f8301126135d957600080fd5b813560206135e961351d836134ec565b82815260059290921b8401810191818101908684111561360857600080fd5b8286015b848110156136865780356001600160401b0381111561362b5760008081fd5b8701603f8101891361363d5760008081fd5b84810135604061364f61351d836135a1565b8281528b828486010111156136645760008081fd5b828285018983013760009281018801929092525084525091830191830161360c565b509695505050505050565b600080600080608085870312156136a757600080fd5b843593506020808601356001600160401b03808211156136c657600080fd5b818801915088601f8301126136da57600080fd5b6136e889833585850161350f565b95506040915081880135818111156136ff57600080fd5b8801601f81018a1361371057600080fd5b803561371e61351d826134ec565b8181526060918202830186019186820191908d84111561373d57600080fd5b938701935b8385101561378e5780858f03121561375a5760008081fd5b613762613478565b8535815288860135898201528786013561377b81613589565b8189015283529384019391870191613742565b9098508b01359550505050808311156137a657600080fd5b50506137b4878288016135c8565b91505092959194509250565b600082601f8301126137d157600080fd5b813560206137e161351d836134ec565b82815260059290921b8401810191818101908684111561380057600080fd5b8286015b8481101561368657803561381781613589565b8352918301918301613804565b60008060006060848603121561383957600080fd5b833592506020808501356001600160401b038082111561385857600080fd5b818701915087601f83011261386c57600080fd5b813561387a61351d826134ec565b81815260059190911b8301840190848101908a83111561389957600080fd5b938501935b828510156138b75784358252938501939085019061389e565b9650505060408701359250808311156138cf57600080fd5b50506138dd868287016137c0565b9150509250925092565b600082601f8301126138f857600080fd5b6133778383356020850161350f565b600080600080600060a0868803121561391f57600080fd5b853594506020860135935060408601356001600160401b038082111561394457600080fd5b61395089838a016138e7565b9450606088013591508082111561396657600080fd5b61397289838a016138e7565b9350608088013591508082111561398857600080fd5b50613995888289016135c8565b9150509295509295909350565b60008082840360608112156139b657600080fd5b833592506040601f19820112156139cc57600080fd5b506139d5613450565b60208401358152604084013560ff811681146139f057600080fd5b6020820152919491935090915050565b60008060008060808587031215613a1657600080fd5b84359350602085013592506040850135613a2f81613589565b91506060850135613a3f81613589565b939692955090935050565b600060608284031215613a5c57600080fd5b604051606081016001600160401b0381118282101715613a7e57613a7e61343a565b80604052508235815260208301356020820152604083013560408201528091505092915050565b600060208284031215613ab757600080fd5b5035919050565b60008060408385031215613ad157600080fd5b50508035926020909101359150565b6020808252825182820181905260009190848201906040850190845b81811015613b1857835183529284019291840191600101613afc565b50909695505050505050565b60008060008060808587031215613b3a57600080fd5b84356001600160401b0380821115613b5157600080fd5b818701915087601f830112613b6557600080fd5b613b748883356020850161350f565b95506020870135915080821115613b8a57600080fd5b613b96888389016138e7565b94506040870135915080821115613bac57600080fd5b613bb8888389016138e7565b93506060870135915080821115613bce57600080fd5b506137b4878288016135c8565b60005b83811015613bf6578181015183820152602001613bde565b50506000910152565b60008151808452613c17816020860160208601613bdb565b601f01601f19169290920160200192915050565b6020815260006133776020830184613bff565b634e487b7160e01b600052602160045260246000fd5b634e487b7160e01b600052603260045260246000fd5b634e487b7160e01b600052601160045260246000fd5b8082018082111561337a5761337a613c6a565b600060018201613ca557613ca5613c6a565b5060010190565b60008351613cbe818460208801613bdb565b835190830190613cd2818360208801613bdb565b01949350505050565b60008251613ced818460208701613bdb565b9190910192915050565b92835260208301919091526001600160a01b0316604082015260600190565b6000606082018583526020606081850152818651808452608086019150828801935060005b81811015613d605784516001600160a01b031683529383019391830191600101613d3b565b50506001600160a01b0395909516604094909401939093525091949350505050565b808202811582820484141761337a5761337a613c6a565b8181038181111561337a5761337a613c6a565b600060208284031215613dbe57600080fd5b8151613dc981613589565b9392505050565b80516001600160401b0381168114613de757600080fd5b919050565b600082601f830112613dfd57600080fd5b8151613e0b61351d826135a1565b818152846020838601011115613e2057600080fd5b61285c826020830160208701613bdb565b600060208284031215613e4357600080fd5b81516001600160401b0380821115613e5a57600080fd5b9083019060e08286031215613e6e57600080fd5b613e7661349a565b613e7f83613dd0565b81526020830151602082015260408301516040820152606083015160608201526080830151608082015260a083015160a082015260c083015182811115613ec557600080fd5b613ed187828601613dec565b60c08301525095945050505050565b634e487b7160e01b600052603160045260246000fd5b60018060a01b0385168152836020820152826040820152608060608201526000613f236080830184613bff565b9695505050505050565b600060208284031215613f3f57600080fd5b81518015158114613dc957600080fd5b634e487b7160e01b600052601260045260246000fd5b600082613f7457613f74613f4f565b500490565b600082613f8857613f88613f4f565b500690565b60006101208b83528a60208401528960408401528860608401528760808401528060a0840152613fbf81840188613bff565b95151560c084015250506001600160a01b039290921660e08301526001600160401b0316610100909101529695505050505050565b60006020828403121561400657600080fd5b5051919050565b602080825260189082015277115490cd4c0c0dce88125b9d985b1a59081d1bdad95b925960421b60408201526060019056fe4576656e743a2043616e277420627579207469636b65747320666f722063617465676f7279207965744576656e743a204d73672076616c7565206e6f7420657120746f74616c2070726963654576656e743a2043616c6c6572206973206e6f7420616e2061646d696e206f72206d6f64657261746f724576656e743a20546869732063617465676f727920697320666f7220616e6f74686572206576656e744576656e743a205469636b65747320666f7220746869732063617465676f727920617265206e6f742062757961626c654576656e743a204f6e6c7920636173686965722063616e20776974686472617720636f6e74726163742062616c616e63654576656e743a20436f6e74726163742062616c616e63652077697468647261772072657665727465644576656e743a2041636320726566756e642077697468647261772072657665727465644576656e743a204576656e7420646f6573206e6f7420657869737400000000004576656e743a205469636b657420646f65736e277420657869737420696e20746869732063617465676f72794576656e743a2043617465676f727920646f6573206e6f7420657869737400004576656e743a205469636b65747320666f7220616c6c2063617465676f7269657320617265206e6f742062757961626c654576656e743a20506172616d6574657273206c656e677468206e6f74206571004576656e743a204576656e742063616e63656c6564000000000000000000000071f3d55856e4058ed06ee057d79ada615f65cdf5f9ee88181b914225088f834f4576656e743a204d6178207469636b65747320666f72206163636f756e7420726561636865644576656e743a2043616c6c6572206973206e6f7420616e2061646d696e2c206d6f64657261746f72206f7220726563657074696f6e6973744576656e743a20436f6e74726163742063616c6c2072657665727465640000004576656e743a2043616e277420726566756e6420666f722074686973206576656e744576656e743a20506172616d657465722061727261792063616e277420626520656d7074794576656e743a2057726f6e67206461746520666f72207469636b657420636c697070696e674576656e743a204d6178207469636b65747320636f756e742069732072656163686564a264697066735822122076f26b4bbcaf2b08d4e421b54143c1c7341b39d956200f4ad5fad304e4ab8bf764736f6c63430008110033",
  "linkReferences": {},
  "deployedLinkReferences": {}
}