{
  "_format": "hh-sol-artifact-1",
  "contractName": "EventTicketControllerFacet",
  "sourceName": "contracts/EventDiamond/facets/EventTicketControllerFacet.sol",
  "abi": [
    {
      "anonymous": false,
      "inputs": [
        {
          "indexed": true,
          "internalType": "uint256",
          "name": "fromTokenId",
          "type": "uint256"
        },
        {
          "indexed": false,
          "internalType": "uint256",
          "name": "toTokenId",
          "type": "uint256"
        },
        {
          "indexed": true,
          "internalType": "address",
          "name": "fromAddress",
          "type": "address"
        },
        {
          "indexed": true,
          "internalType": "address",
          "name": "toAddress",
          "type": "address"
        }
      ],
      "name": "ConsecutiveTransfer",
      "type": "event"
    },
    {
      "anonymous": false,
      "inputs": [
        {
          "indexed": false,
          "internalType": "uint256",
          "name": "eventId",
          "type": "uint256"
        },
        {
          "indexed": false,
          "internalType": "uint256",
          "name": "date",
          "type": "uint256"
        },
        {
          "indexed": false,
          "internalType": "uint8",
          "name": "percentage",
          "type": "uint8"
        }
      ],
      "name": "EventRefundDateAdded",
      "type": "event"
    },
    {
      "anonymous": false,
      "inputs": [
        {
          "indexed": false,
          "internalType": "uint256",
          "name": "eventId",
          "type": "uint256"
        }
      ],
      "name": "EventWithdraw",
      "type": "event"
    },
    {
      "anonymous": false,
      "inputs": [
        {
          "indexed": false,
          "internalType": "uint256",
          "name": "eventId",
          "type": "uint256"
        },
        {
          "indexed": false,
          "internalType": "address[]",
          "name": "accounts",
          "type": "address[]"
        },
        {
          "indexed": false,
          "internalType": "address",
          "name": "staffMember",
          "type": "address"
        }
      ],
      "name": "InvitationSent",
      "type": "event"
    },
    {
      "anonymous": false,
      "inputs": [
        {
          "indexed": false,
          "internalType": "uint256",
          "name": "ticketId",
          "type": "uint256"
        },
        {
          "indexed": false,
          "internalType": "address",
          "name": "account",
          "type": "address"
        }
      ],
      "name": "RefundWithdraw",
      "type": "event"
    },
    {
      "anonymous": false,
      "inputs": [
        {
          "indexed": false,
          "internalType": "uint256",
          "name": "ticketId",
          "type": "uint256"
        },
        {
          "indexed": false,
          "internalType": "address",
          "name": "account",
          "type": "address"
        }
      ],
      "name": "TicketBought",
      "type": "event"
    },
    {
      "anonymous": false,
      "inputs": [
        {
          "indexed": false,
          "internalType": "uint256",
          "name": "eventId",
          "type": "uint256"
        },
        {
          "indexed": false,
          "internalType": "uint256",
          "name": "ticketId",
          "type": "uint256"
        },
        {
          "indexed": false,
          "internalType": "address",
          "name": "staffMember",
          "type": "address"
        }
      ],
      "name": "TicketClipped",
      "type": "event"
    },
    {
      "anonymous": false,
      "inputs": [
        {
          "indexed": false,
          "internalType": "uint256",
          "name": "eventId",
          "type": "uint256"
        },
        {
          "indexed": false,
          "internalType": "uint256",
          "name": "categoryId",
          "type": "uint256"
        },
        {
          "indexed": false,
          "internalType": "uint256",
          "name": "ticketId",
          "type": "uint256"
        },
        {
          "indexed": false,
          "internalType": "address",
          "name": "account",
          "type": "address"
        }
      ],
      "name": "TicketRefunded",
      "type": "event"
    },
    {
      "anonymous": false,
      "inputs": [
        {
          "indexed": false,
          "internalType": "uint256",
          "name": "eventId",
          "type": "uint256"
        },
        {
          "indexed": false,
          "internalType": "uint256",
          "name": "ticketCount",
          "type": "uint256"
        },
        {
          "indexed": false,
          "internalType": "address",
          "name": "staffMember",
          "type": "address"
        }
      ],
      "name": "TicketsBooked",
      "type": "event"
    },
    {
      "inputs": [
        {
          "internalType": "uint256",
          "name": "_eventId",
          "type": "uint256"
        },
        {
          "components": [
            {
              "internalType": "uint256",
              "name": "date",
              "type": "uint256"
            },
            {
              "internalType": "uint8",
              "name": "percentage",
              "type": "uint8"
            }
          ],
          "internalType": "struct RefundData",
          "name": "_refundData",
          "type": "tuple"
        }
      ],
      "name": "addRefundDeadline",
      "outputs": [],
      "stateMutability": "nonpayable",
      "type": "function"
    },
    {
      "inputs": [
        {
          "internalType": "uint256",
          "name": "_eventId",
          "type": "uint256"
        },
        {
          "components": [
            {
              "internalType": "uint256",
              "name": "categoryId",
              "type": "uint256"
            },
            {
              "internalType": "uint256",
              "name": "ticketAmount",
              "type": "uint256"
            }
          ],
          "internalType": "struct CategoryTicketAmount[]",
          "name": "_categoryTicketAmount",
          "type": "tuple[]"
        },
        {
          "components": [
            {
              "internalType": "uint256",
              "name": "row",
              "type": "uint256"
            },
            {
              "internalType": "uint256",
              "name": "seat",
              "type": "uint256"
            },
            {
              "internalType": "address",
              "name": "account",
              "type": "address"
            }
          ],
          "internalType": "struct TicketPlaceAddress[]",
          "name": "_place",
          "type": "tuple[]"
        },
        {
          "internalType": "string[]",
          "name": "_ticketMetadataUris",
          "type": "string[]"
        }
      ],
      "name": "bookTickets",
      "outputs": [],
      "stateMutability": "nonpayable",
      "type": "function"
    },
    {
      "inputs": [
        {
          "internalType": "uint256",
          "name": "_eventId",
          "type": "uint256"
        },
        {
          "internalType": "uint256",
          "name": "_categoryId",
          "type": "uint256"
        },
        {
          "components": [
            {
              "internalType": "uint256",
              "name": "amount",
              "type": "uint256"
            },
            {
              "internalType": "uint256",
              "name": "price",
              "type": "uint256"
            }
          ],
          "internalType": "struct TicketPriceData[]",
          "name": "_priceData",
          "type": "tuple[]"
        },
        {
          "components": [
            {
              "internalType": "uint256",
              "name": "row",
              "type": "uint256"
            },
            {
              "internalType": "uint256",
              "name": "seat",
              "type": "uint256"
            }
          ],
          "internalType": "struct TicketPlace[]",
          "name": "_place",
          "type": "tuple[]"
        },
        {
          "internalType": "string[]",
          "name": "_ticketMetadataUris",
          "type": "string[]"
        }
      ],
      "name": "buyTickets",
      "outputs": [],
      "stateMutability": "payable",
      "type": "function"
    },
    {
      "inputs": [
        {
          "components": [
            {
              "internalType": "uint256",
              "name": "eventId",
              "type": "uint256"
            },
            {
              "internalType": "uint256",
              "name": "categoryId",
              "type": "uint256"
            }
          ],
          "internalType": "struct EventCategoryData[]",
          "name": "_eventCategoryData",
          "type": "tuple[]"
        },
        {
          "components": [
            {
              "internalType": "uint256",
              "name": "amount",
              "type": "uint256"
            },
            {
              "internalType": "uint256",
              "name": "price",
              "type": "uint256"
            }
          ],
          "internalType": "struct TicketPriceData[]",
          "name": "_priceData",
          "type": "tuple[]"
        },
        {
          "components": [
            {
              "internalType": "uint256",
              "name": "row",
              "type": "uint256"
            },
            {
              "internalType": "uint256",
              "name": "seat",
              "type": "uint256"
            }
          ],
          "internalType": "struct TicketPlace[]",
          "name": "_place",
          "type": "tuple[]"
        },
        {
          "internalType": "string[]",
          "name": "_ticketMetadataUris",
          "type": "string[]"
        }
      ],
      "name": "buyTickets",
      "outputs": [],
      "stateMutability": "payable",
      "type": "function"
    },
    {
      "inputs": [
        {
          "internalType": "uint256",
          "name": "_eventId",
          "type": "uint256"
        },
        {
          "internalType": "uint256",
          "name": "_ticketId",
          "type": "uint256"
        },
        {
          "internalType": "uint256",
          "name": "signatureTimestamp",
          "type": "uint256"
        },
        {
          "internalType": "bytes",
          "name": "signature",
          "type": "bytes"
        }
      ],
      "name": "clipTicket",
      "outputs": [],
      "stateMutability": "nonpayable",
      "type": "function"
    },
    {
      "inputs": [
        {
          "internalType": "uint256",
          "name": "_eventId",
          "type": "uint256"
        }
      ],
      "name": "getAddressTicketIdsByEvent",
      "outputs": [
        {
          "internalType": "uint256[]",
          "name": "",
          "type": "uint256[]"
        }
      ],
      "stateMutability": "view",
      "type": "function"
    },
    {
      "inputs": [
        {
          "components": [
            {
              "internalType": "uint256",
              "name": "eventId",
              "type": "uint256"
            },
            {
              "internalType": "uint256",
              "name": "categoryId",
              "type": "uint256"
            },
            {
              "internalType": "uint256",
              "name": "ticketId",
              "type": "uint256"
            }
          ],
          "internalType": "struct ReturnTicketParams",
          "name": "_returnTicketParams",
          "type": "tuple"
        }
      ],
      "name": "returnTicket",
      "outputs": [],
      "stateMutability": "nonpayable",
      "type": "function"
    },
    {
      "inputs": [
        {
          "internalType": "uint256",
          "name": "_eventId",
          "type": "uint256"
        },
        {
          "internalType": "uint256[]",
          "name": "_ticketIds",
          "type": "uint256[]"
        },
        {
          "internalType": "address[]",
          "name": "_accounts",
          "type": "address[]"
        }
      ],
      "name": "sendInvitation",
      "outputs": [],
      "stateMutability": "nonpayable",
      "type": "function"
    },
    {
      "inputs": [
        {
          "internalType": "uint256",
          "name": "_eventId",
          "type": "uint256"
        },
        {
          "internalType": "uint256",
          "name": "_ticketId",
          "type": "uint256"
        },
        {
          "internalType": "address",
          "name": "_oldOwner",
          "type": "address"
        },
        {
          "internalType": "address",
          "name": "_newOwner",
          "type": "address"
        }
      ],
      "name": "updateTicketIdAfterTransfer",
      "outputs": [],
      "stateMutability": "nonpayable",
      "type": "function"
    },
    {
      "inputs": [
        {
          "internalType": "uint256",
          "name": "_eventId",
          "type": "uint256"
        }
      ],
      "name": "withdrawContractBalance",
      "outputs": [],
      "stateMutability": "nonpayable",
      "type": "function"
    }
  ],
  "bytecode": "0x608060405234801561001057600080fd5b50614965806100206000396000f3fe6080604052600436106100815760003560e01c8063262e6b4b1461008657806328e13a9e146100a85780632d3bf559146100c85780634f905e5d146100e85780637ce8b341146100fb5780639cbea3601461011b578063ab6a8d6a1461013b578063b5abe85a1461015b578063e3bccc0f1461017b578063ef71b78a146101b1575b600080fd5b34801561009257600080fd5b506100a66100a1366004613a52565b6101c4565b005b3480156100b457600080fd5b506100a66100c3366004613c0b565b6105a1565b3480156100d457600080fd5b506100a66100e3366004613d92565b610bfb565b6100a66100f6366004613e75565b611010565b34801561010757600080fd5b506100a6610116366004613f10565b6112da565b34801561012757600080fd5b506100a6610136366004613f6e565b61149d565b34801561014757600080fd5b506100a6610156366004613fb8565b6115ce565b34801561016757600080fd5b506100a6610176366004614013565b611d11565b34801561018757600080fd5b5061019b610196366004614013565b61214a565b6040516101a8919061402c565b60405180910390f35b6100a66101bf366004614070565b612214565b600084815260026020908152604091829020548251808401909352601b8352600080516020614726833981519152918301919091528591906001600160a01b031661022b5760405162461bcd60e51b81526004016102229190614177565b60405180910390fd5b50600080868152600a6020526040902060030154610100900460ff1660028111156102585761025861418a565b146040518060400160405280601581526020016000805160206147e38339815191528152509061029b5760405162461bcd60e51b81526004016102229190614177565b506102a88560003361252a565b806102c757506102c7856000805160206148038339815191523361252a565b806102f857506102f8857fb5a7f51d0593e853ad0aa6b718ee0bdd10c4966eb62d243b69d538e5823d04013361252a565b604051806060016040528060388152602001614849603891399061032f5760405162461bcd60e51b81526004016102229190614177565b5042611c2061033d8761255c565b61034791906141b6565b6001600160401b03161115801561036f575042610363866125aa565b6001600160401b031610155b6040518060600160405280602581526020016148e860259139906103a65760405162461bcd60e51b81526004016102229190614177565b506103b28484846125f9565b604051806040016040528060188152602001774576656e743a20496e76616c6964207369676e617475726560401b815250906104015760405162461bcd60e51b81526004016102229190614177565b50601554604051600091600191606091849182916001600160a01b0316906104339030908c90889088906024016141dd565b60408051601f198184030181529181526020820180516001600160e01b0316631e27140560e01b179052516104689190614214565b6000604051808303816000865af19150503d80600081146104a5576040519150601f19603f3d011682016040523d82523d6000602084013e6104aa565b606091505b5091509150816040518060400160405280601d8152602001600080516020614881833981519152815250906104f25760405162461bcd60e51b81526004016102229190614177565b50808060200190518101906105079190614230565b9450846040518060400160405280601881526020017722bb32b73a1d1021b634b8103a34b1b5b2ba1032b93937b960411b815250906105595760405162461bcd60e51b81526004016102229190614177565b507f73b94823b249d530a2b7223a82b4ae3a07a452eb37749ebe162f8bba7fb01f558a8a3360405161058d93929190614259565b60405180910390a150505050505050505050565b600084815260026020908152604091829020548251808401909352601b8352600080516020614726833981519152918301919091528591906001600160a01b03166105ff5760405162461bcd60e51b81526004016102229190614177565b5061060c8560003361252a565b8061062b575061062b856000805160206148038339815191523361252a565b6040518060600160405280602a81526020016145ff602a9139906106625760405162461bcd60e51b81526004016102229190614177565b508351600014156040518060600160405280602581526020016148c360259139906106a05760405162461bcd60e51b81526004016102229190614177565b5081518351146040518060400160405280601f81526020016000805160206147c3833981519152815250906106e85760405162461bcd60e51b81526004016102229190614177565b50600080868152600a6020526040902060030154610100900460ff1660028111156107155761071561418a565b146040518060400160405280601581526020016000805160206147e3833981519152815250906107585760405162461bcd60e51b81526004016102229190614177565b5060008060005b8651811015610979576000600b01600088838151811061078157610781614278565b602002602001015160000151815260200190815260200160002060000154600014156040518060400160405280601e8152602001600080516020614772833981519152815250906107e55760405162461bcd60e51b81526004016102229190614177565b50876000600b01600089848151811061080057610800614278565b6020026020010151600001518152602001908152602001600020600701541460405180606001604052806029815260200161465060299139906108565760405162461bcd60e51b81526004016102229190614177565b5086818151811061086957610869614278565b60200260200101516020015183610880919061428e565b92506000600b01600088838151811061089b5761089b614278565b602002602001015160000151815260200190815260200160002060040154836000600b0160008a85815181106108d3576108d3614278565b6020026020010151600001518152602001908152602001600020600201805490506108fe919061428e565b111560405180606001604052806023815260200161490d60239139906109375760405162461bcd60e51b81526004016102229190614177565b506000925086818151811061094e5761094e614278565b60200260200101516020015182610965919061428e565b915080610971816142a1565b91505061075f565b5060008060008060005b8a51811015610bb25760005b8b82815181106109a1576109a1614278565b602002602001015160200151811015610b9f5760008d8152600d602052604090208b516109eb908d90899081106109da576109da614278565b6020026020010151600001516127dc565b610a118d8981518110610a0057610a00614278565b6020026020010151602001516127dc565b604051602001610a229291906142ba565b60408051601f1981840301815290829052610a3c91614214565b90815260408051918290036020908101832054838301909252601583527422bb32b73a1d10283630b1b29034b9903a30b5b2b760591b9083015260ff1615610a975760405162461bcd60e51b81526004016102229190614177565b5060006001600160a01b03168b8781518110610ab557610ab5614278565b6020026020010151604001516001600160a01b031614610af8578a8681518110610ae157610ae1614278565b602002602001015160400151935060019250610b00565b309350600092505b610b808d8d8481518110610b1657610b16614278565b602002602001015160000151878e8a81518110610b3557610b35614278565b6020026020010151600001518f8b81518110610b5357610b53614278565b6020026020010151602001518f8c81518110610b7157610b71614278565b6020026020010151898b6128e4565b610b8b60018761428e565b955080610b97816142a1565b91505061098f565b5080610baa816142a1565b915050610983565b507f0bf6beb306958fd2b5107d64b133ea297e354c91e8508878a9a4abb9206d82288b8633604051610be693929190614259565b60405180910390a15050505050505050505050565b600083815260026020908152604091829020548251808401909352601b8352600080516020614726833981519152918301919091528491906001600160a01b0316610c595760405162461bcd60e51b81526004016102229190614177565b50610c668460003361252a565b80610c855750610c85846000805160206148038339815191523361252a565b6040518060600160405280602a81526020016145ff602a913990610cbc5760405162461bcd60e51b81526004016102229190614177565b50825115801590610ccd5750815115155b6040518060600160405280602581526020016148c36025913990610d045760405162461bcd60e51b81526004016102229190614177565b5081518351146040518060400160405280601f81526020016000805160206147c383398151915281525090610d4c5760405162461bcd60e51b81526004016102229190614177565b50600080858152600a6020526040902060030154610100900460ff166002811115610d7957610d7961418a565b146040518060400160405280601581526020016000805160206147e383398151915281525090610dbc5760405162461bcd60e51b81526004016102229190614177565b5060005b8351811015610fce57610e07848281518110610dde57610dde614278565b602090810291909101810151600088815260108352604080822030835290935291909120612ba9565b60155483516001600160a01b03909116906323b872dd903090869085908110610e3257610e32614278565b6020026020010151878581518110610e4c57610e4c614278565b60209081029190910101516040516001600160e01b031960e086901b1681526001600160a01b0393841660048201529290911660248301526044820152606401600060405180830381600087803b158015610ea657600080fd5b505af1158015610eba573d6000803e3d6000fd5b505060155486516001600160a01b03909116925063dd4670649150869084908110610ee757610ee7614278565b60200260200101516040518263ffffffff1660e01b8152600401610f0d91815260200190565b600060405180830381600087803b158015610f2757600080fd5b505af1158015610f3b573d6000803e3d6000fd5b50505060008681526010602052604081208551909250859084908110610f6357610f63614278565b60200260200101516001600160a01b03166001600160a01b03168152602001908152602001600020848281518110610f9d57610f9d614278565b6020908102919091018101518254600181018455600093845291909220015580610fc6816142a1565b915050610dc0565b507fc47e064bd57c3620a43c1e4ac852f9185e9582f40bdd973a20f4c1bf520f38a5848333604051611002939291906142e9565b60405180910390a150505050565b8251600014156040518060600160405280602581526020016148c3602591399061104d5760405162461bcd60e51b81526004016102229190614177565b5080518251146040518060400160405280601f81526020016000805160206147c3833981519152815250906110955760405162461bcd60e51b81526004016102229190614177565b50600080868152600a6020526040902060030154610100900460ff1660028111156110c2576110c261418a565b146040518060400160405280601581526020016000805160206147e3833981519152815250906111055760405162461bcd60e51b81526004016102229190614177565b506111108585612bf9565b60008060005b85518110156111ab57600091506111478787838151811061113957611139614278565b602002602001015184612e60565b85818151811061115957611159614278565b60200260200101516000015186828151811061117757611177614278565b60200260200101516020015161118d9190614355565b611197908461428e565b9250806111a3816142a1565b915050611116565b503482146040518060600160405280602381526020016145dc60239139906111e65760405162461bcd60e51b81526004016102229190614177565b506000805b86518110156112cf5760005b87828151811061120957611209614278565b6020026020010151600001518110156112bc5761129d8a8a8a858151811061123357611233614278565b6020026020010151602001518a878151811061125157611251614278565b6020026020010151600001518b888151811061126f5761126f614278565b6020026020010151602001518b898151811061128d5761128d614278565b60200260200101516000336128e4565b6112a860018461428e565b9250806112b4816142a1565b9150506111f7565b50806112c7816142a1565b9150506111eb565b505050505050505050565b600082815260026020908152604091829020548251808401909352601b8352600080516020614726833981519152918301919091528391906001600160a01b03166113385760405162461bcd60e51b81526004016102229190614177565b50600080848152600a6020526040902060030154610100900460ff1660028111156113655761136561418a565b146040518060400160405280601581526020016000805160206147e3833981519152815250906113a85760405162461bcd60e51b81526004016102229190614177565b506113b58360003361252a565b806113d457506113d4836000805160206148038339815191523361252a565b6040518060600160405280602a81526020016145ff602a91399061140b5760405162461bcd60e51b81526004016102229190614177565b506000838152600a60209081526040808320600401805460018181018355918552938390208651600290950201848155928601519201805460ff841660ff19909116179055517f6acb6edf217693871c0a1b4dc7f139e64435ab88c84cdc94a85daf36cd06849c9261149092878352602083019190915260ff16604082015260600190565b60405180910390a1505050565b6015546001600160a01b031633146115035760405162461bcd60e51b8152602060048201526024808201527f4576656e743a20596f752063616e206e6f742075736520746869732066756e636044820152633a34b7b760e11b6064820152608401610222565b60008481526010602090815260408083206001600160a01b03861684529091529020611530908490612ba9565b60008481526010602090815260408083206001600160a01b03808616855290835281842080546001818101835591865284862001889055888552600f845282852091871685529252822080549192909161158b90849061436c565b90915550506000848152600f602090815260408083206001600160a01b038516845290915281208054600192906115c390849061428e565b909155505050505050565b8051600081815260026020908152604091829020548251808401909352601b8352600080516020614726833981519152918301919091526001600160a01b031661162b5760405162461bcd60e51b81526004016102229190614177565b506020808301516000818152600b8352604090819020548151808301909252601e82526000805160206147728339815191529382019390935290916116835760405162461bcd60e51b81526004016102229190614177565b5082600001518360200151816000600b016000838152602001908152602001600020600701541460405180606001604052806029815260200161465060299139906116e15760405162461bcd60e51b81526004016102229190614177565b5084602001518560400151816000600e01600083815260200190815260200160002054146040518060600160405280602c8152602001614746602c91399061173c5760405162461bcd60e51b81526004016102229190614177565b5086516000908152600a602052604090206004015415158061178a5750600187516000908152600a6020526040902060030154610100900460ff1660028111156117885761178861418a565b145b6040518060600160405280602281526020016148a160229139906117c15760405162461bcd60e51b81526004016102229190614177565b506000806117d789600001518a60400151613087565b91509150816040518060400160405280601a81526020017922bb32b73a1d102932b33ab732103230ba329034b99037bb32b960311b8152509061182d5760405162461bcd60e51b81526004016102229190614177565b5060155460408a8101519051602481019190915260009182916001600160a01b039091169060440160408051601f198184030181529181526020820180516001600160e01b03166331a9108f60e11b1790525161188a9190614214565b6000604051808303816000865af19150503d80600081146118c7576040519150601f19603f3d011682016040523d82523d6000602084013e6118cc565b606091505b5091509150336001600160a01b0316818060200190518101906118ef919061437f565b6001600160a01b03161480156119025750815b6040518060400160405280601d8152602001600080516020614881833981519152815250906119445760405162461bcd60e51b81526004016102229190614177565b505089516000908152600d6020526040808220601554828e01519251633ee1bcfd60e11b81526004810193909352929350916119dd916001600160a01b0390911690637dc379fa90602401600060405180830381865afa1580156119ac573d6000803e3d6000fd5b505050506040513d6000823e601f3d908101601f191682016040526119d491908101906143fd565b608001516127dc565b60155460408d8101519051633ee1bcfd60e11b81526004810191909152611a5f916001600160a01b031690637dc379fa90602401600060405180830381865afa158015611a2e573d6000803e3d6000fd5b505050506040513d6000823e601f3d908101601f19168201604052611a5691908101906143fd565b60a001516127dc565b604051602001611a709291906142ba565b60408051601f1981840301815290829052611a8a91614214565b90815260408051918290036020018220805493151560ff1990941693909317909255601554918b015160248201523360448201523060648201526000916001600160a01b03169060840160408051601f198184030181529181526020820180516001600160e01b031663025ba0e960e61b17905251611b099190614214565b6000604051808303816000865af19150503d8060008114611b46576040519150601f19603f3d011682016040523d82523d6000602084013e611b4b565b606091505b50509050806040518060400160405280601d815260200160008051602061488183398151915281525090611b925760405162461bcd60e51b81526004016102229190614177565b50611bbd8a604001516000600b0160008d602001518152602001908152602001600020600201612ba9565b89516000908152600f602090815260408083203384529091528120805460019290611be990849061436c565b90915550506040808b01518b51600090815260106020908152838220338352905291909120611c189190612ba9565b89516000908152600a602052604081206002018054849290611c3b90849061436c565b9091555050604051600090339084908381818185875af1925050503d8060008114611c82576040519150601f19603f3d011682016040523d82523d6000602084013e611c87565b606091505b50509050806040518060600160405280602381526020016147036023913990611cc35760405162461bcd60e51b81526004016102229190614177565b508a516020808d01516040808f01518151948552928401919091528201523360608201527f87ff245f55dca5f20f12247f39f781d5710eda96984e49512daad7b675e4147990608001610be6565b600081815260026020908152604091829020548251808401909352601b8352600080516020614726833981519152918301919091528291906001600160a01b0316611d6f5760405162461bcd60e51b81526004016102229190614177565b50611d9b827fff3317e1e0e8c784290b957ee9b65ea8fe96420c4819db463283b95ecbe4a3fe3361252a565b6040518060600160405280603181526020016146a96031913990611dd25760405162461bcd60e51b81526004016102229190614177565b506000828152600a602052604090206003015442600160501b9091046001600160401b0316108015611e1457506000828152600a602052604090206002015415155b15611ecb576000828152600a60205260408082206002015490513391908381818185875af1925050503d8060008114611e69576040519150601f19603f3d011682016040523d82523d6000602084013e611e6e565b606091505b50509050806040518060400160405280601b81526020017a22bb32b73a1d102330b4b632b2103a379039b2b7321022ba3432b960291b81525090611ec55760405162461bcd60e51b81526004016102229190614177565b50505050565b60026000838152600a6020526040902060030154610100900460ff166002811115611ef857611ef861418a565b14156040518060400160405280601581526020016000805160206147e383398151915281525090611f3c5760405162461bcd60e51b81526004016102229190614177565b506000828152600a6020526040812060040154819081908103611f72576000858152600a60205260409020600201549250612065565b60005b6000868152600a6020526040902060040154811015612063576000868152600a60205260409020600401805482908110611fb157611fb1614278565b9060005260206000209060020201600001544211612051576000868152600a60205260409020600401805482908110611fec57611fec614278565b6000918252602080832060029283020160010154898452600a9091526040909220015460ff909116935061202a90612025856064614355565b61339a565b6000878152600a602052604090206002015490925061204a90839061436c565b9350612063565b8061205b816142a1565b915050611f75565b505b6000858152600a60205260408120600201805485929061208690849061436c565b9091555050604051600090339085908381818185875af1925050503d80600081146120cd576040519150601f19603f3d011682016040523d82523d6000602084013e6120d2565b606091505b50509050806040518060600160405280602981526020016146da602991399061210e5760405162461bcd60e51b81526004016102229190614177565b506040518681527feea9f2e0c73d19e23063194ae9ba8512a252b6c0bd44e31315f611c5efaa8f0b9060200160405180910390a1505050505050565b600081815260026020908152604091829020548251808401909352601b83526000805160206147268339815191529183019190915260609183916001600160a01b03166121aa5760405162461bcd60e51b81526004016102229190614177565b5060008381526010602090815260408083203384528252918290208054835181840281018401909452808452909183018282801561220757602002820191906000526020600020905b8154815260200190600101908083116121f3575b5050505050915050919050565b82518451146040518060400160405280601f81526020016000805160206147c38339815191528152509061225b5760405162461bcd60e51b81526004016102229190614177565b5080518251146040518060400160405280601f81526020016000805160206147c3833981519152815250906122a35760405162461bcd60e51b81526004016102229190614177565b5060008060005b8551811015612392576122f78782815181106122c8576122c8614278565b6020026020010151600001518883815181106122e6576122e6614278565b602002602001015160200151612bf9565b6000915061232e87828151811061231057612310614278565b60200260200101516020015187838151811061113957611139614278565b85818151811061234057612340614278565b60200260200101516000015186828151811061235e5761235e614278565b6020026020010151602001516123749190614355565b61237e908461428e565b92508061238a816142a1565b9150506122aa565b503482146040518060600160405280602381526020016145dc60239139906123cd5760405162461bcd60e51b81526004016102229190614177565b506000805b87518110156125205760005b8782815181106123f0576123f0614278565b60200260200101516000015181101561250d57600080600a0160008b858151811061241d5761241d614278565b602002602001015160000151815260200190815260200160002060030160019054906101000a900460ff1660028111156124595761245961418a565b146040518060400160405280601581526020016000805160206147e38339815191528152509061249c5760405162461bcd60e51b81526004016102229190614177565b506124ee8983815181106124b2576124b2614278565b6020026020010151600001518a84815181106124d0576124d0614278565b6020026020010151602001518a858151811061123357611233614278565b6124f960018461428e565b925080612505816142a1565b9150506123de565b5080612518816142a1565b9150506123d2565b5050505050505050565b60009283526016602090815260408085209385529281528284206001600160a01b039290921684525290205460ff1690565b60008061256883613411565b6125845760405162461bcd60e51b8152600401610222906144ac565b6000928352600a016020525060409020600301546201000090046001600160401b031690565b6000806125b683613411565b6125d25760405162461bcd60e51b8152600401610222906144ac565b6000928352600a01602052506040902060030154600160501b90046001600160401b031690565b6000426126088461025861428e565b11604051806040016040528060148152602001734576656e743a204f6c64207369676e617475726560601b815250906126545760405162461bcd60e51b81526004016102229190614177565b506040805160208082018790528183018690528251808303840181526060830184528051908201207b0ca2ba3432b932bab69029b4b3b732b21026b2b9b9b0b3b29d05199960211b6080840152609c8084018290528451808503909101815260bc8401855280519083012060155460e08086018b905286518087039091018152610100909501865292840180516001600160e01b03166331a9108f60e11b179052935190939260009283926001600160a01b039091169161271491614214565b6000604051808303816000865af19150503d8060008114612751576040519150601f19603f3d011682016040523d82523d6000602084013e612756565b606091505b5091509150816040518060400160405280601d81526020016000805160206148818339815191528152509061279e5760405162461bcd60e51b81526004016102229190614177565b50808060200190518101906127b3919061437f565b6001600160a01b03166127c6848861342e565b6001600160a01b03161498975050505050505050565b6060816000036128035750506040805180820190915260018152600360fc1b602082015290565b8160005b811561282d5780612817816142a1565b91506128269050600a836144f4565b9150612807565b6000816001600160401b038111156128475761284761393b565b6040519080825280601f01601f191660200182016040528015612871576020820181803683370190505b5090505b84156128dc5761288660018361436c565b9150612893600a86614508565b61289e90603061428e565b60f81b8183815181106128b3576128b3614278565b60200101906001600160f81b031916908160001a9053506128d5600a866144f4565b9450612875565b949350505050565b6000888152600a602052604090206006015460ff1615612941576129088882613452565b604051806060016040528060278152602001614629602791399061293f5760405162461bcd60e51b81526004016102229190614177565b505b6000806129508a8a898961350e565b60008c8152600a6020526040812060020180549395509193508a9261297690849061428e565b90915550506000898152600b6020526040812060080180548a929061299c90849061428e565b909155505060008a8152600a602052604080822060030154601554915163290be4dd60e01b8152620100009091046001600160401b031692916001600160a01b03169063290be4dd90612a03908f908f908f908a908a908f908f908f908d9060040161451c565b6020604051808303816000875af1158015612a22573d6000803e3d6000fd5b505050506040513d601f19601f82011682018060405250810190612a469190614583565b60008c8152600b602090815260408220600201805460018101825590835290822001829055909150612a778a6127dc565b612a808a6127dc565b604051602001612a919291906142ba565b604051602081830303815290604052905060016000600d0160008f815260200190815260200160002082604051612ac89190614214565b9081526040805160209281900383019020805460ff1916931515939093179092556000848152600e82528281208f90558f8152600f82528281206001600160a01b038a168252909152908120805460019290612b2590849061428e565b909155505060008d81526010602090815260408083206001600160a01b038a168085529083528184208054600181018255908552938390209093018590558051858152918201929092527f6606e4c8a88792ed4fd5159f9be235ca78e87fc1cbdc6158ea92d3ed3be9bf72910160405180910390a150505050505050505050505050565b60005b8154811015612bf45782828281548110612bc857612bc8614278565b906000526020600020015403612be257612be281836135f0565b80612bec816142a1565b915050612bac565b505050565b612c0282613411565b6040518060400160405280601b815260200160008051602061472683398151915281525090612c445760405162461bcd60e51b81526004016102229190614177565b506000818152600b6020908152604091829020548251808401909352601e835260008051602061477283398151915291830191909152612c975760405162461bcd60e51b81526004016102229190614177565b50816000600b01600083815260200190815260200160002060070154146040518060600160405280602981526020016146506029913990612ceb5760405162461bcd60e51b81526004016102229190614177565b506000828152600a602090815260409182902060030154825160608101909352603180845260ff909116151560011492916147929083013990612d415760405162461bcd60e51b81526004016102229190614177565b506000818152600b6020908152604091829020600e0154825160608101909352603080845260ff909116151560011492916146799083013990612d975760405162461bcd60e51b81526004016102229190614177565b506000818152600b60205260409020600501544210801590612dca57506000818152600b60205260409020600601544211155b6040518060600160405280602981526020016145b36029913990612e015760405162461bcd60e51b81526004016102229190614177565b506000828152600a6020908152604080832060010154600f835281842033855283529281902054815160608101909252602680835293119290916148239083013990612bf45760405162461bcd60e51b81526004016102229190614177565b8151612e6c908261428e565b6000848152600b60205260409020600481015460029091015491925090612e9490839061428e565b111560405180606001604052806023815260200161490d6023913990612ecd5760405162461bcd60e51b81526004016102229190614177565b506000838152600b60205260409020600a01541561301f5760005b6000848152600b60205260409020600a0154811015611ec55782516000858152600b60205260409020600a01805483908110612f2657612f26614278565b90600052602060002001540361300d576000848152600b60208190526040822001805483908110612f5957612f59614278565b90600052602060002001546064612f709190614355565b6000868152600b602052604081206003015491925090612f90908361339a565b6020808701516000898152600b90925260409091206003015491925090612fb890839061436c565b14604051806040016040528060198152602001784576656e743a2057726f6e67207469636b657420707269636560381b815250906130095760405162461bcd60e51b81526004016102229190614177565b5050505b80613017816142a1565b915050612ee8565b6020808301516000858152600b835260409081902060030154815180830190925260198252784576656e743a2057726f6e67207469636b657420707269636560381b938201939093529114611ec55760405162461bcd60e51b81526004016102229190614177565b601554604051633ee1bcfd60e11b815260048101839052600091829182918291829182916001600160a01b0390911690637dc379fa90602401600060405180830381865afa1580156130dd573d6000803e3d6000fd5b505050506040513d6000823e601f3d908101601f1916820160405261310591908101906143fd565b6000898152600a602052604090206003015481519192506201000090046001600160401b03908116911614613147576060015160019550935061339392505050565b60005b6000898152600a602052604090206004015481101561327f576000898152600a6020526040902060040180548290811061318657613186614278565b906000526020600020906002020160000154421161326d578215156000036131ed576000898152600a60205260409020600401805460019450829081106131cf576131cf614278565b600091825260209091206001600290920201015460ff16935061326d565b6000898152600a6020526040902060040180548591908390811061321357613213614278565b600091825260209091206001600290920201015460ff16111561326d576000898152600a6020526040902060040180548290811061325357613253614278565b600091825260209091206001600290920201015460ff1693505b80613277816142a1565b91505061314a565b5081151560010361338b57601554604051602481018990526044810185905260009182916001600160a01b039091169060640160408051601f198184030181529181526020820180516001600160e01b03166375c8c9bd60e11b179052516132e79190614214565b6000604051808303816000865af19150503d8060008114613324576040519150601f19603f3d011682016040523d82523d6000602084013e613329565b606091505b5091509150816040518060400160405280601d8152602001600080516020614881833981519152815250906133715760405162461bcd60e51b81526004016102229190614177565b50808060200190518101906133869190614583565b955050505b509350909150505b9250929050565b60006127106133a98385614355565b10156133f15760405162461bcd60e51b8152602060048201526017602482015276050657263656e746167653a20526f756e647320746f203604c1b6044820152606401610222565b6127106133fe8385614355565b61340891906144f4565b90505b92915050565b6000908152600260205260409020546001600160a01b0316151590565b600080600061343d8585613665565b9150915061344a816136a7565b509392505050565b6000306001600160a01b0383160361346c5750600161340b565b60005b6000848152600a6020526040902060050154811015613504576000848152600a6020526040812060050180546014929190849081106134b0576134b0614278565b6000918252602080832090910154835282810193909352604091820181206001600160a01b038716825290925290205460ff16156134f257600191505061340b565b806134fc816142a1565b91505061346f565b5060009392505050565b6000838152600b6020526040812060090154819060ff1615156001036135e0576000868152600d60205260409020613545856127dc565b61354e856127dc565b60405160200161355f9291906142ba565b60408051601f198184030181529082905261357991614214565b90815260408051918290036020908101832054838301909252601583527422bb32b73a1d10283630b1b29034b9903a30b5b2b760591b9083015260ff16156135d45760405162461bcd60e51b81526004016102229190614177565b508383915091506135e7565b5060009050805b94509492505050565b805481906136009060019061436c565b8154811061361057613610614278565b906000526020600020015481838154811061362d5761362d614278565b90600052602060002001819055508080548061364b5761364b61459c565b600190038181906000526020600020016000905590555050565b600080825160410361369b5760208301516040840151606085015160001a61368f8782858561385b565b94509450505050613393565b50600090506002613393565b60008160048111156136bb576136bb61418a565b036136c35750565b60018160048111156136d7576136d761418a565b0361371f5760405162461bcd60e51b815260206004820152601860248201527745434453413a20696e76616c6964207369676e617475726560401b6044820152606401610222565b60028160048111156137335761373361418a565b036137805760405162461bcd60e51b815260206004820152601f60248201527f45434453413a20696e76616c6964207369676e6174757265206c656e677468006044820152606401610222565b60038160048111156137945761379461418a565b036137ec5760405162461bcd60e51b815260206004820152602260248201527f45434453413a20696e76616c6964207369676e6174757265202773272076616c604482015261756560f01b6064820152608401610222565b60048160048111156138005761380061418a565b036138585760405162461bcd60e51b815260206004820152602260248201527f45434453413a20696e76616c6964207369676e6174757265202776272076616c604482015261756560f01b6064820152608401610222565b50565b6000806fa2a8918ca85bafe22016d0b997e4df60600160ff1b0383111561388857506000905060036135e7565b8460ff16601b141580156138a057508460ff16601c14155b156138b157506000905060046135e7565b6040805160008082526020820180845289905260ff881692820192909252606081018690526080810185905260019060a0016020604051602081039080840390855afa158015613905573d6000803e3d6000fd5b5050604051601f1901519150506001600160a01b03811661392e576000600192509250506135e7565b9660009650945050505050565b634e487b7160e01b600052604160045260246000fd5b604080519081016001600160401b03811182821017156139735761397361393b565b60405290565b604051606081016001600160401b03811182821017156139735761397361393b565b60405160e081016001600160401b03811182821017156139735761397361393b565b604051601f8201601f191681016001600160401b03811182821017156139e5576139e561393b565b604052919050565b60006001600160401b03821115613a0657613a0661393b565b50601f01601f191660200190565b6000613a27613a22846139ed565b6139bd565b9050828152838383011115613a3b57600080fd5b828260208301376000602084830101529392505050565b60008060008060808587031215613a6857600080fd5b84359350602085013592506040850135915060608501356001600160401b03811115613a9357600080fd5b8501601f81018713613aa457600080fd5b613ab387823560208401613a14565b91505092959194509250565b60006001600160401b03821115613ad857613ad861393b565b5060051b60200190565b6000613af0613a2284613abf565b8381529050602080820190600685901b840186811115613b0f57600080fd5b845b81811015613b4c5760408189031215613b2a5760008081fd5b613b32613951565b813581528382013584820152845292820192604001613b11565b505050509392505050565b6001600160a01b038116811461385857600080fd5b600082601f830112613b7d57600080fd5b81356020613b8d613a2283613abf565b82815260059290921b84018101918181019086841115613bac57600080fd5b8286015b84811015613c005780356001600160401b03811115613bcf5760008081fd5b8701603f81018913613be15760008081fd5b613bf2898683013560408401613a14565b845250918301918301613bb0565b509695505050505050565b60008060008060808587031215613c2157600080fd5b843593506020808601356001600160401b0380821115613c4057600080fd5b818801915088601f830112613c5457600080fd5b613c62898335858501613ae2565b9550604091508188013581811115613c7957600080fd5b8801601f81018a13613c8a57600080fd5b8035613c98613a2282613abf565b8181526060918202830186019186820191908d841115613cb757600080fd5b938701935b83851015613d085780858f031215613cd45760008081fd5b613cdc613979565b85358152888601358982015287860135613cf581613b57565b8189015283529384019391870191613cbc565b9098508b0135955050505080831115613d2057600080fd5b5050613ab387828801613b6c565b600082601f830112613d3f57600080fd5b81356020613d4f613a2283613abf565b82815260059290921b84018101918181019086841115613d6e57600080fd5b8286015b84811015613c00578035613d8581613b57565b8352918301918301613d72565b600080600060608486031215613da757600080fd5b833592506020808501356001600160401b0380821115613dc657600080fd5b818701915087601f830112613dda57600080fd5b8135613de8613a2282613abf565b81815260059190911b8301840190848101908a831115613e0757600080fd5b938501935b82851015613e2557843582529385019390850190613e0c565b965050506040870135925080831115613e3d57600080fd5b5050613e4b86828701613d2e565b9150509250925092565b600082601f830112613e6657600080fd5b61340883833560208501613ae2565b600080600080600060a08688031215613e8d57600080fd5b853594506020860135935060408601356001600160401b0380821115613eb257600080fd5b613ebe89838a01613e55565b94506060880135915080821115613ed457600080fd5b613ee089838a01613e55565b93506080880135915080821115613ef657600080fd5b50613f0388828901613b6c565b9150509295509295909350565b6000808284036060811215613f2457600080fd5b833592506040601f1982011215613f3a57600080fd5b50613f43613951565b60208401358152604084013560ff81168114613f5e57600080fd5b6020820152919491935090915050565b60008060008060808587031215613f8457600080fd5b84359350602085013592506040850135613f9d81613b57565b91506060850135613fad81613b57565b939692955090935050565b600060608284031215613fca57600080fd5b604051606081016001600160401b0381118282101715613fec57613fec61393b565b80604052508235815260208301356020820152604083013560408201528091505092915050565b60006020828403121561402557600080fd5b5035919050565b6020808252825182820181905260009190848201906040850190845b8181101561406457835183529284019291840191600101614048565b50909695505050505050565b6000806000806080858703121561408657600080fd5b84356001600160401b038082111561409d57600080fd5b818701915087601f8301126140b157600080fd5b6140c088833560208501613ae2565b955060208701359150808211156140d657600080fd5b6140e288838901613e55565b945060408701359150808211156140f857600080fd5b61410488838901613e55565b9350606087013591508082111561411a57600080fd5b50613ab387828801613b6c565b60005b8381101561414257818101518382015260200161412a565b50506000910152565b60008151808452614163816020860160208601614127565b601f01601f19169290920160200192915050565b602081526000613408602083018461414b565b634e487b7160e01b600052602160045260246000fd5b634e487b7160e01b600052601160045260246000fd5b6001600160401b038281168282160390808211156141d6576141d66141a0565b5092915050565b60018060a01b038516815283602082015282604082015260806060820152600061420a608083018461414b565b9695505050505050565b60008251614226818460208701614127565b9190910192915050565b60006020828403121561424257600080fd5b8151801515811461425257600080fd5b9392505050565b92835260208301919091526001600160a01b0316604082015260600190565b634e487b7160e01b600052603260045260246000fd5b8082018082111561340b5761340b6141a0565b6000600182016142b3576142b36141a0565b5060010190565b600083516142cc818460208801614127565b8351908301906142e0818360208801614127565b01949350505050565b6000606082018583526020606081850152818651808452608086019150828801935060005b818110156143335784516001600160a01b03168352938301939183019160010161430e565b50506001600160a01b0395909516604094909401939093525091949350505050565b808202811582820484141761340b5761340b6141a0565b8181038181111561340b5761340b6141a0565b60006020828403121561439157600080fd5b815161425281613b57565b80516001600160401b03811681146143b357600080fd5b919050565b600082601f8301126143c957600080fd5b81516143d7613a22826139ed565b8181528460208386010111156143ec57600080fd5b6128dc826020830160208701614127565b60006020828403121561440f57600080fd5b81516001600160401b038082111561442657600080fd5b9083019060e0828603121561443a57600080fd5b61444261399b565b61444b8361439c565b81526020830151602082015260408301516040820152606083015160608201526080830151608082015260a083015160a082015260c08301518281111561449157600080fd5b61449d878286016143b8565b60c08301525095945050505050565b602080825260189082015277115490cd4c0c0dce88125b9d985b1a59081d1bdad95b925960421b604082015260600190565b634e487b7160e01b600052601260045260246000fd5b600082614503576145036144de565b500490565b600082614517576145176144de565b500690565b60006101208b83528a60208401528960408401528860608401528760808401528060a084015261454e8184018861414b565b95151560c084015250506001600160a01b039290921660e08301526001600160401b0316610100909101529695505050505050565b60006020828403121561459557600080fd5b5051919050565b634e487b7160e01b600052603160045260246000fdfe4576656e743a2043616e277420627579207469636b65747320666f722063617465676f7279207965744576656e743a204d73672076616c7565206e6f7420657120746f74616c2070726963654576656e743a2043616c6c6572206973206e6f7420616e2061646d696e206f72206d6f64657261746f7257686974656c6973743a2041646465727373206973206e6f7420696e207768697465206c6973744576656e743a20546869732063617465676f727920697320666f7220616e6f74686572206576656e744576656e743a205469636b65747320666f7220746869732063617465676f727920617265206e6f742062757961626c654576656e743a204f6e6c7920636173686965722063616e20776974686472617720636f6e74726163742062616c616e63654576656e743a20436f6e74726163742062616c616e63652077697468647261772072657665727465644576656e743a2041636320726566756e642077697468647261772072657665727465644576656e743a204576656e7420646f6573206e6f7420657869737400000000004576656e743a205469636b657420646f65736e277420657869737420696e20746869732063617465676f72794576656e743a2043617465676f727920646f6573206e6f7420657869737400004576656e743a205469636b65747320666f7220616c6c2063617465676f7269657320617265206e6f742062757961626c654576656e743a20506172616d6574657273206c656e677468206e6f74206571004576656e743a204576656e742063616e63656c6564000000000000000000000071f3d55856e4058ed06ee057d79ada615f65cdf5f9ee88181b914225088f834f4576656e743a204d6178207469636b65747320666f72206163636f756e7420726561636865644576656e743a2043616c6c6572206973206e6f7420616e2061646d696e2c206d6f64657261746f72206f7220726563657074696f6e6973744576656e743a20436f6e74726163742063616c6c2072657665727465640000004576656e743a2043616e277420726566756e6420666f722074686973206576656e744576656e743a20506172616d657465722061727261792063616e277420626520656d7074794576656e743a2057726f6e67206461746520666f72207469636b657420636c697070696e674576656e743a204d6178207469636b65747320636f756e742069732072656163686564a2646970667358221220b7c506aea734585c25ef80972c90513e56a98548df24377f22723b358b36c23664736f6c63430008110033",
  "linkReferences": {},
  "deployedLinkReferences": {}
}