{
  "_format": "hh-sol-artifact-1",
  "contractName": "EventFacet",
  "sourceName": "contracts/EventDiamond/facets/EventFacet.sol",
  "abi": [
    {
      "anonymous": false,
      "inputs": [
        {
          "indexed": true,
          "internalType": "address",
          "name": "owner",
          "type": "address"
        },
        {
          "indexed": true,
          "internalType": "address",
          "name": "approved",
          "type": "address"
        },
        {
          "indexed": true,
          "internalType": "uint256",
          "name": "tokenId",
          "type": "uint256"
        }
      ],
      "name": "Approval",
      "type": "event"
    },
    {
      "anonymous": false,
      "inputs": [
        {
          "indexed": true,
          "internalType": "address",
          "name": "owner",
          "type": "address"
        },
        {
          "indexed": true,
          "internalType": "address",
          "name": "operator",
          "type": "address"
        },
        {
          "indexed": false,
          "internalType": "bool",
          "name": "approved",
          "type": "bool"
        }
      ],
      "name": "ApprovalForAll",
      "type": "event"
    },
    {
      "anonymous": false,
      "inputs": [
        {
          "indexed": false,
          "internalType": "uint256",
          "name": "_fromTokenId",
          "type": "uint256"
        },
        {
          "indexed": false,
          "internalType": "uint256",
          "name": "_toTokenId",
          "type": "uint256"
        }
      ],
      "name": "BatchMetadataUpdate",
      "type": "event"
    },
    {
      "anonymous": false,
      "inputs": [
        {
          "indexed": false,
          "internalType": "uint256",
          "name": "eventId",
          "type": "uint256"
        }
      ],
      "name": "EventCanceled",
      "type": "event"
    },
    {
      "anonymous": false,
      "inputs": [
        {
          "indexed": false,
          "internalType": "uint256",
          "name": "eventId",
          "type": "uint256"
        },
        {
          "indexed": false,
          "internalType": "address",
          "name": "account",
          "type": "address"
        },
        {
          "indexed": false,
          "internalType": "address",
          "name": "setter",
          "type": "address"
        }
      ],
      "name": "EventCashierSet",
      "type": "event"
    },
    {
      "anonymous": false,
      "inputs": [
        {
          "indexed": false,
          "internalType": "uint256",
          "name": "eventId",
          "type": "uint256"
        },
        {
          "indexed": false,
          "internalType": "string",
          "name": "metadataUri",
          "type": "string"
        }
      ],
      "name": "EventCreated",
      "type": "event"
    },
    {
      "anonymous": false,
      "inputs": [
        {
          "indexed": false,
          "internalType": "uint256",
          "name": "eventId",
          "type": "uint256"
        },
        {
          "indexed": false,
          "internalType": "uint256",
          "name": "time",
          "type": "uint256"
        }
      ],
      "name": "EventPostponed",
      "type": "event"
    },
    {
      "anonymous": false,
      "inputs": [
        {
          "indexed": false,
          "internalType": "uint256",
          "name": "_tokenId",
          "type": "uint256"
        }
      ],
      "name": "MetadataUpdate",
      "type": "event"
    },
    {
      "anonymous": false,
      "inputs": [
        {
          "indexed": false,
          "internalType": "uint256",
          "name": "eventId",
          "type": "uint256"
        },
        {
          "indexed": true,
          "internalType": "bytes32",
          "name": "role",
          "type": "bytes32"
        },
        {
          "indexed": true,
          "internalType": "bytes32",
          "name": "previousAdminRole",
          "type": "bytes32"
        },
        {
          "indexed": true,
          "internalType": "bytes32",
          "name": "newAdminRole",
          "type": "bytes32"
        }
      ],
      "name": "RoleAdminChanged",
      "type": "event"
    },
    {
      "anonymous": false,
      "inputs": [
        {
          "indexed": false,
          "internalType": "uint256",
          "name": "eventId",
          "type": "uint256"
        },
        {
          "indexed": true,
          "internalType": "bytes32",
          "name": "role",
          "type": "bytes32"
        },
        {
          "indexed": true,
          "internalType": "address",
          "name": "account",
          "type": "address"
        },
        {
          "indexed": true,
          "internalType": "address",
          "name": "sender",
          "type": "address"
        }
      ],
      "name": "RoleGranted",
      "type": "event"
    },
    {
      "anonymous": false,
      "inputs": [
        {
          "indexed": false,
          "internalType": "uint256",
          "name": "eventId",
          "type": "uint256"
        },
        {
          "indexed": true,
          "internalType": "bytes32",
          "name": "role",
          "type": "bytes32"
        },
        {
          "indexed": true,
          "internalType": "address",
          "name": "account",
          "type": "address"
        },
        {
          "indexed": true,
          "internalType": "address",
          "name": "sender",
          "type": "address"
        }
      ],
      "name": "RoleRevoked",
      "type": "event"
    },
    {
      "anonymous": false,
      "inputs": [
        {
          "indexed": true,
          "internalType": "address",
          "name": "from",
          "type": "address"
        },
        {
          "indexed": true,
          "internalType": "address",
          "name": "to",
          "type": "address"
        },
        {
          "indexed": true,
          "internalType": "uint256",
          "name": "tokenId",
          "type": "uint256"
        }
      ],
      "name": "Transfer",
      "type": "event"
    },
    {
      "inputs": [
        {
          "internalType": "uint256",
          "name": "_eventId",
          "type": "uint256"
        },
        {
          "internalType": "bytes32",
          "name": "_role",
          "type": "bytes32"
        },
        {
          "internalType": "address",
          "name": "_account",
          "type": "address"
        }
      ],
      "name": "addTeamMember",
      "outputs": [],
      "stateMutability": "nonpayable",
      "type": "function"
    },
    {
      "inputs": [
        {
          "internalType": "address",
          "name": "to",
          "type": "address"
        },
        {
          "internalType": "uint256",
          "name": "tokenId",
          "type": "uint256"
        }
      ],
      "name": "approve",
      "outputs": [],
      "stateMutability": "nonpayable",
      "type": "function"
    },
    {
      "inputs": [
        {
          "internalType": "address",
          "name": "owner",
          "type": "address"
        }
      ],
      "name": "balanceOf",
      "outputs": [
        {
          "internalType": "uint256",
          "name": "",
          "type": "uint256"
        }
      ],
      "stateMutability": "view",
      "type": "function"
    },
    {
      "inputs": [
        {
          "internalType": "uint256",
          "name": "_eventId",
          "type": "uint256"
        }
      ],
      "name": "cancelEvent",
      "outputs": [],
      "stateMutability": "nonpayable",
      "type": "function"
    },
    {
      "inputs": [
        {
          "internalType": "uint256",
          "name": "_maxTicketsPerClient",
          "type": "uint256"
        },
        {
          "internalType": "uint64",
          "name": "_startDate",
          "type": "uint64"
        },
        {
          "internalType": "uint64",
          "name": "_endDate",
          "type": "uint64"
        },
        {
          "internalType": "string",
          "name": "_metadataURI",
          "type": "string"
        }
      ],
      "name": "createEvent",
      "outputs": [],
      "stateMutability": "nonpayable",
      "type": "function"
    },
    {
      "inputs": [
        {
          "internalType": "uint256",
          "name": "tokenId",
          "type": "uint256"
        }
      ],
      "name": "endTime",
      "outputs": [
        {
          "internalType": "uint64",
          "name": "",
          "type": "uint64"
        }
      ],
      "stateMutability": "view",
      "type": "function"
    },
    {
      "inputs": [],
      "name": "fetchAllEventIds",
      "outputs": [
        {
          "internalType": "uint256[]",
          "name": "",
          "type": "uint256[]"
        }
      ],
      "stateMutability": "view",
      "type": "function"
    },
    {
      "inputs": [],
      "name": "fetchAllEvents",
      "outputs": [
        {
          "components": [
            {
              "internalType": "address",
              "name": "organizer",
              "type": "address"
            },
            {
              "internalType": "uint256",
              "name": "maxTicketsPerClient",
              "type": "uint256"
            },
            {
              "internalType": "uint256",
              "name": "balance",
              "type": "uint256"
            },
            {
              "internalType": "bool",
              "name": "areAllCategoryTicketsBuyable",
              "type": "bool"
            },
            {
              "internalType": "enum EventStatus",
              "name": "status",
              "type": "uint8"
            },
            {
              "internalType": "uint64",
              "name": "startTime",
              "type": "uint64"
            },
            {
              "internalType": "uint64",
              "name": "endTime",
              "type": "uint64"
            },
            {
              "components": [
                {
                  "internalType": "uint256",
                  "name": "date",
                  "type": "uint256"
                },
                {
                  "internalType": "uint8",
                  "name": "percentage",
                  "type": "uint8"
                }
              ],
              "internalType": "struct RefundData[]",
              "name": "refundData",
              "type": "tuple[]"
            }
          ],
          "internalType": "struct Event[]",
          "name": "",
          "type": "tuple[]"
        }
      ],
      "stateMutability": "view",
      "type": "function"
    },
    {
      "inputs": [
        {
          "internalType": "uint256",
          "name": "_eventId",
          "type": "uint256"
        }
      ],
      "name": "fetchEventById",
      "outputs": [
        {
          "components": [
            {
              "internalType": "address",
              "name": "organizer",
              "type": "address"
            },
            {
              "internalType": "uint256",
              "name": "maxTicketsPerClient",
              "type": "uint256"
            },
            {
              "internalType": "uint256",
              "name": "balance",
              "type": "uint256"
            },
            {
              "internalType": "bool",
              "name": "areAllCategoryTicketsBuyable",
              "type": "bool"
            },
            {
              "internalType": "enum EventStatus",
              "name": "status",
              "type": "uint8"
            },
            {
              "internalType": "uint64",
              "name": "startTime",
              "type": "uint64"
            },
            {
              "internalType": "uint64",
              "name": "endTime",
              "type": "uint64"
            },
            {
              "components": [
                {
                  "internalType": "uint256",
                  "name": "date",
                  "type": "uint256"
                },
                {
                  "internalType": "uint8",
                  "name": "percentage",
                  "type": "uint8"
                }
              ],
              "internalType": "struct RefundData[]",
              "name": "refundData",
              "type": "tuple[]"
            }
          ],
          "internalType": "struct Event",
          "name": "eventObj",
          "type": "tuple"
        }
      ],
      "stateMutability": "view",
      "type": "function"
    },
    {
      "inputs": [],
      "name": "fetchOwnedEvents",
      "outputs": [
        {
          "internalType": "uint256[]",
          "name": "",
          "type": "uint256[]"
        }
      ],
      "stateMutability": "view",
      "type": "function"
    },
    {
      "inputs": [
        {
          "internalType": "uint256",
          "name": "tokenId",
          "type": "uint256"
        }
      ],
      "name": "getApproved",
      "outputs": [
        {
          "internalType": "address",
          "name": "",
          "type": "address"
        }
      ],
      "stateMutability": "view",
      "type": "function"
    },
    {
      "inputs": [
        {
          "internalType": "uint256",
          "name": "eventId",
          "type": "uint256"
        }
      ],
      "name": "getEventMembers",
      "outputs": [
        {
          "components": [
            {
              "internalType": "address",
              "name": "account",
              "type": "address"
            },
            {
              "internalType": "bytes32",
              "name": "role",
              "type": "bytes32"
            }
          ],
          "internalType": "struct MemberData[]",
          "name": "",
          "type": "tuple[]"
        }
      ],
      "stateMutability": "view",
      "type": "function"
    },
    {
      "inputs": [
        {
          "internalType": "uint256",
          "name": "eventId",
          "type": "uint256"
        },
        {
          "internalType": "bytes32",
          "name": "role",
          "type": "bytes32"
        }
      ],
      "name": "getRoleAdmin",
      "outputs": [
        {
          "internalType": "bytes32",
          "name": "",
          "type": "bytes32"
        }
      ],
      "stateMutability": "view",
      "type": "function"
    },
    {
      "inputs": [
        {
          "internalType": "uint256",
          "name": "eventId",
          "type": "uint256"
        },
        {
          "internalType": "bytes32",
          "name": "role",
          "type": "bytes32"
        },
        {
          "internalType": "address",
          "name": "account",
          "type": "address"
        }
      ],
      "name": "grantRole",
      "outputs": [],
      "stateMutability": "nonpayable",
      "type": "function"
    },
    {
      "inputs": [
        {
          "internalType": "uint256",
          "name": "eventId",
          "type": "uint256"
        },
        {
          "internalType": "bytes32",
          "name": "role",
          "type": "bytes32"
        },
        {
          "internalType": "address",
          "name": "account",
          "type": "address"
        }
      ],
      "name": "hasRole",
      "outputs": [
        {
          "internalType": "bool",
          "name": "",
          "type": "bool"
        }
      ],
      "stateMutability": "view",
      "type": "function"
    },
    {
      "inputs": [
        {
          "internalType": "address",
          "name": "owner",
          "type": "address"
        },
        {
          "internalType": "address",
          "name": "operator",
          "type": "address"
        }
      ],
      "name": "isApprovedForAll",
      "outputs": [
        {
          "internalType": "bool",
          "name": "",
          "type": "bool"
        }
      ],
      "stateMutability": "view",
      "type": "function"
    },
    {
      "inputs": [],
      "name": "name",
      "outputs": [
        {
          "internalType": "string",
          "name": "",
          "type": "string"
        }
      ],
      "stateMutability": "view",
      "type": "function"
    },
    {
      "inputs": [
        {
          "internalType": "uint256",
          "name": "tokenId",
          "type": "uint256"
        }
      ],
      "name": "ownerOf",
      "outputs": [
        {
          "internalType": "address",
          "name": "",
          "type": "address"
        }
      ],
      "stateMutability": "view",
      "type": "function"
    },
    {
      "inputs": [
        {
          "internalType": "uint256",
          "name": "_eventId",
          "type": "uint256"
        },
        {
          "internalType": "uint64",
          "name": "_time",
          "type": "uint64"
        }
      ],
      "name": "postponeEvent",
      "outputs": [],
      "stateMutability": "nonpayable",
      "type": "function"
    },
    {
      "inputs": [
        {
          "internalType": "uint256",
          "name": "_eventId",
          "type": "uint256"
        }
      ],
      "name": "removeEvent",
      "outputs": [],
      "stateMutability": "nonpayable",
      "type": "function"
    },
    {
      "inputs": [
        {
          "internalType": "uint256",
          "name": "_eventId",
          "type": "uint256"
        },
        {
          "internalType": "bytes32",
          "name": "_role",
          "type": "bytes32"
        },
        {
          "internalType": "address",
          "name": "_account",
          "type": "address"
        }
      ],
      "name": "removeTeamMember",
      "outputs": [],
      "stateMutability": "nonpayable",
      "type": "function"
    },
    {
      "inputs": [
        {
          "internalType": "uint256",
          "name": "eventId",
          "type": "uint256"
        },
        {
          "internalType": "bytes32",
          "name": "role",
          "type": "bytes32"
        },
        {
          "internalType": "address",
          "name": "account",
          "type": "address"
        }
      ],
      "name": "renounceRole",
      "outputs": [],
      "stateMutability": "nonpayable",
      "type": "function"
    },
    {
      "inputs": [
        {
          "internalType": "uint256",
          "name": "eventId",
          "type": "uint256"
        },
        {
          "internalType": "bytes32",
          "name": "role",
          "type": "bytes32"
        },
        {
          "internalType": "address",
          "name": "account",
          "type": "address"
        }
      ],
      "name": "revokeRole",
      "outputs": [],
      "stateMutability": "nonpayable",
      "type": "function"
    },
    {
      "inputs": [
        {
          "internalType": "address",
          "name": "from",
          "type": "address"
        },
        {
          "internalType": "address",
          "name": "to",
          "type": "address"
        },
        {
          "internalType": "uint256",
          "name": "tokenId",
          "type": "uint256"
        }
      ],
      "name": "safeTransferFrom",
      "outputs": [],
      "stateMutability": "nonpayable",
      "type": "function"
    },
    {
      "inputs": [
        {
          "internalType": "address",
          "name": "from",
          "type": "address"
        },
        {
          "internalType": "address",
          "name": "to",
          "type": "address"
        },
        {
          "internalType": "uint256",
          "name": "tokenId",
          "type": "uint256"
        },
        {
          "internalType": "bytes",
          "name": "data",
          "type": "bytes"
        }
      ],
      "name": "safeTransferFrom",
      "outputs": [],
      "stateMutability": "nonpayable",
      "type": "function"
    },
    {
      "inputs": [
        {
          "internalType": "address",
          "name": "operator",
          "type": "address"
        },
        {
          "internalType": "bool",
          "name": "approved",
          "type": "bool"
        }
      ],
      "name": "setApprovalForAll",
      "outputs": [],
      "stateMutability": "nonpayable",
      "type": "function"
    },
    {
      "inputs": [
        {
          "internalType": "uint256",
          "name": "_eventId",
          "type": "uint256"
        },
        {
          "internalType": "address",
          "name": "_oldCashier",
          "type": "address"
        },
        {
          "internalType": "address",
          "name": "_newCashier",
          "type": "address"
        }
      ],
      "name": "setEventCashier",
      "outputs": [],
      "stateMutability": "nonpayable",
      "type": "function"
    },
    {
      "inputs": [
        {
          "internalType": "uint256",
          "name": "tokenId",
          "type": "uint256"
        }
      ],
      "name": "startTime",
      "outputs": [
        {
          "internalType": "uint64",
          "name": "",
          "type": "uint64"
        }
      ],
      "stateMutability": "view",
      "type": "function"
    },
    {
      "inputs": [
        {
          "internalType": "bytes4",
          "name": "interfaceId",
          "type": "bytes4"
        }
      ],
      "name": "supportsInterface",
      "outputs": [
        {
          "internalType": "bool",
          "name": "",
          "type": "bool"
        }
      ],
      "stateMutability": "view",
      "type": "function"
    },
    {
      "inputs": [],
      "name": "symbol",
      "outputs": [
        {
          "internalType": "string",
          "name": "",
          "type": "string"
        }
      ],
      "stateMutability": "view",
      "type": "function"
    },
    {
      "inputs": [
        {
          "internalType": "uint256",
          "name": "tokenId",
          "type": "uint256"
        }
      ],
      "name": "tokenURI",
      "outputs": [
        {
          "internalType": "string",
          "name": "",
          "type": "string"
        }
      ],
      "stateMutability": "view",
      "type": "function"
    },
    {
      "inputs": [
        {
          "internalType": "address",
          "name": "from",
          "type": "address"
        },
        {
          "internalType": "address",
          "name": "to",
          "type": "address"
        },
        {
          "internalType": "uint256",
          "name": "tokenId",
          "type": "uint256"
        }
      ],
      "name": "transferFrom",
      "outputs": [],
      "stateMutability": "nonpayable",
      "type": "function"
    },
    {
      "inputs": [
        {
          "internalType": "uint256",
          "name": "_eventId",
          "type": "uint256"
        },
        {
          "internalType": "string",
          "name": "_newMetadataURI",
          "type": "string"
        }
      ],
      "name": "updateEventTokenUri",
      "outputs": [],
      "stateMutability": "nonpayable",
      "type": "function"
    },
    {
      "inputs": [
        {
          "internalType": "uint256",
          "name": "_eventId",
          "type": "uint256"
        }
      ],
      "name": "withdrawFromCanceledEvent",
      "outputs": [],
      "stateMutability": "nonpayable",
      "type": "function"
    }
  ],
  "bytecode": "0x608060405234801561001057600080fd5b50613fd3806100206000396000f3fe608060405234801561001057600080fd5b50600436106101965760003560e01c806301ffc9a71461019b57806306fdde03146101c4578063081812fc146101d9578063095ea7b3146102045780630d517286146102195780630e1b943d14610239578063119345aa146102595780632053d82c1461026c57806323b872dd1461027f5780633660ff8314610292578063397d4dbc146102a75780633ec4c968146102c85780633f69babd146102f357806342842e0e1461030657806344c816fa146103195780634a120dd71461032c57806356164e1e1461033f578063598be85c146103525780636352211e146103655780636a4bc7de1461037857806370a082311461038b578063724bdedf1461039e5780637986b230146103b157806395d89b41146103c4578063a22cb465146103cc578063a3cfe160146103df578063abae6af9146103f2578063b015554414610407578063b88d4fde1461041a578063c87b56dd1461042d578063dc91a98f14610440578063e985e9c514610453578063f99c229214610466578063fb42204d1461046e575b600080fd5b6101af6101a936600461335c565b50600090565b60405190151581526020015b60405180910390f35b6101cc610481565b6040516101bb91906133c9565b6101ec6101e73660046133dc565b610518565b6040516001600160a01b0390911681526020016101bb565b61021761021236600461340a565b610541565b005b61022c6102273660046133dc565b61065b565b6040516101bb919061353d565b61024c6102473660046133dc565b6107ed565b6040516101bb9190613550565b6101af6102673660046135a8565b61086c565b61021761027a36600461368c565b6108a3565b61021761028d3660046136d2565b6109a8565b61029a6109d9565b6040516101bb9190613713565b6102ba6102b5366004613775565b610c1b565b6040519081526020016101bb565b6102db6102d63660046133dc565b610c3f565b6040516001600160401b0390911681526020016101bb565b6102176103013660046133dc565b610c4a565b6102176103143660046136d2565b611089565b6102db6103273660046133dc565b6110a4565b61021761033a3660046135a8565b6110af565b61021761034d3660046133dc565b6110d6565b610217610360366004613797565b6113f3565b6101ec6103733660046133dc565b611576565b6102176103863660046135a8565b6115b4565b6102ba6103993660046137ce565b6116d6565b6102176103ac3660046135a8565b611762565b6102176103bf3660046133dc565b6117db565b6101cc6119a2565b6102176103da3660046137eb565b6119b5565b6102176103ed366004613845565b6119c4565b6103fa611bd3565b6040516101bb91906138ac565b6102176104153660046135a8565b611d1e565b6102176104283660046138f0565b611e3e565b6101cc61043b3660046133dc565b611e70565b61021761044e366004613963565b611fb7565b6101af61046136600461398f565b612314565b6103fa612342565b61021761047c3660046135a8565b612447565b60606000806000018054610494906139bd565b80601f01602080910402602001604051908101604052809291908181526020018280546104c0906139bd565b801561050d5780601f106104e25761010080835404028352916020019161050d565b820191906000526020600020905b8154815290600101906020018083116104f057829003601f168201915b505050505091505090565b60008061052483612467565b60009283526004016020525060409020546001600160a01b031690565b600061054c82611576565b9050806001600160a01b0316836001600160a01b0316036105be5760405162461bcd60e51b815260206004820152602160248201527f4552433732313a20617070726f76616c20746f2063757272656e74206f776e656044820152603960f91b60648201526084015b60405180910390fd5b336001600160a01b03821614806105da57506105da8133612314565b61064c5760405162461bcd60e51b815260206004820152603e60248201527f4552433732313a20617070726f76652063616c6c6572206973206e6f7420746f60448201527f6b656e206f776e6572206e6f7220617070726f76656420666f7220616c6c000060648201526084016105b5565b610656838361248f565b505050565b610663613250565b600082815260026020908152604091829020548251808401909352601b8352600080516020613efe833981519152918301919091528391906001600160a01b03166106c15760405162461bcd60e51b81526004016105b591906133c9565b506000838152600960209081526040918290208251610100808201855282546001600160a01b0316825260018301549382019390935260028083015494820194909452600382015460ff8082161515606084015291949293608086019391049091169081111561073357610733613436565b600281111561074457610744613436565b815260038201546001600160401b036201000082048116602080850191909152600160501b90920416604080840191909152600484018054825181850281018501909352808352606090940193919290919060009084015b828210156107de57600084815260209081902060408051808201909152600285029091018054825260019081015460ff1682840152908352909201910161079c565b50505091525090949350505050565b6000818152601360209081526040808320805482518185028101850190935280835260609493849084015b82821015610860576000848152602090819020604080518082019091526002850290910180546001600160a01b03168252600190810154828401529083529092019101610818565b50505050915050919050565b600083815260126020908152604080832085845282528083206001600160a01b038516845290915281205460ff165b949350505050565b600082815260026020908152604091829020548251808401909352601b8352600080516020613efe833981519152918301919091528391906001600160a01b03166109015760405162461bcd60e51b81526004016105b591906133c9565b5061090e8360003361086c565b8061092d575061092d83600080516020613f5e8339815191523361086c565b6040518060600160405280602a8152602001613ea3602a9139906109645760405162461bcd60e51b81526004016105b591906133c9565b5061096f83836124fe565b6040518381527ff8e1a15aba9398e019f0b49df1a4fde98ee17ae345cb5f6b5e2c27f5033e8ce7906020015b60405180910390a1505050565b6109b23382612586565b6109ce5760405162461bcd60e51b81526004016105b5906139f7565b6106568383836125e4565b606060006109e660075490565b905060008060015b838111610a32576000818152600960205260409020546001600160a01b031615610a205782610a1c81613a5b565b9350505b80610a2a81613a5b565b9150506109ee565b506000826001600160401b03811115610a4d57610a4d6135e1565b604051908082528060200260200182016040528015610a8657816020015b610a73613250565b815260200190600190039081610a6b5790505b50905060015b848111610c12576000818152600960205260409020546001600160a01b031615610c00576000818152600960209081526040918290208251610100808201855282546001600160a01b0316825260018301549382019390935260028083015494820194909452600382015460ff80821615156060840152919492936080860193910490911690811115610b2157610b21613436565b6002811115610b3257610b32613436565b815260038201546001600160401b036201000082048116602080850191909152600160501b90920416604080840191909152600484018054825181850281018501909352808352606090940193919290919060009084015b82821015610bcc57600084815260209081902060408051808201909152600285029091018054825260019081015460ff16828401529083529092019101610b8a565b5050505081525050828481518110610be657610be6613a74565b60200260200101819052508280610bfc90613a5b565b9350505b80610c0a81613a5b565b915050610a8c565b50949350505050565b60008281526012602090815260408083208484529091529020600101545b92915050565b6000610c3982612776565b600081815260026020908152604091829020548251808401909352601b8352600080516020613efe833981519152918301919091528291906001600160a01b0316610ca85760405162461bcd60e51b81526004016105b591906133c9565b50610cb58260003361086c565b6040518060400160405280601d8152602001600080516020613f3e83398151915281525090610cf75760405162461bcd60e51b81526004016105b591906133c9565b506002600083815260096020526040902060030154610100900460ff166002811115610d2557610d25613436565b141560405180604001604052806015815260200174115d995b9d0e88115d995b9d0818d85b98d95b1959605a1b81525090610d735760405162461bcd60e51b81526004016105b591906133c9565b506000805b6000848152600b6020526040902054811015610def576000848152600b602052604081208054600a92919084908110610db357610db3613a74565b906000526020600020015481526020019081526020016000206008015482610ddb9190613a8a565b915080610de781613a5b565b915050610d78565b50600083815260096020908152604091829020600201548251808401909352601e83527f4576656e743a204576656e742063616e27742062652063616e63656c65640000918301919091528214610e595760405162461bcd60e51b81526004016105b591906133c9565b5060005b6000848152600b60205260409020548110156110395760005b6000858152600b602052604081208054600a92919085908110610e9b57610e9b613a74565b9060005260206000200154815260200190815260200160002060020180549050811015611026576011546000868152600b60205260408120805491926001600160a01b031691600a91849187908110610ef657610ef6613a74565b906000526020600020015481526020019081526020016000206002018381548110610f2357610f23613a74565b9060005260206000200154604051602401610f4091815260200190565b60408051601f198184030181529181526020820180516001600160e01b03166355ccad4360e01b17905251610f759190613a9d565b6000604051808303816000865af19150503d8060008114610fb2576040519150601f19603f3d011682016040523d82523d6000602084013e610fb7565b606091505b5091505060008082806020019051810190610fd29190613ab9565b60008a81526010602090815260408083206001600160a01b0386168452909152812080549395509193508392611009908490613a8a565b92505081905550505050808061101e90613a5b565b915050610e76565b508061103181613a5b565b915050610e5d565b50600083815260096020908152604091829020600301805461ff00191661020017905590518481527fceaf11772900fe569752a0207c8639fb8228eb8663456dc9eaa3a08f927a8705910161099b565b61065683838360405180602001604052806000815250611e3e565b6000610c39826127c4565b826110ba8484610c1b565b6110c48282612813565b6110cf85858561281e565b5050505050565b600081815260026020908152604091829020548251808401909352601b8352600080516020613efe833981519152918301919091528291906001600160a01b03166111345760405162461bcd60e51b81526004016105b591906133c9565b506111418260003361086c565b6040518060400160405280601d8152602001600080516020613f3e833981519152815250906111835760405162461bcd60e51b81526004016105b591906133c9565b506000828152600b60209081526040808320805482518185028101850190935280835291929091908301828280156111da57602002820191906000526020600020905b8154815260200190600101908083116111c6575b505050505090506000805b825181101561124b576000600a01600084838151811061120757611207613a74565b6020026020010151815260200190815260200160002060020180549050600003611239578161123581613a5b565b9250505b8061124381613a5b565b9150506111e5565b50808251146040518060400160405280601d81526020017f4576656e743a2054686572652061726520736f6c64207469636b657473000000815250906112a45760405162461bcd60e51b81526004016105b591906133c9565b506112ae846128e8565b600084815260096020526040812080546001600160a01b031916815560018101829055600281018290556003810180546001600160901b0319169055906112f86004830182613293565b50506000848152600b60205260408120611311916132b4565b60005b82518110156110cf576000600a01600084838151811061133657611336613a74565b6020026020010151815260200190815260200160002060008082016000905560018201600061136591906132d2565b6113736002830160006132b4565b600060038301819055600483018190556005830181905560068301819055600783018190556008830181905560098301805460ff191690556113b990600a8401906132b4565b6113c7600b830160006132b4565b506000600c8201819055600d820155600e01805460ff19169055806113eb81613a5b565b915050611314565b600083815260026020908152604091829020548251808401909352601b8352600080516020613efe833981519152918301919091528491906001600160a01b03166114515760405162461bcd60e51b81526004016105b591906133c9565b5061145e8460003361086c565b6040518060400160405280601d8152602001600080516020613f3e833981519152815250906114a05760405162461bcd60e51b81526004016105b591906133c9565b506114ba84600080516020613f1e8339815191528561086c565b604051806060016040528060318152602001613ecd60319139906114f15760405162461bcd60e51b81526004016105b591906133c9565b5061150b84600080516020613f1e833981519152856110af565b61152484600080516020613f1e83398151915284612447565b604080518581526001600160a01b038416602082015233918101919091527f9f54db3c6775e8717da6972b09a7ed552d62f5fd63696a1a75e58f61bd240193906060015b60405180910390a150505050565b60008181526002602052604081205481906001600160a01b0316806115ad5760405162461bcd60e51b81526004016105b590613ae7565b9392505050565b600083815260026020908152604091829020548251808401909352601b8352600080516020613efe833981519152918301919091528491906001600160a01b03166116125760405162461bcd60e51b81526004016105b591906133c9565b5061161f8460003361086c565b6040518060400160405280601d8152602001600080516020613f3e833981519152815250906116615760405162461bcd60e51b81526004016105b591906133c9565b5060408051808201909152601d81527f4576656e743a2043616e277420736574206361736869657220686572650000006020820152600080516020613f1e83398151915284036116c45760405162461bcd60e51b81526004016105b591906133c9565b506116d0848484612447565b50505050565b6000806001600160a01b0383166117415760405162461bcd60e51b815260206004820152602960248201527f4552433732313a2061646472657373207a65726f206973206e6f7420612076616044820152683634b21037bbb732b960b91b60648201526084016105b5565b6001600160a01b039092166000908152600390920160205250604090205490565b6001600160a01b03811633146117d05760405162461bcd60e51b815260206004820152602d60248201527f526f6c65436f6e74726f6c3a2063616e206f6e6c792072656e6f756e6365207260448201526c37b632b9903337b91039b2b63360991b60648201526084016105b5565b61065683838361281e565b6002600082815260096020526040902060030154610100900460ff16600281111561180857611808613436565b146040518060400160405280601c81526020017b115d995b9d0e88115d995b9d081a5cc81b9bdd0818d85b98d95b195960221b8152509061185c5760405162461bcd60e51b81526004016105b591906133c9565b50600081815260106020908152604080832033845282529182902054825180840190935260158352744576656e743a204e6f207769746864726177616c7360581b918301919091526118c15760405162461bcd60e51b81526004016105b591906133c9565b5060008181526010602090815260408083203384528252808320805490849055848452600990925282206002018054919283926118ff908490613b19565b9091555050604051600090339083908381818185875af1925050503d8060008114611946576040519150601f19603f3d011682016040523d82523d6000602084013e61194b565b606091505b50509050806040518060400160405280601b81526020017a22bb32b73a1d102330b4b632b2103a379039b2b7321022ba3432b960291b815250906116d05760405162461bcd60e51b81526004016105b591906133c9565b60606000806001018054610494906139bd565b6119c03383836129ad565b5050565b826001600160401b0316826001600160401b03161180156119ee575042836001600160401b031610155b60405180604001604052806018815260200177455243353030373a20496e76616c696420656e6454696d6560401b81525090611a3d5760405162461bcd60e51b81526004016105b591906133c9565b50611a4c600780546001019055565b6000611a5760075490565b600081815260096020526040812080546001600160a01b0319163317815560018082018990556003820180546001600160401b03898116600160501b02600160501b600160901b0319918c16620100000261ff01600160501b03199093169290921790931792831681178255949550919361ff00191661ff00600160501b03600160901b0319909116176101008302179055507f9ce3d6db707bca4ba0eabed8fba1e2c013a1c0bc1132a764170a7854d198c73d8284604051611b1b929190613b2c565b60405180910390a1611b2f82600033612a7c565b611b4882600080516020613f5e83398151915233612a7c565b611b73827f21702c8af46127c7fa207f89d0b0a8441bb32959a0ac7df790e9ab1a25c9892633612a7c565b611b9e827fb5a7f51d0593e853ad0aa6b718ee0bdd10c4966eb62d243b69d538e5823d040133612a7c565b611bb782600080516020613f1e83398151915233612a7c565b611bc13383612b88565b611bcb82846124fe565b505050505050565b60606000611be060075490565b905060008060015b838111611c4f57611bfb8160003361086c565b80611c1a5750611c1a81600080516020613f5e8339815191523361086c565b8015611c2a5750611c2a81612caf565b15611c3d5782611c3981613a5b565b9350505b80611c4781613a5b565b915050611be8565b506000826001600160401b03811115611c6a57611c6a6135e1565b604051908082528060200260200182016040528015611c93578160200160208202803683370190505b50905060015b848111610c1257611cac8160003361086c565b80611ccb5750611ccb81600080516020613f5e8339815191523361086c565b8015611cdb5750611cdb81612caf565b15611d0c5780828481518110611cf357611cf3613a74565b602090810291909101015282611d0881613a5b565b9350505b80611d1681613a5b565b915050611c99565b600083815260026020908152604091829020548251808401909352601b8352600080516020613efe833981519152918301919091528491906001600160a01b0316611d7c5760405162461bcd60e51b81526004016105b591906133c9565b50611d898460003361086c565b6040518060400160405280601d8152602001600080516020613f3e83398151915281525090611dcb5760405162461bcd60e51b81526004016105b591906133c9565b50600080516020613f1e8339815191528314156040518060400160405280602081526020017f4576656e743a2043616e27742072656d6f76652063617368696572206865726581525090611e325760405162461bcd60e51b81526004016105b591906133c9565b506116d08484846110af565b611e483383612586565b611e645760405162461bcd60e51b81526004016105b5906139f7565b6116d084848484612ccc565b60606000611e7d83612467565b600083815260068201602052604081208054611e98906139bd565b80601f0160208091040260200160405190810160405280929190818152602001828054611ec4906139bd565b8015611f115780601f10611ee657610100808354040283529160200191611f11565b820191906000526020600020905b815481529060010190602001808311611ef457829003601f168201915b505050505090506000611f2f60408051602081019091526000815290565b90508051600003611f4257509392505050565b815115611f75578082604051602001611f5c929190613b45565b6040516020818303038152906040529350505050919050565b6000815111611f935760405180602001604052806000815250611fae565b80611f9d86612cff565b604051602001611f5c929190613b45565b95945050505050565b600082815260026020908152604091829020548251808401909352601b8352600080516020613efe833981519152918301919091528391906001600160a01b03166120155760405162461bcd60e51b81526004016105b591906133c9565b506120228360003361086c565b6040518060400160405280601d8152602001600080516020613f3e833981519152815250906120645760405162461bcd60e51b81526004016105b591906133c9565b50600083815260096020526040902060030180548391906002906120989084906201000090046001600160401b0316613b74565b92506101000a8154816001600160401b0302191690836001600160401b031602179055508160006009016000858152602001908152602001600020600301600a8282829054906101000a90046001600160401b03166120f79190613b74565b82546001600160401b0391821661010093840a90810292021916179091556000858152600960205260408120600301805461ff00191690921790915590505b6000848152600960205260409020600401548110156121b657600084815260096020526040902060040180546001600160401b03851691908390811061217e5761217e613a74565b9060005260206000209060020201600001600082825461219e9190613a8a565b909155508190506121ae81613a5b565b915050612136565b506000838152600b602090815260408083208054825181850281018501909352808352919290919083018282801561220d57602002820191906000526020600020905b8154815260200190600101908083116121f9575b5050505050905060005b81518110156122d557836001600160401b03166000600a01600084848151811061224357612243613a74565b60200260200101518152602001908152602001600020600501600082825461226b9190613a8a565b92505081905550836001600160401b03166000600a01600084848151811061229557612295613a74565b6020026020010151815260200190815260200160002060060160008282546122bd9190613a8a565b909155508190506122cd81613a5b565b915050612217565b50604080518581526001600160401b03851660208201527f9066be8d402a022f5b4db8b98825f0604ef760ea5053e46d7654a84d5f27ba899101611568565b6001600160a01b03918216600090815260056020908152604080832093909416825291909152205460ff1690565b6060600061234f60075490565b905060008060015b83811161239b576000818152600960205260409020546001600160a01b031615612389578261238581613a5b565b9350505b8061239381613a5b565b915050612357565b506000826001600160401b038111156123b6576123b66135e1565b6040519080825280602002602001820160405280156123df578160200160208202803683370190505b50905060015b848111610c12576000818152600960205260409020546001600160a01b031615612435578082848151811061241c5761241c613a74565b60209081029190910101528261243181613a5b565b9350505b8061243f81613a5b565b9150506123e5565b826124528484610c1b565b61245c8282612813565b6110cf858585612a7c565b61247081612caf565b61248c5760405162461bcd60e51b81526004016105b590613ae7565b50565b600081815260046020526040812080546001600160a01b0319166001600160a01b03851690811790915582906124c482611576565b6001600160a01b03167f8c5be1e5ebec7d5bd14f71427d1e84f3dd0314c0f7b2291e5b200ac8c7c3b92560405160405180910390a4505050565b600061250983612caf565b61256c5760405162461bcd60e51b815260206004820152602e60248201527f45524337323155524953746f726167653a2055524920736574206f66206e6f6e60448201526d32bc34b9ba32b73a103a37b5b2b760911b60648201526084016105b5565b600083815260068201602052604090206116d08382613be1565b60008061259283611576565b9050806001600160a01b0316846001600160a01b031614806125b957506125b98185612314565b8061089b5750836001600160a01b03166125d284610518565b6001600160a01b031614949350505050565b6000836001600160a01b03166125f983611576565b6001600160a01b03161461265d5760405162461bcd60e51b815260206004820152602560248201527f4552433732313a207472616e736665722066726f6d20696e636f72726563742060448201526437bbb732b960d91b60648201526084016105b5565b6001600160a01b0383166126bf5760405162461bcd60e51b8152602060048201526024808201527f4552433732313a207472616e7366657220746f20746865207a65726f206164646044820152637265737360e01b60648201526084016105b5565b6126ca60008361248f565b6001600160a01b038416600090815260038201602052604081208054600192906126f5908490613b19565b90915550506001600160a01b03831660009081526003820160205260408120805460019290612725908490613a8a565b9091555050600082815260028201602052604080822080546001600160a01b0319166001600160a01b038781169182179092559151859391881691600080516020613f7e83398151915291a46116d0565b60008061278283612caf565b61279e5760405162461bcd60e51b81526004016105b590613ca0565b60009283526009016020525060409020600301546201000090046001600160401b031690565b6000806127d083612caf565b6127ec5760405162461bcd60e51b81526004016105b590613ca0565b6000928352600901602052506040902060030154600160501b90046001600160401b031690565b6119c0828233612dff565b600061282b84848461086c565b156116d0576000848152601282016020908152604080832086845282528083206001600160a01b03861684528252808320805460ff19169055601484019091529020546128788582612e63565b6001600160a01b0383166000908152601483016020526040812055336001600160a01b0316836001600160a01b0316857f7b00293d63517946aeba2f56c6b4c5dec87b67393ac48520994d3d8ce776335a886040516128d991815260200190565b60405180910390a45050505050565b6000806128f483611576565b905061290160008461248f565b6001600160a01b0381166000908152600383016020526040812080546001929061292c908490613b19565b9091555050600083815260028301602052604080822080546001600160a01b0319169055518491906001600160a01b03841690600080516020613f7e833981519152908390a460008381526006830160205260409020805461298d906139bd565b1590506106565760008381526006830160205260408120610656916132d2565b6000826001600160a01b0316846001600160a01b031603612a0c5760405162461bcd60e51b815260206004820152601960248201527822a9219b99189d1030b8383937bb32903a379031b0b63632b960391b60448201526064016105b5565b6001600160a01b038481166000818152600584016020908152604080832094881680845294825291829020805460ff191687151590811790915591519182527f17307eab39ab6107e8899845ad3d59bd9653f200f220920489ca2b5937696c31910160405180910390a350505050565b6000612a8984848461086c565b6116d0576000848152601282016020908152604080832086845282528083206001600160a01b03868116808652918452828520805460ff19166001908117909155835180850185529283528285018981528a875260138801865293862080548083018255818852958720845160029097020180546001600160a01b03191696909316959095178255925190830155928790529054612b279190613b19565b6001600160a01b0384166000908152601484016020526040902055336001600160a01b0316836001600160a01b0316857fd9dfff7752b7a810e2b646c0c96b76bc9ed817f6c6f7848bbe68163f7e8b4378886040516128d991815260200190565b60006001600160a01b038316612be05760405162461bcd60e51b815260206004820181905260248201527f4552433732313a206d696e7420746f20746865207a65726f206164647265737360448201526064016105b5565b612be982612caf565b15612c355760405162461bcd60e51b815260206004820152601c60248201527b115490cdcc8c4e881d1bdad95b88185b1c9958591e481b5a5b9d195960221b60448201526064016105b5565b6001600160a01b03831660009081526003820160205260408120805460019290612c60908490613a8a565b9091555050600082815260028201602052604080822080546001600160a01b0319166001600160a01b0387169081179091559051849290600080516020613f7e833981519152908290a4505050565b6000908152600260205260409020546001600160a01b0316151590565b612cd78484846125e4565b612ce384848484612f4b565b6116d05760405162461bcd60e51b81526004016105b590613cd2565b606081600003612d265750506040805180820190915260018152600360fc1b602082015290565b8160005b8115612d505780612d3a81613a5b565b9150612d499050600a83613d3a565b9150612d2a565b6000816001600160401b03811115612d6a57612d6a6135e1565b6040519080825280601f01601f191660200182016040528015612d94576020820181803683370190505b5090505b841561089b57612da9600183613b19565b9150612db6600a86613d4e565b612dc1906030613a8a565b60f81b818381518110612dd657612dd6613a74565b60200101906001600160f81b031916908160001a905350612df8600a86613d3a565b9450612d98565b612e0a83838361086c565b61065657612e178161304c565b612e2283602061305e565b612e2b856131f9565b604051602001612e3d93929190613d62565b60408051601f198184030181529082905262461bcd60e51b82526105b5916004016133c9565b60008281526013602052604081208054612e7f90600190613b19565b81548110612e8f57612e8f613a74565b90600052602060002090600202018160130160008581526020019081526020016000208381548110612ec357612ec3613a74565b60009182526020808320845460029093020180546001600160a01b0319166001600160a01b0390931692909217825560019384015493909101929092558481526013830190915260409020805480612f1d57612f1d613e04565b60008281526020812060026000199093019283020180546001600160a01b0319168155600101559055505050565b60006001600160a01b0384163b1561304157604051630a85bd0160e11b81526001600160a01b0385169063150b7a0290612f8f903390899088908890600401613e1a565b6020604051808303816000875af1925050508015612fca575060408051601f3d908101601f19168201909252612fc791810190613e57565b60015b613027573d808015612ff8576040519150601f19603f3d011682016040523d82523d6000602084013e612ffd565b606091505b50805160000361301f5760405162461bcd60e51b81526004016105b590613cd2565b805181602001fd5b6001600160e01b031916630a85bd0160e11b14905061089b565b506001949350505050565b6060610c396001600160a01b03831660145b6060600061306d836002613e74565b613078906002613a8a565b6001600160401b0381111561308f5761308f6135e1565b6040519080825280601f01601f1916602001820160405280156130b9576020820181803683370190505b509050600360fc1b816000815181106130d4576130d4613a74565b60200101906001600160f81b031916908160001a905350600f60fb1b8160018151811061310357613103613a74565b60200101906001600160f81b031916908160001a9053506000613127846002613e74565b613132906001613a8a565b90505b60018111156131aa576f181899199a1a9b1b9c1cb0b131b232b360811b85600f166010811061316657613166613a74565b1a60f81b82828151811061317c5761317c613a74565b60200101906001600160f81b031916908160001a90535060049490941c936131a381613e8b565b9050613135565b5083156115ad5760405162461bcd60e51b815260206004820181905260248201527f537472696e67733a20686578206c656e67746820696e73756666696369656e7460448201526064016105b5565b6060816000036132235750506040805180820190915260048152630307830360e41b602082015290565b8160005b8115613246578061323781613a5b565b915050600882901c9150613227565b61089b848261305e565b6040805161010081018252600080825260208201819052918101829052606081018290529060808201908152600060208201819052604082015260609081015290565b508054600082556002029060005260206000209081019061248c919061330c565b508054600082559060005260206000209081019061248c9190613331565b5080546132de906139bd565b6000825580601f106132ee575050565b601f01602090049060005260206000209081019061248c9190613331565b5b8082111561332d576000815560018101805460ff1916905560020161330d565b5090565b5b8082111561332d5760008155600101613332565b6001600160e01b03198116811461248c57600080fd5b60006020828403121561336e57600080fd5b81356115ad81613346565b60005b8381101561339457818101518382015260200161337c565b50506000910152565b600081518084526133b5816020860160208601613379565b601f01601f19169290920160200192915050565b6020815260006115ad602083018461339d565b6000602082840312156133ee57600080fd5b5035919050565b6001600160a01b038116811461248c57600080fd5b6000806040838503121561341d57600080fd5b8235613428816133f5565b946020939093013593505050565b634e487b7160e01b600052602160045260246000fd5b600081518084526020808501945080840160005b8381101561348a5781518051885283015160ff168388015260409096019590820190600101613460565b509495945050505050565b600061010060018060a01b03835116845260208301516020850152604083015160408501526060830151151560608501526080830151600381106134e957634e487b7160e01b600052602160045260246000fd5b8060808601525060a083015161350a60a08601826001600160401b03169052565b5060c083015161352560c08601826001600160401b03169052565b5060e08301518160e0860152611fae8286018261344c565b6020815260006115ad6020830184613495565b602080825282518282018190526000919060409081850190868401855b8281101561359b57815180516001600160a01b0316855286015186850152928401929085019060010161356d565b5091979650505050505050565b6000806000606084860312156135bd57600080fd5b833592506020840135915060408401356135d6816133f5565b809150509250925092565b634e487b7160e01b600052604160045260246000fd5b60006001600160401b0380841115613611576136116135e1565b604051601f8501601f19908116603f01168101908282118183101715613639576136396135e1565b8160405280935085815286868601111561365257600080fd5b858560208301376000602087830101525050509392505050565b600082601f83011261367d57600080fd5b6115ad838335602085016135f7565b6000806040838503121561369f57600080fd5b8235915060208301356001600160401b038111156136bc57600080fd5b6136c88582860161366c565b9150509250929050565b6000806000606084860312156136e757600080fd5b83356136f2816133f5565b92506020840135613702816133f5565b929592945050506040919091013590565b6000602080830181845280855180835260408601915060408160051b870101925083870160005b8281101561376857603f19888603018452613756858351613495565b9450928501929085019060010161373a565b5092979650505050505050565b6000806040838503121561378857600080fd5b50508035926020909101359150565b6000806000606084860312156137ac57600080fd5b8335925060208401356137be816133f5565b915060408401356135d6816133f5565b6000602082840312156137e057600080fd5b81356115ad816133f5565b600080604083850312156137fe57600080fd5b8235613809816133f5565b91506020830135801515811461381e57600080fd5b809150509250929050565b80356001600160401b038116811461384057600080fd5b919050565b6000806000806080858703121561385b57600080fd5b8435935061386b60208601613829565b925061387960408601613829565b915060608501356001600160401b0381111561389457600080fd5b6138a08782880161366c565b91505092959194509250565b6020808252825182820181905260009190848201906040850190845b818110156138e4578351835292840192918401916001016138c8565b50909695505050505050565b6000806000806080858703121561390657600080fd5b8435613911816133f5565b93506020850135613921816133f5565b92506040850135915060608501356001600160401b0381111561394357600080fd5b8501601f8101871361395457600080fd5b6138a0878235602084016135f7565b6000806040838503121561397657600080fd5b8235915061398660208401613829565b90509250929050565b600080604083850312156139a257600080fd5b82356139ad816133f5565b9150602083013561381e816133f5565b600181811c908216806139d157607f821691505b6020821081036139f157634e487b7160e01b600052602260045260246000fd5b50919050565b6020808252602e908201527f4552433732313a2063616c6c6572206973206e6f7420746f6b656e206f776e6560408201526d1c881b9bdc88185c1c1c9bdd995960921b606082015260800190565b634e487b7160e01b600052601160045260246000fd5b600060018201613a6d57613a6d613a45565b5060010190565b634e487b7160e01b600052603260045260246000fd5b80820180821115610c3957610c39613a45565b60008251613aaf818460208701613379565b9190910192915050565b60008060408385031215613acc57600080fd5b8251613ad7816133f5565b6020939093015192949293505050565b602080825260189082015277115490cdcc8c4e881a5b9d985b1a59081d1bdad95b88125160421b604082015260600190565b81810381811115610c3957610c39613a45565b82815260406020820152600061089b604083018461339d565b60008351613b57818460208801613379565b835190830190613b6b818360208801613379565b01949350505050565b6001600160401b03818116838216019080821115613b9457613b94613a45565b5092915050565b601f82111561065657600081815260208120601f850160051c81016020861015613bc25750805b601f850160051c820191505b81811015611bcb57828155600101613bce565b81516001600160401b03811115613bfa57613bfa6135e1565b613c0e81613c0884546139bd565b84613b9b565b602080601f831160018114613c435760008415613c2b5750858301515b600019600386901b1c1916600185901b178555611bcb565b600085815260208120601f198616915b82811015613c7257888601518255948401946001909101908401613c53565b5085821015613c905787850151600019600388901b60f8161c191681555b5050505050600190811b01905550565b602080825260189082015277115490cd4c0c0dce88125b9d985b1a59081d1bdad95b925960421b604082015260600190565b60208082526032908201527f4552433732313a207472616e7366657220746f206e6f6e20455243373231526560408201527131b2b4bb32b91034b6b83632b6b2b73a32b960711b606082015260800190565b634e487b7160e01b600052601260045260246000fd5b600082613d4957613d49613d24565b500490565b600082613d5d57613d5d613d24565b500690565b7402937b632a1b7b73a3937b61d1030b1b1b7bab73a1605d1b815260008451613d92816015850160208901613379565b7001034b99036b4b9b9b4b733903937b6329607d1b6015918401918201528451613dc3816026840160208901613379565b720103337b91032bb32b73a103bb4ba341034b21606d1b602692909101918201528351613df7816039840160208801613379565b0160390195945050505050565b634e487b7160e01b600052603160045260246000fd5b6001600160a01b0385811682528416602082015260408101839052608060608201819052600090613e4d9083018461339d565b9695505050505050565b600060208284031215613e6957600080fd5b81516115ad81613346565b8082028115828204841417610c3957610c39613a45565b600081613e9a57613e9a613a45565b50600019019056fe4576656e743a2043616c6c6572206973206e6f7420616e2061646d696e206f72206d6f64657261746f724576656e743a204f6e6c7920636173686965722063616e20776974686472617720636f6e74726163742062616c616e63654576656e743a204576656e7420646f6573206e6f742065786973740000000000ff3317e1e0e8c784290b957ee9b65ea8fe96420c4819db463283b95ecbe4a3fe4576656e743a2043616c6c6572206973206e6f7420616e2061646d696e00000071f3d55856e4058ed06ee057d79ada615f65cdf5f9ee88181b914225088f834fddf252ad1be2c89b69c2b068fc378daa952ba7f163c4a11628f55a4df523b3efa2646970667358221220ed80072ecabd01947b6936b242875c40647bab2642c783f40a54d67603af27a864736f6c63430008110033",
  "linkReferences": {},
  "deployedLinkReferences": {}
}