{
  "_format": "hh-sol-artifact-1",
  "contractName": "EventFacet",
  "sourceName": "contracts/EventDiamond/facets/EventFacet.sol",
  "abi": [
    {
      "anonymous": false,
      "inputs": [
        {
          "indexed": false,
          "internalType": "uint256",
          "name": "eventId",
          "type": "uint256"
        },
        {
          "indexed": false,
          "internalType": "bool",
          "name": "value",
          "type": "bool"
        }
      ],
      "name": "AllCategorySellChanged",
      "type": "event"
    },
    {
      "anonymous": false,
      "inputs": [
        {
          "indexed": true,
          "internalType": "address",
          "name": "owner",
          "type": "address"
        },
        {
          "indexed": true,
          "internalType": "address",
          "name": "approved",
          "type": "address"
        },
        {
          "indexed": true,
          "internalType": "uint256",
          "name": "tokenId",
          "type": "uint256"
        }
      ],
      "name": "Approval",
      "type": "event"
    },
    {
      "anonymous": false,
      "inputs": [
        {
          "indexed": true,
          "internalType": "address",
          "name": "owner",
          "type": "address"
        },
        {
          "indexed": true,
          "internalType": "address",
          "name": "operator",
          "type": "address"
        },
        {
          "indexed": false,
          "internalType": "bool",
          "name": "approved",
          "type": "bool"
        }
      ],
      "name": "ApprovalForAll",
      "type": "event"
    },
    {
      "anonymous": false,
      "inputs": [
        {
          "indexed": false,
          "internalType": "uint256",
          "name": "_fromTokenId",
          "type": "uint256"
        },
        {
          "indexed": false,
          "internalType": "uint256",
          "name": "_toTokenId",
          "type": "uint256"
        }
      ],
      "name": "BatchMetadataUpdate",
      "type": "event"
    },
    {
      "anonymous": false,
      "inputs": [
        {
          "indexed": false,
          "internalType": "uint256",
          "name": "eventId",
          "type": "uint256"
        },
        {
          "indexed": false,
          "internalType": "uint256",
          "name": "categoryId",
          "type": "uint256"
        },
        {
          "indexed": false,
          "internalType": "string",
          "name": "categoryCid",
          "type": "string"
        }
      ],
      "name": "CategoryCreated",
      "type": "event"
    },
    {
      "anonymous": false,
      "inputs": [
        {
          "indexed": false,
          "internalType": "uint256",
          "name": "eventId",
          "type": "uint256"
        },
        {
          "indexed": false,
          "internalType": "uint256",
          "name": "categoryId",
          "type": "uint256"
        }
      ],
      "name": "CategoryDeleted",
      "type": "event"
    },
    {
      "anonymous": false,
      "inputs": [
        {
          "indexed": false,
          "internalType": "uint256",
          "name": "eventId",
          "type": "uint256"
        },
        {
          "indexed": false,
          "internalType": "uint256",
          "name": "categoryId",
          "type": "uint256"
        },
        {
          "indexed": false,
          "internalType": "address",
          "name": "staffMember",
          "type": "address"
        }
      ],
      "name": "CategorySaleDatesUpdated",
      "type": "event"
    },
    {
      "anonymous": false,
      "inputs": [
        {
          "indexed": false,
          "internalType": "uint256",
          "name": "eventId",
          "type": "uint256"
        },
        {
          "indexed": false,
          "internalType": "uint256",
          "name": "categoryId",
          "type": "uint256"
        },
        {
          "indexed": false,
          "internalType": "bool",
          "name": "value",
          "type": "bool"
        }
      ],
      "name": "CategorySellChanged",
      "type": "event"
    },
    {
      "anonymous": false,
      "inputs": [
        {
          "indexed": false,
          "internalType": "uint256",
          "name": "eventId",
          "type": "uint256"
        },
        {
          "indexed": false,
          "internalType": "uint256",
          "name": "categoryId",
          "type": "uint256"
        },
        {
          "indexed": false,
          "internalType": "uint256",
          "name": "ticketsCount",
          "type": "uint256"
        }
      ],
      "name": "CategoryTicketsAdded",
      "type": "event"
    },
    {
      "anonymous": false,
      "inputs": [
        {
          "indexed": false,
          "internalType": "uint256",
          "name": "eventId",
          "type": "uint256"
        },
        {
          "indexed": false,
          "internalType": "uint256",
          "name": "categoryId",
          "type": "uint256"
        },
        {
          "indexed": false,
          "internalType": "uint256",
          "name": "ticketsCount",
          "type": "uint256"
        }
      ],
      "name": "CategoryTicketsRemoved",
      "type": "event"
    },
    {
      "anonymous": false,
      "inputs": [
        {
          "indexed": false,
          "internalType": "uint256",
          "name": "eventId",
          "type": "uint256"
        },
        {
          "indexed": false,
          "internalType": "uint256",
          "name": "categoryId",
          "type": "uint256"
        }
      ],
      "name": "CategoryUpdated",
      "type": "event"
    },
    {
      "anonymous": false,
      "inputs": [
        {
          "indexed": false,
          "internalType": "uint256",
          "name": "eventId",
          "type": "uint256"
        }
      ],
      "name": "EventCanceled",
      "type": "event"
    },
    {
      "anonymous": false,
      "inputs": [
        {
          "indexed": false,
          "internalType": "uint256",
          "name": "eventId",
          "type": "uint256"
        },
        {
          "indexed": false,
          "internalType": "address",
          "name": "account",
          "type": "address"
        },
        {
          "indexed": false,
          "internalType": "address",
          "name": "setter",
          "type": "address"
        }
      ],
      "name": "EventCashierSet",
      "type": "event"
    },
    {
      "anonymous": false,
      "inputs": [
        {
          "indexed": false,
          "internalType": "uint256",
          "name": "eventId",
          "type": "uint256"
        },
        {
          "indexed": false,
          "internalType": "string",
          "name": "metadataUri",
          "type": "string"
        }
      ],
      "name": "EventCreated",
      "type": "event"
    },
    {
      "anonymous": false,
      "inputs": [
        {
          "indexed": false,
          "internalType": "uint256",
          "name": "eventId",
          "type": "uint256"
        },
        {
          "indexed": false,
          "internalType": "uint256",
          "name": "time",
          "type": "uint256"
        }
      ],
      "name": "EventPostponed",
      "type": "event"
    },
    {
      "anonymous": false,
      "inputs": [
        {
          "indexed": false,
          "internalType": "uint256",
          "name": "_tokenId",
          "type": "uint256"
        }
      ],
      "name": "MetadataUpdate",
      "type": "event"
    },
    {
      "anonymous": false,
      "inputs": [
        {
          "indexed": false,
          "internalType": "uint256",
          "name": "eventId",
          "type": "uint256"
        },
        {
          "indexed": true,
          "internalType": "bytes32",
          "name": "role",
          "type": "bytes32"
        },
        {
          "indexed": true,
          "internalType": "bytes32",
          "name": "previousAdminRole",
          "type": "bytes32"
        },
        {
          "indexed": true,
          "internalType": "bytes32",
          "name": "newAdminRole",
          "type": "bytes32"
        }
      ],
      "name": "RoleAdminChanged",
      "type": "event"
    },
    {
      "anonymous": false,
      "inputs": [
        {
          "indexed": false,
          "internalType": "uint256",
          "name": "eventId",
          "type": "uint256"
        },
        {
          "indexed": true,
          "internalType": "bytes32",
          "name": "role",
          "type": "bytes32"
        },
        {
          "indexed": true,
          "internalType": "address",
          "name": "account",
          "type": "address"
        },
        {
          "indexed": true,
          "internalType": "address",
          "name": "sender",
          "type": "address"
        }
      ],
      "name": "RoleGranted",
      "type": "event"
    },
    {
      "anonymous": false,
      "inputs": [
        {
          "indexed": false,
          "internalType": "uint256",
          "name": "eventId",
          "type": "uint256"
        },
        {
          "indexed": true,
          "internalType": "bytes32",
          "name": "role",
          "type": "bytes32"
        },
        {
          "indexed": true,
          "internalType": "address",
          "name": "account",
          "type": "address"
        },
        {
          "indexed": true,
          "internalType": "address",
          "name": "sender",
          "type": "address"
        }
      ],
      "name": "RoleRevoked",
      "type": "event"
    },
    {
      "anonymous": false,
      "inputs": [
        {
          "indexed": true,
          "internalType": "address",
          "name": "from",
          "type": "address"
        },
        {
          "indexed": true,
          "internalType": "address",
          "name": "to",
          "type": "address"
        },
        {
          "indexed": true,
          "internalType": "uint256",
          "name": "tokenId",
          "type": "uint256"
        }
      ],
      "name": "Transfer",
      "type": "event"
    },
    {
      "inputs": [
        {
          "internalType": "uint256",
          "name": "_eventId",
          "type": "uint256"
        },
        {
          "internalType": "uint256",
          "name": "_categoryId",
          "type": "uint256"
        },
        {
          "internalType": "uint256",
          "name": "_ticketsCount",
          "type": "uint256"
        }
      ],
      "name": "addCategoryTicketsCount",
      "outputs": [],
      "stateMutability": "nonpayable",
      "type": "function"
    },
    {
      "inputs": [
        {
          "internalType": "uint256",
          "name": "_eventId",
          "type": "uint256"
        },
        {
          "internalType": "bytes32",
          "name": "_role",
          "type": "bytes32"
        },
        {
          "internalType": "address",
          "name": "_account",
          "type": "address"
        }
      ],
      "name": "addTeamMember",
      "outputs": [],
      "stateMutability": "nonpayable",
      "type": "function"
    },
    {
      "inputs": [
        {
          "internalType": "address",
          "name": "to",
          "type": "address"
        },
        {
          "internalType": "uint256",
          "name": "tokenId",
          "type": "uint256"
        }
      ],
      "name": "approve",
      "outputs": [],
      "stateMutability": "nonpayable",
      "type": "function"
    },
    {
      "inputs": [
        {
          "internalType": "address",
          "name": "owner",
          "type": "address"
        }
      ],
      "name": "balanceOf",
      "outputs": [
        {
          "internalType": "uint256",
          "name": "",
          "type": "uint256"
        }
      ],
      "stateMutability": "view",
      "type": "function"
    },
    {
      "inputs": [
        {
          "internalType": "uint256",
          "name": "_eventId",
          "type": "uint256"
        }
      ],
      "name": "cancelEvent",
      "outputs": [],
      "stateMutability": "nonpayable",
      "type": "function"
    },
    {
      "inputs": [
        {
          "internalType": "uint256",
          "name": "_maxTicketsPerClient",
          "type": "uint256"
        },
        {
          "internalType": "uint64",
          "name": "_startDate",
          "type": "uint64"
        },
        {
          "internalType": "uint64",
          "name": "_endDate",
          "type": "uint64"
        },
        {
          "internalType": "string",
          "name": "_metadataURI",
          "type": "string"
        }
      ],
      "name": "createEvent",
      "outputs": [],
      "stateMutability": "nonpayable",
      "type": "function"
    },
    {
      "inputs": [
        {
          "internalType": "uint256",
          "name": "_eventId",
          "type": "uint256"
        },
        {
          "internalType": "string",
          "name": "_categoryCid",
          "type": "string"
        },
        {
          "internalType": "uint256",
          "name": "_saleStartDate",
          "type": "uint256"
        },
        {
          "internalType": "uint256",
          "name": "_saleEndDate",
          "type": "uint256"
        },
        {
          "internalType": "uint256",
          "name": "_ticketsCount",
          "type": "uint256"
        },
        {
          "internalType": "uint256",
          "name": "_ticketPrice",
          "type": "uint256"
        },
        {
          "internalType": "uint256[]",
          "name": "_discountsTicketsCount",
          "type": "uint256[]"
        },
        {
          "internalType": "uint256[]",
          "name": "_discountsPercentage",
          "type": "uint256[]"
        },
        {
          "components": [
            {
              "internalType": "uint256",
              "name": "price",
              "type": "uint256"
            },
            {
              "internalType": "uint256",
              "name": "finalAmountDate",
              "type": "uint256"
            }
          ],
          "internalType": "struct DownPayment",
          "name": "_downPayment",
          "type": "tuple"
        }
      ],
      "name": "createTicketCategory",
      "outputs": [],
      "stateMutability": "nonpayable",
      "type": "function"
    },
    {
      "inputs": [
        {
          "internalType": "uint256",
          "name": "tokenId",
          "type": "uint256"
        }
      ],
      "name": "endTime",
      "outputs": [
        {
          "internalType": "uint64",
          "name": "",
          "type": "uint64"
        }
      ],
      "stateMutability": "view",
      "type": "function"
    },
    {
      "inputs": [],
      "name": "fetchAllEventIds",
      "outputs": [
        {
          "internalType": "uint256[]",
          "name": "",
          "type": "uint256[]"
        }
      ],
      "stateMutability": "view",
      "type": "function"
    },
    {
      "inputs": [],
      "name": "fetchAllEvents",
      "outputs": [
        {
          "components": [
            {
              "internalType": "address",
              "name": "organizer",
              "type": "address"
            },
            {
              "internalType": "uint256",
              "name": "maxTicketsPerClient",
              "type": "uint256"
            },
            {
              "internalType": "uint256",
              "name": "balance",
              "type": "uint256"
            },
            {
              "internalType": "bool",
              "name": "areAllCategoryTicketsBuyable",
              "type": "bool"
            },
            {
              "internalType": "bool",
              "name": "isCanceled",
              "type": "bool"
            },
            {
              "internalType": "uint64",
              "name": "startTime",
              "type": "uint64"
            },
            {
              "internalType": "uint64",
              "name": "endTime",
              "type": "uint64"
            },
            {
              "components": [
                {
                  "internalType": "uint256",
                  "name": "date",
                  "type": "uint256"
                },
                {
                  "internalType": "uint8",
                  "name": "percentage",
                  "type": "uint8"
                }
              ],
              "internalType": "struct RefundData[]",
              "name": "refundData",
              "type": "tuple[]"
            }
          ],
          "internalType": "struct Event[]",
          "name": "",
          "type": "tuple[]"
        }
      ],
      "stateMutability": "view",
      "type": "function"
    },
    {
      "inputs": [
        {
          "internalType": "uint256",
          "name": "_eventId",
          "type": "uint256"
        }
      ],
      "name": "fetchCategoriesByEventId",
      "outputs": [
        {
          "components": [
            {
              "internalType": "uint256",
              "name": "id",
              "type": "uint256"
            },
            {
              "internalType": "string",
              "name": "cid",
              "type": "string"
            },
            {
              "internalType": "uint256[]",
              "name": "ticketIds",
              "type": "uint256[]"
            },
            {
              "internalType": "uint256",
              "name": "ticketPrice",
              "type": "uint256"
            },
            {
              "internalType": "uint256",
              "name": "ticketsCount",
              "type": "uint256"
            },
            {
              "internalType": "uint256",
              "name": "saleStartDate",
              "type": "uint256"
            },
            {
              "internalType": "uint256",
              "name": "saleEndDate",
              "type": "uint256"
            },
            {
              "internalType": "uint256",
              "name": "eventId",
              "type": "uint256"
            },
            {
              "internalType": "uint256",
              "name": "balance",
              "type": "uint256"
            },
            {
              "internalType": "uint256[]",
              "name": "discountsTicketsCount",
              "type": "uint256[]"
            },
            {
              "internalType": "uint256[]",
              "name": "discountsPercentage",
              "type": "uint256[]"
            },
            {
              "components": [
                {
                  "internalType": "uint256",
                  "name": "price",
                  "type": "uint256"
                },
                {
                  "internalType": "uint256",
                  "name": "finalAmountDate",
                  "type": "uint256"
                }
              ],
              "internalType": "struct DownPayment",
              "name": "downPayment",
              "type": "tuple"
            },
            {
              "internalType": "bool",
              "name": "areTicketsBuyable",
              "type": "bool"
            }
          ],
          "internalType": "struct Category[]",
          "name": "",
          "type": "tuple[]"
        }
      ],
      "stateMutability": "view",
      "type": "function"
    },
    {
      "inputs": [
        {
          "internalType": "uint256",
          "name": "_eventId",
          "type": "uint256"
        }
      ],
      "name": "fetchEventById",
      "outputs": [
        {
          "components": [
            {
              "internalType": "address",
              "name": "organizer",
              "type": "address"
            },
            {
              "internalType": "uint256",
              "name": "maxTicketsPerClient",
              "type": "uint256"
            },
            {
              "internalType": "uint256",
              "name": "balance",
              "type": "uint256"
            },
            {
              "internalType": "bool",
              "name": "areAllCategoryTicketsBuyable",
              "type": "bool"
            },
            {
              "internalType": "bool",
              "name": "isCanceled",
              "type": "bool"
            },
            {
              "internalType": "uint64",
              "name": "startTime",
              "type": "uint64"
            },
            {
              "internalType": "uint64",
              "name": "endTime",
              "type": "uint64"
            },
            {
              "components": [
                {
                  "internalType": "uint256",
                  "name": "date",
                  "type": "uint256"
                },
                {
                  "internalType": "uint8",
                  "name": "percentage",
                  "type": "uint8"
                }
              ],
              "internalType": "struct RefundData[]",
              "name": "refundData",
              "type": "tuple[]"
            }
          ],
          "internalType": "struct Event",
          "name": "eventObj",
          "type": "tuple"
        }
      ],
      "stateMutability": "view",
      "type": "function"
    },
    {
      "inputs": [],
      "name": "fetchOwnedEvents",
      "outputs": [
        {
          "internalType": "uint256[]",
          "name": "",
          "type": "uint256[]"
        }
      ],
      "stateMutability": "view",
      "type": "function"
    },
    {
      "inputs": [
        {
          "internalType": "uint256",
          "name": "tokenId",
          "type": "uint256"
        }
      ],
      "name": "getApproved",
      "outputs": [
        {
          "internalType": "address",
          "name": "",
          "type": "address"
        }
      ],
      "stateMutability": "view",
      "type": "function"
    },
    {
      "inputs": [
        {
          "internalType": "uint256",
          "name": "eventId",
          "type": "uint256"
        }
      ],
      "name": "getEventMembers",
      "outputs": [
        {
          "components": [
            {
              "internalType": "address",
              "name": "account",
              "type": "address"
            },
            {
              "internalType": "bytes32",
              "name": "role",
              "type": "bytes32"
            }
          ],
          "internalType": "struct MemberData[]",
          "name": "",
          "type": "tuple[]"
        }
      ],
      "stateMutability": "view",
      "type": "function"
    },
    {
      "inputs": [
        {
          "internalType": "uint256",
          "name": "eventId",
          "type": "uint256"
        },
        {
          "internalType": "bytes32",
          "name": "role",
          "type": "bytes32"
        }
      ],
      "name": "getRoleAdmin",
      "outputs": [
        {
          "internalType": "bytes32",
          "name": "",
          "type": "bytes32"
        }
      ],
      "stateMutability": "view",
      "type": "function"
    },
    {
      "inputs": [
        {
          "internalType": "uint256",
          "name": "eventId",
          "type": "uint256"
        },
        {
          "internalType": "bytes32",
          "name": "role",
          "type": "bytes32"
        },
        {
          "internalType": "address",
          "name": "account",
          "type": "address"
        }
      ],
      "name": "grantRole",
      "outputs": [],
      "stateMutability": "nonpayable",
      "type": "function"
    },
    {
      "inputs": [
        {
          "internalType": "uint256",
          "name": "eventId",
          "type": "uint256"
        },
        {
          "internalType": "bytes32",
          "name": "role",
          "type": "bytes32"
        },
        {
          "internalType": "address",
          "name": "account",
          "type": "address"
        }
      ],
      "name": "hasRole",
      "outputs": [
        {
          "internalType": "bool",
          "name": "",
          "type": "bool"
        }
      ],
      "stateMutability": "view",
      "type": "function"
    },
    {
      "inputs": [
        {
          "internalType": "address",
          "name": "owner",
          "type": "address"
        },
        {
          "internalType": "address",
          "name": "operator",
          "type": "address"
        }
      ],
      "name": "isApprovedForAll",
      "outputs": [
        {
          "internalType": "bool",
          "name": "",
          "type": "bool"
        }
      ],
      "stateMutability": "view",
      "type": "function"
    },
    {
      "inputs": [
        {
          "internalType": "uint256",
          "name": "_eventId",
          "type": "uint256"
        },
        {
          "internalType": "bool",
          "name": "_value",
          "type": "bool"
        }
      ],
      "name": "manageAllCategorySelling",
      "outputs": [],
      "stateMutability": "nonpayable",
      "type": "function"
    },
    {
      "inputs": [
        {
          "internalType": "uint256",
          "name": "_eventId",
          "type": "uint256"
        },
        {
          "internalType": "uint256",
          "name": "_categoryId",
          "type": "uint256"
        },
        {
          "internalType": "bool",
          "name": "_value",
          "type": "bool"
        }
      ],
      "name": "manageCategorySelling",
      "outputs": [],
      "stateMutability": "nonpayable",
      "type": "function"
    },
    {
      "inputs": [],
      "name": "name",
      "outputs": [
        {
          "internalType": "string",
          "name": "",
          "type": "string"
        }
      ],
      "stateMutability": "view",
      "type": "function"
    },
    {
      "inputs": [
        {
          "internalType": "uint256",
          "name": "tokenId",
          "type": "uint256"
        }
      ],
      "name": "ownerOf",
      "outputs": [
        {
          "internalType": "address",
          "name": "",
          "type": "address"
        }
      ],
      "stateMutability": "view",
      "type": "function"
    },
    {
      "inputs": [
        {
          "internalType": "uint256",
          "name": "_eventId",
          "type": "uint256"
        },
        {
          "internalType": "uint64",
          "name": "_time",
          "type": "uint64"
        }
      ],
      "name": "postponeEvent",
      "outputs": [],
      "stateMutability": "nonpayable",
      "type": "function"
    },
    {
      "inputs": [
        {
          "internalType": "uint256",
          "name": "_eventId",
          "type": "uint256"
        },
        {
          "internalType": "uint256",
          "name": "_categoryId",
          "type": "uint256"
        }
      ],
      "name": "removeCategory",
      "outputs": [],
      "stateMutability": "nonpayable",
      "type": "function"
    },
    {
      "inputs": [
        {
          "internalType": "uint256",
          "name": "_eventId",
          "type": "uint256"
        },
        {
          "internalType": "uint256",
          "name": "_categoryId",
          "type": "uint256"
        },
        {
          "internalType": "uint256",
          "name": "_ticketsCount",
          "type": "uint256"
        }
      ],
      "name": "removeCategoryTicketsCount",
      "outputs": [],
      "stateMutability": "nonpayable",
      "type": "function"
    },
    {
      "inputs": [
        {
          "internalType": "uint256",
          "name": "_eventId",
          "type": "uint256"
        }
      ],
      "name": "removeEvent",
      "outputs": [],
      "stateMutability": "nonpayable",
      "type": "function"
    },
    {
      "inputs": [
        {
          "internalType": "uint256",
          "name": "_eventId",
          "type": "uint256"
        },
        {
          "internalType": "bytes32",
          "name": "_role",
          "type": "bytes32"
        },
        {
          "internalType": "address",
          "name": "_account",
          "type": "address"
        }
      ],
      "name": "removeTeamMember",
      "outputs": [],
      "stateMutability": "nonpayable",
      "type": "function"
    },
    {
      "inputs": [
        {
          "internalType": "uint256",
          "name": "eventId",
          "type": "uint256"
        },
        {
          "internalType": "bytes32",
          "name": "role",
          "type": "bytes32"
        },
        {
          "internalType": "address",
          "name": "account",
          "type": "address"
        }
      ],
      "name": "renounceRole",
      "outputs": [],
      "stateMutability": "nonpayable",
      "type": "function"
    },
    {
      "inputs": [
        {
          "internalType": "uint256",
          "name": "eventId",
          "type": "uint256"
        },
        {
          "internalType": "bytes32",
          "name": "role",
          "type": "bytes32"
        },
        {
          "internalType": "address",
          "name": "account",
          "type": "address"
        }
      ],
      "name": "revokeRole",
      "outputs": [],
      "stateMutability": "nonpayable",
      "type": "function"
    },
    {
      "inputs": [
        {
          "internalType": "address",
          "name": "from",
          "type": "address"
        },
        {
          "internalType": "address",
          "name": "to",
          "type": "address"
        },
        {
          "internalType": "uint256",
          "name": "tokenId",
          "type": "uint256"
        }
      ],
      "name": "safeTransferFrom",
      "outputs": [],
      "stateMutability": "nonpayable",
      "type": "function"
    },
    {
      "inputs": [
        {
          "internalType": "address",
          "name": "from",
          "type": "address"
        },
        {
          "internalType": "address",
          "name": "to",
          "type": "address"
        },
        {
          "internalType": "uint256",
          "name": "tokenId",
          "type": "uint256"
        },
        {
          "internalType": "bytes",
          "name": "data",
          "type": "bytes"
        }
      ],
      "name": "safeTransferFrom",
      "outputs": [],
      "stateMutability": "nonpayable",
      "type": "function"
    },
    {
      "inputs": [
        {
          "internalType": "address",
          "name": "operator",
          "type": "address"
        },
        {
          "internalType": "bool",
          "name": "approved",
          "type": "bool"
        }
      ],
      "name": "setApprovalForAll",
      "outputs": [],
      "stateMutability": "nonpayable",
      "type": "function"
    },
    {
      "inputs": [
        {
          "internalType": "uint256",
          "name": "_eventId",
          "type": "uint256"
        },
        {
          "internalType": "address",
          "name": "_account",
          "type": "address"
        }
      ],
      "name": "setEventCashier",
      "outputs": [],
      "stateMutability": "nonpayable",
      "type": "function"
    },
    {
      "inputs": [
        {
          "internalType": "uint256",
          "name": "tokenId",
          "type": "uint256"
        }
      ],
      "name": "startTime",
      "outputs": [
        {
          "internalType": "uint64",
          "name": "",
          "type": "uint64"
        }
      ],
      "stateMutability": "view",
      "type": "function"
    },
    {
      "inputs": [
        {
          "internalType": "bytes4",
          "name": "interfaceId",
          "type": "bytes4"
        }
      ],
      "name": "supportsInterface",
      "outputs": [
        {
          "internalType": "bool",
          "name": "",
          "type": "bool"
        }
      ],
      "stateMutability": "view",
      "type": "function"
    },
    {
      "inputs": [],
      "name": "symbol",
      "outputs": [
        {
          "internalType": "string",
          "name": "",
          "type": "string"
        }
      ],
      "stateMutability": "view",
      "type": "function"
    },
    {
      "inputs": [
        {
          "internalType": "uint256",
          "name": "tokenId",
          "type": "uint256"
        }
      ],
      "name": "tokenURI",
      "outputs": [
        {
          "internalType": "string",
          "name": "",
          "type": "string"
        }
      ],
      "stateMutability": "view",
      "type": "function"
    },
    {
      "inputs": [
        {
          "internalType": "address",
          "name": "from",
          "type": "address"
        },
        {
          "internalType": "address",
          "name": "to",
          "type": "address"
        },
        {
          "internalType": "uint256",
          "name": "tokenId",
          "type": "uint256"
        }
      ],
      "name": "transferFrom",
      "outputs": [],
      "stateMutability": "nonpayable",
      "type": "function"
    },
    {
      "inputs": [
        {
          "internalType": "uint256",
          "name": "_eventId",
          "type": "uint256"
        },
        {
          "internalType": "uint256",
          "name": "_categoryId",
          "type": "uint256"
        },
        {
          "internalType": "string",
          "name": "_categoryCid",
          "type": "string"
        },
        {
          "internalType": "uint256",
          "name": "_ticketPrice",
          "type": "uint256"
        },
        {
          "internalType": "uint256[]",
          "name": "_discountsTicketsCount",
          "type": "uint256[]"
        },
        {
          "internalType": "uint256[]",
          "name": "_discountsPercentage",
          "type": "uint256[]"
        },
        {
          "components": [
            {
              "internalType": "uint256",
              "name": "price",
              "type": "uint256"
            },
            {
              "internalType": "uint256",
              "name": "finalAmountDate",
              "type": "uint256"
            }
          ],
          "internalType": "struct DownPayment",
          "name": "_downPayment",
          "type": "tuple"
        }
      ],
      "name": "updateCategory",
      "outputs": [],
      "stateMutability": "nonpayable",
      "type": "function"
    },
    {
      "inputs": [
        {
          "internalType": "uint256",
          "name": "_eventId",
          "type": "uint256"
        },
        {
          "internalType": "uint256",
          "name": "_categoryId",
          "type": "uint256"
        },
        {
          "internalType": "uint256",
          "name": "_saleStartDate",
          "type": "uint256"
        },
        {
          "internalType": "uint256",
          "name": "_saleEndDate",
          "type": "uint256"
        }
      ],
      "name": "updateCategorySaleDates",
      "outputs": [],
      "stateMutability": "nonpayable",
      "type": "function"
    },
    {
      "inputs": [
        {
          "internalType": "uint256",
          "name": "_eventId",
          "type": "uint256"
        },
        {
          "internalType": "string",
          "name": "_newMetadataURI",
          "type": "string"
        }
      ],
      "name": "updateEventTokenUri",
      "outputs": [],
      "stateMutability": "nonpayable",
      "type": "function"
    },
    {
      "inputs": [
        {
          "internalType": "uint256",
          "name": "_eventId",
          "type": "uint256"
        }
      ],
      "name": "withdrawFromCanceledEvent",
      "outputs": [],
      "stateMutability": "nonpayable",
      "type": "function"
    }
  ],
  "bytecode": "0x608060405234801561001057600080fd5b50615f9f80620000216000396000f3fe608060405234801561001057600080fd5b50600436106102695760003560e01c806356164e1e11610151578063a3cfe160116100c3578063d5533da011610087578063d5533da0146105a5578063dc91a98f146105b8578063e985e9c5146105cb578063f354159b146105de578063f99c2292146105f1578063fb42204d146105f957600080fd5b8063a3cfe16014610544578063abae6af914610557578063b01555441461056c578063b88d4fde1461057f578063c87b56dd1461059257600080fd5b80637986b230116101155780637986b230146104d0578063959a1b58146104e357806395d89b41146104f6578063a22cb465146104fe578063a310d9bf14610511578063a3bdc7c71461052457600080fd5b806356164e1e146104715780636352211e146104845780636a4bc7de1461049757806370a08231146104aa578063724bdedf146104bd57600080fd5b80632053d82c116101ea5780633d378bb0116101ae5780633d378bb0146103e75780633ec4c968146103fa5780633f69babd1461042557806342842e0e1461043857806344c816fa1461044b5780634a120dd71461045e57600080fd5b80632053d82c1461037857806323b872dd1461038b5780632761f33b1461039e5780633660ff83146103b1578063397d4dbc146103c657600080fd5b80630d517286116102315780630d517286146102ff5780630e1b943d1461031f578063119345aa1461033f5780631c6f9271146103525780631cdf29c71461036557600080fd5b806301ffc9a71461026e5780630309a5391461029757806306fdde03146102ac578063081812fc146102c1578063095ea7b3146102ec575b600080fd5b61028261027c366004614da4565b50600090565b60405190151581526020015b60405180910390f35b6102aa6102a5366004614dd6565b61060c565b005b6102b4610735565b60405161028e9190614e52565b6102d46102cf366004614e65565b6107cc565b6040516001600160a01b03909116815260200161028e565b6102aa6102fa366004614e93565b6107f5565b61031261030d366004614e65565b61090a565b60405161028e9190614f92565b61033261032d366004614e65565b610a63565b60405161028e9190614fa5565b61028261034d366004614ffd565b610ae2565b6102aa610360366004615036565b610b19565b6102aa610373366004615068565b610cec565b6102aa610386366004615143565b610dfb565b6102aa610399366004615189565b610ef7565b6102aa6103ac366004615227565b610f28565b6103b96111f1565b60405161028e91906152e9565b6103d96103d436600461534b565b6113fa565b60405190815260200161028e565b6102aa6103f536600461534b565b61141e565b61040d610408366004614e65565b611810565b6040516001600160401b03909116815260200161028e565b6102aa610433366004614e65565b61181b565b6102aa610446366004615189565b611c48565b61040d610459366004614e65565b611c63565b6102aa61046c366004614ffd565b611c6e565b6102aa61047f366004614e65565b611c95565b6102d4610492366004614e65565b611fb7565b6102aa6104a5366004614ffd565b612020565b6103d96104b836600461536d565b612142565b6102aa6104cb366004614ffd565b6121ce565b6102aa6104de366004614e65565b612247565b6102aa6104f13660046153cb565b6123e0565b6102b4612823565b6102aa61050c3660046154b5565b612836565b6102aa61051f3660046154e1565b612845565b610537610532366004614e65565b612a13565b60405161028e9190615546565b6102aa61055236600461569c565b612dba565b61055f612f9e565b60405161028e9190615703565b6102aa61057a366004614ffd565b6130e9565b6102aa61058d366004615716565b613209565b6102b46105a0366004614e65565b61323b565b6102aa6105b3366004615789565b613382565b6102aa6105c63660046157b5565b613554565b6102826105d93660046157d8565b6138e7565b6102aa6105ec366004615789565b613915565b61055f613ba8565b6102aa610607366004614ffd565b613cad565b600082815260026020908152604091829020548251808401909352601b8352600080516020615e1d833981519152918301919091528391906001600160a01b03166106735760405162461bcd60e51b815260040161066a9190614e52565b60405180910390fd5b5061068083600033610ae2565b8061069f575061069f83600080516020615ee783398151915233610ae2565b6040518060600160405280602a8152602001615d7e602a9139906106d65760405162461bcd60e51b815260040161066a9190614e52565b50600083815260096020908152604091829020600301805460ff19168515159081179091558251868152918201527f578eeefe0b8083fcd939e8d547da4c0ba6b26ed213c13de65ab08a52f9f26a5291015b60405180910390a1505050565b6060600080600001805461074890615806565b80601f016020809104026020016040519081016040528092919081815260200182805461077490615806565b80156107c15780601f10610796576101008083540402835291602001916107c1565b820191906000526020600020905b8154815290600101906020018083116107a457829003601f168201915b505050505091505090565b6000806107d883613ccd565b60009283526004016020525060409020546001600160a01b031690565b600061080082611fb7565b9050806001600160a01b0316836001600160a01b03160361086d5760405162461bcd60e51b815260206004820152602160248201527f4552433732313a20617070726f76616c20746f2063757272656e74206f776e656044820152603960f91b606482015260840161066a565b336001600160a01b0382161480610889575061088981336138e7565b6108fb5760405162461bcd60e51b815260206004820152603e60248201527f4552433732313a20617070726f76652063616c6c6572206973206e6f7420746f60448201527f6b656e206f776e6572206e6f7220617070726f76656420666f7220616c6c0000606482015260840161066a565b6109058383613d20565b505050565b610912614b72565b600082815260026020908152604091829020548251808401909352601b8352600080516020615e1d833981519152918301919091528391906001600160a01b03166109705760405162461bcd60e51b815260040161066a9190614e52565b5060008381526009602090815260408083208151610100808201845282546001600160a01b03168252600183015482860152600283015482850152600383015460ff80821615156060850152918104909116151560808301526001600160401b03620100008204811660a0840152600160501b9091041660c08201526004820180548451818702810187019095528085529195929460e0870194939192919084015b82821015610a5457600084815260209081902060408051808201909152600285029091018054825260019081015460ff16828401529083529092019101610a12565b50505091525090949350505050565b6000818152601460209081526040808320805482518185028101850190935280835260609493849084015b82821015610ad6576000848152602090819020604080518082019091526002850290910180546001600160a01b03168252600190810154828401529083529092019101610a8e565b50505050915050919050565b600083815260136020908152604080832085845282528083206001600160a01b038516845290915281205460ff165b949350505050565b600084815260026020908152604091829020548251808401909352601b8352600080516020615e1d833981519152918301919091528591906001600160a01b0316610b775760405162461bcd60e51b815260040161066a9190614e52565b506000848152600a6020908152604091829020548251808401909352601e8352600080516020615e3d83398151915291830191909152859190610bcd5760405162461bcd60e51b815260040161066a9190614e52565b508585816000600a0160008381526020019081526020016000206007015414604051806060016040528060298152602001615da86029913990610c235760405162461bcd60e51b815260040161066a9190614e52565b50610c3088600033610ae2565b80610c4f5750610c4f88600080516020615ee783398151915233610ae2565b6040518060600160405280602a8152602001615d7e602a913990610c865760405162461bcd60e51b815260040161066a9190614e52565b506000878152600a60209081526040918290206005810189905560060187905581518a8152908101899052338183015290517f4192182acd964db32b1197a6483d5694cf6e678e7202565c44cc961078eb2c8f9181900360600190a15050505050505050565b600082815260026020908152604091829020548251808401909352601b8352600080516020615e1d833981519152918301919091528391906001600160a01b0316610d4a5760405162461bcd60e51b815260040161066a9190614e52565b50610d5783600033610ae2565b6040518060400160405280601d8152602001600080516020615ec783398151915281525090610d995760405162461bcd60e51b815260040161066a9190614e52565b50610db383600080516020615e8583398151915284613cad565b604080518481526001600160a01b038416602082015233918101919091527f9f54db3c6775e8717da6972b09a7ed552d62f5fd63696a1a75e58f61bd24019390606001610728565b600082815260026020908152604091829020548251808401909352601b8352600080516020615e1d833981519152918301919091528391906001600160a01b0316610e595760405162461bcd60e51b815260040161066a9190614e52565b50610e6683600033610ae2565b80610e855750610e8583600080516020615ee783398151915233610ae2565b6040518060600160405280602a8152602001615d7e602a913990610ebc5760405162461bcd60e51b815260040161066a9190614e52565b50610ec78383613d8f565b6040518381527ff8e1a15aba9398e019f0b49df1a4fde98ee17ae345cb5f6b5e2c27f5033e8ce790602001610728565b610f013382613e17565b610f1d5760405162461bcd60e51b815260040161066a9061583a565b610905838383613e75565b600089815260026020908152604091829020548251808401909352601b8352600080516020615e1d833981519152918301919091528a91906001600160a01b0316610f865760405162461bcd60e51b815260040161066a9190614e52565b506000898152600a6020908152604091829020548251808401909352601e8352600080516020615e3d833981519152918301919091528a9190610fdc5760405162461bcd60e51b815260040161066a9190614e52565b508a8a816000600a0160008381526020019081526020016000206007015414604051806060016040528060298152602001615da860299139906110325760405162461bcd60e51b815260040161066a9190614e52565b5061103f8d600033610ae2565b8061105e575061105e8d600080516020615ee783398151915233610ae2565b6040518060600160405280602a8152602001615d7e602a9139906110955760405162461bcd60e51b815260040161066a9190614e52565b50604080516060810190915260288082528988149190615e5d6020830139906110d15760405162461bcd60e51b815260040161066a9190614e52565b508960000361111f57871580156110e6575085155b604051806060016040528060288152602001615e5d602891399061111d5760405162461bcd60e51b815260040161066a9190614e52565b505b60008c8152600a6020526040902060010161113a8c826158ce565b5060008c8152600a60205260409020600381018b905561115e906009018a8a614bd6565b5060008c8152600a6020819052604090912061117c91018888614bd6565b5060008c8152600a602052604090208590600b016111a7828281358155602082013560018201555050565b5050604080518e8152602081018e90527f44df894581249b9c6cda25b6fe8239320be1641adde53f17479b4153cadfcc60910160405180910390a150505050505050505050505050565b606060006111fe60075490565b905060008060015b83811161124a576000818152600960205260409020546001600160a01b0316156112385782611234816159a3565b9350505b80611242816159a3565b915050611206565b506000826001600160401b0381111561126557611265615098565b60405190808252806020026020018201604052801561129e57816020015b61128b614b72565b8152602001906001900390816112835790505b50905060015b8481116113f1576000818152600960205260409020546001600160a01b0316156113df5760008181526009602090815260408083208151610100808201845282546001600160a01b03168252600183015482860152600283015482850152600383015460ff80821615156060850152918104909116151560808301526001600160401b03620100008204811660a0840152600160501b9091041660c08201526004820180548451818702810187019095528085529195929460e0870194939192919084015b828210156113ab57600084815260209081902060408051808201909152600285029091018054825260019081015460ff16828401529083529092019101611369565b50505050815250508284815181106113c5576113c56159bc565b602002602001018190525082806113db906159a3565b9350505b806113e9816159a3565b9150506112a4565b50949350505050565b60008281526013602090815260408083208484529091529020600101545b92915050565b600082815260026020908152604091829020548251808401909352601b8352600080516020615e1d833981519152918301919091528391906001600160a01b031661147c5760405162461bcd60e51b815260040161066a9190614e52565b506000828152600a6020908152604091829020548251808401909352601e8352600080516020615e3d833981519152918301919091528391906114d25760405162461bcd60e51b815260040161066a9190614e52565b508383816000600a0160008381526020019081526020016000206007015414604051806060016040528060298152602001615da860299139906115285760405162461bcd60e51b815260040161066a9190614e52565b5061153586600033610ae2565b80611554575061155486600080516020615ee783398151915233610ae2565b6040518060600160405280602a8152602001615d7e602a91399061158b5760405162461bcd60e51b815260040161066a9190614e52565b506000858152600a6020908152604091829020600201548251808401909352601d83527f4576656e743a2054686572652061726520736f6c64207469636b65747300000091830191909152156115f45760405162461bcd60e51b815260040161066a9190614e52565b506000858152600a60205260408120818155906116146001830182614c21565b611622600283016000614c5b565b6003820160009055600482016000905560058201600090556006820160009055600782016000905560088201600090556009820160006116629190614c5b565b611670600a83016000614c5b565b506000600b828101829055600c8301829055600d909201805460ff191690558781526020918252604080822080548251818602810186019093528083529293919290918301828280156116e257602002820191906000526020600020905b8154815260200190600101908083116116ce575b5050505050905060005b81518110156117cc5786828281518110611708576117086159bc565b6020026020010151036117ba576000888152600b602052604090208251611731906001906159d2565b81548110611741576117416159bc565b90600052602060002001546000600b0160008a81526020019081526020016000208281548110611773576117736159bc565b6000918252602080832090910192909255898152600b9091526040902080548061179f5761179f6159e5565b600190038181906000526020600020016000905590556117cc565b806117c4816159a3565b9150506116ec565b5060408051888152602081018890527ff67e86d3ffc2c26729aac7f4e3e07e009ad076ace7cd9e9fc184fd452ac0cc8591015b60405180910390a150505050505050565b600061141882614019565b600081815260026020908152604091829020548251808401909352601b8352600080516020615e1d833981519152918301919091528291906001600160a01b03166118795760405162461bcd60e51b815260040161066a9190614e52565b5061188682600033610ae2565b6040518060400160405280601d8152602001600080516020615ec7833981519152815250906118c85760405162461bcd60e51b815260040161066a9190614e52565b506000828152600960209081526040918290206003015482518084019093526015835274115d995b9d0e88115d995b9d0818d85b98d95b1959605a1b91830191909152610100900460ff16156119315760405162461bcd60e51b815260040161066a9190614e52565b506000805b6000848152600b60205260409020548110156119ad576000848152600b602052604081208054600a92919084908110611971576119716159bc565b90600052602060002001548152602001908152602001600020600801548261199991906159fb565b9150806119a5816159a3565b915050611936565b50600083815260096020908152604091829020600201548251808401909352601e83527f4576656e743a204576656e742063616e27742062652063616e63656c65640000918301919091528214611a175760405162461bcd60e51b815260040161066a9190614e52565b5060005b6000848152600b6020526040902054811015611bf75760005b6000858152600b602052604081208054600a92919085908110611a5957611a596159bc565b9060005260206000200154815260200190815260200160002060020180549050811015611be4576012546000868152600b60205260408120805491926001600160a01b031691600a91849187908110611ab457611ab46159bc565b906000526020600020015481526020019081526020016000206002018381548110611ae157611ae16159bc565b9060005260206000200154604051602401611afe91815260200190565b60408051601f198184030181529181526020820180516001600160e01b03166355ccad4360e01b17905251611b339190615a0e565b6000604051808303816000865af19150503d8060008114611b70576040519150601f19603f3d011682016040523d82523d6000602084013e611b75565b606091505b5091505060008082806020019051810190611b909190615a2a565b60008a81526011602090815260408083206001600160a01b0386168452909152812080549395509193508392611bc79084906159fb565b925050819055505050508080611bdc906159a3565b915050611a34565b5080611bef816159a3565b915050611a1b565b5060008381526009602052604090819020600301805461ff001916610100179055517fceaf11772900fe569752a0207c8639fb8228eb8663456dc9eaa3a08f927a8705906107289085815260200190565b61090583838360405180602001604052806000815250613209565b600061141882614092565b82611c7984846113fa565b611c83828261410c565b611c8e858585614117565b5050505050565b600081815260026020908152604091829020548251808401909352601b8352600080516020615e1d833981519152918301919091528291906001600160a01b0316611cf35760405162461bcd60e51b815260040161066a9190614e52565b50611d0082600033610ae2565b6040518060400160405280601d8152602001600080516020615ec783398151915281525090611d425760405162461bcd60e51b815260040161066a9190614e52565b506000828152600b6020908152604080832080548251818502810185019093528083529192909190830182828015611d9957602002820191906000526020600020905b815481526020019060010190808311611d85575b505050505090506000805b8251811015611e0a576000600a016000848381518110611dc657611dc66159bc565b6020026020010151815260200190815260200160002060020180549050600003611df85781611df4816159a3565b9250505b80611e02816159a3565b915050611da4565b50808251146040518060400160405280601d81526020017f4576656e743a2054686572652061726520736f6c64207469636b65747300000081525090611e635760405162461bcd60e51b815260040161066a9190614e52565b50611e6d846141e1565b600084815260096020526040812080546001600160a01b0319168155600181018290556002810182905560038101805471ffffffffffffffffffffffffffffffffffff1916905590611ec26004830182614c79565b50506000848152600b60205260408120611edb91614c5b565b60005b8251811015611c8e576000600a016000848381518110611f0057611f006159bc565b60200260200101518152602001908152602001600020600080820160009055600182016000611f2f9190614c21565b611f3d600283016000614c5b565b600382016000905560048201600090556005820160009055600682016000905560078201600090556008820160009055600982016000611f7d9190614c5b565b611f8b600a83016000614c5b565b506000600b8201819055600c820155600d01805460ff1916905580611faf816159a3565b915050611ede565b60008181526002602052604081205481906001600160a01b0316806120195760405162461bcd60e51b8152602060048201526018602482015277115490cdcc8c4e881a5b9d985b1a59081d1bdad95b88125160421b604482015260640161066a565b9392505050565b600083815260026020908152604091829020548251808401909352601b8352600080516020615e1d833981519152918301919091528491906001600160a01b031661207e5760405162461bcd60e51b815260040161066a9190614e52565b5061208b84600033610ae2565b6040518060400160405280601d8152602001600080516020615ec7833981519152815250906120cd5760405162461bcd60e51b815260040161066a9190614e52565b5060408051808201909152601d81527f4576656e743a2043616e277420736574206361736869657220686572650000006020820152600080516020615e8583398151915284036121305760405162461bcd60e51b815260040161066a9190614e52565b5061213c848484613cad565b50505050565b6000806001600160a01b0383166121ad5760405162461bcd60e51b815260206004820152602960248201527f4552433732313a2061646472657373207a65726f206973206e6f7420612076616044820152683634b21037bbb732b960b91b606482015260840161066a565b6001600160a01b039092166000908152600390920160205250604090205490565b6001600160a01b038116331461223c5760405162461bcd60e51b815260206004820152602d60248201527f526f6c65436f6e74726f6c3a2063616e206f6e6c792072656e6f756e6365207260448201526c37b632b9903337b91039b2b63360991b606482015260840161066a565b610905838383614117565b600081815260096020908152604091829020600301548251808401909352601c83527f4576656e743a204576656e74206973206e6f742063616e63656c6564000000009183019190915260ff6101009091041615156001146122bc5760405162461bcd60e51b815260040161066a9190614e52565b50600081815260116020908152604080832033845282529182902054825180840190935260158352744576656e743a204e6f207769746864726177616c7360581b918301919091526123215760405162461bcd60e51b815260040161066a9190614e52565b50600081815260116020908152604080832033808552925280832080549084905590519092919083908381818185875af1925050503d8060008114612382576040519150601f19603f3d011682016040523d82523d6000602084013e612387565b606091505b50509050806040518060400160405280601b81526020017f4576656e743a204661696c656420746f2073656e6420457468657200000000008152509061213c5760405162461bcd60e51b815260040161066a9190614e52565b60008c815260026020908152604091829020548251808401909352601b8352600080516020615e1d833981519152918301919091528d91906001600160a01b031661243e5760405162461bcd60e51b815260040161066a9190614e52565b5061244b8d600033610ae2565b8061246a575061246a8d600080516020615ee783398151915233610ae2565b6040518060600160405280602a8152602001615d7e602a9139906124a15760405162461bcd60e51b815260040161066a9190614e52565b50604080516060810190915260288082528685149190615e5d6020830139906124dd5760405162461bcd60e51b815260040161066a9190614e52565b508660000361252b57841580156124f2575082155b604051806060016040528060288152602001615e5d60289139906125295760405162461bcd60e51b815260040161066a9190614e52565b505b612539600880546001019055565b600061254460085490565b6000818152600a602052604090208181559091506001016125668d8f83615a58565b506040805160008082526020808301808552858352600a90915292902090516125959260029092019190614c9a565b506000818152600a60205260409020600481018a9055600781018f9055600381018990556125c7906009018888614bd6565b506000818152600a602081905260409091206125e591018686614bd6565b506000818152600a602052604090208390600b01612610828281358155602082013560018201555050565b50508a15801561261e575089155b1561264f576000818152600a60205260409020600581018c9055600681018b9055600d01805460ff19169055612799565b8a600003612671576000818152600a60205260409020426005909101556126e5565b60008e815260096020908152604091829020600301548251606081019093526027808452620100009091046001600160401b03168e10159291615df690830139906126cf5760405162461bcd60e51b815260040161066a9190614e52565b506000818152600a602052604090206005018b90555b89600003612707576000818152600a602052604090204260069091015561277c565b60008e815260096020908152604091829020600301548251606081019093526025808452600160501b9091046001600160401b03168d11159291615dd190830139906127665760405162461bcd60e51b815260040161066a9190614e52565b506000818152600a602052604090206006018a90555b6000818152600a60205260409020600d01805460ff191660011790555b6000600b0160008f81526020019081526020016000208190806001815401808255809150506001900390600052602060002001600090919091909150557f2a94cd6b8e4219d087c43453e983d276c11f9ba16e547f01adb19edb60ae3c7d8e828f8f60405161280b9493929190615b17565b60405180910390a15050505050505050505050505050565b6060600080600101805461074890615806565b6128413383836142b8565b5050565b600083815260026020908152604091829020548251808401909352601b8352600080516020615e1d833981519152918301919091528491906001600160a01b03166128a35760405162461bcd60e51b815260040161066a9190614e52565b506000838152600a6020908152604091829020548251808401909352601e8352600080516020615e3d833981519152918301919091528491906128f95760405162461bcd60e51b815260040161066a9190614e52565b508484816000600a0160008381526020019081526020016000206007015414604051806060016040528060298152602001615da8602991399061294f5760405162461bcd60e51b815260040161066a9190614e52565b5061295c87600033610ae2565b8061297b575061297b87600080516020615ee783398151915233610ae2565b6040518060600160405280602a8152602001615d7e602a9139906129b25760405162461bcd60e51b815260040161066a9190614e52565b506000868152600a6020908152604091829020600d01805460ff191688151590811790915582518a8152918201899052918101919091527f15fa4fe87d07b2a02e02cc0fac2981a3fd8653661340b9b26feae8ffefaade8a906060016117ff565b600081815260026020908152604091829020548251808401909352601b8352600080516020615e1d8339815191529183019190915260609183916001600160a01b0316612a735760405162461bcd60e51b815260040161066a9190614e52565b506000838152600b6020908152604080832080548251818502810185019093528083529192909190830182828015612aca57602002820191906000526020600020905b815481526020019060010190808311612ab6575b50505050509050600081516001600160401b03811115612aec57612aec615098565b604051908082528060200260200182016040528015612b2557816020015b612b12614cd5565b815260200190600190039081612b0a5790505b50905060005b8251811015612daf576000600a016000848381518110612b4d57612b4d6159bc565b60200260200101518152602001908152602001600020604051806101a001604052908160008201548152602001600182018054612b8990615806565b80601f0160208091040260200160405190810160405280929190818152602001828054612bb590615806565b8015612c025780601f10612bd757610100808354040283529160200191612c02565b820191906000526020600020905b815481529060010190602001808311612be557829003601f168201915b5050505050815260200160028201805480602002602001604051908101604052809291908181526020018280548015612c5a57602002820191906000526020600020905b815481526020019060010190808311612c46575b5050505050815260200160038201548152602001600482015481526020016005820154815260200160068201548152602001600782015481526020016008820154815260200160098201805480602002602001604051908101604052809291908181526020018280548015612cee57602002820191906000526020600020905b815481526020019060010190808311612cda575b50505050508152602001600a8201805480602002602001604051908101604052809291908181526020018280548015612d4657602002820191906000526020600020905b815481526020019060010190808311612d32575b5050509183525050604080518082018252600b8401548152600c840154602082810191909152830152600d9092015460ff1615159101528251839083908110612d9157612d916159bc565b60200260200101819052508080612da7906159a3565b915050612b2b565b509250505b50919050565b826001600160401b0316826001600160401b0316116040518060400160405280601881526020017f455243353030373a20496e76616c696420656e6454696d65000000000000000081525090612e235760405162461bcd60e51b815260040161066a9190614e52565b50612e32600780546001019055565b6000612e3d60075490565b6000818152600960205260409081902080546001600160a01b0319163317815560018082018990556003820180546001600160401b03898116600160501b0267ffffffffffffffff60501b19918c16620100000269ffffffffffffffff00ff1990931692909217909317929092169190911790559051919250907f9ce3d6db707bca4ba0eabed8fba1e2c013a1c0bc1132a764170a7854d198c73d90612ee69084908690615b54565b60405180910390a1612efa8260003361438b565b612f1382600080516020615ee78339815191523361438b565b612f3e827f21702c8af46127c7fa207f89d0b0a8441bb32959a0ac7df790e9ab1a25c989263361438b565b612f69827fb5a7f51d0593e853ad0aa6b718ee0bdd10c4966eb62d243b69d538e5823d04013361438b565b612f8282600080516020615e858339815191523361438b565b612f8c3383614497565b612f968284613d8f565b505050505050565b60606000612fab60075490565b905060008060015b83811161301a57612fc681600033610ae2565b80612fe55750612fe581600080516020615ee783398151915233610ae2565b8015612ff55750612ff5816145d1565b156130085782613004816159a3565b9350505b80613012816159a3565b915050612fb3565b506000826001600160401b0381111561303557613035615098565b60405190808252806020026020018201604052801561305e578160200160208202803683370190505b50905060015b8481116113f15761307781600033610ae2565b80613096575061309681600080516020615ee783398151915233610ae2565b80156130a657506130a6816145d1565b156130d757808284815181106130be576130be6159bc565b6020908102919091010152826130d3816159a3565b9350505b806130e1816159a3565b915050613064565b600083815260026020908152604091829020548251808401909352601b8352600080516020615e1d833981519152918301919091528491906001600160a01b03166131475760405162461bcd60e51b815260040161066a9190614e52565b5061315484600033610ae2565b6040518060400160405280601d8152602001600080516020615ec7833981519152815250906131965760405162461bcd60e51b815260040161066a9190614e52565b50600080516020615e858339815191528314156040518060400160405280602081526020017f4576656e743a2043616e27742072656d6f766520636173686965722068657265815250906131fd5760405162461bcd60e51b815260040161066a9190614e52565b5061213c848484611c6e565b6132133383613e17565b61322f5760405162461bcd60e51b815260040161066a9061583a565b61213c848484846145ee565b6060600061324883613ccd565b60008381526006820160205260408120805461326390615806565b80601f016020809104026020016040519081016040528092919081815260200182805461328f90615806565b80156132dc5780601f106132b1576101008083540402835291602001916132dc565b820191906000526020600020905b8154815290600101906020018083116132bf57829003601f168201915b5050505050905060006132fa60408051602081019091526000815290565b9050805160000361330d57509392505050565b815115613340578082604051602001613327929190615b6d565b6040516020818303038152906040529350505050919050565b600081511161335e5760405180602001604052806000815250613379565b8061336886614621565b604051602001613327929190615b6d565b95945050505050565b600083815260026020908152604091829020548251808401909352601b8352600080516020615e1d833981519152918301919091528491906001600160a01b03166133e05760405162461bcd60e51b815260040161066a9190614e52565b506000838152600a6020908152604091829020548251808401909352601e8352600080516020615e3d833981519152918301919091528491906134365760405162461bcd60e51b815260040161066a9190614e52565b508484816000600a0160008381526020019081526020016000206007015414604051806060016040528060298152602001615da8602991399061348c5760405162461bcd60e51b815260040161066a9190614e52565b5061349987600033610ae2565b806134b857506134b887600080516020615ee783398151915233610ae2565b6040518060600160405280602a8152602001615d7e602a9139906134ef5760405162461bcd60e51b815260040161066a9190614e52565b506000868152600a6020526040812060040180548792906135119084906159fb565b909155505060408051888152602081018890529081018690527f3a50fbe2fa0bdf2022fcd8fe2132970519fcf4df5cf97d78e86c510eb0805b6a906060016117ff565b600082815260026020908152604091829020548251808401909352601b8352600080516020615e1d833981519152918301919091528391906001600160a01b03166135b25760405162461bcd60e51b815260040161066a9190614e52565b506135bf83600033610ae2565b6040518060400160405280601d8152602001600080516020615ec7833981519152815250906136015760405162461bcd60e51b815260040161066a9190614e52565b506000826001600160401b031611604051806060016040528060228152602001615ea560229139906136465760405162461bcd60e51b815260040161066a9190614e52565b506000838152600960205260409020600301805483919060029061367a9084906201000090046001600160401b0316615b9c565b92506101000a8154816001600160401b0302191690836001600160401b031602179055508160006009016000858152602001908152602001600020600301600a8282829054906101000a90046001600160401b03166136d99190615b9c565b92506101000a8154816001600160401b0302191690836001600160401b0316021790555060005b60008481526009602052604090206004015481101561378057600084815260096020526040902060040180546001600160401b038516919083908110613748576137486159bc565b9060005260206000209060020201600001600082825461376891906159fb565b90915550819050613778816159a3565b915050613700565b506000838152600b60209081526040808320805482518185028101850190935280835291929091908301828280156137d757602002820191906000526020600020905b8154815260200190600101908083116137c3575b5050505050905060005b815181101561389f57836001600160401b03166000600a01600084848151811061380d5761380d6159bc565b60200260200101518152602001908152602001600020600501600082825461383591906159fb565b92505081905550836001600160401b03166000600a01600084848151811061385f5761385f6159bc565b60200260200101518152602001908152602001600020600601600082825461388791906159fb565b90915550819050613897816159a3565b9150506137e1565b50604080518581526001600160401b03851660208201527f9066be8d402a022f5b4db8b98825f0604ef760ea5053e46d7654a84d5f27ba89910160405180910390a150505050565b6001600160a01b03918216600090815260056020908152604080832093909416825291909152205460ff1690565b600083815260026020908152604091829020548251808401909352601b8352600080516020615e1d833981519152918301919091528491906001600160a01b03166139735760405162461bcd60e51b815260040161066a9190614e52565b506000838152600a6020908152604091829020548251808401909352601e8352600080516020615e3d833981519152918301919091528491906139c95760405162461bcd60e51b815260040161066a9190614e52565b508484816000600a0160008381526020019081526020016000206007015414604051806060016040528060298152602001615da86029913990613a1f5760405162461bcd60e51b815260040161066a9190614e52565b50613a2c87600033610ae2565b80613a4b5750613a4b87600080516020615ee783398151915233610ae2565b6040518060600160405280602a8152602001615d7e602a913990613a825760405162461bcd60e51b815260040161066a9190614e52565b50846000600a0160008881526020019081526020016000206004015410156040518060600160405280602e8152602001615f07602e913990613ad75760405162461bcd60e51b815260040161066a9190614e52565b506000868152600a6020526040902060040154613af59086906159d2565b6000878152600a60209081526040918290206002015482516060810190935260358084529310159290615f359083013990613b435760405162461bcd60e51b815260040161066a9190614e52565b506000868152600a602052604081206004018054879290613b659084906159d2565b909155505060408051888152602081018890529081018690527fb39ecd9af22a3fec10ec63455a79d572fdcfadf6a9005d5cd232b2829f958c70906060016117ff565b60606000613bb560075490565b905060008060015b838111613c01576000818152600960205260409020546001600160a01b031615613bef5782613beb816159a3565b9350505b80613bf9816159a3565b915050613bbd565b506000826001600160401b03811115613c1c57613c1c615098565b604051908082528060200260200182016040528015613c45578160200160208202803683370190505b50905060015b8481116113f1576000818152600960205260409020546001600160a01b031615613c9b5780828481518110613c8257613c826159bc565b602090810291909101015282613c97816159a3565b9350505b80613ca5816159a3565b915050613c4b565b82613cb884846113fa565b613cc2828261410c565b611c8e85858561438b565b613cd6816145d1565b613d1d5760405162461bcd60e51b8152602060048201526018602482015277115490cdcc8c4e881a5b9d985b1a59081d1bdad95b88125160421b604482015260640161066a565b50565b600081815260046020526040812080546001600160a01b0319166001600160a01b0385169081179091558290613d5582611fb7565b6001600160a01b03167f8c5be1e5ebec7d5bd14f71427d1e84f3dd0314c0f7b2291e5b200ac8c7c3b92560405160405180910390a4505050565b6000613d9a836145d1565b613dfd5760405162461bcd60e51b815260206004820152602e60248201527f45524337323155524953746f726167653a2055524920736574206f66206e6f6e60448201526d32bc34b9ba32b73a103a37b5b2b760911b606482015260840161066a565b6000838152600682016020526040902061213c83826158ce565b600080613e2383611fb7565b9050806001600160a01b0316846001600160a01b03161480613e4a5750613e4a81856138e7565b80610b115750836001600160a01b0316613e63846107cc565b6001600160a01b031614949350505050565b6000836001600160a01b0316613e8a83611fb7565b6001600160a01b031614613eee5760405162461bcd60e51b815260206004820152602560248201527f4552433732313a207472616e736665722066726f6d20696e636f72726563742060448201526437bbb732b960d91b606482015260840161066a565b6001600160a01b038316613f505760405162461bcd60e51b8152602060048201526024808201527f4552433732313a207472616e7366657220746f20746865207a65726f206164646044820152637265737360e01b606482015260840161066a565b613f5b600083613d20565b6001600160a01b03841660009081526003820160205260408120805460019290613f869084906159d2565b90915550506001600160a01b03831660009081526003820160205260408120805460019290613fb69084906159fb565b9091555050600082815260028201602052604080822080546001600160a01b0319166001600160a01b0387811691821790925591518593918816917fddf252ad1be2c89b69c2b068fc378daa952ba7f163c4a11628f55a4df523b3ef91a461213c565b600080614025836145d1565b61406c5760405162461bcd60e51b8152602060048201526018602482015277115490cd4c0c0dce88125b9d985b1a59081d1bdad95b925960421b604482015260640161066a565b60009283526009016020525060409020600301546201000090046001600160401b031690565b60008061409e836145d1565b6140e55760405162461bcd60e51b8152602060048201526018602482015277115490cd4c0c0dce88125b9d985b1a59081d1bdad95b925960421b604482015260640161066a565b6000928352600901602052506040902060030154600160501b90046001600160401b031690565b612841828233614721565b6000614124848484610ae2565b1561213c576000848152601382016020908152604080832086845282528083206001600160a01b03861684528252808320805460ff19169055601584019091529020546141718582614785565b6001600160a01b0383166000908152601583016020526040812055336001600160a01b0316836001600160a01b0316857f7b00293d63517946aeba2f56c6b4c5dec87b67393ac48520994d3d8ce776335a886040516141d291815260200190565b60405180910390a45050505050565b6000806141ed83611fb7565b90506141fa600084613d20565b6001600160a01b038116600090815260038301602052604081208054600192906142259084906159d2565b9091555050600083815260028301602052604080822080546001600160a01b0319169055518491906001600160a01b038416907fddf252ad1be2c89b69c2b068fc378daa952ba7f163c4a11628f55a4df523b3ef908390a460008381526006830160205260409020805461429890615806565b159050610905576000838152600683016020526040812061090591614c21565b6000826001600160a01b0316846001600160a01b03160361431b5760405162461bcd60e51b815260206004820152601960248201527f4552433732313a20617070726f766520746f2063616c6c657200000000000000604482015260640161066a565b6001600160a01b038481166000818152600584016020908152604080832094881680845294825291829020805460ff191687151590811790915591519182527f17307eab39ab6107e8899845ad3d59bd9653f200f220920489ca2b5937696c31910160405180910390a350505050565b6000614398848484610ae2565b61213c576000848152601382016020908152604080832086845282528083206001600160a01b03868116808652918452828520805460ff19166001908117909155835180850185529283528285018981528a875260148801865293862080548083018255818852958720845160029097020180546001600160a01b0319169690931695909517825592519083015592879052905461443691906159d2565b6001600160a01b0384166000908152601584016020526040902055336001600160a01b0316836001600160a01b0316857fd9dfff7752b7a810e2b646c0c96b76bc9ed817f6c6f7848bbe68163f7e8b4378886040516141d291815260200190565b60006001600160a01b0383166144ef5760405162461bcd60e51b815260206004820181905260248201527f4552433732313a206d696e7420746f20746865207a65726f2061646472657373604482015260640161066a565b6144f8826145d1565b156145455760405162461bcd60e51b815260206004820152601c60248201527f4552433732313a20746f6b656e20616c7265616479206d696e74656400000000604482015260640161066a565b6001600160a01b038316600090815260038201602052604081208054600192906145709084906159fb565b9091555050600082815260028201602052604080822080546001600160a01b0319166001600160a01b03871690811790915590518492907fddf252ad1be2c89b69c2b068fc378daa952ba7f163c4a11628f55a4df523b3ef908290a4505050565b6000908152600260205260409020546001600160a01b0316151590565b6145f9848484613e75565b6146058484848461486d565b61213c5760405162461bcd60e51b815260040161066a90615bc3565b6060816000036146485750506040805180820190915260018152600360fc1b602082015290565b8160005b8115614672578061465c816159a3565b915061466b9050600a83615c2b565b915061464c565b6000816001600160401b0381111561468c5761468c615098565b6040519080825280601f01601f1916602001820160405280156146b6576020820181803683370190505b5090505b8415610b11576146cb6001836159d2565b91506146d8600a86615c3f565b6146e39060306159fb565b60f81b8183815181106146f8576146f86159bc565b60200101906001600160f81b031916908160001a90535061471a600a86615c2b565b94506146ba565b61472c838383610ae2565b610905576147398161496e565b614744836020614980565b61474d85614b1b565b60405160200161475f93929190615c53565b60408051601f198184030181529082905262461bcd60e51b825261066a91600401614e52565b600082815260146020526040812080546147a1906001906159d2565b815481106147b1576147b16159bc565b906000526020600020906002020181601401600085815260200190815260200160002083815481106147e5576147e56159bc565b60009182526020808320845460029093020180546001600160a01b0319166001600160a01b039093169290921782556001938401549390910192909255848152601483019091526040902080548061483f5761483f6159e5565b60008281526020812060026000199093019283020180546001600160a01b0319168155600101559055505050565b60006001600160a01b0384163b1561496357604051630a85bd0160e11b81526001600160a01b0385169063150b7a02906148b1903390899088908890600401615cf5565b6020604051808303816000875af19250505080156148ec575060408051601f3d908101601f191682019092526148e991810190615d32565b60015b614949573d80801561491a576040519150601f19603f3d011682016040523d82523d6000602084013e61491f565b606091505b5080516000036149415760405162461bcd60e51b815260040161066a90615bc3565b805181602001fd5b6001600160e01b031916630a85bd0160e11b149050610b11565b506001949350505050565b60606114186001600160a01b03831660145b6060600061498f836002615d4f565b61499a9060026159fb565b6001600160401b038111156149b1576149b1615098565b6040519080825280601f01601f1916602001820160405280156149db576020820181803683370190505b509050600360fc1b816000815181106149f6576149f66159bc565b60200101906001600160f81b031916908160001a905350600f60fb1b81600181518110614a2557614a256159bc565b60200101906001600160f81b031916908160001a9053506000614a49846002615d4f565b614a549060016159fb565b90505b6001811115614acc576f181899199a1a9b1b9c1cb0b131b232b360811b85600f1660108110614a8857614a886159bc565b1a60f81b828281518110614a9e57614a9e6159bc565b60200101906001600160f81b031916908160001a90535060049490941c93614ac581615d66565b9050614a57565b5083156120195760405162461bcd60e51b815260206004820181905260248201527f537472696e67733a20686578206c656e67746820696e73756666696369656e74604482015260640161066a565b606081600003614b455750506040805180820190915260048152630307830360e41b602082015290565b8160005b8115614b685780614b59816159a3565b915050600882901c9150614b49565b610b118482614980565b60405180610100016040528060006001600160a01b03168152602001600081526020016000815260200160001515815260200160001515815260200160006001600160401b0316815260200160006001600160401b03168152602001606081525090565b828054828255906000526020600020908101928215614c11579160200282015b82811115614c11578235825591602001919060010190614bf6565b50614c1d929150614d58565b5090565b508054614c2d90615806565b6000825580601f10614c3d575050565b601f016020900490600052602060002090810190613d1d9190614d58565b5080546000825590600052602060002090810190613d1d9190614d58565b5080546000825560020290600052602060002090810190613d1d9190614d6d565b828054828255906000526020600020908101928215614c11579160200282015b82811115614c11578251825591602001919060010190614cba565b604051806101a001604052806000815260200160608152602001606081526020016000815260200160008152602001600081526020016000815260200160008152602001600081526020016060815260200160608152602001614d4b604051806040016040528060008152602001600081525090565b8152600060209091015290565b5b80821115614c1d5760008155600101614d59565b5b80821115614c1d576000815560018101805460ff19169055600201614d6e565b6001600160e01b031981168114613d1d57600080fd5b600060208284031215614db657600080fd5b813561201981614d8e565b80358015158114614dd157600080fd5b919050565b60008060408385031215614de957600080fd5b82359150614df960208401614dc1565b90509250929050565b60005b83811015614e1d578181015183820152602001614e05565b50506000910152565b60008151808452614e3e816020860160208601614e02565b601f01601f19169290920160200192915050565b6020815260006120196020830184614e26565b600060208284031215614e7757600080fd5b5035919050565b6001600160a01b0381168114613d1d57600080fd5b60008060408385031215614ea657600080fd5b8235614eb181614e7e565b946020939093013593505050565b600081518084526020808501945080840160005b83811015614efd5781518051885283015160ff168388015260409096019590820190600101614ed3565b509495945050505050565b600061010060018060a01b038351168452602083015160208501526040830151604085015260608301511515606085015260808301511515608085015260a0830151614f5f60a08601826001600160401b03169052565b5060c0830151614f7a60c08601826001600160401b03169052565b5060e08301518160e086015261337982860182614ebf565b6020815260006120196020830184614f08565b602080825282518282018190526000919060409081850190868401855b82811015614ff057815180516001600160a01b03168552860151868501529284019290850190600101614fc2565b5091979650505050505050565b60008060006060848603121561501257600080fd5b8335925060208401359150604084013561502b81614e7e565b809150509250925092565b6000806000806080858703121561504c57600080fd5b5050823594602084013594506040840135936060013592509050565b6000806040838503121561507b57600080fd5b82359150602083013561508d81614e7e565b809150509250929050565b634e487b7160e01b600052604160045260246000fd5b60006001600160401b03808411156150c8576150c8615098565b604051601f8501601f19908116603f011681019082821181831017156150f0576150f0615098565b8160405280935085815286868601111561510957600080fd5b858560208301376000602087830101525050509392505050565b600082601f83011261513457600080fd5b612019838335602085016150ae565b6000806040838503121561515657600080fd5b8235915060208301356001600160401b0381111561517357600080fd5b61517f85828601615123565b9150509250929050565b60008060006060848603121561519e57600080fd5b83356151a981614e7e565b925060208401356151b981614e7e565b929592945050506040919091013590565b60008083601f8401126151dc57600080fd5b5081356001600160401b038111156151f357600080fd5b6020830191508360208260051b850101111561520e57600080fd5b9250929050565b600060408284031215612db457600080fd5b60008060008060008060008060006101008a8c03121561524657600080fd5b8935985060208a0135975060408a01356001600160401b038082111561526b57600080fd5b6152778d838e01615123565b985060608c0135975060808c013591508082111561529457600080fd5b6152a08d838e016151ca565b909750955060a08c01359150808211156152b957600080fd5b506152c68c828d016151ca565b90945092506152da90508b60c08c01615215565b90509295985092959850929598565b6000602080830181845280855180835260408601915060408160051b870101925083870160005b8281101561533e57603f1988860301845261532c858351614f08565b94509285019290850190600101615310565b5092979650505050505050565b6000806040838503121561535e57600080fd5b50508035926020909101359150565b60006020828403121561537f57600080fd5b813561201981614e7e565b60008083601f84011261539c57600080fd5b5081356001600160401b038111156153b357600080fd5b60208301915083602082850101111561520e57600080fd5b6000806000806000806000806000806000806101408d8f0312156153ee57600080fd5b8c359b506001600160401b0360208e0135111561540a57600080fd5b61541a8e60208f01358f0161538a565b909b50995060408d0135985060608d0135975060808d0135965060a08d013595506001600160401b0360c08e0135111561545357600080fd5b6154638e60c08f01358f016151ca565b90955093506001600160401b0360e08e0135111561548057600080fd5b6154908e60e08f01358f016151ca565b90935091506154a38e6101008f01615215565b90509295989b509295989b509295989b565b600080604083850312156154c857600080fd5b82356154d381614e7e565b9150614df960208401614dc1565b6000806000606084860312156154f657600080fd5b833592506020840135915061550d60408501614dc1565b90509250925092565b600081518084526020808501945080840160005b83811015614efd5781518752958201959082019060010161552a565b60006020808301818452808551808352604092508286019150828160051b87010184880160005b8381101561567757603f1989840301855281516101c08151855288820151818a87015261559c82870182614e26565b91505087820151858203898701526155b48282615516565b606084810151908801526080808501519088015260a0808501519088015260c0808501519088015260e08085015190880152610100808501519088015261012080850151888303828a0152919350915061560e8382615516565b92505050610140808301518683038288015261562a8382615516565b925050506101608083015161564b8288018280518252602090810151910152565b505061018082015191506156646101a086018315159052565b958801959350509086019060010161556d565b509098975050505050505050565b80356001600160401b0381168114614dd157600080fd5b600080600080608085870312156156b257600080fd5b843593506156c260208601615685565b92506156d060408601615685565b915060608501356001600160401b038111156156eb57600080fd5b6156f787828801615123565b91505092959194509250565b6020815260006120196020830184615516565b6000806000806080858703121561572c57600080fd5b843561573781614e7e565b9350602085013561574781614e7e565b92506040850135915060608501356001600160401b0381111561576957600080fd5b8501601f8101871361577a57600080fd5b6156f7878235602084016150ae565b60008060006060848603121561579e57600080fd5b505081359360208301359350604090920135919050565b600080604083850312156157c857600080fd5b82359150614df960208401615685565b600080604083850312156157eb57600080fd5b82356157f681614e7e565b9150602083013561508d81614e7e565b600181811c9082168061581a57607f821691505b602082108103612db457634e487b7160e01b600052602260045260246000fd5b6020808252602e908201527f4552433732313a2063616c6c6572206973206e6f7420746f6b656e206f776e6560408201526d1c881b9bdc88185c1c1c9bdd995960921b606082015260800190565b601f82111561090557600081815260208120601f850160051c810160208610156158af5750805b601f850160051c820191505b81811015612f96578281556001016158bb565b81516001600160401b038111156158e7576158e7615098565b6158fb816158f58454615806565b84615888565b602080601f83116001811461593057600084156159185750858301515b600019600386901b1c1916600185901b178555612f96565b600085815260208120601f198616915b8281101561595f57888601518255948401946001909101908401615940565b508582101561597d5787850151600019600388901b60f8161c191681555b5050505050600190811b01905550565b634e487b7160e01b600052601160045260246000fd5b6000600182016159b5576159b561598d565b5060010190565b634e487b7160e01b600052603260045260246000fd5b818103818111156114185761141861598d565b634e487b7160e01b600052603160045260246000fd5b808201808211156114185761141861598d565b60008251615a20818460208701614e02565b9190910192915050565b60008060408385031215615a3d57600080fd5b8251615a4881614e7e565b6020939093015192949293505050565b6001600160401b03831115615a6f57615a6f615098565b615a8383615a7d8354615806565b83615888565b6000601f841160018114615ab75760008515615a9f5750838201355b600019600387901b1c1916600186901b178355611c8e565b600083815260209020601f19861690835b82811015615ae85786850135825560209485019460019092019101615ac8565b5086821015615b055760001960f88860031b161c19848701351681555b505060018560011b0183555050505050565b84815283602082015260606040820152816060820152818360808301376000818301608090810191909152601f909201601f191601019392505050565b828152604060208201526000610b116040830184614e26565b60008351615b7f818460208801614e02565b835190830190615b93818360208801614e02565b01949350505050565b6001600160401b03818116838216019080821115615bbc57615bbc61598d565b5092915050565b60208082526032908201527f4552433732313a207472616e7366657220746f206e6f6e20455243373231526560408201527131b2b4bb32b91034b6b83632b6b2b73a32b960711b606082015260800190565b634e487b7160e01b600052601260045260246000fd5b600082615c3a57615c3a615c15565b500490565b600082615c4e57615c4e615c15565b500690565b7402937b632a1b7b73a3937b61d1030b1b1b7bab73a1605d1b815260008451615c83816015850160208901614e02565b7001034b99036b4b9b9b4b733903937b6329607d1b6015918401918201528451615cb4816026840160208901614e02565b720103337b91032bb32b73a103bb4ba341034b21606d1b602692909101918201528351615ce8816039840160208801614e02565b0160390195945050505050565b6001600160a01b0385811682528416602082015260408101839052608060608201819052600090615d2890830184614e26565b9695505050505050565b600060208284031215615d4457600080fd5b815161201981614d8e565b80820281158282048414176114185761141861598d565b600081615d7557615d7561598d565b50600019019056fe4576656e743a2043616c6c6572206973206e6f7420616e2061646d696e206f72206d6f64657261746f724576656e743a20546869732063617465676f727920697320666f7220616e6f74686572206576656e744576656e743a2043617465676f727920656e64206461746520697320696e636f72726563744576656e743a2043617465676f7279207374617274206461746520697320696e636f72726563744576656e743a204576656e7420646f6573206e6f7420657869737400000000004576656e743a2043617465676f727920646f6573206e6f7420657869737400004576656e743a20446973636f756e7420706172616d6574657273206c656e677468206e6f74206571ff3317e1e0e8c784290b957ee9b65ea8fe96420c4819db463283b95ecbe4a3fe4576656e743a20496e76616c696420706f7374706f6e652074696d6520676976656e4576656e743a2043616c6c6572206973206e6f7420616e2061646d696e00000071f3d55856e4058ed06ee057d79ada615f65cdf5f9ee88181b914225088f834f4576656e743a2043616e2774206465637265617365207469636b65747320636f756e742062656c6f77207a65726f4576656e743a205469636b65747320616d6f756e742063616e2774206265206c657373207468616e20736f6c64207469636b657473a2646970667358221220e4ed66a877357c5ef291f15a1dc616351314699aa1ccbbecea121ea131fb08c764736f6c63430008110033",
  "linkReferences": {},
  "deployedLinkReferences": {}
}