{
  "_format": "hh-sol-artifact-1",
  "contractName": "EventTicketControllerFacet",
  "sourceName": "contracts/EventDiamond/facets/EventTicketControllerFacet.sol",
  "abi": [
    {
      "anonymous": false,
      "inputs": [
        {
          "indexed": true,
          "internalType": "uint256",
          "name": "fromTokenId",
          "type": "uint256"
        },
        {
          "indexed": false,
          "internalType": "uint256",
          "name": "toTokenId",
          "type": "uint256"
        },
        {
          "indexed": true,
          "internalType": "address",
          "name": "fromAddress",
          "type": "address"
        },
        {
          "indexed": true,
          "internalType": "address",
          "name": "toAddress",
          "type": "address"
        }
      ],
      "name": "ConsecutiveTransfer",
      "type": "event"
    },
    {
      "anonymous": false,
      "inputs": [
        {
          "indexed": false,
          "internalType": "uint256",
          "name": "eventId",
          "type": "uint256"
        },
        {
          "indexed": false,
          "internalType": "uint256",
          "name": "date",
          "type": "uint256"
        },
        {
          "indexed": false,
          "internalType": "uint8",
          "name": "percentage",
          "type": "uint8"
        }
      ],
      "name": "EventRefundDateAdded",
      "type": "event"
    },
    {
      "anonymous": false,
      "inputs": [
        {
          "indexed": false,
          "internalType": "uint256",
          "name": "eventId",
          "type": "uint256"
        }
      ],
      "name": "EventWithdraw",
      "type": "event"
    },
    {
      "anonymous": false,
      "inputs": [
        {
          "indexed": false,
          "internalType": "uint256",
          "name": "eventId",
          "type": "uint256"
        },
        {
          "indexed": false,
          "internalType": "address[]",
          "name": "accounts",
          "type": "address[]"
        },
        {
          "indexed": false,
          "internalType": "address",
          "name": "staffMember",
          "type": "address"
        }
      ],
      "name": "InvitationSent",
      "type": "event"
    },
    {
      "anonymous": false,
      "inputs": [
        {
          "indexed": false,
          "internalType": "uint256",
          "name": "ticketId",
          "type": "uint256"
        },
        {
          "indexed": false,
          "internalType": "address",
          "name": "account",
          "type": "address"
        }
      ],
      "name": "RefundWithdraw",
      "type": "event"
    },
    {
      "anonymous": false,
      "inputs": [
        {
          "indexed": false,
          "internalType": "uint256",
          "name": "ticketId",
          "type": "uint256"
        },
        {
          "indexed": false,
          "internalType": "address",
          "name": "account",
          "type": "address"
        }
      ],
      "name": "TicketBought",
      "type": "event"
    },
    {
      "anonymous": false,
      "inputs": [
        {
          "indexed": false,
          "internalType": "uint256",
          "name": "eventId",
          "type": "uint256"
        },
        {
          "indexed": false,
          "internalType": "uint256",
          "name": "ticketId",
          "type": "uint256"
        },
        {
          "indexed": false,
          "internalType": "address",
          "name": "staffMember",
          "type": "address"
        }
      ],
      "name": "TicketClipped",
      "type": "event"
    },
    {
      "anonymous": false,
      "inputs": [
        {
          "indexed": false,
          "internalType": "uint256",
          "name": "eventId",
          "type": "uint256"
        },
        {
          "indexed": false,
          "internalType": "uint256",
          "name": "categoryId",
          "type": "uint256"
        },
        {
          "indexed": false,
          "internalType": "uint256",
          "name": "ticketId",
          "type": "uint256"
        },
        {
          "indexed": false,
          "internalType": "address",
          "name": "account",
          "type": "address"
        }
      ],
      "name": "TicketRefunded",
      "type": "event"
    },
    {
      "anonymous": false,
      "inputs": [
        {
          "indexed": false,
          "internalType": "uint256",
          "name": "eventId",
          "type": "uint256"
        },
        {
          "indexed": false,
          "internalType": "uint256",
          "name": "ticketCount",
          "type": "uint256"
        },
        {
          "indexed": false,
          "internalType": "address",
          "name": "staffMember",
          "type": "address"
        }
      ],
      "name": "TicketsBooked",
      "type": "event"
    },
    {
      "inputs": [
        {
          "internalType": "uint256",
          "name": "_eventId",
          "type": "uint256"
        },
        {
          "components": [
            {
              "internalType": "uint256",
              "name": "date",
              "type": "uint256"
            },
            {
              "internalType": "uint8",
              "name": "percentage",
              "type": "uint8"
            }
          ],
          "internalType": "struct RefundData",
          "name": "_refundData",
          "type": "tuple"
        }
      ],
      "name": "addRefundDeadline",
      "outputs": [],
      "stateMutability": "nonpayable",
      "type": "function"
    },
    {
      "inputs": [
        {
          "internalType": "uint256",
          "name": "_eventId",
          "type": "uint256"
        },
        {
          "components": [
            {
              "internalType": "uint256",
              "name": "categoryId",
              "type": "uint256"
            },
            {
              "internalType": "uint256",
              "name": "ticketAmount",
              "type": "uint256"
            }
          ],
          "internalType": "struct CategoryTicketAmount[]",
          "name": "_categoryTicketAmount",
          "type": "tuple[]"
        },
        {
          "components": [
            {
              "internalType": "uint256",
              "name": "row",
              "type": "uint256"
            },
            {
              "internalType": "uint256",
              "name": "seat",
              "type": "uint256"
            },
            {
              "internalType": "address",
              "name": "account",
              "type": "address"
            }
          ],
          "internalType": "struct TicketPlaceAddress[]",
          "name": "_place",
          "type": "tuple[]"
        },
        {
          "internalType": "string[]",
          "name": "_ticketMetadataUris",
          "type": "string[]"
        }
      ],
      "name": "bookTickets",
      "outputs": [],
      "stateMutability": "nonpayable",
      "type": "function"
    },
    {
      "inputs": [
        {
          "internalType": "uint256",
          "name": "_eventId",
          "type": "uint256"
        },
        {
          "internalType": "uint256",
          "name": "_categoryId",
          "type": "uint256"
        },
        {
          "components": [
            {
              "internalType": "uint256",
              "name": "amount",
              "type": "uint256"
            },
            {
              "internalType": "uint256",
              "name": "price",
              "type": "uint256"
            }
          ],
          "internalType": "struct TicketPriceData[]",
          "name": "_priceData",
          "type": "tuple[]"
        },
        {
          "components": [
            {
              "internalType": "uint256",
              "name": "row",
              "type": "uint256"
            },
            {
              "internalType": "uint256",
              "name": "seat",
              "type": "uint256"
            }
          ],
          "internalType": "struct TicketPlace[]",
          "name": "_place",
          "type": "tuple[]"
        },
        {
          "internalType": "string[]",
          "name": "_ticketMetadataUris",
          "type": "string[]"
        }
      ],
      "name": "buyTickets",
      "outputs": [],
      "stateMutability": "payable",
      "type": "function"
    },
    {
      "inputs": [
        {
          "components": [
            {
              "internalType": "uint256",
              "name": "eventId",
              "type": "uint256"
            },
            {
              "internalType": "uint256",
              "name": "categoryId",
              "type": "uint256"
            }
          ],
          "internalType": "struct EventCategoryData[]",
          "name": "_eventCategoryData",
          "type": "tuple[]"
        },
        {
          "components": [
            {
              "internalType": "uint256",
              "name": "amount",
              "type": "uint256"
            },
            {
              "internalType": "uint256",
              "name": "price",
              "type": "uint256"
            }
          ],
          "internalType": "struct TicketPriceData[]",
          "name": "_priceData",
          "type": "tuple[]"
        },
        {
          "components": [
            {
              "internalType": "uint256",
              "name": "row",
              "type": "uint256"
            },
            {
              "internalType": "uint256",
              "name": "seat",
              "type": "uint256"
            }
          ],
          "internalType": "struct TicketPlace[]",
          "name": "_place",
          "type": "tuple[]"
        },
        {
          "internalType": "string[]",
          "name": "_ticketMetadataUris",
          "type": "string[]"
        }
      ],
      "name": "buyTickets",
      "outputs": [],
      "stateMutability": "payable",
      "type": "function"
    },
    {
      "inputs": [
        {
          "internalType": "uint256",
          "name": "_eventId",
          "type": "uint256"
        },
        {
          "internalType": "uint256",
          "name": "_ticketId",
          "type": "uint256"
        },
        {
          "internalType": "uint256",
          "name": "signatureTimestamp",
          "type": "uint256"
        },
        {
          "internalType": "bytes",
          "name": "signature",
          "type": "bytes"
        }
      ],
      "name": "clipTicket",
      "outputs": [],
      "stateMutability": "nonpayable",
      "type": "function"
    },
    {
      "inputs": [
        {
          "internalType": "uint256",
          "name": "_eventId",
          "type": "uint256"
        }
      ],
      "name": "getAddressTicketIdsByEvent",
      "outputs": [
        {
          "internalType": "uint256[]",
          "name": "",
          "type": "uint256[]"
        }
      ],
      "stateMutability": "view",
      "type": "function"
    },
    {
      "inputs": [
        {
          "components": [
            {
              "internalType": "uint256",
              "name": "eventId",
              "type": "uint256"
            },
            {
              "internalType": "uint256",
              "name": "categoryId",
              "type": "uint256"
            },
            {
              "internalType": "uint256",
              "name": "ticketId",
              "type": "uint256"
            }
          ],
          "internalType": "struct ReturnTicketParams",
          "name": "_returnTicketParams",
          "type": "tuple"
        }
      ],
      "name": "returnTicket",
      "outputs": [],
      "stateMutability": "nonpayable",
      "type": "function"
    },
    {
      "inputs": [
        {
          "internalType": "uint256",
          "name": "_eventId",
          "type": "uint256"
        },
        {
          "internalType": "uint256[]",
          "name": "_ticketIds",
          "type": "uint256[]"
        },
        {
          "internalType": "address[]",
          "name": "_accounts",
          "type": "address[]"
        }
      ],
      "name": "sendInvitation",
      "outputs": [],
      "stateMutability": "nonpayable",
      "type": "function"
    },
    {
      "inputs": [
        {
          "internalType": "uint256",
          "name": "_feePercentageInBps",
          "type": "uint256"
        }
      ],
      "name": "setReferralCommissionPercentage",
      "outputs": [],
      "stateMutability": "nonpayable",
      "type": "function"
    },
    {
      "inputs": [
        {
          "internalType": "uint256",
          "name": "_feePercentageInBps",
          "type": "uint256"
        }
      ],
      "name": "setTicketFeePercentage",
      "outputs": [],
      "stateMutability": "nonpayable",
      "type": "function"
    },
    {
      "inputs": [
        {
          "internalType": "uint256",
          "name": "_eventId",
          "type": "uint256"
        },
        {
          "internalType": "uint256",
          "name": "_ticketId",
          "type": "uint256"
        },
        {
          "internalType": "address",
          "name": "_oldOwner",
          "type": "address"
        },
        {
          "internalType": "address",
          "name": "_newOwner",
          "type": "address"
        }
      ],
      "name": "updateTicketIdAfterTransfer",
      "outputs": [],
      "stateMutability": "nonpayable",
      "type": "function"
    },
    {
      "inputs": [
        {
          "internalType": "uint256",
          "name": "_eventId",
          "type": "uint256"
        }
      ],
      "name": "withdrawEventBalance",
      "outputs": [],
      "stateMutability": "nonpayable",
      "type": "function"
    },
    {
      "inputs": [],
      "name": "withdrawFees",
      "outputs": [],
      "stateMutability": "nonpayable",
      "type": "function"
    },
    {
      "inputs": [
        {
          "internalType": "uint256",
          "name": "_eventId",
          "type": "uint256"
        }
      ],
      "name": "withdrawReferralCommissions",
      "outputs": [],
      "stateMutability": "nonpayable",
      "type": "function"
    }
  ],
  "bytecode": "0x608060405234801561001057600080fd5b50614f27806100206000396000f3fe6080604052600436106100ad5760003560e01c8063262e6b4b146100b257806328e13a9e146100d45780632d3bf559146100f4578063476343ee146101145780634f905e5d1461012957806356a61c8e1461013c578063669373021461015c5780637ce8b3411461017c5780639cbea3601461019c578063ab6a8d6a146101bc578063b61c7dc1146101dc578063e3bccc0f146101fc578063ef71b78a14610232578063f07051a214610245575b600080fd5b3480156100be57600080fd5b506100d26100cd366004613fd2565b610265565b005b3480156100e057600080fd5b506100d26100ef36600461418b565b610642565b34801561010057600080fd5b506100d261010f366004614312565b610c9c565b34801561012057600080fd5b506100d26110b1565b6100d26101373660046143f5565b611176565b34801561014857600080fd5b506100d2610157366004614490565b611440565b34801561016857600080fd5b506100d2610177366004614490565b611496565b34801561018857600080fd5b506100d26101973660046144a9565b6114ec565b3480156101a857600080fd5b506100d26101b7366004614507565b6116af565b3480156101c857600080fd5b506100d26101d7366004614551565b6117e0565b3480156101e857600080fd5b506100d26101f7366004614490565b611f23565b34801561020857600080fd5b5061021c610217366004614490565b61235c565b60405161022991906145ac565b60405180910390f35b6100d26102403660046145f0565b612426565b34801561025157600080fd5b506100d2610260366004614490565b61273c565b600084815260026020908152604091829020548251808401909352601b8352600080516020614ca3833981519152918301919091528591906001600160a01b03166102cc5760405162461bcd60e51b81526004016102c391906146f7565b60405180910390fd5b50600080868152600e6020526040902060030154610100900460ff1660028111156102f9576102f961470a565b14604051806040016040528060158152602001600080516020614d608339815191528152509061033c5760405162461bcd60e51b81526004016102c391906146f7565b50610349856000336128ab565b80610368575061036885600080516020614da0833981519152336128ab565b806103995750610399857fb5a7f51d0593e853ad0aa6b718ee0bdd10c4966eb62d243b69d538e5823d0401336128ab565b604051806060016040528060388152602001614de660389139906103d05760405162461bcd60e51b81526004016102c391906146f7565b5042611c206103de876128dd565b6103e89190614736565b6001600160401b0316111580156104105750426104048661292b565b6001600160401b031610155b604051806060016040528060258152602001614eaa60259139906104475760405162461bcd60e51b81526004016102c391906146f7565b5061045384848461297a565b604051806040016040528060188152602001774576656e743a20496e76616c6964207369676e617475726560401b815250906104a25760405162461bcd60e51b81526004016102c391906146f7565b50601a54604051600091600191606091849182916001600160a01b0316906104d49030908c908890889060240161475d565b60408051601f198184030181529181526020820180516001600160e01b0316631e27140560e01b179052516105099190614794565b6000604051808303816000865af19150503d8060008114610546576040519150601f19603f3d011682016040523d82523d6000602084013e61054b565b606091505b5091509150816040518060400160405280601d8152602001600080516020614e1e833981519152815250906105935760405162461bcd60e51b81526004016102c391906146f7565b50808060200190518101906105a891906147b0565b9450846040518060400160405280601881526020017722bb32b73a1d1021b634b8103a34b1b5b2ba1032b93937b960411b815250906105fa5760405162461bcd60e51b81526004016102c391906146f7565b507f73b94823b249d530a2b7223a82b4ae3a07a452eb37749ebe162f8bba7fb01f558a8a3360405161062e939291906147d9565b60405180910390a150505050505050505050565b600084815260026020908152604091829020548251808401909352601b8352600080516020614ca3833981519152918301919091528591906001600160a01b03166106a05760405162461bcd60e51b81526004016102c391906146f7565b506106ad856000336128ab565b806106cc57506106cc85600080516020614da0833981519152336128ab565b6040518060600160405280602a8152602001614b7f602a9139906107035760405162461bcd60e51b81526004016102c391906146f7565b50835160001415604051806060016040528060258152602001614e6060259139906107415760405162461bcd60e51b81526004016102c391906146f7565b5081518351146040518060400160405280601f8152602001600080516020614d40833981519152815250906107895760405162461bcd60e51b81526004016102c391906146f7565b50600080868152600e6020526040902060030154610100900460ff1660028111156107b6576107b661470a565b14604051806040016040528060158152602001600080516020614d60833981519152815250906107f95760405162461bcd60e51b81526004016102c391906146f7565b5060008060005b8651811015610a1a576000600f016000888381518110610822576108226147f8565b602002602001015160000151815260200190815260200160002060000154600014156040518060400160405280601e8152602001600080516020614cef833981519152815250906108865760405162461bcd60e51b81526004016102c391906146f7565b50876000600f0160008984815181106108a1576108a16147f8565b60200260200101516000015181526020019081526020016000206007015414604051806060016040528060298152602001614bcf60299139906108f75760405162461bcd60e51b81526004016102c391906146f7565b5086818151811061090a5761090a6147f8565b60200260200101516020015183610921919061480e565b92506000600f01600088838151811061093c5761093c6147f8565b602002602001015160000151815260200190815260200160002060040154836000600f0160008a8581518110610974576109746147f8565b60200260200101516000015181526020019081526020016000206002018054905061099f919061480e565b1115604051806060016040528060238152602001614ecf60239139906109d85760405162461bcd60e51b81526004016102c391906146f7565b50600092508681815181106109ef576109ef6147f8565b60200260200101516020015182610a06919061480e565b915080610a1281614821565b915050610800565b5060008060008060005b8a51811015610c535760005b8b8281518110610a4257610a426147f8565b602002602001015160200151811015610c405760008d81526011602052604090208b51610a8c908d9089908110610a7b57610a7b6147f8565b602002602001015160000151612b5d565b610ab28d8981518110610aa157610aa16147f8565b602002602001015160200151612b5d565b604051602001610ac392919061483a565b60408051601f1981840301815290829052610add91614794565b90815260408051918290036020908101832054838301909252601583527422bb32b73a1d10283630b1b29034b9903a30b5b2b760591b9083015260ff1615610b385760405162461bcd60e51b81526004016102c391906146f7565b5060006001600160a01b03168b8781518110610b5657610b566147f8565b6020026020010151604001516001600160a01b031614610b99578a8681518110610b8257610b826147f8565b602002602001015160400151935060019250610ba1565b309350600092505b610c218d8d8481518110610bb757610bb76147f8565b602002602001015160000151878e8a81518110610bd657610bd66147f8565b6020026020010151600001518f8b81518110610bf457610bf46147f8565b6020026020010151602001518f8c81518110610c1257610c126147f8565b6020026020010151898b612c65565b610c2c60018761480e565b955080610c3881614821565b915050610a30565b5080610c4b81614821565b915050610a24565b507f0bf6beb306958fd2b5107d64b133ea297e354c91e8508878a9a4abb9206d82288b8633604051610c87939291906147d9565b60405180910390a15050505050505050505050565b600083815260026020908152604091829020548251808401909352601b8352600080516020614ca3833981519152918301919091528491906001600160a01b0316610cfa5760405162461bcd60e51b81526004016102c391906146f7565b50610d07846000336128ab565b80610d265750610d2684600080516020614da0833981519152336128ab565b6040518060600160405280602a8152602001614b7f602a913990610d5d5760405162461bcd60e51b81526004016102c391906146f7565b50825115801590610d6e5750815115155b604051806060016040528060258152602001614e606025913990610da55760405162461bcd60e51b81526004016102c391906146f7565b5081518351146040518060400160405280601f8152602001600080516020614d4083398151915281525090610ded5760405162461bcd60e51b81526004016102c391906146f7565b50600080858152600e6020526040902060030154610100900460ff166002811115610e1a57610e1a61470a565b14604051806040016040528060158152602001600080516020614d6083398151915281525090610e5d5760405162461bcd60e51b81526004016102c391906146f7565b5060005b835181101561106f57610ea8848281518110610e7f57610e7f6147f8565b602090810291909101810151600088815260148352604080822030835290935291909120613004565b601a5483516001600160a01b03909116906323b872dd903090869085908110610ed357610ed36147f8565b6020026020010151878581518110610eed57610eed6147f8565b60209081029190910101516040516001600160e01b031960e086901b1681526001600160a01b0393841660048201529290911660248301526044820152606401600060405180830381600087803b158015610f4757600080fd5b505af1158015610f5b573d6000803e3d6000fd5b5050601a5486516001600160a01b03909116925063dd4670649150869084908110610f8857610f886147f8565b60200260200101516040518263ffffffff1660e01b8152600401610fae91815260200190565b600060405180830381600087803b158015610fc857600080fd5b505af1158015610fdc573d6000803e3d6000fd5b50505060008681526014602052604081208551909250859084908110611004576110046147f8565b60200260200101516001600160a01b03166001600160a01b0316815260200190815260200160002084828151811061103e5761103e6147f8565b602090810291909101810151825460018101845560009384529190922001558061106781614821565b915050610e61565b507fc47e064bd57c3620a43c1e4ac852f9185e9582f40bdd973a20f4c1bf520f38a58483336040516110a393929190614869565b60405180910390a150505050565b6110b961304f565b60098054600091829055906110cc6130c4565b6001600160a01b03168260405160006040518083038185875af1925050503d8060008114611116576040519150601f19603f3d011682016040523d82523d6000602084013e61111b565b606091505b50509050806040518060400160405280601a8152602001794576656e743a2043616e2774207769746864726177206665657360301b815250906111715760405162461bcd60e51b81526004016102c391906146f7565b505050565b825160001415604051806060016040528060258152602001614e6060259139906111b35760405162461bcd60e51b81526004016102c391906146f7565b5080518251146040518060400160405280601f8152602001600080516020614d40833981519152815250906111fb5760405162461bcd60e51b81526004016102c391906146f7565b50600080868152600e6020526040902060030154610100900460ff1660028111156112285761122861470a565b14604051806040016040528060158152602001600080516020614d608339815191528152509061126b5760405162461bcd60e51b81526004016102c391906146f7565b5061127685856130e0565b60008060005b855181101561131157600091506112ad8787838151811061129f5761129f6147f8565b602002602001015184613347565b8581815181106112bf576112bf6147f8565b6020026020010151600001518682815181106112dd576112dd6147f8565b6020026020010151602001516112f391906148d5565b6112fd908461480e565b92508061130981614821565b91505061127c565b50348214604051806060016040528060238152602001614b5c602391399061134c5760405162461bcd60e51b81526004016102c391906146f7565b506000805b86518110156114355760005b87828151811061136f5761136f6147f8565b602002602001015160000151811015611422576114038a8a8a8581518110611399576113996147f8565b6020026020010151602001518a87815181106113b7576113b76147f8565b6020026020010151600001518b88815181106113d5576113d56147f8565b6020026020010151602001518b89815181106113f3576113f36147f8565b6020026020010151600033612c65565b61140e60018461480e565b92508061141a81614821565b91505061135d565b508061142d81614821565b915050611351565b505050505050505050565b612710811115604051806040016040528060208152602001600080516020614d80833981519152815250906114885760405162461bcd60e51b81526004016102c391906146f7565b5061149161304f565b600755565b612710811115604051806040016040528060208152602001600080516020614d80833981519152815250906114de5760405162461bcd60e51b81526004016102c391906146f7565b506114e761304f565b600855565b600082815260026020908152604091829020548251808401909352601b8352600080516020614ca3833981519152918301919091528391906001600160a01b031661154a5760405162461bcd60e51b81526004016102c391906146f7565b50600080848152600e6020526040902060030154610100900460ff1660028111156115775761157761470a565b14604051806040016040528060158152602001600080516020614d60833981519152815250906115ba5760405162461bcd60e51b81526004016102c391906146f7565b506115c7836000336128ab565b806115e657506115e683600080516020614da0833981519152336128ab565b6040518060600160405280602a8152602001614b7f602a91399061161d5760405162461bcd60e51b81526004016102c391906146f7565b506000838152600e60209081526040808320600401805460018181018355918552938390208651600290950201848155928601519201805460ff841660ff19909116179055517f6acb6edf217693871c0a1b4dc7f139e64435ab88c84cdc94a85daf36cd06849c926116a292878352602083019190915260ff16604082015260600190565b60405180910390a1505050565b601a546001600160a01b031633146117155760405162461bcd60e51b8152602060048201526024808201527f4576656e743a20596f752063616e206e6f742075736520746869732066756e636044820152633a34b7b760e11b60648201526084016102c3565b60008481526014602090815260408083206001600160a01b03861684529091529020611742908490613004565b60008481526014602090815260408083206001600160a01b038086168552908352818420805460018181018355918652848620018890558885526013845282852091871685529252822080549192909161179d9084906148ec565b909155505060008481526013602090815260408083206001600160a01b038516845290915281208054600192906117d590849061480e565b909155505050505050565b8051600081815260026020908152604091829020548251808401909352601b8352600080516020614ca3833981519152918301919091526001600160a01b031661183d5760405162461bcd60e51b81526004016102c391906146f7565b506020808301516000818152600f8352604090819020548151808301909252601e8252600080516020614cef8339815191529382019390935290916118955760405162461bcd60e51b81526004016102c391906146f7565b5082600001518360200151816000600f0160008381526020019081526020016000206007015414604051806060016040528060298152602001614bcf60299139906118f35760405162461bcd60e51b81526004016102c391906146f7565b5084602001518560400151816000601201600083815260200190815260200160002054146040518060600160405280602c8152602001614cc3602c91399061194e5760405162461bcd60e51b81526004016102c391906146f7565b5086516000908152600e602052604090206004015415158061199c5750600187516000908152600e6020526040902060030154610100900460ff16600281111561199a5761199a61470a565b145b604051806060016040528060228152602001614e3e60229139906119d35760405162461bcd60e51b81526004016102c391906146f7565b506000806119e989600001518a6040015161356e565b91509150816040518060400160405280601a81526020017922bb32b73a1d102932b33ab732103230ba329034b99037bb32b960311b81525090611a3f5760405162461bcd60e51b81526004016102c391906146f7565b50601a5460408a8101519051602481019190915260009182916001600160a01b039091169060440160408051601f198184030181529181526020820180516001600160e01b03166331a9108f60e11b17905251611a9c9190614794565b6000604051808303816000865af19150503d8060008114611ad9576040519150601f19603f3d011682016040523d82523d6000602084013e611ade565b606091505b5091509150336001600160a01b031681806020019051810190611b0191906148ff565b6001600160a01b0316148015611b145750815b6040518060400160405280601d8152602001600080516020614e1e83398151915281525090611b565760405162461bcd60e51b81526004016102c391906146f7565b50508951600090815260116020526040808220601a54828e01519251633ee1bcfd60e11b8152600481019390935292935091611bef916001600160a01b0390911690637dc379fa90602401600060405180830381865afa158015611bbe573d6000803e3d6000fd5b505050506040513d6000823e601f3d908101601f19168201604052611be6919081019061497d565b60800151612b5d565b601a5460408d8101519051633ee1bcfd60e11b81526004810191909152611c71916001600160a01b031690637dc379fa90602401600060405180830381865afa158015611c40573d6000803e3d6000fd5b505050506040513d6000823e601f3d908101601f19168201604052611c68919081019061497d565b60a00151612b5d565b604051602001611c8292919061483a565b60408051601f1981840301815290829052611c9c91614794565b90815260408051918290036020018220805493151560ff1990941693909317909255601a54918b015160248201523360448201523060648201526000916001600160a01b03169060840160408051601f198184030181529181526020820180516001600160e01b031663025ba0e960e61b17905251611d1b9190614794565b6000604051808303816000865af19150503d8060008114611d58576040519150601f19603f3d011682016040523d82523d6000602084013e611d5d565b606091505b50509050806040518060400160405280601d8152602001600080516020614e1e83398151915281525090611da45760405162461bcd60e51b81526004016102c391906146f7565b50611dcf8a604001516000600f0160008d602001518152602001908152602001600020600201613004565b895160009081526013602090815260408083203384529091528120805460019290611dfb9084906148ec565b90915550506040808b01518b51600090815260146020908152838220338352905291909120611e2a9190613004565b89516000908152600e602052604081206002018054849290611e4d9084906148ec565b9091555050604051600090339084908381818185875af1925050503d8060008114611e94576040519150601f19603f3d011682016040523d82523d6000602084013e611e99565b606091505b5050905080604051806060016040528060238152602001614c806023913990611ed55760405162461bcd60e51b81526004016102c391906146f7565b508a516020808d01516040808f01518151948552928401919091528201523360608201527f87ff245f55dca5f20f12247f39f781d5710eda96984e49512daad7b675e4147990608001610c87565b600081815260026020908152604091829020548251808401909352601b8352600080516020614ca3833981519152918301919091528291906001600160a01b0316611f815760405162461bcd60e51b81526004016102c391906146f7565b50611fad827fff3317e1e0e8c784290b957ee9b65ea8fe96420c4819db463283b95ecbe4a3fe336128ab565b604051806060016040528060318152602001614c4f6031913990611fe45760405162461bcd60e51b81526004016102c391906146f7565b506000828152600e602052604090206003015442600160501b9091046001600160401b031610801561202657506000828152600e602052604090206002015415155b156120dd576000828152600e60205260408082206002015490513391908381818185875af1925050503d806000811461207b576040519150601f19603f3d011682016040523d82523d6000602084013e612080565b606091505b50509050806040518060400160405280601b81526020017a22bb32b73a1d102330b4b632b2103a379039b2b7321022ba3432b960291b815250906120d75760405162461bcd60e51b81526004016102c391906146f7565b50505050565b60026000838152600e6020526040902060030154610100900460ff16600281111561210a5761210a61470a565b1415604051806040016040528060158152602001600080516020614d608339815191528152509061214e5760405162461bcd60e51b81526004016102c391906146f7565b506000828152600e6020526040812060040154819081908103612184576000858152600e60205260409020600201549250612277565b60005b6000868152600e6020526040902060040154811015612275576000868152600e602052604090206004018054829081106121c3576121c36147f8565b9060005260206000209060020201600001544211612263576000868152600e602052604090206004018054829081106121fe576121fe6147f8565b6000918252602080832060029283020160010154898452600e9091526040909220015460ff909116935061223c906122378560646148d5565b613881565b6000878152600e602052604090206002015490925061225c9083906148ec565b9350612275565b8061226d81614821565b915050612187565b505b6000858152600e6020526040812060020180548592906122989084906148ec565b9091555050604051600090339085908381818185875af1925050503d80600081146122df576040519150601f19603f3d011682016040523d82523d6000602084013e6122e4565b606091505b5050905080604051806060016040528060268152602001614ba960269139906123205760405162461bcd60e51b81526004016102c391906146f7565b506040518681527feea9f2e0c73d19e23063194ae9ba8512a252b6c0bd44e31315f611c5efaa8f0b9060200160405180910390a1505050505050565b600081815260026020908152604091829020548251808401909352601b8352600080516020614ca38339815191529183019190915260609183916001600160a01b03166123bc5760405162461bcd60e51b81526004016102c391906146f7565b5060008381526014602090815260408083203384528252918290208054835181840281018401909452808452909183018282801561241957602002820191906000526020600020905b815481526020019060010190808311612405575b5050505050915050919050565b82518451146040518060400160405280601f8152602001600080516020614d408339815191528152509061246d5760405162461bcd60e51b81526004016102c391906146f7565b5080518251146040518060400160405280601f8152602001600080516020614d40833981519152815250906124b55760405162461bcd60e51b81526004016102c391906146f7565b5060008060005b85518110156125a4576125098782815181106124da576124da6147f8565b6020026020010151600001518883815181106124f8576124f86147f8565b6020026020010151602001516130e0565b60009150612540878281518110612522576125226147f8565b60200260200101516020015187838151811061129f5761129f6147f8565b858181518110612552576125526147f8565b602002602001015160000151868281518110612570576125706147f8565b60200260200101516020015161258691906148d5565b612590908461480e565b92508061259c81614821565b9150506124bc565b50348214604051806060016040528060238152602001614b5c60239139906125df5760405162461bcd60e51b81526004016102c391906146f7565b506000805b87518110156127325760005b878281518110612602576126026147f8565b60200260200101516000015181101561271f57600080600e0160008b858151811061262f5761262f6147f8565b602002602001015160000151815260200190815260200160002060030160019054906101000a900460ff16600281111561266b5761266b61470a565b14604051806040016040528060158152602001600080516020614d60833981519152815250906126ae5760405162461bcd60e51b81526004016102c391906146f7565b506127008983815181106126c4576126c46147f8565b6020026020010151600001518a84815181106126e2576126e26147f8565b6020026020010151602001518a8581518110611399576113996147f8565b61270b60018461480e565b92508061271781614821565b9150506125f0565b508061272a81614821565b9150506125e4565b5050505050505050565b600081815260026020908152604091829020548251808401909352601b8352600080516020614ca3833981519152918301919091528291906001600160a01b031661279a5760405162461bcd60e51b81526004016102c391906146f7565b506000828152600e60209081526040918290206005015482516060810190935260258084526001600160a01b0390911633149291614e8590830139906127f35760405162461bcd60e51b81526004016102c391906146f7565b50336000818152600a6020526040808220805490839055905190929083908381818185875af1925050503d8060008114612849576040519150601f19603f3d011682016040523d82523d6000602084013e61284e565b606091505b50509050806040518060400160405280601a8152602001794576656e743a2043616e2774207769746864726177206665657360301b815250906128a45760405162461bcd60e51b81526004016102c391906146f7565b5050505050565b6000928352601b602090815260408085209385529281528284206001600160a01b039290921684525290205460ff1690565b6000806128e9836138f8565b6129055760405162461bcd60e51b81526004016102c390614a2c565b6000928352600e016020525060409020600301546201000090046001600160401b031690565b600080612937836138f8565b6129535760405162461bcd60e51b81526004016102c390614a2c565b6000928352600e01602052506040902060030154600160501b90046001600160401b031690565b6000426129898461025861480e565b11604051806040016040528060148152602001734576656e743a204f6c64207369676e617475726560601b815250906129d55760405162461bcd60e51b81526004016102c391906146f7565b506040805160208082018790528183018690528251808303840181526060830184528051908201207b0ca2ba3432b932bab69029b4b3b732b21026b2b9b9b0b3b29d05199960211b6080840152609c8084018290528451808503909101815260bc84018552805190830120601a5460e08086018b905286518087039091018152610100909501865292840180516001600160e01b03166331a9108f60e11b179052935190939260009283926001600160a01b0390911691612a9591614794565b6000604051808303816000865af19150503d8060008114612ad2576040519150601f19603f3d011682016040523d82523d6000602084013e612ad7565b606091505b5091509150816040518060400160405280601d8152602001600080516020614e1e83398151915281525090612b1f5760405162461bcd60e51b81526004016102c391906146f7565b5080806020019051810190612b3491906148ff565b6001600160a01b0316612b478488613915565b6001600160a01b03161498975050505050505050565b606081600003612b845750506040805180820190915260018152600360fc1b602082015290565b8160005b8115612bae5780612b9881614821565b9150612ba79050600a83614a74565b9150612b88565b6000816001600160401b03811115612bc857612bc8613ebb565b6040519080825280601f01601f191660200182016040528015612bf2576020820181803683370190505b5090505b8415612c5d57612c076001836148ec565b9150612c14600a86614a88565b612c1f90603061480e565b60f81b818381518110612c3457612c346147f8565b60200101906001600160f81b031916908160001a905350612c56600a86614a74565b9450612bf6565b949350505050565b600754600090819015612d2157612c8188600060070154613881565b60008b8152600e60205260409020600501549092506001600160a01b031615801590612cbd575060008a8152600e602052604090206006015415155b15612d215760008a8152600e6020526040902060060154612cdf908390613881565b60008b8152600e60209081526040808320600501546001600160a01b03168352600a909152812080549293508392909190612d1b90849061480e565b90915550505b60008a8152600e602052604090206008015460ff1615612d7e57612d458a84613939565b604051806060016040528060278152602001614bf86027913990612d7c5760405162461bcd60e51b81526004016102c391906146f7565b505b612d8881836148ec565b60098054600090612d9a90849061480e565b90915550612daa905082896148ec565b60008b8152600e602052604081206002018054909190612dcb90849061480e565b90915550612ddb905082896148ec565b60008a8152600f602052604081206008018054909190612dfc90849061480e565b909155506000905080612e118c8c8b8b6139f5565b91509150600080600e0160008e815260200190815260200160002060030160029054906101000a90046001600160401b03169050600080601a0160009054906101000a90046001600160a01b03166001600160a01b031663290be4dd8f8f8f88888f8f8f8b6040518a63ffffffff1660e01b8152600401612e9a99989796959493929190614a9c565b6020604051808303816000875af1158015612eb9573d6000803e3d6000fd5b505050506040513d601f19601f82011682018060405250810190612edd9190614b03565b90506000600f0160008e81526020019081526020016000206002018190806001815401808255809150506001900390600052602060002001600090919091909150558c6000601201600083815260200190815260200160002081905550600060130160008f81526020019081526020016000206000886001600160a01b03166001600160a01b0316815260200190815260200160002060008154612f8090614821565b9091555060008e81526014602090815260408083206001600160a01b038b168085529083528184208054600181018255908552938390209093018490558051848152918201929092527f6606e4c8a88792ed4fd5159f9be235ca78e87fc1cbdc6158ea92d3ed3be9bf72910160405180910390a15050505050505050505050505050565b60005b81548110156111715782828281548110613023576130236147f8565b90600052602060002001540361303d5761303d8183613b4c565b8061304781614821565b915050613007565b613057613bc1565b600401546001600160a01b031633146130c25760405162461bcd60e51b815260206004820152602760248201527f4c69624576656e744469616d6f6e643a204d75737420626520636f6e747261636044820152663a1037bbb732b960c91b60648201526084016102c3565b565b60006130ce613bc1565b600401546001600160a01b0316919050565b6130e9826138f8565b6040518060400160405280601b8152602001600080516020614ca38339815191528152509061312b5760405162461bcd60e51b81526004016102c391906146f7565b506000818152600f6020908152604091829020548251808401909352601e8352600080516020614cef8339815191529183019190915261317e5760405162461bcd60e51b81526004016102c391906146f7565b50816000600f0160008381526020019081526020016000206007015414604051806060016040528060298152602001614bcf60299139906131d25760405162461bcd60e51b81526004016102c391906146f7565b506000828152600e602090815260409182902060030154825160608101909352603180845260ff90911615156001149291614d0f90830139906132285760405162461bcd60e51b81526004016102c391906146f7565b506000818152600f6020908152604091829020600e0154825160608101909352603080845260ff90911615156001149291614c1f908301399061327e5760405162461bcd60e51b81526004016102c391906146f7565b506000818152600f602052604090206005015442108015906132b157506000818152600f60205260409020600601544211155b604051806060016040528060298152602001614b3360299139906132e85760405162461bcd60e51b81526004016102c391906146f7565b506000828152600e6020908152604080832060010154601383528184203385528352928190205481516060810190925260268083529311929091614dc090830139906111715760405162461bcd60e51b81526004016102c391906146f7565b8151613353908261480e565b6000848152600f6020526040902060048101546002909101549192509061337b90839061480e565b1115604051806060016040528060238152602001614ecf60239139906133b45760405162461bcd60e51b81526004016102c391906146f7565b506000838152600f60205260409020600a0154156135065760005b6000848152600f60205260409020600a01548110156120d75782516000858152600f60205260409020600a0180548390811061340d5761340d6147f8565b9060005260206000200154036134f4576000848152600f60205260408120600b01805483908110613440576134406147f8565b9060005260206000200154606461345791906148d5565b6000868152600f6020526040812060030154919250906134779083613881565b6020808701516000898152600f9092526040909120600301549192509061349f9083906148ec565b14604051806040016040528060198152602001784576656e743a2057726f6e67207469636b657420707269636560381b815250906134f05760405162461bcd60e51b81526004016102c391906146f7565b5050505b806134fe81614821565b9150506133cf565b6020808301516000858152600f835260409081902060030154815180830190925260198252784576656e743a2057726f6e67207469636b657420707269636560381b9382019390935291146120d75760405162461bcd60e51b81526004016102c391906146f7565b601a54604051633ee1bcfd60e11b815260048101839052600091829182918291829182916001600160a01b0390911690637dc379fa90602401600060405180830381865afa1580156135c4573d6000803e3d6000fd5b505050506040513d6000823e601f3d908101601f191682016040526135ec919081019061497d565b6000898152600e602052604090206003015481519192506201000090046001600160401b0390811691161461362e576060015160019550935061387a92505050565b60005b6000898152600e6020526040902060040154811015613766576000898152600e6020526040902060040180548290811061366d5761366d6147f8565b9060005260206000209060020201600001544211613754578215156000036136d4576000898152600e60205260409020600401805460019450829081106136b6576136b66147f8565b600091825260209091206001600290920201015460ff169350613754565b6000898152600e602052604090206004018054859190839081106136fa576136fa6147f8565b600091825260209091206001600290920201015460ff161115613754576000898152600e6020526040902060040180548290811061373a5761373a6147f8565b600091825260209091206001600290920201015460ff1693505b8061375e81614821565b915050613631565b5081151560010361387257601a54604051602481018990526044810185905260009182916001600160a01b039091169060640160408051601f198184030181529181526020820180516001600160e01b03166375c8c9bd60e11b179052516137ce9190614794565b6000604051808303816000865af19150503d806000811461380b576040519150601f19603f3d011682016040523d82523d6000602084013e613810565b606091505b5091509150816040518060400160405280601d8152602001600080516020614e1e833981519152815250906138585760405162461bcd60e51b81526004016102c391906146f7565b508080602001905181019061386d9190614b03565b955050505b509350909150505b9250929050565b600061271061389083856148d5565b10156138d85760405162461bcd60e51b8152602060048201526017602482015276050657263656e746167653a20526f756e647320746f203604c1b60448201526064016102c3565b6127106138e583856148d5565b6138ef9190614a74565b90505b92915050565b6000908152600260205260409020546001600160a01b0316151590565b60008060006139248585613be5565b9150915061393181613c27565b509392505050565b6000306001600160a01b03831603613953575060016138f2565b60005b6000848152600e60205260409020600701548110156139eb576000848152600e602052604081206007018054601892919084908110613997576139976147f8565b6000918252602080832090910154835282810193909352604091820181206001600160a01b038716825290925290205460ff16156139d95760019150506138f2565b806139e381614821565b915050613956565b5060009392505050565b6000838152600f6020526040812060090154819060ff161515600103613b3c576000868152601160205260409020613a2c85612b5d565b613a3585612b5d565b604051602001613a4692919061483a565b60408051601f1981840301815290829052613a6091614794565b90815260408051918290036020908101832054838301909252601583527422bb32b73a1d10283630b1b29034b9903a30b5b2b760591b9083015260ff1615613abb5760405162461bcd60e51b81526004016102c391906146f7565b506000613ac785612b5d565b613ad085612b5d565b604051602001613ae192919061483a565b60408051601f1981840301815282825260008a8152601160205291909120909250600191613b10908490614794565b908152604051908190036020019020805491151560ff1990921691909117905550839150829050613b43565b5060009050805b94509492505050565b80548190613b5c906001906148ec565b81548110613b6c57613b6c6147f8565b9060005260206000200154818381548110613b8957613b896147f8565b906000526020600020018190555080805480613ba757613ba7614b1c565b600190038181906000526020600020016000905590555050565b7fc8fcad8db84d3cc18b4c41d551ea0ee66dd599cde068d998e57d5e09332c131c90565b6000808251604103613c1b5760208301516040840151606085015160001a613c0f87828585613ddb565b9450945050505061387a565b5060009050600261387a565b6000816004811115613c3b57613c3b61470a565b03613c435750565b6001816004811115613c5757613c5761470a565b03613c9f5760405162461bcd60e51b815260206004820152601860248201527745434453413a20696e76616c6964207369676e617475726560401b60448201526064016102c3565b6002816004811115613cb357613cb361470a565b03613d005760405162461bcd60e51b815260206004820152601f60248201527f45434453413a20696e76616c6964207369676e6174757265206c656e6774680060448201526064016102c3565b6003816004811115613d1457613d1461470a565b03613d6c5760405162461bcd60e51b815260206004820152602260248201527f45434453413a20696e76616c6964207369676e6174757265202773272076616c604482015261756560f01b60648201526084016102c3565b6004816004811115613d8057613d8061470a565b03613dd85760405162461bcd60e51b815260206004820152602260248201527f45434453413a20696e76616c6964207369676e6174757265202776272076616c604482015261756560f01b60648201526084016102c3565b50565b6000806fa2a8918ca85bafe22016d0b997e4df60600160ff1b03831115613e085750600090506003613b43565b8460ff16601b14158015613e2057508460ff16601c14155b15613e315750600090506004613b43565b6040805160008082526020820180845289905260ff881692820192909252606081018690526080810185905260019060a0016020604051602081039080840390855afa158015613e85573d6000803e3d6000fd5b5050604051601f1901519150506001600160a01b038116613eae57600060019250925050613b43565b9660009650945050505050565b634e487b7160e01b600052604160045260246000fd5b604080519081016001600160401b0381118282101715613ef357613ef3613ebb565b60405290565b604051606081016001600160401b0381118282101715613ef357613ef3613ebb565b60405160e081016001600160401b0381118282101715613ef357613ef3613ebb565b604051601f8201601f191681016001600160401b0381118282101715613f6557613f65613ebb565b604052919050565b60006001600160401b03821115613f8657613f86613ebb565b50601f01601f191660200190565b6000613fa7613fa284613f6d565b613f3d565b9050828152838383011115613fbb57600080fd5b828260208301376000602084830101529392505050565b60008060008060808587031215613fe857600080fd5b84359350602085013592506040850135915060608501356001600160401b0381111561401357600080fd5b8501601f8101871361402457600080fd5b61403387823560208401613f94565b91505092959194509250565b60006001600160401b0382111561405857614058613ebb565b5060051b60200190565b6000614070613fa28461403f565b8381529050602080820190600685901b84018681111561408f57600080fd5b845b818110156140cc57604081890312156140aa5760008081fd5b6140b2613ed1565b813581528382013584820152845292820192604001614091565b505050509392505050565b6001600160a01b0381168114613dd857600080fd5b600082601f8301126140fd57600080fd5b8135602061410d613fa28361403f565b82815260059290921b8401810191818101908684111561412c57600080fd5b8286015b848110156141805780356001600160401b0381111561414f5760008081fd5b8701603f810189136141615760008081fd5b614172898683013560408401613f94565b845250918301918301614130565b509695505050505050565b600080600080608085870312156141a157600080fd5b843593506020808601356001600160401b03808211156141c057600080fd5b818801915088601f8301126141d457600080fd5b6141e2898335858501614062565b95506040915081880135818111156141f957600080fd5b8801601f81018a1361420a57600080fd5b8035614218613fa28261403f565b8181526060918202830186019186820191908d84111561423757600080fd5b938701935b838510156142885780858f0312156142545760008081fd5b61425c613ef9565b85358152888601358982015287860135614275816140d7565b818901528352938401939187019161423c565b9098508b01359550505050808311156142a057600080fd5b5050614033878288016140ec565b600082601f8301126142bf57600080fd5b813560206142cf613fa28361403f565b82815260059290921b840181019181810190868411156142ee57600080fd5b8286015b84811015614180578035614305816140d7565b83529183019183016142f2565b60008060006060848603121561432757600080fd5b833592506020808501356001600160401b038082111561434657600080fd5b818701915087601f83011261435a57600080fd5b8135614368613fa28261403f565b81815260059190911b8301840190848101908a83111561438757600080fd5b938501935b828510156143a55784358252938501939085019061438c565b9650505060408701359250808311156143bd57600080fd5b50506143cb868287016142ae565b9150509250925092565b600082601f8301126143e657600080fd5b6138ef83833560208501614062565b600080600080600060a0868803121561440d57600080fd5b853594506020860135935060408601356001600160401b038082111561443257600080fd5b61443e89838a016143d5565b9450606088013591508082111561445457600080fd5b61446089838a016143d5565b9350608088013591508082111561447657600080fd5b50614483888289016140ec565b9150509295509295909350565b6000602082840312156144a257600080fd5b5035919050565b60008082840360608112156144bd57600080fd5b833592506040601f19820112156144d357600080fd5b506144dc613ed1565b60208401358152604084013560ff811681146144f757600080fd5b6020820152919491935090915050565b6000806000806080858703121561451d57600080fd5b84359350602085013592506040850135614536816140d7565b91506060850135614546816140d7565b939692955090935050565b60006060828403121561456357600080fd5b604051606081016001600160401b038111828210171561458557614585613ebb565b80604052508235815260208301356020820152604083013560408201528091505092915050565b6020808252825182820181905260009190848201906040850190845b818110156145e4578351835292840192918401916001016145c8565b50909695505050505050565b6000806000806080858703121561460657600080fd5b84356001600160401b038082111561461d57600080fd5b818701915087601f83011261463157600080fd5b61464088833560208501614062565b9550602087013591508082111561465657600080fd5b614662888389016143d5565b9450604087013591508082111561467857600080fd5b614684888389016143d5565b9350606087013591508082111561469a57600080fd5b50614033878288016140ec565b60005b838110156146c25781810151838201526020016146aa565b50506000910152565b600081518084526146e38160208601602086016146a7565b601f01601f19169290920160200192915050565b6020815260006138ef60208301846146cb565b634e487b7160e01b600052602160045260246000fd5b634e487b7160e01b600052601160045260246000fd5b6001600160401b0382811682821603908082111561475657614756614720565b5092915050565b60018060a01b038516815283602082015282604082015260806060820152600061478a60808301846146cb565b9695505050505050565b600082516147a68184602087016146a7565b9190910192915050565b6000602082840312156147c257600080fd5b815180151581146147d257600080fd5b9392505050565b92835260208301919091526001600160a01b0316604082015260600190565b634e487b7160e01b600052603260045260246000fd5b808201808211156138f2576138f2614720565b60006001820161483357614833614720565b5060010190565b6000835161484c8184602088016146a7565b8351908301906148608183602088016146a7565b01949350505050565b6000606082018583526020606081850152818651808452608086019150828801935060005b818110156148b35784516001600160a01b03168352938301939183019160010161488e565b50506001600160a01b0395909516604094909401939093525091949350505050565b80820281158282048414176138f2576138f2614720565b818103818111156138f2576138f2614720565b60006020828403121561491157600080fd5b81516147d2816140d7565b80516001600160401b038116811461493357600080fd5b919050565b600082601f83011261494957600080fd5b8151614957613fa282613f6d565b81815284602083860101111561496c57600080fd5b612c5d8260208301602087016146a7565b60006020828403121561498f57600080fd5b81516001600160401b03808211156149a657600080fd5b9083019060e082860312156149ba57600080fd5b6149c2613f1b565b6149cb8361491c565b81526020830151602082015260408301516040820152606083015160608201526080830151608082015260a083015160a082015260c083015182811115614a1157600080fd5b614a1d87828601614938565b60c08301525095945050505050565b602080825260189082015277115490cd4c0c0dce88125b9d985b1a59081d1bdad95b925960421b604082015260600190565b634e487b7160e01b600052601260045260246000fd5b600082614a8357614a83614a5e565b500490565b600082614a9757614a97614a5e565b500690565b60006101208b83528a60208401528960408401528860608401528760808401528060a0840152614ace818401886146cb565b95151560c084015250506001600160a01b039290921660e08301526001600160401b0316610100909101529695505050505050565b600060208284031215614b1557600080fd5b5051919050565b634e487b7160e01b600052603160045260246000fdfe4576656e743a2043616e277420627579207469636b65747320666f722063617465676f7279207965744576656e743a204d73672076616c7565206e6f7420657120746f74616c2070726963654576656e743a2043616c6c6572206973206e6f7420616e2061646d696e206f72206d6f64657261746f724576656e743a204576656e742062616c616e63652077697468647261772072657665727465644576656e743a20546869732063617465676f727920697320666f7220616e6f74686572206576656e7457686974656c6973743a2041646472657373206973206e6f7420696e207768697465206c6973744576656e743a205469636b65747320666f7220746869732063617465676f727920617265206e6f742062757961626c654576656e743a204f6e6c7920636173686965722063616e20776974686472617720636f6e74726163742062616c616e63654576656e743a2041636320726566756e642077697468647261772072657665727465644576656e743a204576656e7420646f6573206e6f7420657869737400000000004576656e743a205469636b657420646f65736e277420657869737420696e20746869732063617465676f72794576656e743a2043617465676f727920646f6573206e6f7420657869737400004576656e743a205469636b65747320666f7220616c6c2063617465676f7269657320617265206e6f742062757961626c654576656e743a20506172616d6574657273206c656e677468206e6f74206571004576656e743a204576656e742063616e63656c656400000000000000000000004576656e743a204665652070657263656e74616765206d61782031305f30303071f3d55856e4058ed06ee057d79ada615f65cdf5f9ee88181b914225088f834f4576656e743a204d6178207469636b65747320666f72206163636f756e7420726561636865644576656e743a2043616c6c6572206973206e6f7420616e2061646d696e2c206d6f64657261746f72206f7220726563657074696f6e6973744576656e743a20436f6e74726163742063616c6c2072657665727465640000004576656e743a2043616e277420726566756e6420666f722074686973206576656e744576656e743a20506172616d657465722061727261792063616e277420626520656d7074794576656e743a204d73672e73656e646572206973206e6f742074686520726566666572616c4576656e743a2057726f6e67206461746520666f72207469636b657420636c697070696e674576656e743a204d6178207469636b65747320636f756e742069732072656163686564a264697066735822122006f4ae8cbcb53d8ef76c4b36b452c09acf7ea2a3aeb60d2800920c6e886daf9b64736f6c63430008110033",
  "linkReferences": {},
  "deployedLinkReferences": {}
}