{
  "_format": "hh-sol-artifact-1",
  "contractName": "EventERC721",
  "sourceName": "contracts/EventDiamond/facets/EventERC721Facet.sol",
  "abi": [
    {
      "anonymous": false,
      "inputs": [
        {
          "indexed": true,
          "internalType": "address",
          "name": "owner",
          "type": "address"
        },
        {
          "indexed": true,
          "internalType": "address",
          "name": "approved",
          "type": "address"
        },
        {
          "indexed": true,
          "internalType": "uint256",
          "name": "tokenId",
          "type": "uint256"
        }
      ],
      "name": "Approval",
      "type": "event"
    },
    {
      "anonymous": false,
      "inputs": [
        {
          "indexed": true,
          "internalType": "address",
          "name": "owner",
          "type": "address"
        },
        {
          "indexed": true,
          "internalType": "address",
          "name": "operator",
          "type": "address"
        },
        {
          "indexed": false,
          "internalType": "bool",
          "name": "approved",
          "type": "bool"
        }
      ],
      "name": "ApprovalForAll",
      "type": "event"
    },
    {
      "anonymous": false,
      "inputs": [
        {
          "indexed": true,
          "internalType": "address",
          "name": "from",
          "type": "address"
        },
        {
          "indexed": true,
          "internalType": "address",
          "name": "to",
          "type": "address"
        },
        {
          "indexed": true,
          "internalType": "uint256",
          "name": "tokenId",
          "type": "uint256"
        }
      ],
      "name": "Transfer",
      "type": "event"
    },
    {
      "inputs": [
        {
          "internalType": "address",
          "name": "to",
          "type": "address"
        },
        {
          "internalType": "uint256",
          "name": "tokenId",
          "type": "uint256"
        }
      ],
      "name": "approve",
      "outputs": [],
      "stateMutability": "nonpayable",
      "type": "function"
    },
    {
      "inputs": [
        {
          "internalType": "address",
          "name": "owner",
          "type": "address"
        }
      ],
      "name": "balanceOf",
      "outputs": [
        {
          "internalType": "uint256",
          "name": "",
          "type": "uint256"
        }
      ],
      "stateMutability": "view",
      "type": "function"
    },
    {
      "inputs": [
        {
          "internalType": "uint256",
          "name": "tokenId",
          "type": "uint256"
        }
      ],
      "name": "endTime",
      "outputs": [
        {
          "internalType": "uint64",
          "name": "",
          "type": "uint64"
        }
      ],
      "stateMutability": "view",
      "type": "function"
    },
    {
      "inputs": [
        {
          "internalType": "uint256",
          "name": "tokenId",
          "type": "uint256"
        }
      ],
      "name": "getApproved",
      "outputs": [
        {
          "internalType": "address",
          "name": "",
          "type": "address"
        }
      ],
      "stateMutability": "view",
      "type": "function"
    },
    {
      "inputs": [
        {
          "internalType": "address",
          "name": "owner",
          "type": "address"
        },
        {
          "internalType": "address",
          "name": "operator",
          "type": "address"
        }
      ],
      "name": "isApprovedForAll",
      "outputs": [
        {
          "internalType": "bool",
          "name": "",
          "type": "bool"
        }
      ],
      "stateMutability": "view",
      "type": "function"
    },
    {
      "inputs": [],
      "name": "name",
      "outputs": [
        {
          "internalType": "string",
          "name": "",
          "type": "string"
        }
      ],
      "stateMutability": "view",
      "type": "function"
    },
    {
      "inputs": [
        {
          "internalType": "uint256",
          "name": "tokenId",
          "type": "uint256"
        }
      ],
      "name": "ownerOf",
      "outputs": [
        {
          "internalType": "address",
          "name": "",
          "type": "address"
        }
      ],
      "stateMutability": "view",
      "type": "function"
    },
    {
      "inputs": [
        {
          "internalType": "address",
          "name": "from",
          "type": "address"
        },
        {
          "internalType": "address",
          "name": "to",
          "type": "address"
        },
        {
          "internalType": "uint256",
          "name": "tokenId",
          "type": "uint256"
        }
      ],
      "name": "safeTransferFrom",
      "outputs": [],
      "stateMutability": "nonpayable",
      "type": "function"
    },
    {
      "inputs": [
        {
          "internalType": "address",
          "name": "from",
          "type": "address"
        },
        {
          "internalType": "address",
          "name": "to",
          "type": "address"
        },
        {
          "internalType": "uint256",
          "name": "tokenId",
          "type": "uint256"
        },
        {
          "internalType": "bytes",
          "name": "data",
          "type": "bytes"
        }
      ],
      "name": "safeTransferFrom",
      "outputs": [],
      "stateMutability": "nonpayable",
      "type": "function"
    },
    {
      "inputs": [
        {
          "internalType": "address",
          "name": "operator",
          "type": "address"
        },
        {
          "internalType": "bool",
          "name": "approved",
          "type": "bool"
        }
      ],
      "name": "setApprovalForAll",
      "outputs": [],
      "stateMutability": "nonpayable",
      "type": "function"
    },
    {
      "inputs": [
        {
          "internalType": "uint256",
          "name": "tokenId",
          "type": "uint256"
        }
      ],
      "name": "startTime",
      "outputs": [
        {
          "internalType": "uint64",
          "name": "",
          "type": "uint64"
        }
      ],
      "stateMutability": "view",
      "type": "function"
    },
    {
      "inputs": [
        {
          "internalType": "bytes4",
          "name": "interfaceId",
          "type": "bytes4"
        }
      ],
      "name": "supportsInterface",
      "outputs": [
        {
          "internalType": "bool",
          "name": "",
          "type": "bool"
        }
      ],
      "stateMutability": "view",
      "type": "function"
    },
    {
      "inputs": [],
      "name": "symbol",
      "outputs": [
        {
          "internalType": "string",
          "name": "",
          "type": "string"
        }
      ],
      "stateMutability": "view",
      "type": "function"
    },
    {
      "inputs": [
        {
          "internalType": "uint256",
          "name": "tokenId",
          "type": "uint256"
        }
      ],
      "name": "tokenURI",
      "outputs": [
        {
          "internalType": "string",
          "name": "",
          "type": "string"
        }
      ],
      "stateMutability": "view",
      "type": "function"
    },
    {
      "inputs": [
        {
          "internalType": "address",
          "name": "from",
          "type": "address"
        },
        {
          "internalType": "address",
          "name": "to",
          "type": "address"
        },
        {
          "internalType": "uint256",
          "name": "tokenId",
          "type": "uint256"
        }
      ],
      "name": "transferFrom",
      "outputs": [],
      "stateMutability": "nonpayable",
      "type": "function"
    }
  ],
  "bytecode": "0x608060405234801561001057600080fd5b50611347806100206000396000f3fe608060405234801561001057600080fd5b50600436106100f55760003560e01c806344c816fa11610097578063a22cb46511610066578063a22cb46514610219578063b88d4fde1461022c578063c87b56dd1461023f578063e985e9c51461025257600080fd5b806344c816fa146101ca5780636352211e146101dd57806370a08231146101f057806395d89b411461021157600080fd5b8063095ea7b3116100d3578063095ea7b31461016357806323b872dd146101785780633ec4c9681461018b57806342842e0e146101b757600080fd5b806301ffc9a7146100fa57806306fdde0314610123578063081812fc14610138575b600080fd5b61010e610108366004610e6e565b50600090565b60405190151581526020015b60405180910390f35b61012b610265565b60405161011a9190610edb565b61014b610146366004610eee565b6102fc565b6040516001600160a01b03909116815260200161011a565b610176610171366004610f23565b610325565b005b610176610186366004610f4d565b61043f565b61019e610199366004610eee565b610470565b60405167ffffffffffffffff909116815260200161011a565b6101766101c5366004610f4d565b610481565b61019e6101d8366004610eee565b61049c565b61014b6101eb366004610eee565b6104a7565b6102036101fe366004610f89565b610510565b60405190815260200161011a565b61012b61059c565b610176610227366004610fa4565b6105af565b61017661023a366004610ff6565b6105be565b61012b61024d366004610eee565b6105f6565b61010e6102603660046110d2565b61073d565b6060600080600001805461027890611105565b80601f01602080910402602001604051908101604052809291908181526020018280546102a490611105565b80156102f15780601f106102c6576101008083540402835291602001916102f1565b820191906000526020600020905b8154815290600101906020018083116102d457829003601f168201915b505050505091505090565b6000806103088361076b565b60009283526004016020525060409020546001600160a01b031690565b6000610330826104a7565b9050806001600160a01b0316836001600160a01b0316036103a25760405162461bcd60e51b815260206004820152602160248201527f4552433732313a20617070726f76616c20746f2063757272656e74206f776e656044820152603960f91b60648201526084015b60405180910390fd5b336001600160a01b03821614806103be57506103be813361073d565b6104305760405162461bcd60e51b815260206004820152603e60248201527f4552433732313a20617070726f76652063616c6c6572206973206e6f7420746f60448201527f6b656e206f776e6572206e6f7220617070726f76656420666f7220616c6c00006064820152608401610399565b61043a83836107cd565b505050565b610449338261083c565b6104655760405162461bcd60e51b81526004016103999061113f565b61043a83838361089b565b600061047b82610a3f565b92915050565b61043a838383604051806020016040528060008152506105be565b600061047b82610ac7565b60008181526002602052604081205481906001600160a01b0316806105095760405162461bcd60e51b8152602060048201526018602482015277115490cdcc8c4e881a5b9d985b1a59081d1bdad95b88125160421b6044820152606401610399565b9392505050565b6000806001600160a01b03831661057b5760405162461bcd60e51b815260206004820152602960248201527f4552433732313a2061646472657373207a65726f206973206e6f7420612076616044820152683634b21037bbb732b960b91b6064820152608401610399565b6001600160a01b039092166000908152600390920160205250604090205490565b6060600080600101805461027890611105565b6105ba338383610b50565b5050565b6105c8338361083c565b6105e45760405162461bcd60e51b81526004016103999061113f565b6105f084848484610c23565b50505050565b606060006106038361076b565b60008381526006820160205260408120805461061e90611105565b80601f016020809104026020016040519081016040528092919081815260200182805461064a90611105565b80156106975780601f1061066c57610100808354040283529160200191610697565b820191906000526020600020905b81548152906001019060200180831161067a57829003601f168201915b5050505050905060006106b560408051602081019091526000815290565b905080516000036106c857509392505050565b8151156106fb5780826040516020016106e292919061118d565b6040516020818303038152906040529350505050919050565b60008151116107195760405180602001604052806000815250610734565b8061072386610c56565b6040516020016106e292919061118d565b95945050505050565b6001600160a01b03918216600090815260056020908152604080832093909416825291909152205460ff1690565b6000818152600260205260409020546001600160a01b03166107ca5760405162461bcd60e51b8152602060048201526018602482015277115490cdcc8c4e881a5b9d985b1a59081d1bdad95b88125160421b6044820152606401610399565b50565b600081815260046020526040812080546001600160a01b0319166001600160a01b0385169081179091558290610802826104a7565b6001600160a01b03167f8c5be1e5ebec7d5bd14f71427d1e84f3dd0314c0f7b2291e5b200ac8c7c3b92560405160405180910390a4505050565b600080610848836104a7565b9050806001600160a01b0316846001600160a01b0316148061086f575061086f818561073d565b806108935750836001600160a01b0316610888846102fc565b6001600160a01b0316145b949350505050565b6000836001600160a01b03166108b0836104a7565b6001600160a01b0316146109145760405162461bcd60e51b815260206004820152602560248201527f4552433732313a207472616e736665722066726f6d20696e636f72726563742060448201526437bbb732b960d91b6064820152608401610399565b6001600160a01b0383166109765760405162461bcd60e51b8152602060048201526024808201527f4552433732313a207472616e7366657220746f20746865207a65726f206164646044820152637265737360e01b6064820152608401610399565b6109816000836107cd565b6001600160a01b038416600090815260038201602052604081208054600192906109ac9084906111d2565b90915550506001600160a01b038316600090815260038201602052604081208054600192906109dc9084906111e5565b9091555050600082815260028201602052604080822080546001600160a01b0319166001600160a01b0387811691821790925591518593918816917fddf252ad1be2c89b69c2b068fc378daa952ba7f163c4a11628f55a4df523b3ef91a46105f0565b60008181526002602052604081205481906001600160a01b0316610aa05760405162461bcd60e51b8152602060048201526018602482015277115490cd4c0c0dce88125b9d985b1a59081d1bdad95b925960421b6044820152606401610399565b600092835260090160205250604090206003015462010000900467ffffffffffffffff1690565b60008181526002602052604081205481906001600160a01b0316610b285760405162461bcd60e51b8152602060048201526018602482015277115490cd4c0c0dce88125b9d985b1a59081d1bdad95b925960421b6044820152606401610399565b6000928352600901602052506040902060030154600160501b900467ffffffffffffffff1690565b6000826001600160a01b0316846001600160a01b031603610bb35760405162461bcd60e51b815260206004820152601960248201527f4552433732313a20617070726f766520746f2063616c6c6572000000000000006044820152606401610399565b6001600160a01b038481166000818152600584016020908152604080832094881680845294825291829020805460ff191687151590811790915591519182527f17307eab39ab6107e8899845ad3d59bd9653f200f220920489ca2b5937696c31910160405180910390a350505050565b610c2e84848461089b565b610c3a84848484610d57565b6105f05760405162461bcd60e51b8152600401610399906111f8565b606081600003610c7d5750506040805180820190915260018152600360fc1b602082015290565b8160005b8115610ca75780610c918161124a565b9150610ca09050600a83611279565b9150610c81565b60008167ffffffffffffffff811115610cc257610cc2610fe0565b6040519080825280601f01601f191660200182016040528015610cec576020820181803683370190505b5090505b841561089357610d016001836111d2565b9150610d0e600a8661128d565b610d199060306111e5565b60f81b818381518110610d2e57610d2e6112a1565b60200101906001600160f81b031916908160001a905350610d50600a86611279565b9450610cf0565b60006001600160a01b0384163b15610e4d57604051630a85bd0160e11b81526001600160a01b0385169063150b7a0290610d9b9033908990889088906004016112b7565b6020604051808303816000875af1925050508015610dd6575060408051601f3d908101601f19168201909252610dd3918101906112f4565b60015b610e33573d808015610e04576040519150601f19603f3d011682016040523d82523d6000602084013e610e09565b606091505b508051600003610e2b5760405162461bcd60e51b8152600401610399906111f8565b805181602001fd5b6001600160e01b031916630a85bd0160e11b149050610893565b506001949350505050565b6001600160e01b0319811681146107ca57600080fd5b600060208284031215610e8057600080fd5b813561050981610e58565b60005b83811015610ea6578181015183820152602001610e8e565b50506000910152565b60008151808452610ec7816020860160208601610e8b565b601f01601f19169290920160200192915050565b6020815260006105096020830184610eaf565b600060208284031215610f0057600080fd5b5035919050565b80356001600160a01b0381168114610f1e57600080fd5b919050565b60008060408385031215610f3657600080fd5b610f3f83610f07565b946020939093013593505050565b600080600060608486031215610f6257600080fd5b610f6b84610f07565b9250610f7960208501610f07565b9150604084013590509250925092565b600060208284031215610f9b57600080fd5b61050982610f07565b60008060408385031215610fb757600080fd5b610fc083610f07565b915060208301358015158114610fd557600080fd5b809150509250929050565b634e487b7160e01b600052604160045260246000fd5b6000806000806080858703121561100c57600080fd5b61101585610f07565b935061102360208601610f07565b925060408501359150606085013567ffffffffffffffff8082111561104757600080fd5b818701915087601f83011261105b57600080fd5b81358181111561106d5761106d610fe0565b604051601f8201601f19908116603f0116810190838211818310171561109557611095610fe0565b816040528281528a60208487010111156110ae57600080fd5b82602086016020830137600060208483010152809550505050505092959194509250565b600080604083850312156110e557600080fd5b6110ee83610f07565b91506110fc60208401610f07565b90509250929050565b600181811c9082168061111957607f821691505b60208210810361113957634e487b7160e01b600052602260045260246000fd5b50919050565b6020808252602e908201527f4552433732313a2063616c6c6572206973206e6f7420746f6b656e206f776e6560408201526d1c881b9bdc88185c1c1c9bdd995960921b606082015260800190565b6000835161119f818460208801610e8b565b8351908301906111b3818360208801610e8b565b01949350505050565b634e487b7160e01b600052601160045260246000fd5b8181038181111561047b5761047b6111bc565b8082018082111561047b5761047b6111bc565b60208082526032908201527f4552433732313a207472616e7366657220746f206e6f6e20455243373231526560408201527131b2b4bb32b91034b6b83632b6b2b73a32b960711b606082015260800190565b60006001820161125c5761125c6111bc565b5060010190565b634e487b7160e01b600052601260045260246000fd5b60008261128857611288611263565b500490565b60008261129c5761129c611263565b500690565b634e487b7160e01b600052603260045260246000fd5b6001600160a01b03858116825284166020820152604081018390526080606082018190526000906112ea90830184610eaf565b9695505050505050565b60006020828403121561130657600080fd5b815161050981610e5856fea2646970667358221220a291d736557c458d1ab273d874136480bace13823401fe43932985cbc724a64264736f6c63430008110033",
  "linkReferences": {},
  "deployedLinkReferences": {}
}