{
  "_format": "hh-sol-artifact-1",
  "contractName": "EventFacet",
  "sourceName": "contracts/EventDiamond/facets/EventFacet.sol",
  "abi": [
    {
      "anonymous": false,
      "inputs": [
        {
          "indexed": true,
          "internalType": "address",
          "name": "owner",
          "type": "address"
        },
        {
          "indexed": true,
          "internalType": "address",
          "name": "approved",
          "type": "address"
        },
        {
          "indexed": true,
          "internalType": "uint256",
          "name": "tokenId",
          "type": "uint256"
        }
      ],
      "name": "Approval",
      "type": "event"
    },
    {
      "anonymous": false,
      "inputs": [
        {
          "indexed": true,
          "internalType": "address",
          "name": "owner",
          "type": "address"
        },
        {
          "indexed": true,
          "internalType": "address",
          "name": "operator",
          "type": "address"
        },
        {
          "indexed": false,
          "internalType": "bool",
          "name": "approved",
          "type": "bool"
        }
      ],
      "name": "ApprovalForAll",
      "type": "event"
    },
    {
      "anonymous": false,
      "inputs": [
        {
          "indexed": false,
          "internalType": "uint256",
          "name": "_fromTokenId",
          "type": "uint256"
        },
        {
          "indexed": false,
          "internalType": "uint256",
          "name": "_toTokenId",
          "type": "uint256"
        }
      ],
      "name": "BatchMetadataUpdate",
      "type": "event"
    },
    {
      "anonymous": false,
      "inputs": [
        {
          "indexed": false,
          "internalType": "uint256",
          "name": "eventId",
          "type": "uint256"
        }
      ],
      "name": "EventCanceled",
      "type": "event"
    },
    {
      "anonymous": false,
      "inputs": [
        {
          "indexed": false,
          "internalType": "uint256",
          "name": "eventId",
          "type": "uint256"
        },
        {
          "indexed": false,
          "internalType": "address",
          "name": "account",
          "type": "address"
        },
        {
          "indexed": false,
          "internalType": "address",
          "name": "setter",
          "type": "address"
        }
      ],
      "name": "EventCashierSet",
      "type": "event"
    },
    {
      "anonymous": false,
      "inputs": [
        {
          "indexed": false,
          "internalType": "uint256",
          "name": "eventId",
          "type": "uint256"
        },
        {
          "indexed": false,
          "internalType": "string",
          "name": "metadataUri",
          "type": "string"
        }
      ],
      "name": "EventCreated",
      "type": "event"
    },
    {
      "anonymous": false,
      "inputs": [
        {
          "indexed": false,
          "internalType": "uint256",
          "name": "eventId",
          "type": "uint256"
        },
        {
          "indexed": false,
          "internalType": "uint256",
          "name": "time",
          "type": "uint256"
        }
      ],
      "name": "EventPostponed",
      "type": "event"
    },
    {
      "anonymous": false,
      "inputs": [
        {
          "indexed": false,
          "internalType": "uint256",
          "name": "_tokenId",
          "type": "uint256"
        }
      ],
      "name": "MetadataUpdate",
      "type": "event"
    },
    {
      "anonymous": false,
      "inputs": [
        {
          "indexed": false,
          "internalType": "uint256",
          "name": "eventId",
          "type": "uint256"
        },
        {
          "indexed": true,
          "internalType": "bytes32",
          "name": "role",
          "type": "bytes32"
        },
        {
          "indexed": true,
          "internalType": "bytes32",
          "name": "previousAdminRole",
          "type": "bytes32"
        },
        {
          "indexed": true,
          "internalType": "bytes32",
          "name": "newAdminRole",
          "type": "bytes32"
        }
      ],
      "name": "RoleAdminChanged",
      "type": "event"
    },
    {
      "anonymous": false,
      "inputs": [
        {
          "indexed": false,
          "internalType": "uint256",
          "name": "eventId",
          "type": "uint256"
        },
        {
          "indexed": true,
          "internalType": "bytes32",
          "name": "role",
          "type": "bytes32"
        },
        {
          "indexed": true,
          "internalType": "address",
          "name": "account",
          "type": "address"
        },
        {
          "indexed": true,
          "internalType": "address",
          "name": "sender",
          "type": "address"
        }
      ],
      "name": "RoleGranted",
      "type": "event"
    },
    {
      "anonymous": false,
      "inputs": [
        {
          "indexed": false,
          "internalType": "uint256",
          "name": "eventId",
          "type": "uint256"
        },
        {
          "indexed": true,
          "internalType": "bytes32",
          "name": "role",
          "type": "bytes32"
        },
        {
          "indexed": true,
          "internalType": "address",
          "name": "account",
          "type": "address"
        },
        {
          "indexed": true,
          "internalType": "address",
          "name": "sender",
          "type": "address"
        }
      ],
      "name": "RoleRevoked",
      "type": "event"
    },
    {
      "anonymous": false,
      "inputs": [
        {
          "indexed": true,
          "internalType": "address",
          "name": "from",
          "type": "address"
        },
        {
          "indexed": true,
          "internalType": "address",
          "name": "to",
          "type": "address"
        },
        {
          "indexed": true,
          "internalType": "uint256",
          "name": "tokenId",
          "type": "uint256"
        }
      ],
      "name": "Transfer",
      "type": "event"
    },
    {
      "inputs": [
        {
          "internalType": "uint256",
          "name": "_eventId",
          "type": "uint256"
        },
        {
          "internalType": "bytes32",
          "name": "_role",
          "type": "bytes32"
        },
        {
          "internalType": "address",
          "name": "_account",
          "type": "address"
        }
      ],
      "name": "addTeamMember",
      "outputs": [],
      "stateMutability": "nonpayable",
      "type": "function"
    },
    {
      "inputs": [
        {
          "internalType": "address",
          "name": "to",
          "type": "address"
        },
        {
          "internalType": "uint256",
          "name": "tokenId",
          "type": "uint256"
        }
      ],
      "name": "approve",
      "outputs": [],
      "stateMutability": "nonpayable",
      "type": "function"
    },
    {
      "inputs": [
        {
          "internalType": "address",
          "name": "owner",
          "type": "address"
        }
      ],
      "name": "balanceOf",
      "outputs": [
        {
          "internalType": "uint256",
          "name": "",
          "type": "uint256"
        }
      ],
      "stateMutability": "view",
      "type": "function"
    },
    {
      "inputs": [
        {
          "internalType": "uint256",
          "name": "_eventId",
          "type": "uint256"
        }
      ],
      "name": "cancelEvent",
      "outputs": [],
      "stateMutability": "nonpayable",
      "type": "function"
    },
    {
      "inputs": [
        {
          "internalType": "uint256",
          "name": "_maxTicketsPerClient",
          "type": "uint256"
        },
        {
          "internalType": "uint64",
          "name": "_startDate",
          "type": "uint64"
        },
        {
          "internalType": "uint64",
          "name": "_endDate",
          "type": "uint64"
        },
        {
          "internalType": "string",
          "name": "_metadataURI",
          "type": "string"
        },
        {
          "internalType": "address",
          "name": "_referralAddress",
          "type": "address"
        },
        {
          "internalType": "uint256",
          "name": "_referralCommissionInBps",
          "type": "uint256"
        },
        {
          "internalType": "bool",
          "name": "_onlyWhiteListedUsers",
          "type": "bool"
        }
      ],
      "name": "createEvent",
      "outputs": [],
      "stateMutability": "nonpayable",
      "type": "function"
    },
    {
      "inputs": [
        {
          "internalType": "uint256",
          "name": "tokenId",
          "type": "uint256"
        }
      ],
      "name": "endTime",
      "outputs": [
        {
          "internalType": "uint64",
          "name": "",
          "type": "uint64"
        }
      ],
      "stateMutability": "view",
      "type": "function"
    },
    {
      "inputs": [],
      "name": "fetchAllEventIds",
      "outputs": [
        {
          "internalType": "uint256[]",
          "name": "",
          "type": "uint256[]"
        }
      ],
      "stateMutability": "view",
      "type": "function"
    },
    {
      "inputs": [],
      "name": "fetchAllEvents",
      "outputs": [
        {
          "components": [
            {
              "internalType": "address",
              "name": "organizer",
              "type": "address"
            },
            {
              "internalType": "uint256",
              "name": "maxTicketsPerClient",
              "type": "uint256"
            },
            {
              "internalType": "uint256",
              "name": "balance",
              "type": "uint256"
            },
            {
              "internalType": "bool",
              "name": "areAllCategoryTicketsBuyable",
              "type": "bool"
            },
            {
              "internalType": "enum EventStatus",
              "name": "status",
              "type": "uint8"
            },
            {
              "internalType": "uint64",
              "name": "startTime",
              "type": "uint64"
            },
            {
              "internalType": "uint64",
              "name": "endTime",
              "type": "uint64"
            },
            {
              "components": [
                {
                  "internalType": "uint256",
                  "name": "date",
                  "type": "uint256"
                },
                {
                  "internalType": "uint8",
                  "name": "percentage",
                  "type": "uint8"
                }
              ],
              "internalType": "struct RefundData[]",
              "name": "refundData",
              "type": "tuple[]"
            },
            {
              "internalType": "address",
              "name": "referralAddress",
              "type": "address"
            },
            {
              "internalType": "uint256",
              "name": "referralCommissionInBps",
              "type": "uint256"
            },
            {
              "internalType": "uint256[]",
              "name": "whiteLists",
              "type": "uint256[]"
            },
            {
              "internalType": "bool",
              "name": "onlyWhiteListedUsers",
              "type": "bool"
            }
          ],
          "internalType": "struct Event[]",
          "name": "",
          "type": "tuple[]"
        }
      ],
      "stateMutability": "view",
      "type": "function"
    },
    {
      "inputs": [
        {
          "internalType": "uint256",
          "name": "_eventId",
          "type": "uint256"
        }
      ],
      "name": "fetchEventById",
      "outputs": [
        {
          "components": [
            {
              "internalType": "address",
              "name": "organizer",
              "type": "address"
            },
            {
              "internalType": "uint256",
              "name": "maxTicketsPerClient",
              "type": "uint256"
            },
            {
              "internalType": "uint256",
              "name": "balance",
              "type": "uint256"
            },
            {
              "internalType": "bool",
              "name": "areAllCategoryTicketsBuyable",
              "type": "bool"
            },
            {
              "internalType": "enum EventStatus",
              "name": "status",
              "type": "uint8"
            },
            {
              "internalType": "uint64",
              "name": "startTime",
              "type": "uint64"
            },
            {
              "internalType": "uint64",
              "name": "endTime",
              "type": "uint64"
            },
            {
              "components": [
                {
                  "internalType": "uint256",
                  "name": "date",
                  "type": "uint256"
                },
                {
                  "internalType": "uint8",
                  "name": "percentage",
                  "type": "uint8"
                }
              ],
              "internalType": "struct RefundData[]",
              "name": "refundData",
              "type": "tuple[]"
            },
            {
              "internalType": "address",
              "name": "referralAddress",
              "type": "address"
            },
            {
              "internalType": "uint256",
              "name": "referralCommissionInBps",
              "type": "uint256"
            },
            {
              "internalType": "uint256[]",
              "name": "whiteLists",
              "type": "uint256[]"
            },
            {
              "internalType": "bool",
              "name": "onlyWhiteListedUsers",
              "type": "bool"
            }
          ],
          "internalType": "struct Event",
          "name": "eventObj",
          "type": "tuple"
        }
      ],
      "stateMutability": "view",
      "type": "function"
    },
    {
      "inputs": [],
      "name": "fetchOwnedEvents",
      "outputs": [
        {
          "internalType": "uint256[]",
          "name": "",
          "type": "uint256[]"
        }
      ],
      "stateMutability": "view",
      "type": "function"
    },
    {
      "inputs": [
        {
          "internalType": "uint256",
          "name": "tokenId",
          "type": "uint256"
        }
      ],
      "name": "getApproved",
      "outputs": [
        {
          "internalType": "address",
          "name": "",
          "type": "address"
        }
      ],
      "stateMutability": "view",
      "type": "function"
    },
    {
      "inputs": [
        {
          "internalType": "uint256",
          "name": "eventId",
          "type": "uint256"
        }
      ],
      "name": "getEventMembers",
      "outputs": [
        {
          "components": [
            {
              "internalType": "address",
              "name": "account",
              "type": "address"
            },
            {
              "internalType": "bytes32",
              "name": "role",
              "type": "bytes32"
            }
          ],
          "internalType": "struct MemberData[]",
          "name": "",
          "type": "tuple[]"
        }
      ],
      "stateMutability": "view",
      "type": "function"
    },
    {
      "inputs": [],
      "name": "getRefferalEventIds",
      "outputs": [
        {
          "internalType": "uint256[]",
          "name": "",
          "type": "uint256[]"
        }
      ],
      "stateMutability": "view",
      "type": "function"
    },
    {
      "inputs": [
        {
          "internalType": "uint256",
          "name": "eventId",
          "type": "uint256"
        },
        {
          "internalType": "bytes32",
          "name": "role",
          "type": "bytes32"
        }
      ],
      "name": "getRoleAdmin",
      "outputs": [
        {
          "internalType": "bytes32",
          "name": "",
          "type": "bytes32"
        }
      ],
      "stateMutability": "view",
      "type": "function"
    },
    {
      "inputs": [
        {
          "internalType": "uint256",
          "name": "eventId",
          "type": "uint256"
        },
        {
          "internalType": "bytes32",
          "name": "role",
          "type": "bytes32"
        },
        {
          "internalType": "address",
          "name": "account",
          "type": "address"
        }
      ],
      "name": "grantRole",
      "outputs": [],
      "stateMutability": "nonpayable",
      "type": "function"
    },
    {
      "inputs": [
        {
          "internalType": "uint256",
          "name": "eventId",
          "type": "uint256"
        },
        {
          "internalType": "bytes32",
          "name": "role",
          "type": "bytes32"
        },
        {
          "internalType": "address",
          "name": "account",
          "type": "address"
        }
      ],
      "name": "hasRole",
      "outputs": [
        {
          "internalType": "bool",
          "name": "",
          "type": "bool"
        }
      ],
      "stateMutability": "view",
      "type": "function"
    },
    {
      "inputs": [
        {
          "internalType": "address",
          "name": "owner",
          "type": "address"
        },
        {
          "internalType": "address",
          "name": "operator",
          "type": "address"
        }
      ],
      "name": "isApprovedForAll",
      "outputs": [
        {
          "internalType": "bool",
          "name": "",
          "type": "bool"
        }
      ],
      "stateMutability": "view",
      "type": "function"
    },
    {
      "inputs": [],
      "name": "name",
      "outputs": [
        {
          "internalType": "string",
          "name": "",
          "type": "string"
        }
      ],
      "stateMutability": "view",
      "type": "function"
    },
    {
      "inputs": [
        {
          "internalType": "uint256",
          "name": "tokenId",
          "type": "uint256"
        }
      ],
      "name": "ownerOf",
      "outputs": [
        {
          "internalType": "address",
          "name": "",
          "type": "address"
        }
      ],
      "stateMutability": "view",
      "type": "function"
    },
    {
      "inputs": [
        {
          "internalType": "uint256",
          "name": "_eventId",
          "type": "uint256"
        },
        {
          "internalType": "uint64",
          "name": "_time",
          "type": "uint64"
        }
      ],
      "name": "postponeEvent",
      "outputs": [],
      "stateMutability": "nonpayable",
      "type": "function"
    },
    {
      "inputs": [
        {
          "internalType": "uint256",
          "name": "_eventId",
          "type": "uint256"
        }
      ],
      "name": "removeEvent",
      "outputs": [],
      "stateMutability": "nonpayable",
      "type": "function"
    },
    {
      "inputs": [
        {
          "internalType": "uint256",
          "name": "_eventId",
          "type": "uint256"
        },
        {
          "internalType": "bytes32",
          "name": "_role",
          "type": "bytes32"
        },
        {
          "internalType": "address",
          "name": "_account",
          "type": "address"
        }
      ],
      "name": "removeTeamMember",
      "outputs": [],
      "stateMutability": "nonpayable",
      "type": "function"
    },
    {
      "inputs": [
        {
          "internalType": "uint256",
          "name": "eventId",
          "type": "uint256"
        },
        {
          "internalType": "bytes32",
          "name": "role",
          "type": "bytes32"
        },
        {
          "internalType": "address",
          "name": "account",
          "type": "address"
        }
      ],
      "name": "renounceRole",
      "outputs": [],
      "stateMutability": "nonpayable",
      "type": "function"
    },
    {
      "inputs": [
        {
          "internalType": "uint256",
          "name": "eventId",
          "type": "uint256"
        },
        {
          "internalType": "bytes32",
          "name": "role",
          "type": "bytes32"
        },
        {
          "internalType": "address",
          "name": "account",
          "type": "address"
        }
      ],
      "name": "revokeRole",
      "outputs": [],
      "stateMutability": "nonpayable",
      "type": "function"
    },
    {
      "inputs": [
        {
          "internalType": "address",
          "name": "from",
          "type": "address"
        },
        {
          "internalType": "address",
          "name": "to",
          "type": "address"
        },
        {
          "internalType": "uint256",
          "name": "tokenId",
          "type": "uint256"
        }
      ],
      "name": "safeTransferFrom",
      "outputs": [],
      "stateMutability": "nonpayable",
      "type": "function"
    },
    {
      "inputs": [
        {
          "internalType": "address",
          "name": "from",
          "type": "address"
        },
        {
          "internalType": "address",
          "name": "to",
          "type": "address"
        },
        {
          "internalType": "uint256",
          "name": "tokenId",
          "type": "uint256"
        },
        {
          "internalType": "bytes",
          "name": "data",
          "type": "bytes"
        }
      ],
      "name": "safeTransferFrom",
      "outputs": [],
      "stateMutability": "nonpayable",
      "type": "function"
    },
    {
      "inputs": [
        {
          "internalType": "address",
          "name": "operator",
          "type": "address"
        },
        {
          "internalType": "bool",
          "name": "approved",
          "type": "bool"
        }
      ],
      "name": "setApprovalForAll",
      "outputs": [],
      "stateMutability": "nonpayable",
      "type": "function"
    },
    {
      "inputs": [
        {
          "internalType": "uint256",
          "name": "_eventId",
          "type": "uint256"
        },
        {
          "internalType": "address",
          "name": "_oldCashier",
          "type": "address"
        },
        {
          "internalType": "address",
          "name": "_newCashier",
          "type": "address"
        }
      ],
      "name": "setEventCashier",
      "outputs": [],
      "stateMutability": "nonpayable",
      "type": "function"
    },
    {
      "inputs": [
        {
          "internalType": "uint256",
          "name": "tokenId",
          "type": "uint256"
        }
      ],
      "name": "startTime",
      "outputs": [
        {
          "internalType": "uint64",
          "name": "",
          "type": "uint64"
        }
      ],
      "stateMutability": "view",
      "type": "function"
    },
    {
      "inputs": [
        {
          "internalType": "bytes4",
          "name": "interfaceId",
          "type": "bytes4"
        }
      ],
      "name": "supportsInterface",
      "outputs": [
        {
          "internalType": "bool",
          "name": "",
          "type": "bool"
        }
      ],
      "stateMutability": "view",
      "type": "function"
    },
    {
      "inputs": [],
      "name": "symbol",
      "outputs": [
        {
          "internalType": "string",
          "name": "",
          "type": "string"
        }
      ],
      "stateMutability": "view",
      "type": "function"
    },
    {
      "inputs": [
        {
          "internalType": "uint256",
          "name": "tokenId",
          "type": "uint256"
        }
      ],
      "name": "tokenURI",
      "outputs": [
        {
          "internalType": "string",
          "name": "",
          "type": "string"
        }
      ],
      "stateMutability": "view",
      "type": "function"
    },
    {
      "inputs": [
        {
          "internalType": "address",
          "name": "from",
          "type": "address"
        },
        {
          "internalType": "address",
          "name": "to",
          "type": "address"
        },
        {
          "internalType": "uint256",
          "name": "tokenId",
          "type": "uint256"
        }
      ],
      "name": "transferFrom",
      "outputs": [],
      "stateMutability": "nonpayable",
      "type": "function"
    },
    {
      "inputs": [
        {
          "internalType": "uint256",
          "name": "_eventId",
          "type": "uint256"
        },
        {
          "internalType": "string",
          "name": "_newMetadataURI",
          "type": "string"
        }
      ],
      "name": "updateEventTokenUri",
      "outputs": [],
      "stateMutability": "nonpayable",
      "type": "function"
    },
    {
      "inputs": [
        {
          "internalType": "uint256",
          "name": "_eventId",
          "type": "uint256"
        }
      ],
      "name": "withdrawFromCanceledEvent",
      "outputs": [],
      "stateMutability": "nonpayable",
      "type": "function"
    }
  ],
  "bytecode": "0x608060405234801561001057600080fd5b50614389806100206000396000f3fe608060405234801561001057600080fd5b50600436106101a15760003560e01c806301ffc9a7146101a657806306fdde03146101cf578063081812fc146101e4578063095ea7b31461020f5780630d517286146102245780630e1b943d14610244578063119345aa146102645780632053d82c1461027757806323b872dd1461028a5780633660ff831461029d578063397d4dbc146102b25780633ec4c968146102d35780633f69babd146102fe57806342842e0e1461031157806344c816fa146103245780634a120dd71461033757806356164e1e1461034a578063598be85c1461035d5780636352211e146103705780636a4bc7de1461038357806370a0823114610396578063724bdedf146103a957806376b4fcd5146103bc5780637986b230146103d15780637a4bba84146103e457806395d89b41146103f7578063a22cb465146103ff578063abae6af914610412578063b01555441461041a578063b88d4fde1461042d578063c87b56dd14610440578063dc91a98f14610453578063e985e9c514610466578063f99c229214610479578063fb42204d14610481575b600080fd5b6101ba6101b436600461361c565b50600090565b60405190151581526020015b60405180910390f35b6101d7610494565b6040516101c69190613689565b6101f76101f236600461369c565b61052b565b6040516001600160a01b0390911681526020016101c6565b61022261021d3660046136d7565b610554565b005b61023761023236600461369c565b61066e565b6040516101c691906138a9565b61025761025236600461369c565b6108a3565b6040516101c691906138bc565b6101ba610272366004613914565b610922565b6102226102853660046139f8565b610959565b610222610298366004613a3e565b610a5e565b6102a5610a8f565b6040516101c69190613a7f565b6102c56102c0366004613ae1565b610d76565b6040519081526020016101c6565b6102e66102e136600461369c565b610d9a565b6040516001600160401b0390911681526020016101c6565b61022261030c36600461369c565b610da5565b61022261031f366004613a3e565b6111e4565b6102e661033236600461369c565b6111ff565b610222610345366004613914565b61120a565b61022261035836600461369c565b611231565b61022261036b366004613b03565b611581565b6101f761037e36600461369c565b611704565b610222610391366004613914565b611742565b6102c56103a4366004613b3a565b611864565b6102226103b7366004613914565b6118f0565b6103c4611969565b6040516101c69190613b57565b6102226103df36600461369c565b6119ca565b6102226103f2366004613bc7565b611b8d565b6101d7611e54565b61022261040d366004613c5b565b611e67565b6103c4611e76565b610222610428366004613914565b611fc1565b61022261043b366004613c90565b6120e1565b6101d761044e36600461369c565b612113565b610222610461366004613d0f565b61225a565b6101ba610474366004613d32565b6125b7565b6103c46125e5565b61022261048f366004613914565b6126ea565b606060008060000180546104a790613d6b565b80601f01602080910402602001604051908101604052809291908181526020018280546104d390613d6b565b80156105205780601f106104f557610100808354040283529160200191610520565b820191906000526020600020905b81548152906001019060200180831161050357829003601f168201915b505050505091505090565b6000806105378361270a565b60009283526004016020525060409020546001600160a01b031690565b600061055f82611704565b9050806001600160a01b0316836001600160a01b0316036105d15760405162461bcd60e51b815260206004820152602160248201527f4552433732313a20617070726f76616c20746f2063757272656e74206f776e656044820152603960f91b60648201526084015b60405180910390fd5b336001600160a01b03821614806105ed57506105ed81336125b7565b61065f5760405162461bcd60e51b815260206004820152603e60248201527f4552433732313a20617070726f76652063616c6c6572206973206e6f7420746f60448201527f6b656e206f776e6572206e6f7220617070726f76656420666f7220616c6c000060648201526084016105c8565b6106698383612732565b505050565b6106766134f3565b600082815260026020908152604091829020548251808401909352601b83526000805160206142b4833981519152918301919091528391906001600160a01b03166106d45760405162461bcd60e51b81526004016105c89190613689565b506000838152600e602090815260409182902082516101808101845281546001600160a01b0316815260018201549281019290925260028082015493830193909352600381015460ff80821615156060850152929391926080850192610100909204169081111561074757610747613703565b600281111561075857610758613703565b815260038201546001600160401b036201000082048116602080850191909152600160501b90920416604080840191909152600484018054825181850281018501909352808352606090940193919290919060009084015b828210156107f257600084815260209081902060408051808201909152600285029091018054825260019081015460ff168284015290835290920191016107b0565b5050505081526020016005820160009054906101000a90046001600160a01b03166001600160a01b03166001600160a01b03168152602001600682015481526020016007820180548060200260200160405190810160405280929190818152602001828054801561088257602002820191906000526020600020905b81548152602001906001019080831161086e575b50505091835250506008919091015460ff1615156020909101529392505050565b6000818152601c60209081526040808320805482518185028101850190935280835260609493849084015b82821015610916576000848152602090819020604080518082019091526002850290910180546001600160a01b031682526001908101548284015290835290920191016108ce565b50505050915050919050565b6000838152601b6020908152604080832085845282528083206001600160a01b038516845290915281205460ff165b949350505050565b600082815260026020908152604091829020548251808401909352601b83526000805160206142b4833981519152918301919091528391906001600160a01b03166109b75760405162461bcd60e51b81526004016105c89190613689565b506109c483600033610922565b806109e357506109e38360008051602061431483398151915233610922565b6040518060600160405280602a8152602001614259602a913990610a1a5760405162461bcd60e51b81526004016105c89190613689565b50610a2583836127a1565b6040518381527ff8e1a15aba9398e019f0b49df1a4fde98ee17ae345cb5f6b5e2c27f5033e8ce7906020015b60405180910390a1505050565b610a683382612829565b610a845760405162461bcd60e51b81526004016105c890613da5565b610669838383612887565b60606000610a9c600b5490565b905060008060015b838111610ae8576000818152600e60205260409020546001600160a01b031615610ad65782610ad281613e09565b9350505b80610ae081613e09565b915050610aa4565b506000826001600160401b03811115610b0357610b0361394d565b604051908082528060200260200182016040528015610b3c57816020015b610b296134f3565b815260200190600190039081610b215790505b50905060015b848111610d6d576000818152600e60205260409020546001600160a01b031615610d5b576000818152600e602090815260409182902082516101808101845281546001600160a01b0316815260018201549281019290925260028082015493830193909352600381015460ff808216151560608501529293919260808501926101009092041690811115610bd857610bd8613703565b6002811115610be957610be9613703565b815260038201546001600160401b036201000082048116602080850191909152600160501b90920416604080840191909152600484018054825181850281018501909352808352606090940193919290919060009084015b82821015610c8357600084815260209081902060408051808201909152600285029091018054825260019081015460ff16828401529083529092019101610c41565b5050505081526020016005820160009054906101000a90046001600160a01b03166001600160a01b03166001600160a01b031681526020016006820154815260200160078201805480602002602001604051908101604052809291908181526020018280548015610d1357602002820191906000526020600020905b815481526020019060010190808311610cff575b50505091835250506008919091015460ff1615156020909101528251839085908110610d4157610d41613e22565b60200260200101819052508280610d5790613e09565b9350505b80610d6581613e09565b915050610b42565b50949350505050565b6000828152601b602090815260408083208484529091529020600101545b92915050565b6000610d9482612a19565b600081815260026020908152604091829020548251808401909352601b83526000805160206142b4833981519152918301919091528291906001600160a01b0316610e035760405162461bcd60e51b81526004016105c89190613689565b50610e1082600033610922565b6040518060400160405280601d81526020016000805160206142f483398151915281525090610e525760405162461bcd60e51b81526004016105c89190613689565b5060026000838152600e6020526040902060030154610100900460ff166002811115610e8057610e80613703565b141560405180604001604052806015815260200174115d995b9d0e88115d995b9d0818d85b98d95b1959605a1b81525090610ece5760405162461bcd60e51b81526004016105c89190613689565b506000805b600084815260106020526040902054811015610f4a5760008481526010602052604081208054600f92919084908110610f0e57610f0e613e22565b906000526020600020015481526020019081526020016000206008015482610f369190613e38565b915080610f4281613e09565b915050610ed3565b506000838152600e6020908152604091829020600201548251808401909352601e83527f4576656e743a204576656e742063616e27742062652063616e63656c65640000918301919091528214610fb45760405162461bcd60e51b81526004016105c89190613689565b5060005b6000848152601060205260409020548110156111945760005b60008581526010602052604081208054600f92919085908110610ff657610ff6613e22565b906000526020600020015481526020019081526020016000206002018054905081101561118157601a546000868152601060205260408120805491926001600160a01b031691600f9184918790811061105157611051613e22565b90600052602060002001548152602001908152602001600020600201838154811061107e5761107e613e22565b906000526020600020015460405160240161109b91815260200190565b60408051601f198184030181529181526020820180516001600160e01b03166355ccad4360e01b179052516110d09190613e4b565b6000604051808303816000865af19150503d806000811461110d576040519150601f19603f3d011682016040523d82523d6000602084013e611112565b606091505b509150506000808280602001905181019061112d9190613e67565b60008a81526015602090815260408083206001600160a01b0386168452909152812080549395509193508392611164908490613e38565b92505081905550505050808061117990613e09565b915050610fd1565b508061118c81613e09565b915050610fb8565b506000838152600e6020908152604091829020600301805461ff00191661020017905590518481527fceaf11772900fe569752a0207c8639fb8228eb8663456dc9eaa3a08f927a87059101610a51565b610669838383604051806020016040528060008152506120e1565b6000610d9482612a67565b826112158484610d76565b61121f8282612ab6565b61122a858585612ac1565b5050505050565b600081815260026020908152604091829020548251808401909352601b83526000805160206142b4833981519152918301919091528291906001600160a01b031661128f5760405162461bcd60e51b81526004016105c89190613689565b5061129c82600033610922565b6040518060400160405280601d81526020016000805160206142f4833981519152815250906112de5760405162461bcd60e51b81526004016105c89190613689565b5060008281526010602090815260408083208054825181850281018501909352808352919290919083018282801561133557602002820191906000526020600020905b815481526020019060010190808311611321575b505050505090506000805b82518110156113a6576000600f01600084838151811061136257611362613e22565b6020026020010151815260200190815260200160002060020180549050600003611394578161139081613e09565b9250505b8061139e81613e09565b915050611340565b50808251146040518060400160405280601d81526020017f4576656e743a2054686572652061726520736f6c64207469636b657473000000815250906113ff5760405162461bcd60e51b81526004016105c89190613689565b5061140984612b8b565b6000848152600e6020526040812080546001600160a01b031916815560018101829055600281018290556003810180546001600160901b0319169055906114536004830182613553565b6005820180546001600160a01b031916905560006006830181905561147c906007840190613574565b50600801805460ff19169055600084815260106020526040812061149f91613574565b60005b825181101561122a576000600f0160008483815181106114c4576114c4613e22565b602002602001015181526020019081526020016000206000808201600090556001820160006114f39190613592565b611501600283016000613574565b600060038301819055600483018190556005830181905560068301819055600783018190556008830181905560098301805460ff1916905561154790600a840190613574565b611555600b83016000613574565b506000600c8201819055600d820155600e01805460ff191690558061157981613e09565b9150506114a2565b600083815260026020908152604091829020548251808401909352601b83526000805160206142b4833981519152918301919091528491906001600160a01b03166115df5760405162461bcd60e51b81526004016105c89190613689565b506115ec84600033610922565b6040518060400160405280601d81526020016000805160206142f48339815191528152509061162e5760405162461bcd60e51b81526004016105c89190613689565b50611648846000805160206142d483398151915285610922565b604051806060016040528060318152602001614283603191399061167f5760405162461bcd60e51b81526004016105c89190613689565b50611699846000805160206142d48339815191528561120a565b6116b2846000805160206142d4833981519152846126ea565b604080518581526001600160a01b038416602082015233918101919091527f9f54db3c6775e8717da6972b09a7ed552d62f5fd63696a1a75e58f61bd240193906060015b60405180910390a150505050565b60008181526002602052604081205481906001600160a01b03168061173b5760405162461bcd60e51b81526004016105c890613e95565b9392505050565b600083815260026020908152604091829020548251808401909352601b83526000805160206142b4833981519152918301919091528491906001600160a01b03166117a05760405162461bcd60e51b81526004016105c89190613689565b506117ad84600033610922565b6040518060400160405280601d81526020016000805160206142f4833981519152815250906117ef5760405162461bcd60e51b81526004016105c89190613689565b5060408051808201909152601d81527f4576656e743a2043616e2774207365742063617368696572206865726500000060208201526000805160206142d483398151915284036118525760405162461bcd60e51b81526004016105c89190613689565b5061185e8484846126ea565b50505050565b6000806001600160a01b0383166118cf5760405162461bcd60e51b815260206004820152602960248201527f4552433732313a2061646472657373207a65726f206973206e6f7420612076616044820152683634b21037bbb732b960b91b60648201526084016105c8565b6001600160a01b039092166000908152600390920160205250604090205490565b6001600160a01b038116331461195e5760405162461bcd60e51b815260206004820152602d60248201527f526f6c65436f6e74726f6c3a2063616e206f6e6c792072656e6f756e6365207260448201526c37b632b9903337b91039b2b63360991b60648201526084016105c8565b610669838383612ac1565b336000908152601960209081526040918290208054835181840281018401909452808452606093928301828280156119c057602002820191906000526020600020905b8154815260200190600101908083116119ac575b5050505050905090565b60026000828152600e6020526040902060030154610100900460ff1660028111156119f7576119f7613703565b146040518060400160405280601c81526020017b115d995b9d0e88115d995b9d081a5cc81b9bdd0818d85b98d95b195960221b81525090611a4b5760405162461bcd60e51b81526004016105c89190613689565b506000818152601560208181526040808420338552825292839020548351808501909452918352744576656e743a204e6f207769746864726177616c7360581b90830152611aac5760405162461bcd60e51b81526004016105c89190613689565b5060008181526015602090815260408083203384528252808320805490849055848452600e9092528220600201805491928392611aea908490613ec7565b9091555050604051600090339083908381818185875af1925050503d8060008114611b31576040519150601f19603f3d011682016040523d82523d6000602084013e611b36565b606091505b50509050806040518060400160405280601b81526020017a22bb32b73a1d102330b4b632b2103a379039b2b7321022ba3432b960291b8152509061185e5760405162461bcd60e51b81526004016105c89190613689565b856001600160401b0316856001600160401b0316118015611bb7575042866001600160401b031610155b60405180604001604052806018815260200177455243353030373a20496e76616c696420656e6454696d6560401b81525090611c065760405162461bcd60e51b81526004016105c89190613689565b506127108211156040518060400160405280602081526020017f4576656e743a204665652070657263656e74616765206d61782031305f30303081525090611c615760405162461bcd60e51b81526004016105c89190613689565b50611c70600b80546001019055565b6000611c7b600b5490565b6000818152600e6020526040902080546001600160a01b03199081163317825560018083018c90556003830180546001600160401b038c8116600160501b0261ff001916908e16620100000261ff01600160501b03199092169190911790921761ff00600160501b03600160901b0319169190911790556005820180549091166001600160a01b0388169081179091559192509015611d57576001600160a01b03851660009081526019602090815260408220805460018101825590835290822001839055849003611d4f57600854611d51565b835b60068201555b60088101805460ff19168415151790556040517f9ce3d6db707bca4ba0eabed8fba1e2c013a1c0bc1132a764170a7854d198c73d90611d999084908990613eda565b60405180910390a1611dad82600033612c50565b611dc68260008051602061431483398151915233612c50565b611df1827f21702c8af46127c7fa207f89d0b0a8441bb32959a0ac7df790e9ab1a25c9892633612c50565b611e1c827fb5a7f51d0593e853ad0aa6b718ee0bdd10c4966eb62d243b69d538e5823d040133612c50565b611e35826000805160206142d483398151915233612c50565b611e3f3383612d5c565b611e4982876127a1565b505050505050505050565b606060008060010180546104a790613d6b565b611e72338383612e83565b5050565b60606000611e83600b5490565b905060008060015b838111611ef257611e9e81600033610922565b80611ebd5750611ebd8160008051602061431483398151915233610922565b8015611ecd5750611ecd81612f52565b15611ee05782611edc81613e09565b9350505b80611eea81613e09565b915050611e8b565b506000826001600160401b03811115611f0d57611f0d61394d565b604051908082528060200260200182016040528015611f36578160200160208202803683370190505b50905060015b848111610d6d57611f4f81600033610922565b80611f6e5750611f6e8160008051602061431483398151915233610922565b8015611f7e5750611f7e81612f52565b15611faf5780828481518110611f9657611f96613e22565b602090810291909101015282611fab81613e09565b9350505b80611fb981613e09565b915050611f3c565b600083815260026020908152604091829020548251808401909352601b83526000805160206142b4833981519152918301919091528491906001600160a01b031661201f5760405162461bcd60e51b81526004016105c89190613689565b5061202c84600033610922565b6040518060400160405280601d81526020016000805160206142f48339815191528152509061206e5760405162461bcd60e51b81526004016105c89190613689565b506000805160206142d48339815191528314156040518060400160405280602081526020017f4576656e743a2043616e27742072656d6f766520636173686965722068657265815250906120d55760405162461bcd60e51b81526004016105c89190613689565b5061185e84848461120a565b6120eb3383612829565b6121075760405162461bcd60e51b81526004016105c890613da5565b61185e84848484612f6f565b606060006121208361270a565b60008381526006820160205260408120805461213b90613d6b565b80601f016020809104026020016040519081016040528092919081815260200182805461216790613d6b565b80156121b45780601f10612189576101008083540402835291602001916121b4565b820191906000526020600020905b81548152906001019060200180831161219757829003601f168201915b5050505050905060006121d260408051602081019091526000815290565b905080516000036121e557509392505050565b8151156122185780826040516020016121ff929190613ef3565b6040516020818303038152906040529350505050919050565b60008151116122365760405180602001604052806000815250612251565b8061224086612fa2565b6040516020016121ff929190613ef3565b95945050505050565b600082815260026020908152604091829020548251808401909352601b83526000805160206142b4833981519152918301919091528391906001600160a01b03166122b85760405162461bcd60e51b81526004016105c89190613689565b506122c583600033610922565b6040518060400160405280601d81526020016000805160206142f4833981519152815250906123075760405162461bcd60e51b81526004016105c89190613689565b506000838152600e60205260409020600301805483919060029061233b9084906201000090046001600160401b0316613f22565b92506101000a8154816001600160401b0302191690836001600160401b03160217905550816000600e016000858152602001908152602001600020600301600a8282829054906101000a90046001600160401b031661239a9190613f22565b82546001600160401b0391821661010093840a90810292021916179091556000858152600e60205260408120600301805461ff00191690921790915590505b6000848152600e6020526040902060040154811015612459576000848152600e6020526040902060040180546001600160401b03851691908390811061242157612421613e22565b906000526020600020906002020160000160008282546124419190613e38565b9091555081905061245181613e09565b9150506123d9565b506000838152601060209081526040808320805482518185028101850190935280835291929091908301828280156124b057602002820191906000526020600020905b81548152602001906001019080831161249c575b5050505050905060005b815181101561257857836001600160401b03166000600f0160008484815181106124e6576124e6613e22565b60200260200101518152602001908152602001600020600501600082825461250e9190613e38565b92505081905550836001600160401b03166000600f01600084848151811061253857612538613e22565b6020026020010151815260200190815260200160002060060160008282546125609190613e38565b9091555081905061257081613e09565b9150506124ba565b50604080518581526001600160401b03851660208201527f9066be8d402a022f5b4db8b98825f0604ef760ea5053e46d7654a84d5f27ba8991016116f6565b6001600160a01b03918216600090815260056020908152604080832093909416825291909152205460ff1690565b606060006125f2600b5490565b905060008060015b83811161263e576000818152600e60205260409020546001600160a01b03161561262c578261262881613e09565b9350505b8061263681613e09565b9150506125fa565b506000826001600160401b038111156126595761265961394d565b604051908082528060200260200182016040528015612682578160200160208202803683370190505b50905060015b848111610d6d576000818152600e60205260409020546001600160a01b0316156126d857808284815181106126bf576126bf613e22565b6020908102919091010152826126d481613e09565b9350505b806126e281613e09565b915050612688565b826126f58484610d76565b6126ff8282612ab6565b61122a858585612c50565b61271381612f52565b61272f5760405162461bcd60e51b81526004016105c890613e95565b50565b600081815260046020526040812080546001600160a01b0319166001600160a01b038516908117909155829061276782611704565b6001600160a01b03167f8c5be1e5ebec7d5bd14f71427d1e84f3dd0314c0f7b2291e5b200ac8c7c3b92560405160405180910390a4505050565b60006127ac83612f52565b61280f5760405162461bcd60e51b815260206004820152602e60248201527f45524337323155524953746f726167653a2055524920736574206f66206e6f6e60448201526d32bc34b9ba32b73a103a37b5b2b760911b60648201526084016105c8565b6000838152600682016020526040902061185e8382613f97565b60008061283583611704565b9050806001600160a01b0316846001600160a01b0316148061285c575061285c81856125b7565b806109515750836001600160a01b03166128758461052b565b6001600160a01b031614949350505050565b6000836001600160a01b031661289c83611704565b6001600160a01b0316146129005760405162461bcd60e51b815260206004820152602560248201527f4552433732313a207472616e736665722066726f6d20696e636f72726563742060448201526437bbb732b960d91b60648201526084016105c8565b6001600160a01b0383166129625760405162461bcd60e51b8152602060048201526024808201527f4552433732313a207472616e7366657220746f20746865207a65726f206164646044820152637265737360e01b60648201526084016105c8565b61296d600083612732565b6001600160a01b03841660009081526003820160205260408120805460019290612998908490613ec7565b90915550506001600160a01b038316600090815260038201602052604081208054600192906129c8908490613e38565b9091555050600082815260028201602052604080822080546001600160a01b0319166001600160a01b03878116918217909255915185939188169160008051602061433483398151915291a461185e565b600080612a2583612f52565b612a415760405162461bcd60e51b81526004016105c890614056565b6000928352600e016020525060409020600301546201000090046001600160401b031690565b600080612a7383612f52565b612a8f5760405162461bcd60e51b81526004016105c890614056565b6000928352600e01602052506040902060030154600160501b90046001600160401b031690565b611e728282336130a2565b6000612ace848484610922565b1561185e576000848152601b82016020908152604080832086845282528083206001600160a01b03861684528252808320805460ff19169055601d8401909152902054612b1b8582613106565b6001600160a01b0383166000908152601d83016020526040812055336001600160a01b0316836001600160a01b0316857f7b00293d63517946aeba2f56c6b4c5dec87b67393ac48520994d3d8ce776335a88604051612b7c91815260200190565b60405180910390a45050505050565b600080612b9783611704565b9050612ba4600084612732565b6001600160a01b03811660009081526003830160205260408120805460019290612bcf908490613ec7565b9091555050600083815260028301602052604080822080546001600160a01b0319169055518491906001600160a01b03841690600080516020614334833981519152908390a4600083815260068301602052604090208054612c3090613d6b565b159050610669576000838152600683016020526040812061066991613592565b6000612c5d848484610922565b61185e576000848152601b82016020908152604080832086845282528083206001600160a01b03868116808652918452828520805460ff19166001908117909155835180850185529283528285018981528a8752601c8801865293862080548083018255818852958720845160029097020180546001600160a01b03191696909316959095178255925190830155928790529054612cfb9190613ec7565b6001600160a01b0384166000908152601d84016020526040902055336001600160a01b0316836001600160a01b0316857fd9dfff7752b7a810e2b646c0c96b76bc9ed817f6c6f7848bbe68163f7e8b437888604051612b7c91815260200190565b60006001600160a01b038316612db45760405162461bcd60e51b815260206004820181905260248201527f4552433732313a206d696e7420746f20746865207a65726f206164647265737360448201526064016105c8565b612dbd82612f52565b15612e095760405162461bcd60e51b815260206004820152601c60248201527b115490cdcc8c4e881d1bdad95b88185b1c9958591e481b5a5b9d195960221b60448201526064016105c8565b6001600160a01b03831660009081526003820160205260408120805460019290612e34908490613e38565b9091555050600082815260028201602052604080822080546001600160a01b0319166001600160a01b0387169081179091559051849290600080516020614334833981519152908290a4505050565b6000826001600160a01b0316846001600160a01b031603612ee25760405162461bcd60e51b815260206004820152601960248201527822a9219b99189d1030b8383937bb32903a379031b0b63632b960391b60448201526064016105c8565b6001600160a01b038481166000818152600584016020908152604080832094881680845294825291829020805460ff191687151590811790915591519182527f17307eab39ab6107e8899845ad3d59bd9653f200f220920489ca2b5937696c31910160405180910390a350505050565b6000908152600260205260409020546001600160a01b0316151590565b612f7a848484612887565b612f86848484846131ee565b61185e5760405162461bcd60e51b81526004016105c890614088565b606081600003612fc95750506040805180820190915260018152600360fc1b602082015290565b8160005b8115612ff35780612fdd81613e09565b9150612fec9050600a836140f0565b9150612fcd565b6000816001600160401b0381111561300d5761300d61394d565b6040519080825280601f01601f191660200182016040528015613037576020820181803683370190505b5090505b84156109515761304c600183613ec7565b9150613059600a86614104565b613064906030613e38565b60f81b81838151811061307957613079613e22565b60200101906001600160f81b031916908160001a90535061309b600a866140f0565b945061303b565b6130ad838383610922565b610669576130ba816132ef565b6130c5836020613301565b6130ce8561349c565b6040516020016130e093929190614118565b60408051601f198184030181529082905262461bcd60e51b82526105c891600401613689565b6000828152601c60205260408120805461312290600190613ec7565b8154811061313257613132613e22565b906000526020600020906002020181601c016000858152602001908152602001600020838154811061316657613166613e22565b60009182526020808320845460029093020180546001600160a01b0319166001600160a01b039093169290921782556001938401549390910192909255848152601c8301909152604090208054806131c0576131c06141ba565b60008281526020812060026000199093019283020180546001600160a01b0319168155600101559055505050565b60006001600160a01b0384163b156132e457604051630a85bd0160e11b81526001600160a01b0385169063150b7a02906132329033908990889088906004016141d0565b6020604051808303816000875af192505050801561326d575060408051601f3d908101601f1916820190925261326a9181019061420d565b60015b6132ca573d80801561329b576040519150601f19603f3d011682016040523d82523d6000602084013e6132a0565b606091505b5080516000036132c25760405162461bcd60e51b81526004016105c890614088565b805181602001fd5b6001600160e01b031916630a85bd0160e11b149050610951565b506001949350505050565b6060610d946001600160a01b03831660145b6060600061331083600261422a565b61331b906002613e38565b6001600160401b038111156133325761333261394d565b6040519080825280601f01601f19166020018201604052801561335c576020820181803683370190505b509050600360fc1b8160008151811061337757613377613e22565b60200101906001600160f81b031916908160001a905350600f60fb1b816001815181106133a6576133a6613e22565b60200101906001600160f81b031916908160001a90535060006133ca84600261422a565b6133d5906001613e38565b90505b600181111561344d576f181899199a1a9b1b9c1cb0b131b232b360811b85600f166010811061340957613409613e22565b1a60f81b82828151811061341f5761341f613e22565b60200101906001600160f81b031916908160001a90535060049490941c9361344681614241565b90506133d8565b50831561173b5760405162461bcd60e51b815260206004820181905260248201527f537472696e67733a20686578206c656e67746820696e73756666696369656e7460448201526064016105c8565b6060816000036134c65750506040805180820190915260048152630307830360e41b602082015290565b8160005b81156134e957806134da81613e09565b915050600882901c91506134ca565b6109518482613301565b60408051610180810182526000808252602082018190529181018290526060810182905290608082019081526000602082018190526040820181905260608083018190526080830182905260a0830182905260c083015260e09091015290565b508054600082556002029060005260206000209081019061272f91906135cc565b508054600082559060005260206000209081019061272f91906135f1565b50805461359e90613d6b565b6000825580601f106135ae575050565b601f01602090049060005260206000209081019061272f91906135f1565b5b808211156135ed576000815560018101805460ff191690556002016135cd565b5090565b5b808211156135ed57600081556001016135f2565b6001600160e01b03198116811461272f57600080fd5b60006020828403121561362e57600080fd5b813561173b81613606565b60005b8381101561365457818101518382015260200161363c565b50506000910152565b60008151808452613675816020860160208601613639565b601f01601f19169290920160200192915050565b60208152600061173b602083018461365d565b6000602082840312156136ae57600080fd5b5035919050565b6001600160a01b03169052565b6001600160a01b038116811461272f57600080fd5b600080604083850312156136ea57600080fd5b82356136f5816136c2565b946020939093013593505050565b634e487b7160e01b600052602160045260246000fd5b6003811061373757634e487b7160e01b600052602160045260246000fd5b9052565b600081518084526020808501945080840160005b838110156137795781518051885283015160ff16838801526040909601959082019060010161374f565b509495945050505050565b600081518084526020808501945080840160005b8381101561377957815187529582019590820190600101613798565b60006101806137c48484516136b5565b602083015160208501526040830151604085015260608301516137eb606086018215159052565b5060808301516137fe6080860182613719565b5060a083015161381960a08601826001600160401b03169052565b5060c083015161383460c08601826001600160401b03169052565b5060e08301518160e086015261384c8286018261373b565b91505061010080840151613862828701826136b5565b5050610120838101519085015261014080840151858303828701526138878382613784565b925050506101608084015161389f8287018215159052565b5090949350505050565b60208152600061173b60208301846137b4565b602080825282518282018190526000919060409081850190868401855b8281101561390757815180516001600160a01b031685528601518685015292840192908501906001016138d9565b5091979650505050505050565b60008060006060848603121561392957600080fd5b83359250602084013591506040840135613942816136c2565b809150509250925092565b634e487b7160e01b600052604160045260246000fd5b60006001600160401b038084111561397d5761397d61394d565b604051601f8501601f19908116603f011681019082821181831017156139a5576139a561394d565b816040528093508581528686860111156139be57600080fd5b858560208301376000602087830101525050509392505050565b600082601f8301126139e957600080fd5b61173b83833560208501613963565b60008060408385031215613a0b57600080fd5b8235915060208301356001600160401b03811115613a2857600080fd5b613a34858286016139d8565b9150509250929050565b600080600060608486031215613a5357600080fd5b8335613a5e816136c2565b92506020840135613a6e816136c2565b929592945050506040919091013590565b6000602080830181845280855180835260408601915060408160051b870101925083870160005b82811015613ad457603f19888603018452613ac28583516137b4565b94509285019290850190600101613aa6565b5092979650505050505050565b60008060408385031215613af457600080fd5b50508035926020909101359150565b600080600060608486031215613b1857600080fd5b833592506020840135613b2a816136c2565b91506040840135613942816136c2565b600060208284031215613b4c57600080fd5b813561173b816136c2565b6020808252825182820181905260009190848201906040850190845b81811015613b8f57835183529284019291840191600101613b73565b50909695505050505050565b80356001600160401b0381168114613bb257600080fd5b919050565b80358015158114613bb257600080fd5b600080600080600080600060e0888a031215613be257600080fd5b87359650613bf260208901613b9b565b9550613c0060408901613b9b565b945060608801356001600160401b03811115613c1b57600080fd5b613c278a828b016139d8565b9450506080880135613c38816136c2565b925060a08801359150613c4d60c08901613bb7565b905092959891949750929550565b60008060408385031215613c6e57600080fd5b8235613c79816136c2565b9150613c8760208401613bb7565b90509250929050565b60008060008060808587031215613ca657600080fd5b8435613cb1816136c2565b93506020850135613cc1816136c2565b92506040850135915060608501356001600160401b03811115613ce357600080fd5b8501601f81018713613cf457600080fd5b613d0387823560208401613963565b91505092959194509250565b60008060408385031215613d2257600080fd5b82359150613c8760208401613b9b565b60008060408385031215613d4557600080fd5b8235613d50816136c2565b91506020830135613d60816136c2565b809150509250929050565b600181811c90821680613d7f57607f821691505b602082108103613d9f57634e487b7160e01b600052602260045260246000fd5b50919050565b6020808252602e908201527f4552433732313a2063616c6c6572206973206e6f7420746f6b656e206f776e6560408201526d1c881b9bdc88185c1c1c9bdd995960921b606082015260800190565b634e487b7160e01b600052601160045260246000fd5b600060018201613e1b57613e1b613df3565b5060010190565b634e487b7160e01b600052603260045260246000fd5b80820180821115610d9457610d94613df3565b60008251613e5d818460208701613639565b9190910192915050565b60008060408385031215613e7a57600080fd5b8251613e85816136c2565b6020939093015192949293505050565b602080825260189082015277115490cdcc8c4e881a5b9d985b1a59081d1bdad95b88125160421b604082015260600190565b81810381811115610d9457610d94613df3565b828152604060208201526000610951604083018461365d565b60008351613f05818460208801613639565b835190830190613f19818360208801613639565b01949350505050565b6001600160401b03818116838216019080821115613f4257613f42613df3565b5092915050565b601f82111561066957600081815260208120601f850160051c81016020861015613f705750805b601f850160051c820191505b81811015613f8f57828155600101613f7c565b505050505050565b81516001600160401b03811115613fb057613fb061394d565b613fc481613fbe8454613d6b565b84613f49565b602080601f831160018114613ff95760008415613fe15750858301515b600019600386901b1c1916600185901b178555613f8f565b600085815260208120601f198616915b8281101561402857888601518255948401946001909101908401614009565b50858210156140465787850151600019600388901b60f8161c191681555b5050505050600190811b01905550565b602080825260189082015277115490cd4c0c0dce88125b9d985b1a59081d1bdad95b925960421b604082015260600190565b60208082526032908201527f4552433732313a207472616e7366657220746f206e6f6e20455243373231526560408201527131b2b4bb32b91034b6b83632b6b2b73a32b960711b606082015260800190565b634e487b7160e01b600052601260045260246000fd5b6000826140ff576140ff6140da565b500490565b600082614113576141136140da565b500690565b7402937b632a1b7b73a3937b61d1030b1b1b7bab73a1605d1b815260008451614148816015850160208901613639565b7001034b99036b4b9b9b4b733903937b6329607d1b6015918401918201528451614179816026840160208901613639565b720103337b91032bb32b73a103bb4ba341034b21606d1b6026929091019182015283516141ad816039840160208801613639565b0160390195945050505050565b634e487b7160e01b600052603160045260246000fd5b6001600160a01b03858116825284166020820152604081018390526080606082018190526000906142039083018461365d565b9695505050505050565b60006020828403121561421f57600080fd5b815161173b81613606565b8082028115828204841417610d9457610d94613df3565b60008161425057614250613df3565b50600019019056fe4576656e743a2043616c6c6572206973206e6f7420616e2061646d696e206f72206d6f64657261746f724576656e743a204f6e6c7920636173686965722063616e20776974686472617720636f6e74726163742062616c616e63654576656e743a204576656e7420646f6573206e6f742065786973740000000000ff3317e1e0e8c784290b957ee9b65ea8fe96420c4819db463283b95ecbe4a3fe4576656e743a2043616c6c6572206973206e6f7420616e2061646d696e00000071f3d55856e4058ed06ee057d79ada615f65cdf5f9ee88181b914225088f834fddf252ad1be2c89b69c2b068fc378daa952ba7f163c4a11628f55a4df523b3efa264697066735822122075156b37a37ae11328db5a6362201de653741c4128cab24ba0e50418f29352e464736f6c63430008110033",
  "linkReferences": {},
  "deployedLinkReferences": {}
}