{
  "_format": "hh-sol-artifact-1",
  "contractName": "EventTicketControllerFacet",
  "sourceName": "contracts/EventDiamond/facets/EventTicketControllerFacet.sol",
  "abi": [
    {
      "anonymous": false,
      "inputs": [
        {
          "indexed": true,
          "internalType": "uint256",
          "name": "fromTokenId",
          "type": "uint256"
        },
        {
          "indexed": false,
          "internalType": "uint256",
          "name": "toTokenId",
          "type": "uint256"
        },
        {
          "indexed": true,
          "internalType": "address",
          "name": "fromAddress",
          "type": "address"
        },
        {
          "indexed": true,
          "internalType": "address",
          "name": "toAddress",
          "type": "address"
        }
      ],
      "name": "ConsecutiveTransfer",
      "type": "event"
    },
    {
      "anonymous": false,
      "inputs": [
        {
          "indexed": false,
          "internalType": "uint256",
          "name": "eventId",
          "type": "uint256"
        },
        {
          "indexed": false,
          "internalType": "uint256",
          "name": "date",
          "type": "uint256"
        },
        {
          "indexed": false,
          "internalType": "uint8",
          "name": "percentage",
          "type": "uint8"
        }
      ],
      "name": "EventRefundDateAdded",
      "type": "event"
    },
    {
      "anonymous": false,
      "inputs": [
        {
          "indexed": false,
          "internalType": "uint256",
          "name": "eventId",
          "type": "uint256"
        }
      ],
      "name": "EventWithdraw",
      "type": "event"
    },
    {
      "anonymous": false,
      "inputs": [
        {
          "indexed": false,
          "internalType": "uint256",
          "name": "eventId",
          "type": "uint256"
        },
        {
          "indexed": false,
          "internalType": "address[]",
          "name": "accounts",
          "type": "address[]"
        },
        {
          "indexed": false,
          "internalType": "address",
          "name": "staffMember",
          "type": "address"
        }
      ],
      "name": "InvitationSent",
      "type": "event"
    },
    {
      "anonymous": false,
      "inputs": [
        {
          "indexed": false,
          "internalType": "uint256",
          "name": "ticketId",
          "type": "uint256"
        },
        {
          "indexed": false,
          "internalType": "address",
          "name": "account",
          "type": "address"
        }
      ],
      "name": "RefundWithdraw",
      "type": "event"
    },
    {
      "anonymous": false,
      "inputs": [
        {
          "indexed": false,
          "internalType": "uint256",
          "name": "ticketId",
          "type": "uint256"
        },
        {
          "indexed": false,
          "internalType": "address",
          "name": "account",
          "type": "address"
        }
      ],
      "name": "TicketBought",
      "type": "event"
    },
    {
      "anonymous": false,
      "inputs": [
        {
          "indexed": false,
          "internalType": "uint256",
          "name": "eventId",
          "type": "uint256"
        },
        {
          "indexed": false,
          "internalType": "uint256",
          "name": "ticketId",
          "type": "uint256"
        },
        {
          "indexed": false,
          "internalType": "address",
          "name": "staffMember",
          "type": "address"
        }
      ],
      "name": "TicketClipped",
      "type": "event"
    },
    {
      "anonymous": false,
      "inputs": [
        {
          "indexed": false,
          "internalType": "uint256",
          "name": "eventId",
          "type": "uint256"
        },
        {
          "indexed": false,
          "internalType": "uint256",
          "name": "categoryId",
          "type": "uint256"
        },
        {
          "indexed": false,
          "internalType": "uint256",
          "name": "ticketId",
          "type": "uint256"
        },
        {
          "indexed": false,
          "internalType": "address",
          "name": "account",
          "type": "address"
        }
      ],
      "name": "TicketRefunded",
      "type": "event"
    },
    {
      "anonymous": false,
      "inputs": [
        {
          "indexed": false,
          "internalType": "uint256",
          "name": "eventId",
          "type": "uint256"
        },
        {
          "indexed": false,
          "internalType": "uint256",
          "name": "ticketCount",
          "type": "uint256"
        },
        {
          "indexed": false,
          "internalType": "address",
          "name": "staffMember",
          "type": "address"
        }
      ],
      "name": "TicketsBooked",
      "type": "event"
    },
    {
      "inputs": [
        {
          "internalType": "uint256",
          "name": "_eventId",
          "type": "uint256"
        },
        {
          "components": [
            {
              "internalType": "uint256",
              "name": "date",
              "type": "uint256"
            },
            {
              "internalType": "uint8",
              "name": "percentage",
              "type": "uint8"
            }
          ],
          "internalType": "struct RefundData",
          "name": "_refundData",
          "type": "tuple"
        }
      ],
      "name": "addRefundDeadline",
      "outputs": [],
      "stateMutability": "nonpayable",
      "type": "function"
    },
    {
      "inputs": [
        {
          "internalType": "uint256",
          "name": "_eventId",
          "type": "uint256"
        },
        {
          "components": [
            {
              "internalType": "uint256",
              "name": "categoryId",
              "type": "uint256"
            },
            {
              "internalType": "uint256",
              "name": "ticketAmount",
              "type": "uint256"
            }
          ],
          "internalType": "struct CategoryTicketAmount[]",
          "name": "_categoryTicketAmount",
          "type": "tuple[]"
        },
        {
          "components": [
            {
              "internalType": "uint256",
              "name": "row",
              "type": "uint256"
            },
            {
              "internalType": "uint256",
              "name": "seat",
              "type": "uint256"
            },
            {
              "internalType": "address",
              "name": "account",
              "type": "address"
            }
          ],
          "internalType": "struct TicketPlaceAddress[]",
          "name": "_place",
          "type": "tuple[]"
        },
        {
          "internalType": "string[]",
          "name": "_ticketMetadataUris",
          "type": "string[]"
        }
      ],
      "name": "bookTickets",
      "outputs": [],
      "stateMutability": "nonpayable",
      "type": "function"
    },
    {
      "inputs": [
        {
          "internalType": "uint256",
          "name": "_eventId",
          "type": "uint256"
        },
        {
          "internalType": "uint256",
          "name": "_categoryId",
          "type": "uint256"
        },
        {
          "components": [
            {
              "internalType": "uint256",
              "name": "amount",
              "type": "uint256"
            },
            {
              "internalType": "uint256",
              "name": "price",
              "type": "uint256"
            }
          ],
          "internalType": "struct TicketPriceData[]",
          "name": "_priceData",
          "type": "tuple[]"
        },
        {
          "components": [
            {
              "internalType": "uint256",
              "name": "row",
              "type": "uint256"
            },
            {
              "internalType": "uint256",
              "name": "seat",
              "type": "uint256"
            }
          ],
          "internalType": "struct TicketPlace[]",
          "name": "_place",
          "type": "tuple[]"
        },
        {
          "internalType": "string[]",
          "name": "_ticketMetadataUris",
          "type": "string[]"
        }
      ],
      "name": "buyTickets",
      "outputs": [],
      "stateMutability": "payable",
      "type": "function"
    },
    {
      "inputs": [
        {
          "components": [
            {
              "internalType": "uint256",
              "name": "eventId",
              "type": "uint256"
            },
            {
              "internalType": "uint256",
              "name": "categoryId",
              "type": "uint256"
            }
          ],
          "internalType": "struct EventCategoryData[]",
          "name": "_eventCategoryData",
          "type": "tuple[]"
        },
        {
          "components": [
            {
              "internalType": "uint256",
              "name": "amount",
              "type": "uint256"
            },
            {
              "internalType": "uint256",
              "name": "price",
              "type": "uint256"
            }
          ],
          "internalType": "struct TicketPriceData[]",
          "name": "_priceData",
          "type": "tuple[]"
        },
        {
          "components": [
            {
              "internalType": "uint256",
              "name": "row",
              "type": "uint256"
            },
            {
              "internalType": "uint256",
              "name": "seat",
              "type": "uint256"
            }
          ],
          "internalType": "struct TicketPlace[]",
          "name": "_place",
          "type": "tuple[]"
        },
        {
          "internalType": "string[]",
          "name": "_ticketMetadataUris",
          "type": "string[]"
        }
      ],
      "name": "buyTickets",
      "outputs": [],
      "stateMutability": "payable",
      "type": "function"
    },
    {
      "inputs": [
        {
          "internalType": "uint256",
          "name": "_eventId",
          "type": "uint256"
        },
        {
          "internalType": "uint256",
          "name": "_ticketId",
          "type": "uint256"
        }
      ],
      "name": "clipTicket",
      "outputs": [],
      "stateMutability": "nonpayable",
      "type": "function"
    },
    {
      "inputs": [
        {
          "internalType": "uint256",
          "name": "_eventId",
          "type": "uint256"
        }
      ],
      "name": "getAddressTicketIdsByEvent",
      "outputs": [
        {
          "internalType": "uint256[]",
          "name": "",
          "type": "uint256[]"
        }
      ],
      "stateMutability": "view",
      "type": "function"
    },
    {
      "inputs": [
        {
          "components": [
            {
              "internalType": "uint256",
              "name": "eventId",
              "type": "uint256"
            },
            {
              "internalType": "uint256",
              "name": "categoryId",
              "type": "uint256"
            },
            {
              "internalType": "uint256",
              "name": "ticketId",
              "type": "uint256"
            }
          ],
          "internalType": "struct ReturnTicketParams",
          "name": "_returnTicketParams",
          "type": "tuple"
        }
      ],
      "name": "returnTicket",
      "outputs": [],
      "stateMutability": "nonpayable",
      "type": "function"
    },
    {
      "inputs": [
        {
          "internalType": "uint256",
          "name": "_eventId",
          "type": "uint256"
        },
        {
          "internalType": "uint256[]",
          "name": "_ticketIds",
          "type": "uint256[]"
        },
        {
          "internalType": "address[]",
          "name": "_accounts",
          "type": "address[]"
        }
      ],
      "name": "sendInvitation",
      "outputs": [],
      "stateMutability": "nonpayable",
      "type": "function"
    },
    {
      "inputs": [
        {
          "internalType": "uint256",
          "name": "_eventId",
          "type": "uint256"
        }
      ],
      "name": "withdrawContractBalance",
      "outputs": [],
      "stateMutability": "nonpayable",
      "type": "function"
    },
    {
      "inputs": [
        {
          "internalType": "uint256",
          "name": "_eventId",
          "type": "uint256"
        },
        {
          "internalType": "uint256",
          "name": "_ticketId",
          "type": "uint256"
        }
      ],
      "name": "withdrawRefund",
      "outputs": [],
      "stateMutability": "nonpayable",
      "type": "function"
    }
  ],
  "bytecode": "0x608060405234801561001057600080fd5b50613ebd806100206000396000f3fe6080604052600436106100915760003560e01c8063b5abe85a11610059578063b5abe85a1461012b578063d90e6dd71461014b578063ddb7d5df1461016b578063e3bccc0f1461018b578063ef71b78a146101c157600080fd5b806328e13a9e146100965780632d3bf559146100b85780634f905e5d146100d85780637ce8b341146100eb578063ab6a8d6a1461010b575b600080fd5b3480156100a257600080fd5b506100b66100b1366004613294565b6101d4565b005b3480156100c457600080fd5b506100b66100d3366004613427565b6107dd565b6100b66100e636600461350a565b610b44565b3480156100f757600080fd5b506100b66101063660046135a5565b610e60565b34801561011757600080fd5b506100b6610126366004613603565b610fb3565b34801561013757600080fd5b506100b661014636600461365e565b6118f4565b34801561015757600080fd5b506100b6610166366004613677565b611bc3565b34801561017757600080fd5b506100b6610186366004613677565b611ec6565b34801561019757600080fd5b506101ab6101a636600461365e565b612074565b6040516101b89190613699565b60405180910390f35b6100b66101cf3660046136dd565b61213e565b600084815260026020908152604091829020548251808401909352601b8352600080516020613c98833981519152918301919091528591906001600160a01b031661023b5760405162461bcd60e51b815260040161023291906137e4565b60405180910390fd5b506102488560003361249e565b80610267575061026785600080516020613d358339815191523361249e565b6040518060600160405280602a8152602001613b98602a91399061029e5760405162461bcd60e51b815260040161023291906137e4565b50835160001415604051806060016040528060258152602001613df560259139906102dc5760405162461bcd60e51b815260040161023291906137e4565b5081518351146040518060400160405280601f8152602001600080516020613d15833981519152815250906103245760405162461bcd60e51b815260040161023291906137e4565b5060008060005b8651811015610557576000600a01600088838151811061034d5761034d6137f7565b602002602001015160000151815260200190815260200160002060000154600014156040518060400160405280601e81526020017f4576656e743a2043617465676f727920646f6573206e6f742065786973740000815250906103c35760405162461bcd60e51b815260040161023291906137e4565b50876000600a0160008984815181106103de576103de6137f7565b60200260200101516000015181526020019081526020016000206007015414604051806060016040528060298152602001613bc260299139906104345760405162461bcd60e51b815260040161023291906137e4565b50868181518110610447576104476137f7565b6020026020010151602001518361045e9190613823565b92506000600a016000888381518110610479576104796137f7565b602002602001015160000151815260200190815260200160002060040154836000600a0160008a85815181106104b1576104b16137f7565b6020026020010151600001518152602001908152602001600020600201805490506104dc9190613823565b1115604051806060016040528060238152602001613e3f60239139906105155760405162461bcd60e51b815260040161023291906137e4565b506000925086818151811061052c5761052c6137f7565b602002602001015160200151826105439190613823565b91508061054f81613836565b91505061032b565b5060008060008060005b8a518110156107905760005b8b828151811061057f5761057f6137f7565b60200260200101516020015181101561077d5760008d8152600c602052604090208b516105c9908d90899081106105b8576105b86137f7565b6020026020010151600001516124d0565b6105ef8d89815181106105de576105de6137f7565b6020026020010151602001516124d0565b60405160200161060092919061384f565b60408051601f198184030181529082905261061a9161387e565b90815260408051918290036020908101832054838301909252601583527422bb32b73a1d10283630b1b29034b9903a30b5b2b760591b9083015260ff16156106755760405162461bcd60e51b815260040161023291906137e4565b5060006001600160a01b03168b8781518110610693576106936137f7565b6020026020010151604001516001600160a01b0316146106d6578a86815181106106bf576106bf6137f7565b6020026020010151604001519350600192506106de565b309350600092505b61075e8d8d84815181106106f4576106f46137f7565b602002602001015160000151878e8a81518110610713576107136137f7565b6020026020010151600001518f8b81518110610731576107316137f7565b6020026020010151602001518f8c8151811061074f5761074f6137f7565b6020026020010151898b6125d8565b610769600187613823565b95508061077581613836565b91505061056d565b508061078881613836565b915050610561565b50604080518c815260208101879052338183015290517f0bf6beb306958fd2b5107d64b133ea297e354c91e8508878a9a4abb9206d82289181900360600190a15050505050505050505050565b600083815260026020908152604091829020548251808401909352601b8352600080516020613c98833981519152918301919091528491906001600160a01b031661083b5760405162461bcd60e51b815260040161023291906137e4565b506108488460003361249e565b80610867575061086784600080516020613d358339815191523361249e565b6040518060600160405280602a8152602001613b98602a91399061089e5760405162461bcd60e51b815260040161023291906137e4565b508251158015906108af5750815115155b604051806060016040528060258152602001613df560259139906108e65760405162461bcd60e51b815260040161023291906137e4565b5081518351146040518060400160405280601f8152602001600080516020613d158339815191528152509061092e5760405162461bcd60e51b815260040161023291906137e4565b5060005b8351811015610b025760115483516001600160a01b03909116906323b872dd903090869085908110610966576109666137f7565b6020026020010151878581518110610980576109806137f7565b60209081029190910101516040516001600160e01b031960e086901b1681526001600160a01b0393841660048201529290911660248301526044820152606401600060405180830381600087803b1580156109da57600080fd5b505af11580156109ee573d6000803e3d6000fd5b505060115486516001600160a01b03909116925063dd4670649150869084908110610a1b57610a1b6137f7565b60200260200101516040518263ffffffff1660e01b8152600401610a4191815260200190565b600060405180830381600087803b158015610a5b57600080fd5b505af1158015610a6f573d6000803e3d6000fd5b5050506000868152600f602052604081208551909250859084908110610a9757610a976137f7565b60200260200101516001600160a01b03166001600160a01b03168152602001908152602001600020848281518110610ad157610ad16137f7565b6020908102919091018101518254600181018455600093845291909220015580610afa81613836565b915050610932565b507fc47e064bd57c3620a43c1e4ac852f9185e9582f40bdd973a20f4c1bf520f38a5848333604051610b369392919061389a565b60405180910390a150505050565b825160001415604051806060016040528060258152602001613df56025913990610b815760405162461bcd60e51b815260040161023291906137e4565b5080518251146040518060400160405280601f8152602001600080516020613d1583398151915281525090610bc95760405162461bcd60e51b815260040161023291906137e4565b50610bd485856127c9565b60008060005b8551811015610c6f5760009150610c0b87878381518110610bfd57610bfd6137f7565b602002602001015184612ac2565b858181518110610c1d57610c1d6137f7565b602002602001015160000151868281518110610c3b57610c3b6137f7565b602002602001015160200151610c519190613906565b610c5b9084613823565b925080610c6781613836565b915050610bda565b50348214604051806060016040528060238152602001613b756023913990610caa5760405162461bcd60e51b815260040161023291906137e4565b506000805b8651811015610e555760005b878281518110610ccd57610ccd6137f7565b602002602001015160000151811015610e425760008a8152600c602052604090208751610d06908990869081106105b8576105b86137f7565b610d1b8986815181106105de576105de6137f7565b604051602001610d2c92919061384f565b60408051601f1981840301815290829052610d469161387e565b90815260408051918290036020908101832054838301909252601583527422bb32b73a1d10283630b1b29034b9903a30b5b2b760591b9083015260ff1615610da15760405162461bcd60e51b815260040161023291906137e4565b50610e238a8a8a8581518110610db957610db96137f7565b6020026020010151602001518a8781518110610dd757610dd76137f7565b6020026020010151600001518b8881518110610df557610df56137f7565b6020026020010151602001518b8981518110610e1357610e136137f7565b60200260200101516000336125d8565b610e2e600184613823565b925080610e3a81613836565b915050610cbb565b5080610e4d81613836565b915050610caf565b505050505050505050565b600082815260026020908152604091829020548251808401909352601b8352600080516020613c98833981519152918301919091528391906001600160a01b0316610ebe5760405162461bcd60e51b815260040161023291906137e4565b50610ecb8360003361249e565b80610eea5750610eea83600080516020613d358339815191523361249e565b6040518060600160405280602a8152602001613b98602a913990610f215760405162461bcd60e51b815260040161023291906137e4565b506000838152600960209081526040808320600401805460018181018355918552938390208651600290950201848155928601519201805460ff841660ff19909116179055517f6acb6edf217693871c0a1b4dc7f139e64435ab88c84cdc94a85daf36cd06849c92610fa692878352602083019190915260ff16604082015260600190565b60405180910390a1505050565b8051600081815260026020908152604091829020548251808401909352601b8352600080516020613c98833981519152918301919091526001600160a01b03166110105760405162461bcd60e51b815260040161023291906137e4565b506020808301516000818152600a8352604090819020548151808301909252601e82527f4576656e743a2043617465676f727920646f6573206e6f74206578697374000093820193909352909161107a5760405162461bcd60e51b815260040161023291906137e4565b5082600001518360200151816000600a0160008381526020019081526020016000206007015414604051806060016040528060298152602001613bc260299139906110d85760405162461bcd60e51b815260040161023291906137e4565b5084602001518560400151806000600d01600084815260200190815260200160002054146040518060600160405280602c8152602001613cb8602c9139906111335760405162461bcd60e51b815260040161023291906137e4565b5086516000908152600960209081526040918290206004015482516060810190935260228084529015159291613dd390830139906111845760405162461bcd60e51b815260040161023291906137e4565b5060008061119a89600001518a60400151612cef565b91509150816040518060400160405280601a81526020017f4576656e743a20526566756e642064617465206973206f766572000000000000815250906111f35760405162461bcd60e51b815260040161023291906137e4565b506040898101805160009081526010602090815283822033835290528281208490556011549151925160248101939093529182916001600160a01b03169060440160408051601f198184030181529181526020820180516001600160e01b03166331a9108f60e11b17905251611269919061387e565b6000604051808303816000865af19150503d80600081146112a6576040519150601f19603f3d011682016040523d82523d6000602084013e6112ab565b606091505b5091509150336001600160a01b0316818060200190518101906112ce919061391d565b6001600160a01b03161480156112e15750815b6040518060400160405280601d8152602001600080516020613db3833981519152815250906113235760405162461bcd60e51b815260040161023291906137e4565b505089516000908152600c6020526040808220601154828e01519251633ee1bcfd60e11b81526004810193909352929350916113bc916001600160a01b0390911690637dc379fa90602401600060405180830381865afa15801561138b573d6000803e3d6000fd5b505050506040513d6000823e601f3d908101601f191682016040526113b39190810190613941565b606001516124d0565b60115460408d8101519051633ee1bcfd60e11b8152600481019190915261143e916001600160a01b031690637dc379fa90602401600060405180830381865afa15801561140d573d6000803e3d6000fd5b505050506040513d6000823e601f3d908101601f191682016040526114359190810190613941565b608001516124d0565b60405160200161144f92919061384f565b60408051601f19818403018152908290526114699161387e565b90815260408051918290036020018220805493151560ff1990941693909317909255601154918b015160248201523360448201523060648201526000916001600160a01b03169060840160408051601f198184030181529181526020820180516001600160e01b031663025ba0e960e61b179052516114e8919061387e565b6000604051808303816000865af19150503d8060008114611525576040519150601f19603f3d011682016040523d82523d6000602084013e61152a565b606091505b50509050806040518060400160405280601d8152602001600080516020613db3833981519152815250906115715760405162461bcd60e51b815260040161023291906137e4565b506000805b6020808d01516000908152600a90915260409020600201548110156115ee578b604001516000600a0160008e60200151815260200190815260200160002060020182815481106115c8576115c86137f7565b9060005260206000200154036115dc578091505b806115e681613836565b915050611576565b506020808c0180516000908152600a90925260408083209151835290912060029081015491019061162190600190613a1a565b81548110611631576116316137f7565b90600052602060002001546000600a0160008d602001518152602001908152602001600020600201828154811061166a5761166a6137f7565b60009182526020808320909101929092558c8201518152600a9091526040902060020180548061169c5761169c613a2d565b6000828152602080822083016000199081018390559092019092558c518252600e8152604080832033845290915281208054600193509091906116e0908490613a1a565b9091555060009050805b8b516000908152600f60209081526040808320338452909152902054811015611765576040808d01518d516000908152600f602090815283822033835290529190912080548390811061173f5761173f6137f7565b906000526020600020015403611753578091505b8061175d81613836565b9150506116ea565b506000600f0160008c6000015181526020019081526020016000206000336001600160a01b03166001600160a01b0316815260200190815260200160002060016000600f0160008e6000015181526020019081526020016000206000336001600160a01b03166001600160a01b03168152602001908152602001600020805490506117f09190613a1a565b81548110611800576118006137f7565b60009182526020808320909101548d518352600f825260408084203385529092529120805483908110611835576118356137f7565b60009182526020808320909101929092558c518152600f825260408082203383529092522080548061186957611869613a2d565b60019003818190600052602060002001600090559055507f87ff245f55dca5f20f12247f39f781d5710eda96984e49512daad7b675e414798a600001518b602001518c60400151336040516118e09493929190938452602084019290925260408301526001600160a01b0316606082015260800190565b60405180910390a150505050505050505050565b600081815260026020908152604091829020548251808401909352601b8352600080516020613c98833981519152918301919091528291906001600160a01b03166119525760405162461bcd60e51b815260040161023291906137e4565b5061197e827fff3317e1e0e8c784290b957ee9b65ea8fe96420c4819db463283b95ecbe4a3fe3361249e565b604051806060016040528060318152602001613c1b60319139906119b55760405162461bcd60e51b815260040161023291906137e4565b506000828152600960205260408120600401548190819081036119eb576000858152600960205260409020600201549250611ade565b60005b600086815260096020526040902060040154811015611adc576000868152600960205260409020600401805482908110611a2a57611a2a6137f7565b9060005260206000209060020201600001544211611aca576000868152600960205260409020600401805482908110611a6557611a656137f7565b600091825260208083206002928302016001015489845260099091526040909220015460ff9091169350611aa390611a9e856064613906565b612eac565b600087815260096020526040902060020154909250611ac3908390613a1a565b9350611adc565b80611ad481613836565b9150506119ee565b505b60008581526009602052604081206002018054859290611aff908490613a1a565b9091555050604051600090339085908381818185875af1925050503d8060008114611b46576040519150601f19603f3d011682016040523d82523d6000602084013e611b4b565b606091505b5050905080604051806060016040528060298152602001613c4c6029913990611b875760405162461bcd60e51b815260040161023291906137e4565b506040518681527feea9f2e0c73d19e23063194ae9ba8512a252b6c0bd44e31315f611c5efaa8f0b9060200160405180910390a1505050505050565b600082815260026020908152604091829020548251808401909352601b8352600080516020613c98833981519152918301919091528391906001600160a01b0316611c215760405162461bcd60e51b815260040161023291906137e4565b50611c2e8360003361249e565b80611c4d5750611c4d83600080516020613d358339815191523361249e565b80611c7e5750611c7e837fb5a7f51d0593e853ad0aa6b718ee0bdd10c4966eb62d243b69d538e5823d04013361249e565b604051806060016040528060388152602001613d7b6038913990611cb55760405162461bcd60e51b815260040161023291906137e4565b5042611cc084612f29565b6001600160401b031611158015611ce8575042611cdc84612faf565b6001600160401b031610155b604051806060016040528060258152602001613e1a6025913990611d1f5760405162461bcd60e51b815260040161023291906137e4565b50601154604051600091600191606091849182916001600160a01b031690611d519030908a9088908890602401613a43565b60408051601f198184030181529181526020820180516001600160e01b0316631e27140560e01b17905251611d86919061387e565b6000604051808303816000865af19150503d8060008114611dc3576040519150601f19603f3d011682016040523d82523d6000602084013e611dc8565b606091505b5091509150816040518060400160405280601d8152602001600080516020613db383398151915281525090611e105760405162461bcd60e51b815260040161023291906137e4565b5080806020019051810190611e259190613a7a565b9450846040518060400160405280601881526020017f4576656e743a20436c6970207469636b6574206572726f72000000000000000081525090611e7c5760405162461bcd60e51b815260040161023291906137e4565b506040805189815260208101899052338183015290517f73b94823b249d530a2b7223a82b4ae3a07a452eb37749ebe162f8bba7fb01f559181900360600190a15050505050505050565b600082815260026020908152604091829020548251808401909352601b8352600080516020613c98833981519152918301919091528391906001600160a01b0316611f245760405162461bcd60e51b815260040161023291906137e4565b506000838152600960209081526040918290206004015482516060810190935260228084529015159291613dd39083013990611f735760405162461bcd60e51b815260040161023291906137e4565b50600082815260106020908152604080832033845282528083205486845260099092528220600201805491928392611fac908490613a1a565b9091555050604051600090339083908381818185875af1925050503d8060008114611ff3576040519150601f19603f3d011682016040523d82523d6000602084013e611ff8565b606091505b5050905080604051806060016040528060238152602001613c7560239139906120345760405162461bcd60e51b815260040161023291906137e4565b50604080518581523360208201527fa454a872564530477ec0ade23bb2eadb5f61aeb76fb1f727d3f6c3a770f83da4910160405180910390a15050505050565b600081815260026020908152604091829020548251808401909352601b8352600080516020613c988339815191529183019190915260609183916001600160a01b03166120d45760405162461bcd60e51b815260040161023291906137e4565b506000838152600f602090815260408083203384528252918290208054835181840281018401909452808452909183018282801561213157602002820191906000526020600020905b81548152602001906001019080831161211d575b5050505050915050919050565b82518451146040518060400160405280601f8152602001600080516020613d15833981519152815250906121855760405162461bcd60e51b815260040161023291906137e4565b5080518251146040518060400160405280601f8152602001600080516020613d15833981519152815250906121cd5760405162461bcd60e51b815260040161023291906137e4565b5060008060005b85518110156122bc576122218782815181106121f2576121f26137f7565b602002602001015160000151888381518110612210576122106137f7565b6020026020010151602001516127c9565b6000915061225887828151811061223a5761223a6137f7565b602002602001015160200151878381518110610bfd57610bfd6137f7565b85818151811061226a5761226a6137f7565b602002602001015160000151868281518110612288576122886137f7565b60200260200101516020015161229e9190613906565b6122a89084613823565b9250806122b481613836565b9150506121d4565b50348214604051806060016040528060238152602001613b7560239139906122f75760405162461bcd60e51b815260040161023291906137e4565b506000805b87518110156124945760005b87828151811061231a5761231a6137f7565b602002602001015160000151811015612481576000600c0160008a8481518110612346576123466137f7565b60200260200101516000015181526020019081526020016000206123758885815181106105b8576105b86137f7565b61238a8986815181106105de576105de6137f7565b60405160200161239b92919061384f565b60408051601f19818403018152908290526123b59161387e565b90815260408051918290036020908101832054838301909252601583527422bb32b73a1d10283630b1b29034b9903a30b5b2b760591b9083015260ff16156124105760405162461bcd60e51b815260040161023291906137e4565b50612462898381518110612426576124266137f7565b6020026020010151600001518a8481518110612444576124446137f7565b6020026020010151602001518a8581518110610db957610db96137f7565b61246d600184613823565b92508061247981613836565b915050612308565b508061248c81613836565b9150506122fc565b5050505050505050565b60009283526012602090815260408085209385529281528284206001600160a01b039290921684525290205460ff1690565b6060816000036124f75750506040805180820190915260018152600360fc1b602082015290565b8160005b8115612521578061250b81613836565b915061251a9050600a83613ab2565b91506124fb565b6000816001600160401b0381111561253b5761253b61303d565b6040519080825280601f01601f191660200182016040528015612565576020820181803683370190505b5090505b84156125d05761257a600183613a1a565b9150612587600a86613ac6565b612592906030613823565b60f81b8183815181106125a7576125a76137f7565b60200101906001600160f81b031916908160001a9053506125c9600a86613ab2565b9450612569565b949350505050565b600088815260096020526040812060020180548892906125f9908490613823565b9091555050601154604051639b69ff0960e01b81526000916001600160a01b031690639b69ff099061263d908c908c908c908c908c908c908c908c90600401613ada565b6020604051808303816000875af115801561265c573d6000803e3d6000fd5b505050506040513d601f19601f820116820180604052508101906126809190613b32565b6000898152600a6020908152604082206002018054600181018255908352908220018290559091506126b1876124d0565b6126ba876124d0565b6040516020016126cb92919061384f565b60408051601f1981840301815282825260008d8152600c602052919091209092506001916126fa90849061387e565b9081526040805160209281900383019020805460ff19169315159390931790925560008b8152600d82528281208590558c8152600e82528281206001600160a01b0387168252909152908120805460019290612757908490613823565b909155505060008a8152600f602090815260408083206001600160a01b0387168085529083528184208054600181018255908552938390209093018590558051858152918201929092527f6606e4c8a88792ed4fd5159f9be235ca78e87fc1cbdc6158ea92d3ed3be9bf7291016118e0565b6000828152600260205260409020546001600160a01b031615156040518060400160405280601b8152602001600080516020613c98833981519152815250906128255760405162461bcd60e51b815260040161023291906137e4565b506000818152600a6020908152604091829020548251808401909352601e83527f4576656e743a2043617465676f727920646f6573206e6f7420657869737400009183019190915261288a5760405162461bcd60e51b815260040161023291906137e4565b50816000600a0160008381526020019081526020016000206007015414604051806060016040528060298152602001613bc260299139906128de5760405162461bcd60e51b815260040161023291906137e4565b5060008281526009602090815260409182902060030154825160608101909352603180845260ff90911615156001149291613ce490830139906129345760405162461bcd60e51b815260040161023291906137e4565b506000818152600a6020908152604091829020600c0154825160608101909352603080845260ff90911615156001149291613beb908301399061298a5760405162461bcd60e51b815260040161023291906137e4565b504261299583612f29565b6001600160401b0316111580156129bd5750426129b183612faf565b6001600160401b031610155b604051806060016040528060268152602001613e6260269139906129f45760405162461bcd60e51b815260040161023291906137e4565b506000818152600a60205260409020600501544210801590612a2757506000818152600a60205260409020600601544211155b604051806060016040528060298152602001613b4c6029913990612a5e5760405162461bcd60e51b815260040161023291906137e4565b50600082815260096020908152604080832060010154600e83528184203385528352928190205481516060810190925260268083529311929091613d559083013990612abd5760405162461bcd60e51b815260040161023291906137e4565b505050565b8151612ace9082613823565b6000848152600a60205260409020600481015460029091015491925090612af6908390613823565b1115604051806060016040528060238152602001613e3f6023913990612b2f5760405162461bcd60e51b815260040161023291906137e4565b506000838152600a602052604090206008015415612c875760005b6000848152600a6020526040902060080154811015612c815782516000858152600a60205260409020600801805483908110612b8857612b886137f7565b906000526020600020015403612c6f576000848152600a60205260408120600901805483908110612bbb57612bbb6137f7565b90600052602060002001546064612bd29190613906565b6000868152600a602052604081206003015491925090612bf29083612eac565b6020808701516000898152600a90925260409091206003015491925090612c1a908390613a1a565b14604051806040016040528060198152602001784576656e743a2057726f6e67207469636b657420707269636560381b81525090612c6b5760405162461bcd60e51b815260040161023291906137e4565b5050505b80612c7981613836565b915050612b4a565b50505050565b6020808301516000858152600a835260409081902060030154815180830190925260198252784576656e743a2057726f6e67207469636b657420707269636560381b938201939093529114612c815760405162461bcd60e51b815260040161023291906137e4565b60008060008060005b600087815260096020526040902060040154811015612ea1576000878152600960205260409020600401805482908110612d3457612d346137f7565b9060005260206000209060020201600001544211612e8f5760115460008881526009602052604081206004018054919283926001600160a01b03909116918a9186908110612d8457612d846137f7565b6000918252602090912060029091020160010154604051602481019290925260ff16604482015260640160408051601f198184030181529181526020820180516001600160e01b03166375c8c9bd60e11b17905251612de3919061387e565b6000604051808303816000865af19150503d8060008114612e20576040519150601f19603f3d011682016040523d82523d6000602084013e612e25565b606091505b5091509150816040518060400160405280601d8152602001600080516020613db383398151915281525090612e6d5760405162461bcd60e51b815260040161023291906137e4565b506001935080806020019051810190612e869190613b32565b94505050612ea1565b80612e9981613836565b915050612cf8565b509590945092505050565b6000612710612ebb8385613906565b1015612f095760405162461bcd60e51b815260206004820152601760248201527f50657263656e746167653a20526f756e647320746f20300000000000000000006044820152606401610232565b612710612f168385613906565b612f209190613ab2565b90505b92915050565b60008181526002602052604081205481906001600160a01b0316612f8a5760405162461bcd60e51b8152602060048201526018602482015277115490cd4c0c0dce88125b9d985b1a59081d1bdad95b925960421b6044820152606401610232565b600092835260090160205250604090206003015461010090046001600160401b031690565b60008181526002602052604081205481906001600160a01b03166130105760405162461bcd60e51b8152602060048201526018602482015277115490cd4c0c0dce88125b9d985b1a59081d1bdad95b925960421b6044820152606401610232565b6000928352600901602052506040902060030154690100000000000000000090046001600160401b031690565b634e487b7160e01b600052604160045260246000fd5b604080519081016001600160401b03811182821017156130755761307561303d565b60405290565b604051606081016001600160401b03811182821017156130755761307561303d565b60405160c081016001600160401b03811182821017156130755761307561303d565b604051601f8201601f191681016001600160401b03811182821017156130e7576130e761303d565b604052919050565b60006001600160401b038211156131085761310861303d565b5060051b60200190565b6000613125613120846130ef565b6130bf565b8381529050602080820190600685901b84018681111561314457600080fd5b845b81811015613181576040818903121561315f5760008081fd5b613167613053565b813581528382013584820152845292820192604001613146565b505050509392505050565b6001600160a01b03811681146131a157600080fd5b50565b60006001600160401b038211156131bd576131bd61303d565b50601f01601f191660200190565b600082601f8301126131dc57600080fd5b813560206131ec613120836130ef565b82815260059290921b8401810191818101908684111561320b57600080fd5b8286015b848110156132895780356001600160401b0381111561322e5760008081fd5b8701603f810189136132405760008081fd5b848101356040613252613120836131a4565b8281528b828486010111156132675760008081fd5b828285018983013760009281018801929092525084525091830191830161320f565b509695505050505050565b600080600080608085870312156132aa57600080fd5b843593506020808601356001600160401b03808211156132c957600080fd5b818801915088601f8301126132dd57600080fd5b6132eb898335858501613112565b955060409150818801358181111561330257600080fd5b8801601f81018a1361331357600080fd5b8035613321613120826130ef565b8181526060918202830186019186820191908d84111561334057600080fd5b938701935b838510156133915780858f03121561335d5760008081fd5b61336561307b565b8535815288860135898201528786013561337e8161318c565b8189015283529384019391870191613345565b9098508b01359550505050808311156133a957600080fd5b50506133b7878288016131cb565b91505092959194509250565b600082601f8301126133d457600080fd5b813560206133e4613120836130ef565b82815260059290921b8401810191818101908684111561340357600080fd5b8286015b8481101561328957803561341a8161318c565b8352918301918301613407565b60008060006060848603121561343c57600080fd5b833592506020808501356001600160401b038082111561345b57600080fd5b818701915087601f83011261346f57600080fd5b813561347d613120826130ef565b81815260059190911b8301840190848101908a83111561349c57600080fd5b938501935b828510156134ba578435825293850193908501906134a1565b9650505060408701359250808311156134d257600080fd5b50506134e0868287016133c3565b9150509250925092565b600082601f8301126134fb57600080fd5b612f2083833560208501613112565b600080600080600060a0868803121561352257600080fd5b853594506020860135935060408601356001600160401b038082111561354757600080fd5b61355389838a016134ea565b9450606088013591508082111561356957600080fd5b61357589838a016134ea565b9350608088013591508082111561358b57600080fd5b50613598888289016131cb565b9150509295509295909350565b60008082840360608112156135b957600080fd5b833592506040601f19820112156135cf57600080fd5b506135d8613053565b60208401358152604084013560ff811681146135f357600080fd5b6020820152919491935090915050565b60006060828403121561361557600080fd5b604051606081018181106001600160401b03821117156136375761363761303d565b80604052508235815260208301356020820152604083013560408201528091505092915050565b60006020828403121561367057600080fd5b5035919050565b6000806040838503121561368a57600080fd5b50508035926020909101359150565b6020808252825182820181905260009190848201906040850190845b818110156136d1578351835292840192918401916001016136b5565b50909695505050505050565b600080600080608085870312156136f357600080fd5b84356001600160401b038082111561370a57600080fd5b818701915087601f83011261371e57600080fd5b61372d88833560208501613112565b9550602087013591508082111561374357600080fd5b61374f888389016134ea565b9450604087013591508082111561376557600080fd5b613771888389016134ea565b9350606087013591508082111561378757600080fd5b506133b7878288016131cb565b60005b838110156137af578181015183820152602001613797565b50506000910152565b600081518084526137d0816020860160208601613794565b601f01601f19169290920160200192915050565b602081526000612f2060208301846137b8565b634e487b7160e01b600052603260045260246000fd5b634e487b7160e01b600052601160045260246000fd5b80820180821115612f2357612f2361380d565b6000600182016138485761384861380d565b5060010190565b60008351613861818460208801613794565b835190830190613875818360208801613794565b01949350505050565b60008251613890818460208701613794565b9190910192915050565b6000606082018583526020606081850152818651808452608086019150828801935060005b818110156138e45784516001600160a01b0316835293830193918301916001016138bf565b50506001600160a01b0395909516604094909401939093525091949350505050565b8082028115828204841417612f2357612f2361380d565b60006020828403121561392f57600080fd5b815161393a8161318c565b9392505050565b6000602080838503121561395457600080fd5b82516001600160401b038082111561396b57600080fd5b9084019060c0828703121561397f57600080fd5b61398761309d565b82518152838301518482015260408301516040820152606083015160608201526080830151608082015260a0830151828111156139c357600080fd5b80840193505086601f8401126139d857600080fd5b825191506139e8613120836131a4565b82815287858486010111156139fc57600080fd5b613a0b83868301878701613794565b60a08201529695505050505050565b81810381811115612f2357612f2361380d565b634e487b7160e01b600052603160045260246000fd5b60018060a01b0385168152836020820152826040820152608060608201526000613a7060808301846137b8565b9695505050505050565b600060208284031215613a8c57600080fd5b8151801515811461393a57600080fd5b634e487b7160e01b600052601260045260246000fd5b600082613ac157613ac1613a9c565b500490565b600082613ad557613ad5613a9c565b500690565b60006101008a83528960208401528860408401528760608401528660808401528060a0840152613b0c818401876137b8565b94151560c084015250506001600160a01b039190911660e0909101529695505050505050565b600060208284031215613b4457600080fd5b505191905056fe4576656e743a2043616e277420627579207469636b65747320666f722063617465676f7279207965744576656e743a204d73672076616c7565206e6f7420657120746f74616c2070726963654576656e743a2043616c6c6572206973206e6f7420616e2061646d696e206f72206d6f64657261746f724576656e743a20546869732063617465676f727920697320666f7220616e6f74686572206576656e744576656e743a205469636b65747320666f7220746869732063617465676f727920617265206e6f742062757961626c654576656e743a204f6e6c7920636173686965722063616e20776974686472617720636f6e74726163742062616c616e63654576656e743a20436f6e74726163742062616c616e63652077697468647261772072657665727465644576656e743a2041636320726566756e642077697468647261772072657665727465644576656e743a204576656e7420646f6573206e6f7420657869737400000000004576656e743a205469636b657420646f65736e277420657869737420696e20746869732063617465676f72794576656e743a205469636b65747320666f7220616c6c2063617465676f7269657320617265206e6f742062757961626c654576656e743a20506172616d6574657273206c656e677468206e6f742065710071f3d55856e4058ed06ee057d79ada615f65cdf5f9ee88181b914225088f834f4576656e743a204d6178207469636b65747320666f72206163636f756e7420726561636865644576656e743a2043616c6c6572206973206e6f7420616e2061646d696e2c206d6f64657261746f72206f7220726563657074696f6e6973744576656e743a20436f6e74726163742063616c6c2072657665727465640000004576656e743a2043616e277420726566756e6420666f722074686973206576656e744576656e743a20506172616d657465722061727261792063616e277420626520656d7074794576656e743a2057726f6e67206461746520666f72207469636b657420636c697070696e674576656e743a204d6178207469636b65747320636f756e7420697320726561636865644576656e743a2043616e277420627579207469636b65747320666f72206576656e7420796574a26469706673582212200048429cf6cd011dbe40d609c7c5a13d541a55e919dfa81e26c1c317edbc211364736f6c63430008110033",
  "linkReferences": {},
  "deployedLinkReferences": {}
}