{
  "_format": "hh-sol-artifact-1",
  "contractName": "TicketMarketplaceFacet",
  "sourceName": "contracts/TicketDiamond/facets/TicketMarketplaceFacet.sol",
  "abi": [
    {
      "inputs": [],
      "name": "ApprovalCallerNotOwnerNorApproved",
      "type": "error"
    },
    {
      "inputs": [],
      "name": "OwnerQueryForNonexistentToken",
      "type": "error"
    },
    {
      "inputs": [],
      "name": "TransferCallerNotOwnerNorApproved",
      "type": "error"
    },
    {
      "inputs": [],
      "name": "TransferFromIncorrectOwner",
      "type": "error"
    },
    {
      "inputs": [],
      "name": "TransferToZeroAddress",
      "type": "error"
    },
    {
      "inputs": [
        {
          "internalType": "uint256",
          "name": "_ticketId",
          "type": "uint256"
        }
      ],
      "name": "buyListedTicket",
      "outputs": [],
      "stateMutability": "payable",
      "type": "function"
    },
    {
      "inputs": [
        {
          "internalType": "uint256",
          "name": "_ticketId",
          "type": "uint256"
        }
      ],
      "name": "cancelListedTicket",
      "outputs": [],
      "stateMutability": "nonpayable",
      "type": "function"
    },
    {
      "inputs": [
        {
          "internalType": "uint256",
          "name": "_ticketId",
          "type": "uint256"
        },
        {
          "internalType": "uint256",
          "name": "_ticketPrice",
          "type": "uint256"
        }
      ],
      "name": "listTicket",
      "outputs": [],
      "stateMutability": "nonpayable",
      "type": "function"
    },
    {
      "inputs": [
        {
          "internalType": "uint256",
          "name": "_ticketId",
          "type": "uint256"
        },
        {
          "internalType": "uint256",
          "name": "_ticketPrice",
          "type": "uint256"
        }
      ],
      "name": "updateListedTicketPrice",
      "outputs": [],
      "stateMutability": "nonpayable",
      "type": "function"
    }
  ],
  "bytecode": "0x608060405234801561001057600080fd5b50610aac806100206000396000f3fe60806040526004361061003f5760003560e01c8063113ec8ae146100445780632c8647bd14610066578063305a905a1461008657806350248853146100a6575b600080fd5b34801561005057600080fd5b5061006461005f36600461091f565b6100b9565b005b34801561007257600080fd5b50610064610081366004610938565b6101da565b34801561009257600080fd5b506100646100a1366004610938565b61033b565b6100646100b436600461091f565b61046d565b336100c3826105ce565b6001600160a01b0316146040518060400160405280601881526020017722a9219a9a981b9d102737ba103a37b5b2b71037bbb732b960411b815250906101255760405162461bcd60e51b815260040161011c919061095a565b60405180910390fd5b506000818152600c6020908152604091829020600190810154835160608101909452602780855260ff90911615159091149291610a09908301399061017d5760405162461bcd60e51b815260040161011c919061095a565b506000818152600c60205260408120818155600101805460ff191690556101a490826105df565b6040518181527f017161c54123c503d82ef27b5a107eb08d6bd34a2025d2fff1316226aaf0c1b49060200160405180910390a150565b336101e4836105ce565b6001600160a01b0316146040518060400160405280601881526020017722a9219a9a981b9d102737ba103a37b5b2b71037bbb732b960411b8152509061023d5760405162461bcd60e51b815260040161011c919061095a565b508060006008016000848152602001908152602001600020600201541015604051806080016040528060478152602001610a3060479139906102925760405162461bcd60e51b815260040161011c919061095a565b506000828152600c6020908152604091829020600190810154835160608101909452602780855260ff90911615159091149291610a0990830139906102ea5760405162461bcd60e51b815260040161011c919061095a565b506000828152600c602090815260409182902083905581518481529081018390527fb9aa504de20e2eac6c783af60a3a473bbd760acabd42aa44d669f257f558d6c291015b60405180910390a15050565b33610345836105ce565b6001600160a01b0316146040518060400160405280601881526020017722a9219a9a981b9d102737ba103a37b5b2b71037bbb732b960411b8152509061039e5760405162461bcd60e51b815260040161011c919061095a565b508060006008016000848152602001908152602001600020600201541015604051806080016040528060478152602001610a3060479139906103f35760405162461bcd60e51b815260040161011c919061095a565b50604080518082018252828152600160208083018281526000878152600c9092529390209151825591519101805460ff191691151591909117905561043830836105df565b604080518381523360208201527fde87e46b75e487b146137b14d5b7fdc6d99eee53d22d99767df1c59142122fa0910161032f565b6000818152600c6020908152604091829020825180840184528154815260019182015460ff16151581840181905284516060810190955260278086529194921492610a0990830139906104d35760405162461bcd60e51b815260040161011c919061095a565b50348160000151146040518060600160405280603881526020016109d160389139906105125760405162461bcd60e51b815260040161011c919061095a565b50600061051e836105ce565b9050336001600160a01b0316816001600160a01b031614156040518060600160405280602881526020016109a9602891399061056d5760405162461bcd60e51b815260040161011c919061095a565b506105793033856106d1565b81516040805185815260208101929092526001600160a01b03831682820152336060830152517fbf1d45c8c2ec741a183ccfaf85eb8600c796a3a39ccf2a6182912a08e67a2e819181900360800190a1505050565b60006105d9826108ac565b92915050565b60008181526009602052604081205460ff161561063e5760405162461bcd60e51b815260206004820152601c60248201527f455243353139323a205469636b657420697320736f756c626f756e6400000000604482015260640161011c565b6000610649836105ce565b9050336001600160a01b038216146106a1576001600160a01b0381166000908152600783016020908152604080832033845290915290205460ff166106a1576040516367d9dca160e11b815260040160405180910390fd5b5060009182526006016020526040902080546001600160a01b0319166001600160a01b0392909216919091179055565b60008181526009602052604081205460ff16156107305760405162461bcd60e51b815260206004820152601c60248201527f455243353139323a205469636b657420697320736f756c626f756e6400000000604482015260640161011c565b600061073b836108ac565b9050846001600160a01b0316816001600160a01b03161461076e5760405162a1148160e81b815260040160405180910390fd5b60008381526006602052604090208054338082146001600160a01b038916909114176107d8576001600160a01b038716600090815260076020908152604080832033845290915290205460ff166107d857604051632ce44b5f60e11b815260040160405180910390fd5b6001600160a01b0386166107ff57604051633a954ecd60e21b815260040160405180910390fd5b801561080a57600082555b6001600160a01b0387811660009081526005860160205260408082208054600019019055918816808252919020805460010190554260a01b17600160e11b176000868152600486016020526040812091909155600160e11b841690036108a35760018501600081815260048601602052604081205490036108a157845481146108a157600081815260048601602052604090208490555b505b50505050505050565b60008082815481101561090657600081815260048301602052604081205490600160e01b82169003610904575b806000036108fc57506000190160008181526004830160205260409020546108d9565b949350505050565b505b604051636f96cda160e11b815260040160405180910390fd5b60006020828403121561093157600080fd5b5035919050565b6000806040838503121561094b57600080fd5b50508035926020909101359150565b600060208083528351808285015260005b818110156109875785810183015185820160400152820161096b565b506000604082860101526040601f19601f830116850101925050509291505056fe5469636b65744d61726b6574706c6163653a2043616e277420627579206f776e207469636b6574735469636b65744d61726b6574706c6163653a2050726963652073656e7420616e64207469636b6574207072696365206e6f74206d617463685469636b65744d61726b6574706c6163653a205469636b6574206973206e6f74206c69737465645469636b65744d61726b6574706c6163653a205469636b65742070726963652063616e277420626520686967686572207468616e20746865206f726967696e616c207072696365a2646970667358221220490ddedf4bc24738504a476b698b0c164195c494b723a7a56b121f1374c6bc8364736f6c63430008110033",
  "linkReferences": {},
  "deployedLinkReferences": {}
}