{
  "_format": "hh-sol-artifact-1",
  "contractName": "TicketFacet",
  "sourceName": "contracts/TicketDiamond/facets/TicketFacet.sol",
  "abi": [
    {
      "inputs": [],
      "name": "ApprovalCallerNotOwnerNorApproved",
      "type": "error"
    },
    {
      "inputs": [],
      "name": "ApprovalQueryForNonexistentToken",
      "type": "error"
    },
    {
      "inputs": [],
      "name": "BalanceQueryForZeroAddress",
      "type": "error"
    },
    {
      "inputs": [],
      "name": "MintERC2309QuantityExceedsLimit",
      "type": "error"
    },
    {
      "inputs": [],
      "name": "MintToZeroAddress",
      "type": "error"
    },
    {
      "inputs": [],
      "name": "MintZeroQuantity",
      "type": "error"
    },
    {
      "inputs": [],
      "name": "OwnerQueryForNonexistentToken",
      "type": "error"
    },
    {
      "inputs": [],
      "name": "OwnershipNotInitializedForExtraData",
      "type": "error"
    },
    {
      "inputs": [],
      "name": "TransferCallerNotOwnerNorApproved",
      "type": "error"
    },
    {
      "inputs": [],
      "name": "TransferFromIncorrectOwner",
      "type": "error"
    },
    {
      "inputs": [],
      "name": "TransferToNonERC721ReceiverImplementer",
      "type": "error"
    },
    {
      "inputs": [],
      "name": "TransferToZeroAddress",
      "type": "error"
    },
    {
      "inputs": [],
      "name": "URIQueryForNonexistentToken",
      "type": "error"
    },
    {
      "anonymous": false,
      "inputs": [
        {
          "indexed": true,
          "internalType": "address",
          "name": "owner",
          "type": "address"
        },
        {
          "indexed": true,
          "internalType": "address",
          "name": "approved",
          "type": "address"
        },
        {
          "indexed": true,
          "internalType": "uint256",
          "name": "tokenId",
          "type": "uint256"
        }
      ],
      "name": "Approval",
      "type": "event"
    },
    {
      "anonymous": false,
      "inputs": [
        {
          "indexed": true,
          "internalType": "address",
          "name": "owner",
          "type": "address"
        },
        {
          "indexed": true,
          "internalType": "address",
          "name": "operator",
          "type": "address"
        },
        {
          "indexed": false,
          "internalType": "bool",
          "name": "approved",
          "type": "bool"
        }
      ],
      "name": "ApprovalForAll",
      "type": "event"
    },
    {
      "anonymous": false,
      "inputs": [
        {
          "indexed": true,
          "internalType": "uint256",
          "name": "fromTokenId",
          "type": "uint256"
        },
        {
          "indexed": false,
          "internalType": "uint256",
          "name": "toTokenId",
          "type": "uint256"
        },
        {
          "indexed": true,
          "internalType": "address",
          "name": "from",
          "type": "address"
        },
        {
          "indexed": true,
          "internalType": "address",
          "name": "to",
          "type": "address"
        }
      ],
      "name": "ConsecutiveTransfer",
      "type": "event"
    },
    {
      "anonymous": false,
      "inputs": [
        {
          "indexed": false,
          "internalType": "uint256",
          "name": "tokenId",
          "type": "uint256"
        }
      ],
      "name": "Locked",
      "type": "event"
    },
    {
      "anonymous": false,
      "inputs": [
        {
          "indexed": true,
          "internalType": "address",
          "name": "consumer",
          "type": "address"
        },
        {
          "indexed": true,
          "internalType": "uint256",
          "name": "assetId",
          "type": "uint256"
        },
        {
          "indexed": false,
          "internalType": "uint256",
          "name": "amount",
          "type": "uint256"
        },
        {
          "indexed": false,
          "internalType": "bytes",
          "name": "data",
          "type": "bytes"
        }
      ],
      "name": "OnConsumption",
      "type": "event"
    },
    {
      "anonymous": false,
      "inputs": [
        {
          "indexed": true,
          "internalType": "address",
          "name": "_sender",
          "type": "address"
        },
        {
          "indexed": true,
          "internalType": "uint256",
          "name": "_tokenId",
          "type": "uint256"
        }
      ],
      "name": "Refund",
      "type": "event"
    },
    {
      "anonymous": false,
      "inputs": [
        {
          "indexed": true,
          "internalType": "address",
          "name": "from",
          "type": "address"
        },
        {
          "indexed": true,
          "internalType": "address",
          "name": "to",
          "type": "address"
        },
        {
          "indexed": true,
          "internalType": "uint256",
          "name": "tokenId",
          "type": "uint256"
        }
      ],
      "name": "Transfer",
      "type": "event"
    },
    {
      "anonymous": false,
      "inputs": [
        {
          "indexed": false,
          "internalType": "uint256",
          "name": "tokenId",
          "type": "uint256"
        }
      ],
      "name": "Unlocked",
      "type": "event"
    },
    {
      "inputs": [
        {
          "internalType": "address",
          "name": "to",
          "type": "address"
        },
        {
          "internalType": "uint256",
          "name": "tokenId",
          "type": "uint256"
        }
      ],
      "name": "approve",
      "outputs": [],
      "stateMutability": "payable",
      "type": "function"
    },
    {
      "inputs": [
        {
          "internalType": "address",
          "name": "owner",
          "type": "address"
        }
      ],
      "name": "balanceOf",
      "outputs": [
        {
          "internalType": "uint256",
          "name": "",
          "type": "uint256"
        }
      ],
      "stateMutability": "view",
      "type": "function"
    },
    {
      "inputs": [
        {
          "internalType": "uint256",
          "name": "_ticketId",
          "type": "uint256"
        }
      ],
      "name": "burnTicket",
      "outputs": [],
      "stateMutability": "nonpayable",
      "type": "function"
    },
    {
      "inputs": [
        {
          "internalType": "address",
          "name": "_consumer",
          "type": "address"
        },
        {
          "internalType": "uint256",
          "name": "_assetId",
          "type": "uint256"
        },
        {
          "internalType": "uint256",
          "name": "_amount",
          "type": "uint256"
        },
        {
          "internalType": "bytes",
          "name": "_data",
          "type": "bytes"
        }
      ],
      "name": "consume",
      "outputs": [
        {
          "internalType": "bool",
          "name": "_success",
          "type": "bool"
        }
      ],
      "stateMutability": "nonpayable",
      "type": "function"
    },
    {
      "inputs": [
        {
          "internalType": "uint256",
          "name": "tokenId",
          "type": "uint256"
        }
      ],
      "name": "getApproved",
      "outputs": [
        {
          "internalType": "address",
          "name": "",
          "type": "address"
        }
      ],
      "stateMutability": "view",
      "type": "function"
    },
    {
      "inputs": [
        {
          "internalType": "uint256",
          "name": "_ticketId",
          "type": "uint256"
        }
      ],
      "name": "getTicket",
      "outputs": [
        {
          "components": [
            {
              "internalType": "uint256",
              "name": "eventId",
              "type": "uint256"
            },
            {
              "internalType": "uint256",
              "name": "categoryId",
              "type": "uint256"
            },
            {
              "internalType": "uint256",
              "name": "price",
              "type": "uint256"
            },
            {
              "internalType": "uint256",
              "name": "row",
              "type": "uint256"
            },
            {
              "internalType": "uint256",
              "name": "seat",
              "type": "uint256"
            },
            {
              "internalType": "string",
              "name": "tokenUri",
              "type": "string"
            }
          ],
          "internalType": "struct ITicket.Ticket",
          "name": "",
          "type": "tuple"
        }
      ],
      "stateMutability": "view",
      "type": "function"
    },
    {
      "inputs": [
        {
          "internalType": "address",
          "name": "owner",
          "type": "address"
        },
        {
          "internalType": "address",
          "name": "operator",
          "type": "address"
        }
      ],
      "name": "isApprovedForAll",
      "outputs": [
        {
          "internalType": "bool",
          "name": "",
          "type": "bool"
        }
      ],
      "stateMutability": "view",
      "type": "function"
    },
    {
      "inputs": [
        {
          "internalType": "address",
          "name": "_consumer",
          "type": "address"
        },
        {
          "internalType": "uint256",
          "name": "_assetId",
          "type": "uint256"
        },
        {
          "internalType": "uint256",
          "name": "_amount",
          "type": "uint256"
        }
      ],
      "name": "isConsumableBy",
      "outputs": [
        {
          "internalType": "bool",
          "name": "_consumable",
          "type": "bool"
        }
      ],
      "stateMutability": "view",
      "type": "function"
    },
    {
      "inputs": [
        {
          "internalType": "uint256",
          "name": "_ticketId",
          "type": "uint256"
        }
      ],
      "name": "lock",
      "outputs": [],
      "stateMutability": "nonpayable",
      "type": "function"
    },
    {
      "inputs": [
        {
          "internalType": "uint256",
          "name": "tokenId",
          "type": "uint256"
        }
      ],
      "name": "locked",
      "outputs": [
        {
          "internalType": "bool",
          "name": "",
          "type": "bool"
        }
      ],
      "stateMutability": "view",
      "type": "function"
    },
    {
      "inputs": [
        {
          "internalType": "uint256",
          "name": "_eventId",
          "type": "uint256"
        },
        {
          "internalType": "uint256",
          "name": "_categoryId",
          "type": "uint256"
        },
        {
          "internalType": "uint256",
          "name": "_price",
          "type": "uint256"
        },
        {
          "internalType": "uint256",
          "name": "_row",
          "type": "uint256"
        },
        {
          "internalType": "uint256",
          "name": "_seat",
          "type": "uint256"
        },
        {
          "internalType": "string",
          "name": "_ticketMetadataURI",
          "type": "string"
        },
        {
          "internalType": "bool",
          "name": "_soulbound",
          "type": "bool"
        },
        {
          "internalType": "address",
          "name": "_to",
          "type": "address"
        }
      ],
      "name": "mintTicket",
      "outputs": [
        {
          "internalType": "uint256",
          "name": "",
          "type": "uint256"
        }
      ],
      "stateMutability": "nonpayable",
      "type": "function"
    },
    {
      "inputs": [],
      "name": "name",
      "outputs": [
        {
          "internalType": "string",
          "name": "",
          "type": "string"
        }
      ],
      "stateMutability": "view",
      "type": "function"
    },
    {
      "inputs": [
        {
          "internalType": "uint256",
          "name": "tokenId",
          "type": "uint256"
        }
      ],
      "name": "ownerOf",
      "outputs": [
        {
          "internalType": "address",
          "name": "",
          "type": "address"
        }
      ],
      "stateMutability": "view",
      "type": "function"
    },
    {
      "inputs": [
        {
          "internalType": "uint256",
          "name": "tokenId",
          "type": "uint256"
        },
        {
          "internalType": "address",
          "name": "_from",
          "type": "address"
        },
        {
          "internalType": "address",
          "name": "_to",
          "type": "address"
        }
      ],
      "name": "refund",
      "outputs": [],
      "stateMutability": "nonpayable",
      "type": "function"
    },
    {
      "inputs": [
        {
          "internalType": "uint256",
          "name": "tokenId",
          "type": "uint256"
        }
      ],
      "name": "refundDeadlineOf",
      "outputs": [
        {
          "internalType": "uint256",
          "name": "",
          "type": "uint256"
        }
      ],
      "stateMutability": "pure",
      "type": "function"
    },
    {
      "inputs": [
        {
          "internalType": "uint256",
          "name": "tokenId",
          "type": "uint256"
        },
        {
          "internalType": "uint8",
          "name": "percentage",
          "type": "uint8"
        }
      ],
      "name": "refundOf",
      "outputs": [
        {
          "internalType": "uint256",
          "name": "",
          "type": "uint256"
        }
      ],
      "stateMutability": "view",
      "type": "function"
    },
    {
      "inputs": [
        {
          "internalType": "address",
          "name": "from",
          "type": "address"
        },
        {
          "internalType": "address",
          "name": "to",
          "type": "address"
        },
        {
          "internalType": "uint256",
          "name": "tokenId",
          "type": "uint256"
        }
      ],
      "name": "safeTransferFrom",
      "outputs": [],
      "stateMutability": "payable",
      "type": "function"
    },
    {
      "inputs": [
        {
          "internalType": "address",
          "name": "from",
          "type": "address"
        },
        {
          "internalType": "address",
          "name": "to",
          "type": "address"
        },
        {
          "internalType": "uint256",
          "name": "tokenId",
          "type": "uint256"
        },
        {
          "internalType": "bytes",
          "name": "_data",
          "type": "bytes"
        }
      ],
      "name": "safeTransferFrom",
      "outputs": [],
      "stateMutability": "payable",
      "type": "function"
    },
    {
      "inputs": [
        {
          "internalType": "address",
          "name": "operator",
          "type": "address"
        },
        {
          "internalType": "bool",
          "name": "approved",
          "type": "bool"
        }
      ],
      "name": "setApprovalForAll",
      "outputs": [],
      "stateMutability": "nonpayable",
      "type": "function"
    },
    {
      "inputs": [
        {
          "internalType": "address",
          "name": "_contractAddress",
          "type": "address"
        }
      ],
      "name": "setEventDiamondAddress",
      "outputs": [],
      "stateMutability": "nonpayable",
      "type": "function"
    },
    {
      "inputs": [],
      "name": "symbol",
      "outputs": [
        {
          "internalType": "string",
          "name": "",
          "type": "string"
        }
      ],
      "stateMutability": "view",
      "type": "function"
    },
    {
      "inputs": [
        {
          "internalType": "uint256",
          "name": "tokenId",
          "type": "uint256"
        }
      ],
      "name": "tokenURI",
      "outputs": [
        {
          "internalType": "string",
          "name": "",
          "type": "string"
        }
      ],
      "stateMutability": "view",
      "type": "function"
    },
    {
      "inputs": [],
      "name": "totalSupply",
      "outputs": [
        {
          "internalType": "uint256",
          "name": "",
          "type": "uint256"
        }
      ],
      "stateMutability": "view",
      "type": "function"
    },
    {
      "inputs": [
        {
          "internalType": "address",
          "name": "from",
          "type": "address"
        },
        {
          "internalType": "address",
          "name": "to",
          "type": "address"
        },
        {
          "internalType": "uint256",
          "name": "tokenId",
          "type": "uint256"
        }
      ],
      "name": "transferFrom",
      "outputs": [],
      "stateMutability": "payable",
      "type": "function"
    },
    {
      "inputs": [
        {
          "internalType": "uint256",
          "name": "_ticketId",
          "type": "uint256"
        }
      ],
      "name": "unlock",
      "outputs": [],
      "stateMutability": "nonpayable",
      "type": "function"
    }
  ],
  "bytecode": "0x608060405234801561001057600080fd5b506123f6806100206000396000f3fe6080604052600436106101665760003560e01c80637dc379fa116100d1578063b45a3c0e1161008a578063c87b56dd11610064578063c87b56dd14610412578063dd46706414610432578063e985e9c514610452578063eb91937a1461047257600080fd5b8063b45a3c0e146103bf578063b88d4fde146103df578063c34e0d43146103f257600080fd5b80637dc379fa146102fd57806395d89b411461032a57806396e83a401461033f5780639b69ff091461035f578063a22cb4651461037f578063a476b73d1461039f57600080fd5b80633ddbc679116101235780633ddbc6791461024957806342842e0e146102695780634f5560161461027c5780636198e3391461029d5780636352211e146102bd57806370a08231146102dd57600080fd5b806306fdde031461016b578063081812fc14610196578063095ea7b3146101ce57806318160ddd146101e35780631e2714051461020657806323b872dd14610236575b600080fd5b34801561017757600080fd5b50610180610492565b60405161018d9190611b67565b60405180910390f35b3480156101a257600080fd5b506101b66101b1366004611b7a565b610527565b6040516001600160a01b03909116815260200161018d565b6101e16101dc366004611baf565b61056b565b005b3480156101ef57600080fd5b50600154600054035b60405190815260200161018d565b34801561021257600080fd5b50610226610221366004611bd9565b6105c2565b604051901515815260200161018d565b6101e1610244366004611c6d565b61068a565b34801561025557600080fd5b506101e1610264366004611ca9565b6106c9565b6101e1610277366004611c6d565b610712565b34801561028857600080fd5b506101f8610297366004611b7a565b50600090565b3480156102a957600080fd5b506101e16102b8366004611b7a565b610758565b3480156102c957600080fd5b506101b66102d8366004611b7a565b6107b3565b3480156102e957600080fd5b506101f86102f8366004611ca9565b6107c4565b34801561030957600080fd5b5061031d610318366004611b7a565b610813565b60405161018d9190611cc4565b34801561033657600080fd5b50610180610938565b34801561034b57600080fd5b506101e161035a366004611d11565b61094a565b34801561036b57600080fd5b506101f861037a366004611de9565b610b57565b34801561038b57600080fd5b506101e161039a366004611e8c565b610c3e565b3480156103ab57600080fd5b506101e16103ba366004611b7a565b610cb7565b3480156103cb57600080fd5b506102266103da366004611b7a565b610ce0565b6101e16103ed366004611ebf565b610cf7565b3480156103fe57600080fd5b5061022661040d366004611f3b565b610d67565b34801561041e57600080fd5b5061018061042d366004611b7a565b610e75565b34801561043e57600080fd5b506101e161044d366004611b7a565b610fd5565b34801561045e57600080fd5b5061022661046d366004611f6e565b611028565b34801561047e57600080fd5b506101f861048d366004611f98565b611058565b6060600060020180546104a490611fce565b80601f01602080910402602001604051908101604052809291908181526020018280546104d090611fce565b801561051d5780601f106104f25761010080835404028352916020019161051d565b820191906000526020600020905b81548152906001019060200180831161050057829003601f168201915b5050505050905090565b6000610532826110b1565b61054f576040516333d1c03960e21b815260040160405180910390fd5b506000908152600660205260409020546001600160a01b031690565b61057582826110d8565b80826001600160a01b0316610589836107b3565b6001600160a01b03167f8c5be1e5ebec7d5bd14f71427d1e84f3dd0314c0f7b2291e5b200ac8c7c3b92560405160405180910390a45050565b60006105cc61119a565b6105d7868686610d67565b60405180606001604052806032815260200161236460329139906106175760405162461bcd60e51b815260040161060e9190611b67565b60405180910390fd5b506000858152600b6020526040902084815560010161063783858361204e565b5084866001600160a01b03167fe980346e48104399bbc0129fadcf85d695e39e759b84d22826b37a0f84ec9c928686866040516106769392919061210f565b60405180910390a350600195945050505050565b61069583838361123e565b80826001600160a01b0316846001600160a01b031660008051602061234483398151915260405160405180910390a4505050565b6106d16113e9565b7fc8fcad8db84d3cc18b4c41d551ea0ee66dd599cde068d998e57d5e09332c132180546001600160a01b0319166001600160a01b0392909216919091179055565b61071b81610ce0565b156107385760405162461bcd60e51b815260040161060e90612145565b61075383838360405180602001604052806000815250610cf7565b505050565b61076061119a565b60008181526009602052604090819020805460ff19169055517ff27b6ce5b2f5e68ddb2fd95a8a909d4ecf1daaac270935fff052feacb24f1842906107a89083815260200190565b60405180910390a150565b60006107be82611476565b92915050565b60006001600160a01b0382166107ed576040516323d3ad8160e21b815260040160405180910390fd5b506001600160a01b031660009081526005602052604090205467ffffffffffffffff1690565b61084c6040518060c001604052806000815260200160008152602001600081526020016000815260200160008152602001606081525090565b600060080160008381526020019081526020016000206040518060c001604052908160008201548152602001600182015481526020016002820154815260200160038201548152602001600482015481526020016005820180546108af90611fce565b80601f01602080910402602001604051908101604052809291908181526020018280546108db90611fce565b80156109285780601f106108fd57610100808354040283529160200191610928565b820191906000526020600020905b81548152906001019060200180831161090b57829003601f168201915b5050505050815250509050919050565b6060600060030180546104a490611fce565b61095261119a565b6000838152600c602052604090206001015460ff16156109c4576000838152600c60205260408082209182556001909101805460ff19169055517f017161c54123c503d82ef27b5a107eb08d6bd34a2025d2fff1316226aaf0c1b4906109bb9085815260200190565b60405180910390a15b6000838152600a60209081526040918290205482518084019093528183527f455243353530373a205469636b657420616c726561647920726566756e6465649183019190915260ff1615610a2b5760405162461bcd60e51b815260040161060e9190611b67565b506000838152600a60209081526040808320805460ff1916600190811790915560099092529091205460ff1615159003610abf5760008381526009602052604090819020805460ff19169055517ff27b6ce5b2f5e68ddb2fd95a8a909d4ecf1daaac270935fff052feacb24f184290610aa79085815260200190565b60405180910390a1610aba828285611481565b610b1c565b610ac8836115b0565b60008381526008602052604081208181556001810182905560028101829055600381018290556004810182905590610b036005830182611ac9565b50506000838152600960205260409020805460ff191690555b60405183906001600160a01b038416907fbb28353e4598c3b9199101a66e0989549b659a59a54d2c27fbb183f1932c8e6d90600090a3505050565b6000610b6161119a565b600080548082526008602090815260408084208d815560018082018e9055600282018d9055600382018c905560049091018a90556009909252909220805460ff191686151517905590610bb59084906115be565b610bbf81866116ae565b8315610bfd576040518181527f032bc66be43dbccb7487781d168eb7bda224628a3b2c3388bdf69b532a3a16119060200160405180910390a1610c31565b6040518181527ff27b6ce5b2f5e68ddb2fd95a8a909d4ecf1daaac270935fff052feacb24f18429060200160405180910390a15b9998505050505050505050565b3360008181526007602090815260408083206001600160a01b0387168085529252909120805460ff1916841515179055906001600160a01b03167f17307eab39ab6107e8899845ad3d59bd9653f200f220920489ca2b5937696c3183604051610cab911515815260200190565b60405180910390a35050565b610cbf61119a565b610cc8816115b0565b6000908152600960205260409020805460ff19169055565b60008181526009602052604081205460ff166107be565b610d0082610ce0565b15610d1d5760405162461bcd60e51b815260040161060e90612145565b610d2884848461068a565b6001600160a01b0383163b15610d6157610d4484848484611737565b610d61576040516368d2bf6b60e11b815260040160405180910390fd5b50505050565b6000610d72836110b1565b6040518060600160405280602b8152602001612396602b913990610da95760405162461bcd60e51b815260040161060e9190611b67565b50336001600160a01b0316846001600160a01b0316146040518060600160405280602a815260200161231a602a913990610df65760405162461bcd60e51b815260040161060e9190611b67565b5060408051808201909152601b81527f455243323133353a20416d6f756e742073686f756c6420626520310000000000602082015260018314610e4c5760405162461bcd60e51b815260040161060e9190611b67565b506000838152600b60205260408120549003610e6a57506001610e6e565b5060005b9392505050565b6060610e80826110b1565b610e9d57604051630a14c4b560e41b815260040160405180910390fd5b60008281526008602052604081206005018054610eb990611fce565b80601f0160208091040260200160405190810160405280929190818152602001828054610ee590611fce565b8015610f325780601f10610f0757610100808354040283529160200191610f32565b820191906000526020600020905b815481529060010190602001808311610f1557829003601f168201915b505050505090506000610f5060408051602081019091526000815290565b90508051600003610f62575092915050565b815115610f94578082604051602001610f7c92919061217c565b60405160208183030381529060405292505050919050565b8051600003610fb25760405180602001604052806000815250610fcd565b80610fbc85611822565b604051602001610f7c92919061217c565b949350505050565b610fdd61119a565b60008181526009602052604090819020805460ff19166001179055517f032bc66be43dbccb7487781d168eb7bda224628a3b2c3388bdf69b532a3a1611906107a89083815260200190565b6001600160a01b03808316600090815260076020908152604080832093851683529290529081205460ff16610e6e565b6000828152600860205260408120600201548103611078575060006107be565b600061108860ff841660646121ab565b600085815260086020526040812060020154919250906110a89083611866565b95945050505050565b60008054821080156107be575050600090815260046020526040902054600160e01b161590565b60008181526009602052604081205460ff16156111075760405162461bcd60e51b815260040161060e90612145565b600061111283611476565b9050336001600160a01b0382161461116a576001600160a01b0381166000908152600783016020908152604080832033845290915290205460ff1661116a576040516367d9dca160e11b815260040160405180910390fd5b5060009182526006016020526040902080546001600160a01b0319166001600160a01b0392909216919091179055565b7fc8fcad8db84d3cc18b4c41d551ea0ee66dd599cde068d998e57d5e09332c131c600501546001600160a01b0316331461123c5760405162461bcd60e51b815260206004820152603760248201527f4c69625469636b65744469616d6f6e643a204d757374206265206576656e742060448201527f7469636b657420636f6e74726f6c6c6572206661636574000000000000000000606482015260840161060e565b565b60008181526009602052604081205460ff161561126d5760405162461bcd60e51b815260040161060e90612145565b6000611278836118da565b9050846001600160a01b0316816001600160a01b0316146112ab5760405162a1148160e81b815260040160405180910390fd5b60008381526006602052604090208054338082146001600160a01b03891690911417611315576001600160a01b038716600090815260076020908152604080832033845290915290205460ff1661131557604051632ce44b5f60e11b815260040160405180910390fd5b6001600160a01b03861661133c57604051633a954ecd60e21b815260040160405180910390fd5b801561134757600082555b6001600160a01b0387811660009081526005860160205260408082208054600019019055918816808252919020805460010190554260a01b17600160e11b176000868152600486016020526040812091909155600160e11b841690036113e05760018501600081815260048601602052604081205490036113de57845481146113de57600081815260048601602052604090208490555b505b50505050505050565b7fc8fcad8db84d3cc18b4c41d551ea0ee66dd599cde068d998e57d5e09332c131c600401546001600160a01b0316331461123c5760405162461bcd60e51b815260206004820152602860248201527f4c69625469636b65744469616d6f6e643a204d75737420626520636f6e74726160448201526731ba1037bbb732b960c11b606482015260840161060e565b60006107be826118da565b600061148c826118da565b9050836001600160a01b0316816001600160a01b0316146114bf5760405162a1148160e81b815260040160405180910390fd5b6000828152600660205260409020805480156114da57600082555b6001600160a01b0380871660009081526005602052604080822080546000190190559187168152208054600101905561152385611518888287611945565b600160e11b1761194d565b600085815260046020526040812091909155600160e11b84169003611578576001840160008181526004602052604081205490036115765760005481146115765760008181526004602052604090208490555b505b83856001600160a01b0316876001600160a01b031660008051602061234483398151915260405160405180910390a45b505050505050565b6115bb816000611965565b50565b60008054908290036115e35760405163b562e8dd60e01b815260040160405180910390fd5b6001600160a01b0383166000908152600560205260408120805468010000000000000001850201905561162a90849061161d908281611945565b6001851460e11b1761194d565b6000828152600460205260408120919091556001600160a01b038481169184840191906000805160206123448339815191529085908590838180a4600185015b838114611682578085600084600080a460010161166a565b50836000036116a357604051622e076360e81b815260040160405180910390fd5b505060005550505050565b6116b7826110b1565b61171c5760405162461bcd60e51b815260206004820152603060248201527f5469636b65744552433732314146616365743a2055524920736574206f66206e60448201526f37b732bc34b9ba32b73a103a37b5b2b760811b606482015260840161060e565b600082815260086020526040902060050161075382826121d0565b604051630a85bd0160e11b81526000906001600160a01b0385169063150b7a029061176c903390899088908890600401612290565b6020604051808303816000875af19250505080156117a7575060408051601f3d908101601f191682019092526117a4918101906122cd565b60015b611805573d8080156117d5576040519150601f19603f3d011682016040523d82523d6000602084013e6117da565b606091505b5080516000036117fd576040516368d2bf6b60e11b815260040160405180910390fd5b805181602001fd5b6001600160e01b031916630a85bd0160e11b149050949350505050565b606060a06040510180604052602081039150506000815280825b600183039250600a81066030018353600a90048061183c5750819003601f19909101908152919050565b600061271061187583856121ab565b10156118c35760405162461bcd60e51b815260206004820152601760248201527f50657263656e746167653a20526f756e647320746f2030000000000000000000604482015260640161060e565b6127106118d083856121ab565b610e6e91906122f7565b60008082815481101561192c57600081815260048301602052604081205490600160e01b8216900361192a575b80600003610fcd5750600019016000818152600483016020526040902054611907565b505b604051636f96cda160e11b815260040160405180910390fd5b600080610fcd565b60006001600160a01b0383164260a01b831717610e6e565b6000611970836118da565b90508060008061198e86600090815260066020526040902080549091565b9150915084156119ce576119a3818433611aaf565b6119ce576119b18333611028565b6119ce57604051632ce44b5f60e11b815260040160405180910390fd5b80156119d957600082555b6001600160a01b038316600090815260056020526040812080546fffffffffffffffffffffffffffffffff019055611a24908490611a1990829088611945565b600360e01b1761194d565b600087815260046020526040812091909155600160e11b85169003611a7957600186016000818152600460205260408120549003611a77576000548114611a775760008181526004602052604090208590555b505b60405186906000906001600160a01b03861690600080516020612344833981519152908390a45050600180548101905550505050565b60006001600160a01b038083168086149185161417610fcd565b508054611ad590611fce565b6000825580601f10611ae5575050565b601f0160209004906000526020600020908101906115bb91905b80821115611b135760008155600101611aff565b5090565b60005b83811015611b32578181015183820152602001611b1a565b50506000910152565b60008151808452611b53816020860160208601611b17565b601f01601f19169290920160200192915050565b602081526000610e6e6020830184611b3b565b600060208284031215611b8c57600080fd5b5035919050565b80356001600160a01b0381168114611baa57600080fd5b919050565b60008060408385031215611bc257600080fd5b611bcb83611b93565b946020939093013593505050565b600080600080600060808688031215611bf157600080fd5b611bfa86611b93565b94506020860135935060408601359250606086013567ffffffffffffffff80821115611c2557600080fd5b818801915088601f830112611c3957600080fd5b813581811115611c4857600080fd5b896020828501011115611c5a57600080fd5b9699959850939650602001949392505050565b600080600060608486031215611c8257600080fd5b611c8b84611b93565b9250611c9960208501611b93565b9150604084013590509250925092565b600060208284031215611cbb57600080fd5b610e6e82611b93565b6020815281516020820152602082015160408201526040820151606082015260608201516080820152608082015160a0820152600060a083015160c080840152610fcd60e0840182611b3b565b600080600060608486031215611d2657600080fd5b83359250611d3660208501611b93565b9150611d4460408501611b93565b90509250925092565b634e487b7160e01b600052604160045260246000fd5b600067ffffffffffffffff80841115611d7e57611d7e611d4d565b604051601f8501601f19908116603f01168101908282118183101715611da657611da6611d4d565b81604052809350858152868686011115611dbf57600080fd5b858560208301376000602087830101525050509392505050565b80358015158114611baa57600080fd5b600080600080600080600080610100898b031215611e0657600080fd5b883597506020890135965060408901359550606089013594506080890135935060a089013567ffffffffffffffff811115611e4057600080fd5b8901601f81018b13611e5157600080fd5b611e608b823560208401611d63565b935050611e6f60c08a01611dd9565b9150611e7d60e08a01611b93565b90509295985092959890939650565b60008060408385031215611e9f57600080fd5b611ea883611b93565b9150611eb660208401611dd9565b90509250929050565b60008060008060808587031215611ed557600080fd5b611ede85611b93565b9350611eec60208601611b93565b925060408501359150606085013567ffffffffffffffff811115611f0f57600080fd5b8501601f81018713611f2057600080fd5b611f2f87823560208401611d63565b91505092959194509250565b600080600060608486031215611f5057600080fd5b611f5984611b93565b95602085013595506040909401359392505050565b60008060408385031215611f8157600080fd5b611f8a83611b93565b9150611eb660208401611b93565b60008060408385031215611fab57600080fd5b82359150602083013560ff81168114611fc357600080fd5b809150509250929050565b600181811c90821680611fe257607f821691505b60208210810361200257634e487b7160e01b600052602260045260246000fd5b50919050565b601f82111561075357600081815260208120601f850160051c8101602086101561202f5750805b601f850160051c820191505b818110156115a85782815560010161203b565b67ffffffffffffffff83111561206657612066611d4d565b61207a836120748354611fce565b83612008565b6000601f8411600181146120ae57600085156120965750838201355b600019600387901b1c1916600186901b178355612108565b600083815260209020601f19861690835b828110156120df57868501358255602094850194600190920191016120bf565b50868210156120fc5760001960f88860031b161c19848701351681555b505060018560011b0183555b5050505050565b83815260406020820152816040820152818360608301376000818301606090810191909152601f909201601f1916010192915050565b6020808252601c908201527f455243353139323a205469636b657420697320736f756c626f756e6400000000604082015260600190565b6000835161218e818460208801611b17565b8351908301906121a2818360208801611b17565b01949350505050565b80820281158282048414176107be57634e487b7160e01b600052601160045260246000fd5b815167ffffffffffffffff8111156121ea576121ea611d4d565b6121fe816121f88454611fce565b84612008565b602080601f831160018114612233576000841561221b5750858301515b600019600386901b1c1916600185901b1785556115a8565b600085815260208120601f198616915b8281101561226257888601518255948401946001909101908401612243565b50858210156122805787850151600019600388901b60f8161c191681555b5050505050600190811b01905550565b6001600160a01b03858116825284166020820152604081018390526080606082018190526000906122c390830184611b3b565b9695505050505050565b6000602082840312156122df57600080fd5b81516001600160e01b031981168114610e6e57600080fd5b60008261231457634e487b7160e01b600052601260045260246000fd5b50049056fe455243323133353a20436f6e73756d65722073686f756c6420626520746865206d73672073656e646572ddf252ad1be2c89b69c2b068fc378daa952ba7f163c4a11628f55a4df523b3ef455243323133353a205469636b6574206e6f7420636f6e73756d61626c65206f7220616c726561647920636f6e73756d65645469636b657446616365743a2043616e277420636c6970206e6f74206578697374696e67207469636b6574a264697066735822122014749fa5aaeefb2bc418ba178752efba2e3d9bc9fa5bbda9d1c45905305eb9bc64736f6c63430008110033",
  "linkReferences": {},
  "deployedLinkReferences": {}
}