{
  "_format": "hh-sol-artifact-1",
  "contractName": "TicketFacet",
  "sourceName": "contracts/TicketDiamond/facets/TicketFacet.sol",
  "abi": [
    {
      "inputs": [],
      "name": "ApprovalCallerNotOwnerNorApproved",
      "type": "error"
    },
    {
      "inputs": [],
      "name": "ApprovalQueryForNonexistentToken",
      "type": "error"
    },
    {
      "inputs": [],
      "name": "BalanceQueryForZeroAddress",
      "type": "error"
    },
    {
      "inputs": [],
      "name": "MintERC2309QuantityExceedsLimit",
      "type": "error"
    },
    {
      "inputs": [],
      "name": "MintToZeroAddress",
      "type": "error"
    },
    {
      "inputs": [],
      "name": "MintZeroQuantity",
      "type": "error"
    },
    {
      "inputs": [],
      "name": "OwnerQueryForNonexistentToken",
      "type": "error"
    },
    {
      "inputs": [],
      "name": "OwnershipNotInitializedForExtraData",
      "type": "error"
    },
    {
      "inputs": [],
      "name": "TransferCallerNotOwnerNorApproved",
      "type": "error"
    },
    {
      "inputs": [],
      "name": "TransferFromIncorrectOwner",
      "type": "error"
    },
    {
      "inputs": [],
      "name": "TransferToNonERC721ReceiverImplementer",
      "type": "error"
    },
    {
      "inputs": [],
      "name": "TransferToZeroAddress",
      "type": "error"
    },
    {
      "inputs": [],
      "name": "URIQueryForNonexistentToken",
      "type": "error"
    },
    {
      "anonymous": false,
      "inputs": [
        {
          "indexed": true,
          "internalType": "address",
          "name": "owner",
          "type": "address"
        },
        {
          "indexed": true,
          "internalType": "address",
          "name": "approved",
          "type": "address"
        },
        {
          "indexed": true,
          "internalType": "uint256",
          "name": "tokenId",
          "type": "uint256"
        }
      ],
      "name": "Approval",
      "type": "event"
    },
    {
      "anonymous": false,
      "inputs": [
        {
          "indexed": true,
          "internalType": "address",
          "name": "owner",
          "type": "address"
        },
        {
          "indexed": true,
          "internalType": "address",
          "name": "operator",
          "type": "address"
        },
        {
          "indexed": false,
          "internalType": "bool",
          "name": "approved",
          "type": "bool"
        }
      ],
      "name": "ApprovalForAll",
      "type": "event"
    },
    {
      "anonymous": false,
      "inputs": [
        {
          "indexed": true,
          "internalType": "uint256",
          "name": "fromTokenId",
          "type": "uint256"
        },
        {
          "indexed": false,
          "internalType": "uint256",
          "name": "toTokenId",
          "type": "uint256"
        },
        {
          "indexed": true,
          "internalType": "address",
          "name": "from",
          "type": "address"
        },
        {
          "indexed": true,
          "internalType": "address",
          "name": "to",
          "type": "address"
        }
      ],
      "name": "ConsecutiveTransfer",
      "type": "event"
    },
    {
      "anonymous": false,
      "inputs": [
        {
          "indexed": false,
          "internalType": "uint256",
          "name": "tokenId",
          "type": "uint256"
        }
      ],
      "name": "Locked",
      "type": "event"
    },
    {
      "anonymous": false,
      "inputs": [
        {
          "indexed": true,
          "internalType": "address",
          "name": "consumer",
          "type": "address"
        },
        {
          "indexed": true,
          "internalType": "uint256",
          "name": "assetId",
          "type": "uint256"
        },
        {
          "indexed": false,
          "internalType": "uint256",
          "name": "amount",
          "type": "uint256"
        },
        {
          "indexed": false,
          "internalType": "bytes",
          "name": "data",
          "type": "bytes"
        }
      ],
      "name": "OnConsumption",
      "type": "event"
    },
    {
      "anonymous": false,
      "inputs": [
        {
          "indexed": true,
          "internalType": "address",
          "name": "_sender",
          "type": "address"
        },
        {
          "indexed": true,
          "internalType": "uint256",
          "name": "_tokenId",
          "type": "uint256"
        }
      ],
      "name": "Refund",
      "type": "event"
    },
    {
      "anonymous": false,
      "inputs": [
        {
          "indexed": true,
          "internalType": "address",
          "name": "from",
          "type": "address"
        },
        {
          "indexed": true,
          "internalType": "address",
          "name": "to",
          "type": "address"
        },
        {
          "indexed": true,
          "internalType": "uint256",
          "name": "tokenId",
          "type": "uint256"
        }
      ],
      "name": "Transfer",
      "type": "event"
    },
    {
      "anonymous": false,
      "inputs": [
        {
          "indexed": false,
          "internalType": "uint256",
          "name": "tokenId",
          "type": "uint256"
        }
      ],
      "name": "Unlocked",
      "type": "event"
    },
    {
      "inputs": [
        {
          "internalType": "address",
          "name": "to",
          "type": "address"
        },
        {
          "internalType": "uint256",
          "name": "tokenId",
          "type": "uint256"
        }
      ],
      "name": "approve",
      "outputs": [],
      "stateMutability": "payable",
      "type": "function"
    },
    {
      "inputs": [
        {
          "internalType": "address",
          "name": "owner",
          "type": "address"
        }
      ],
      "name": "balanceOf",
      "outputs": [
        {
          "internalType": "uint256",
          "name": "",
          "type": "uint256"
        }
      ],
      "stateMutability": "view",
      "type": "function"
    },
    {
      "inputs": [
        {
          "internalType": "uint256",
          "name": "_ticketId",
          "type": "uint256"
        }
      ],
      "name": "burnTicket",
      "outputs": [],
      "stateMutability": "nonpayable",
      "type": "function"
    },
    {
      "inputs": [
        {
          "internalType": "address",
          "name": "_consumer",
          "type": "address"
        },
        {
          "internalType": "uint256",
          "name": "_assetId",
          "type": "uint256"
        },
        {
          "internalType": "uint256",
          "name": "_amount",
          "type": "uint256"
        },
        {
          "internalType": "bytes",
          "name": "_data",
          "type": "bytes"
        }
      ],
      "name": "consume",
      "outputs": [
        {
          "internalType": "bool",
          "name": "_success",
          "type": "bool"
        }
      ],
      "stateMutability": "nonpayable",
      "type": "function"
    },
    {
      "inputs": [
        {
          "internalType": "uint256",
          "name": "tokenId",
          "type": "uint256"
        }
      ],
      "name": "getApproved",
      "outputs": [
        {
          "internalType": "address",
          "name": "",
          "type": "address"
        }
      ],
      "stateMutability": "view",
      "type": "function"
    },
    {
      "inputs": [
        {
          "internalType": "uint256",
          "name": "_ticketId",
          "type": "uint256"
        }
      ],
      "name": "getTicket",
      "outputs": [
        {
          "components": [
            {
              "internalType": "uint256",
              "name": "eventId",
              "type": "uint256"
            },
            {
              "internalType": "uint256",
              "name": "categoryId",
              "type": "uint256"
            },
            {
              "internalType": "uint256",
              "name": "price",
              "type": "uint256"
            },
            {
              "internalType": "uint256",
              "name": "row",
              "type": "uint256"
            },
            {
              "internalType": "uint256",
              "name": "seat",
              "type": "uint256"
            },
            {
              "internalType": "string",
              "name": "tokenUri",
              "type": "string"
            }
          ],
          "internalType": "struct ITicket.Ticket",
          "name": "",
          "type": "tuple"
        }
      ],
      "stateMutability": "view",
      "type": "function"
    },
    {
      "inputs": [
        {
          "internalType": "uint256",
          "name": "_ticketId",
          "type": "uint256"
        }
      ],
      "name": "getTicketPriceAndOwner",
      "outputs": [
        {
          "internalType": "address",
          "name": "owner",
          "type": "address"
        },
        {
          "internalType": "uint256",
          "name": "price",
          "type": "uint256"
        }
      ],
      "stateMutability": "view",
      "type": "function"
    },
    {
      "inputs": [
        {
          "internalType": "address",
          "name": "owner",
          "type": "address"
        },
        {
          "internalType": "address",
          "name": "operator",
          "type": "address"
        }
      ],
      "name": "isApprovedForAll",
      "outputs": [
        {
          "internalType": "bool",
          "name": "",
          "type": "bool"
        }
      ],
      "stateMutability": "view",
      "type": "function"
    },
    {
      "inputs": [
        {
          "internalType": "address",
          "name": "_consumer",
          "type": "address"
        },
        {
          "internalType": "uint256",
          "name": "_assetId",
          "type": "uint256"
        },
        {
          "internalType": "uint256",
          "name": "_amount",
          "type": "uint256"
        }
      ],
      "name": "isConsumableBy",
      "outputs": [
        {
          "internalType": "bool",
          "name": "_consumable",
          "type": "bool"
        }
      ],
      "stateMutability": "view",
      "type": "function"
    },
    {
      "inputs": [
        {
          "internalType": "uint256",
          "name": "_ticketId",
          "type": "uint256"
        }
      ],
      "name": "lock",
      "outputs": [],
      "stateMutability": "nonpayable",
      "type": "function"
    },
    {
      "inputs": [
        {
          "internalType": "uint256",
          "name": "tokenId",
          "type": "uint256"
        }
      ],
      "name": "locked",
      "outputs": [
        {
          "internalType": "bool",
          "name": "",
          "type": "bool"
        }
      ],
      "stateMutability": "view",
      "type": "function"
    },
    {
      "inputs": [
        {
          "internalType": "uint256",
          "name": "_eventId",
          "type": "uint256"
        },
        {
          "internalType": "uint256",
          "name": "_categoryId",
          "type": "uint256"
        },
        {
          "internalType": "uint256",
          "name": "_price",
          "type": "uint256"
        },
        {
          "internalType": "uint256",
          "name": "_row",
          "type": "uint256"
        },
        {
          "internalType": "uint256",
          "name": "_seat",
          "type": "uint256"
        },
        {
          "internalType": "string",
          "name": "_ticketMetadataURI",
          "type": "string"
        },
        {
          "internalType": "bool",
          "name": "_soulbound",
          "type": "bool"
        },
        {
          "internalType": "address",
          "name": "_to",
          "type": "address"
        }
      ],
      "name": "mintTicket",
      "outputs": [
        {
          "internalType": "uint256",
          "name": "",
          "type": "uint256"
        }
      ],
      "stateMutability": "nonpayable",
      "type": "function"
    },
    {
      "inputs": [],
      "name": "name",
      "outputs": [
        {
          "internalType": "string",
          "name": "",
          "type": "string"
        }
      ],
      "stateMutability": "view",
      "type": "function"
    },
    {
      "inputs": [
        {
          "internalType": "uint256",
          "name": "tokenId",
          "type": "uint256"
        }
      ],
      "name": "ownerOf",
      "outputs": [
        {
          "internalType": "address",
          "name": "",
          "type": "address"
        }
      ],
      "stateMutability": "view",
      "type": "function"
    },
    {
      "inputs": [
        {
          "internalType": "uint256",
          "name": "tokenId",
          "type": "uint256"
        },
        {
          "internalType": "address",
          "name": "_from",
          "type": "address"
        },
        {
          "internalType": "address",
          "name": "_to",
          "type": "address"
        }
      ],
      "name": "refund",
      "outputs": [],
      "stateMutability": "nonpayable",
      "type": "function"
    },
    {
      "inputs": [
        {
          "internalType": "uint256",
          "name": "tokenId",
          "type": "uint256"
        }
      ],
      "name": "refundDeadlineOf",
      "outputs": [
        {
          "internalType": "uint256",
          "name": "",
          "type": "uint256"
        }
      ],
      "stateMutability": "pure",
      "type": "function"
    },
    {
      "inputs": [
        {
          "internalType": "uint256",
          "name": "tokenId",
          "type": "uint256"
        },
        {
          "internalType": "uint8",
          "name": "percentage",
          "type": "uint8"
        }
      ],
      "name": "refundOf",
      "outputs": [
        {
          "internalType": "uint256",
          "name": "",
          "type": "uint256"
        }
      ],
      "stateMutability": "view",
      "type": "function"
    },
    {
      "inputs": [
        {
          "internalType": "address",
          "name": "from",
          "type": "address"
        },
        {
          "internalType": "address",
          "name": "to",
          "type": "address"
        },
        {
          "internalType": "uint256",
          "name": "tokenId",
          "type": "uint256"
        }
      ],
      "name": "safeTransferFrom",
      "outputs": [],
      "stateMutability": "payable",
      "type": "function"
    },
    {
      "inputs": [
        {
          "internalType": "address",
          "name": "from",
          "type": "address"
        },
        {
          "internalType": "address",
          "name": "to",
          "type": "address"
        },
        {
          "internalType": "uint256",
          "name": "tokenId",
          "type": "uint256"
        },
        {
          "internalType": "bytes",
          "name": "_data",
          "type": "bytes"
        }
      ],
      "name": "safeTransferFrom",
      "outputs": [],
      "stateMutability": "payable",
      "type": "function"
    },
    {
      "inputs": [
        {
          "internalType": "address",
          "name": "operator",
          "type": "address"
        },
        {
          "internalType": "bool",
          "name": "approved",
          "type": "bool"
        }
      ],
      "name": "setApprovalForAll",
      "outputs": [],
      "stateMutability": "nonpayable",
      "type": "function"
    },
    {
      "inputs": [
        {
          "internalType": "address",
          "name": "_contractAddress",
          "type": "address"
        }
      ],
      "name": "setEventDiamondAddress",
      "outputs": [],
      "stateMutability": "nonpayable",
      "type": "function"
    },
    {
      "inputs": [],
      "name": "symbol",
      "outputs": [
        {
          "internalType": "string",
          "name": "",
          "type": "string"
        }
      ],
      "stateMutability": "view",
      "type": "function"
    },
    {
      "inputs": [
        {
          "internalType": "uint256",
          "name": "tokenId",
          "type": "uint256"
        }
      ],
      "name": "tokenURI",
      "outputs": [
        {
          "internalType": "string",
          "name": "",
          "type": "string"
        }
      ],
      "stateMutability": "view",
      "type": "function"
    },
    {
      "inputs": [],
      "name": "totalSupply",
      "outputs": [
        {
          "internalType": "uint256",
          "name": "",
          "type": "uint256"
        }
      ],
      "stateMutability": "view",
      "type": "function"
    },
    {
      "inputs": [
        {
          "internalType": "address",
          "name": "from",
          "type": "address"
        },
        {
          "internalType": "address",
          "name": "to",
          "type": "address"
        },
        {
          "internalType": "uint256",
          "name": "tokenId",
          "type": "uint256"
        }
      ],
      "name": "transferFrom",
      "outputs": [],
      "stateMutability": "payable",
      "type": "function"
    },
    {
      "inputs": [
        {
          "internalType": "uint256",
          "name": "_ticketId",
          "type": "uint256"
        }
      ],
      "name": "unlock",
      "outputs": [],
      "stateMutability": "nonpayable",
      "type": "function"
    }
  ],
  "bytecode": "0x608060405234801561001057600080fd5b50612434806100206000396000f3fe6080604052600436106101815760003560e01c80637dc379fa116100d1578063b45a3c0e1161008a578063c87b56dd11610064578063c87b56dd1461046c578063dd4670641461048c578063e985e9c5146104ac578063eb91937a146104cc57600080fd5b8063b45a3c0e14610419578063b88d4fde14610439578063c34e0d431461044c57600080fd5b80637dc379fa1461035757806395d89b411461038457806396e83a40146103995780639b69ff09146103b9578063a22cb465146103d9578063a476b73d146103f957600080fd5b80633ddbc6791161013e57806355ccad431161011857806355ccad43146102b85780636198e339146102f75780636352211e1461031757806370a082311461033757600080fd5b80633ddbc6791461026457806342842e0e146102845780634f5560161461029757600080fd5b806306fdde0314610186578063081812fc146101b1578063095ea7b3146101e957806318160ddd146101fe5780631e2714051461022157806323b872dd14610251575b600080fd5b34801561019257600080fd5b5061019b6104ec565b6040516101a89190611bbd565b60405180910390f35b3480156101bd57600080fd5b506101d16101cc366004611bd0565b610581565b6040516001600160a01b0390911681526020016101a8565b6101fc6101f7366004611c05565b6105c5565b005b34801561020a57600080fd5b50600154600054035b6040519081526020016101a8565b34801561022d57600080fd5b5061024161023c366004611c2f565b61061c565b60405190151581526020016101a8565b6101fc61025f366004611cc3565b6106e4565b34801561027057600080fd5b506101fc61027f366004611cff565b610735565b6101fc610292366004611cc3565b61077e565b3480156102a357600080fd5b506102136102b2366004611bd0565b50600090565b3480156102c457600080fd5b506102d86102d3366004611bd0565b6107c4565b604080516001600160a01b0390931683526020830191909152016101a8565b34801561030357600080fd5b506101fc610312366004611bd0565b6107f2565b34801561032357600080fd5b506101d1610332366004611bd0565b61084d565b34801561034357600080fd5b50610213610352366004611cff565b61085e565b34801561036357600080fd5b50610377610372366004611bd0565b6108ad565b6040516101a89190611d1a565b34801561039057600080fd5b5061019b6109d2565b3480156103a557600080fd5b506101fc6103b4366004611d67565b6109e4565b3480156103c557600080fd5b506102136103d4366004611e3f565b610c03565b3480156103e557600080fd5b506101fc6103f4366004611ee2565b610cea565b34801561040557600080fd5b506101fc610414366004611bd0565b610d63565b34801561042557600080fd5b50610241610434366004611bd0565b610d8c565b6101fc610447366004611f15565b610da3565b34801561045857600080fd5b50610241610467366004611f91565b610e13565b34801561047857600080fd5b5061019b610487366004611bd0565b610f21565b34801561049857600080fd5b506101fc6104a7366004611bd0565b611081565b3480156104b857600080fd5b506102416104c7366004611fc4565b6110d4565b3480156104d857600080fd5b506102136104e7366004611fee565b611104565b6060600060020180546104fe90612024565b80601f016020809104026020016040519081016040528092919081815260200182805461052a90612024565b80156105775780601f1061054c57610100808354040283529160200191610577565b820191906000526020600020905b81548152906001019060200180831161055a57829003601f168201915b5050505050905090565b600061058c8261115d565b6105a9576040516333d1c03960e21b815260040160405180910390fd5b506000908152600660205260409020546001600160a01b031690565b6105cf8282611184565b80826001600160a01b03166105e38361084d565b6001600160a01b03167f8c5be1e5ebec7d5bd14f71427d1e84f3dd0314c0f7b2291e5b200ac8c7c3b92560405160405180910390a45050565b6000610626611246565b610631868686610e13565b6040518060600160405280603281526020016123a260329139906106715760405162461bcd60e51b81526004016106689190611bbd565b60405180910390fd5b506000858152600b602052604090208481556001016106918385836120ac565b5084866001600160a01b03167fe980346e48104399bbc0129fadcf85d695e39e759b84d22826b37a0f84ec9c928686866040516106d09392919061216d565b60405180910390a350600195945050505050565b6106ef8383836112ea565b80826001600160a01b0316846001600160a01b03167fddf252ad1be2c89b69c2b068fc378daa952ba7f163c4a11628f55a4df523b3ef60405160405180910390a4505050565b61073d6114ab565b7fc8fcad8db84d3cc18b4c41d551ea0ee66dd599cde068d998e57d5e09332c132180546001600160a01b0319166001600160a01b0392909216919091179055565b61078781610d8c565b156107a45760405162461bcd60e51b8152600401610668906121a3565b6107bf83838360405180602001604052806000815250610da3565b505050565b6000806107cf611246565b6107d883611538565b600093845260086020526040909320600201549293915050565b6107fa611246565b60008181526009602052604090819020805460ff19169055517ff27b6ce5b2f5e68ddb2fd95a8a909d4ecf1daaac270935fff052feacb24f1842906108429083815260200190565b60405180910390a150565b600061085882611538565b92915050565b60006001600160a01b038216610887576040516323d3ad8160e21b815260040160405180910390fd5b506001600160a01b031660009081526005602052604090205467ffffffffffffffff1690565b6108e66040518060c001604052806000815260200160008152602001600081526020016000815260200160008152602001606081525090565b600060080160008381526020019081526020016000206040518060c0016040529081600082015481526020016001820154815260200160028201548152602001600382015481526020016004820154815260200160058201805461094990612024565b80601f016020809104026020016040519081016040528092919081815260200182805461097590612024565b80156109c25780601f10610997576101008083540402835291602001916109c2565b820191906000526020600020905b8154815290600101906020018083116109a557829003601f168201915b5050505050815250509050919050565b6060600060030180546104fe90612024565b6109ec611246565b6000838152600c602052604090206001015460ff1615610a70576000838152600c60205260408082209182556001909101805460ff19169055517fd4e80ca4d3fedadddb72220aa4c1c59053d7edf22184eaf2eade671340958a7090610a6790859085909182526001600160a01b0316602082015260400190565b60405180910390a15b6000838152600a60209081526040918290205482518084019093528183527f455243353530373a205469636b657420616c726561647920726566756e6465649183019190915260ff1615610ad75760405162461bcd60e51b81526004016106689190611bbd565b506000838152600a60209081526040808320805460ff1916600190811790915560099092529091205460ff1615159003610b6b5760008381526009602052604090819020805460ff19169055517ff27b6ce5b2f5e68ddb2fd95a8a909d4ecf1daaac270935fff052feacb24f184290610b539085815260200190565b60405180910390a1610b66828285611543565b610bc8565b610b748361154e565b60008381526008602052604081208181556001810182905560028101829055600381018290556004810182905590610baf6005830182611b1f565b50506000838152600960205260409020805460ff191690555b60405183906001600160a01b038416907fbb28353e4598c3b9199101a66e0989549b659a59a54d2c27fbb183f1932c8e6d90600090a3505050565b6000610c0d611246565b600080548082526008602090815260408084208d815560018082018e9055600282018d9055600382018c905560049091018a90556009909252909220805460ff191686151517905590610c6190849061155c565b610c6b818661165e565b8315610ca9576040518181527f032bc66be43dbccb7487781d168eb7bda224628a3b2c3388bdf69b532a3a16119060200160405180910390a1610cdd565b6040518181527ff27b6ce5b2f5e68ddb2fd95a8a909d4ecf1daaac270935fff052feacb24f18429060200160405180910390a15b9998505050505050505050565b3360008181526007602090815260408083206001600160a01b0387168085529252909120805460ff1916841515179055906001600160a01b03167f17307eab39ab6107e8899845ad3d59bd9653f200f220920489ca2b5937696c3183604051610d57911515815260200190565b60405180910390a35050565b610d6b611246565b610d748161154e565b6000908152600960205260409020805460ff19169055565b60008181526009602052604081205460ff16610858565b610dac82610d8c565b15610dc95760405162461bcd60e51b8152600401610668906121a3565b610dd48484846106e4565b6001600160a01b0383163b15610e0d57610df0848484846116e7565b610e0d576040516368d2bf6b60e11b815260040160405180910390fd5b50505050565b6000610e1e8361115d565b6040518060600160405280602b81526020016123d4602b913990610e555760405162461bcd60e51b81526004016106689190611bbd565b50336001600160a01b0316846001600160a01b0316146040518060600160405280602a8152602001612378602a913990610ea25760405162461bcd60e51b81526004016106689190611bbd565b5060408051808201909152601b81527f455243323133353a20416d6f756e742073686f756c6420626520310000000000602082015260018314610ef85760405162461bcd60e51b81526004016106689190611bbd565b506000838152600b60205260408120549003610f1657506001610f1a565b5060005b9392505050565b6060610f2c8261115d565b610f4957604051630a14c4b560e41b815260040160405180910390fd5b60008281526008602052604081206005018054610f6590612024565b80601f0160208091040260200160405190810160405280929190818152602001828054610f9190612024565b8015610fde5780601f10610fb357610100808354040283529160200191610fde565b820191906000526020600020905b815481529060010190602001808311610fc157829003601f168201915b505050505090506000610ffc60408051602081019091526000815290565b9050805160000361100e575092915050565b8151156110405780826040516020016110289291906121da565b60405160208183030381529060405292505050919050565b805160000361105e5760405180602001604052806000815250611079565b80611068856117d2565b6040516020016110289291906121da565b949350505050565b611089611246565b60008181526009602052604090819020805460ff19166001179055517f032bc66be43dbccb7487781d168eb7bda224628a3b2c3388bdf69b532a3a1611906108429083815260200190565b6001600160a01b03808316600090815260076020908152604080832093851683529290529081205460ff16610f1a565b600082815260086020526040812060020154810361112457506000610858565b600061113460ff84166064612209565b600085815260086020526040812060020154919250906111549083611816565b95945050505050565b6000805482108015610858575050600090815260046020526040902054600160e01b161590565b60008181526009602052604081205460ff16156111b35760405162461bcd60e51b8152600401610668906121a3565b60006111be83611538565b9050336001600160a01b03821614611216576001600160a01b0381166000908152600783016020908152604080832033845290915290205460ff16611216576040516367d9dca160e11b815260040160405180910390fd5b5060009182526006016020526040902080546001600160a01b0319166001600160a01b0392909216919091179055565b7fc8fcad8db84d3cc18b4c41d551ea0ee66dd599cde068d998e57d5e09332c131c600501546001600160a01b031633146112e85760405162461bcd60e51b815260206004820152603760248201527f4c69625469636b65744469616d6f6e643a204d757374206265206576656e742060448201527f7469636b657420636f6e74726f6c6c65722066616365740000000000000000006064820152608401610668565b565b60008181526009602052604081205460ff16156113195760405162461bcd60e51b8152600401610668906121a3565b60006113248361188a565b9050846001600160a01b0316816001600160a01b0316146113575760405162a1148160e81b815260040160405180910390fd5b60008381526006602052604090208054338082146001600160a01b038916909114176113c1576001600160a01b038716600090815260076020908152604080832033845290915290205460ff166113c157604051632ce44b5f60e11b815260040160405180910390fd5b6001600160a01b0386166113e857604051633a954ecd60e21b815260040160405180910390fd5b80156113f357600082555b6001600160a01b03878116600090815260058601602052604080822080546000190190559188168152908120805460010190556114489087905b600160e11b174260a01b176001600160a01b03919091161790565b6000868152600486016020526040812091909155600160e11b841690036114a25760018501600081815260048601602052604081205490036114a057845481146114a057600081815260048601602052604090208490555b505b50505050505050565b7fc8fcad8db84d3cc18b4c41d551ea0ee66dd599cde068d998e57d5e09332c131c600401546001600160a01b031633146112e85760405162461bcd60e51b815260206004820152602860248201527f4c69625469636b65744469616d6f6e643a204d75737420626520636f6e74726160448201526731ba1037bbb732b960c11b6064820152608401610668565b60006108588261188a565b6106ef8383836118f5565b611559816000611989565b50565b60008054908290036115815760405163b562e8dd60e01b815260040160405180910390fd5b6001600160a01b038316600090815260056020526040812080546801000000000000000185020190556115c89084906115bb908281611ae5565b6001851460e11b17611aed565b6000828152600460205260408120919091556001600160a01b038481169184840191907fddf252ad1be2c89b69c2b068fc378daa952ba7f163c4a11628f55a4df523b3ef9085908590838180a4600185015b838114611632578085600084600080a460010161161a565b508360000361165357604051622e076360e81b815260040160405180910390fd5b505060005550505050565b6116678261115d565b6116cc5760405162461bcd60e51b815260206004820152603060248201527f5469636b65744552433732314146616365743a2055524920736574206f66206e60448201526f37b732bc34b9ba32b73a103a37b5b2b760811b6064820152608401610668565b60008281526008602052604090206005016107bf828261222e565b604051630a85bd0160e11b81526000906001600160a01b0385169063150b7a029061171c9033908990889088906004016122ee565b6020604051808303816000875af1925050508015611757575060408051601f3d908101601f191682019092526117549181019061232b565b60015b6117b5573d808015611785576040519150601f19603f3d011682016040523d82523d6000602084013e61178a565b606091505b5080516000036117ad576040516368d2bf6b60e11b815260040160405180910390fd5b805181602001fd5b6001600160e01b031916630a85bd0160e11b149050949350505050565b606060a06040510180604052602081039150506000815280825b600183039250600a81066030018353600a9004806117ec5750819003601f19909101908152919050565b60006127106118258385612209565b10156118735760405162461bcd60e51b815260206004820152601760248201527f50657263656e746167653a20526f756e647320746f20300000000000000000006044820152606401610668565b6127106118808385612209565b610f1a9190612355565b6000808281548110156118dc57600081815260048301602052604081205490600160e01b821690036118da575b8060000361107957506000190160008181526004830160205260409020546118b7565b505b604051636f96cda160e11b815260040160405180910390fd5b6000806119018361188a565b9050846001600160a01b0316816001600160a01b0316146119345760405162a1148160e81b815260040160405180910390fd5b6000838152600660205260409020805480156113f35760008083556001600160a01b0388811682526005860160205260408083208054600019019055908816825281208054600101905561144890879061142d565b60006119948361188a565b9050806000806119b286600090815260066020526040902080549091565b9150915084156119f2576119c7818433611b05565b6119f2576119d583336110d4565b6119f257604051632ce44b5f60e11b815260040160405180910390fd5b80156119fd57600082555b6001600160a01b038316600090815260056020526040812080546fffffffffffffffffffffffffffffffff019055611a48908490611a3d90829088611ae5565b600360e01b17611aed565b600087815260046020526040812091909155600160e11b85169003611a9d57600186016000818152600460205260408120549003611a9b576000548114611a9b5760008181526004602052604090208590555b505b60405186906000906001600160a01b038616907fddf252ad1be2c89b69c2b068fc378daa952ba7f163c4a11628f55a4df523b3ef908390a45050600180548101905550505050565b600080611079565b60006001600160a01b0383164260a01b831717610f1a565b60006001600160a01b038083168086149185161417611079565b508054611b2b90612024565b6000825580601f10611b3b575050565b601f01602090049060005260206000209081019061155991905b80821115611b695760008155600101611b55565b5090565b60005b83811015611b88578181015183820152602001611b70565b50506000910152565b60008151808452611ba9816020860160208601611b6d565b601f01601f19169290920160200192915050565b602081526000610f1a6020830184611b91565b600060208284031215611be257600080fd5b5035919050565b80356001600160a01b0381168114611c0057600080fd5b919050565b60008060408385031215611c1857600080fd5b611c2183611be9565b946020939093013593505050565b600080600080600060808688031215611c4757600080fd5b611c5086611be9565b94506020860135935060408601359250606086013567ffffffffffffffff80821115611c7b57600080fd5b818801915088601f830112611c8f57600080fd5b813581811115611c9e57600080fd5b896020828501011115611cb057600080fd5b9699959850939650602001949392505050565b600080600060608486031215611cd857600080fd5b611ce184611be9565b9250611cef60208501611be9565b9150604084013590509250925092565b600060208284031215611d1157600080fd5b610f1a82611be9565b6020815281516020820152602082015160408201526040820151606082015260608201516080820152608082015160a0820152600060a083015160c08084015261107960e0840182611b91565b600080600060608486031215611d7c57600080fd5b83359250611d8c60208501611be9565b9150611d9a60408501611be9565b90509250925092565b634e487b7160e01b600052604160045260246000fd5b600067ffffffffffffffff80841115611dd457611dd4611da3565b604051601f8501601f19908116603f01168101908282118183101715611dfc57611dfc611da3565b81604052809350858152868686011115611e1557600080fd5b858560208301376000602087830101525050509392505050565b80358015158114611c0057600080fd5b600080600080600080600080610100898b031215611e5c57600080fd5b883597506020890135965060408901359550606089013594506080890135935060a089013567ffffffffffffffff811115611e9657600080fd5b8901601f81018b13611ea757600080fd5b611eb68b823560208401611db9565b935050611ec560c08a01611e2f565b9150611ed360e08a01611be9565b90509295985092959890939650565b60008060408385031215611ef557600080fd5b611efe83611be9565b9150611f0c60208401611e2f565b90509250929050565b60008060008060808587031215611f2b57600080fd5b611f3485611be9565b9350611f4260208601611be9565b925060408501359150606085013567ffffffffffffffff811115611f6557600080fd5b8501601f81018713611f7657600080fd5b611f8587823560208401611db9565b91505092959194509250565b600080600060608486031215611fa657600080fd5b611faf84611be9565b95602085013595506040909401359392505050565b60008060408385031215611fd757600080fd5b611fe083611be9565b9150611f0c60208401611be9565b6000806040838503121561200157600080fd5b82359150602083013560ff8116811461201957600080fd5b809150509250929050565b600181811c9082168061203857607f821691505b60208210810361205857634e487b7160e01b600052602260045260246000fd5b50919050565b601f8211156107bf57600081815260208120601f850160051c810160208610156120855750805b601f850160051c820191505b818110156120a457828155600101612091565b505050505050565b67ffffffffffffffff8311156120c4576120c4611da3565b6120d8836120d28354612024565b8361205e565b6000601f84116001811461210c57600085156120f45750838201355b600019600387901b1c1916600186901b178355612166565b600083815260209020601f19861690835b8281101561213d578685013582556020948501946001909201910161211d565b508682101561215a5760001960f88860031b161c19848701351681555b505060018560011b0183555b5050505050565b83815260406020820152816040820152818360608301376000818301606090810191909152601f909201601f1916010192915050565b6020808252601c908201527f455243353139323a205469636b657420697320736f756c626f756e6400000000604082015260600190565b600083516121ec818460208801611b6d565b835190830190612200818360208801611b6d565b01949350505050565b808202811582820484141761085857634e487b7160e01b600052601160045260246000fd5b815167ffffffffffffffff81111561224857612248611da3565b61225c816122568454612024565b8461205e565b602080601f83116001811461229157600084156122795750858301515b600019600386901b1c1916600185901b1785556120a4565b600085815260208120601f198616915b828110156122c0578886015182559484019460019091019084016122a1565b50858210156122de5787850151600019600388901b60f8161c191681555b5050505050600190811b01905550565b6001600160a01b038581168252841660208201526040810183905260806060820181905260009061232190830184611b91565b9695505050505050565b60006020828403121561233d57600080fd5b81516001600160e01b031981168114610f1a57600080fd5b60008261237257634e487b7160e01b600052601260045260246000fd5b50049056fe455243323133353a20436f6e73756d65722073686f756c6420626520746865206d73672073656e646572455243323133353a205469636b6574206e6f7420636f6e73756d61626c65206f7220616c726561647920636f6e73756d65645469636b657446616365743a2043616e277420636c6970206e6f74206578697374696e67207469636b6574a264697066735822122031fa00f693afec4df8ed9b0e3e485edef02764e19006bf04c5bf66c3d3e21dad64736f6c63430008110033",
  "linkReferences": {},
  "deployedLinkReferences": {}
}