{
  "_format": "hh-sol-artifact-1",
  "contractName": "TicketMarketplaceFacet",
  "sourceName": "contracts/TicketDiamond/facets/TicketMarketplaceFacet.sol",
  "abi": [
    {
      "inputs": [],
      "name": "ApprovalCallerNotOwnerNorApproved",
      "type": "error"
    },
    {
      "inputs": [],
      "name": "OwnerQueryForNonexistentToken",
      "type": "error"
    },
    {
      "inputs": [],
      "name": "TransferFromIncorrectOwner",
      "type": "error"
    },
    {
      "anonymous": false,
      "inputs": [
        {
          "indexed": false,
          "internalType": "uint256",
          "name": "ticketId",
          "type": "uint256"
        },
        {
          "indexed": false,
          "internalType": "uint256",
          "name": "price",
          "type": "uint256"
        },
        {
          "indexed": false,
          "internalType": "address",
          "name": "seller",
          "type": "address"
        },
        {
          "indexed": false,
          "internalType": "address",
          "name": "buyer",
          "type": "address"
        }
      ],
      "name": "BoughtListedTicket",
      "type": "event"
    },
    {
      "anonymous": false,
      "inputs": [
        {
          "indexed": false,
          "internalType": "uint256",
          "name": "ticketId",
          "type": "uint256"
        },
        {
          "indexed": false,
          "internalType": "address",
          "name": "owner",
          "type": "address"
        }
      ],
      "name": "CanceledListedTicket",
      "type": "event"
    },
    {
      "anonymous": false,
      "inputs": [
        {
          "indexed": false,
          "internalType": "uint256[]",
          "name": "ticketIds",
          "type": "uint256[]"
        },
        {
          "indexed": false,
          "internalType": "address",
          "name": "buyer",
          "type": "address"
        }
      ],
      "name": "MultipleTicketsBought",
      "type": "event"
    },
    {
      "anonymous": false,
      "inputs": [
        {
          "indexed": false,
          "internalType": "uint256",
          "name": "ticketId",
          "type": "uint256"
        },
        {
          "indexed": false,
          "internalType": "address",
          "name": "seller",
          "type": "address"
        }
      ],
      "name": "TicketListed",
      "type": "event"
    },
    {
      "anonymous": false,
      "inputs": [
        {
          "indexed": false,
          "internalType": "uint256",
          "name": "ticketId",
          "type": "uint256"
        },
        {
          "indexed": false,
          "internalType": "uint256",
          "name": "newPrice",
          "type": "uint256"
        }
      ],
      "name": "UpdatedListedTicketPrice",
      "type": "event"
    },
    {
      "inputs": [
        {
          "internalType": "uint256",
          "name": "_ticketId",
          "type": "uint256"
        }
      ],
      "name": "buyListedTicket",
      "outputs": [],
      "stateMutability": "payable",
      "type": "function"
    },
    {
      "inputs": [
        {
          "internalType": "uint256[]",
          "name": "_ticketIds",
          "type": "uint256[]"
        }
      ],
      "name": "buyMultipleListedTickets",
      "outputs": [],
      "stateMutability": "payable",
      "type": "function"
    },
    {
      "inputs": [
        {
          "internalType": "uint256",
          "name": "_ticketId",
          "type": "uint256"
        }
      ],
      "name": "cancelListedTicket",
      "outputs": [],
      "stateMutability": "nonpayable",
      "type": "function"
    },
    {
      "inputs": [],
      "name": "fetchAllListedTicketIds",
      "outputs": [
        {
          "internalType": "uint256[]",
          "name": "",
          "type": "uint256[]"
        }
      ],
      "stateMutability": "view",
      "type": "function"
    },
    {
      "inputs": [
        {
          "internalType": "uint256",
          "name": "_ticketId",
          "type": "uint256"
        }
      ],
      "name": "getListedTicketById",
      "outputs": [
        {
          "components": [
            {
              "internalType": "uint256",
              "name": "price",
              "type": "uint256"
            },
            {
              "internalType": "bool",
              "name": "isListed",
              "type": "bool"
            }
          ],
          "internalType": "struct ITicketMarketplace.ListedTicket",
          "name": "listedTicket",
          "type": "tuple"
        }
      ],
      "stateMutability": "view",
      "type": "function"
    },
    {
      "inputs": [
        {
          "internalType": "uint256",
          "name": "_ticketId",
          "type": "uint256"
        },
        {
          "internalType": "uint256",
          "name": "_ticketPrice",
          "type": "uint256"
        }
      ],
      "name": "listTicket",
      "outputs": [],
      "stateMutability": "nonpayable",
      "type": "function"
    },
    {
      "inputs": [
        {
          "internalType": "uint256",
          "name": "_ticketId",
          "type": "uint256"
        },
        {
          "internalType": "uint256",
          "name": "_ticketPrice",
          "type": "uint256"
        }
      ],
      "name": "updateListedTicketPrice",
      "outputs": [],
      "stateMutability": "nonpayable",
      "type": "function"
    }
  ],
  "bytecode": "0x608060405234801561001057600080fd5b506117c8806100206000396000f3fe6080604052600436106100605760003560e01c8063113ec8ae146100655780632c8647bd14610087578063305a905a146100a757806350248853146100c75780636b6f3d95146100da57806376487bbe14610105578063deca0e2614610118575b600080fd5b34801561007157600080fd5b50610085610080366004611329565b610193565b005b34801561009357600080fd5b506100856100a2366004611342565b6102b4565b3480156100b357600080fd5b506100856100c2366004611342565b610412565b6100856100d5366004611329565b610545565b3480156100e657600080fd5b506100ef61099e565b6040516100fc919061139f565b60405180910390f35b6100856101133660046113cf565b610aa6565b34801561012457600080fd5b50610176610133366004611329565b6040805180820190915260008082526020820152506000908152600c60209081526040918290208251808401909352805483526001015460ff1615159082015290565b6040805182518152602092830151151592810192909252016100fc565b6000818152600c60209081526040918290206001908101548351606081019094526027808552859460ff90921615159092149290919061172590830139906101f75760405162461bcd60e51b81526004016101ee91906114b0565b60405180910390fd5b50813361020382611094565b6001600160a01b0316146040518060400160405280601881526020016000805160206115fa8339815191528152509061024f5760405162461bcd60e51b81526004016101ee91906114b0565b506000838152600c60205260408120818155600101805460ff1916905561027690846110a5565b7fd4e80ca4d3fedadddb72220aa4c1c59053d7edf22184eaf2eade671340958a7083336040516102a79291906114e3565b60405180910390a1505050565b6000828152600c60209081526040918290206001908101548351606081019094526027808552869460ff909216151590921492909190611725908301399061030f5760405162461bcd60e51b81526004016101ee91906114b0565b50823361031b82611094565b6001600160a01b0316146040518060400160405280601881526020016000805160206115fa833981519152815250906103675760405162461bcd60e51b81526004016101ee91906114b0565b508383806000600801600084815260200190815260200160002060030154101560405180608001604052806047815260200161174c60479139906103be5760405162461bcd60e51b81526004016101ee91906114b0565b506000868152600c602090815260409182902087905581518881529081018790527fb9aa504de20e2eac6c783af60a3a473bbd760acabd42aa44d669f257f558d6c2910160405180910390a1505050505050565b813361041d82611094565b6001600160a01b0316146040518060400160405280601881526020016000805160206115fa833981519152815250906104695760405162461bcd60e51b81526004016101ee91906114b0565b508282806000600801600084815260200190815260200160002060030154101560405180608001604052806047815260200161174c60479139906104c05760405162461bcd60e51b81526004016101ee91906114b0565b506040805180820182528581526001602080830182815260008a8152600c9092529390209151825591519101805460ff191691151591909117905561050530866110a5565b7fde87e46b75e487b146137b14d5b7fdc6d99eee53d22d99767df1c59142122fa085336040516105369291906114e3565b60405180910390a15050505050565b6000818152600c60209081526040918290206001908101548351606081019094526027808552859460ff90921615159092149290919061172590830139906105a05760405162461bcd60e51b81526004016101ee91906114b0565b506000828152600c602090815260408083208151808301909252805482526001015460ff16151591810191909152906105d884611094565b9050348260000151146040518060600160405280603881526020016116ed60389139906106185760405162461bcd60e51b81526004016101ee91906114b0565b50336001600160a01b0316816001600160a01b0316141560405180606001604052806028815260200161165960289139906106665760405162461bcd60e51b81526004016101ee91906114b0565b5060008481526006602090815260409182902054825160608101909352602e8084526001600160a01b0391909116301492916116bf90830139906106bd5760405162461bcd60e51b81526004016101ee91906114b0565b506106c9813386611196565b6000848152600c6020526040808220828155600101805460ff19169055835190516001600160a01b03841691908381818185875af1925050503d806000811461072e576040519150601f19603f3d011682016040523d82523d6000602084013e610733565b606091505b50509050806040518060600160405280603e8152602001611681603e91399061076f5760405162461bcd60e51b81526004016101ee91906114b0565b506000858152600860209081526040808320815160e08101835281546001600160401b031681526001820154938101939093526002810154918301919091526003810154606083015260048101546080830152600581015460a083015260068101805460c0840191906107e1906114fa565b80601f016020809104026020016040519081016040528092919081815260200182805461080d906114fa565b801561085a5780601f1061082f5761010080835404028352916020019161085a565b820191906000526020600020905b81548152906001019060200180831161083d57829003601f168201915b5050505050815250509050600061086f611292565b600581015460208401516040519293506000926001600160a01b03909216916108a191908b9089903390602401611534565b60408051601f198184030181529181526020820180516001600160e01b03166304e5f51b60e51b179052516108d6919061155b565b6000604051808303816000865af19150503d8060008114610913576040519150601f19603f3d011682016040523d82523d6000602084013e610918565b606091505b50509050806040518060600160405280603e8152602001611681603e9139906109545760405162461bcd60e51b81526004016101ee91906114b0565b5085516040517fbf1d45c8c2ec741a183ccfaf85eb8600c796a3a39ccf2a6182912a08e67a2e819161098c918b919089903390611534565b60405180910390a15050505050505050565b600080546060918060015b8381116109ef576000818152600c6020526040902060019081015460ff16151590036109dd57826109d98161158d565b9350505b806109e78161158d565b9150506109a9565b506000826001600160401b03811115610a0a57610a0a6113b9565b604051908082528060200260200182016040528015610a33578160200160208202803683370190505b50905060015b848111610a9d576000818152600c6020526040902060019081015460ff1615159003610a8b5780828481518110610a7257610a726115a6565b602090810291909101015282610a878161158d565b9350505b80610a958161158d565b915050610a39565b50949350505050565b6000610ab0611292565b90506000805b8351811015610bff576000600c016000858381518110610ad857610ad86115a6565b6020026020010151815260200190815260200160002060010160009054906101000a900460ff16151560011515146040518060600160405280602781526020016117256027913990610b3d5760405162461bcd60e51b81526004016101ee91906114b0565b50336001600160a01b0316610b6a858381518110610b5d57610b5d6115a6565b6020026020010151611094565b6001600160a01b031614156040518060600160405280602881526020016116596028913990610bac5760405162461bcd60e51b81526004016101ee91906114b0565b506000600c016000858381518110610bc657610bc66115a6565b602002602001015181526020019081526020016000206000015482610beb91906115bc565b915080610bf78161158d565b915050610ab6565b503481146040518060600160405280603f815260200161161a603f913990610c3a5760405162461bcd60e51b81526004016101ee91906114b0565b5060005b8351811015611062576000610c5e858381518110610b5d57610b5d6115a6565b9050600080600c016000878581518110610c7a57610c7a6115a6565b60200260200101518152602001908152602001600020600001549050306001600160a01b031660006006016000888681518110610cb957610cb96115a6565b6020026020010151815260200190815260200160002060000160009054906101000a90046001600160a01b03166001600160a01b0316146040518060600160405280602e81526020016116bf602e913990610d275760405162461bcd60e51b81526004016101ee91906114b0565b50610d4c8233888681518110610d3f57610d3f6115a6565b6020026020010151611196565b6000600c016000878581518110610d6557610d656115a6565b602090810291909101810151825281019190915260409081016000908120818155600101805460ff1916905590516001600160a01b0384169083908381818185875af1925050503d8060008114610dd8576040519150601f19603f3d011682016040523d82523d6000602084013e610ddd565b606091505b50509050806040518060600160405280603e8152602001611681603e913990610e195760405162461bcd60e51b81526004016101ee91906114b0565b506000806008016000898781518110610e3457610e346115a6565b602002602001015181526020019081526020016000206040518060e00160405290816000820160009054906101000a90046001600160401b03166001600160401b03166001600160401b031681526020016001820154815260200160028201548152602001600382015481526020016004820154815260200160058201548152602001600682018054610ec6906114fa565b80601f0160208091040260200160405190810160405280929190818152602001828054610ef2906114fa565b8015610f3f5780601f10610f1457610100808354040283529160200191610f3f565b820191906000526020600020905b815481529060010190602001808311610f2257829003601f168201915b50505091909252505050600588015460208201518a519293506000926001600160a01b03909216918b9089908110610f7957610f796115a6565b60200260200101518733604051602401610f969493929190611534565b60408051601f198184030181529181526020820180516001600160e01b03166304e5f51b60e51b17905251610fcb919061155b565b6000604051808303816000865af19150503d8060008114611008576040519150601f19603f3d011682016040523d82523d6000602084013e61100d565b606091505b50509050806040518060600160405280603e8152602001611681603e9139906110495760405162461bcd60e51b81526004016101ee91906114b0565b505050505050808061105a9061158d565b915050610c3e565b507f0c6e2ce4ff3587b6c5dc7f90f9a47036f8892b417e05c91dca63b6116e1fff5683336040516102a79291906115cf565b600061109f826112b6565b92915050565b60008181526009602052604081205460ff16156111035760405162461bcd60e51b815260206004820152601c60248201527b115490cd4c4e4c8e88151a58dad95d081a5cc81cdbdd5b189bdd5b9960221b60448201526064016101ee565b600061110e83611094565b9050336001600160a01b03821614611166576001600160a01b0381166000908152600783016020908152604080832033845290915290205460ff16611166576040516367d9dca160e11b815260040160405180910390fd5b5060009182526006016020526040902080546001600160a01b0319166001600160a01b0392909216919091179055565b6000806111a2836112b6565b9050846001600160a01b0316816001600160a01b0316146111d55760405162a1148160e81b815260040160405180910390fd5b6000838152600660205260409020805480156111f057600082555b6001600160a01b0387811660009081526005860160205260408082208054600019019055918816808252919020805460010190554260a01b17600160e11b176000868152600486016020526040812091909155600160e11b84169003611289576001850160008181526004860160205260408120549003611287578454811461128757600081815260048601602052604090208490555b505b50505050505050565b7fc8fcad8db84d3cc18b4c41d551ea0ee66dd599cde068d998e57d5e09332c131c90565b60008082815481101561131057600081815260048301602052604081205490600160e01b8216900361130e575b8060000361130657506000190160008181526004830160205260409020546112e3565b949350505050565b505b604051636f96cda160e11b815260040160405180910390fd5b60006020828403121561133b57600080fd5b5035919050565b6000806040838503121561135557600080fd5b50508035926020909101359150565b600081518084526020808501945080840160005b8381101561139457815187529582019590820190600101611378565b509495945050505050565b6020815260006113b26020830184611364565b9392505050565b634e487b7160e01b600052604160045260246000fd5b600060208083850312156113e257600080fd5b82356001600160401b03808211156113f957600080fd5b818501915085601f83011261140d57600080fd5b81358181111561141f5761141f6113b9565b8060051b604051601f19603f83011681018181108582111715611444576114446113b9565b60405291825284820192508381018501918883111561146257600080fd5b938501935b8285101561148057843584529385019392850192611467565b98975050505050505050565b60005b838110156114a757818101518382015260200161148f565b50506000910152565b60208152600082518060208401526114cf81604085016020870161148c565b601f01601f19169190910160400192915050565b9182526001600160a01b0316602082015260400190565b600181811c9082168061150e57607f821691505b60208210810361152e57634e487b7160e01b600052602260045260246000fd5b50919050565b93845260208401929092526001600160a01b03908116604084015216606082015260800190565b6000825161156d81846020870161148c565b9190910192915050565b634e487b7160e01b600052601160045260246000fd5b60006001820161159f5761159f611577565b5060010190565b634e487b7160e01b600052603260045260246000fd5b8082018082111561109f5761109f611577565b6040815260006115e26040830185611364565b905060018060a01b0383166020830152939250505056fe455243353530373a204e6f7420746f6b656e206f776e657200000000000000005469636b65744d61726b6574706c6163653a20546f74616c2070726963652073656e7420616e64207469636b657473207072696365206e6f74206d617463685469636b65744d61726b6574706c6163653a2043616e277420627579206f776e207469636b6574735469636b65744d61726b6574706c6163653a204661696c656420746f2073656e6420457468657220746f20746865206f776e6572206f66207469636b65745469636b65744d61726b6574706c6163653a204d61726b6574706c616365206973206e6f7420617070726f7665645469636b65744d61726b6574706c6163653a2050726963652073656e7420616e64207469636b6574207072696365206e6f74206d617463685469636b65744d61726b6574706c6163653a205469636b6574206973206e6f74206c69737465645469636b65744d61726b6574706c6163653a205469636b65742070726963652063616e277420626520686967686572207468616e20746865206f726967696e616c207072696365a2646970667358221220a08157a6d07e64317ef6ddc176fabd128d831829038ab8f3c4887dc4deafbc4864736f6c63430008110033",
  "linkReferences": {},
  "deployedLinkReferences": {}
}