{
  "_format": "hh-sol-artifact-1",
  "contractName": "TicketMarketplaceFacet",
  "sourceName": "contracts/TicketDiamond/facets/TicketMarketplaceFacet.sol",
  "abi": [
    {
      "inputs": [],
      "name": "ApprovalCallerNotOwnerNorApproved",
      "type": "error"
    },
    {
      "inputs": [],
      "name": "OwnerQueryForNonexistentToken",
      "type": "error"
    },
    {
      "inputs": [],
      "name": "TransferFromIncorrectOwner",
      "type": "error"
    },
    {
      "anonymous": false,
      "inputs": [
        {
          "indexed": false,
          "internalType": "uint256",
          "name": "ticketId",
          "type": "uint256"
        },
        {
          "indexed": false,
          "internalType": "uint256",
          "name": "price",
          "type": "uint256"
        },
        {
          "indexed": false,
          "internalType": "address",
          "name": "seller",
          "type": "address"
        },
        {
          "indexed": false,
          "internalType": "address",
          "name": "buyer",
          "type": "address"
        }
      ],
      "name": "BoughtListedTicket",
      "type": "event"
    },
    {
      "anonymous": false,
      "inputs": [
        {
          "indexed": false,
          "internalType": "uint256",
          "name": "ticketId",
          "type": "uint256"
        },
        {
          "indexed": false,
          "internalType": "address",
          "name": "owner",
          "type": "address"
        }
      ],
      "name": "CanceledListedTicket",
      "type": "event"
    },
    {
      "anonymous": false,
      "inputs": [
        {
          "indexed": false,
          "internalType": "uint256[]",
          "name": "ticketIds",
          "type": "uint256[]"
        },
        {
          "indexed": false,
          "internalType": "address",
          "name": "buyer",
          "type": "address"
        }
      ],
      "name": "MultipleTicketsBought",
      "type": "event"
    },
    {
      "anonymous": false,
      "inputs": [
        {
          "indexed": false,
          "internalType": "uint256",
          "name": "ticketId",
          "type": "uint256"
        },
        {
          "indexed": false,
          "internalType": "address",
          "name": "seller",
          "type": "address"
        }
      ],
      "name": "TicketListed",
      "type": "event"
    },
    {
      "anonymous": false,
      "inputs": [
        {
          "indexed": false,
          "internalType": "uint256",
          "name": "ticketId",
          "type": "uint256"
        },
        {
          "indexed": false,
          "internalType": "uint256",
          "name": "newPrice",
          "type": "uint256"
        }
      ],
      "name": "UpdatedListedTicketPrice",
      "type": "event"
    },
    {
      "inputs": [
        {
          "internalType": "uint256",
          "name": "_ticketId",
          "type": "uint256"
        }
      ],
      "name": "buyListedTicket",
      "outputs": [],
      "stateMutability": "payable",
      "type": "function"
    },
    {
      "inputs": [
        {
          "internalType": "uint256[]",
          "name": "_ticketIds",
          "type": "uint256[]"
        }
      ],
      "name": "buyMultipleListedTickets",
      "outputs": [],
      "stateMutability": "payable",
      "type": "function"
    },
    {
      "inputs": [
        {
          "internalType": "uint256",
          "name": "_ticketId",
          "type": "uint256"
        }
      ],
      "name": "cancelListedTicket",
      "outputs": [],
      "stateMutability": "nonpayable",
      "type": "function"
    },
    {
      "inputs": [],
      "name": "fetchAllListedTicketIds",
      "outputs": [
        {
          "internalType": "uint256[]",
          "name": "",
          "type": "uint256[]"
        }
      ],
      "stateMutability": "view",
      "type": "function"
    },
    {
      "inputs": [
        {
          "internalType": "uint256",
          "name": "_ticketId",
          "type": "uint256"
        }
      ],
      "name": "getListedTicketById",
      "outputs": [
        {
          "components": [
            {
              "internalType": "uint256",
              "name": "price",
              "type": "uint256"
            },
            {
              "internalType": "bool",
              "name": "isListed",
              "type": "bool"
            }
          ],
          "internalType": "struct ITicketMarketplace.ListedTicket",
          "name": "listedTicket",
          "type": "tuple"
        }
      ],
      "stateMutability": "view",
      "type": "function"
    },
    {
      "inputs": [
        {
          "internalType": "uint256",
          "name": "_ticketId",
          "type": "uint256"
        },
        {
          "internalType": "uint256",
          "name": "_ticketPrice",
          "type": "uint256"
        }
      ],
      "name": "listTicket",
      "outputs": [],
      "stateMutability": "nonpayable",
      "type": "function"
    },
    {
      "inputs": [
        {
          "internalType": "uint256",
          "name": "_ticketId",
          "type": "uint256"
        },
        {
          "internalType": "uint256",
          "name": "_ticketPrice",
          "type": "uint256"
        }
      ],
      "name": "updateListedTicketPrice",
      "outputs": [],
      "stateMutability": "nonpayable",
      "type": "function"
    }
  ],
  "bytecode": "0x608060405234801561001057600080fd5b50611552806100206000396000f3fe6080604052600436106100605760003560e01c8063113ec8ae146100655780632c8647bd14610087578063305a905a146100a757806350248853146100c75780636b6f3d95146100da57806376487bbe14610105578063deca0e2614610118575b600080fd5b34801561007157600080fd5b506100856100803660046110b3565b610193565b005b34801561009357600080fd5b506100856100a23660046110cc565b6102b4565b3480156100b357600080fd5b506100856100c23660046110cc565b610412565b6100856100d53660046110b3565b610545565b3480156100e657600080fd5b506100ef61097e565b6040516100fc9190611129565b60405180910390f35b610085610113366004611159565b610a86565b34801561012457600080fd5b506101766101333660046110b3565b6040805180820190915260008082526020820152506000908152600c60209081526040918290208251808401909352805483526001015460ff1615159082015290565b6040805182518152602092830151151592810192909252016100fc565b6000818152600c60209081526040918290206001908101548351606081019094526027808552859460ff9092161515909214929091906114af90830139906101f75760405162461bcd60e51b81526004016101ee919061123a565b60405180910390fd5b50813361020382610e42565b6001600160a01b0316146040518060400160405280601881526020016000805160206113848339815191528152509061024f5760405162461bcd60e51b81526004016101ee919061123a565b506000838152600c60205260408120818155600101805460ff191690556102769084610e53565b7fd4e80ca4d3fedadddb72220aa4c1c59053d7edf22184eaf2eade671340958a7083336040516102a792919061126d565b60405180910390a1505050565b6000828152600c60209081526040918290206001908101548351606081019094526027808552869460ff9092161515909214929091906114af908301399061030f5760405162461bcd60e51b81526004016101ee919061123a565b50823361031b82610e42565b6001600160a01b031614604051806040016040528060188152602001600080516020611384833981519152815250906103675760405162461bcd60e51b81526004016101ee919061123a565b50838380600060080160008481526020019081526020016000206003015410156040518060800160405280604781526020016114d660479139906103be5760405162461bcd60e51b81526004016101ee919061123a565b506000868152600c602090815260409182902087905581518881529081018790527fb9aa504de20e2eac6c783af60a3a473bbd760acabd42aa44d669f257f558d6c2910160405180910390a1505050505050565b813361041d82610e42565b6001600160a01b031614604051806040016040528060188152602001600080516020611384833981519152815250906104695760405162461bcd60e51b81526004016101ee919061123a565b50828280600060080160008481526020019081526020016000206003015410156040518060800160405280604781526020016114d660479139906104c05760405162461bcd60e51b81526004016101ee919061123a565b506040805180820182528581526001602080830182815260008a8152600c9092529390209151825591519101805460ff19169115159190911790556105053086610e53565b7fde87e46b75e487b146137b14d5b7fdc6d99eee53d22d99767df1c59142122fa0853360405161053692919061126d565b60405180910390a15050505050565b6000818152600c60209081526040918290206001908101548351606081019094526027808552859460ff9092161515909214929091906114af90830139906105a05760405162461bcd60e51b81526004016101ee919061123a565b506000828152600c602090815260408083208151808301909252805482526001015460ff16151591810191909152906105d884610e42565b90503482600001511460405180606001604052806038815260200161147760389139906106185760405162461bcd60e51b81526004016101ee919061123a565b50336001600160a01b0316816001600160a01b031614156040518060600160405280602881526020016113e360289139906106665760405162461bcd60e51b81526004016101ee919061123a565b5060008481526006602090815260409182902054825160608101909352602e8084526001600160a01b03919091163014929161144990830139906106bd5760405162461bcd60e51b81526004016101ee919061123a565b506106c9813386610f44565b6000848152600c6020526040808220828155600101805460ff19169055835190516001600160a01b03841691908381818185875af1925050503d806000811461072e576040519150601f19603f3d011682016040523d82523d6000602084013e610733565b606091505b50509050806040518060600160405280603e815260200161140b603e91399061076f5760405162461bcd60e51b81526004016101ee919061123a565b506000858152600860209081526040808320815160e08101835281546001600160401b031681526001820154938101939093526002810154918301919091526003810154606083015260048101546080830152600581015460a083015260068101805460c0840191906107e190611284565b80601f016020809104026020016040519081016040528092919081815260200182805461080d90611284565b801561085a5780601f1061082f5761010080835404028352916020019161085a565b820191906000526020600020905b81548152906001019060200180831161083d57829003601f168201915b5050505050815250509050600061088e7fc8fcad8db84d3cc18b4c41d551ea0ee66dd599cde068d998e57d5e09332c131c90565b600581015460208401516040519293506001600160a01b03909116916108bd91908a90889033906024016112be565b60408051601f198184030181529181526020820180516001600160e01b03166304e5f51b60e51b179052516108f291906112e5565b6000604051808303816000865af19150503d806000811461092f576040519150601f19603f3d011682016040523d82523d6000602084013e610934565b606091505b505085516040517fbf1d45c8c2ec741a183ccfaf85eb8600c796a3a39ccf2a6182912a08e67a2e81925061096d918a91889033906112be565b60405180910390a150505050505050565b600080546060918060015b8381116109cf576000818152600c6020526040902060019081015460ff16151590036109bd57826109b981611317565b9350505b806109c781611317565b915050610989565b506000826001600160401b038111156109ea576109ea611143565b604051908082528060200260200182016040528015610a13578160200160208202803683370190505b50905060015b848111610a7d576000818152600c6020526040902060019081015460ff1615159003610a6b5780828481518110610a5257610a52611330565b602090810291909101015282610a6781611317565b9350505b80610a7581611317565b915050610a19565b50949350505050565b6000805b8251811015610bd3576000600c016000848381518110610aac57610aac611330565b6020026020010151815260200190815260200160002060010160009054906101000a900460ff16151560011515146040518060600160405280602781526020016114af6027913990610b115760405162461bcd60e51b81526004016101ee919061123a565b50336001600160a01b0316610b3e848381518110610b3157610b31611330565b6020026020010151610e42565b6001600160a01b031614156040518060600160405280602881526020016113e36028913990610b805760405162461bcd60e51b81526004016101ee919061123a565b506000600c016000848381518110610b9a57610b9a611330565b602002602001015181526020019081526020016000206000015482610bbf9190611346565b915080610bcb81611317565b915050610a8a565b503481146040518060600160405280603f81526020016113a4603f913990610c0e5760405162461bcd60e51b81526004016101ee919061123a565b5060005b8251811015610e04576000610c32848381518110610b3157610b31611330565b9050600080600c016000868581518110610c4e57610c4e611330565b60200260200101518152602001908152602001600020600001549050306001600160a01b031660006006016000878681518110610c8d57610c8d611330565b6020026020010151815260200190815260200160002060000160009054906101000a90046001600160a01b03166001600160a01b0316146040518060600160405280602e8152602001611449602e913990610cfb5760405162461bcd60e51b81526004016101ee919061123a565b50610d208233878681518110610d1357610d13611330565b6020026020010151610f44565b6000600c016000868581518110610d3957610d39611330565b602090810291909101810151825281019190915260409081016000908120818155600101805460ff1916905590516001600160a01b0384169083908381818185875af1925050503d8060008114610dac576040519150601f19603f3d011682016040523d82523d6000602084013e610db1565b606091505b50509050806040518060600160405280603e815260200161140b603e913990610ded5760405162461bcd60e51b81526004016101ee919061123a565b505050508080610dfc90611317565b915050610c12565b507f0c6e2ce4ff3587b6c5dc7f90f9a47036f8892b417e05c91dca63b6116e1fff568233604051610e36929190611359565b60405180910390a15050565b6000610e4d82611040565b92915050565b60008181526009602052604081205460ff1615610eb15760405162461bcd60e51b815260206004820152601c60248201527b115490cd4c4e4c8e88151a58dad95d081a5cc81cdbdd5b189bdd5b9960221b60448201526064016101ee565b6000610ebc83610e42565b9050336001600160a01b03821614610f14576001600160a01b0381166000908152600783016020908152604080832033845290915290205460ff16610f14576040516367d9dca160e11b815260040160405180910390fd5b5060009182526006016020526040902080546001600160a01b0319166001600160a01b0392909216919091179055565b600080610f5083611040565b9050846001600160a01b0316816001600160a01b031614610f835760405162a1148160e81b815260040160405180910390fd5b600083815260066020526040902080548015610f9e57600082555b6001600160a01b0387811660009081526005860160205260408082208054600019019055918816808252919020805460010190554260a01b17600160e11b176000868152600486016020526040812091909155600160e11b84169003611037576001850160008181526004860160205260408120549003611035578454811461103557600081815260048601602052604090208490555b505b50505050505050565b60008082815481101561109a57600081815260048301602052604081205490600160e01b82169003611098575b80600003611090575060001901600081815260048301602052604090205461106d565b949350505050565b505b604051636f96cda160e11b815260040160405180910390fd5b6000602082840312156110c557600080fd5b5035919050565b600080604083850312156110df57600080fd5b50508035926020909101359150565b600081518084526020808501945080840160005b8381101561111e57815187529582019590820190600101611102565b509495945050505050565b60208152600061113c60208301846110ee565b9392505050565b634e487b7160e01b600052604160045260246000fd5b6000602080838503121561116c57600080fd5b82356001600160401b038082111561118357600080fd5b818501915085601f83011261119757600080fd5b8135818111156111a9576111a9611143565b8060051b604051601f19603f830116810181811085821117156111ce576111ce611143565b6040529182528482019250838101850191888311156111ec57600080fd5b938501935b8285101561120a578435845293850193928501926111f1565b98975050505050505050565b60005b83811015611231578181015183820152602001611219565b50506000910152565b6020815260008251806020840152611259816040850160208701611216565b601f01601f19169190910160400192915050565b9182526001600160a01b0316602082015260400190565b600181811c9082168061129857607f821691505b6020821081036112b857634e487b7160e01b600052602260045260246000fd5b50919050565b93845260208401929092526001600160a01b03908116604084015216606082015260800190565b600082516112f7818460208701611216565b9190910192915050565b634e487b7160e01b600052601160045260246000fd5b60006001820161132957611329611301565b5060010190565b634e487b7160e01b600052603260045260246000fd5b80820180821115610e4d57610e4d611301565b60408152600061136c60408301856110ee565b905060018060a01b0383166020830152939250505056fe455243353530373a204e6f7420746f6b656e206f776e657200000000000000005469636b65744d61726b6574706c6163653a20546f74616c2070726963652073656e7420616e64207469636b657473207072696365206e6f74206d617463685469636b65744d61726b6574706c6163653a2043616e277420627579206f776e207469636b6574735469636b65744d61726b6574706c6163653a204661696c656420746f2073656e6420457468657220746f20746865206f776e6572206f66207469636b65745469636b65744d61726b6574706c6163653a204d61726b6574706c616365206973206e6f7420617070726f7665645469636b65744d61726b6574706c6163653a2050726963652073656e7420616e64207469636b6574207072696365206e6f74206d617463685469636b65744d61726b6574706c6163653a205469636b6574206973206e6f74206c69737465645469636b65744d61726b6574706c6163653a205469636b65742070726963652063616e277420626520686967686572207468616e20746865206f726967696e616c207072696365a264697066735822122064baef56e1b1e83292dadc336b73b416c9e39e265671a723832d19eda0cdcaa964736f6c63430008110033",
  "linkReferences": {},
  "deployedLinkReferences": {}
}