{
  "_format": "hh-sol-artifact-1",
  "contractName": "TicketMarketplaceFacet",
  "sourceName": "contracts/TicketDiamond/facets/TicketMarketplaceFacet.sol",
  "abi": [
    {
      "inputs": [],
      "name": "ApprovalCallerNotOwnerNorApproved",
      "type": "error"
    },
    {
      "inputs": [],
      "name": "OwnerQueryForNonexistentToken",
      "type": "error"
    },
    {
      "inputs": [],
      "name": "TransferFromIncorrectOwner",
      "type": "error"
    },
    {
      "anonymous": false,
      "inputs": [
        {
          "indexed": false,
          "internalType": "uint256",
          "name": "ticketId",
          "type": "uint256"
        },
        {
          "indexed": false,
          "internalType": "uint256",
          "name": "price",
          "type": "uint256"
        },
        {
          "indexed": false,
          "internalType": "address",
          "name": "seller",
          "type": "address"
        },
        {
          "indexed": false,
          "internalType": "address",
          "name": "buyer",
          "type": "address"
        }
      ],
      "name": "BoughtListedTicket",
      "type": "event"
    },
    {
      "anonymous": false,
      "inputs": [
        {
          "indexed": false,
          "internalType": "uint256",
          "name": "ticketId",
          "type": "uint256"
        },
        {
          "indexed": false,
          "internalType": "address",
          "name": "owner",
          "type": "address"
        }
      ],
      "name": "CanceledListedTicket",
      "type": "event"
    },
    {
      "anonymous": false,
      "inputs": [
        {
          "indexed": false,
          "internalType": "uint256[]",
          "name": "ticketIds",
          "type": "uint256[]"
        },
        {
          "indexed": false,
          "internalType": "address",
          "name": "buyer",
          "type": "address"
        }
      ],
      "name": "MultipleTicketsBought",
      "type": "event"
    },
    {
      "anonymous": false,
      "inputs": [
        {
          "indexed": false,
          "internalType": "uint256",
          "name": "ticketId",
          "type": "uint256"
        },
        {
          "indexed": false,
          "internalType": "address",
          "name": "seller",
          "type": "address"
        }
      ],
      "name": "TicketListed",
      "type": "event"
    },
    {
      "anonymous": false,
      "inputs": [
        {
          "indexed": false,
          "internalType": "uint256",
          "name": "ticketId",
          "type": "uint256"
        },
        {
          "indexed": false,
          "internalType": "uint256",
          "name": "newPrice",
          "type": "uint256"
        }
      ],
      "name": "UpdatedListedTicketPrice",
      "type": "event"
    },
    {
      "inputs": [
        {
          "internalType": "uint256",
          "name": "_ticketId",
          "type": "uint256"
        }
      ],
      "name": "buyListedTicket",
      "outputs": [],
      "stateMutability": "payable",
      "type": "function"
    },
    {
      "inputs": [
        {
          "internalType": "uint256[]",
          "name": "_ticketIds",
          "type": "uint256[]"
        }
      ],
      "name": "buyMultipleListedTickets",
      "outputs": [],
      "stateMutability": "payable",
      "type": "function"
    },
    {
      "inputs": [
        {
          "internalType": "uint256",
          "name": "_ticketId",
          "type": "uint256"
        }
      ],
      "name": "cancelListedTicket",
      "outputs": [],
      "stateMutability": "nonpayable",
      "type": "function"
    },
    {
      "inputs": [],
      "name": "fetchAllListedTicketIds",
      "outputs": [
        {
          "internalType": "uint256[]",
          "name": "",
          "type": "uint256[]"
        }
      ],
      "stateMutability": "view",
      "type": "function"
    },
    {
      "inputs": [
        {
          "internalType": "uint256",
          "name": "_ticketId",
          "type": "uint256"
        }
      ],
      "name": "getListedTicketById",
      "outputs": [
        {
          "components": [
            {
              "internalType": "uint256",
              "name": "price",
              "type": "uint256"
            },
            {
              "internalType": "bool",
              "name": "isListed",
              "type": "bool"
            }
          ],
          "internalType": "struct ITicketMarketplace.ListedTicket",
          "name": "listedTicket",
          "type": "tuple"
        }
      ],
      "stateMutability": "view",
      "type": "function"
    },
    {
      "inputs": [
        {
          "internalType": "uint256",
          "name": "_ticketId",
          "type": "uint256"
        },
        {
          "internalType": "uint256",
          "name": "_ticketPrice",
          "type": "uint256"
        }
      ],
      "name": "listTicket",
      "outputs": [],
      "stateMutability": "nonpayable",
      "type": "function"
    },
    {
      "inputs": [
        {
          "internalType": "uint256",
          "name": "_feePercentageInBps",
          "type": "uint256"
        }
      ],
      "name": "setTicketFeePercentage",
      "outputs": [],
      "stateMutability": "nonpayable",
      "type": "function"
    },
    {
      "inputs": [
        {
          "internalType": "uint256",
          "name": "_ticketId",
          "type": "uint256"
        },
        {
          "internalType": "uint256",
          "name": "_ticketPrice",
          "type": "uint256"
        }
      ],
      "name": "updateListedTicketPrice",
      "outputs": [],
      "stateMutability": "nonpayable",
      "type": "function"
    },
    {
      "inputs": [],
      "name": "withdrawFees",
      "outputs": [],
      "stateMutability": "nonpayable",
      "type": "function"
    }
  ],
  "bytecode": "0x608060405234801561001057600080fd5b50611b26806100206000396000f3fe6080604052600436106100765760003560e01c8063113ec8ae1461007b5780632c8647bd1461009d578063305a905a146100bd578063476343ee146100dd57806350248853146100f257806356a61c8e146101055780636b6f3d951461012557806376487bbe14610150578063deca0e2614610163575b600080fd5b34801561008757600080fd5b5061009b6100963660046115f0565b6101de565b005b3480156100a957600080fd5b5061009b6100b8366004611609565b6102ff565b3480156100c957600080fd5b5061009b6100d8366004611609565b61045d565b3480156100e957600080fd5b5061009b610590565b61009b6101003660046115f0565b61063b565b34801561011157600080fd5b5061009b6101203660046115f0565b610ad8565b34801561013157600080fd5b5061013a610b23565b6040516101479190611666565b60405180910390f35b61009b61015e36600461168f565b610c2a565b34801561016f57600080fd5b506101c161017e3660046115f0565b6040805180820190915260008082526020820152506000908152600c60209081526040918290208251808401909352805483526001015460ff1615159082015290565b604080518251815260209283015115159281019290925201610147565b6000818152600c60209081526040918290206001908101548351606081019094526027808552859460ff909216151590921492909190611a8390830139906102425760405162461bcd60e51b81526004016102399190611770565b60405180910390fd5b50813361024e82611254565b6001600160a01b0316146040518060400160405280601881526020016000805160206119588339815191528152509061029a5760405162461bcd60e51b81526004016102399190611770565b506000838152600c60205260408120818155600101805460ff191690556102c19084611265565b7fd4e80ca4d3fedadddb72220aa4c1c59053d7edf22184eaf2eade671340958a7083336040516102f29291906117a3565b60405180910390a1505050565b6000828152600c60209081526040918290206001908101548351606081019094526027808552869460ff909216151590921492909190611a83908301399061035a5760405162461bcd60e51b81526004016102399190611770565b50823361036682611254565b6001600160a01b031614604051806040016040528060188152602001600080516020611958833981519152815250906103b25760405162461bcd60e51b81526004016102399190611770565b5083838060006008016000848152602001908152602001600020600301541015604051806080016040528060478152602001611aaa60479139906104095760405162461bcd60e51b81526004016102399190611770565b506000868152600c602090815260409182902087905581518881529081018790527fb9aa504de20e2eac6c783af60a3a473bbd760acabd42aa44d669f257f558d6c2910160405180910390a1505050505050565b813361046882611254565b6001600160a01b031614604051806040016040528060188152602001600080516020611958833981519152815250906104b45760405162461bcd60e51b81526004016102399190611770565b5082828060006008016000848152602001908152602001600020600301541015604051806080016040528060478152602001611aaa604791399061050b5760405162461bcd60e51b81526004016102399190611770565b506040805180820182528581526001602080830182815260008a8152600c9092529390209151825591519101805460ff19169115159190911790556105503086611265565b7fde87e46b75e487b146137b14d5b7fdc6d99eee53d22d99767df1c59142122fa085336040516105819291906117a3565b60405180910390a15050505050565b610598611356565b600e8054600091829055906105ab6113cc565b6001600160a01b03168260405160006040518083038185875af1925050503d80600081146105f5576040519150601f19603f3d011682016040523d82523d6000602084013e6105fa565b606091505b505090508060405180606001604052806026815260200161193260269139906106365760405162461bcd60e51b81526004016102399190611770565b505050565b6000818152600c60209081526040918290206001908101548351606081019094526027808552859460ff909216151590921492909190611a8390830139906106965760405162461bcd60e51b81526004016102399190611770565b506000828152600c602090815260408083208151808301909252805482526001015460ff16151591810191909152906106ce84611254565b905034826000015114604051806060016040528060388152602001611a4b603891399061070e5760405162461bcd60e51b81526004016102399190611770565b50336001600160a01b0316816001600160a01b031614156040518060600160405280602881526020016119b7602891399061075c5760405162461bcd60e51b81526004016102399190611770565b5060008481526006602090815260409182902054825160608101909352602e8084526001600160a01b039190911630149291611a1d90830139906107b35760405162461bcd60e51b81526004016102399190611770565b506107bf8133866113e8565b6000848152600c60205260408120818155600101805460ff19169055600d5490811561080e5783516107f190836114e4565b9050806000600e01600082825461080891906117d0565b90915550505b6000836001600160a01b031682866000015161082a91906117e3565b604051600081818185875af1925050503d8060008114610866576040519150601f19603f3d011682016040523d82523d6000602084013e61086b565b606091505b50509050806040518060600160405280603e81526020016119df603e9139906108a75760405162461bcd60e51b81526004016102399190611770565b506000878152600860209081526040808320815160e08101835281546001600160401b031681526001820154938101939093526002810154918301919091526003810154606083015260048101546080830152600581015460a083015260068101805460c084019190610919906117f6565b80601f0160208091040260200160405190810160405280929190818152602001828054610945906117f6565b80156109925780601f1061096757610100808354040283529160200191610992565b820191906000526020600020905b81548152906001019060200180831161097557829003601f168201915b505050505081525050905060006109a7611559565b600581015460208401516040519293506000926001600160a01b03909216916109d991908d908b903390602401611830565b60408051601f198184030181529181526020820180516001600160e01b03166304e5f51b60e51b17905251610a0e9190611857565b6000604051808303816000865af19150503d8060008114610a4b576040519150601f19603f3d011682016040523d82523d6000602084013e610a50565b606091505b50509050806040518060600160405280603e81526020016119df603e913990610a8c5760405162461bcd60e51b81526004016102399190611770565b5087516040517fbf1d45c8c2ec741a183ccfaf85eb8600c796a3a39ccf2a6182912a08e67a2e8191610ac4918d91908b903390611830565b60405180910390a150505050505050505050565b6127108111156040518060600160405280602c8152602001611906602c913990610b155760405162461bcd60e51b81526004016102399190611770565b50610b1e611356565b600d55565b6000805460609180805b838111610b73576000818152600c6020526040902060019081015460ff1615159003610b615782610b5d81611873565b9350505b80610b6b81611873565b915050610b2d565b506000826001600160401b03811115610b8e57610b8e611679565b604051908082528060200260200182016040528015610bb7578160200160208202803683370190505b50905060005b848111610c21576000818152600c6020526040902060019081015460ff1615159003610c0f5780828481518110610bf657610bf661188c565b602090810291909101015282610c0b81611873565b9350505b80610c1981611873565b915050610bbd565b50949350505050565b6000610c34611559565b90506000805b8351811015610d83576000600c016000858381518110610c5c57610c5c61188c565b6020026020010151815260200190815260200160002060010160009054906101000a900460ff1615156001151514604051806060016040528060278152602001611a836027913990610cc15760405162461bcd60e51b81526004016102399190611770565b50336001600160a01b0316610cee858381518110610ce157610ce161188c565b6020026020010151611254565b6001600160a01b031614156040518060600160405280602881526020016119b76028913990610d305760405162461bcd60e51b81526004016102399190611770565b506000600c016000858381518110610d4a57610d4a61188c565b602002602001015181526020019081526020016000206000015482610d6f91906117d0565b915080610d7b81611873565b915050610c3a565b503481146040518060600160405280603f8152602001611978603f913990610dbe5760405162461bcd60e51b81526004016102399190611770565b5060005b8351811015611222576000610de2858381518110610ce157610ce161188c565b9050600080600c016000878581518110610dfe57610dfe61188c565b60200260200101518152602001908152602001600020600001549050306001600160a01b031660006006016000888681518110610e3d57610e3d61188c565b6020026020010151815260200190815260200160002060000160009054906101000a90046001600160a01b03166001600160a01b0316146040518060600160405280602e8152602001611a1d602e913990610eab5760405162461bcd60e51b81526004016102399190611770565b50610ed08233888681518110610ec357610ec361188c565b60200260200101516113e8565b6000600c016000878581518110610ee957610ee961188c565b60209081029190910181015182528101919091526040016000908120818155600101805460ff19169055600d54908115610f4457610f2783836114e4565b9050806000600e016000828254610f3e91906117d0565b90915550505b60006001600160a01b038516610f5a83866117e3565b604051600081818185875af1925050503d8060008114610f96576040519150601f19603f3d011682016040523d82523d6000602084013e610f9b565b606091505b50509050806040518060600160405280603e81526020016119df603e913990610fd75760405162461bcd60e51b81526004016102399190611770565b5060008060080160008b8981518110610ff257610ff261188c565b602002602001015181526020019081526020016000206040518060e00160405290816000820160009054906101000a90046001600160401b03166001600160401b03166001600160401b031681526020016001820154815260200160028201548152602001600382015481526020016004820154815260200160058201548152602001600682018054611084906117f6565b80601f01602080910402602001604051908101604052809291908181526020018280546110b0906117f6565b80156110fd5780601f106110d2576101008083540402835291602001916110fd565b820191906000526020600020905b8154815290600101906020018083116110e057829003601f168201915b5050509190925250505060058a015460208201518c519293506000926001600160a01b03909216918d908b9081106111375761113761188c565b602002602001015189336040516024016111549493929190611830565b60408051601f198184030181529181526020820180516001600160e01b03166304e5f51b60e51b179052516111899190611857565b6000604051808303816000865af19150503d80600081146111c6576040519150601f19603f3d011682016040523d82523d6000602084013e6111cb565b606091505b50509050806040518060600160405280603e81526020016119df603e9139906112075760405162461bcd60e51b81526004016102399190611770565b5050505050505050808061121a90611873565b915050610dc2565b507f0c6e2ce4ff3587b6c5dc7f90f9a47036f8892b417e05c91dca63b6116e1fff5683336040516102f29291906118a2565b600061125f8261157d565b92915050565b60008181526009602052604081205460ff16156112c35760405162461bcd60e51b815260206004820152601c60248201527b115490cd4c4e4c8e88151a58dad95d081a5cc81cdbdd5b189bdd5b9960221b6044820152606401610239565b60006112ce83611254565b9050336001600160a01b03821614611326576001600160a01b0381166000908152600783016020908152604080832033845290915290205460ff16611326576040516367d9dca160e11b815260040160405180910390fd5b5060009182526006016020526040902080546001600160a01b0319166001600160a01b0392909216919091179055565b61135e611559565b600401546001600160a01b031633146113ca5760405162461bcd60e51b815260206004820152602860248201527f4c69625469636b65744469616d6f6e643a204d75737420626520636f6e74726160448201526731ba1037bbb732b960c11b6064820152608401610239565b565b60006113d6611559565b600401546001600160a01b0316919050565b6000806113f48361157d565b9050846001600160a01b0316816001600160a01b0316146114275760405162a1148160e81b815260040160405180910390fd5b60008381526006602052604090208054801561144257600082555b6001600160a01b0387811660009081526005860160205260408082208054600019019055918816808252919020805460010190554260a01b17600160e11b176000868152600486016020526040812091909155600160e11b841690036114db5760018501600081815260048601602052604081205490036114d957845481146114d957600081815260048601602052604090208490555b505b50505050505050565b60006127106114f383856118cc565b101561153b5760405162461bcd60e51b8152602060048201526017602482015276050657263656e746167653a20526f756e647320746f203604c1b6044820152606401610239565b61271061154883856118cc565b61155291906118e3565b9392505050565b7fc8fcad8db84d3cc18b4c41d551ea0ee66dd599cde068d998e57d5e09332c131c90565b6000808281548110156115d757600081815260048301602052604081205490600160e01b821690036115d5575b806000036115cd57506000190160008181526004830160205260409020546115aa565b949350505050565b505b604051636f96cda160e11b815260040160405180910390fd5b60006020828403121561160257600080fd5b5035919050565b6000806040838503121561161c57600080fd5b50508035926020909101359150565b600081518084526020808501945080840160005b8381101561165b5781518752958201959082019060010161163f565b509495945050505050565b602081526000611552602083018461162b565b634e487b7160e01b600052604160045260246000fd5b600060208083850312156116a257600080fd5b82356001600160401b03808211156116b957600080fd5b818501915085601f8301126116cd57600080fd5b8135818111156116df576116df611679565b8060051b604051601f19603f8301168101818110858211171561170457611704611679565b60405291825284820192508381018501918883111561172257600080fd5b938501935b8285101561174057843584529385019392850192611727565b98975050505050505050565b60005b8381101561176757818101518382015260200161174f565b50506000910152565b602081526000825180602084015261178f81604085016020870161174c565b601f01601f19169190910160400192915050565b9182526001600160a01b0316602082015260400190565b634e487b7160e01b600052601160045260246000fd5b8082018082111561125f5761125f6117ba565b8181038181111561125f5761125f6117ba565b600181811c9082168061180a57607f821691505b60208210810361182a57634e487b7160e01b600052602260045260246000fd5b50919050565b93845260208401929092526001600160a01b03908116604084015216606082015260800190565b6000825161186981846020870161174c565b9190910192915050565b600060018201611885576118856117ba565b5060010190565b634e487b7160e01b600052603260045260246000fd5b6040815260006118b5604083018561162b565b905060018060a01b03831660208301529392505050565b808202811582820484141761125f5761125f6117ba565b60008261190057634e487b7160e01b600052601260045260246000fd5b50049056fe5469636b65744d61726b6574706c6163653a204665652070657263656e74616765206d61782031305f3030305469636b65744d61726b6574706c6163653a2043616e27742077697468647261772066656573455243353530373a204e6f7420746f6b656e206f776e657200000000000000005469636b65744d61726b6574706c6163653a20546f74616c2070726963652073656e7420616e64207469636b657473207072696365206e6f74206d617463685469636b65744d61726b6574706c6163653a2043616e277420627579206f776e207469636b6574735469636b65744d61726b6574706c6163653a204661696c656420746f2073656e6420457468657220746f20746865206f776e6572206f66207469636b65745469636b65744d61726b6574706c6163653a204d61726b6574706c616365206973206e6f7420617070726f7665645469636b65744d61726b6574706c6163653a2050726963652073656e7420616e64207469636b6574207072696365206e6f74206d617463685469636b65744d61726b6574706c6163653a205469636b6574206973206e6f74206c69737465645469636b65744d61726b6574706c6163653a205469636b65742070726963652063616e277420626520686967686572207468616e20746865206f726967696e616c207072696365a2646970667358221220d48f95bd0892f5fa333834e0ca67f472bd1398c9eea047a5e3fbd534fee21c6c64736f6c63430008110033",
  "linkReferences": {},
  "deployedLinkReferences": {}
}