{
  "_format": "hh-sol-artifact-1",
  "contractName": "TicketFacet",
  "sourceName": "contracts/TicketDiamond/facets/TicketFacet.sol",
  "abi": [
    {
      "inputs": [],
      "name": "ApprovalCallerNotOwnerNorApproved",
      "type": "error"
    },
    {
      "inputs": [],
      "name": "ApprovalQueryForNonexistentToken",
      "type": "error"
    },
    {
      "inputs": [],
      "name": "BalanceQueryForZeroAddress",
      "type": "error"
    },
    {
      "inputs": [],
      "name": "MintERC2309QuantityExceedsLimit",
      "type": "error"
    },
    {
      "inputs": [],
      "name": "MintToZeroAddress",
      "type": "error"
    },
    {
      "inputs": [],
      "name": "MintZeroQuantity",
      "type": "error"
    },
    {
      "inputs": [],
      "name": "OwnerQueryForNonexistentToken",
      "type": "error"
    },
    {
      "inputs": [],
      "name": "OwnershipNotInitializedForExtraData",
      "type": "error"
    },
    {
      "inputs": [],
      "name": "TransferCallerNotOwnerNorApproved",
      "type": "error"
    },
    {
      "inputs": [],
      "name": "TransferFromIncorrectOwner",
      "type": "error"
    },
    {
      "inputs": [],
      "name": "TransferToNonERC721ReceiverImplementer",
      "type": "error"
    },
    {
      "inputs": [],
      "name": "TransferToZeroAddress",
      "type": "error"
    },
    {
      "inputs": [],
      "name": "URIQueryForNonexistentToken",
      "type": "error"
    },
    {
      "anonymous": false,
      "inputs": [
        {
          "indexed": true,
          "internalType": "address",
          "name": "owner",
          "type": "address"
        },
        {
          "indexed": true,
          "internalType": "address",
          "name": "approved",
          "type": "address"
        },
        {
          "indexed": true,
          "internalType": "uint256",
          "name": "tokenId",
          "type": "uint256"
        }
      ],
      "name": "Approval",
      "type": "event"
    },
    {
      "anonymous": false,
      "inputs": [
        {
          "indexed": true,
          "internalType": "address",
          "name": "owner",
          "type": "address"
        },
        {
          "indexed": true,
          "internalType": "address",
          "name": "operator",
          "type": "address"
        },
        {
          "indexed": false,
          "internalType": "bool",
          "name": "approved",
          "type": "bool"
        }
      ],
      "name": "ApprovalForAll",
      "type": "event"
    },
    {
      "anonymous": false,
      "inputs": [
        {
          "indexed": true,
          "internalType": "uint256",
          "name": "fromTokenId",
          "type": "uint256"
        },
        {
          "indexed": false,
          "internalType": "uint256",
          "name": "toTokenId",
          "type": "uint256"
        },
        {
          "indexed": true,
          "internalType": "address",
          "name": "from",
          "type": "address"
        },
        {
          "indexed": true,
          "internalType": "address",
          "name": "to",
          "type": "address"
        }
      ],
      "name": "ConsecutiveTransfer",
      "type": "event"
    },
    {
      "anonymous": false,
      "inputs": [
        {
          "indexed": false,
          "internalType": "uint256",
          "name": "tokenId",
          "type": "uint256"
        }
      ],
      "name": "Locked",
      "type": "event"
    },
    {
      "anonymous": false,
      "inputs": [
        {
          "indexed": true,
          "internalType": "address",
          "name": "consumer",
          "type": "address"
        },
        {
          "indexed": true,
          "internalType": "uint256",
          "name": "assetId",
          "type": "uint256"
        },
        {
          "indexed": false,
          "internalType": "uint256",
          "name": "amount",
          "type": "uint256"
        },
        {
          "indexed": false,
          "internalType": "bytes",
          "name": "data",
          "type": "bytes"
        }
      ],
      "name": "OnConsumption",
      "type": "event"
    },
    {
      "anonymous": false,
      "inputs": [
        {
          "indexed": true,
          "internalType": "address",
          "name": "_sender",
          "type": "address"
        },
        {
          "indexed": true,
          "internalType": "uint256",
          "name": "_tokenId",
          "type": "uint256"
        }
      ],
      "name": "Refund",
      "type": "event"
    },
    {
      "anonymous": false,
      "inputs": [
        {
          "indexed": true,
          "internalType": "address",
          "name": "from",
          "type": "address"
        },
        {
          "indexed": true,
          "internalType": "address",
          "name": "to",
          "type": "address"
        },
        {
          "indexed": true,
          "internalType": "uint256",
          "name": "tokenId",
          "type": "uint256"
        }
      ],
      "name": "Transfer",
      "type": "event"
    },
    {
      "anonymous": false,
      "inputs": [
        {
          "indexed": false,
          "internalType": "uint256",
          "name": "tokenId",
          "type": "uint256"
        }
      ],
      "name": "Unlocked",
      "type": "event"
    },
    {
      "inputs": [
        {
          "internalType": "address",
          "name": "to",
          "type": "address"
        },
        {
          "internalType": "uint256",
          "name": "tokenId",
          "type": "uint256"
        }
      ],
      "name": "approve",
      "outputs": [],
      "stateMutability": "payable",
      "type": "function"
    },
    {
      "inputs": [
        {
          "internalType": "address",
          "name": "owner",
          "type": "address"
        }
      ],
      "name": "balanceOf",
      "outputs": [
        {
          "internalType": "uint256",
          "name": "",
          "type": "uint256"
        }
      ],
      "stateMutability": "view",
      "type": "function"
    },
    {
      "inputs": [
        {
          "internalType": "uint256",
          "name": "_ticketId",
          "type": "uint256"
        }
      ],
      "name": "burnTicket",
      "outputs": [],
      "stateMutability": "nonpayable",
      "type": "function"
    },
    {
      "inputs": [
        {
          "internalType": "address",
          "name": "_consumer",
          "type": "address"
        },
        {
          "internalType": "uint256",
          "name": "_assetId",
          "type": "uint256"
        },
        {
          "internalType": "uint256",
          "name": "_amount",
          "type": "uint256"
        },
        {
          "internalType": "bytes",
          "name": "_data",
          "type": "bytes"
        }
      ],
      "name": "consume",
      "outputs": [
        {
          "internalType": "bool",
          "name": "_success",
          "type": "bool"
        }
      ],
      "stateMutability": "nonpayable",
      "type": "function"
    },
    {
      "inputs": [
        {
          "internalType": "uint256",
          "name": "tokenId",
          "type": "uint256"
        }
      ],
      "name": "getApproved",
      "outputs": [
        {
          "internalType": "address",
          "name": "",
          "type": "address"
        }
      ],
      "stateMutability": "view",
      "type": "function"
    },
    {
      "inputs": [
        {
          "internalType": "uint256",
          "name": "_ticketId",
          "type": "uint256"
        }
      ],
      "name": "getTicket",
      "outputs": [
        {
          "components": [
            {
              "internalType": "uint64",
              "name": "eventStartTime",
              "type": "uint64"
            },
            {
              "internalType": "uint256",
              "name": "eventId",
              "type": "uint256"
            },
            {
              "internalType": "uint256",
              "name": "categoryId",
              "type": "uint256"
            },
            {
              "internalType": "uint256",
              "name": "price",
              "type": "uint256"
            },
            {
              "internalType": "uint256",
              "name": "row",
              "type": "uint256"
            },
            {
              "internalType": "uint256",
              "name": "seat",
              "type": "uint256"
            },
            {
              "internalType": "string",
              "name": "tokenUri",
              "type": "string"
            }
          ],
          "internalType": "struct ITicket.Ticket",
          "name": "",
          "type": "tuple"
        }
      ],
      "stateMutability": "view",
      "type": "function"
    },
    {
      "inputs": [
        {
          "internalType": "uint256",
          "name": "_ticketId",
          "type": "uint256"
        }
      ],
      "name": "getTicketPriceAndOwner",
      "outputs": [
        {
          "internalType": "address",
          "name": "owner",
          "type": "address"
        },
        {
          "internalType": "uint256",
          "name": "price",
          "type": "uint256"
        }
      ],
      "stateMutability": "view",
      "type": "function"
    },
    {
      "inputs": [
        {
          "internalType": "address",
          "name": "owner",
          "type": "address"
        },
        {
          "internalType": "address",
          "name": "operator",
          "type": "address"
        }
      ],
      "name": "isApprovedForAll",
      "outputs": [
        {
          "internalType": "bool",
          "name": "",
          "type": "bool"
        }
      ],
      "stateMutability": "view",
      "type": "function"
    },
    {
      "inputs": [
        {
          "internalType": "address",
          "name": "_consumer",
          "type": "address"
        },
        {
          "internalType": "uint256",
          "name": "_assetId",
          "type": "uint256"
        },
        {
          "internalType": "uint256",
          "name": "_amount",
          "type": "uint256"
        }
      ],
      "name": "isConsumableBy",
      "outputs": [
        {
          "internalType": "bool",
          "name": "_consumable",
          "type": "bool"
        }
      ],
      "stateMutability": "view",
      "type": "function"
    },
    {
      "inputs": [
        {
          "internalType": "uint256",
          "name": "_ticketId",
          "type": "uint256"
        }
      ],
      "name": "lock",
      "outputs": [],
      "stateMutability": "nonpayable",
      "type": "function"
    },
    {
      "inputs": [
        {
          "internalType": "uint256",
          "name": "tokenId",
          "type": "uint256"
        }
      ],
      "name": "locked",
      "outputs": [
        {
          "internalType": "bool",
          "name": "",
          "type": "bool"
        }
      ],
      "stateMutability": "view",
      "type": "function"
    },
    {
      "inputs": [
        {
          "internalType": "uint256",
          "name": "_eventId",
          "type": "uint256"
        },
        {
          "internalType": "uint256",
          "name": "_categoryId",
          "type": "uint256"
        },
        {
          "internalType": "uint256",
          "name": "_price",
          "type": "uint256"
        },
        {
          "internalType": "uint256",
          "name": "_row",
          "type": "uint256"
        },
        {
          "internalType": "uint256",
          "name": "_seat",
          "type": "uint256"
        },
        {
          "internalType": "string",
          "name": "_ticketMetadataURI",
          "type": "string"
        },
        {
          "internalType": "bool",
          "name": "_soulbound",
          "type": "bool"
        },
        {
          "internalType": "address",
          "name": "_to",
          "type": "address"
        },
        {
          "internalType": "uint64",
          "name": "_eventStartTime",
          "type": "uint64"
        }
      ],
      "name": "mintTicket",
      "outputs": [
        {
          "internalType": "uint256",
          "name": "",
          "type": "uint256"
        }
      ],
      "stateMutability": "nonpayable",
      "type": "function"
    },
    {
      "inputs": [],
      "name": "name",
      "outputs": [
        {
          "internalType": "string",
          "name": "",
          "type": "string"
        }
      ],
      "stateMutability": "view",
      "type": "function"
    },
    {
      "inputs": [
        {
          "internalType": "uint256",
          "name": "tokenId",
          "type": "uint256"
        }
      ],
      "name": "ownerOf",
      "outputs": [
        {
          "internalType": "address",
          "name": "",
          "type": "address"
        }
      ],
      "stateMutability": "view",
      "type": "function"
    },
    {
      "inputs": [
        {
          "internalType": "uint256",
          "name": "tokenId",
          "type": "uint256"
        },
        {
          "internalType": "address",
          "name": "_from",
          "type": "address"
        },
        {
          "internalType": "address",
          "name": "_to",
          "type": "address"
        }
      ],
      "name": "refund",
      "outputs": [],
      "stateMutability": "nonpayable",
      "type": "function"
    },
    {
      "inputs": [
        {
          "internalType": "uint256",
          "name": "tokenId",
          "type": "uint256"
        }
      ],
      "name": "refundDeadlineOf",
      "outputs": [
        {
          "internalType": "uint256",
          "name": "",
          "type": "uint256"
        }
      ],
      "stateMutability": "pure",
      "type": "function"
    },
    {
      "inputs": [
        {
          "internalType": "uint256",
          "name": "tokenId",
          "type": "uint256"
        },
        {
          "internalType": "uint8",
          "name": "percentage",
          "type": "uint8"
        }
      ],
      "name": "refundOf",
      "outputs": [
        {
          "internalType": "uint256",
          "name": "",
          "type": "uint256"
        }
      ],
      "stateMutability": "view",
      "type": "function"
    },
    {
      "inputs": [
        {
          "internalType": "address",
          "name": "from",
          "type": "address"
        },
        {
          "internalType": "address",
          "name": "to",
          "type": "address"
        },
        {
          "internalType": "uint256",
          "name": "tokenId",
          "type": "uint256"
        }
      ],
      "name": "safeTransferFrom",
      "outputs": [],
      "stateMutability": "payable",
      "type": "function"
    },
    {
      "inputs": [
        {
          "internalType": "address",
          "name": "from",
          "type": "address"
        },
        {
          "internalType": "address",
          "name": "to",
          "type": "address"
        },
        {
          "internalType": "uint256",
          "name": "tokenId",
          "type": "uint256"
        },
        {
          "internalType": "bytes",
          "name": "_data",
          "type": "bytes"
        }
      ],
      "name": "safeTransferFrom",
      "outputs": [],
      "stateMutability": "payable",
      "type": "function"
    },
    {
      "inputs": [
        {
          "internalType": "address",
          "name": "operator",
          "type": "address"
        },
        {
          "internalType": "bool",
          "name": "approved",
          "type": "bool"
        }
      ],
      "name": "setApprovalForAll",
      "outputs": [],
      "stateMutability": "nonpayable",
      "type": "function"
    },
    {
      "inputs": [
        {
          "internalType": "address",
          "name": "_contractAddress",
          "type": "address"
        }
      ],
      "name": "setEventDiamondAddress",
      "outputs": [],
      "stateMutability": "nonpayable",
      "type": "function"
    },
    {
      "inputs": [],
      "name": "symbol",
      "outputs": [
        {
          "internalType": "string",
          "name": "",
          "type": "string"
        }
      ],
      "stateMutability": "view",
      "type": "function"
    },
    {
      "inputs": [
        {
          "internalType": "uint256",
          "name": "tokenId",
          "type": "uint256"
        }
      ],
      "name": "tokenURI",
      "outputs": [
        {
          "internalType": "string",
          "name": "",
          "type": "string"
        }
      ],
      "stateMutability": "view",
      "type": "function"
    },
    {
      "inputs": [],
      "name": "totalSupply",
      "outputs": [
        {
          "internalType": "uint256",
          "name": "",
          "type": "uint256"
        }
      ],
      "stateMutability": "view",
      "type": "function"
    },
    {
      "inputs": [
        {
          "internalType": "address",
          "name": "from",
          "type": "address"
        },
        {
          "internalType": "address",
          "name": "to",
          "type": "address"
        },
        {
          "internalType": "uint256",
          "name": "tokenId",
          "type": "uint256"
        }
      ],
      "name": "transferFrom",
      "outputs": [],
      "stateMutability": "payable",
      "type": "function"
    },
    {
      "inputs": [
        {
          "internalType": "uint256",
          "name": "_ticketId",
          "type": "uint256"
        }
      ],
      "name": "unlock",
      "outputs": [],
      "stateMutability": "nonpayable",
      "type": "function"
    }
  ],
  "bytecode": "0x608060405234801561001057600080fd5b506124b2806100206000396000f3fe6080604052600436106101315760003560e01c806306fdde0314610136578063081812fc14610161578063095ea7b31461019957806318160ddd146101ae5780631e271405146101d157806323b872dd14610201578063290be4dd146102145780633ddbc6791461023457806342842e0e146102545780634f5560161461026757806355ccad43146102885780636198e339146102c75780636352211e146102e757806370a08231146103075780637dc379fa1461032757806395d89b411461035457806396e83a4014610369578063a22cb46514610389578063a476b73d146103a9578063b45a3c0e146103c9578063b88d4fde146103e9578063c34e0d43146103fc578063c87b56dd1461041c578063dd4670641461043c578063e985e9c51461045c578063eb91937a1461047c575b600080fd5b34801561014257600080fd5b5061014b61049c565b6040516101589190611b67565b60405180910390f35b34801561016d57600080fd5b5061018161017c366004611b7a565b610531565b6040516001600160a01b039091168152602001610158565b6101ac6101a7366004611baf565b610575565b005b3480156101ba57600080fd5b50600154600054035b604051908152602001610158565b3480156101dd57600080fd5b506101f16101ec366004611bd9565b6105cc565b6040519015158152602001610158565b6101ac61020f366004611c6c565b610694565b34801561022057600080fd5b506101c361022f366004611d5a565b6106d3565b34801561024057600080fd5b506101ac61024f366004611e0d565b610856565b6101ac610262366004611c6c565b61088d565b34801561027357600080fd5b506101c3610282366004611b7a565b50600090565b34801561029457600080fd5b506102a86102a3366004611b7a565b6108d3565b604080516001600160a01b039093168352602083019190915201610158565b3480156102d357600080fd5b506101ac6102e2366004611b7a565b610901565b3480156102f357600080fd5b50610181610302366004611b7a565b61094a565b34801561031357600080fd5b506101c3610322366004611e0d565b61095b565b34801561033357600080fd5b50610347610342366004611b7a565b6109a9565b6040516101589190611e28565b34801561036057600080fd5b5061014b610af0565b34801561037557600080fd5b506101ac610384366004611e88565b610b02565b34801561039557600080fd5b506101ac6103a4366004611ec4565b610cef565b3480156103b557600080fd5b506101ac6103c4366004611b7a565b610d68565b3480156103d557600080fd5b506101f16103e4366004611b7a565b610d91565b6101ac6103f7366004611ef7565b610d9c565b34801561040857600080fd5b506101f1610417366004611f72565b610e0c565b34801561042857600080fd5b5061014b610437366004611b7a565b610f18565b34801561044857600080fd5b506101ac610457366004611b7a565b611078565b34801561046857600080fd5b506101f1610477366004611fa5565b6110b9565b34801561048857600080fd5b506101c3610497366004611fcf565b6110c5565b6060600060020180546104ae90612005565b80601f01602080910402602001604051908101604052809291908181526020018280546104da90612005565b80156105275780601f106104fc57610100808354040283529160200191610527565b820191906000526020600020905b81548152906001019060200180831161050a57829003601f168201915b5050505050905090565b600061053c8261111e565b610559576040516333d1c03960e21b815260040160405180910390fd5b506000908152600660205260409020546001600160a01b031690565b61057f8282611145565b80826001600160a01b03166105938361094a565b6001600160a01b03167f8c5be1e5ebec7d5bd14f71427d1e84f3dd0314c0f7b2291e5b200ac8c7c3b92560405160405180910390a45050565b60006105d6611200565b6105e1868686610e0c565b60405180606001604052806032815260200161242060329139906106215760405162461bcd60e51b81526004016106189190611b67565b60405180910390fd5b506000858152600b602052604090208481556001016106418385836120a2565b5084866001600160a01b03167fe980346e48104399bbc0129fadcf85d695e39e759b84d22826b37a0f84ec9c928686866040516106809392919061215c565b60405180910390a350600195945050505050565b61069f838383611285565b80826001600160a01b0316846001600160a01b031660008051602061240083398151915260405160405180910390a4505050565b60006106dd611200565b6000805490508a6000600801600083815260200190815260200160002060010181905550896000600801600083815260200190815260200160002060020181905550886000600801600083815260200190815260200160002060030181905550876000600801600083815260200190815260200160002060040181905550866000600801600083815260200190815260200160002060050181905550826000600801600083815260200190815260200160002060000160006101000a8154816001600160401b0302191690836001600160401b03160217905550846000600901600083815260200190815260200160002060006101000a81548160ff0219169083151502179055506107f0846001611411565b6107fa81876114ff565b84156108265760405181815260008051602061237f8339815191529060200160405180910390a1610848565b60405181815260008051602061235f8339815191529060200160405180910390a15b9a9950505050505050505050565b61085e611588565b60006108686115fc565b60050180546001600160a01b0319166001600160a01b03939093169290921790915550565b61089681610d91565b156108b35760405162461bcd60e51b815260040161061890612192565b6108ce83838360405180602001604052806000815250610d9c565b505050565b6000806108de611200565b6108e783611620565b600093845260086020526040909320600301549293915050565b610909611200565b60008181526009602052604090819020805460ff191690555160008051602061235f8339815191529061093f9083815260200190565b60405180910390a150565b600061095582611620565b92915050565b60006001600160a01b038216610984576040516323d3ad8160e21b815260040160405180910390fd5b506001600160a01b03166000908152600560205260409020546001600160401b031690565b6109f26040518060e0016040528060006001600160401b031681526020016000815260200160008152602001600081526020016000815260200160008152602001606081525090565b600082815260086020908152604091829020825160e08101845281546001600160401b031681526001820154928101929092526002810154928201929092526003820154606082015260048201546080820152600582015460a082015260068201805491929160c084019190610a6790612005565b80601f0160208091040260200160405190810160405280929190818152602001828054610a9390612005565b8015610ae05780601f10610ab557610100808354040283529160200191610ae0565b820191906000526020600020905b815481529060010190602001808311610ac357829003601f168201915b5050505050815250509050919050565b6060600060030180546104ae90612005565b610b0a611200565b6000838152600c602090815260409182902060010154825160608101909352603780845260ff90911615929161239f9083013990610b5b5760405162461bcd60e51b81526004016106189190611b67565b506000838152600a60209081526040918290205482518084019093528183527f455243353530373a205469636b657420616c726561647920726566756e6465649183019190915260ff1615610bc35760405162461bcd60e51b81526004016106189190611b67565b506000838152600a60209081526040808320805460ff1916600190811790915560099092529091205460ff1615159003610c455760008381526009602052604090819020805460ff191690555160008051602061235f83398151915290610c2d9085815260200190565b60405180910390a1610c4082828561162b565b610cb4565b610c4e83611636565b600083815260086020526040812080546001600160401b0319168155600181018290556002810182905560038101829055600481018290556005810182905590610c9b6006830182611ac9565b50506000838152600960205260409020805460ff191690555b60405183906001600160a01b038416907fbb28353e4598c3b9199101a66e0989549b659a59a54d2c27fbb183f1932c8e6d90600090a3505050565b3360008181526007602090815260408083206001600160a01b0387168085529252909120805460ff1916841515179055906001600160a01b03167f17307eab39ab6107e8899845ad3d59bd9653f200f220920489ca2b5937696c3183604051610d5c911515815260200190565b60405180910390a35050565b610d70611200565b610d7981611636565b6000908152600960205260409020805460ff19169055565b600061095582611644565b610da582610d91565b15610dc25760405162461bcd60e51b815260040161061890612192565b610dcd848484610694565b6001600160a01b0383163b15610e0657610de984848484611659565b610e06576040516368d2bf6b60e11b815260040160405180910390fd5b50505050565b6000610e178361111e565b6040518060600160405280602b8152602001612452602b913990610e4e5760405162461bcd60e51b81526004016106189190611b67565b50336001600160a01b0316846001600160a01b0316146040518060600160405280602a81526020016123d6602a913990610e9b5760405162461bcd60e51b81526004016106189190611b67565b5060408051808201909152601b81527a455243323133353a20416d6f756e742073686f756c64206265203160281b602082015260018314610eef5760405162461bcd60e51b81526004016106189190611b67565b506000838152600b60205260408120549003610f0d57506001610f11565b5060005b9392505050565b6060610f238261111e565b610f4057604051630a14c4b560e41b815260040160405180910390fd5b60008281526008602052604081206006018054610f5c90612005565b80601f0160208091040260200160405190810160405280929190818152602001828054610f8890612005565b8015610fd55780601f10610faa57610100808354040283529160200191610fd5565b820191906000526020600020905b815481529060010190602001808311610fb857829003601f168201915b505050505090506000610ff360408051602081019091526000815290565b90508051600003611005575092915050565b81511561103757808260405160200161101f9291906121c8565b60405160208183030381529060405292505050919050565b80516000036110555760405180602001604052806000815250611070565b8061105f85611744565b60405160200161101f9291906121c8565b949350505050565b611080611200565b60008181526009602052604090819020805460ff191660011790555160008051602061237f8339815191529061093f9083815260200190565b6000610f118383611788565b60008281526008602052604081206003015481036110e557506000610955565b60006110f560ff841660646121f7565b6000858152600860205260408120600301549192509061111590836117b6565b95945050505050565b6000805482108015610955575050600090815260046020526040902054600160e01b161590565b600061115082611644565b1561116d5760405162461bcd60e51b815260040161061890612192565b600061117883611620565b9050336001600160a01b038216146111d0576001600160a01b0381166000908152600783016020908152604080832033845290915290205460ff166111d0576040516367d9dca160e11b815260040160405180910390fd5b5060009182526006016020526040902080546001600160a01b0319166001600160a01b0392909216919091179055565b6112086115fc565b600501546001600160a01b031633146112835760405162461bcd60e51b815260206004820152603760248201527f4c69625469636b65744469616d6f6e643a204d757374206265206576656e74206044820152761d1a58dad95d0818dbdb9d1c9bdb1b195c88199858d95d604a1b6064820152608401610618565b565b600061129082611644565b156112ad5760405162461bcd60e51b815260040161061890612192565b60006112b883611824565b9050846001600160a01b0316816001600160a01b0316146112eb5760405162a1148160e81b815260040160405180910390fd5b6000806112f78561188f565b9150915061130c81886113073390565b6118a3565b6113375761131a8733611788565b61133757604051632ce44b5f60e11b815260040160405180910390fd5b6001600160a01b03861661135e57604051633a954ecd60e21b815260040160405180910390fd5b801561136957600082555b6001600160a01b03878116600090815260058601602052604080822080546000190190559188168152908120805460010190556113ae9087905b600160e11b176118b8565b6000868152600486016020526040812091909155600160e11b84169003611408576001850160008181526004860160205260408120549003611406578454811461140657600081815260048601602052604090208490555b505b50505050505050565b60008054908290036114365760405163b562e8dd60e01b815260040160405180910390fd5b6001600160a01b038316600090815260056020526040812080546001600160401b01850201905561147b90849061146e9082816118cd565b6001851460e11b176118d5565b6000828152600460205260408120919091556001600160a01b038481169184840191906000805160206124008339815191529085908590838180a4600185015b8381146114d3578085600084600080a46001016114bb565b50836000036114f457604051622e076360e81b815260040160405180910390fd5b505060005550505050565b6115088261111e565b61156d5760405162461bcd60e51b815260206004820152603060248201527f5469636b65744552433732314146616365743a2055524920736574206f66206e60448201526f37b732bc34b9ba32b73a103a37b5b2b760811b6064820152608401610618565b60008281526008602052604090206006016108ce828261221c565b6115906115fc565b600401546001600160a01b031633146112835760405162461bcd60e51b815260206004820152602860248201527f4c69625469636b65744469616d6f6e643a204d75737420626520636f6e74726160448201526731ba1037bbb732b960c11b6064820152608401610618565b7fc8fcad8db84d3cc18b4c41d551ea0ee66dd599cde068d998e57d5e09332c131c90565b600061095582611824565b61069f8383836118e1565b611641816000611975565b50565b60009081526009602052604090205460ff1690565b604051630a85bd0160e11b81526000906001600160a01b0385169063150b7a029061168e9033908990889088906004016122d5565b6020604051808303816000875af19250505080156116c9575060408051601f3d908101601f191682019092526116c691810190612312565b60015b611727573d8080156116f7576040519150601f19603f3d011682016040523d82523d6000602084013e6116fc565b606091505b50805160000361171f576040516368d2bf6b60e11b815260040160405180910390fd5b805181602001fd5b6001600160e01b031916630a85bd0160e11b149050949350505050565b606060a06040510180604052602081039150506000815280825b600183039250600a81066030018353600a90048061175e5750819003601f19909101908152919050565b6001600160a01b03918216600090815260076020908152604080832093909416825291909152205460ff1690565b60006127106117c583856121f7565b101561180d5760405162461bcd60e51b8152602060048201526017602482015276050657263656e746167653a20526f756e647320746f203604c1b6044820152606401610618565b61271061181a83856121f7565b610f11919061233c565b60008082815481101561187657600081815260048301602052604081205490600160e01b82169003611874575b806000036110705750600019016000818152600483016020526040902054611851565b505b604051636f96cda160e11b815260040160405180910390fd5b600090815260066020526040902080549091565b6001600160a01b039081169116811491141790565b4260a01b176001600160a01b03919091161790565b600080611070565b6000610f1183836118b8565b6000806118ed83611824565b9050846001600160a01b0316816001600160a01b0316146119205760405162a1148160e81b815260040160405180910390fd5b60008061192c8561188f565b9150915080156113695760008083556001600160a01b038881168252600586016020526040808320805460001901905590881682528120805460010190556113ae9087906113a3565b600061198083611824565b90508060008061198f86611aa7565b9150915084156119cf576119a4818433611abc565b6119cf576119b283336110b9565b6119cf57604051632ce44b5f60e11b815260040160405180910390fd5b80156119da57600082555b6001600160a01b038316600090815260056020526040812080546001600160801b03019055611a1c908490611a11908290886118cd565b600360e01b176118d5565b600087815260046020526040812091909155600160e11b85169003611a7157600186016000818152600460205260408120549003611a6f576000548114611a6f5760008181526004602052604090208590555b505b60405186906000906001600160a01b03861690600080516020612400833981519152908390a45050600180548101905550505050565b600080611ab38361188f565b91509150915091565b60006110708484846118a3565b508054611ad590612005565b6000825580601f10611ae5575050565b601f01602090049060005260206000209081019061164191905b80821115611b135760008155600101611aff565b5090565b60005b83811015611b32578181015183820152602001611b1a565b50506000910152565b60008151808452611b53816020860160208601611b17565b601f01601f19169290920160200192915050565b602081526000610f116020830184611b3b565b600060208284031215611b8c57600080fd5b5035919050565b80356001600160a01b0381168114611baa57600080fd5b919050565b60008060408385031215611bc257600080fd5b611bcb83611b93565b946020939093013593505050565b600080600080600060808688031215611bf157600080fd5b611bfa86611b93565b9450602086013593506040860135925060608601356001600160401b0380821115611c2457600080fd5b818801915088601f830112611c3857600080fd5b813581811115611c4757600080fd5b896020828501011115611c5957600080fd5b9699959850939650602001949392505050565b600080600060608486031215611c8157600080fd5b611c8a84611b93565b9250611c9860208501611b93565b9150604084013590509250925092565b634e487b7160e01b600052604160045260246000fd5b60006001600160401b0380841115611cd857611cd8611ca8565b604051601f8501601f19908116603f01168101908282118183101715611d0057611d00611ca8565b81604052809350858152868686011115611d1957600080fd5b858560208301376000602087830101525050509392505050565b80358015158114611baa57600080fd5b80356001600160401b0381168114611baa57600080fd5b60008060008060008060008060006101208a8c031215611d7957600080fd5b8935985060208a0135975060408a0135965060608a0135955060808a0135945060a08a01356001600160401b03811115611db257600080fd5b8a01601f81018c13611dc357600080fd5b611dd28c823560208401611cbe565b945050611de160c08b01611d33565b9250611def60e08b01611b93565b9150611dfe6101008b01611d43565b90509295985092959850929598565b600060208284031215611e1f57600080fd5b610f1182611b93565b6020815260018060401b038251166020820152602082015160408201526040820151606082015260608201516080820152608082015160a082015260a082015160c0820152600060c083015160e080840152611070610100840182611b3b565b600080600060608486031215611e9d57600080fd5b83359250611ead60208501611b93565b9150611ebb60408501611b93565b90509250925092565b60008060408385031215611ed757600080fd5b611ee083611b93565b9150611eee60208401611d33565b90509250929050565b60008060008060808587031215611f0d57600080fd5b611f1685611b93565b9350611f2460208601611b93565b92506040850135915060608501356001600160401b03811115611f4657600080fd5b8501601f81018713611f5757600080fd5b611f6687823560208401611cbe565b91505092959194509250565b600080600060608486031215611f8757600080fd5b611f9084611b93565b95602085013595506040909401359392505050565b60008060408385031215611fb857600080fd5b611fc183611b93565b9150611eee60208401611b93565b60008060408385031215611fe257600080fd5b82359150602083013560ff81168114611ffa57600080fd5b809150509250929050565b600181811c9082168061201957607f821691505b60208210810361203957634e487b7160e01b600052602260045260246000fd5b50919050565b601f8211156108ce57600081815260208120601f850160051c810160208610156120665750805b601f850160051c820191505b8181101561208557828155600101612072565b505050505050565b600019600383901b1c191660019190911b1790565b6001600160401b038311156120b9576120b9611ca8565b6120cd836120c78354612005565b8361203f565b6000601f8411600181146120fb57600085156120e95750838201355b6120f3868261208d565b845550612155565b600083815260209020601f19861690835b8281101561212c578685013582556020948501946001909201910161210c565b50868210156121495760001960f88860031b161c19848701351681555b505060018560011b0183555b5050505050565b83815260406020820152816040820152818360608301376000818301606090810191909152601f909201601f1916010192915050565b6020808252601c908201527b115490cd4c4e4c8e88151a58dad95d081a5cc81cdbdd5b189bdd5b9960221b604082015260600190565b600083516121da818460208801611b17565b8351908301906121ee818360208801611b17565b01949350505050565b808202811582820484141761095557634e487b7160e01b600052601160045260246000fd5b81516001600160401b0381111561223557612235611ca8565b612249816122438454612005565b8461203f565b602080601f83116001811461227857600084156122665750858301515b612270858261208d565b865550612085565b600085815260208120601f198616915b828110156122a757888601518255948401946001909101908401612288565b50858210156122c55787850151600019600388901b60f8161c191681555b5050505050600190811b01905550565b6001600160a01b038581168252841660208201526040810183905260806060820181905260009061230890830184611b3b565b9695505050505050565b60006020828403121561232457600080fd5b81516001600160e01b031981168114610f1157600080fd5b60008261235957634e487b7160e01b600052601260045260246000fd5b50049056fef27b6ce5b2f5e68ddb2fd95a8a909d4ecf1daaac270935fff052feacb24f1842032bc66be43dbccb7487781d168eb7bda224628a3b2c3388bdf69b532a3a16115469636b65744d61726b6574706c6163653a205469636b6574206973206c6973746564206f6e207365636f6e64617279206d61726b6574455243323133353a20436f6e73756d65722073686f756c6420626520746865206d73672073656e646572ddf252ad1be2c89b69c2b068fc378daa952ba7f163c4a11628f55a4df523b3ef455243323133353a205469636b6574206e6f7420636f6e73756d61626c65206f7220616c726561647920636f6e73756d65645469636b657446616365743a2043616e277420636c6970206e6f74206578697374696e67207469636b6574a26469706673582212206a43dc07fbfef3811ff0db73b43a55d2bac4f0d737884c904b5277597947796064736f6c63430008110033",
  "linkReferences": {},
  "deployedLinkReferences": {}
}