{
  "_format": "hh-sol-artifact-1",
  "contractName": "TicketMarketplaceFacet",
  "sourceName": "contracts/TicketDiamond/facets/TicketMarketplaceFacet.sol",
  "abi": [
    {
      "inputs": [],
      "name": "ApprovalCallerNotOwnerNorApproved",
      "type": "error"
    },
    {
      "inputs": [],
      "name": "OwnerQueryForNonexistentToken",
      "type": "error"
    },
    {
      "inputs": [],
      "name": "TransferFromIncorrectOwner",
      "type": "error"
    },
    {
      "anonymous": false,
      "inputs": [
        {
          "indexed": false,
          "internalType": "uint256",
          "name": "ticketId",
          "type": "uint256"
        },
        {
          "indexed": false,
          "internalType": "uint256",
          "name": "price",
          "type": "uint256"
        },
        {
          "indexed": false,
          "internalType": "address",
          "name": "seller",
          "type": "address"
        },
        {
          "indexed": false,
          "internalType": "address",
          "name": "buyer",
          "type": "address"
        }
      ],
      "name": "BoughtListedTicket",
      "type": "event"
    },
    {
      "anonymous": false,
      "inputs": [
        {
          "indexed": false,
          "internalType": "uint256",
          "name": "ticketId",
          "type": "uint256"
        },
        {
          "indexed": false,
          "internalType": "address",
          "name": "owner",
          "type": "address"
        }
      ],
      "name": "CanceledListedTicket",
      "type": "event"
    },
    {
      "anonymous": false,
      "inputs": [
        {
          "indexed": false,
          "internalType": "uint256[]",
          "name": "ticketIds",
          "type": "uint256[]"
        },
        {
          "indexed": false,
          "internalType": "address",
          "name": "buyer",
          "type": "address"
        }
      ],
      "name": "MultipleTicketsBought",
      "type": "event"
    },
    {
      "anonymous": false,
      "inputs": [
        {
          "indexed": false,
          "internalType": "uint256",
          "name": "ticketId",
          "type": "uint256"
        },
        {
          "indexed": false,
          "internalType": "address",
          "name": "seller",
          "type": "address"
        }
      ],
      "name": "TicketListed",
      "type": "event"
    },
    {
      "anonymous": false,
      "inputs": [
        {
          "indexed": false,
          "internalType": "uint256",
          "name": "ticketId",
          "type": "uint256"
        },
        {
          "indexed": false,
          "internalType": "uint256",
          "name": "newPrice",
          "type": "uint256"
        }
      ],
      "name": "UpdatedListedTicketPrice",
      "type": "event"
    },
    {
      "inputs": [
        {
          "internalType": "uint256",
          "name": "_ticketId",
          "type": "uint256"
        }
      ],
      "name": "buyListedTicket",
      "outputs": [],
      "stateMutability": "payable",
      "type": "function"
    },
    {
      "inputs": [
        {
          "internalType": "uint256[]",
          "name": "_ticketIds",
          "type": "uint256[]"
        }
      ],
      "name": "buyMultipleListedTickets",
      "outputs": [],
      "stateMutability": "payable",
      "type": "function"
    },
    {
      "inputs": [
        {
          "internalType": "uint256",
          "name": "_ticketId",
          "type": "uint256"
        }
      ],
      "name": "cancelListedTicket",
      "outputs": [],
      "stateMutability": "nonpayable",
      "type": "function"
    },
    {
      "inputs": [
        {
          "internalType": "uint256",
          "name": "_ticketId",
          "type": "uint256"
        }
      ],
      "name": "getListedTicketById",
      "outputs": [
        {
          "components": [
            {
              "internalType": "uint256",
              "name": "price",
              "type": "uint256"
            },
            {
              "internalType": "bool",
              "name": "isListed",
              "type": "bool"
            }
          ],
          "internalType": "struct ITicketMarketplace.ListedTicket",
          "name": "listedTicket",
          "type": "tuple"
        }
      ],
      "stateMutability": "view",
      "type": "function"
    },
    {
      "inputs": [
        {
          "internalType": "uint256",
          "name": "_ticketId",
          "type": "uint256"
        },
        {
          "internalType": "uint256",
          "name": "_ticketPrice",
          "type": "uint256"
        }
      ],
      "name": "listTicket",
      "outputs": [],
      "stateMutability": "nonpayable",
      "type": "function"
    },
    {
      "inputs": [
        {
          "internalType": "uint256",
          "name": "_ticketId",
          "type": "uint256"
        },
        {
          "internalType": "uint256",
          "name": "_ticketPrice",
          "type": "uint256"
        }
      ],
      "name": "updateListedTicketPrice",
      "outputs": [],
      "stateMutability": "nonpayable",
      "type": "function"
    }
  ],
  "bytecode": "0x608060405234801561001057600080fd5b506111a8806100206000396000f3fe6080604052600436106100555760003560e01c8063113ec8ae1461005a5780632c8647bd1461007c578063305a905a1461009c57806350248853146100bc57806376487bbe146100cf578063deca0e26146100e2575b600080fd5b34801561006657600080fd5b5061007a610075366004610dba565b610161565b005b34801561008857600080fd5b5061007a610097366004610dd3565b610282565b3480156100a857600080fd5b5061007a6100b7366004610dd3565b6103e0565b61007a6100ca366004610dba565b610513565b61007a6100dd366004610e0b565b61078d565b3480156100ee57600080fd5b506101406100fd366004610dba565b6040805180820190915260008082526020820152506000908152600c60209081526040918290208251808401909352805483526001015460ff1615159082015290565b60408051825181526020928301511515928101929092520160405180910390f35b6000818152600c60209081526040918290206001908101548351606081019094526027808552859460ff90921615159092149290919061110590830139906101c55760405162461bcd60e51b81526004016101bc9190610ec8565b60405180910390fd5b5081336101d182610b49565b6001600160a01b031614604051806040016040528060188152602001600080516020610fda8339815191528152509061021d5760405162461bcd60e51b81526004016101bc9190610ec8565b506000838152600c60205260408120818155600101805460ff191690556102449084610b5a565b7fd4e80ca4d3fedadddb72220aa4c1c59053d7edf22184eaf2eade671340958a708333604051610275929190610f16565b60405180910390a1505050565b6000828152600c60209081526040918290206001908101548351606081019094526027808552869460ff90921615159092149290919061110590830139906102dd5760405162461bcd60e51b81526004016101bc9190610ec8565b5082336102e982610b49565b6001600160a01b031614604051806040016040528060188152602001600080516020610fda833981519152815250906103355760405162461bcd60e51b81526004016101bc9190610ec8565b508383806000600801600084815260200190815260200160002060030154101560405180608001604052806047815260200161112c604791399061038c5760405162461bcd60e51b81526004016101bc9190610ec8565b506000868152600c602090815260409182902087905581518881529081018790527fb9aa504de20e2eac6c783af60a3a473bbd760acabd42aa44d669f257f558d6c2910160405180910390a1505050505050565b81336103eb82610b49565b6001600160a01b031614604051806040016040528060188152602001600080516020610fda833981519152815250906104375760405162461bcd60e51b81526004016101bc9190610ec8565b508282806000600801600084815260200190815260200160002060030154101560405180608001604052806047815260200161112c604791399061048e5760405162461bcd60e51b81526004016101bc9190610ec8565b506040805180820182528581526001602080830182815260008a8152600c9092529390209151825591519101805460ff19169115159190911790556104d33086610b5a565b7fde87e46b75e487b146137b14d5b7fdc6d99eee53d22d99767df1c59142122fa08533604051610504929190610f16565b60405180910390a15050505050565b6000818152600c60209081526040918290206001908101548351606081019094526027808552859460ff909216151590921492909190611105908301399061056e5760405162461bcd60e51b81526004016101bc9190610ec8565b506000828152600c602090815260408083208151808301909252805482526001015460ff16151591810191909152906105a684610b49565b9050348260000151146040518060600160405280603881526020016110cd60389139906105e65760405162461bcd60e51b81526004016101bc9190610ec8565b50336001600160a01b0316816001600160a01b0316141560405180606001604052806028815260200161103960289139906106345760405162461bcd60e51b81526004016101bc9190610ec8565b5060008481526006602090815260409182902054825160608101909352602e8084526001600160a01b03919091163014929161109f908301399061068b5760405162461bcd60e51b81526004016101bc9190610ec8565b50610697813386610c4b565b6000848152600c6020526040808220828155600101805460ff19169055835190516001600160a01b03841691908381818185875af1925050503d80600081146106fc576040519150601f19603f3d011682016040523d82523d6000602084013e610701565b606091505b50509050806040518060600160405280603e8152602001611061603e91399061073d5760405162461bcd60e51b81526004016101bc9190610ec8565b5082516040805187815260208101929092526001600160a01b038416908201523360608201527fbf1d45c8c2ec741a183ccfaf85eb8600c796a3a39ccf2a6182912a08e67a2e8190608001610504565b6000805b82518110156108da576000600c0160008483815181106107b3576107b3610f2d565b6020026020010151815260200190815260200160002060010160009054906101000a900460ff161515600115151460405180606001604052806027815260200161110560279139906108185760405162461bcd60e51b81526004016101bc9190610ec8565b50336001600160a01b031661084584838151811061083857610838610f2d565b6020026020010151610b49565b6001600160a01b0316141560405180606001604052806028815260200161103960289139906108875760405162461bcd60e51b81526004016101bc9190610ec8565b506000600c0160008483815181106108a1576108a1610f2d565b6020026020010151815260200190815260200160002060000154826108c69190610f59565b9150806108d281610f6c565b915050610791565b503481146040518060600160405280603f8152602001610ffa603f9139906109155760405162461bcd60e51b81526004016101bc9190610ec8565b5060005b8251811015610b0b57600061093984838151811061083857610838610f2d565b9050600080600c01600086858151811061095557610955610f2d565b60200260200101518152602001908152602001600020600001549050306001600160a01b03166000600601600087868151811061099457610994610f2d565b6020026020010151815260200190815260200160002060000160009054906101000a90046001600160a01b03166001600160a01b0316146040518060600160405280602e815260200161109f602e913990610a025760405162461bcd60e51b81526004016101bc9190610ec8565b50610a278233878681518110610a1a57610a1a610f2d565b6020026020010151610c4b565b6000600c016000868581518110610a4057610a40610f2d565b602090810291909101810151825281019190915260409081016000908120818155600101805460ff1916905590516001600160a01b0384169083908381818185875af1925050503d8060008114610ab3576040519150601f19603f3d011682016040523d82523d6000602084013e610ab8565b606091505b50509050806040518060600160405280603e8152602001611061603e913990610af45760405162461bcd60e51b81526004016101bc9190610ec8565b505050508080610b0390610f6c565b915050610919565b507f0c6e2ce4ff3587b6c5dc7f90f9a47036f8892b417e05c91dca63b6116e1fff568233604051610b3d929190610f85565b60405180910390a15050565b6000610b5482610d47565b92915050565b60008181526009602052604081205460ff1615610bb85760405162461bcd60e51b815260206004820152601c60248201527b115490cd4c4e4c8e88151a58dad95d081a5cc81cdbdd5b189bdd5b9960221b60448201526064016101bc565b6000610bc383610b49565b9050336001600160a01b03821614610c1b576001600160a01b0381166000908152600783016020908152604080832033845290915290205460ff16610c1b576040516367d9dca160e11b815260040160405180910390fd5b5060009182526006016020526040902080546001600160a01b0319166001600160a01b0392909216919091179055565b600080610c5783610d47565b9050846001600160a01b0316816001600160a01b031614610c8a5760405162a1148160e81b815260040160405180910390fd5b600083815260066020526040902080548015610ca557600082555b6001600160a01b0387811660009081526005860160205260408082208054600019019055918816808252919020805460010190554260a01b17600160e11b176000868152600486016020526040812091909155600160e11b84169003610d3e576001850160008181526004860160205260408120549003610d3c5784548114610d3c57600081815260048601602052604090208490555b505b50505050505050565b600080828154811015610da157600081815260048301602052604081205490600160e01b82169003610d9f575b80600003610d975750600019016000818152600483016020526040902054610d74565b949350505050565b505b604051636f96cda160e11b815260040160405180910390fd5b600060208284031215610dcc57600080fd5b5035919050565b60008060408385031215610de657600080fd5b50508035926020909101359150565b634e487b7160e01b600052604160045260246000fd5b60006020808385031215610e1e57600080fd5b82356001600160401b0380821115610e3557600080fd5b818501915085601f830112610e4957600080fd5b813581811115610e5b57610e5b610df5565b8060051b604051601f19603f83011681018181108582111715610e8057610e80610df5565b604052918252848201925083810185019188831115610e9e57600080fd5b938501935b82851015610ebc57843584529385019392850192610ea3565b98975050505050505050565b600060208083528351808285015260005b81811015610ef557858101830151858201604001528201610ed9565b506000604082860101526040601f19601f8301168501019250505092915050565b9182526001600160a01b0316602082015260400190565b634e487b7160e01b600052603260045260246000fd5b634e487b7160e01b600052601160045260246000fd5b80820180821115610b5457610b54610f43565b600060018201610f7e57610f7e610f43565b5060010190565b604080825283519082018190526000906020906060840190828701845b82811015610fbe57815184529284019290840190600101610fa2565b5050506001600160a01b03949094169201919091525091905056fe455243353530373a204e6f7420746f6b656e206f776e657200000000000000005469636b65744d61726b6574706c6163653a20546f74616c2070726963652073656e7420616e64207469636b657473207072696365206e6f74206d617463685469636b65744d61726b6574706c6163653a2043616e277420627579206f776e207469636b6574735469636b65744d61726b6574706c6163653a204661696c656420746f2073656e6420457468657220746f20746865206f776e6572206f66207469636b65745469636b65744d61726b6574706c6163653a204d61726b6574706c616365206973206e6f7420617070726f7665645469636b65744d61726b6574706c6163653a2050726963652073656e7420616e64207469636b6574207072696365206e6f74206d617463685469636b65744d61726b6574706c6163653a205469636b6574206973206e6f74206c69737465645469636b65744d61726b6574706c6163653a205469636b65742070726963652063616e277420626520686967686572207468616e20746865206f726967696e616c207072696365a26469706673582212202ac7ea710aad14eac24e538680f06104b9d7bfb20bb86e82a11c0adc1022d06e64736f6c63430008110033",
  "linkReferences": {},
  "deployedLinkReferences": {}
}