{
  "_format": "hh-sol-artifact-1",
  "contractName": "TicketMarketplaceFacet",
  "sourceName": "contracts/TicketDiamond/facets/TicketMarketplaceFacet.sol",
  "abi": [
    {
      "inputs": [],
      "name": "ApprovalCallerNotOwnerNorApproved",
      "type": "error"
    },
    {
      "inputs": [],
      "name": "OwnerQueryForNonexistentToken",
      "type": "error"
    },
    {
      "inputs": [],
      "name": "TransferCallerNotOwnerNorApproved",
      "type": "error"
    },
    {
      "inputs": [],
      "name": "TransferFromIncorrectOwner",
      "type": "error"
    },
    {
      "inputs": [],
      "name": "TransferToZeroAddress",
      "type": "error"
    },
    {
      "inputs": [
        {
          "internalType": "uint256",
          "name": "_ticketId",
          "type": "uint256"
        }
      ],
      "name": "buyListedTicket",
      "outputs": [],
      "stateMutability": "payable",
      "type": "function"
    },
    {
      "inputs": [
        {
          "internalType": "uint256[]",
          "name": "_ticketIds",
          "type": "uint256[]"
        }
      ],
      "name": "buyMultipleListedTickets",
      "outputs": [],
      "stateMutability": "payable",
      "type": "function"
    },
    {
      "inputs": [
        {
          "internalType": "uint256",
          "name": "_ticketId",
          "type": "uint256"
        }
      ],
      "name": "cancelListedTicket",
      "outputs": [],
      "stateMutability": "nonpayable",
      "type": "function"
    },
    {
      "inputs": [
        {
          "internalType": "uint256",
          "name": "_ticketId",
          "type": "uint256"
        },
        {
          "internalType": "uint256",
          "name": "_ticketPrice",
          "type": "uint256"
        }
      ],
      "name": "listTicket",
      "outputs": [],
      "stateMutability": "nonpayable",
      "type": "function"
    },
    {
      "inputs": [
        {
          "internalType": "uint256",
          "name": "_ticketId",
          "type": "uint256"
        },
        {
          "internalType": "uint256",
          "name": "_ticketPrice",
          "type": "uint256"
        }
      ],
      "name": "updateListedTicketPrice",
      "outputs": [],
      "stateMutability": "nonpayable",
      "type": "function"
    }
  ],
  "bytecode": "0x608060405234801561001057600080fd5b506110c6806100206000396000f3fe60806040526004361061004a5760003560e01c8063113ec8ae1461004f5780632c8647bd14610071578063305a905a1461009157806350248853146100b157806376487bbe146100c4575b600080fd5b34801561005b57600080fd5b5061006f61006a366004610d4c565b6100d7565b005b34801561007d57600080fd5b5061006f61008c366004610d65565b6101ff565b34801561009d57600080fd5b5061006f6100ac366004610d65565b61036a565b61006f6100bf366004610d4c565b6104aa565b61006f6100d2366004610d9d565b6106cd565b6000818152600c60209081526040918290206001908101548351606081019094526027808552859460ff909216151590921492909190611023908301399061013b5760405162461bcd60e51b81526004016101329190610e5b565b60405180910390fd5b508133610147826109fb565b6001600160a01b0316146040518060400160405280601881526020017722a9219a9a981b9d102737ba103a37b5b2b71037bbb732b960411b815250906101a05760405162461bcd60e51b81526004016101329190610e5b565b506000838152600c60205260408120818155600101805460ff191690556101c79084610a0c565b6040518381527f017161c54123c503d82ef27b5a107eb08d6bd34a2025d2fff1316226aaf0c1b49060200160405180910390a1505050565b6000828152600c60209081526040918290206001908101548351606081019094526027808552869460ff909216151590921492909190611023908301399061025a5760405162461bcd60e51b81526004016101329190610e5b565b508233610266826109fb565b6001600160a01b0316146040518060400160405280601881526020017722a9219a9a981b9d102737ba103a37b5b2b71037bbb732b960411b815250906102bf5760405162461bcd60e51b81526004016101329190610e5b565b508383806000600801600084815260200190815260200160002060020154101560405180608001604052806047815260200161104a60479139906103165760405162461bcd60e51b81526004016101329190610e5b565b506000868152600c602090815260409182902087905581518881529081018790527fb9aa504de20e2eac6c783af60a3a473bbd760acabd42aa44d669f257f558d6c2910160405180910390a1505050505050565b8133610375826109fb565b6001600160a01b0316146040518060400160405280601881526020017722a9219a9a981b9d102737ba103a37b5b2b71037bbb732b960411b815250906103ce5760405162461bcd60e51b81526004016101329190610e5b565b508282806000600801600084815260200190815260200160002060020154101560405180608001604052806047815260200161104a60479139906104255760405162461bcd60e51b81526004016101329190610e5b565b506040805180820182528581526001602080830182815260008a8152600c9092529390209151825591519101805460ff191691151591909117905561046a3086610a0c565b604080518681523360208201527fde87e46b75e487b146137b14d5b7fdc6d99eee53d22d99767df1c59142122fa091015b60405180910390a15050505050565b6000818152600c60209081526040918290206001908101548351606081019094526027808552859460ff90921615159092149290919061102390830139906105055760405162461bcd60e51b81526004016101329190610e5b565b506000828152600c602090815260408083208151808301909252805482526001015460ff161515918101919091529061053d846109fb565b905034826000015114604051806060016040528060388152602001610feb603891399061057d5760405162461bcd60e51b81526004016101329190610e5b565b50336001600160a01b0316816001600160a01b03161415604051806060016040528060288152602001610f8560289139906105cb5760405162461bcd60e51b81526004016101329190610e5b565b506105d7813386610afe565b6000848152600c6020526040808220828155600101805460ff19169055835190516001600160a01b03841691908381818185875af1925050503d806000811461063c576040519150601f19603f3d011682016040523d82523d6000602084013e610641565b606091505b50509050806040518060600160405280603e8152602001610fad603e91399061067d5760405162461bcd60e51b81526004016101329190610e5b565b5082516040805187815260208101929092526001600160a01b038416908201523360608201527fbf1d45c8c2ec741a183ccfaf85eb8600c796a3a39ccf2a6182912a08e67a2e819060800161049b565b6000805b825181101561081a576000600c0160008483815181106106f3576106f3610ea9565b6020026020010151815260200190815260200160002060010160009054906101000a900460ff161515600115151460405180606001604052806027815260200161102360279139906107585760405162461bcd60e51b81526004016101329190610e5b565b50336001600160a01b031661078584838151811061077857610778610ea9565b60200260200101516109fb565b6001600160a01b03161415604051806060016040528060288152602001610f8560289139906107c75760405162461bcd60e51b81526004016101329190610e5b565b506000600c0160008483815181106107e1576107e1610ea9565b6020026020010151815260200190815260200160002060000154826108069190610ed5565b91508061081281610ee8565b9150506106d1565b503481146040518060600160405280603f8152602001610f46603f9139906108555760405162461bcd60e51b81526004016101329190610e5b565b5060005b82518110156109bf57600061087984838151811061077857610778610ea9565b9050600080600c01600086858151811061089557610895610ea9565b602002602001015181526020019081526020016000206000015490506108db826108bc3390565b8786815181106108ce576108ce610ea9565b6020026020010151610afe565b6000600c0160008685815181106108f4576108f4610ea9565b602090810291909101810151825281019190915260409081016000908120818155600101805460ff1916905590516001600160a01b0384169083908381818185875af1925050503d8060008114610967576040519150601f19603f3d011682016040523d82523d6000602084013e61096c565b606091505b50509050806040518060600160405280603e8152602001610fad603e9139906109a85760405162461bcd60e51b81526004016101329190610e5b565b5050505080806109b790610ee8565b915050610859565b507f3a5deb4a448f38ce1d43230eeb9e3c0fc84db93200f5fe4f04ac9f05d380ff36826040516109ef9190610f01565b60405180910390a15050565b6000610a0682610cd9565b92915050565b60008181526009602052604081205460ff1615610a6b5760405162461bcd60e51b815260206004820152601c60248201527f455243353139323a205469636b657420697320736f756c626f756e64000000006044820152606401610132565b6000610a76836109fb565b9050336001600160a01b03821614610ace576001600160a01b0381166000908152600783016020908152604080832033845290915290205460ff16610ace576040516367d9dca160e11b815260040160405180910390fd5b5060009182526006016020526040902080546001600160a01b0319166001600160a01b0392909216919091179055565b60008181526009602052604081205460ff1615610b5d5760405162461bcd60e51b815260206004820152601c60248201527f455243353139323a205469636b657420697320736f756c626f756e64000000006044820152606401610132565b6000610b6883610cd9565b9050846001600160a01b0316816001600160a01b031614610b9b5760405162a1148160e81b815260040160405180910390fd5b60008381526006602052604090208054338082146001600160a01b03891690911417610c05576001600160a01b038716600090815260076020908152604080832033845290915290205460ff16610c0557604051632ce44b5f60e11b815260040160405180910390fd5b6001600160a01b038616610c2c57604051633a954ecd60e21b815260040160405180910390fd5b8015610c3757600082555b6001600160a01b0387811660009081526005860160205260408082208054600019019055918816808252919020805460010190554260a01b17600160e11b176000868152600486016020526040812091909155600160e11b84169003610cd0576001850160008181526004860160205260408120549003610cce5784548114610cce57600081815260048601602052604090208490555b505b50505050505050565b600080828154811015610d3357600081815260048301602052604081205490600160e01b82169003610d31575b80600003610d295750600019016000818152600483016020526040902054610d06565b949350505050565b505b604051636f96cda160e11b815260040160405180910390fd5b600060208284031215610d5e57600080fd5b5035919050565b60008060408385031215610d7857600080fd5b50508035926020909101359150565b634e487b7160e01b600052604160045260246000fd5b60006020808385031215610db057600080fd5b823567ffffffffffffffff80821115610dc857600080fd5b818501915085601f830112610ddc57600080fd5b813581811115610dee57610dee610d87565b8060051b604051601f19603f83011681018181108582111715610e1357610e13610d87565b604052918252848201925083810185019188831115610e3157600080fd5b938501935b82851015610e4f57843584529385019392850192610e36565b98975050505050505050565b600060208083528351808285015260005b81811015610e8857858101830151858201604001528201610e6c565b506000604082860101526040601f19601f8301168501019250505092915050565b634e487b7160e01b600052603260045260246000fd5b634e487b7160e01b600052601160045260246000fd5b80820180821115610a0657610a06610ebf565b600060018201610efa57610efa610ebf565b5060010190565b6020808252825182820181905260009190848201906040850190845b81811015610f3957835183529284019291840191600101610f1d565b5090969550505050505056fe5469636b65744d61726b6574706c6163653a20546f74616c2070726963652073656e7420616e64207469636b657473207072696365206e6f74206d617463685469636b65744d61726b6574706c6163653a2043616e277420627579206f776e207469636b6574735469636b65744d61726b6574706c6163653a204661696c656420746f2073656e6420457468657220746f20746865206f776e6572206f66207469636b65745469636b65744d61726b6574706c6163653a2050726963652073656e7420616e64207469636b6574207072696365206e6f74206d617463685469636b65744d61726b6574706c6163653a205469636b6574206973206e6f74206c69737465645469636b65744d61726b6574706c6163653a205469636b65742070726963652063616e277420626520686967686572207468616e20746865206f726967696e616c207072696365a2646970667358221220a84e7ec007794e90311ec4fa772bc64d31619e8fff15ca8d1bf6513efc332fcf64736f6c63430008110033",
  "linkReferences": {},
  "deployedLinkReferences": {}
}