{
  "_format": "hh-sol-artifact-1",
  "contractName": "TicketMarketplaceFacet",
  "sourceName": "contracts/TicketDiamond/facets/TicketMarketplaceFacet.sol",
  "abi": [
    {
      "inputs": [],
      "name": "ApprovalCallerNotOwnerNorApproved",
      "type": "error"
    },
    {
      "inputs": [],
      "name": "OwnerQueryForNonexistentToken",
      "type": "error"
    },
    {
      "inputs": [],
      "name": "TransferCallerNotOwnerNorApproved",
      "type": "error"
    },
    {
      "inputs": [],
      "name": "TransferFromIncorrectOwner",
      "type": "error"
    },
    {
      "inputs": [],
      "name": "TransferToZeroAddress",
      "type": "error"
    },
    {
      "inputs": [
        {
          "internalType": "uint256",
          "name": "_ticketId",
          "type": "uint256"
        }
      ],
      "name": "buyListedTicket",
      "outputs": [],
      "stateMutability": "payable",
      "type": "function"
    },
    {
      "inputs": [
        {
          "internalType": "uint256[]",
          "name": "_ticketIds",
          "type": "uint256[]"
        }
      ],
      "name": "buyMultipleListedTickets",
      "outputs": [],
      "stateMutability": "payable",
      "type": "function"
    },
    {
      "inputs": [
        {
          "internalType": "uint256",
          "name": "_ticketId",
          "type": "uint256"
        }
      ],
      "name": "cancelListedTicket",
      "outputs": [],
      "stateMutability": "nonpayable",
      "type": "function"
    },
    {
      "inputs": [
        {
          "internalType": "uint256",
          "name": "_ticketId",
          "type": "uint256"
        },
        {
          "internalType": "uint256",
          "name": "_ticketPrice",
          "type": "uint256"
        }
      ],
      "name": "listTicket",
      "outputs": [],
      "stateMutability": "nonpayable",
      "type": "function"
    },
    {
      "inputs": [
        {
          "internalType": "uint256",
          "name": "_ticketId",
          "type": "uint256"
        },
        {
          "internalType": "uint256",
          "name": "_ticketPrice",
          "type": "uint256"
        }
      ],
      "name": "updateListedTicketPrice",
      "outputs": [],
      "stateMutability": "nonpayable",
      "type": "function"
    }
  ],
  "bytecode": "0x608060405234801561001057600080fd5b50610fb4806100206000396000f3fe60806040526004361061004a5760003560e01c8063113ec8ae1461004f5780632c8647bd14610071578063305a905a1461009157806350248853146100b157806376487bbe146100c4575b600080fd5b34801561005b57600080fd5b5061006f61006a366004610c78565b6100d7565b005b34801561007d57600080fd5b5061006f61008c366004610c91565b6101ff565b34801561009d57600080fd5b5061006f6100ac366004610c91565b61036a565b61006f6100bf366004610c78565b6104ab565b61006f6100d2366004610cc9565b61062b565b6000818152600c60209081526040918290206001908101548351606081019094526027808552859460ff909216151590921492909190610f11908301399061013b5760405162461bcd60e51b81526004016101329190610d87565b60405180910390fd5b50813361014782610927565b6001600160a01b0316146040518060400160405280601881526020017722a9219a9a981b9d102737ba103a37b5b2b71037bbb732b960411b815250906101a05760405162461bcd60e51b81526004016101329190610d87565b506000838152600c60205260408120818155600101805460ff191690556101c79084610938565b6040518381527f017161c54123c503d82ef27b5a107eb08d6bd34a2025d2fff1316226aaf0c1b49060200160405180910390a1505050565b6000828152600c60209081526040918290206001908101548351606081019094526027808552869460ff909216151590921492909190610f11908301399061025a5760405162461bcd60e51b81526004016101329190610d87565b50823361026682610927565b6001600160a01b0316146040518060400160405280601881526020017722a9219a9a981b9d102737ba103a37b5b2b71037bbb732b960411b815250906102bf5760405162461bcd60e51b81526004016101329190610d87565b5083838060006008016000848152602001908152602001600020600201541015604051806080016040528060478152602001610f3860479139906103165760405162461bcd60e51b81526004016101329190610d87565b506000868152600c602090815260409182902087905581518881529081018790527fb9aa504de20e2eac6c783af60a3a473bbd760acabd42aa44d669f257f558d6c2910160405180910390a1505050505050565b813361037582610927565b6001600160a01b0316146040518060400160405280601881526020017722a9219a9a981b9d102737ba103a37b5b2b71037bbb732b960411b815250906103ce5760405162461bcd60e51b81526004016101329190610d87565b5082828060006008016000848152602001908152602001600020600201541015604051806080016040528060478152602001610f3860479139906104255760405162461bcd60e51b81526004016101329190610d87565b506040805180820182528581526001602080830182815260008a8152600c9092529390209151825591519101805460ff191691151591909117905561046a3086610938565b6040805186815233602082015281517fde87e46b75e487b146137b14d5b7fdc6d99eee53d22d99767df1c59142122fa0929181900390910190a15050505050565b6000818152600c60209081526040918290206001908101548351606081019094526027808552859460ff909216151590921492909190610f1190830139906105065760405162461bcd60e51b81526004016101329190610d87565b506000828152600c602090815260409182902082518084018452815480825260019092015460ff16151581840152835160608101909452603880855290933490921492610ed9908301399061056e5760405162461bcd60e51b81526004016101329190610d87565b50600061057a84610927565b9050336001600160a01b0316816001600160a01b03161415604051806060016040528060288152602001610eb160289139906105c95760405162461bcd60e51b81526004016101329190610d87565b506105d5813386610a2a565b81516040805186815260208101929092526001600160a01b03831682820152336060830152517fbf1d45c8c2ec741a183ccfaf85eb8600c796a3a39ccf2a6182912a08e67a2e819181900360800190a150505050565b6000805b8251811015610778576000600c01600084838151811061065157610651610dd5565b6020026020010151815260200190815260200160002060010160009054906101000a900460ff1615156001151514604051806060016040528060278152602001610f1160279139906106b65760405162461bcd60e51b81526004016101329190610d87565b50336001600160a01b03166106e38483815181106106d6576106d6610dd5565b6020026020010151610927565b6001600160a01b03161415604051806060016040528060288152602001610eb160289139906107255760405162461bcd60e51b81526004016101329190610d87565b506000600c01600084838151811061073f5761073f610dd5565b6020026020010151815260200190815260200160002060000154826107649190610e01565b91508061077081610e14565b91505061062f565b503481146040518060600160405280603f8152602001610e72603f9139906107b35760405162461bcd60e51b81526004016101329190610d87565b5060005b82518110156108eb576107f86107d88483815181106106d6576106d6610dd5565b338584815181106107eb576107eb610dd5565b6020026020010151610a2a565b600061080f8483815181106106d6576106d6610dd5565b6001600160a01b03166000600c01600086858151811061083157610831610dd5565b602002602001015181526020019081526020016000206000015460405160006040518083038185875af1925050503d806000811461088b576040519150601f19603f3d011682016040523d82523d6000602084013e610890565b606091505b50509050806108d85760405162461bcd60e51b81526020600482015260146024820152732330b4b632b2103a379039b2b7321022ba3432b960611b6044820152606401610132565b50806108e381610e14565b9150506107b7565b507f3a5deb4a448f38ce1d43230eeb9e3c0fc84db93200f5fe4f04ac9f05d380ff368260405161091b9190610e2d565b60405180910390a15050565b600061093282610c05565b92915050565b60008181526009602052604081205460ff16156109975760405162461bcd60e51b815260206004820152601c60248201527f455243353139323a205469636b657420697320736f756c626f756e64000000006044820152606401610132565b60006109a283610927565b9050336001600160a01b038216146109fa576001600160a01b0381166000908152600783016020908152604080832033845290915290205460ff166109fa576040516367d9dca160e11b815260040160405180910390fd5b5060009182526006016020526040902080546001600160a01b0319166001600160a01b0392909216919091179055565b60008181526009602052604081205460ff1615610a895760405162461bcd60e51b815260206004820152601c60248201527f455243353139323a205469636b657420697320736f756c626f756e64000000006044820152606401610132565b6000610a9483610c05565b9050846001600160a01b0316816001600160a01b031614610ac75760405162a1148160e81b815260040160405180910390fd5b60008381526006602052604090208054338082146001600160a01b03891690911417610b31576001600160a01b038716600090815260076020908152604080832033845290915290205460ff16610b3157604051632ce44b5f60e11b815260040160405180910390fd5b6001600160a01b038616610b5857604051633a954ecd60e21b815260040160405180910390fd5b8015610b6357600082555b6001600160a01b0387811660009081526005860160205260408082208054600019019055918816808252919020805460010190554260a01b17600160e11b176000868152600486016020526040812091909155600160e11b84169003610bfc576001850160008181526004860160205260408120549003610bfa5784548114610bfa57600081815260048601602052604090208490555b505b50505050505050565b600080828154811015610c5f57600081815260048301602052604081205490600160e01b82169003610c5d575b80600003610c555750600019016000818152600483016020526040902054610c32565b949350505050565b505b604051636f96cda160e11b815260040160405180910390fd5b600060208284031215610c8a57600080fd5b5035919050565b60008060408385031215610ca457600080fd5b50508035926020909101359150565b634e487b7160e01b600052604160045260246000fd5b60006020808385031215610cdc57600080fd5b823567ffffffffffffffff80821115610cf457600080fd5b818501915085601f830112610d0857600080fd5b813581811115610d1a57610d1a610cb3565b8060051b604051601f19603f83011681018181108582111715610d3f57610d3f610cb3565b604052918252848201925083810185019188831115610d5d57600080fd5b938501935b82851015610d7b57843584529385019392850192610d62565b98975050505050505050565b600060208083528351808285015260005b81811015610db457858101830151858201604001528201610d98565b506000604082860101526040601f19601f8301168501019250505092915050565b634e487b7160e01b600052603260045260246000fd5b634e487b7160e01b600052601160045260246000fd5b8082018082111561093257610932610deb565b600060018201610e2657610e26610deb565b5060010190565b6020808252825182820181905260009190848201906040850190845b81811015610e6557835183529284019291840191600101610e49565b5090969550505050505056fe5469636b65744d61726b6574706c6163653a20546f74616c2070726963652073656e7420616e64207469636b657473207072696365206e6f74206d617463685469636b65744d61726b6574706c6163653a2043616e277420627579206f776e207469636b6574735469636b65744d61726b6574706c6163653a2050726963652073656e7420616e64207469636b6574207072696365206e6f74206d617463685469636b65744d61726b6574706c6163653a205469636b6574206973206e6f74206c69737465645469636b65744d61726b6574706c6163653a205469636b65742070726963652063616e277420626520686967686572207468616e20746865206f726967696e616c207072696365a2646970667358221220d49927c248f07fde06d2c3410e52f58ed773be40192fa67aafe66d5813010bd864736f6c63430008110033",
  "linkReferences": {},
  "deployedLinkReferences": {}
}