{
  "_format": "hh-sol-artifact-1",
  "contractName": "TicketFacet",
  "sourceName": "contracts/TicketDiamond/facets/TicketFacet.sol",
  "abi": [
    {
      "inputs": [],
      "name": "ApprovalCallerNotOwnerNorApproved",
      "type": "error"
    },
    {
      "inputs": [],
      "name": "ApprovalQueryForNonexistentToken",
      "type": "error"
    },
    {
      "inputs": [],
      "name": "BalanceQueryForZeroAddress",
      "type": "error"
    },
    {
      "inputs": [],
      "name": "MintERC2309QuantityExceedsLimit",
      "type": "error"
    },
    {
      "inputs": [],
      "name": "MintToZeroAddress",
      "type": "error"
    },
    {
      "inputs": [],
      "name": "MintZeroQuantity",
      "type": "error"
    },
    {
      "inputs": [],
      "name": "OwnerQueryForNonexistentToken",
      "type": "error"
    },
    {
      "inputs": [],
      "name": "OwnershipNotInitializedForExtraData",
      "type": "error"
    },
    {
      "inputs": [],
      "name": "TransferCallerNotOwnerNorApproved",
      "type": "error"
    },
    {
      "inputs": [],
      "name": "TransferFromIncorrectOwner",
      "type": "error"
    },
    {
      "inputs": [],
      "name": "TransferToNonERC721ReceiverImplementer",
      "type": "error"
    },
    {
      "inputs": [],
      "name": "TransferToZeroAddress",
      "type": "error"
    },
    {
      "inputs": [],
      "name": "URIQueryForNonexistentToken",
      "type": "error"
    },
    {
      "anonymous": false,
      "inputs": [
        {
          "indexed": true,
          "internalType": "address",
          "name": "owner",
          "type": "address"
        },
        {
          "indexed": true,
          "internalType": "address",
          "name": "approved",
          "type": "address"
        },
        {
          "indexed": true,
          "internalType": "uint256",
          "name": "tokenId",
          "type": "uint256"
        }
      ],
      "name": "Approval",
      "type": "event"
    },
    {
      "anonymous": false,
      "inputs": [
        {
          "indexed": true,
          "internalType": "address",
          "name": "owner",
          "type": "address"
        },
        {
          "indexed": true,
          "internalType": "address",
          "name": "operator",
          "type": "address"
        },
        {
          "indexed": false,
          "internalType": "bool",
          "name": "approved",
          "type": "bool"
        }
      ],
      "name": "ApprovalForAll",
      "type": "event"
    },
    {
      "anonymous": false,
      "inputs": [
        {
          "indexed": true,
          "internalType": "uint256",
          "name": "fromTokenId",
          "type": "uint256"
        },
        {
          "indexed": false,
          "internalType": "uint256",
          "name": "toTokenId",
          "type": "uint256"
        },
        {
          "indexed": true,
          "internalType": "address",
          "name": "from",
          "type": "address"
        },
        {
          "indexed": true,
          "internalType": "address",
          "name": "to",
          "type": "address"
        }
      ],
      "name": "ConsecutiveTransfer",
      "type": "event"
    },
    {
      "anonymous": false,
      "inputs": [
        {
          "indexed": false,
          "internalType": "uint256",
          "name": "tokenId",
          "type": "uint256"
        }
      ],
      "name": "Locked",
      "type": "event"
    },
    {
      "anonymous": false,
      "inputs": [
        {
          "indexed": true,
          "internalType": "address",
          "name": "consumer",
          "type": "address"
        },
        {
          "indexed": true,
          "internalType": "uint256",
          "name": "assetId",
          "type": "uint256"
        },
        {
          "indexed": false,
          "internalType": "uint256",
          "name": "amount",
          "type": "uint256"
        },
        {
          "indexed": false,
          "internalType": "bytes",
          "name": "data",
          "type": "bytes"
        }
      ],
      "name": "OnConsumption",
      "type": "event"
    },
    {
      "anonymous": false,
      "inputs": [
        {
          "indexed": true,
          "internalType": "address",
          "name": "_sender",
          "type": "address"
        },
        {
          "indexed": true,
          "internalType": "uint256",
          "name": "_tokenId",
          "type": "uint256"
        }
      ],
      "name": "Refund",
      "type": "event"
    },
    {
      "anonymous": false,
      "inputs": [
        {
          "indexed": true,
          "internalType": "address",
          "name": "from",
          "type": "address"
        },
        {
          "indexed": true,
          "internalType": "address",
          "name": "to",
          "type": "address"
        },
        {
          "indexed": true,
          "internalType": "uint256",
          "name": "tokenId",
          "type": "uint256"
        }
      ],
      "name": "Transfer",
      "type": "event"
    },
    {
      "anonymous": false,
      "inputs": [
        {
          "indexed": false,
          "internalType": "uint256",
          "name": "tokenId",
          "type": "uint256"
        }
      ],
      "name": "Unlocked",
      "type": "event"
    },
    {
      "inputs": [
        {
          "internalType": "address",
          "name": "to",
          "type": "address"
        },
        {
          "internalType": "uint256",
          "name": "tokenId",
          "type": "uint256"
        }
      ],
      "name": "approve",
      "outputs": [],
      "stateMutability": "payable",
      "type": "function"
    },
    {
      "inputs": [
        {
          "internalType": "address",
          "name": "owner",
          "type": "address"
        }
      ],
      "name": "balanceOf",
      "outputs": [
        {
          "internalType": "uint256",
          "name": "",
          "type": "uint256"
        }
      ],
      "stateMutability": "view",
      "type": "function"
    },
    {
      "inputs": [
        {
          "internalType": "uint256",
          "name": "_ticketId",
          "type": "uint256"
        }
      ],
      "name": "burnTicket",
      "outputs": [],
      "stateMutability": "nonpayable",
      "type": "function"
    },
    {
      "inputs": [
        {
          "internalType": "address",
          "name": "_consumer",
          "type": "address"
        },
        {
          "internalType": "uint256",
          "name": "_assetId",
          "type": "uint256"
        },
        {
          "internalType": "uint256",
          "name": "_amount",
          "type": "uint256"
        },
        {
          "internalType": "bytes",
          "name": "_data",
          "type": "bytes"
        }
      ],
      "name": "consume",
      "outputs": [
        {
          "internalType": "bool",
          "name": "_success",
          "type": "bool"
        }
      ],
      "stateMutability": "nonpayable",
      "type": "function"
    },
    {
      "inputs": [
        {
          "internalType": "uint256",
          "name": "tokenId",
          "type": "uint256"
        }
      ],
      "name": "getApproved",
      "outputs": [
        {
          "internalType": "address",
          "name": "",
          "type": "address"
        }
      ],
      "stateMutability": "view",
      "type": "function"
    },
    {
      "inputs": [
        {
          "internalType": "uint256",
          "name": "_ticketId",
          "type": "uint256"
        }
      ],
      "name": "getTicket",
      "outputs": [
        {
          "components": [
            {
              "internalType": "uint256",
              "name": "eventId",
              "type": "uint256"
            },
            {
              "internalType": "uint256",
              "name": "categoryId",
              "type": "uint256"
            },
            {
              "internalType": "uint256",
              "name": "price",
              "type": "uint256"
            },
            {
              "internalType": "uint256",
              "name": "row",
              "type": "uint256"
            },
            {
              "internalType": "uint256",
              "name": "seat",
              "type": "uint256"
            },
            {
              "internalType": "string",
              "name": "tokenUri",
              "type": "string"
            }
          ],
          "internalType": "struct ITicket.Ticket",
          "name": "",
          "type": "tuple"
        }
      ],
      "stateMutability": "view",
      "type": "function"
    },
    {
      "inputs": [
        {
          "internalType": "address",
          "name": "owner",
          "type": "address"
        },
        {
          "internalType": "address",
          "name": "operator",
          "type": "address"
        }
      ],
      "name": "isApprovedForAll",
      "outputs": [
        {
          "internalType": "bool",
          "name": "",
          "type": "bool"
        }
      ],
      "stateMutability": "view",
      "type": "function"
    },
    {
      "inputs": [
        {
          "internalType": "address",
          "name": "_consumer",
          "type": "address"
        },
        {
          "internalType": "uint256",
          "name": "_assetId",
          "type": "uint256"
        },
        {
          "internalType": "uint256",
          "name": "_amount",
          "type": "uint256"
        }
      ],
      "name": "isConsumableBy",
      "outputs": [
        {
          "internalType": "bool",
          "name": "_consumable",
          "type": "bool"
        }
      ],
      "stateMutability": "view",
      "type": "function"
    },
    {
      "inputs": [
        {
          "internalType": "uint256",
          "name": "_ticketId",
          "type": "uint256"
        }
      ],
      "name": "lock",
      "outputs": [],
      "stateMutability": "nonpayable",
      "type": "function"
    },
    {
      "inputs": [
        {
          "internalType": "uint256",
          "name": "tokenId",
          "type": "uint256"
        }
      ],
      "name": "locked",
      "outputs": [
        {
          "internalType": "bool",
          "name": "",
          "type": "bool"
        }
      ],
      "stateMutability": "view",
      "type": "function"
    },
    {
      "inputs": [
        {
          "internalType": "uint256",
          "name": "_eventId",
          "type": "uint256"
        },
        {
          "internalType": "uint256",
          "name": "_categoryId",
          "type": "uint256"
        },
        {
          "internalType": "uint256",
          "name": "_price",
          "type": "uint256"
        },
        {
          "internalType": "uint256",
          "name": "_row",
          "type": "uint256"
        },
        {
          "internalType": "uint256",
          "name": "_seat",
          "type": "uint256"
        },
        {
          "internalType": "string",
          "name": "_ticketMetadataURI",
          "type": "string"
        },
        {
          "internalType": "bool",
          "name": "_soulbound",
          "type": "bool"
        },
        {
          "internalType": "address",
          "name": "_to",
          "type": "address"
        }
      ],
      "name": "mintTicket",
      "outputs": [
        {
          "internalType": "uint256",
          "name": "",
          "type": "uint256"
        }
      ],
      "stateMutability": "nonpayable",
      "type": "function"
    },
    {
      "inputs": [],
      "name": "name",
      "outputs": [
        {
          "internalType": "string",
          "name": "",
          "type": "string"
        }
      ],
      "stateMutability": "view",
      "type": "function"
    },
    {
      "inputs": [
        {
          "internalType": "uint256",
          "name": "tokenId",
          "type": "uint256"
        }
      ],
      "name": "ownerOf",
      "outputs": [
        {
          "internalType": "address",
          "name": "",
          "type": "address"
        }
      ],
      "stateMutability": "view",
      "type": "function"
    },
    {
      "inputs": [
        {
          "internalType": "uint256",
          "name": "tokenId",
          "type": "uint256"
        },
        {
          "internalType": "address",
          "name": "_from",
          "type": "address"
        },
        {
          "internalType": "address",
          "name": "_to",
          "type": "address"
        }
      ],
      "name": "refund",
      "outputs": [],
      "stateMutability": "nonpayable",
      "type": "function"
    },
    {
      "inputs": [
        {
          "internalType": "uint256",
          "name": "tokenId",
          "type": "uint256"
        }
      ],
      "name": "refundDeadlineOf",
      "outputs": [
        {
          "internalType": "uint256",
          "name": "",
          "type": "uint256"
        }
      ],
      "stateMutability": "pure",
      "type": "function"
    },
    {
      "inputs": [
        {
          "internalType": "uint256",
          "name": "tokenId",
          "type": "uint256"
        },
        {
          "internalType": "uint8",
          "name": "percentage",
          "type": "uint8"
        }
      ],
      "name": "refundOf",
      "outputs": [
        {
          "internalType": "uint256",
          "name": "",
          "type": "uint256"
        }
      ],
      "stateMutability": "view",
      "type": "function"
    },
    {
      "inputs": [
        {
          "internalType": "address",
          "name": "from",
          "type": "address"
        },
        {
          "internalType": "address",
          "name": "to",
          "type": "address"
        },
        {
          "internalType": "uint256",
          "name": "tokenId",
          "type": "uint256"
        }
      ],
      "name": "safeTransferFrom",
      "outputs": [],
      "stateMutability": "payable",
      "type": "function"
    },
    {
      "inputs": [
        {
          "internalType": "address",
          "name": "from",
          "type": "address"
        },
        {
          "internalType": "address",
          "name": "to",
          "type": "address"
        },
        {
          "internalType": "uint256",
          "name": "tokenId",
          "type": "uint256"
        },
        {
          "internalType": "bytes",
          "name": "_data",
          "type": "bytes"
        }
      ],
      "name": "safeTransferFrom",
      "outputs": [],
      "stateMutability": "payable",
      "type": "function"
    },
    {
      "inputs": [
        {
          "internalType": "address",
          "name": "operator",
          "type": "address"
        },
        {
          "internalType": "bool",
          "name": "approved",
          "type": "bool"
        }
      ],
      "name": "setApprovalForAll",
      "outputs": [],
      "stateMutability": "nonpayable",
      "type": "function"
    },
    {
      "inputs": [
        {
          "internalType": "address",
          "name": "_contractAddress",
          "type": "address"
        }
      ],
      "name": "setEventDiamondAddress",
      "outputs": [],
      "stateMutability": "nonpayable",
      "type": "function"
    },
    {
      "inputs": [],
      "name": "symbol",
      "outputs": [
        {
          "internalType": "string",
          "name": "",
          "type": "string"
        }
      ],
      "stateMutability": "view",
      "type": "function"
    },
    {
      "inputs": [
        {
          "internalType": "uint256",
          "name": "tokenId",
          "type": "uint256"
        }
      ],
      "name": "tokenURI",
      "outputs": [
        {
          "internalType": "string",
          "name": "",
          "type": "string"
        }
      ],
      "stateMutability": "view",
      "type": "function"
    },
    {
      "inputs": [],
      "name": "totalSupply",
      "outputs": [
        {
          "internalType": "uint256",
          "name": "",
          "type": "uint256"
        }
      ],
      "stateMutability": "view",
      "type": "function"
    },
    {
      "inputs": [
        {
          "internalType": "address",
          "name": "from",
          "type": "address"
        },
        {
          "internalType": "address",
          "name": "to",
          "type": "address"
        },
        {
          "internalType": "uint256",
          "name": "tokenId",
          "type": "uint256"
        }
      ],
      "name": "transferFrom",
      "outputs": [],
      "stateMutability": "payable",
      "type": "function"
    },
    {
      "inputs": [
        {
          "internalType": "uint256",
          "name": "_ticketId",
          "type": "uint256"
        }
      ],
      "name": "unlock",
      "outputs": [],
      "stateMutability": "nonpayable",
      "type": "function"
    }
  ],
  "bytecode": "0x608060405234801561001057600080fd5b50612285806100206000396000f3fe6080604052600436106101665760003560e01c80637dc379fa116100d1578063b45a3c0e1161008a578063c87b56dd11610064578063c87b56dd14610422578063dd46706414610442578063e985e9c514610462578063eb91937a1461048257600080fd5b8063b45a3c0e146103bf578063b88d4fde146103ef578063c34e0d431461040257600080fd5b80637dc379fa146102fd57806395d89b411461032a57806396e83a401461033f5780639b69ff091461035f578063a22cb4651461037f578063a476b73d1461039f57600080fd5b80633ddbc679116101235780633ddbc6791461024957806342842e0e146102695780634f5560161461027c5780636198e3391461029d5780636352211e146102bd57806370a08231146102dd57600080fd5b806306fdde031461016b578063081812fc14610196578063095ea7b3146101ce57806318160ddd146101e35780631e2714051461020657806323b872dd14610236575b600080fd5b34801561017757600080fd5b506101806104a2565b60405161018d91906119f6565b60405180910390f35b3480156101a257600080fd5b506101b66101b1366004611a09565b610537565b6040516001600160a01b03909116815260200161018d565b6101e16101dc366004611a3e565b61057b565b005b3480156101ef57600080fd5b50600154600054035b60405190815260200161018d565b34801561021257600080fd5b50610226610221366004611a68565b610653565b604051901515815260200161018d565b6101e1610244366004611afc565b610712565b34801561025557600080fd5b506101e1610264366004611b38565b6108e8565b6101e1610277366004611afc565b610931565b34801561028857600080fd5b506101f8610297366004611a09565b50600090565b3480156102a957600080fd5b506101e16102b8366004611a09565b610980565b3480156102c957600080fd5b506101b66102d8366004611a09565b6109db565b3480156102e957600080fd5b506101f86102f8366004611b38565b6109ec565b34801561030957600080fd5b5061031d610318366004611a09565b610a3b565b60405161018d9190611b53565b34801561033657600080fd5b50610180610b60565b34801561034b57600080fd5b506101e161035a366004611ba0565b610b72565b34801561036b57600080fd5b506101f861037a366004611c78565b610d0d565b34801561038b57600080fd5b506101e161039a366004611d1b565b610df4565b3480156103ab57600080fd5b506101e16103ba366004611a09565b610e60565b3480156103cb57600080fd5b506102266103da366004611a09565b60009081526009602052604090205460ff1690565b6101e16103fd366004611d4e565b610e89565b34801561040e57600080fd5b5061022661041d366004611dca565b610f02565b34801561042e57600080fd5b5061018061043d366004611a09565b611010565b34801561044e57600080fd5b506101e161045d366004611a09565b611170565b34801561046e57600080fd5b5061022661047d366004611dfd565b6111c3565b34801561048e57600080fd5b506101f861049d366004611e27565b6111f1565b6060600060020180546104b490611e5d565b80601f01602080910402602001604051908101604052809291908181526020018280546104e090611e5d565b801561052d5780601f106105025761010080835404028352916020019161052d565b820191906000526020600020905b81548152906001019060200180831161051057829003601f168201915b5050505050905090565b60006105428261124a565b61055f576040516333d1c03960e21b815260040160405180910390fd5b506000908152600660205260409020546001600160a01b031690565b60008181526009602052604090205460ff16156105b35760405162461bcd60e51b81526004016105aa90611e97565b60405180910390fd5b60006105be826109db565b9050336001600160a01b038216146105f7576105da81336111c3565b6105f7576040516367d9dca160e11b815260040160405180910390fd5b60008281526006602052604080822080546001600160a01b0319166001600160a01b0387811691821790925591518593918516917f8c5be1e5ebec7d5bd14f71427d1e84f3dd0314c0f7b2291e5b200ac8c7c3b92591a4505050565b600061065d611271565b610668868686610f02565b6040518060600160405280603281526020016121f3603291399061069f5760405162461bcd60e51b81526004016105aa91906119f6565b506000858152600b602052604090208481556001016106bf838583611f14565b5084866001600160a01b03167fe980346e48104399bbc0129fadcf85d695e39e759b84d22826b37a0f84ec9c928686866040516106fe93929190611fd5565b60405180910390a350600195945050505050565b60008181526009602052604090205460ff16156107415760405162461bcd60e51b81526004016105aa90611e97565b600061074c82611315565b9050836001600160a01b0316816001600160a01b03161461077f5760405162a1148160e81b815260040160405180910390fd5b600082815260066020526040902080546107ab8187335b6001600160a01b039081169116811491141790565b6107d6576107b986336111c3565b6107d657604051632ce44b5f60e11b815260040160405180910390fd5b6001600160a01b0385166107fd57604051633a954ecd60e21b815260040160405180910390fd5b801561080857600082555b6001600160a01b03868116600090815260056020526040808220805460001901905591871681529081208054600101905561085b9086905b600160e11b174260a01b176001600160a01b03919091161790565b600085815260046020526040812091909155600160e11b841690036108b0576001840160008181526004602052604081205490036108ae5760005481146108ae5760008181526004602052604090208490555b505b83856001600160a01b0316876001600160a01b03166000805160206121d383398151915260405160405180910390a45b505050505050565b6108f061137c565b7fc8fcad8db84d3cc18b4c41d551ea0ee66dd599cde068d998e57d5e09332c132180546001600160a01b0319166001600160a01b0392909216919091179055565b60008181526009602052604090205460ff16156109605760405162461bcd60e51b81526004016105aa90611e97565b61097b83838360405180602001604052806000815250610e89565b505050565b610988611271565b60008181526009602052604090819020805460ff19169055517ff27b6ce5b2f5e68ddb2fd95a8a909d4ecf1daaac270935fff052feacb24f1842906109d09083815260200190565b60405180910390a150565b60006109e682611315565b92915050565b60006001600160a01b038216610a15576040516323d3ad8160e21b815260040160405180910390fd5b506001600160a01b031660009081526005602052604090205467ffffffffffffffff1690565b610a746040518060c001604052806000815260200160008152602001600081526020016000815260200160008152602001606081525090565b600060080160008381526020019081526020016000206040518060c00160405290816000820154815260200160018201548152602001600282015481526020016003820154815260200160048201548152602001600582018054610ad790611e5d565b80601f0160208091040260200160405190810160405280929190818152602001828054610b0390611e5d565b8015610b505780601f10610b2557610100808354040283529160200191610b50565b820191906000526020600020905b815481529060010190602001808311610b3357829003601f168201915b5050505050815250509050919050565b6060600060030180546104b490611e5d565b610b7a611271565b6000838152600a60209081526040918290205482518084019093528183527f455243353530373a205469636b657420616c726561647920726566756e6465649183019190915260ff1615610be15760405162461bcd60e51b81526004016105aa91906119f6565b506000838152600a60209081526040808320805460ff1916600190811790915560099092529091205460ff1615159003610c755760008381526009602052604090819020805460ff19169055517ff27b6ce5b2f5e68ddb2fd95a8a909d4ecf1daaac270935fff052feacb24f184290610c5d9085815260200190565b60405180910390a1610c70828285611409565b610cd2565b610c7e8361150c565b60008381526008602052604081208181556001810182905560028101829055600381018290556004810182905590610cb96005830182611958565b50506000838152600960205260409020805460ff191690555b60405183906001600160a01b038416907fbb28353e4598c3b9199101a66e0989549b659a59a54d2c27fbb183f1932c8e6d90600090a3505050565b6000610d17611271565b600080548082526008602090815260408084208d815560018082018e9055600282018d9055600382018c905560049091018a90556009909252909220805460ff191686151517905590610d6b90849061151a565b610d7581866115f4565b8315610db3576040518181527f032bc66be43dbccb7487781d168eb7bda224628a3b2c3388bdf69b532a3a16119060200160405180910390a1610de7565b6040518181527ff27b6ce5b2f5e68ddb2fd95a8a909d4ecf1daaac270935fff052feacb24f18429060200160405180910390a15b9998505050505050505050565b3360008181526007602090815260408083206001600160a01b03871680855290835292819020805460ff191686151590811790915590519081529192917f17307eab39ab6107e8899845ad3d59bd9653f200f220920489ca2b5937696c31910160405180910390a35050565b610e68611271565b610e718161150c565b6000908152600960205260409020805460ff19169055565b60008281526009602052604090205460ff1615610eb85760405162461bcd60e51b81526004016105aa90611e97565b610ec3848484610712565b6001600160a01b0383163b15610efc57610edf8484848461167d565b610efc576040516368d2bf6b60e11b815260040160405180910390fd5b50505050565b6000610f0d8361124a565b6040518060600160405280602b8152602001612225602b913990610f445760405162461bcd60e51b81526004016105aa91906119f6565b50336001600160a01b0316846001600160a01b0316146040518060600160405280602a81526020016121a9602a913990610f915760405162461bcd60e51b81526004016105aa91906119f6565b5060408051808201909152601b81527f455243323133353a20416d6f756e742073686f756c6420626520310000000000602082015260018314610fe75760405162461bcd60e51b81526004016105aa91906119f6565b506000838152600b6020526040812054900361100557506001611009565b5060005b9392505050565b606061101b8261124a565b61103857604051630a14c4b560e41b815260040160405180910390fd5b6000828152600860205260408120600501805461105490611e5d565b80601f016020809104026020016040519081016040528092919081815260200182805461108090611e5d565b80156110cd5780601f106110a2576101008083540402835291602001916110cd565b820191906000526020600020905b8154815290600101906020018083116110b057829003601f168201915b5050505050905060006110eb60408051602081019091526000815290565b905080516000036110fd575092915050565b81511561112f57808260405160200161111792919061200b565b60405160208183030381529060405292505050919050565b805160000361114d5760405180602001604052806000815250611168565b8061115785611768565b60405160200161111792919061200b565b949350505050565b611178611271565b60008181526009602052604090819020805460ff19166001179055517f032bc66be43dbccb7487781d168eb7bda224628a3b2c3388bdf69b532a3a1611906109d09083815260200190565b6001600160a01b03918216600090815260076020908152604080832093909416825291909152205460ff1690565b6000828152600860205260408120600201548103611211575060006109e6565b600061122160ff8416606461203a565b6000858152600860205260408120600201549192509061124190836117ac565b95945050505050565b60008054821080156109e6575050600090815260046020526040902054600160e01b161590565b7fc8fcad8db84d3cc18b4c41d551ea0ee66dd599cde068d998e57d5e09332c131c600501546001600160a01b031633146113135760405162461bcd60e51b815260206004820152603760248201527f4c69625469636b65744469616d6f6e643a204d757374206265206576656e742060448201527f7469636b657420636f6e74726f6c6c657220666163657400000000000000000060648201526084016105aa565b565b6000816000548110156113635760008181526004602052604081205490600160e01b82169003611361575b80600003611009575060001901600081815260046020526040902054611340565b505b604051636f96cda160e11b815260040160405180910390fd5b7fc8fcad8db84d3cc18b4c41d551ea0ee66dd599cde068d998e57d5e09332c131c600401546001600160a01b031633146113135760405162461bcd60e51b815260206004820152602860248201527f4c69625469636b65744469616d6f6e643a204d75737420626520636f6e74726160448201526731ba1037bbb732b960c11b60648201526084016105aa565b600061141482611315565b9050836001600160a01b0316816001600160a01b0316146114475760405162a1148160e81b815260040160405180910390fd5b6001600160a01b038481166000908152600560205260408082208054600019019055918516815290812080546001019055611483908490610840565b600083815260046020526040812091909155600160e11b821690036114d8576001820160008181526004602052604081205490036114d65760005481146114d65760008181526004602052604090208290555b505b81836001600160a01b0316856001600160a01b03166000805160206121d383398151915260405160405180910390a4610efc565b611517816000611820565b50565b600080549082900361153f5760405163b562e8dd60e01b815260040160405180910390fd5b6001600160a01b03831660008181526005602090815260408083208054680100000000000000018802019055848352600490915281206001851460e11b4260a01b178317905582840190839083906000805160206121d38339815191528180a4600183015b8181146115ca57808360006000805160206121d3833981519152600080a46001016115a4565b50816000036115eb57604051622e076360e81b815260040160405180910390fd5b60005550505050565b6115fd8261124a565b6116625760405162461bcd60e51b815260206004820152603060248201527f5469636b65744552433732314146616365743a2055524920736574206f66206e60448201526f37b732bc34b9ba32b73a103a37b5b2b760811b60648201526084016105aa565b600082815260086020526040902060050161097b828261205f565b604051630a85bd0160e11b81526000906001600160a01b0385169063150b7a02906116b290339089908890889060040161211f565b6020604051808303816000875af19250505080156116ed575060408051601f3d908101601f191682019092526116ea9181019061215c565b60015b61174b573d80801561171b576040519150601f19603f3d011682016040523d82523d6000602084013e611720565b606091505b508051600003611743576040516368d2bf6b60e11b815260040160405180910390fd5b805181602001fd5b6001600160e01b031916630a85bd0160e11b149050949350505050565b606060a06040510180604052602081039150506000815280825b600183039250600a81066030018353600a9004806117825750819003601f19909101908152919050565b60006127106117bb838561203a565b10156118095760405162461bcd60e51b815260206004820152601760248201527f50657263656e746167653a20526f756e647320746f203000000000000000000060448201526064016105aa565b612710611816838561203a565b6110099190612186565b600061182b83611315565b90508060008061184986600090815260066020526040902080549091565b9150915084156118895761185e818433610796565b6118895761186c83336111c3565b61188957604051632ce44b5f60e11b815260040160405180910390fd5b801561189457600082555b6001600160a01b038316600081815260056020526040902080546fffffffffffffffffffffffffffffffff0190554260a01b17600360e01b17600087815260046020526040812091909155600160e11b85169003611922576001860160008181526004602052604081205490036119205760005481146119205760008181526004602052604090208590555b505b60405186906000906001600160a01b038616906000805160206121d3833981519152908390a45050600180548101905550505050565b50805461196490611e5d565b6000825580601f10611974575050565b601f01602090049060005260206000209081019061151791905b808211156119a2576000815560010161198e565b5090565b60005b838110156119c15781810151838201526020016119a9565b50506000910152565b600081518084526119e28160208601602086016119a6565b601f01601f19169290920160200192915050565b60208152600061100960208301846119ca565b600060208284031215611a1b57600080fd5b5035919050565b80356001600160a01b0381168114611a3957600080fd5b919050565b60008060408385031215611a5157600080fd5b611a5a83611a22565b946020939093013593505050565b600080600080600060808688031215611a8057600080fd5b611a8986611a22565b94506020860135935060408601359250606086013567ffffffffffffffff80821115611ab457600080fd5b818801915088601f830112611ac857600080fd5b813581811115611ad757600080fd5b896020828501011115611ae957600080fd5b9699959850939650602001949392505050565b600080600060608486031215611b1157600080fd5b611b1a84611a22565b9250611b2860208501611a22565b9150604084013590509250925092565b600060208284031215611b4a57600080fd5b61100982611a22565b6020815281516020820152602082015160408201526040820151606082015260608201516080820152608082015160a0820152600060a083015160c08084015261116860e08401826119ca565b600080600060608486031215611bb557600080fd5b83359250611bc560208501611a22565b9150611bd360408501611a22565b90509250925092565b634e487b7160e01b600052604160045260246000fd5b600067ffffffffffffffff80841115611c0d57611c0d611bdc565b604051601f8501601f19908116603f01168101908282118183101715611c3557611c35611bdc565b81604052809350858152868686011115611c4e57600080fd5b858560208301376000602087830101525050509392505050565b80358015158114611a3957600080fd5b600080600080600080600080610100898b031215611c9557600080fd5b883597506020890135965060408901359550606089013594506080890135935060a089013567ffffffffffffffff811115611ccf57600080fd5b8901601f81018b13611ce057600080fd5b611cef8b823560208401611bf2565b935050611cfe60c08a01611c68565b9150611d0c60e08a01611a22565b90509295985092959890939650565b60008060408385031215611d2e57600080fd5b611d3783611a22565b9150611d4560208401611c68565b90509250929050565b60008060008060808587031215611d6457600080fd5b611d6d85611a22565b9350611d7b60208601611a22565b925060408501359150606085013567ffffffffffffffff811115611d9e57600080fd5b8501601f81018713611daf57600080fd5b611dbe87823560208401611bf2565b91505092959194509250565b600080600060608486031215611ddf57600080fd5b611de884611a22565b95602085013595506040909401359392505050565b60008060408385031215611e1057600080fd5b611e1983611a22565b9150611d4560208401611a22565b60008060408385031215611e3a57600080fd5b82359150602083013560ff81168114611e5257600080fd5b809150509250929050565b600181811c90821680611e7157607f821691505b602082108103611e9157634e487b7160e01b600052602260045260246000fd5b50919050565b6020808252601c908201527f455243353139323a205469636b657420697320736f756c626f756e6400000000604082015260600190565b601f82111561097b57600081815260208120601f850160051c81016020861015611ef55750805b601f850160051c820191505b818110156108e057828155600101611f01565b67ffffffffffffffff831115611f2c57611f2c611bdc565b611f4083611f3a8354611e5d565b83611ece565b6000601f841160018114611f745760008515611f5c5750838201355b600019600387901b1c1916600186901b178355611fce565b600083815260209020601f19861690835b82811015611fa55786850135825560209485019460019092019101611f85565b5086821015611fc25760001960f88860031b161c19848701351681555b505060018560011b0183555b5050505050565b83815260406020820152816040820152818360608301376000818301606090810191909152601f909201601f1916010192915050565b6000835161201d8184602088016119a6565b8351908301906120318183602088016119a6565b01949350505050565b80820281158282048414176109e657634e487b7160e01b600052601160045260246000fd5b815167ffffffffffffffff81111561207957612079611bdc565b61208d816120878454611e5d565b84611ece565b602080601f8311600181146120c257600084156120aa5750858301515b600019600386901b1c1916600185901b1785556108e0565b600085815260208120601f198616915b828110156120f1578886015182559484019460019091019084016120d2565b508582101561210f5787850151600019600388901b60f8161c191681555b5050505050600190811b01905550565b6001600160a01b0385811682528416602082015260408101839052608060608201819052600090612152908301846119ca565b9695505050505050565b60006020828403121561216e57600080fd5b81516001600160e01b03198116811461100957600080fd5b6000826121a357634e487b7160e01b600052601260045260246000fd5b50049056fe455243323133353a20436f6e73756d65722073686f756c6420626520746865206d73672073656e646572ddf252ad1be2c89b69c2b068fc378daa952ba7f163c4a11628f55a4df523b3ef455243323133353a205469636b6574206e6f7420636f6e73756d61626c65206f7220616c726561647920636f6e73756d65645469636b657446616365743a2043616e277420636c6970206e6f74206578697374696e67207469636b6574a26469706673582212202f97627441a57debefddc329e4dc9933f257d5572b8a9a9c34ca6cde7e15504f64736f6c63430008110033",
  "linkReferences": {},
  "deployedLinkReferences": {}
}